{
	"data": {
		"bytecode": {
			"linkReferences": {},
			"object": "6080604052348015600e575f5ffd5b5061060b8061001c5f395ff3fe608060405234801561000f575f5ffd5b506004361061004a575f3560e01c80632ee691a31461004e57806360db9dcf146100735780638129fc1c14610088578063e7c890b014610090575b5f5ffd5b61006161005c3660046104b9565b6100a3565b60405190815260200160405180910390f35b610086610081366004610518565b6100c1565b005b6100866102d5565b61008661009e366004610518565b610309565b5f81815481106100b1575f80fd5b5f91825260209091200154905081565b82811461010e5760405162461bcd60e51b8152602060048201526016602482015275082e4e4c2f2e640d8cadccee8d040dad2e6dac2e8c6d60531b60448201526064015b60405180910390fd5b5f546101545760405162461bcd60e51b815260206004820152601560248201527453636f72657320617272617920697320656d70747960581b6044820152606401610105565b825f5b818110156101c5575f5486868381811061017357610173610584565b90506020020135106101bd5760405162461bcd60e51b8152602060048201526013602482015272496e646578206f7574206f6620626f756e647360681b6044820152606401610105565b600101610157565b505f805467ffffffffffffffff8111156101e1576101e1610598565b60405190808252806020026020018201604052801561020a578160200160208202803683370190505b5090505f5b5f54811015610258575f818154811061022a5761022a610584565b905f5260205f20015482828151811061024557610245610584565b602090810291909101015260010161020f565b505f5b828110156102b95784848281811061027557610275610584565b905060200201358288888481811061028f5761028f610584565b90506020020135815181106102a6576102a6610584565b602090810291909101015260010161025b565b5080516102cc905f90602084019061045c565b50505050505050565b5f5b600a811015610306575f6102ec82600a6105ac565b8154600181810184555f93845260209093200155016102d7565b50565b8281146103515760405162461bcd60e51b8152602060048201526016602482015275082e4e4c2f2e640d8cadccee8d040dad2e6dac2e8c6d60531b6044820152606401610105565b5f546103975760405162461bcd60e51b815260206004820152601560248201527453636f72657320617272617920697320656d70747960581b6044820152606401610105565b5f5b83811015610455575f548585838181106103b5576103b5610584565b90506020020135106103ff5760405162461bcd60e51b8152602060048201526013602482015272496e646578206f7574206f6620626f756e647360681b6044820152606401610105565b82828281811061041157610411610584565b905060200201355f86868481811061042b5761042b610584565b905060200201358154811061044257610442610584565b5f91825260209091200155600101610399565b5050505050565b828054828255905f5260205f20908101928215610495579160200282015b8281111561049557825182559160200191906001019061047a565b506104a19291506104a5565b5090565b5b808211156104a1575f81556001016104a6565b5f602082840312156104c9575f5ffd5b5035919050565b5f5f83601f8401126104e0575f5ffd5b50813567ffffffffffffffff8111156104f7575f5ffd5b6020830191508360208260051b8501011115610511575f5ffd5b9250929050565b5f5f5f5f6040858703121561052b575f5ffd5b843567ffffffffffffffff811115610541575f5ffd5b61054d878288016104d0565b909550935050602085013567ffffffffffffffff81111561056c575f5ffd5b610578878288016104d0565b95989497509550505050565b634e487b7160e01b5f52603260045260245ffd5b634e487b7160e01b5f52604160045260245ffd5b80820281158282048414176105cf57634e487b7160e01b5f52601160045260245ffd5b9291505056fea26469706673582212207aae59cfdaa5e41ae5045e71060a3aefe6a7d3b350033b00acc4c5a0bfe8c5f964736f6c634300081f0033",
			"opcodes": "PUSH1 0x80 PUSH1 0x40 MSTORE CALLVALUE DUP1 ISZERO PUSH1 0xE JUMPI PUSH0 PUSH0 REVERT JUMPDEST POP PUSH2 0x60B DUP1 PUSH2 0x1C PUSH0 CODECOPY PUSH0 RETURN INVALID PUSH1 0x80 PUSH1 0x40 MSTORE CALLVALUE DUP1 ISZERO PUSH2 0xF JUMPI PUSH0 PUSH0 REVERT JUMPDEST POP PUSH1 0x4 CALLDATASIZE LT PUSH2 0x4A JUMPI PUSH0 CALLDATALOAD PUSH1 0xE0 SHR DUP1 PUSH4 0x2EE691A3 EQ PUSH2 0x4E JUMPI DUP1 PUSH4 0x60DB9DCF EQ PUSH2 0x73 JUMPI DUP1 PUSH4 0x8129FC1C EQ PUSH2 0x88 JUMPI DUP1 PUSH4 0xE7C890B0 EQ PUSH2 0x90 JUMPI JUMPDEST PUSH0 PUSH0 REVERT JUMPDEST PUSH2 0x61 PUSH2 0x5C CALLDATASIZE PUSH1 0x4 PUSH2 0x4B9 JUMP JUMPDEST PUSH2 0xA3 JUMP JUMPDEST PUSH1 0x40 MLOAD SWAP1 DUP2 MSTORE PUSH1 0x20 ADD PUSH1 0x40 MLOAD DUP1 SWAP2 SUB SWAP1 RETURN JUMPDEST PUSH2 0x86 PUSH2 0x81 CALLDATASIZE PUSH1 0x4 PUSH2 0x518 JUMP JUMPDEST PUSH2 0xC1 JUMP JUMPDEST STOP JUMPDEST PUSH2 0x86 PUSH2 0x2D5 JUMP JUMPDEST PUSH2 0x86 PUSH2 0x9E CALLDATASIZE PUSH1 0x4 PUSH2 0x518 JUMP JUMPDEST PUSH2 0x309 JUMP JUMPDEST PUSH0 DUP2 DUP2 SLOAD DUP2 LT PUSH2 0xB1 JUMPI PUSH0 DUP1 REVERT JUMPDEST PUSH0 SWAP2 DUP3 MSTORE PUSH1 0x20 SWAP1 SWAP2 KECCAK256 ADD SLOAD SWAP1 POP DUP2 JUMP JUMPDEST DUP3 DUP2 EQ PUSH2 0x10E JUMPI PUSH1 0x40 MLOAD PUSH3 0x461BCD PUSH1 0xE5 SHL DUP2 MSTORE PUSH1 0x20 PUSH1 0x4 DUP3 ADD MSTORE PUSH1 0x16 PUSH1 0x24 DUP3 ADD MSTORE PUSH22 0x82E4E4C2F2E640D8CADCCEE8D040DAD2E6DAC2E8C6D PUSH1 0x53 SHL PUSH1 0x44 DUP3 ADD MSTORE PUSH1 0x64 ADD JUMPDEST PUSH1 0x40 MLOAD DUP1 SWAP2 SUB SWAP1 REVERT JUMPDEST PUSH0 SLOAD PUSH2 0x154 JUMPI PUSH1 0x40 MLOAD PUSH3 0x461BCD PUSH1 0xE5 SHL DUP2 MSTORE PUSH1 0x20 PUSH1 0x4 DUP3 ADD MSTORE PUSH1 0x15 PUSH1 0x24 DUP3 ADD MSTORE PUSH21 0x53636F72657320617272617920697320656D707479 PUSH1 0x58 SHL PUSH1 0x44 DUP3 ADD MSTORE PUSH1 0x64 ADD PUSH2 0x105 JUMP JUMPDEST DUP3 PUSH0 JUMPDEST DUP2 DUP2 LT ISZERO PUSH2 0x1C5 JUMPI PUSH0 SLOAD DUP7 DUP7 DUP4 DUP2 DUP2 LT PUSH2 0x173 JUMPI PUSH2 0x173 PUSH2 0x584 JUMP JUMPDEST SWAP1 POP PUSH1 0x20 MUL ADD CALLDATALOAD LT PUSH2 0x1BD JUMPI PUSH1 0x40 MLOAD PUSH3 0x461BCD PUSH1 0xE5 SHL DUP2 MSTORE PUSH1 0x20 PUSH1 0x4 DUP3 ADD MSTORE PUSH1 0x13 PUSH1 0x24 DUP3 ADD MSTORE PUSH19 0x496E646578206F7574206F6620626F756E6473 PUSH1 0x68 SHL PUSH1 0x44 DUP3 ADD MSTORE PUSH1 0x64 ADD PUSH2 0x105 JUMP JUMPDEST PUSH1 0x1 ADD PUSH2 0x157 JUMP JUMPDEST POP PUSH0 DUP1 SLOAD PUSH8 0xFFFFFFFFFFFFFFFF DUP2 GT ISZERO PUSH2 0x1E1 JUMPI PUSH2 0x1E1 PUSH2 0x598 JUMP JUMPDEST PUSH1 0x40 MLOAD SWAP1 DUP1 DUP3 MSTORE DUP1 PUSH1 0x20 MUL PUSH1 0x20 ADD DUP3 ADD PUSH1 0x40 MSTORE DUP1 ISZERO PUSH2 0x20A JUMPI DUP2 PUSH1 0x20 ADD PUSH1 0x20 DUP3 MUL DUP1 CALLDATASIZE DUP4 CALLDATACOPY ADD SWAP1 POP JUMPDEST POP SWAP1 POP PUSH0 JUMPDEST PUSH0 SLOAD DUP2 LT ISZERO PUSH2 0x258 JUMPI PUSH0 DUP2 DUP2 SLOAD DUP2 LT PUSH2 0x22A JUMPI PUSH2 0x22A PUSH2 0x584 JUMP JUMPDEST SWAP1 PUSH0 MSTORE PUSH1 0x20 PUSH0 KECCAK256 ADD SLOAD DUP3 DUP3 DUP2 MLOAD DUP2 LT PUSH2 0x245 JUMPI PUSH2 0x245 PUSH2 0x584 JUMP JUMPDEST PUSH1 0x20 SWAP1 DUP2 MUL SWAP2 SWAP1 SWAP2 ADD ADD MSTORE PUSH1 0x1 ADD PUSH2 0x20F JUMP JUMPDEST POP PUSH0 JUMPDEST DUP3 DUP2 LT ISZERO PUSH2 0x2B9 JUMPI DUP5 DUP5 DUP3 DUP2 DUP2 LT PUSH2 0x275 JUMPI PUSH2 0x275 PUSH2 0x584 JUMP JUMPDEST SWAP1 POP PUSH1 0x20 MUL ADD CALLDATALOAD DUP3 DUP9 DUP9 DUP5 DUP2 DUP2 LT PUSH2 0x28F JUMPI PUSH2 0x28F PUSH2 0x584 JUMP JUMPDEST SWAP1 POP PUSH1 0x20 MUL ADD CALLDATALOAD DUP2 MLOAD DUP2 LT PUSH2 0x2A6 JUMPI PUSH2 0x2A6 PUSH2 0x584 JUMP JUMPDEST PUSH1 0x20 SWAP1 DUP2 MUL SWAP2 SWAP1 SWAP2 ADD ADD MSTORE PUSH1 0x1 ADD PUSH2 0x25B JUMP JUMPDEST POP DUP1 MLOAD PUSH2 0x2CC SWAP1 PUSH0 SWAP1 PUSH1 0x20 DUP5 ADD SWAP1 PUSH2 0x45C JUMP JUMPDEST POP POP POP POP POP POP POP JUMP JUMPDEST PUSH0 JUMPDEST PUSH1 0xA DUP2 LT ISZERO PUSH2 0x306 JUMPI PUSH0 PUSH2 0x2EC DUP3 PUSH1 0xA PUSH2 0x5AC JUMP JUMPDEST DUP2 SLOAD PUSH1 0x1 DUP2 DUP2 ADD DUP5 SSTORE PUSH0 SWAP4 DUP5 MSTORE PUSH1 0x20 SWAP1 SWAP4 KECCAK256 ADD SSTORE ADD PUSH2 0x2D7 JUMP JUMPDEST POP JUMP JUMPDEST DUP3 DUP2 EQ PUSH2 0x351 JUMPI PUSH1 0x40 MLOAD PUSH3 0x461BCD PUSH1 0xE5 SHL DUP2 MSTORE PUSH1 0x20 PUSH1 0x4 DUP3 ADD MSTORE PUSH1 0x16 PUSH1 0x24 DUP3 ADD MSTORE PUSH22 0x82E4E4C2F2E640D8CADCCEE8D040DAD2E6DAC2E8C6D PUSH1 0x53 SHL PUSH1 0x44 DUP3 ADD MSTORE PUSH1 0x64 ADD PUSH2 0x105 JUMP JUMPDEST PUSH0 SLOAD PUSH2 0x397 JUMPI PUSH1 0x40 MLOAD PUSH3 0x461BCD PUSH1 0xE5 SHL DUP2 MSTORE PUSH1 0x20 PUSH1 0x4 DUP3 ADD MSTORE PUSH1 0x15 PUSH1 0x24 DUP3 ADD MSTORE PUSH21 0x53636F72657320617272617920697320656D707479 PUSH1 0x58 SHL PUSH1 0x44 DUP3 ADD MSTORE PUSH1 0x64 ADD PUSH2 0x105 JUMP JUMPDEST PUSH0 JUMPDEST DUP4 DUP2 LT ISZERO PUSH2 0x455 JUMPI PUSH0 SLOAD DUP6 DUP6 DUP4 DUP2 DUP2 LT PUSH2 0x3B5 JUMPI PUSH2 0x3B5 PUSH2 0x584 JUMP JUMPDEST SWAP1 POP PUSH1 0x20 MUL ADD CALLDATALOAD LT PUSH2 0x3FF JUMPI PUSH1 0x40 MLOAD PUSH3 0x461BCD PUSH1 0xE5 SHL DUP2 MSTORE PUSH1 0x20 PUSH1 0x4 DUP3 ADD MSTORE PUSH1 0x13 PUSH1 0x24 DUP3 ADD MSTORE PUSH19 0x496E646578206F7574206F6620626F756E6473 PUSH1 0x68 SHL PUSH1 0x44 DUP3 ADD MSTORE PUSH1 0x64 ADD PUSH2 0x105 JUMP JUMPDEST DUP3 DUP3 DUP3 DUP2 DUP2 LT PUSH2 0x411 JUMPI PUSH2 0x411 PUSH2 0x584 JUMP JUMPDEST SWAP1 POP PUSH1 0x20 MUL ADD CALLDATALOAD PUSH0 DUP7 DUP7 DUP5 DUP2 DUP2 LT PUSH2 0x42B JUMPI PUSH2 0x42B PUSH2 0x584 JUMP JUMPDEST SWAP1 POP PUSH1 0x20 MUL ADD CALLDATALOAD DUP2 SLOAD DUP2 LT PUSH2 0x442 JUMPI PUSH2 0x442 PUSH2 0x584 JUMP JUMPDEST PUSH0 SWAP2 DUP3 MSTORE PUSH1 0x20 SWAP1 SWAP2 KECCAK256 ADD SSTORE PUSH1 0x1 ADD PUSH2 0x399 JUMP JUMPDEST POP POP POP POP POP JUMP JUMPDEST DUP3 DUP1 SLOAD DUP3 DUP3 SSTORE SWAP1 PUSH0 MSTORE PUSH1 0x20 PUSH0 KECCAK256 SWAP1 DUP2 ADD SWAP3 DUP3 ISZERO PUSH2 0x495 JUMPI SWAP2 PUSH1 0x20 MUL DUP3 ADD JUMPDEST DUP3 DUP2 GT ISZERO PUSH2 0x495 JUMPI DUP3 MLOAD DUP3 SSTORE SWAP2 PUSH1 0x20 ADD SWAP2 SWAP1 PUSH1 0x1 ADD SWAP1 PUSH2 0x47A JUMP JUMPDEST POP PUSH2 0x4A1 SWAP3 SWAP2 POP PUSH2 0x4A5 JUMP JUMPDEST POP SWAP1 JUMP JUMPDEST JUMPDEST DUP1 DUP3 GT ISZERO PUSH2 0x4A1 JUMPI PUSH0 DUP2 SSTORE PUSH1 0x1 ADD PUSH2 0x4A6 JUMP JUMPDEST PUSH0 PUSH1 0x20 DUP3 DUP5 SUB SLT ISZERO PUSH2 0x4C9 JUMPI PUSH0 PUSH0 REVERT JUMPDEST POP CALLDATALOAD SWAP2 SWAP1 POP JUMP JUMPDEST PUSH0 PUSH0 DUP4 PUSH1 0x1F DUP5 ADD SLT PUSH2 0x4E0 JUMPI PUSH0 PUSH0 REVERT JUMPDEST POP DUP2 CALLDATALOAD PUSH8 0xFFFFFFFFFFFFFFFF DUP2 GT ISZERO PUSH2 0x4F7 JUMPI PUSH0 PUSH0 REVERT JUMPDEST PUSH1 0x20 DUP4 ADD SWAP2 POP DUP4 PUSH1 0x20 DUP3 PUSH1 0x5 SHL DUP6 ADD ADD GT ISZERO PUSH2 0x511 JUMPI PUSH0 PUSH0 REVERT JUMPDEST SWAP3 POP SWAP3 SWAP1 POP JUMP JUMPDEST PUSH0 PUSH0 PUSH0 PUSH0 PUSH1 0x40 DUP6 DUP8 SUB SLT ISZERO PUSH2 0x52B JUMPI PUSH0 PUSH0 REVERT JUMPDEST DUP5 CALLDATALOAD PUSH8 0xFFFFFFFFFFFFFFFF DUP2 GT ISZERO PUSH2 0x541 JUMPI PUSH0 PUSH0 REVERT JUMPDEST PUSH2 0x54D DUP8 DUP3 DUP9 ADD PUSH2 0x4D0 JUMP JUMPDEST SWAP1 SWAP6 POP SWAP4 POP POP PUSH1 0x20 DUP6 ADD CALLDATALOAD PUSH8 0xFFFFFFFFFFFFFFFF DUP2 GT ISZERO PUSH2 0x56C JUMPI PUSH0 PUSH0 REVERT JUMPDEST PUSH2 0x578 DUP8 DUP3 DUP9 ADD PUSH2 0x4D0 JUMP JUMPDEST SWAP6 SWAP9 SWAP5 SWAP8 POP SWAP6 POP POP POP POP JUMP JUMPDEST PUSH4 0x4E487B71 PUSH1 0xE0 SHL PUSH0 MSTORE PUSH1 0x32 PUSH1 0x4 MSTORE PUSH1 0x24 PUSH0 REVERT JUMPDEST PUSH4 0x4E487B71 PUSH1 0xE0 SHL PUSH0 MSTORE PUSH1 0x41 PUSH1 0x4 MSTORE PUSH1 0x24 PUSH0 REVERT JUMPDEST DUP1 DUP3 MUL DUP2 ISZERO DUP3 DUP3 DIV DUP5 EQ OR PUSH2 0x5CF JUMPI PUSH4 0x4E487B71 PUSH1 0xE0 SHL PUSH0 MSTORE PUSH1 0x11 PUSH1 0x4 MSTORE PUSH1 0x24 PUSH0 REVERT JUMPDEST SWAP3 SWAP2 POP POP JUMP INVALID LOG2 PUSH5 0x6970667358 0x22 SLT KECCAK256 PUSH27 0xAE59CFDAA5E41AE5045E71060A3AEFE6A7D3B350033B00ACC4C5A0 0xBF 0xE8 0xC5 EXTDELEGATECALL PUSH5 0x736F6C6343 STOP ADDMOD 0x1F STOP CALLER "
		},
		"gasEstimates": {
			"creation": {
				"codeDepositCost": "309400",
				"executionCost": "347",
				"totalCost": "309747"
			},
			"external": {
				"initialize()": "infinite",
				"scores(uint256)": "4537",
				"updateScoresBad(uint256[],uint256[])": "infinite",
				"updateScoresGood(uint256[],uint256[])": "infinite"
			}
		},
		"methodIdentifiers": {
			"initialize()": "8129fc1c",
			"scores(uint256)": "2ee691a3",
			"updateScoresBad(uint256[],uint256[])": "e7c890b0",
			"updateScoresGood(uint256[],uint256[])": "60db9dcf"
		}
	},
	"abi": [
		{
			"inputs": [],
			"name": "initialize",
			"outputs": [],
			"stateMutability": "nonpayable",
			"type": "function"
		},
		{
			"inputs": [
				{
					"internalType": "uint256",
					"name": "",
					"type": "uint256"
				}
			],
			"name": "scores",
			"outputs": [
				{
					"internalType": "uint256",
					"name": "",
					"type": "uint256"
				}
			],
			"stateMutability": "view",
			"type": "function"
		},
		{
			"inputs": [
				{
					"internalType": "uint256[]",
					"name": "indices",
					"type": "uint256[]"
				},
				{
					"internalType": "uint256[]",
					"name": "newScores",
					"type": "uint256[]"
				}
			],
			"name": "updateScoresBad",
			"outputs": [],
			"stateMutability": "nonpayable",
			"type": "function"
		},
		{
			"inputs": [
				{
					"internalType": "uint256[]",
					"name": "indices",
					"type": "uint256[]"
				},
				{
					"internalType": "uint256[]",
					"name": "newScores",
					"type": "uint256[]"
				}
			],
			"name": "updateScoresGood",
			"outputs": [],
			"stateMutability": "nonpayable",
			"type": "function"
		}
	]
}