{
	"data": {
		"bytecode": {
			"linkReferences": {},
			"object": "6080604052348015600e575f5ffd5b5060cf80601a5f395ff3fe6080604052348015600e575f5ffd5b50600436106030575f3560e01c806391515d8f146034578063b53b8d7a14604c575b5f5ffd5b603a6052565b60405190815260200160405180910390f35b603a6069565b5f61271060038260618284607b565b949350505050565b5f8060756003600a607b565b92915050565b5f82609457634e487b7160e01b5f52601260045260245ffd5b50049056fea2646970667358221220ba69f7f3b6a8361918e6bd9aee96d77b48e04c359c2f00fc652b526689a2da9064736f6c634300081f0033",
			"opcodes": "PUSH1 0x80 PUSH1 0x40 MSTORE CALLVALUE DUP1 ISZERO PUSH1 0xE JUMPI PUSH0 PUSH0 REVERT JUMPDEST POP PUSH1 0xCF DUP1 PUSH1 0x1A PUSH0 CODECOPY PUSH0 RETURN INVALID PUSH1 0x80 PUSH1 0x40 MSTORE CALLVALUE DUP1 ISZERO PUSH1 0xE JUMPI PUSH0 PUSH0 REVERT JUMPDEST POP PUSH1 0x4 CALLDATASIZE LT PUSH1 0x30 JUMPI PUSH0 CALLDATALOAD PUSH1 0xE0 SHR DUP1 PUSH4 0x91515D8F EQ PUSH1 0x34 JUMPI DUP1 PUSH4 0xB53B8D7A EQ PUSH1 0x4C JUMPI JUMPDEST PUSH0 PUSH0 REVERT JUMPDEST PUSH1 0x3A PUSH1 0x52 JUMP JUMPDEST PUSH1 0x40 MLOAD SWAP1 DUP2 MSTORE PUSH1 0x20 ADD PUSH1 0x40 MLOAD DUP1 SWAP2 SUB SWAP1 RETURN JUMPDEST PUSH1 0x3A PUSH1 0x69 JUMP JUMPDEST PUSH0 PUSH2 0x2710 PUSH1 0x3 DUP3 PUSH1 0x61 DUP3 DUP5 PUSH1 0x7B JUMP JUMPDEST SWAP5 SWAP4 POP POP POP POP JUMP JUMPDEST PUSH0 DUP1 PUSH1 0x75 PUSH1 0x3 PUSH1 0xA PUSH1 0x7B JUMP JUMPDEST SWAP3 SWAP2 POP POP JUMP JUMPDEST PUSH0 DUP3 PUSH1 0x94 JUMPI PUSH4 0x4E487B71 PUSH1 0xE0 SHL PUSH0 MSTORE PUSH1 0x12 PUSH1 0x4 MSTORE PUSH1 0x24 PUSH0 REVERT JUMPDEST POP DIV SWAP1 JUMP INVALID LOG2 PUSH5 0x6970667358 0x22 SLT KECCAK256 0xBA PUSH10 0xF7F3B6A8361918E6BD9A RETURNCONTRACT 0x96 0xD7 PUSH28 0x48E04C359C2F00FC652B526689A2DA9064736F6C634300081F003300 "
		},
		"gasEstimates": {
			"creation": {
				"codeDepositCost": "41400",
				"executionCost": "91",
				"totalCost": "41491"
			},
			"external": {
				"divide()": "262",
				"divideWithPrecision()": "250"
			}
		},
		"methodIdentifiers": {
			"divide()": "b53b8d7a",
			"divideWithPrecision()": "91515d8f"
		}
	},
	"abi": [
		{
			"inputs": [],
			"name": "divide",
			"outputs": [
				{
					"internalType": "uint256",
					"name": "",
					"type": "uint256"
				}
			],
			"stateMutability": "pure",
			"type": "function"
		},
		{
			"inputs": [],
			"name": "divideWithPrecision",
			"outputs": [
				{
					"internalType": "uint256",
					"name": "",
					"type": "uint256"
				}
			],
			"stateMutability": "pure",
			"type": "function"
		}
	]
}