{
	"data": {
		"bytecode": {
			"linkReferences": {},
			"object": "6080604052348015600e575f5ffd5b5061056f8061001c5f395ff3fe608060405234801561000f575f5ffd5b5060043610610029575f3560e01c80630cbc513a1461002d575b5f5ffd5b61004061003b366004610467565b610056565b60405161004d919061047e565b60405180910390f35b6060815f0361007257505060408051602081019091525f815290565b610f9f8211156100a457505060408051808201909152600c81526b45786365656473203339393960a01b602082015290565b60408051600f8082528183019092525f916020820181803683370190505090505f83815b600d811080156100d757505f82115b156103be575f6060825f036101095750506040805180820190915260018152604d60f81b60208201526103e890610305565b82600103610135575050604080518082019091526002815261434d60f01b602082015261038490610305565b826002036101605750506040805180820190915260018152601160fa1b60208201526101f490610305565b8260030361018c57505060408051808201909152600281526110d160f21b602082015261019090610305565b826004036101b65750506040805180820190915260018152604360f81b6020820152606490610305565b826005036101e1575050604080518082019091526002815261584360f01b6020820152605a90610305565b8260060361020b5750506040805180820190915260018152601360fa1b6020820152603290610305565b82600703610236575050604080518082019091526002815261161360f21b6020820152602890610305565b826008036102605750506040805180820190915260018152600b60fb1b6020820152600a90610305565b8260090361028b575050604080518082019091526002815261092b60f31b6020820152600990610305565b82600a036102b55750506040805180820190915260018152602b60f91b6020820152600590610305565b82600b036102e057505060408051808201909152600281526124ab60f11b6020820152600490610305565b82600c03610305575050604080518082019091526001808252604960f81b6020830152905b818410156103145750506103ac565b5f61031f83866104db565b905061032b83866104ee565b94505f5b818110156103a7575f5b835181101561039e5783818151811061035457610354610501565b01602001516001600160f81b031916898961036e81610515565b9a508151811061038057610380610501565b60200101906001600160f81b03191690815f1a905350600101610339565b5060010161032f565b505050505b806103b681610515565b9150506100c8565b505f8267ffffffffffffffff8111156103d9576103d96104b3565b6040519080825280601f01601f191660200182016040528015610403576020820181803683370190505b5090505f5b8381101561045d5784818151811061042257610422610501565b602001015160f81c60f81b82828151811061043f5761043f610501565b60200101906001600160f81b03191690815f1a905350600101610408565b5095945050505050565b5f60208284031215610477575f5ffd5b5035919050565b602081525f82518060208401528060208501604085015e5f604082850101526040601f19601f83011684010191505092915050565b634e487b7160e01b5f52604160045260245ffd5b634e487b7160e01b5f52601260045260245ffd5b5f826104e9576104e96104c7565b500490565b5f826104fc576104fc6104c7565b500690565b634e487b7160e01b5f52603260045260245ffd5b5f6001820161053257634e487b7160e01b5f52601160045260245ffd5b506001019056fea2646970667358221220bf87b9d2f2b23051a46d46b33917af4b775da8258166a27cc709e9484007e8f864736f6c634300081f0033",
			"opcodes": "PUSH1 0x80 PUSH1 0x40 MSTORE CALLVALUE DUP1 ISZERO PUSH1 0xE JUMPI PUSH0 PUSH0 REVERT JUMPDEST POP PUSH2 0x56F DUP1 PUSH2 0x1C PUSH0 CODECOPY PUSH0 RETURN INVALID PUSH1 0x80 PUSH1 0x40 MSTORE CALLVALUE DUP1 ISZERO PUSH2 0xF JUMPI PUSH0 PUSH0 REVERT JUMPDEST POP PUSH1 0x4 CALLDATASIZE LT PUSH2 0x29 JUMPI PUSH0 CALLDATALOAD PUSH1 0xE0 SHR DUP1 PUSH4 0xCBC513A EQ PUSH2 0x2D JUMPI JUMPDEST PUSH0 PUSH0 REVERT JUMPDEST PUSH2 0x40 PUSH2 0x3B CALLDATASIZE PUSH1 0x4 PUSH2 0x467 JUMP JUMPDEST PUSH2 0x56 JUMP JUMPDEST PUSH1 0x40 MLOAD PUSH2 0x4D SWAP2 SWAP1 PUSH2 0x47E JUMP JUMPDEST PUSH1 0x40 MLOAD DUP1 SWAP2 SUB SWAP1 RETURN JUMPDEST PUSH1 0x60 DUP2 PUSH0 SUB PUSH2 0x72 JUMPI POP POP PUSH1 0x40 DUP1 MLOAD PUSH1 0x20 DUP2 ADD SWAP1 SWAP2 MSTORE PUSH0 DUP2 MSTORE SWAP1 JUMP JUMPDEST PUSH2 0xF9F DUP3 GT ISZERO PUSH2 0xA4 JUMPI POP POP PUSH1 0x40 DUP1 MLOAD DUP1 DUP3 ADD SWAP1 SWAP2 MSTORE PUSH1 0xC DUP2 MSTORE PUSH12 0x457863656564732033393939 PUSH1 0xA0 SHL PUSH1 0x20 DUP3 ADD MSTORE SWAP1 JUMP JUMPDEST PUSH1 0x40 DUP1 MLOAD PUSH1 0xF DUP1 DUP3 MSTORE DUP2 DUP4 ADD SWAP1 SWAP3 MSTORE PUSH0 SWAP2 PUSH1 0x20 DUP3 ADD DUP2 DUP1 CALLDATASIZE DUP4 CALLDATACOPY ADD SWAP1 POP POP SWAP1 POP PUSH0 DUP4 DUP2 JUMPDEST PUSH1 0xD DUP2 LT DUP1 ISZERO PUSH2 0xD7 JUMPI POP PUSH0 DUP3 GT JUMPDEST ISZERO PUSH2 0x3BE JUMPI PUSH0 PUSH1 0x60 DUP3 PUSH0 SUB PUSH2 0x109 JUMPI POP POP PUSH1 0x40 DUP1 MLOAD DUP1 DUP3 ADD SWAP1 SWAP2 MSTORE PUSH1 0x1 DUP2 MSTORE PUSH1 0x4D PUSH1 0xF8 SHL PUSH1 0x20 DUP3 ADD MSTORE PUSH2 0x3E8 SWAP1 PUSH2 0x305 JUMP JUMPDEST DUP3 PUSH1 0x1 SUB PUSH2 0x135 JUMPI POP POP PUSH1 0x40 DUP1 MLOAD DUP1 DUP3 ADD SWAP1 SWAP2 MSTORE PUSH1 0x2 DUP2 MSTORE PUSH2 0x434D PUSH1 0xF0 SHL PUSH1 0x20 DUP3 ADD MSTORE PUSH2 0x384 SWAP1 PUSH2 0x305 JUMP JUMPDEST DUP3 PUSH1 0x2 SUB PUSH2 0x160 JUMPI POP POP PUSH1 0x40 DUP1 MLOAD DUP1 DUP3 ADD SWAP1 SWAP2 MSTORE PUSH1 0x1 DUP2 MSTORE PUSH1 0x11 PUSH1 0xFA SHL PUSH1 0x20 DUP3 ADD MSTORE PUSH2 0x1F4 SWAP1 PUSH2 0x305 JUMP JUMPDEST DUP3 PUSH1 0x3 SUB PUSH2 0x18C JUMPI POP POP PUSH1 0x40 DUP1 MLOAD DUP1 DUP3 ADD SWAP1 SWAP2 MSTORE PUSH1 0x2 DUP2 MSTORE PUSH2 0x10D1 PUSH1 0xF2 SHL PUSH1 0x20 DUP3 ADD MSTORE PUSH2 0x190 SWAP1 PUSH2 0x305 JUMP JUMPDEST DUP3 PUSH1 0x4 SUB PUSH2 0x1B6 JUMPI POP POP PUSH1 0x40 DUP1 MLOAD DUP1 DUP3 ADD SWAP1 SWAP2 MSTORE PUSH1 0x1 DUP2 MSTORE PUSH1 0x43 PUSH1 0xF8 SHL PUSH1 0x20 DUP3 ADD MSTORE PUSH1 0x64 SWAP1 PUSH2 0x305 JUMP JUMPDEST DUP3 PUSH1 0x5 SUB PUSH2 0x1E1 JUMPI POP POP PUSH1 0x40 DUP1 MLOAD DUP1 DUP3 ADD SWAP1 SWAP2 MSTORE PUSH1 0x2 DUP2 MSTORE PUSH2 0x5843 PUSH1 0xF0 SHL PUSH1 0x20 DUP3 ADD MSTORE PUSH1 0x5A SWAP1 PUSH2 0x305 JUMP JUMPDEST DUP3 PUSH1 0x6 SUB PUSH2 0x20B JUMPI POP POP PUSH1 0x40 DUP1 MLOAD DUP1 DUP3 ADD SWAP1 SWAP2 MSTORE PUSH1 0x1 DUP2 MSTORE PUSH1 0x13 PUSH1 0xFA SHL PUSH1 0x20 DUP3 ADD MSTORE PUSH1 0x32 SWAP1 PUSH2 0x305 JUMP JUMPDEST DUP3 PUSH1 0x7 SUB PUSH2 0x236 JUMPI POP POP PUSH1 0x40 DUP1 MLOAD DUP1 DUP3 ADD SWAP1 SWAP2 MSTORE PUSH1 0x2 DUP2 MSTORE PUSH2 0x1613 PUSH1 0xF2 SHL PUSH1 0x20 DUP3 ADD MSTORE PUSH1 0x28 SWAP1 PUSH2 0x305 JUMP JUMPDEST DUP3 PUSH1 0x8 SUB PUSH2 0x260 JUMPI POP POP PUSH1 0x40 DUP1 MLOAD DUP1 DUP3 ADD SWAP1 SWAP2 MSTORE PUSH1 0x1 DUP2 MSTORE PUSH1 0xB PUSH1 0xFB SHL PUSH1 0x20 DUP3 ADD MSTORE PUSH1 0xA SWAP1 PUSH2 0x305 JUMP JUMPDEST DUP3 PUSH1 0x9 SUB PUSH2 0x28B JUMPI POP POP PUSH1 0x40 DUP1 MLOAD DUP1 DUP3 ADD SWAP1 SWAP2 MSTORE PUSH1 0x2 DUP2 MSTORE PUSH2 0x92B PUSH1 0xF3 SHL PUSH1 0x20 DUP3 ADD MSTORE PUSH1 0x9 SWAP1 PUSH2 0x305 JUMP JUMPDEST DUP3 PUSH1 0xA SUB PUSH2 0x2B5 JUMPI POP POP PUSH1 0x40 DUP1 MLOAD DUP1 DUP3 ADD SWAP1 SWAP2 MSTORE PUSH1 0x1 DUP2 MSTORE PUSH1 0x2B PUSH1 0xF9 SHL PUSH1 0x20 DUP3 ADD MSTORE PUSH1 0x5 SWAP1 PUSH2 0x305 JUMP JUMPDEST DUP3 PUSH1 0xB SUB PUSH2 0x2E0 JUMPI POP POP PUSH1 0x40 DUP1 MLOAD DUP1 DUP3 ADD SWAP1 SWAP2 MSTORE PUSH1 0x2 DUP2 MSTORE PUSH2 0x24AB PUSH1 0xF1 SHL PUSH1 0x20 DUP3 ADD MSTORE PUSH1 0x4 SWAP1 PUSH2 0x305 JUMP JUMPDEST DUP3 PUSH1 0xC SUB PUSH2 0x305 JUMPI POP POP PUSH1 0x40 DUP1 MLOAD DUP1 DUP3 ADD SWAP1 SWAP2 MSTORE PUSH1 0x1 DUP1 DUP3 MSTORE PUSH1 0x49 PUSH1 0xF8 SHL PUSH1 0x20 DUP4 ADD MSTORE SWAP1 JUMPDEST DUP2 DUP5 LT ISZERO PUSH2 0x314 JUMPI POP POP PUSH2 0x3AC JUMP JUMPDEST PUSH0 PUSH2 0x31F DUP4 DUP7 PUSH2 0x4DB JUMP JUMPDEST SWAP1 POP PUSH2 0x32B DUP4 DUP7 PUSH2 0x4EE JUMP JUMPDEST SWAP5 POP PUSH0 JUMPDEST DUP2 DUP2 LT ISZERO PUSH2 0x3A7 JUMPI PUSH0 JUMPDEST DUP4 MLOAD DUP2 LT ISZERO PUSH2 0x39E JUMPI DUP4 DUP2 DUP2 MLOAD DUP2 LT PUSH2 0x354 JUMPI PUSH2 0x354 PUSH2 0x501 JUMP JUMPDEST ADD PUSH1 0x20 ADD MLOAD PUSH1 0x1 PUSH1 0x1 PUSH1 0xF8 SHL SUB NOT AND DUP10 DUP10 PUSH2 0x36E DUP2 PUSH2 0x515 JUMP JUMPDEST SWAP11 POP DUP2 MLOAD DUP2 LT PUSH2 0x380 JUMPI PUSH2 0x380 PUSH2 0x501 JUMP JUMPDEST PUSH1 0x20 ADD ADD SWAP1 PUSH1 0x1 PUSH1 0x1 PUSH1 0xF8 SHL SUB NOT AND SWAP1 DUP2 PUSH0 BYTE SWAP1 MSTORE8 POP PUSH1 0x1 ADD PUSH2 0x339 JUMP JUMPDEST POP PUSH1 0x1 ADD PUSH2 0x32F JUMP JUMPDEST POP POP POP POP JUMPDEST DUP1 PUSH2 0x3B6 DUP2 PUSH2 0x515 JUMP JUMPDEST SWAP2 POP POP PUSH2 0xC8 JUMP JUMPDEST POP PUSH0 DUP3 PUSH8 0xFFFFFFFFFFFFFFFF DUP2 GT ISZERO PUSH2 0x3D9 JUMPI PUSH2 0x3D9 PUSH2 0x4B3 JUMP JUMPDEST PUSH1 0x40 MLOAD SWAP1 DUP1 DUP3 MSTORE DUP1 PUSH1 0x1F ADD PUSH1 0x1F NOT AND PUSH1 0x20 ADD DUP3 ADD PUSH1 0x40 MSTORE DUP1 ISZERO PUSH2 0x403 JUMPI PUSH1 0x20 DUP3 ADD DUP2 DUP1 CALLDATASIZE DUP4 CALLDATACOPY ADD SWAP1 POP JUMPDEST POP SWAP1 POP PUSH0 JUMPDEST DUP4 DUP2 LT ISZERO PUSH2 0x45D JUMPI DUP5 DUP2 DUP2 MLOAD DUP2 LT PUSH2 0x422 JUMPI PUSH2 0x422 PUSH2 0x501 JUMP JUMPDEST PUSH1 0x20 ADD ADD MLOAD PUSH1 0xF8 SHR PUSH1 0xF8 SHL DUP3 DUP3 DUP2 MLOAD DUP2 LT PUSH2 0x43F JUMPI PUSH2 0x43F PUSH2 0x501 JUMP JUMPDEST PUSH1 0x20 ADD ADD SWAP1 PUSH1 0x1 PUSH1 0x1 PUSH1 0xF8 SHL SUB NOT AND SWAP1 DUP2 PUSH0 BYTE SWAP1 MSTORE8 POP PUSH1 0x1 ADD PUSH2 0x408 JUMP JUMPDEST POP SWAP6 SWAP5 POP POP POP POP POP JUMP JUMPDEST PUSH0 PUSH1 0x20 DUP3 DUP5 SUB SLT ISZERO PUSH2 0x477 JUMPI PUSH0 PUSH0 REVERT JUMPDEST POP CALLDATALOAD SWAP2 SWAP1 POP JUMP JUMPDEST PUSH1 0x20 DUP2 MSTORE PUSH0 DUP3 MLOAD DUP1 PUSH1 0x20 DUP5 ADD MSTORE DUP1 PUSH1 0x20 DUP6 ADD PUSH1 0x40 DUP6 ADD MCOPY PUSH0 PUSH1 0x40 DUP3 DUP6 ADD ADD MSTORE PUSH1 0x40 PUSH1 0x1F NOT PUSH1 0x1F DUP4 ADD AND DUP5 ADD ADD SWAP2 POP POP SWAP3 SWAP2 POP POP JUMP JUMPDEST PUSH4 0x4E487B71 PUSH1 0xE0 SHL PUSH0 MSTORE PUSH1 0x41 PUSH1 0x4 MSTORE PUSH1 0x24 PUSH0 REVERT JUMPDEST PUSH4 0x4E487B71 PUSH1 0xE0 SHL PUSH0 MSTORE PUSH1 0x12 PUSH1 0x4 MSTORE PUSH1 0x24 PUSH0 REVERT JUMPDEST PUSH0 DUP3 PUSH2 0x4E9 JUMPI PUSH2 0x4E9 PUSH2 0x4C7 JUMP JUMPDEST POP DIV SWAP1 JUMP JUMPDEST PUSH0 DUP3 PUSH2 0x4FC JUMPI PUSH2 0x4FC PUSH2 0x4C7 JUMP JUMPDEST POP MOD SWAP1 JUMP JUMPDEST PUSH4 0x4E487B71 PUSH1 0xE0 SHL PUSH0 MSTORE PUSH1 0x32 PUSH1 0x4 MSTORE PUSH1 0x24 PUSH0 REVERT JUMPDEST PUSH0 PUSH1 0x1 DUP3 ADD PUSH2 0x532 JUMPI PUSH4 0x4E487B71 PUSH1 0xE0 SHL PUSH0 MSTORE PUSH1 0x11 PUSH1 0x4 MSTORE PUSH1 0x24 PUSH0 REVERT JUMPDEST POP PUSH1 0x1 ADD SWAP1 JUMP INVALID LOG2 PUSH5 0x6970667358 0x22 SLT KECCAK256 0xBF DUP8 0xB9 0xD2 CALLCODE 0xB2 ADDRESS MLOAD LOG4 PUSH14 0x46B33917AF4B775DA8258166A27C 0xC7 MULMOD 0xE9 BASEFEE BLOCKHASH SMOD 0xE8 EXTCALL PUSH5 0x736F6C6343 STOP ADDMOD 0x1F STOP CALLER "
		},
		"gasEstimates": {
			"creation": {
				"codeDepositCost": "278200",
				"executionCost": "316",
				"totalCost": "278516"
			},
			"external": {
				"intToRoman(uint256)": "infinite"
			}
		},
		"methodIdentifiers": {
			"intToRoman(uint256)": "0cbc513a"
		}
	},
	"abi": [
		{
			"inputs": [
				{
					"internalType": "uint256",
					"name": "num",
					"type": "uint256"
				}
			],
			"name": "intToRoman",
			"outputs": [
				{
					"internalType": "string",
					"name": "",
					"type": "string"
				}
			],
			"stateMutability": "pure",
			"type": "function"
		}
	]
}