{
	"data": {
		"bytecode": {
			"linkReferences": {},
			"object": "6080604052348015600e575f5ffd5b506104818061001c5f395ff3fe608060405234801561000f575f5ffd5b5060043610610029575f3560e01c8063f43537061461002d575b5f5ffd5b610047600480360381019061004291906102a0565b61005d565b604051610054919061030c565b60405180910390f35b5f5f5f8585905090505f8103610097577fffffffffffffffffffffffffffffffffffffffffffffffffffffffffffffffff925050506101fd565b5f6001826100a5919061035b565b90505f8590505f6002846100b991906103bb565b90506001841480156100e3575088885f8181106100d9576100d86103eb565b5b9050602002013582145b156100f5575f955050505050506101fd565b5f5b818110156101d357898987818110610112576101116103eb565b5b90506020020135830361012d578596505050505050506101fd565b8989858181106101405761013f6103eb565b5b90506020020135830361015b578396505050505050506101fd565b5f6002858861016a9190610418565b61017491906103bb565b90505f8b8b8381811061018a576101896103eb565b5b905060200201359050808513156101a3578197506101c4565b808512156101b3578195506101c3565b81985050505050505050506101fd565b5b505080806001019150506100f7565b507fffffffffffffffffffffffffffffffffffffffffffffffffffffffffffffffff955050505050505b9392505050565b5f5ffd5b5f5ffd5b5f5ffd5b5f5ffd5b5f5ffd5b5f5f83601f84011261022d5761022c61020c565b5b8235905067ffffffffffffffff81111561024a57610249610210565b5b60208301915083602082028301111561026657610265610214565b5b9250929050565b5f819050919050565b61027f8161026d565b8114610289575f5ffd5b50565b5f8135905061029a81610276565b92915050565b5f5f5f604084860312156102b7576102b6610204565b5b5f84013567ffffffffffffffff8111156102d4576102d3610208565b5b6102e086828701610218565b935093505060206102f38682870161028c565b9150509250925092565b6103068161026d565b82525050565b5f60208201905061031f5f8301846102fd565b92915050565b5f819050919050565b7f4e487b71000000000000000000000000000000000000000000000000000000005f52601160045260245ffd5b5f61036582610325565b915061037083610325565b92508282039050818111156103885761038761032e565b5b92915050565b7f4e487b71000000000000000000000000000000000000000000000000000000005f52601260045260245ffd5b5f6103c582610325565b91506103d083610325565b9250826103e0576103df61038e565b5b828204905092915050565b7f4e487b71000000000000000000000000000000000000000000000000000000005f52603260045260245ffd5b5f61042282610325565b915061042d83610325565b92508282019050808211156104455761044461032e565b5b9291505056fea264697066735822122041d45dbdd43b47216bfaaf5a7dc01b89f692ccae1e294c5683a550f63187c47564736f6c634300081f0033",
			"opcodes": "PUSH1 0x80 PUSH1 0x40 MSTORE CALLVALUE DUP1 ISZERO PUSH1 0xE JUMPI PUSH0 PUSH0 REVERT JUMPDEST POP PUSH2 0x481 DUP1 PUSH2 0x1C PUSH0 CODECOPY PUSH0 RETURN INVALID PUSH1 0x80 PUSH1 0x40 MSTORE CALLVALUE DUP1 ISZERO PUSH2 0xF JUMPI PUSH0 PUSH0 REVERT JUMPDEST POP PUSH1 0x4 CALLDATASIZE LT PUSH2 0x29 JUMPI PUSH0 CALLDATALOAD PUSH1 0xE0 SHR DUP1 PUSH4 0xF4353706 EQ PUSH2 0x2D JUMPI JUMPDEST PUSH0 PUSH0 REVERT JUMPDEST PUSH2 0x47 PUSH1 0x4 DUP1 CALLDATASIZE SUB DUP2 ADD SWAP1 PUSH2 0x42 SWAP2 SWAP1 PUSH2 0x2A0 JUMP JUMPDEST PUSH2 0x5D JUMP JUMPDEST PUSH1 0x40 MLOAD PUSH2 0x54 SWAP2 SWAP1 PUSH2 0x30C JUMP JUMPDEST PUSH1 0x40 MLOAD DUP1 SWAP2 SUB SWAP1 RETURN JUMPDEST PUSH0 PUSH0 PUSH0 DUP6 DUP6 SWAP1 POP SWAP1 POP PUSH0 DUP2 SUB PUSH2 0x97 JUMPI PUSH32 0xFFFFFFFFFFFFFFFFFFFFFFFFFFFFFFFFFFFFFFFFFFFFFFFFFFFFFFFFFFFFFFFF SWAP3 POP POP POP PUSH2 0x1FD JUMP JUMPDEST PUSH0 PUSH1 0x1 DUP3 PUSH2 0xA5 SWAP2 SWAP1 PUSH2 0x35B JUMP JUMPDEST SWAP1 POP PUSH0 DUP6 SWAP1 POP PUSH0 PUSH1 0x2 DUP5 PUSH2 0xB9 SWAP2 SWAP1 PUSH2 0x3BB JUMP JUMPDEST SWAP1 POP PUSH1 0x1 DUP5 EQ DUP1 ISZERO PUSH2 0xE3 JUMPI POP DUP9 DUP9 PUSH0 DUP2 DUP2 LT PUSH2 0xD9 JUMPI PUSH2 0xD8 PUSH2 0x3EB JUMP JUMPDEST JUMPDEST SWAP1 POP PUSH1 0x20 MUL ADD CALLDATALOAD DUP3 EQ JUMPDEST ISZERO PUSH2 0xF5 JUMPI PUSH0 SWAP6 POP POP POP POP POP POP PUSH2 0x1FD JUMP JUMPDEST PUSH0 JUMPDEST DUP2 DUP2 LT ISZERO PUSH2 0x1D3 JUMPI DUP10 DUP10 DUP8 DUP2 DUP2 LT PUSH2 0x112 JUMPI PUSH2 0x111 PUSH2 0x3EB JUMP JUMPDEST JUMPDEST SWAP1 POP PUSH1 0x20 MUL ADD CALLDATALOAD DUP4 SUB PUSH2 0x12D JUMPI DUP6 SWAP7 POP POP POP POP POP POP POP PUSH2 0x1FD JUMP JUMPDEST DUP10 DUP10 DUP6 DUP2 DUP2 LT PUSH2 0x140 JUMPI PUSH2 0x13F PUSH2 0x3EB JUMP JUMPDEST JUMPDEST SWAP1 POP PUSH1 0x20 MUL ADD CALLDATALOAD DUP4 SUB PUSH2 0x15B JUMPI DUP4 SWAP7 POP POP POP POP POP POP POP PUSH2 0x1FD JUMP JUMPDEST PUSH0 PUSH1 0x2 DUP6 DUP9 PUSH2 0x16A SWAP2 SWAP1 PUSH2 0x418 JUMP JUMPDEST PUSH2 0x174 SWAP2 SWAP1 PUSH2 0x3BB JUMP JUMPDEST SWAP1 POP PUSH0 DUP12 DUP12 DUP4 DUP2 DUP2 LT PUSH2 0x18A JUMPI PUSH2 0x189 PUSH2 0x3EB JUMP JUMPDEST JUMPDEST SWAP1 POP PUSH1 0x20 MUL ADD CALLDATALOAD SWAP1 POP DUP1 DUP6 SGT ISZERO PUSH2 0x1A3 JUMPI DUP2 SWAP8 POP PUSH2 0x1C4 JUMP JUMPDEST DUP1 DUP6 SLT ISZERO PUSH2 0x1B3 JUMPI DUP2 SWAP6 POP PUSH2 0x1C3 JUMP JUMPDEST DUP2 SWAP9 POP POP POP POP POP POP POP POP POP PUSH2 0x1FD JUMP JUMPDEST JUMPDEST POP POP DUP1 DUP1 PUSH1 0x1 ADD SWAP2 POP POP PUSH2 0xF7 JUMP JUMPDEST POP PUSH32 0xFFFFFFFFFFFFFFFFFFFFFFFFFFFFFFFFFFFFFFFFFFFFFFFFFFFFFFFFFFFFFFFF SWAP6 POP POP POP POP POP POP JUMPDEST SWAP4 SWAP3 POP POP POP JUMP JUMPDEST PUSH0 PUSH0 REVERT JUMPDEST PUSH0 PUSH0 REVERT JUMPDEST PUSH0 PUSH0 REVERT JUMPDEST PUSH0 PUSH0 REVERT JUMPDEST PUSH0 PUSH0 REVERT JUMPDEST PUSH0 PUSH0 DUP4 PUSH1 0x1F DUP5 ADD SLT PUSH2 0x22D JUMPI PUSH2 0x22C PUSH2 0x20C JUMP JUMPDEST JUMPDEST DUP3 CALLDATALOAD SWAP1 POP PUSH8 0xFFFFFFFFFFFFFFFF DUP2 GT ISZERO PUSH2 0x24A JUMPI PUSH2 0x249 PUSH2 0x210 JUMP JUMPDEST JUMPDEST PUSH1 0x20 DUP4 ADD SWAP2 POP DUP4 PUSH1 0x20 DUP3 MUL DUP4 ADD GT ISZERO PUSH2 0x266 JUMPI PUSH2 0x265 PUSH2 0x214 JUMP JUMPDEST JUMPDEST SWAP3 POP SWAP3 SWAP1 POP JUMP JUMPDEST PUSH0 DUP2 SWAP1 POP SWAP2 SWAP1 POP JUMP JUMPDEST PUSH2 0x27F DUP2 PUSH2 0x26D JUMP JUMPDEST DUP2 EQ PUSH2 0x289 JUMPI PUSH0 PUSH0 REVERT JUMPDEST POP JUMP JUMPDEST PUSH0 DUP2 CALLDATALOAD SWAP1 POP PUSH2 0x29A DUP2 PUSH2 0x276 JUMP JUMPDEST SWAP3 SWAP2 POP POP JUMP JUMPDEST PUSH0 PUSH0 PUSH0 PUSH1 0x40 DUP5 DUP7 SUB SLT ISZERO PUSH2 0x2B7 JUMPI PUSH2 0x2B6 PUSH2 0x204 JUMP JUMPDEST JUMPDEST PUSH0 DUP5 ADD CALLDATALOAD PUSH8 0xFFFFFFFFFFFFFFFF DUP2 GT ISZERO PUSH2 0x2D4 JUMPI PUSH2 0x2D3 PUSH2 0x208 JUMP JUMPDEST JUMPDEST PUSH2 0x2E0 DUP7 DUP3 DUP8 ADD PUSH2 0x218 JUMP JUMPDEST SWAP4 POP SWAP4 POP POP PUSH1 0x20 PUSH2 0x2F3 DUP7 DUP3 DUP8 ADD PUSH2 0x28C JUMP JUMPDEST SWAP2 POP POP SWAP3 POP SWAP3 POP SWAP3 JUMP JUMPDEST PUSH2 0x306 DUP2 PUSH2 0x26D JUMP JUMPDEST DUP3 MSTORE POP POP JUMP JUMPDEST PUSH0 PUSH1 0x20 DUP3 ADD SWAP1 POP PUSH2 0x31F PUSH0 DUP4 ADD DUP5 PUSH2 0x2FD JUMP JUMPDEST SWAP3 SWAP2 POP POP JUMP JUMPDEST PUSH0 DUP2 SWAP1 POP SWAP2 SWAP1 POP JUMP JUMPDEST PUSH32 0x4E487B7100000000000000000000000000000000000000000000000000000000 PUSH0 MSTORE PUSH1 0x11 PUSH1 0x4 MSTORE PUSH1 0x24 PUSH0 REVERT JUMPDEST PUSH0 PUSH2 0x365 DUP3 PUSH2 0x325 JUMP JUMPDEST SWAP2 POP PUSH2 0x370 DUP4 PUSH2 0x325 JUMP JUMPDEST SWAP3 POP DUP3 DUP3 SUB SWAP1 POP DUP2 DUP2 GT ISZERO PUSH2 0x388 JUMPI PUSH2 0x387 PUSH2 0x32E JUMP JUMPDEST JUMPDEST SWAP3 SWAP2 POP POP JUMP JUMPDEST PUSH32 0x4E487B7100000000000000000000000000000000000000000000000000000000 PUSH0 MSTORE PUSH1 0x12 PUSH1 0x4 MSTORE PUSH1 0x24 PUSH0 REVERT JUMPDEST PUSH0 PUSH2 0x3C5 DUP3 PUSH2 0x325 JUMP JUMPDEST SWAP2 POP PUSH2 0x3D0 DUP4 PUSH2 0x325 JUMP JUMPDEST SWAP3 POP DUP3 PUSH2 0x3E0 JUMPI PUSH2 0x3DF PUSH2 0x38E JUMP JUMPDEST JUMPDEST DUP3 DUP3 DIV SWAP1 POP SWAP3 SWAP2 POP POP JUMP JUMPDEST PUSH32 0x4E487B7100000000000000000000000000000000000000000000000000000000 PUSH0 MSTORE PUSH1 0x32 PUSH1 0x4 MSTORE PUSH1 0x24 PUSH0 REVERT JUMPDEST PUSH0 PUSH2 0x422 DUP3 PUSH2 0x325 JUMP JUMPDEST SWAP2 POP PUSH2 0x42D DUP4 PUSH2 0x325 JUMP JUMPDEST SWAP3 POP DUP3 DUP3 ADD SWAP1 POP DUP1 DUP3 GT ISZERO PUSH2 0x445 JUMPI PUSH2 0x444 PUSH2 0x32E JUMP JUMPDEST JUMPDEST SWAP3 SWAP2 POP POP JUMP INVALID LOG2 PUSH5 0x6970667358 0x22 SLT KECCAK256 COINBASE 0xD4 TSTORE 0xBD 0xD4 EXTCODESIZE SELFBALANCE 0x21 PUSH12 0xFAAF5A7DC01B89F692CCAE1E 0x29 0x4C JUMP DUP4 0xA5 POP 0xF6 BALANCE DUP8 0xC4 PUSH22 0x64736F6C634300081F00330000000000000000000000 "
		},
		"gasEstimates": {
			"creation": {
				"codeDepositCost": "230600",
				"executionCost": "273",
				"totalCost": "230873"
			},
			"external": {
				"binarySearch(int256[],int256)": "infinite"
			}
		},
		"methodIdentifiers": {
			"binarySearch(int256[],int256)": "f4353706"
		}
	},
	"abi": [
		{
			"inputs": [
				{
					"internalType": "int256[]",
					"name": "arr",
					"type": "int256[]"
				},
				{
					"internalType": "int256",
					"name": "num",
					"type": "int256"
				}
			],
			"name": "binarySearch",
			"outputs": [
				{
					"internalType": "int256",
					"name": "",
					"type": "int256"
				}
			],
			"stateMutability": "pure",
			"type": "function"
		}
	]
}