{
	"data": {
		"bytecode": {
			"linkReferences": {},
			"object": "6080604052348015600e575f5ffd5b50608980601a5f395ff3fe6080604052348015600e575f5ffd5b50600436106030575f3560e01c806318160ddd146034578063976d36d014604d575b5f5ffd5b603b5f5481565b60405190815260200160405180910390f35b5f54603b56fea264697066735822122016afeab153ea7358d3f9d5d5a5ced6e3cf821b3d77ea551536e60e8ff0b520e464736f6c634300081f0033",
			"opcodes": "PUSH1 0x80 PUSH1 0x40 MSTORE CALLVALUE DUP1 ISZERO PUSH1 0xE JUMPI PUSH0 PUSH0 REVERT JUMPDEST POP PUSH1 0x89 DUP1 PUSH1 0x1A PUSH0 CODECOPY PUSH0 RETURN INVALID PUSH1 0x80 PUSH1 0x40 MSTORE CALLVALUE DUP1 ISZERO PUSH1 0xE JUMPI PUSH0 PUSH0 REVERT JUMPDEST POP PUSH1 0x4 CALLDATASIZE LT PUSH1 0x30 JUMPI PUSH0 CALLDATALOAD PUSH1 0xE0 SHR DUP1 PUSH4 0x18160DDD EQ PUSH1 0x34 JUMPI DUP1 PUSH4 0x976D36D0 EQ PUSH1 0x4D JUMPI JUMPDEST PUSH0 PUSH0 REVERT JUMPDEST PUSH1 0x3B PUSH0 SLOAD DUP2 JUMP JUMPDEST PUSH1 0x40 MLOAD SWAP1 DUP2 MSTORE PUSH1 0x20 ADD PUSH1 0x40 MLOAD DUP1 SWAP2 SUB SWAP1 RETURN JUMPDEST PUSH0 SLOAD PUSH1 0x3B JUMP INVALID LOG2 PUSH5 0x6970667358 0x22 SLT KECCAK256 AND 0xAF 0xEA 0xB1 MSTORE8 0xEA PUSH20 0x58D3F9D5D5A5CED6E3CF821B3D77EA551536E60E DUP16 CREATE 0xB5 KECCAK256 RETF PUSH5 0x736F6C6343 STOP ADDMOD 0x1F STOP CALLER "
		},
		"gasEstimates": {
			"creation": {
				"codeDepositCost": "27400",
				"executionCost": "79",
				"totalCost": "27479"
			},
			"external": {
				"totalSupply()": "2259",
				"totalSupply1()": "2278"
			}
		},
		"methodIdentifiers": {
			"totalSupply()": "18160ddd",
			"totalSupply1()": "976d36d0"
		}
	},
	"abi": [
		{
			"inputs": [],
			"name": "totalSupply",
			"outputs": [
				{
					"internalType": "uint256",
					"name": "",
					"type": "uint256"
				}
			],
			"stateMutability": "view",
			"type": "function"
		},
		{
			"inputs": [],
			"name": "totalSupply1",
			"outputs": [
				{
					"internalType": "uint256",
					"name": "",
					"type": "uint256"
				}
			],
			"stateMutability": "view",
			"type": "function"
		}
	]
}