{
	"contracts/task01/ReverseString.sol": {
		"ReverseString": {
			"abi": [
				{
					"inputs": [
						{
							"internalType": "string",
							"name": "input",
							"type": "string"
						}
					],
					"name": "reverseString",
					"outputs": [
						{
							"internalType": "string",
							"name": "",
							"type": "string"
						}
					],
					"stateMutability": "pure",
					"type": "function"
				}
			],
			"devdoc": {
				"kind": "dev",
				"methods": {},
				"version": 1
			},
			"evm": {
				"assembly": "    /* \"contracts/task01/ReverseString.sol\":173:749  contract ReverseString{... */\n  mstore(0x40, 0x80)\n  callvalue\n  dup1\n  iszero\n  tag_1\n  jumpi\n  revert(0x00, 0x00)\ntag_1:\n  pop\n  dataSize(sub_0)\n  dup1\n  dataOffset(sub_0)\n  0x00\n  codecopy\n  0x00\n  return\nstop\n\nsub_0: assembly {\n        /* \"contracts/task01/ReverseString.sol\":173:749  contract ReverseString{... */\n      mstore(0x40, 0x80)\n      callvalue\n      dup1\n      iszero\n      tag_1\n      jumpi\n      revert(0x00, 0x00)\n    tag_1:\n      pop\n      jumpi(tag_2, lt(calldatasize, 0x04))\n      shr(0xe0, calldataload(0x00))\n      dup1\n      0x5729c211\n      eq\n      tag_3\n      jumpi\n    tag_2:\n      revert(0x00, 0x00)\n        /* \"contracts/task01/ReverseString.sol\":201:747  function reverseString(string calldata input) public pure returns(string memory){... */\n    tag_3:\n      tag_4\n      tag_5\n      calldatasize\n      0x04\n      tag_6\n      jump\t// in\n    tag_5:\n      tag_7\n      jump\t// in\n    tag_4:\n      mload(0x40)\n      tag_8\n      swap2\n      swap1\n      tag_9\n      jump\t// in\n    tag_8:\n      mload(0x40)\n      dup1\n      swap2\n      sub\n      swap1\n      return\n    tag_7:\n        /* \"contracts/task01/ReverseString.sol\":267:280  string memory */\n      0x60\n        /* \"contracts/task01/ReverseString.sol\":291:308  bytes memory temp */\n      0x00\n        /* \"contracts/task01/ReverseString.sol\":317:322  input */\n      dup4\n      dup4\n        /* \"contracts/task01/ReverseString.sol\":291:323  bytes memory temp = bytes(input) */\n      dup1\n      dup1\n      0x1f\n      add\n      0x20\n      dup1\n      swap2\n      div\n      mul\n      0x20\n      add\n      mload(0x40)\n      swap1\n      dup2\n      add\n      0x40\n      mstore\n      dup1\n      swap4\n      swap3\n      swap2\n      swap1\n      dup2\n      dup2\n      mstore\n      0x20\n      add\n      dup4\n      dup4\n      dup1\n      dup3\n      dup5\n      calldatacopy\n      0x00\n      swap3\n      add\n      dup3\n      swap1\n      mstore\n      pop\n        /* \"contracts/task01/ReverseString.sol\":347:358  temp.length */\n      dup5\n      mload\n        /* \"contracts/task01/ReverseString.sol\":291:323  bytes memory temp = bytes(input) */\n      swap5\n      swap6\n      pop\n      swap3\n      pop\n      pop\n      pop\n        /* \"contracts/task01/ReverseString.sol\":390:542  do{... */\n    tag_11:\n        /* \"contracts/task01/ReverseString.sol\":406:417  bytes1 swap */\n      0x00\n        /* \"contracts/task01/ReverseString.sol\":420:424  temp */\n      dup4\n        /* \"contracts/task01/ReverseString.sol\":425:426  i */\n      dup3\n        /* \"contracts/task01/ReverseString.sol\":420:427  temp[i] */\n      dup2\n      mload\n      dup2\n      lt\n      tag_15\n      jumpi\n      tag_15\n      tag_16\n      jump\t// in\n    tag_15:\n      add\n      0x20\n      add\n      mload\n      not(sub(shl(0xf8, 0x01), 0x01))\n      and\n      swap1\n      pop\n        /* \"contracts/task01/ReverseString.sol\":449:453  temp */\n      dup4\n        /* \"contracts/task01/ReverseString.sol\":460:461  i */\n      dup3\n        /* \"contracts/task01/ReverseString.sol\":454:459  len-1 */\n      tag_17\n        /* \"contracts/task01/ReverseString.sol\":458:459  1 */\n      0x01\n        /* \"contracts/task01/ReverseString.sol\":454:457  len */\n      dup7\n        /* \"contracts/task01/ReverseString.sol\":454:459  len-1 */\n      tag_18\n      jump\t// in\n    tag_17:\n        /* \"contracts/task01/ReverseString.sol\":454:461  len-1-i */\n      tag_19\n      swap2\n      swap1\n      tag_18\n      jump\t// in\n    tag_19:\n        /* \"contracts/task01/ReverseString.sol\":449:462  temp[len-1-i] */\n      dup2\n      mload\n      dup2\n      lt\n      tag_21\n      jumpi\n      tag_21\n      tag_16\n      jump\t// in\n    tag_21:\n      0x20\n      add\n      add\n      mload\n      0xf8\n      shr\n      0xf8\n      shl\n        /* \"contracts/task01/ReverseString.sol\":441:445  temp */\n      dup5\n        /* \"contracts/task01/ReverseString.sol\":446:447  i */\n      dup4\n        /* \"contracts/task01/ReverseString.sol\":441:448  temp[i] */\n      dup2\n      mload\n      dup2\n      lt\n      tag_23\n      jumpi\n      tag_23\n      tag_16\n      jump\t// in\n    tag_23:\n      0x20\n      add\n      add\n        /* \"contracts/task01/ReverseString.sol\":441:462  temp[i]=temp[len-1-i] */\n      swap1\n      not(sub(shl(0xf8, 0x01), 0x01))\n      and\n      swap1\n      dup2\n      0x00\n      byte\n      swap1\n      mstore8\n      pop\n        /* \"contracts/task01/ReverseString.sol\":490:494  swap */\n      dup1\n        /* \"contracts/task01/ReverseString.sol\":476:480  temp */\n      dup5\n        /* \"contracts/task01/ReverseString.sol\":487:488  i */\n      dup4\n        /* \"contracts/task01/ReverseString.sol\":481:486  len-1 */\n      tag_24\n        /* \"contracts/task01/ReverseString.sol\":485:486  1 */\n      0x01\n        /* \"contracts/task01/ReverseString.sol\":481:484  len */\n      dup8\n        /* \"contracts/task01/ReverseString.sol\":481:486  len-1 */\n      tag_18\n      jump\t// in\n    tag_24:\n        /* \"contracts/task01/ReverseString.sol\":481:488  len-1-i */\n      tag_25\n      swap2\n      swap1\n      tag_18\n      jump\t// in\n    tag_25:\n        /* \"contracts/task01/ReverseString.sol\":476:489  temp[len-1-i] */\n      dup2\n      mload\n      dup2\n      lt\n      tag_27\n      jumpi\n      tag_27\n      tag_16\n      jump\t// in\n    tag_27:\n      0x20\n      add\n      add\n        /* \"contracts/task01/ReverseString.sol\":476:494  temp[len-1-i]=swap */\n      swap1\n      not(sub(shl(0xf8, 0x01), 0x01))\n      and\n      swap1\n      dup2\n      0x00\n      byte\n      swap1\n      mstore8\n      pop\n        /* \"contracts/task01/ReverseString.sol\":508:511  i++ */\n      dup2\n      tag_28\n      dup2\n      tag_29\n      jump\t// in\n    tag_28:\n      swap3\n      pop\n      pop\n        /* \"contracts/task01/ReverseString.sol\":392:522  {... */\n      pop\n        /* \"contracts/task01/ReverseString.sol\":539:540  2 */\n      0x02\n        /* \"contracts/task01/ReverseString.sol\":533:536  len */\n      dup3\n        /* \"contracts/task01/ReverseString.sol\":533:540  len / 2 */\n      tag_30\n      swap2\n      swap1\n      tag_31\n      jump\t// in\n    tag_30:\n        /* \"contracts/task01/ReverseString.sol\":529:530  i */\n      dup2\n        /* \"contracts/task01/ReverseString.sol\":529:540  i < len / 2 */\n      lt\n        /* \"contracts/task01/ReverseString.sol\":390:542  do{... */\n      tag_11\n      jumpi\n      pop\n        /* \"contracts/task01/ReverseString.sol\":735:739  temp */\n      swap1\n      swap2\n      pop\n      pop\n        /* \"contracts/task01/ReverseString.sol\":201:747  function reverseString(string calldata input) public pure returns(string memory){... */\n    tag_10:\n      swap3\n      swap2\n      pop\n      pop\n      jump\t// out\n        /* \"#utility.yul\":14:601   */\n    tag_6:\n        /* \"#utility.yul\":85:91   */\n      0x00\n        /* \"#utility.yul\":93:99   */\n      0x00\n        /* \"#utility.yul\":146:148   */\n      0x20\n        /* \"#utility.yul\":134:143   */\n      dup4\n        /* \"#utility.yul\":125:132   */\n      dup6\n        /* \"#utility.yul\":121:144   */\n      sub\n        /* \"#utility.yul\":117:149   */\n      slt\n        /* \"#utility.yul\":114:166   */\n      iszero\n      tag_35\n      jumpi\n        /* \"#utility.yul\":162:163   */\n      0x00\n        /* \"#utility.yul\":159:160   */\n      0x00\n        /* \"#utility.yul\":152:164   */\n      revert\n        /* \"#utility.yul\":114:166   */\n    tag_35:\n        /* \"#utility.yul\":202:211   */\n      dup3\n        /* \"#utility.yul\":189:212   */\n      calldataload\n        /* \"#utility.yul\":235:253   */\n      0xffffffffffffffff\n        /* \"#utility.yul\":227:233   */\n      dup2\n        /* \"#utility.yul\":224:254   */\n      gt\n        /* \"#utility.yul\":221:271   */\n      iszero\n      tag_36\n      jumpi\n        /* \"#utility.yul\":267:268   */\n      0x00\n        /* \"#utility.yul\":264:265   */\n      0x00\n        /* \"#utility.yul\":257:269   */\n      revert\n        /* \"#utility.yul\":221:271   */\n    tag_36:\n        /* \"#utility.yul\":290:312   */\n      dup4\n      add\n        /* \"#utility.yul\":343:347   */\n      0x1f\n        /* \"#utility.yul\":335:348   */\n      dup2\n      add\n        /* \"#utility.yul\":331:358   */\n      dup6\n      sgt\n        /* \"#utility.yul\":321:376   */\n      tag_37\n      jumpi\n        /* \"#utility.yul\":372:373   */\n      0x00\n        /* \"#utility.yul\":369:370   */\n      0x00\n        /* \"#utility.yul\":362:374   */\n      revert\n        /* \"#utility.yul\":321:376   */\n    tag_37:\n        /* \"#utility.yul\":412:414   */\n      dup1\n        /* \"#utility.yul\":399:415   */\n      calldataload\n        /* \"#utility.yul\":438:456   */\n      0xffffffffffffffff\n        /* \"#utility.yul\":430:436   */\n      dup2\n        /* \"#utility.yul\":427:457   */\n      gt\n        /* \"#utility.yul\":424:474   */\n      iszero\n      tag_38\n      jumpi\n        /* \"#utility.yul\":470:471   */\n      0x00\n        /* \"#utility.yul\":467:468   */\n      0x00\n        /* \"#utility.yul\":460:472   */\n      revert\n        /* \"#utility.yul\":424:474   */\n    tag_38:\n        /* \"#utility.yul\":515:522   */\n      dup6\n        /* \"#utility.yul\":510:512   */\n      0x20\n        /* \"#utility.yul\":501:507   */\n      dup3\n        /* \"#utility.yul\":497:499   */\n      dup5\n        /* \"#utility.yul\":493:508   */\n      add\n        /* \"#utility.yul\":489:513   */\n      add\n        /* \"#utility.yul\":486:523   */\n      gt\n        /* \"#utility.yul\":483:540   */\n      iszero\n      tag_39\n      jumpi\n        /* \"#utility.yul\":536:537   */\n      0x00\n        /* \"#utility.yul\":533:534   */\n      0x00\n        /* \"#utility.yul\":526:538   */\n      revert\n        /* \"#utility.yul\":483:540   */\n    tag_39:\n        /* \"#utility.yul\":567:569   */\n      0x20\n        /* \"#utility.yul\":559:570   */\n      swap2\n      swap1\n      swap2\n      add\n      swap6\n        /* \"#utility.yul\":589:595   */\n      swap1\n      swap5\n      pop\n        /* \"#utility.yul\":14:601   */\n      swap3\n      pop\n      pop\n      pop\n      jump\t// out\n        /* \"#utility.yul\":606:1024   */\n    tag_9:\n        /* \"#utility.yul\":755:757   */\n      0x20\n        /* \"#utility.yul\":744:753   */\n      dup2\n        /* \"#utility.yul\":737:758   */\n      mstore\n        /* \"#utility.yul\":718:722   */\n      0x00\n        /* \"#utility.yul\":787:793   */\n      dup3\n        /* \"#utility.yul\":781:794   */\n      mload\n        /* \"#utility.yul\":830:836   */\n      dup1\n        /* \"#utility.yul\":825:827   */\n      0x20\n        /* \"#utility.yul\":814:823   */\n      dup5\n        /* \"#utility.yul\":810:828   */\n      add\n        /* \"#utility.yul\":803:837   */\n      mstore\n        /* \"#utility.yul\":889:895   */\n      dup1\n        /* \"#utility.yul\":884:886   */\n      0x20\n        /* \"#utility.yul\":876:882   */\n      dup6\n        /* \"#utility.yul\":872:887   */\n      add\n        /* \"#utility.yul\":867:869   */\n      0x40\n        /* \"#utility.yul\":856:865   */\n      dup6\n        /* \"#utility.yul\":852:870   */\n      add\n        /* \"#utility.yul\":846:896   */\n      mcopy\n        /* \"#utility.yul\":945:946   */\n      0x00\n        /* \"#utility.yul\":940:942   */\n      0x40\n        /* \"#utility.yul\":931:937   */\n      dup3\n        /* \"#utility.yul\":920:929   */\n      dup6\n        /* \"#utility.yul\":916:938   */\n      add\n        /* \"#utility.yul\":912:943   */\n      add\n        /* \"#utility.yul\":905:947   */\n      mstore\n        /* \"#utility.yul\":1015:1017   */\n      0x40\n        /* \"#utility.yul\":1008:1010   */\n      0x1f\n        /* \"#utility.yul\":1004:1011   */\n      not\n        /* \"#utility.yul\":999:1001   */\n      0x1f\n        /* \"#utility.yul\":991:997   */\n      dup4\n        /* \"#utility.yul\":987:1002   */\n      add\n        /* \"#utility.yul\":983:1012   */\n      and\n        /* \"#utility.yul\":972:981   */\n      dup5\n        /* \"#utility.yul\":968:1013   */\n      add\n        /* \"#utility.yul\":964:1018   */\n      add\n        /* \"#utility.yul\":956:1018   */\n      swap2\n      pop\n      pop\n        /* \"#utility.yul\":606:1024   */\n      swap3\n      swap2\n      pop\n      pop\n      jump\t// out\n        /* \"#utility.yul\":1029:1156   */\n    tag_16:\n        /* \"#utility.yul\":1090:1100   */\n      0x4e487b71\n        /* \"#utility.yul\":1085:1088   */\n      0xe0\n        /* \"#utility.yul\":1081:1101   */\n      shl\n        /* \"#utility.yul\":1078:1079   */\n      0x00\n        /* \"#utility.yul\":1071:1102   */\n      mstore\n        /* \"#utility.yul\":1121:1125   */\n      0x32\n        /* \"#utility.yul\":1118:1119   */\n      0x04\n        /* \"#utility.yul\":1111:1126   */\n      mstore\n        /* \"#utility.yul\":1145:1149   */\n      0x24\n        /* \"#utility.yul\":1142:1143   */\n      0x00\n        /* \"#utility.yul\":1135:1150   */\n      revert\n        /* \"#utility.yul\":1161:1288   */\n    tag_32:\n        /* \"#utility.yul\":1222:1232   */\n      0x4e487b71\n        /* \"#utility.yul\":1217:1220   */\n      0xe0\n        /* \"#utility.yul\":1213:1233   */\n      shl\n        /* \"#utility.yul\":1210:1211   */\n      0x00\n        /* \"#utility.yul\":1203:1234   */\n      mstore\n        /* \"#utility.yul\":1253:1257   */\n      0x11\n        /* \"#utility.yul\":1250:1251   */\n      0x04\n        /* \"#utility.yul\":1243:1258   */\n      mstore\n        /* \"#utility.yul\":1277:1281   */\n      0x24\n        /* \"#utility.yul\":1274:1275   */\n      0x00\n        /* \"#utility.yul\":1267:1282   */\n      revert\n        /* \"#utility.yul\":1293:1421   */\n    tag_18:\n        /* \"#utility.yul\":1360:1369   */\n      dup2\n      dup2\n      sub\n        /* \"#utility.yul\":1381:1392   */\n      dup2\n      dup2\n      gt\n        /* \"#utility.yul\":1378:1415   */\n      iszero\n      tag_10\n      jumpi\n        /* \"#utility.yul\":1395:1413   */\n      tag_10\n      tag_32\n      jump\t// in\n        /* \"#utility.yul\":1426:1561   */\n    tag_29:\n        /* \"#utility.yul\":1465:1468   */\n      0x00\n        /* \"#utility.yul\":1486:1503   */\n      0x01\n      dup3\n      add\n        /* \"#utility.yul\":1483:1526   */\n      tag_48\n      jumpi\n        /* \"#utility.yul\":1506:1524   */\n      tag_48\n      tag_32\n      jump\t// in\n    tag_48:\n      pop\n        /* \"#utility.yul\":1553:1554   */\n      0x01\n        /* \"#utility.yul\":1542:1555   */\n      add\n      swap1\n        /* \"#utility.yul\":1426:1561   */\n      jump\t// out\n        /* \"#utility.yul\":1566:1783   */\n    tag_31:\n        /* \"#utility.yul\":1606:1607   */\n      0x00\n        /* \"#utility.yul\":1632:1633   */\n      dup3\n        /* \"#utility.yul\":1622:1754   */\n      tag_50\n      jumpi\n        /* \"#utility.yul\":1676:1686   */\n      0x4e487b71\n        /* \"#utility.yul\":1671:1674   */\n      0xe0\n        /* \"#utility.yul\":1667:1687   */\n      shl\n        /* \"#utility.yul\":1664:1665   */\n      0x00\n        /* \"#utility.yul\":1657:1688   */\n      mstore\n        /* \"#utility.yul\":1711:1715   */\n      0x12\n        /* \"#utility.yul\":1708:1709   */\n      0x04\n        /* \"#utility.yul\":1701:1716   */\n      mstore\n        /* \"#utility.yul\":1739:1743   */\n      0x24\n        /* \"#utility.yul\":1736:1737   */\n      0x00\n        /* \"#utility.yul\":1729:1744   */\n      revert\n        /* \"#utility.yul\":1622:1754   */\n    tag_50:\n      pop\n        /* \"#utility.yul\":1768:1777   */\n      div\n      swap1\n        /* \"#utility.yul\":1566:1783   */\n      jump\t// out\n\n    auxdata: 0xa2646970667358221220fd28805ea6cffc2d2f5b1b2491d1cd5b9c65e0daad80db7f0f328cc9115ccb9064736f6c634300081f0033\n}\n",
				"bytecode": {
					"linkReferences": {},
					"object": "6080604052348015600e575f5ffd5b506102c88061001c5f395ff3fe608060405234801561000f575f5ffd5b5060043610610029575f3560e01c80635729c2111461002d575b5f5ffd5b61004061003b36600461017d565b610056565b60405161004d91906101eb565b60405180910390f35b60605f83838080601f0160208091040260200160405190810160405280939291908181526020018383808284375f9201829052508451949550925050505b5f8382815181106100a7576100a7610220565b01602001516001600160f81b031916905083826100c5600186610248565b6100cf9190610248565b815181106100df576100df610220565b602001015160f81c60f81b8483815181106100fc576100fc610220565b60200101906001600160f81b03191690815f1a905350808483610120600187610248565b61012a9190610248565b8151811061013a5761013a610220565b60200101906001600160f81b03191690815f1a9053508161015a8161025b565b9250505060028261016b9190610273565b81106100945750909150505b92915050565b5f5f6020838503121561018e575f5ffd5b823567ffffffffffffffff8111156101a4575f5ffd5b8301601f810185136101b4575f5ffd5b803567ffffffffffffffff8111156101ca575f5ffd5b8560208284010111156101db575f5ffd5b6020919091019590945092505050565b602081525f82518060208401528060208501604085015e5f604082850101526040601f19601f83011684010191505092915050565b634e487b7160e01b5f52603260045260245ffd5b634e487b7160e01b5f52601160045260245ffd5b8181038181111561017757610177610234565b5f6001820161026c5761026c610234565b5060010190565b5f8261028d57634e487b7160e01b5f52601260045260245ffd5b50049056fea2646970667358221220fd28805ea6cffc2d2f5b1b2491d1cd5b9c65e0daad80db7f0f328cc9115ccb9064736f6c634300081f0033",
					"opcodes": "PUSH1 0x80 PUSH1 0x40 MSTORE CALLVALUE DUP1 ISZERO PUSH1 0xE JUMPI PUSH0 PUSH0 REVERT JUMPDEST POP PUSH2 0x2C8 DUP1 PUSH2 0x1C PUSH0 CODECOPY PUSH0 RETURN INVALID PUSH1 0x80 PUSH1 0x40 MSTORE CALLVALUE DUP1 ISZERO PUSH2 0xF JUMPI PUSH0 PUSH0 REVERT JUMPDEST POP PUSH1 0x4 CALLDATASIZE LT PUSH2 0x29 JUMPI PUSH0 CALLDATALOAD PUSH1 0xE0 SHR DUP1 PUSH4 0x5729C211 EQ PUSH2 0x2D JUMPI JUMPDEST PUSH0 PUSH0 REVERT JUMPDEST PUSH2 0x40 PUSH2 0x3B CALLDATASIZE PUSH1 0x4 PUSH2 0x17D JUMP JUMPDEST PUSH2 0x56 JUMP JUMPDEST PUSH1 0x40 MLOAD PUSH2 0x4D SWAP2 SWAP1 PUSH2 0x1EB JUMP JUMPDEST PUSH1 0x40 MLOAD DUP1 SWAP2 SUB SWAP1 RETURN JUMPDEST PUSH1 0x60 PUSH0 DUP4 DUP4 DUP1 DUP1 PUSH1 0x1F ADD PUSH1 0x20 DUP1 SWAP2 DIV MUL PUSH1 0x20 ADD PUSH1 0x40 MLOAD SWAP1 DUP2 ADD PUSH1 0x40 MSTORE DUP1 SWAP4 SWAP3 SWAP2 SWAP1 DUP2 DUP2 MSTORE PUSH1 0x20 ADD DUP4 DUP4 DUP1 DUP3 DUP5 CALLDATACOPY PUSH0 SWAP3 ADD DUP3 SWAP1 MSTORE POP DUP5 MLOAD SWAP5 SWAP6 POP SWAP3 POP POP POP JUMPDEST PUSH0 DUP4 DUP3 DUP2 MLOAD DUP2 LT PUSH2 0xA7 JUMPI PUSH2 0xA7 PUSH2 0x220 JUMP JUMPDEST ADD PUSH1 0x20 ADD MLOAD PUSH1 0x1 PUSH1 0x1 PUSH1 0xF8 SHL SUB NOT AND SWAP1 POP DUP4 DUP3 PUSH2 0xC5 PUSH1 0x1 DUP7 PUSH2 0x248 JUMP JUMPDEST PUSH2 0xCF SWAP2 SWAP1 PUSH2 0x248 JUMP JUMPDEST DUP2 MLOAD DUP2 LT PUSH2 0xDF JUMPI PUSH2 0xDF PUSH2 0x220 JUMP JUMPDEST PUSH1 0x20 ADD ADD MLOAD PUSH1 0xF8 SHR PUSH1 0xF8 SHL DUP5 DUP4 DUP2 MLOAD DUP2 LT PUSH2 0xFC JUMPI PUSH2 0xFC PUSH2 0x220 JUMP JUMPDEST PUSH1 0x20 ADD ADD SWAP1 PUSH1 0x1 PUSH1 0x1 PUSH1 0xF8 SHL SUB NOT AND SWAP1 DUP2 PUSH0 BYTE SWAP1 MSTORE8 POP DUP1 DUP5 DUP4 PUSH2 0x120 PUSH1 0x1 DUP8 PUSH2 0x248 JUMP JUMPDEST PUSH2 0x12A SWAP2 SWAP1 PUSH2 0x248 JUMP JUMPDEST DUP2 MLOAD DUP2 LT PUSH2 0x13A JUMPI PUSH2 0x13A PUSH2 0x220 JUMP JUMPDEST PUSH1 0x20 ADD ADD SWAP1 PUSH1 0x1 PUSH1 0x1 PUSH1 0xF8 SHL SUB NOT AND SWAP1 DUP2 PUSH0 BYTE SWAP1 MSTORE8 POP DUP2 PUSH2 0x15A DUP2 PUSH2 0x25B JUMP JUMPDEST SWAP3 POP POP POP PUSH1 0x2 DUP3 PUSH2 0x16B SWAP2 SWAP1 PUSH2 0x273 JUMP JUMPDEST DUP2 LT PUSH2 0x94 JUMPI POP SWAP1 SWAP2 POP POP JUMPDEST SWAP3 SWAP2 POP POP JUMP JUMPDEST PUSH0 PUSH0 PUSH1 0x20 DUP4 DUP6 SUB SLT ISZERO PUSH2 0x18E JUMPI PUSH0 PUSH0 REVERT JUMPDEST DUP3 CALLDATALOAD PUSH8 0xFFFFFFFFFFFFFFFF DUP2 GT ISZERO PUSH2 0x1A4 JUMPI PUSH0 PUSH0 REVERT JUMPDEST DUP4 ADD PUSH1 0x1F DUP2 ADD DUP6 SGT PUSH2 0x1B4 JUMPI PUSH0 PUSH0 REVERT JUMPDEST DUP1 CALLDATALOAD PUSH8 0xFFFFFFFFFFFFFFFF DUP2 GT ISZERO PUSH2 0x1CA JUMPI PUSH0 PUSH0 REVERT JUMPDEST DUP6 PUSH1 0x20 DUP3 DUP5 ADD ADD GT ISZERO PUSH2 0x1DB JUMPI PUSH0 PUSH0 REVERT JUMPDEST PUSH1 0x20 SWAP2 SWAP1 SWAP2 ADD SWAP6 SWAP1 SWAP5 POP SWAP3 POP POP POP JUMP JUMPDEST PUSH1 0x20 DUP2 MSTORE PUSH0 DUP3 MLOAD DUP1 PUSH1 0x20 DUP5 ADD MSTORE DUP1 PUSH1 0x20 DUP6 ADD PUSH1 0x40 DUP6 ADD MCOPY PUSH0 PUSH1 0x40 DUP3 DUP6 ADD ADD MSTORE PUSH1 0x40 PUSH1 0x1F NOT PUSH1 0x1F DUP4 ADD AND DUP5 ADD ADD SWAP2 POP POP SWAP3 SWAP2 POP POP JUMP JUMPDEST PUSH4 0x4E487B71 PUSH1 0xE0 SHL PUSH0 MSTORE PUSH1 0x32 PUSH1 0x4 MSTORE PUSH1 0x24 PUSH0 REVERT JUMPDEST PUSH4 0x4E487B71 PUSH1 0xE0 SHL PUSH0 MSTORE PUSH1 0x11 PUSH1 0x4 MSTORE PUSH1 0x24 PUSH0 REVERT JUMPDEST DUP2 DUP2 SUB DUP2 DUP2 GT ISZERO PUSH2 0x177 JUMPI PUSH2 0x177 PUSH2 0x234 JUMP JUMPDEST PUSH0 PUSH1 0x1 DUP3 ADD PUSH2 0x26C JUMPI PUSH2 0x26C PUSH2 0x234 JUMP JUMPDEST POP PUSH1 0x1 ADD SWAP1 JUMP JUMPDEST PUSH0 DUP3 PUSH2 0x28D JUMPI PUSH4 0x4E487B71 PUSH1 0xE0 SHL PUSH0 MSTORE PUSH1 0x12 PUSH1 0x4 MSTORE PUSH1 0x24 PUSH0 REVERT JUMPDEST POP DIV SWAP1 JUMP INVALID LOG2 PUSH5 0x6970667358 0x22 SLT KECCAK256 REVERT 0x28 DUP1 MCOPY 0xA6 0xCF 0xFC 0x2D 0x2F JUMPDEST SHL 0x24 SWAP2 DATALOADN 0xCD5B SWAP13 PUSH6 0xE0DAAD80DB7F 0xF ORIGIN DUP13 0xC9 GT TLOAD 0xCB SWAP1 PUSH5 0x736F6C6343 STOP ADDMOD 0x1F STOP CALLER "
				},
				"gasEstimates": {
					"creation": {
						"codeDepositCost": "142400",
						"executionCost": "188",
						"totalCost": "142588"
					},
					"external": {
						"reverseString(string)": "infinite"
					}
				},
				"methodIdentifiers": {
					"reverseString(string)": "5729c211"
				}
			},
			"storageLayout": {
				"storage": [],
				"types": null
			},
			"userdoc": {
				"kind": "user",
				"methods": {},
				"version": 1
			}
		}
	}
}