{
	"contracts/homework/test.sol": {
		"DonationContract": {
			"abi": [
				{
					"inputs": [],
					"stateMutability": "nonpayable",
					"type": "constructor"
				},
				{
					"anonymous": false,
					"inputs": [
						{
							"indexed": true,
							"internalType": "address",
							"name": "donator",
							"type": "address"
						},
						{
							"indexed": false,
							"internalType": "uint256",
							"name": "amount",
							"type": "uint256"
						},
						{
							"indexed": false,
							"internalType": "uint256",
							"name": "timestamp",
							"type": "uint256"
						}
					],
					"name": "Donated",
					"type": "event"
				},
				{
					"anonymous": false,
					"inputs": [
						{
							"indexed": true,
							"internalType": "address",
							"name": "owner",
							"type": "address"
						},
						{
							"indexed": false,
							"internalType": "uint256",
							"name": "totalAmount",
							"type": "uint256"
						},
						{
							"indexed": false,
							"internalType": "uint256",
							"name": "timestamp",
							"type": "uint256"
						}
					],
					"name": "Withdrawn",
					"type": "event"
				},
				{
					"inputs": [],
					"name": "donate",
					"outputs": [],
					"stateMutability": "payable",
					"type": "function"
				},
				{
					"inputs": [
						{
							"internalType": "address",
							"name": "",
							"type": "address"
						}
					],
					"name": "donationAmount",
					"outputs": [
						{
							"internalType": "uint256",
							"name": "",
							"type": "uint256"
						}
					],
					"stateMutability": "view",
					"type": "function"
				},
				{
					"inputs": [],
					"name": "getContractBalance",
					"outputs": [
						{
							"internalType": "uint256",
							"name": "",
							"type": "uint256"
						}
					],
					"stateMutability": "view",
					"type": "function"
				},
				{
					"inputs": [
						{
							"internalType": "address",
							"name": "donator",
							"type": "address"
						}
					],
					"name": "getDonation",
					"outputs": [
						{
							"internalType": "uint256",
							"name": "",
							"type": "uint256"
						}
					],
					"stateMutability": "view",
					"type": "function"
				},
				{
					"inputs": [],
					"name": "owner",
					"outputs": [
						{
							"internalType": "address",
							"name": "",
							"type": "address"
						}
					],
					"stateMutability": "view",
					"type": "function"
				},
				{
					"inputs": [],
					"name": "withdraw",
					"outputs": [],
					"stateMutability": "nonpayable",
					"type": "function"
				}
			],
			"devdoc": {
				"details": "实现捐赠记录、以太币捐赠、所有者提现、查询捐赠金额的核心功能",
				"kind": "dev",
				"methods": {
					"donate()": {
						"details": "允许用户向合约发送以太币，并记录捐赠者的捐赠金额"
					},
					"getContractBalance()": {
						"details": "查询合约当前的以太币余额",
						"returns": {
							"_0": "合约余额（单位：wei）"
						}
					},
					"getDonation(address)": {
						"details": "查询某个地址的累计捐赠金额",
						"params": {
							"donator": "要查询的捐赠者地址"
						},
						"returns": {
							"_0": "该地址的累计捐赠金额（单位：wei）"
						}
					},
					"withdraw()": {
						"details": "仅合约所有者可调用，提取合约中的所有以太币到所有者地址"
					}
				},
				"title": "DonationContract",
				"version": 1
			},
			"evm": {
				"assembly": "    /* \"contracts/homework/test.sol\":192:3574  contract DonationContract {... */\n  mstore(0x40, 0xa0)\n    /* \"contracts/homework/test.sol\":815:915  constructor() {... */\n  callvalue\n  dup1\n  iszero\n  tag_1\n  jumpi\n  revert(0x00, 0x00)\ntag_1:\n  pop\n    /* \"contracts/homework/test.sol\":898:908  msg.sender */\n  caller\n    /* \"contracts/homework/test.sol\":890:908  owner = msg.sender */\n  0xffffffffffffffffffffffffffffffffffffffff\n  and\n  0x80\n  dup2\n  0xffffffffffffffffffffffffffffffffffffffff\n  and\n  dup2\n  mstore\n  pop\n  pop\n    /* \"contracts/homework/test.sol\":192:3574  contract DonationContract {... */\n  mload(0x80)\n  codecopy(0x00, dataOffset(sub_0), dataSize(sub_0))\n  0x00\n  assignImmutable(\"0x13600b294191fc92924bb3ce4b969c1e7e2bab8f4c93c3fc6d0a51733df3c060\")\n  return(0x00, dataSize(sub_0))\nstop\n\nsub_0: assembly {\n        /* \"contracts/homework/test.sol\":192:3574  contract DonationContract {... */\n      mstore(0x40, 0x80)\n      jumpi(tag_1, lt(calldatasize, 0x04))\n      shr(0xe0, calldataload(0x00))\n      dup1\n      0x3ccfd60b\n      eq\n      tag_2\n      jumpi\n      dup1\n      0x410a1d32\n      eq\n      tag_3\n      jumpi\n      dup1\n      0x6f9fb98a\n      eq\n      tag_4\n      jumpi\n      dup1\n      0x8da5cb5b\n      eq\n      tag_5\n      jumpi\n      dup1\n      0xae677d8c\n      eq\n      tag_6\n      jumpi\n      dup1\n      0xed88c68e\n      eq\n      tag_7\n      jumpi\n    tag_1:\n      revert(0x00, 0x00)\n        /* \"contracts/homework/test.sol\":2169:2798  function withdraw() external onlyOwner {... */\n    tag_2:\n      callvalue\n      dup1\n      iszero\n      tag_8\n      jumpi\n      revert(0x00, 0x00)\n    tag_8:\n      pop\n      tag_9\n      tag_10\n      jump\t// in\n    tag_9:\n      stop\n        /* \"contracts/homework/test.sol\":3082:3256  function getDonation(address donator) external view returns (uint256) {... */\n    tag_3:\n      callvalue\n      dup1\n      iszero\n      tag_11\n      jumpi\n      revert(0x00, 0x00)\n    tag_11:\n      pop\n      tag_12\n      0x04\n      dup1\n      calldatasize\n      sub\n      dup2\n      add\n      swap1\n      tag_13\n      swap2\n      swap1\n      tag_14\n      jump\t// in\n    tag_13:\n      tag_15\n      jump\t// in\n    tag_12:\n      mload(0x40)\n      tag_16\n      swap2\n      swap1\n      tag_17\n      jump\t// in\n    tag_16:\n      mload(0x40)\n      dup1\n      swap2\n      sub\n      swap1\n      return\n        /* \"contracts/homework/test.sol\":3465:3572  function getContractBalance() external view returns (uint256) {... */\n    tag_4:\n      callvalue\n      dup1\n      iszero\n      tag_18\n      jumpi\n      revert(0x00, 0x00)\n    tag_18:\n      pop\n      tag_19\n      tag_20\n      jump\t// in\n    tag_19:\n      mload(0x40)\n      tag_21\n      swap2\n      swap1\n      tag_17\n      jump\t// in\n    tag_21:\n      mload(0x40)\n      dup1\n      swap2\n      sub\n      swap1\n      return\n        /* \"contracts/homework/test.sol\":318:348  address public immutable owner */\n    tag_5:\n      callvalue\n      dup1\n      iszero\n      tag_22\n      jumpi\n      revert(0x00, 0x00)\n    tag_22:\n      pop\n      tag_23\n      tag_24\n      jump\t// in\n    tag_23:\n      mload(0x40)\n      tag_25\n      swap2\n      swap1\n      tag_26\n      jump\t// in\n    tag_25:\n      mload(0x40)\n      dup1\n      swap2\n      sub\n      swap1\n      return\n        /* \"contracts/homework/test.sol\":453:502  mapping(address => uint256) public donationAmount */\n    tag_6:\n      callvalue\n      dup1\n      iszero\n      tag_27\n      jumpi\n      revert(0x00, 0x00)\n    tag_27:\n      pop\n      tag_28\n      0x04\n      dup1\n      calldatasize\n      sub\n      dup2\n      add\n      swap1\n      tag_29\n      swap2\n      swap1\n      tag_14\n      jump\t// in\n    tag_29:\n      tag_30\n      jump\t// in\n    tag_28:\n      mload(0x40)\n      tag_31\n      swap2\n      swap1\n      tag_17\n      jump\t// in\n    tag_31:\n      mload(0x40)\n      dup1\n      swap2\n      sub\n      swap1\n      return\n        /* \"contracts/homework/test.sol\":1388:1881  function donate() external payable {... */\n    tag_7:\n      tag_32\n      tag_33\n      jump\t// in\n    tag_32:\n      stop\n        /* \"contracts/homework/test.sol\":2169:2798  function withdraw() external onlyOwner {... */\n    tag_10:\n        /* \"contracts/homework/test.sol\":1042:1047  owner */\n      immutable(\"0x13600b294191fc92924bb3ce4b969c1e7e2bab8f4c93c3fc6d0a51733df3c060\")\n        /* \"contracts/homework/test.sol\":1028:1047  msg.sender == owner */\n      0xffffffffffffffffffffffffffffffffffffffff\n      and\n        /* \"contracts/homework/test.sol\":1028:1038  msg.sender */\n      caller\n        /* \"contracts/homework/test.sol\":1028:1047  msg.sender == owner */\n      0xffffffffffffffffffffffffffffffffffffffff\n      and\n      eq\n        /* \"contracts/homework/test.sol\":1020:1095  require(msg.sender == owner, \"Donation: only owner can call this function\") */\n      tag_35\n      jumpi\n      mload(0x40)\n      0x08c379a000000000000000000000000000000000000000000000000000000000\n      dup2\n      mstore\n      0x04\n      add\n      tag_36\n      swap1\n      tag_37\n      jump\t// in\n    tag_36:\n      mload(0x40)\n      dup1\n      swap2\n      sub\n      swap1\n      revert\n    tag_35:\n        /* \"contracts/homework/test.sol\":2289:2312  uint256 contractBalance */\n      0x00\n        /* \"contracts/homework/test.sol\":2315:2336  address(this).balance */\n      selfbalance\n        /* \"contracts/homework/test.sol\":2289:2336  uint256 contractBalance = address(this).balance */\n      swap1\n      pop\n        /* \"contracts/homework/test.sol\":2372:2373  0 */\n      0x00\n        /* \"contracts/homework/test.sol\":2354:2369  contractBalance */\n      dup2\n        /* \"contracts/homework/test.sol\":2354:2373  contractBalance > 0 */\n      gt\n        /* \"contracts/homework/test.sol\":2346:2423  require(contractBalance > 0, \"Donation: contract has no balance to withdraw\") */\n      tag_39\n      jumpi\n      mload(0x40)\n      0x08c379a000000000000000000000000000000000000000000000000000000000\n      dup2\n      mstore\n      0x04\n      add\n      tag_40\n      swap1\n      tag_41\n      jump\t// in\n    tag_40:\n      mload(0x40)\n      dup1\n      swap2\n      sub\n      swap1\n      revert\n    tag_39:\n        /* \"contracts/homework/test.sol\":2631:2636  owner */\n      immutable(\"0x13600b294191fc92924bb3ce4b969c1e7e2bab8f4c93c3fc6d0a51733df3c060\")\n        /* \"contracts/homework/test.sol\":2623:2646  payable(owner).transfer */\n      0xffffffffffffffffffffffffffffffffffffffff\n      and\n        /* \"contracts/homework/test.sol\":2623:2663  payable(owner).transfer(contractBalance) */\n      0x08fc\n        /* \"contracts/homework/test.sol\":2647:2662  contractBalance */\n      dup3\n        /* \"contracts/homework/test.sol\":2623:2663  payable(owner).transfer(contractBalance) */\n      swap1\n      dup2\n      iszero\n      mul\n      swap1\n      mload(0x40)\n      0x00\n      mload(0x40)\n      dup1\n      dup4\n      sub\n      dup2\n      dup6\n      dup9\n      dup9\n      call\n      swap4\n      pop\n      pop\n      pop\n      pop\n      iszero\n      dup1\n      iszero\n      tag_43\n      jumpi\n      returndatacopy(0x00, 0x00, returndatasize)\n      revert(0x00, returndatasize)\n    tag_43:\n      pop\n        /* \"contracts/homework/test.sol\":2751:2756  owner */\n      immutable(\"0x13600b294191fc92924bb3ce4b969c1e7e2bab8f4c93c3fc6d0a51733df3c060\")\n        /* \"contracts/homework/test.sol\":2741:2791  Withdrawn(owner, contractBalance, block.timestamp) */\n      0xffffffffffffffffffffffffffffffffffffffff\n      and\n      0x92ccf450a286a957af52509bc1c9939d1a6a481783e142e41e2499f0bb66ebc6\n        /* \"contracts/homework/test.sol\":2758:2773  contractBalance */\n      dup3\n        /* \"contracts/homework/test.sol\":2775:2790  block.timestamp */\n      timestamp\n        /* \"contracts/homework/test.sol\":2741:2791  Withdrawn(owner, contractBalance, block.timestamp) */\n      mload(0x40)\n      tag_44\n      swap3\n      swap2\n      swap1\n      tag_45\n      jump\t// in\n    tag_44:\n      mload(0x40)\n      dup1\n      swap2\n      sub\n      swap1\n      log2\n        /* \"contracts/homework/test.sol\":2208:2798  {... */\n      pop\n        /* \"contracts/homework/test.sol\":2169:2798  function withdraw() external onlyOwner {... */\n      jump\t// out\n        /* \"contracts/homework/test.sol\":3082:3256  function getDonation(address donator) external view returns (uint256) {... */\n    tag_15:\n        /* \"contracts/homework/test.sol\":3143:3150  uint256 */\n      0x00\n        /* \"contracts/homework/test.sol\":3226:3240  donationAmount */\n      0x00\n        /* \"contracts/homework/test.sol\":3226:3249  donationAmount[donator] */\n      0x00\n        /* \"contracts/homework/test.sol\":3241:3248  donator */\n      dup4\n        /* \"contracts/homework/test.sol\":3226:3249  donationAmount[donator] */\n      0xffffffffffffffffffffffffffffffffffffffff\n      and\n      0xffffffffffffffffffffffffffffffffffffffff\n      and\n      dup2\n      mstore\n      0x20\n      add\n      swap1\n      dup2\n      mstore\n      0x20\n      add\n      0x00\n      keccak256\n      sload\n        /* \"contracts/homework/test.sol\":3219:3249  return donationAmount[donator] */\n      swap1\n      pop\n        /* \"contracts/homework/test.sol\":3082:3256  function getDonation(address donator) external view returns (uint256) {... */\n      swap2\n      swap1\n      pop\n      jump\t// out\n        /* \"contracts/homework/test.sol\":3465:3572  function getContractBalance() external view returns (uint256) {... */\n    tag_20:\n        /* \"contracts/homework/test.sol\":3518:3525  uint256 */\n      0x00\n        /* \"contracts/homework/test.sol\":3544:3565  address(this).balance */\n      selfbalance\n        /* \"contracts/homework/test.sol\":3537:3565  return address(this).balance */\n      swap1\n      pop\n        /* \"contracts/homework/test.sol\":3465:3572  function getContractBalance() external view returns (uint256) {... */\n      swap1\n      jump\t// out\n        /* \"contracts/homework/test.sol\":318:348  address public immutable owner */\n    tag_24:\n      immutable(\"0x13600b294191fc92924bb3ce4b969c1e7e2bab8f4c93c3fc6d0a51733df3c060\")\n      dup2\n      jump\t// out\n        /* \"contracts/homework/test.sol\":453:502  mapping(address => uint256) public donationAmount */\n    tag_30:\n      mstore(0x20, 0x00)\n      dup1\n      0x00\n      mstore\n      keccak256(0x00, 0x40)\n      0x00\n      swap2\n      pop\n      swap1\n      pop\n      sload\n      dup2\n      jump\t// out\n        /* \"contracts/homework/test.sol\":1388:1881  function donate() external payable {... */\n    tag_33:\n        /* \"contracts/homework/test.sol\":1536:1537  0 */\n      0x00\n        /* \"contracts/homework/test.sol\":1524:1533  msg.value */\n      callvalue\n        /* \"contracts/homework/test.sol\":1524:1537  msg.value > 0 */\n      gt\n        /* \"contracts/homework/test.sol\":1516:1581  require(msg.value > 0, \"Donation: amount must be greater than 0\") */\n      tag_49\n      jumpi\n      mload(0x40)\n      0x08c379a000000000000000000000000000000000000000000000000000000000\n      dup2\n      mstore\n      0x04\n      add\n      tag_50\n      swap1\n      tag_51\n      jump\t// in\n    tag_50:\n      mload(0x40)\n      dup1\n      swap2\n      sub\n      swap1\n      revert\n    tag_49:\n        /* \"contracts/homework/test.sol\":1715:1724  msg.value */\n      callvalue\n        /* \"contracts/homework/test.sol\":1685:1699  donationAmount */\n      0x00\n        /* \"contracts/homework/test.sol\":1685:1711  donationAmount[msg.sender] */\n      0x00\n        /* \"contracts/homework/test.sol\":1700:1710  msg.sender */\n      caller\n        /* \"contracts/homework/test.sol\":1685:1711  donationAmount[msg.sender] */\n      0xffffffffffffffffffffffffffffffffffffffff\n      and\n      0xffffffffffffffffffffffffffffffffffffffff\n      and\n      dup2\n      mstore\n      0x20\n      add\n      swap1\n      dup2\n      mstore\n      0x20\n      add\n      0x00\n      keccak256\n      0x00\n        /* \"contracts/homework/test.sol\":1685:1724  donationAmount[msg.sender] += msg.value */\n      dup3\n      dup3\n      sload\n      tag_52\n      swap2\n      swap1\n      tag_53\n      jump\t// in\n    tag_52:\n      swap3\n      pop\n      pop\n      dup2\n      swap1\n      sstore\n      pop\n        /* \"contracts/homework/test.sol\":1835:1845  msg.sender */\n      caller\n        /* \"contracts/homework/test.sol\":1827:1874  Donated(msg.sender, msg.value, block.timestamp) */\n      0xffffffffffffffffffffffffffffffffffffffff\n      and\n      0x4928895ba6723e8e27b15f32e4c3054a1b6c7f8c03f133558d6fa42b3928d14c\n        /* \"contracts/homework/test.sol\":1847:1856  msg.value */\n      callvalue\n        /* \"contracts/homework/test.sol\":1858:1873  block.timestamp */\n      timestamp\n        /* \"contracts/homework/test.sol\":1827:1874  Donated(msg.sender, msg.value, block.timestamp) */\n      mload(0x40)\n      tag_54\n      swap3\n      swap2\n      swap1\n      tag_45\n      jump\t// in\n    tag_54:\n      mload(0x40)\n      dup1\n      swap2\n      sub\n      swap1\n      log2\n        /* \"contracts/homework/test.sol\":1388:1881  function donate() external payable {... */\n      jump\t// out\n        /* \"#utility.yul\":88:205   */\n    tag_56:\n        /* \"#utility.yul\":197:198   */\n      0x00\n        /* \"#utility.yul\":194:195   */\n      0x00\n        /* \"#utility.yul\":187:199   */\n      revert\n        /* \"#utility.yul\":334:460   */\n    tag_58:\n        /* \"#utility.yul\":371:378   */\n      0x00\n        /* \"#utility.yul\":411:453   */\n      0xffffffffffffffffffffffffffffffffffffffff\n        /* \"#utility.yul\":404:409   */\n      dup3\n        /* \"#utility.yul\":400:454   */\n      and\n        /* \"#utility.yul\":389:454   */\n      swap1\n      pop\n        /* \"#utility.yul\":334:460   */\n      swap2\n      swap1\n      pop\n      jump\t// out\n        /* \"#utility.yul\":466:562   */\n    tag_59:\n        /* \"#utility.yul\":503:510   */\n      0x00\n        /* \"#utility.yul\":532:556   */\n      tag_79\n        /* \"#utility.yul\":550:555   */\n      dup3\n        /* \"#utility.yul\":532:556   */\n      tag_58\n      jump\t// in\n    tag_79:\n        /* \"#utility.yul\":521:556   */\n      swap1\n      pop\n        /* \"#utility.yul\":466:562   */\n      swap2\n      swap1\n      pop\n      jump\t// out\n        /* \"#utility.yul\":568:690   */\n    tag_60:\n        /* \"#utility.yul\":641:665   */\n      tag_81\n        /* \"#utility.yul\":659:664   */\n      dup2\n        /* \"#utility.yul\":641:665   */\n      tag_59\n      jump\t// in\n    tag_81:\n        /* \"#utility.yul\":634:639   */\n      dup2\n        /* \"#utility.yul\":631:666   */\n      eq\n        /* \"#utility.yul\":621:684   */\n      tag_82\n      jumpi\n        /* \"#utility.yul\":680:681   */\n      0x00\n        /* \"#utility.yul\":677:678   */\n      0x00\n        /* \"#utility.yul\":670:682   */\n      revert\n        /* \"#utility.yul\":621:684   */\n    tag_82:\n        /* \"#utility.yul\":568:690   */\n      pop\n      jump\t// out\n        /* \"#utility.yul\":696:835   */\n    tag_61:\n        /* \"#utility.yul\":742:747   */\n      0x00\n        /* \"#utility.yul\":780:786   */\n      dup2\n        /* \"#utility.yul\":767:787   */\n      calldataload\n        /* \"#utility.yul\":758:787   */\n      swap1\n      pop\n        /* \"#utility.yul\":796:829   */\n      tag_84\n        /* \"#utility.yul\":823:828   */\n      dup2\n        /* \"#utility.yul\":796:829   */\n      tag_60\n      jump\t// in\n    tag_84:\n        /* \"#utility.yul\":696:835   */\n      swap3\n      swap2\n      pop\n      pop\n      jump\t// out\n        /* \"#utility.yul\":841:1170   */\n    tag_14:\n        /* \"#utility.yul\":900:906   */\n      0x00\n        /* \"#utility.yul\":949:951   */\n      0x20\n        /* \"#utility.yul\":937:946   */\n      dup3\n        /* \"#utility.yul\":928:935   */\n      dup5\n        /* \"#utility.yul\":924:947   */\n      sub\n        /* \"#utility.yul\":920:952   */\n      slt\n        /* \"#utility.yul\":917:1036   */\n      iszero\n      tag_86\n      jumpi\n        /* \"#utility.yul\":955:1034   */\n      tag_87\n      tag_56\n      jump\t// in\n    tag_87:\n        /* \"#utility.yul\":917:1036   */\n    tag_86:\n        /* \"#utility.yul\":1075:1076   */\n      0x00\n        /* \"#utility.yul\":1100:1153   */\n      tag_88\n        /* \"#utility.yul\":1145:1152   */\n      dup5\n        /* \"#utility.yul\":1136:1142   */\n      dup3\n        /* \"#utility.yul\":1125:1134   */\n      dup6\n        /* \"#utility.yul\":1121:1143   */\n      add\n        /* \"#utility.yul\":1100:1153   */\n      tag_61\n      jump\t// in\n    tag_88:\n        /* \"#utility.yul\":1090:1153   */\n      swap2\n      pop\n        /* \"#utility.yul\":1046:1163   */\n      pop\n        /* \"#utility.yul\":841:1170   */\n      swap3\n      swap2\n      pop\n      pop\n      jump\t// out\n        /* \"#utility.yul\":1176:1253   */\n    tag_62:\n        /* \"#utility.yul\":1213:1220   */\n      0x00\n        /* \"#utility.yul\":1242:1247   */\n      dup2\n        /* \"#utility.yul\":1231:1247   */\n      swap1\n      pop\n        /* \"#utility.yul\":1176:1253   */\n      swap2\n      swap1\n      pop\n      jump\t// out\n        /* \"#utility.yul\":1259:1377   */\n    tag_63:\n        /* \"#utility.yul\":1346:1370   */\n      tag_91\n        /* \"#utility.yul\":1364:1369   */\n      dup2\n        /* \"#utility.yul\":1346:1370   */\n      tag_62\n      jump\t// in\n    tag_91:\n        /* \"#utility.yul\":1341:1344   */\n      dup3\n        /* \"#utility.yul\":1334:1371   */\n      mstore\n        /* \"#utility.yul\":1259:1377   */\n      pop\n      pop\n      jump\t// out\n        /* \"#utility.yul\":1383:1605   */\n    tag_17:\n        /* \"#utility.yul\":1476:1480   */\n      0x00\n        /* \"#utility.yul\":1514:1516   */\n      0x20\n        /* \"#utility.yul\":1503:1512   */\n      dup3\n        /* \"#utility.yul\":1499:1517   */\n      add\n        /* \"#utility.yul\":1491:1517   */\n      swap1\n      pop\n        /* \"#utility.yul\":1527:1598   */\n      tag_93\n        /* \"#utility.yul\":1595:1596   */\n      0x00\n        /* \"#utility.yul\":1584:1593   */\n      dup4\n        /* \"#utility.yul\":1580:1597   */\n      add\n        /* \"#utility.yul\":1571:1577   */\n      dup5\n        /* \"#utility.yul\":1527:1598   */\n      tag_63\n      jump\t// in\n    tag_93:\n        /* \"#utility.yul\":1383:1605   */\n      swap3\n      swap2\n      pop\n      pop\n      jump\t// out\n        /* \"#utility.yul\":1611:1729   */\n    tag_64:\n        /* \"#utility.yul\":1698:1722   */\n      tag_95\n        /* \"#utility.yul\":1716:1721   */\n      dup2\n        /* \"#utility.yul\":1698:1722   */\n      tag_59\n      jump\t// in\n    tag_95:\n        /* \"#utility.yul\":1693:1696   */\n      dup3\n        /* \"#utility.yul\":1686:1723   */\n      mstore\n        /* \"#utility.yul\":1611:1729   */\n      pop\n      pop\n      jump\t// out\n        /* \"#utility.yul\":1735:1957   */\n    tag_26:\n        /* \"#utility.yul\":1828:1832   */\n      0x00\n        /* \"#utility.yul\":1866:1868   */\n      0x20\n        /* \"#utility.yul\":1855:1864   */\n      dup3\n        /* \"#utility.yul\":1851:1869   */\n      add\n        /* \"#utility.yul\":1843:1869   */\n      swap1\n      pop\n        /* \"#utility.yul\":1879:1950   */\n      tag_97\n        /* \"#utility.yul\":1947:1948   */\n      0x00\n        /* \"#utility.yul\":1936:1945   */\n      dup4\n        /* \"#utility.yul\":1932:1949   */\n      add\n        /* \"#utility.yul\":1923:1929   */\n      dup5\n        /* \"#utility.yul\":1879:1950   */\n      tag_64\n      jump\t// in\n    tag_97:\n        /* \"#utility.yul\":1735:1957   */\n      swap3\n      swap2\n      pop\n      pop\n      jump\t// out\n        /* \"#utility.yul\":1963:2132   */\n    tag_65:\n        /* \"#utility.yul\":2047:2058   */\n      0x00\n        /* \"#utility.yul\":2081:2087   */\n      dup3\n        /* \"#utility.yul\":2076:2079   */\n      dup3\n        /* \"#utility.yul\":2069:2088   */\n      mstore\n        /* \"#utility.yul\":2121:2125   */\n      0x20\n        /* \"#utility.yul\":2116:2119   */\n      dup3\n        /* \"#utility.yul\":2112:2126   */\n      add\n        /* \"#utility.yul\":2097:2126   */\n      swap1\n      pop\n        /* \"#utility.yul\":1963:2132   */\n      swap3\n      swap2\n      pop\n      pop\n      jump\t// out\n        /* \"#utility.yul\":2138:2368   */\n    tag_66:\n        /* \"#utility.yul\":2278:2312   */\n      0x446f6e6174696f6e3a206f6e6c79206f776e65722063616e2063616c6c207468\n        /* \"#utility.yul\":2274:2275   */\n      0x00\n        /* \"#utility.yul\":2266:2272   */\n      dup3\n        /* \"#utility.yul\":2262:2276   */\n      add\n        /* \"#utility.yul\":2255:2313   */\n      mstore\n        /* \"#utility.yul\":2347:2360   */\n      0x69732066756e6374696f6e000000000000000000000000000000000000000000\n        /* \"#utility.yul\":2342:2344   */\n      0x20\n        /* \"#utility.yul\":2334:2340   */\n      dup3\n        /* \"#utility.yul\":2330:2345   */\n      add\n        /* \"#utility.yul\":2323:2361   */\n      mstore\n        /* \"#utility.yul\":2138:2368   */\n      pop\n      jump\t// out\n        /* \"#utility.yul\":2374:2740   */\n    tag_67:\n        /* \"#utility.yul\":2516:2519   */\n      0x00\n        /* \"#utility.yul\":2537:2604   */\n      tag_101\n        /* \"#utility.yul\":2601:2603   */\n      0x2b\n        /* \"#utility.yul\":2596:2599   */\n      dup4\n        /* \"#utility.yul\":2537:2604   */\n      tag_65\n      jump\t// in\n    tag_101:\n        /* \"#utility.yul\":2530:2604   */\n      swap2\n      pop\n        /* \"#utility.yul\":2613:2706   */\n      tag_102\n        /* \"#utility.yul\":2702:2705   */\n      dup3\n        /* \"#utility.yul\":2613:2706   */\n      tag_66\n      jump\t// in\n    tag_102:\n        /* \"#utility.yul\":2731:2733   */\n      0x40\n        /* \"#utility.yul\":2726:2729   */\n      dup3\n        /* \"#utility.yul\":2722:2734   */\n      add\n        /* \"#utility.yul\":2715:2734   */\n      swap1\n      pop\n        /* \"#utility.yul\":2374:2740   */\n      swap2\n      swap1\n      pop\n      jump\t// out\n        /* \"#utility.yul\":2746:3165   */\n    tag_37:\n        /* \"#utility.yul\":2912:2916   */\n      0x00\n        /* \"#utility.yul\":2950:2952   */\n      0x20\n        /* \"#utility.yul\":2939:2948   */\n      dup3\n        /* \"#utility.yul\":2935:2953   */\n      add\n        /* \"#utility.yul\":2927:2953   */\n      swap1\n      pop\n        /* \"#utility.yul\":2999:3008   */\n      dup2\n        /* \"#utility.yul\":2993:2997   */\n      dup2\n        /* \"#utility.yul\":2989:3009   */\n      sub\n        /* \"#utility.yul\":2985:2986   */\n      0x00\n        /* \"#utility.yul\":2974:2983   */\n      dup4\n        /* \"#utility.yul\":2970:2987   */\n      add\n        /* \"#utility.yul\":2963:3010   */\n      mstore\n        /* \"#utility.yul\":3027:3158   */\n      tag_104\n        /* \"#utility.yul\":3153:3157   */\n      dup2\n        /* \"#utility.yul\":3027:3158   */\n      tag_67\n      jump\t// in\n    tag_104:\n        /* \"#utility.yul\":3019:3158   */\n      swap1\n      pop\n        /* \"#utility.yul\":2746:3165   */\n      swap2\n      swap1\n      pop\n      jump\t// out\n        /* \"#utility.yul\":3171:3403   */\n    tag_68:\n        /* \"#utility.yul\":3311:3345   */\n      0x446f6e6174696f6e3a20636f6e747261637420686173206e6f2062616c616e63\n        /* \"#utility.yul\":3307:3308   */\n      0x00\n        /* \"#utility.yul\":3299:3305   */\n      dup3\n        /* \"#utility.yul\":3295:3309   */\n      add\n        /* \"#utility.yul\":3288:3346   */\n      mstore\n        /* \"#utility.yul\":3380:3395   */\n      0x6520746f20776974686472617700000000000000000000000000000000000000\n        /* \"#utility.yul\":3375:3377   */\n      0x20\n        /* \"#utility.yul\":3367:3373   */\n      dup3\n        /* \"#utility.yul\":3363:3378   */\n      add\n        /* \"#utility.yul\":3356:3396   */\n      mstore\n        /* \"#utility.yul\":3171:3403   */\n      pop\n      jump\t// out\n        /* \"#utility.yul\":3409:3775   */\n    tag_69:\n        /* \"#utility.yul\":3551:3554   */\n      0x00\n        /* \"#utility.yul\":3572:3639   */\n      tag_107\n        /* \"#utility.yul\":3636:3638   */\n      0x2d\n        /* \"#utility.yul\":3631:3634   */\n      dup4\n        /* \"#utility.yul\":3572:3639   */\n      tag_65\n      jump\t// in\n    tag_107:\n        /* \"#utility.yul\":3565:3639   */\n      swap2\n      pop\n        /* \"#utility.yul\":3648:3741   */\n      tag_108\n        /* \"#utility.yul\":3737:3740   */\n      dup3\n        /* \"#utility.yul\":3648:3741   */\n      tag_68\n      jump\t// in\n    tag_108:\n        /* \"#utility.yul\":3766:3768   */\n      0x40\n        /* \"#utility.yul\":3761:3764   */\n      dup3\n        /* \"#utility.yul\":3757:3769   */\n      add\n        /* \"#utility.yul\":3750:3769   */\n      swap1\n      pop\n        /* \"#utility.yul\":3409:3775   */\n      swap2\n      swap1\n      pop\n      jump\t// out\n        /* \"#utility.yul\":3781:4200   */\n    tag_41:\n        /* \"#utility.yul\":3947:3951   */\n      0x00\n        /* \"#utility.yul\":3985:3987   */\n      0x20\n        /* \"#utility.yul\":3974:3983   */\n      dup3\n        /* \"#utility.yul\":3970:3988   */\n      add\n        /* \"#utility.yul\":3962:3988   */\n      swap1\n      pop\n        /* \"#utility.yul\":4034:4043   */\n      dup2\n        /* \"#utility.yul\":4028:4032   */\n      dup2\n        /* \"#utility.yul\":4024:4044   */\n      sub\n        /* \"#utility.yul\":4020:4021   */\n      0x00\n        /* \"#utility.yul\":4009:4018   */\n      dup4\n        /* \"#utility.yul\":4005:4022   */\n      add\n        /* \"#utility.yul\":3998:4045   */\n      mstore\n        /* \"#utility.yul\":4062:4193   */\n      tag_110\n        /* \"#utility.yul\":4188:4192   */\n      dup2\n        /* \"#utility.yul\":4062:4193   */\n      tag_69\n      jump\t// in\n    tag_110:\n        /* \"#utility.yul\":4054:4193   */\n      swap1\n      pop\n        /* \"#utility.yul\":3781:4200   */\n      swap2\n      swap1\n      pop\n      jump\t// out\n        /* \"#utility.yul\":4206:4538   */\n    tag_45:\n        /* \"#utility.yul\":4327:4331   */\n      0x00\n        /* \"#utility.yul\":4365:4367   */\n      0x40\n        /* \"#utility.yul\":4354:4363   */\n      dup3\n        /* \"#utility.yul\":4350:4368   */\n      add\n        /* \"#utility.yul\":4342:4368   */\n      swap1\n      pop\n        /* \"#utility.yul\":4378:4449   */\n      tag_112\n        /* \"#utility.yul\":4446:4447   */\n      0x00\n        /* \"#utility.yul\":4435:4444   */\n      dup4\n        /* \"#utility.yul\":4431:4448   */\n      add\n        /* \"#utility.yul\":4422:4428   */\n      dup6\n        /* \"#utility.yul\":4378:4449   */\n      tag_63\n      jump\t// in\n    tag_112:\n        /* \"#utility.yul\":4459:4531   */\n      tag_113\n        /* \"#utility.yul\":4527:4529   */\n      0x20\n        /* \"#utility.yul\":4516:4525   */\n      dup4\n        /* \"#utility.yul\":4512:4530   */\n      add\n        /* \"#utility.yul\":4503:4509   */\n      dup5\n        /* \"#utility.yul\":4459:4531   */\n      tag_63\n      jump\t// in\n    tag_113:\n        /* \"#utility.yul\":4206:4538   */\n      swap4\n      swap3\n      pop\n      pop\n      pop\n      jump\t// out\n        /* \"#utility.yul\":4544:4770   */\n    tag_70:\n        /* \"#utility.yul\":4684:4718   */\n      0x446f6e6174696f6e3a20616d6f756e74206d7573742062652067726561746572\n        /* \"#utility.yul\":4680:4681   */\n      0x00\n        /* \"#utility.yul\":4672:4678   */\n      dup3\n        /* \"#utility.yul\":4668:4682   */\n      add\n        /* \"#utility.yul\":4661:4719   */\n      mstore\n        /* \"#utility.yul\":4753:4762   */\n      0x207468616e203000000000000000000000000000000000000000000000000000\n        /* \"#utility.yul\":4748:4750   */\n      0x20\n        /* \"#utility.yul\":4740:4746   */\n      dup3\n        /* \"#utility.yul\":4736:4751   */\n      add\n        /* \"#utility.yul\":4729:4763   */\n      mstore\n        /* \"#utility.yul\":4544:4770   */\n      pop\n      jump\t// out\n        /* \"#utility.yul\":4776:5142   */\n    tag_71:\n        /* \"#utility.yul\":4918:4921   */\n      0x00\n        /* \"#utility.yul\":4939:5006   */\n      tag_116\n        /* \"#utility.yul\":5003:5005   */\n      0x27\n        /* \"#utility.yul\":4998:5001   */\n      dup4\n        /* \"#utility.yul\":4939:5006   */\n      tag_65\n      jump\t// in\n    tag_116:\n        /* \"#utility.yul\":4932:5006   */\n      swap2\n      pop\n        /* \"#utility.yul\":5015:5108   */\n      tag_117\n        /* \"#utility.yul\":5104:5107   */\n      dup3\n        /* \"#utility.yul\":5015:5108   */\n      tag_70\n      jump\t// in\n    tag_117:\n        /* \"#utility.yul\":5133:5135   */\n      0x40\n        /* \"#utility.yul\":5128:5131   */\n      dup3\n        /* \"#utility.yul\":5124:5136   */\n      add\n        /* \"#utility.yul\":5117:5136   */\n      swap1\n      pop\n        /* \"#utility.yul\":4776:5142   */\n      swap2\n      swap1\n      pop\n      jump\t// out\n        /* \"#utility.yul\":5148:5567   */\n    tag_51:\n        /* \"#utility.yul\":5314:5318   */\n      0x00\n        /* \"#utility.yul\":5352:5354   */\n      0x20\n        /* \"#utility.yul\":5341:5350   */\n      dup3\n        /* \"#utility.yul\":5337:5355   */\n      add\n        /* \"#utility.yul\":5329:5355   */\n      swap1\n      pop\n        /* \"#utility.yul\":5401:5410   */\n      dup2\n        /* \"#utility.yul\":5395:5399   */\n      dup2\n        /* \"#utility.yul\":5391:5411   */\n      sub\n        /* \"#utility.yul\":5387:5388   */\n      0x00\n        /* \"#utility.yul\":5376:5385   */\n      dup4\n        /* \"#utility.yul\":5372:5389   */\n      add\n        /* \"#utility.yul\":5365:5412   */\n      mstore\n        /* \"#utility.yul\":5429:5560   */\n      tag_119\n        /* \"#utility.yul\":5555:5559   */\n      dup2\n        /* \"#utility.yul\":5429:5560   */\n      tag_71\n      jump\t// in\n    tag_119:\n        /* \"#utility.yul\":5421:5560   */\n      swap1\n      pop\n        /* \"#utility.yul\":5148:5567   */\n      swap2\n      swap1\n      pop\n      jump\t// out\n        /* \"#utility.yul\":5573:5753   */\n    tag_72:\n        /* \"#utility.yul\":5621:5698   */\n      0x4e487b7100000000000000000000000000000000000000000000000000000000\n        /* \"#utility.yul\":5618:5619   */\n      0x00\n        /* \"#utility.yul\":5611:5699   */\n      mstore\n        /* \"#utility.yul\":5718:5722   */\n      0x11\n        /* \"#utility.yul\":5715:5716   */\n      0x04\n        /* \"#utility.yul\":5708:5723   */\n      mstore\n        /* \"#utility.yul\":5742:5746   */\n      0x24\n        /* \"#utility.yul\":5739:5740   */\n      0x00\n        /* \"#utility.yul\":5732:5747   */\n      revert\n        /* \"#utility.yul\":5759:5950   */\n    tag_53:\n        /* \"#utility.yul\":5799:5802   */\n      0x00\n        /* \"#utility.yul\":5818:5838   */\n      tag_122\n        /* \"#utility.yul\":5836:5837   */\n      dup3\n        /* \"#utility.yul\":5818:5838   */\n      tag_62\n      jump\t// in\n    tag_122:\n        /* \"#utility.yul\":5813:5838   */\n      swap2\n      pop\n        /* \"#utility.yul\":5852:5872   */\n      tag_123\n        /* \"#utility.yul\":5870:5871   */\n      dup4\n        /* \"#utility.yul\":5852:5872   */\n      tag_62\n      jump\t// in\n    tag_123:\n        /* \"#utility.yul\":5847:5872   */\n      swap3\n      pop\n        /* \"#utility.yul\":5895:5896   */\n      dup3\n        /* \"#utility.yul\":5892:5893   */\n      dup3\n        /* \"#utility.yul\":5888:5897   */\n      add\n        /* \"#utility.yul\":5881:5897   */\n      swap1\n      pop\n        /* \"#utility.yul\":5916:5919   */\n      dup1\n        /* \"#utility.yul\":5913:5914   */\n      dup3\n        /* \"#utility.yul\":5910:5920   */\n      gt\n        /* \"#utility.yul\":5907:5943   */\n      iszero\n      tag_124\n      jumpi\n        /* \"#utility.yul\":5923:5941   */\n      tag_125\n      tag_72\n      jump\t// in\n    tag_125:\n        /* \"#utility.yul\":5907:5943   */\n    tag_124:\n        /* \"#utility.yul\":5759:5950   */\n      swap3\n      swap2\n      pop\n      pop\n      jump\t// out\n\n    auxdata: 0xa2646970667358221220c1550770df053586e9b5d35ee287eaa31e80faadf738b350d16de515cf2d422a64736f6c634300081f0033\n}\n",
				"bytecode": {
					"linkReferences": {},
					"object": "60a0604052348015600e575f5ffd5b503373ffffffffffffffffffffffffffffffffffffffff1660808173ffffffffffffffffffffffffffffffffffffffff16815250506080516107b26100705f395f81816101460152818161021a0152818161027e015261033d01526107b25ff3fe608060405260043610610054575f3560e01c80633ccfd60b14610058578063410a1d321461006e5780636f9fb98a146100aa5780638da5cb5b146100d4578063ae677d8c146100fe578063ed88c68e1461013a575b5f5ffd5b348015610063575f5ffd5b5061006c610144565b005b348015610079575f5ffd5b50610094600480360381019061008f91906104b7565b6102ef565b6040516100a191906104fa565b60405180910390f35b3480156100b5575f5ffd5b506100be610334565b6040516100cb91906104fa565b60405180910390f35b3480156100df575f5ffd5b506100e861033b565b6040516100f59190610522565b60405180910390f35b348015610109575f5ffd5b50610124600480360381019061011f91906104b7565b61035f565b60405161013191906104fa565b60405180910390f35b610142610373565b005b7f000000000000000000000000000000000000000000000000000000000000000073ffffffffffffffffffffffffffffffffffffffff163373ffffffffffffffffffffffffffffffffffffffff16146101d2576040517f08c379a00000000000000000000000000000000000000000000000000000000081526004016101c9906105bb565b60405180910390fd5b5f4790505f8111610218576040517f08c379a000000000000000000000000000000000000000000000000000000000815260040161020f90610649565b60405180910390fd5b7f000000000000000000000000000000000000000000000000000000000000000073ffffffffffffffffffffffffffffffffffffffff166108fc8290811502906040515f60405180830381858888f1935050505015801561027b573d5f5f3e3d5ffd5b507f000000000000000000000000000000000000000000000000000000000000000073ffffffffffffffffffffffffffffffffffffffff167f92ccf450a286a957af52509bc1c9939d1a6a481783e142e41e2499f0bb66ebc682426040516102e4929190610667565b60405180910390a250565b5f5f5f8373ffffffffffffffffffffffffffffffffffffffff1673ffffffffffffffffffffffffffffffffffffffff1681526020019081526020015f20549050919050565b5f47905090565b7f000000000000000000000000000000000000000000000000000000000000000081565b5f602052805f5260405f205f915090505481565b5f34116103b5576040517f08c379a00000000000000000000000000000000000000000000000000000000081526004016103ac906106fe565b60405180910390fd5b345f5f3373ffffffffffffffffffffffffffffffffffffffff1673ffffffffffffffffffffffffffffffffffffffff1681526020019081526020015f205f8282546104009190610749565b925050819055503373ffffffffffffffffffffffffffffffffffffffff167f4928895ba6723e8e27b15f32e4c3054a1b6c7f8c03f133558d6fa42b3928d14c344260405161044f929190610667565b60405180910390a2565b5f5ffd5b5f73ffffffffffffffffffffffffffffffffffffffff82169050919050565b5f6104868261045d565b9050919050565b6104968161047c565b81146104a0575f5ffd5b50565b5f813590506104b18161048d565b92915050565b5f602082840312156104cc576104cb610459565b5b5f6104d9848285016104a3565b91505092915050565b5f819050919050565b6104f4816104e2565b82525050565b5f60208201905061050d5f8301846104eb565b92915050565b61051c8161047c565b82525050565b5f6020820190506105355f830184610513565b92915050565b5f82825260208201905092915050565b7f446f6e6174696f6e3a206f6e6c79206f776e65722063616e2063616c6c2074685f8201527f69732066756e6374696f6e000000000000000000000000000000000000000000602082015250565b5f6105a5602b8361053b565b91506105b08261054b565b604082019050919050565b5f6020820190508181035f8301526105d281610599565b9050919050565b7f446f6e6174696f6e3a20636f6e747261637420686173206e6f2062616c616e635f8201527f6520746f20776974686472617700000000000000000000000000000000000000602082015250565b5f610633602d8361053b565b915061063e826105d9565b604082019050919050565b5f6020820190508181035f83015261066081610627565b9050919050565b5f60408201905061067a5f8301856104eb565b61068760208301846104eb565b9392505050565b7f446f6e6174696f6e3a20616d6f756e74206d75737420626520677265617465725f8201527f207468616e203000000000000000000000000000000000000000000000000000602082015250565b5f6106e860278361053b565b91506106f38261068e565b604082019050919050565b5f6020820190508181035f830152610715816106dc565b9050919050565b7f4e487b71000000000000000000000000000000000000000000000000000000005f52601160045260245ffd5b5f610753826104e2565b915061075e836104e2565b92508282019050808211156107765761077561071c565b5b9291505056fea2646970667358221220c1550770df053586e9b5d35ee287eaa31e80faadf738b350d16de515cf2d422a64736f6c634300081f0033",
					"opcodes": "PUSH1 0xA0 PUSH1 0x40 MSTORE CALLVALUE DUP1 ISZERO PUSH1 0xE JUMPI PUSH0 PUSH0 REVERT JUMPDEST POP CALLER PUSH20 0xFFFFFFFFFFFFFFFFFFFFFFFFFFFFFFFFFFFFFFFF AND PUSH1 0x80 DUP2 PUSH20 0xFFFFFFFFFFFFFFFFFFFFFFFFFFFFFFFFFFFFFFFF AND DUP2 MSTORE POP POP PUSH1 0x80 MLOAD PUSH2 0x7B2 PUSH2 0x70 PUSH0 CODECOPY PUSH0 DUP2 DUP2 PUSH2 0x146 ADD MSTORE DUP2 DUP2 PUSH2 0x21A ADD MSTORE DUP2 DUP2 PUSH2 0x27E ADD MSTORE PUSH2 0x33D ADD MSTORE PUSH2 0x7B2 PUSH0 RETURN INVALID PUSH1 0x80 PUSH1 0x40 MSTORE PUSH1 0x4 CALLDATASIZE LT PUSH2 0x54 JUMPI PUSH0 CALLDATALOAD PUSH1 0xE0 SHR DUP1 PUSH4 0x3CCFD60B EQ PUSH2 0x58 JUMPI DUP1 PUSH4 0x410A1D32 EQ PUSH2 0x6E JUMPI DUP1 PUSH4 0x6F9FB98A EQ PUSH2 0xAA JUMPI DUP1 PUSH4 0x8DA5CB5B EQ PUSH2 0xD4 JUMPI DUP1 PUSH4 0xAE677D8C EQ PUSH2 0xFE JUMPI DUP1 PUSH4 0xED88C68E EQ PUSH2 0x13A JUMPI JUMPDEST PUSH0 PUSH0 REVERT JUMPDEST CALLVALUE DUP1 ISZERO PUSH2 0x63 JUMPI PUSH0 PUSH0 REVERT JUMPDEST POP PUSH2 0x6C PUSH2 0x144 JUMP JUMPDEST STOP JUMPDEST CALLVALUE DUP1 ISZERO PUSH2 0x79 JUMPI PUSH0 PUSH0 REVERT JUMPDEST POP PUSH2 0x94 PUSH1 0x4 DUP1 CALLDATASIZE SUB DUP2 ADD SWAP1 PUSH2 0x8F SWAP2 SWAP1 PUSH2 0x4B7 JUMP JUMPDEST PUSH2 0x2EF JUMP JUMPDEST PUSH1 0x40 MLOAD PUSH2 0xA1 SWAP2 SWAP1 PUSH2 0x4FA JUMP JUMPDEST PUSH1 0x40 MLOAD DUP1 SWAP2 SUB SWAP1 RETURN JUMPDEST CALLVALUE DUP1 ISZERO PUSH2 0xB5 JUMPI PUSH0 PUSH0 REVERT JUMPDEST POP PUSH2 0xBE PUSH2 0x334 JUMP JUMPDEST PUSH1 0x40 MLOAD PUSH2 0xCB SWAP2 SWAP1 PUSH2 0x4FA JUMP JUMPDEST PUSH1 0x40 MLOAD DUP1 SWAP2 SUB SWAP1 RETURN JUMPDEST CALLVALUE DUP1 ISZERO PUSH2 0xDF JUMPI PUSH0 PUSH0 REVERT JUMPDEST POP PUSH2 0xE8 PUSH2 0x33B JUMP JUMPDEST PUSH1 0x40 MLOAD PUSH2 0xF5 SWAP2 SWAP1 PUSH2 0x522 JUMP JUMPDEST PUSH1 0x40 MLOAD DUP1 SWAP2 SUB SWAP1 RETURN JUMPDEST CALLVALUE DUP1 ISZERO PUSH2 0x109 JUMPI PUSH0 PUSH0 REVERT JUMPDEST POP PUSH2 0x124 PUSH1 0x4 DUP1 CALLDATASIZE SUB DUP2 ADD SWAP1 PUSH2 0x11F SWAP2 SWAP1 PUSH2 0x4B7 JUMP JUMPDEST PUSH2 0x35F JUMP JUMPDEST PUSH1 0x40 MLOAD PUSH2 0x131 SWAP2 SWAP1 PUSH2 0x4FA JUMP JUMPDEST PUSH1 0x40 MLOAD DUP1 SWAP2 SUB SWAP1 RETURN JUMPDEST PUSH2 0x142 PUSH2 0x373 JUMP JUMPDEST STOP JUMPDEST PUSH32 0x0 PUSH20 0xFFFFFFFFFFFFFFFFFFFFFFFFFFFFFFFFFFFFFFFF AND CALLER PUSH20 0xFFFFFFFFFFFFFFFFFFFFFFFFFFFFFFFFFFFFFFFF AND EQ PUSH2 0x1D2 JUMPI PUSH1 0x40 MLOAD PUSH32 0x8C379A000000000000000000000000000000000000000000000000000000000 DUP2 MSTORE PUSH1 0x4 ADD PUSH2 0x1C9 SWAP1 PUSH2 0x5BB JUMP JUMPDEST PUSH1 0x40 MLOAD DUP1 SWAP2 SUB SWAP1 REVERT JUMPDEST PUSH0 SELFBALANCE SWAP1 POP PUSH0 DUP2 GT PUSH2 0x218 JUMPI PUSH1 0x40 MLOAD PUSH32 0x8C379A000000000000000000000000000000000000000000000000000000000 DUP2 MSTORE PUSH1 0x4 ADD PUSH2 0x20F SWAP1 PUSH2 0x649 JUMP JUMPDEST PUSH1 0x40 MLOAD DUP1 SWAP2 SUB SWAP1 REVERT JUMPDEST PUSH32 0x0 PUSH20 0xFFFFFFFFFFFFFFFFFFFFFFFFFFFFFFFFFFFFFFFF AND PUSH2 0x8FC DUP3 SWAP1 DUP2 ISZERO MUL SWAP1 PUSH1 0x40 MLOAD PUSH0 PUSH1 0x40 MLOAD DUP1 DUP4 SUB DUP2 DUP6 DUP9 DUP9 CALL SWAP4 POP POP POP POP ISZERO DUP1 ISZERO PUSH2 0x27B JUMPI RETURNDATASIZE PUSH0 PUSH0 RETURNDATACOPY RETURNDATASIZE PUSH0 REVERT JUMPDEST POP PUSH32 0x0 PUSH20 0xFFFFFFFFFFFFFFFFFFFFFFFFFFFFFFFFFFFFFFFF AND PUSH32 0x92CCF450A286A957AF52509BC1C9939D1A6A481783E142E41E2499F0BB66EBC6 DUP3 TIMESTAMP PUSH1 0x40 MLOAD PUSH2 0x2E4 SWAP3 SWAP2 SWAP1 PUSH2 0x667 JUMP JUMPDEST PUSH1 0x40 MLOAD DUP1 SWAP2 SUB SWAP1 LOG2 POP JUMP JUMPDEST PUSH0 PUSH0 PUSH0 DUP4 PUSH20 0xFFFFFFFFFFFFFFFFFFFFFFFFFFFFFFFFFFFFFFFF AND PUSH20 0xFFFFFFFFFFFFFFFFFFFFFFFFFFFFFFFFFFFFFFFF AND DUP2 MSTORE PUSH1 0x20 ADD SWAP1 DUP2 MSTORE PUSH1 0x20 ADD PUSH0 KECCAK256 SLOAD SWAP1 POP SWAP2 SWAP1 POP JUMP JUMPDEST PUSH0 SELFBALANCE SWAP1 POP SWAP1 JUMP JUMPDEST PUSH32 0x0 DUP2 JUMP JUMPDEST PUSH0 PUSH1 0x20 MSTORE DUP1 PUSH0 MSTORE PUSH1 0x40 PUSH0 KECCAK256 PUSH0 SWAP2 POP SWAP1 POP SLOAD DUP2 JUMP JUMPDEST PUSH0 CALLVALUE GT PUSH2 0x3B5 JUMPI PUSH1 0x40 MLOAD PUSH32 0x8C379A000000000000000000000000000000000000000000000000000000000 DUP2 MSTORE PUSH1 0x4 ADD PUSH2 0x3AC SWAP1 PUSH2 0x6FE JUMP JUMPDEST PUSH1 0x40 MLOAD DUP1 SWAP2 SUB SWAP1 REVERT JUMPDEST CALLVALUE PUSH0 PUSH0 CALLER PUSH20 0xFFFFFFFFFFFFFFFFFFFFFFFFFFFFFFFFFFFFFFFF AND PUSH20 0xFFFFFFFFFFFFFFFFFFFFFFFFFFFFFFFFFFFFFFFF AND DUP2 MSTORE PUSH1 0x20 ADD SWAP1 DUP2 MSTORE PUSH1 0x20 ADD PUSH0 KECCAK256 PUSH0 DUP3 DUP3 SLOAD PUSH2 0x400 SWAP2 SWAP1 PUSH2 0x749 JUMP JUMPDEST SWAP3 POP POP DUP2 SWAP1 SSTORE POP CALLER PUSH20 0xFFFFFFFFFFFFFFFFFFFFFFFFFFFFFFFFFFFFFFFF AND PUSH32 0x4928895BA6723E8E27B15F32E4C3054A1B6C7F8C03F133558D6FA42B3928D14C CALLVALUE TIMESTAMP PUSH1 0x40 MLOAD PUSH2 0x44F SWAP3 SWAP2 SWAP1 PUSH2 0x667 JUMP JUMPDEST PUSH1 0x40 MLOAD DUP1 SWAP2 SUB SWAP1 LOG2 JUMP JUMPDEST PUSH0 PUSH0 REVERT JUMPDEST PUSH0 PUSH20 0xFFFFFFFFFFFFFFFFFFFFFFFFFFFFFFFFFFFFFFFF DUP3 AND SWAP1 POP SWAP2 SWAP1 POP JUMP JUMPDEST PUSH0 PUSH2 0x486 DUP3 PUSH2 0x45D JUMP JUMPDEST SWAP1 POP SWAP2 SWAP1 POP JUMP JUMPDEST PUSH2 0x496 DUP2 PUSH2 0x47C JUMP JUMPDEST DUP2 EQ PUSH2 0x4A0 JUMPI PUSH0 PUSH0 REVERT JUMPDEST POP JUMP JUMPDEST PUSH0 DUP2 CALLDATALOAD SWAP1 POP PUSH2 0x4B1 DUP2 PUSH2 0x48D JUMP JUMPDEST SWAP3 SWAP2 POP POP JUMP JUMPDEST PUSH0 PUSH1 0x20 DUP3 DUP5 SUB SLT ISZERO PUSH2 0x4CC JUMPI PUSH2 0x4CB PUSH2 0x459 JUMP JUMPDEST JUMPDEST PUSH0 PUSH2 0x4D9 DUP5 DUP3 DUP6 ADD PUSH2 0x4A3 JUMP JUMPDEST SWAP2 POP POP SWAP3 SWAP2 POP POP JUMP JUMPDEST PUSH0 DUP2 SWAP1 POP SWAP2 SWAP1 POP JUMP JUMPDEST PUSH2 0x4F4 DUP2 PUSH2 0x4E2 JUMP JUMPDEST DUP3 MSTORE POP POP JUMP JUMPDEST PUSH0 PUSH1 0x20 DUP3 ADD SWAP1 POP PUSH2 0x50D PUSH0 DUP4 ADD DUP5 PUSH2 0x4EB JUMP JUMPDEST SWAP3 SWAP2 POP POP JUMP JUMPDEST PUSH2 0x51C DUP2 PUSH2 0x47C JUMP JUMPDEST DUP3 MSTORE POP POP JUMP JUMPDEST PUSH0 PUSH1 0x20 DUP3 ADD SWAP1 POP PUSH2 0x535 PUSH0 DUP4 ADD DUP5 PUSH2 0x513 JUMP JUMPDEST SWAP3 SWAP2 POP POP JUMP JUMPDEST PUSH0 DUP3 DUP3 MSTORE PUSH1 0x20 DUP3 ADD SWAP1 POP SWAP3 SWAP2 POP POP JUMP JUMPDEST PUSH32 0x446F6E6174696F6E3A206F6E6C79206F776E65722063616E2063616C6C207468 PUSH0 DUP3 ADD MSTORE PUSH32 0x69732066756E6374696F6E000000000000000000000000000000000000000000 PUSH1 0x20 DUP3 ADD MSTORE POP JUMP JUMPDEST PUSH0 PUSH2 0x5A5 PUSH1 0x2B DUP4 PUSH2 0x53B JUMP JUMPDEST SWAP2 POP PUSH2 0x5B0 DUP3 PUSH2 0x54B JUMP JUMPDEST PUSH1 0x40 DUP3 ADD SWAP1 POP SWAP2 SWAP1 POP JUMP JUMPDEST PUSH0 PUSH1 0x20 DUP3 ADD SWAP1 POP DUP2 DUP2 SUB PUSH0 DUP4 ADD MSTORE PUSH2 0x5D2 DUP2 PUSH2 0x599 JUMP JUMPDEST SWAP1 POP SWAP2 SWAP1 POP JUMP JUMPDEST PUSH32 0x446F6E6174696F6E3A20636F6E747261637420686173206E6F2062616C616E63 PUSH0 DUP3 ADD MSTORE PUSH32 0x6520746F20776974686472617700000000000000000000000000000000000000 PUSH1 0x20 DUP3 ADD MSTORE POP JUMP JUMPDEST PUSH0 PUSH2 0x633 PUSH1 0x2D DUP4 PUSH2 0x53B JUMP JUMPDEST SWAP2 POP PUSH2 0x63E DUP3 PUSH2 0x5D9 JUMP JUMPDEST PUSH1 0x40 DUP3 ADD SWAP1 POP SWAP2 SWAP1 POP JUMP JUMPDEST PUSH0 PUSH1 0x20 DUP3 ADD SWAP1 POP DUP2 DUP2 SUB PUSH0 DUP4 ADD MSTORE PUSH2 0x660 DUP2 PUSH2 0x627 JUMP JUMPDEST SWAP1 POP SWAP2 SWAP1 POP JUMP JUMPDEST PUSH0 PUSH1 0x40 DUP3 ADD SWAP1 POP PUSH2 0x67A PUSH0 DUP4 ADD DUP6 PUSH2 0x4EB JUMP JUMPDEST PUSH2 0x687 PUSH1 0x20 DUP4 ADD DUP5 PUSH2 0x4EB JUMP JUMPDEST SWAP4 SWAP3 POP POP POP JUMP JUMPDEST PUSH32 0x446F6E6174696F6E3A20616D6F756E74206D7573742062652067726561746572 PUSH0 DUP3 ADD MSTORE PUSH32 0x207468616E203000000000000000000000000000000000000000000000000000 PUSH1 0x20 DUP3 ADD MSTORE POP JUMP JUMPDEST PUSH0 PUSH2 0x6E8 PUSH1 0x27 DUP4 PUSH2 0x53B JUMP JUMPDEST SWAP2 POP PUSH2 0x6F3 DUP3 PUSH2 0x68E JUMP JUMPDEST PUSH1 0x40 DUP3 ADD SWAP1 POP SWAP2 SWAP1 POP JUMP JUMPDEST PUSH0 PUSH1 0x20 DUP3 ADD SWAP1 POP DUP2 DUP2 SUB PUSH0 DUP4 ADD MSTORE PUSH2 0x715 DUP2 PUSH2 0x6DC JUMP JUMPDEST SWAP1 POP SWAP2 SWAP1 POP JUMP JUMPDEST PUSH32 0x4E487B7100000000000000000000000000000000000000000000000000000000 PUSH0 MSTORE PUSH1 0x11 PUSH1 0x4 MSTORE PUSH1 0x24 PUSH0 REVERT JUMPDEST PUSH0 PUSH2 0x753 DUP3 PUSH2 0x4E2 JUMP JUMPDEST SWAP2 POP PUSH2 0x75E DUP4 PUSH2 0x4E2 JUMP JUMPDEST SWAP3 POP DUP3 DUP3 ADD SWAP1 POP DUP1 DUP3 GT ISZERO PUSH2 0x776 JUMPI PUSH2 0x775 PUSH2 0x71C JUMP JUMPDEST JUMPDEST SWAP3 SWAP2 POP POP JUMP INVALID LOG2 PUSH5 0x6970667358 0x22 SLT KECCAK256 0xC1 SSTORE SMOD PUSH17 0xDF053586E9B5D35EE287EAA31E80FAADF7 CODESIZE 0xB3 POP DATALOADN 0x6DE5 ISZERO 0xCF 0x2D TIMESTAMP 0x2A PUSH5 0x736F6C6343 STOP ADDMOD 0x1F STOP CALLER "
				},
				"gasEstimates": {
					"creation": {
						"codeDepositCost": "394000",
						"executionCost": "infinite",
						"totalCost": "infinite"
					},
					"external": {
						"donate()": "infinite",
						"donationAmount(address)": "2867",
						"getContractBalance()": "356",
						"getDonation(address)": "2828",
						"owner()": "infinite",
						"withdraw()": "infinite"
					}
				},
				"methodIdentifiers": {
					"donate()": "ed88c68e",
					"donationAmount(address)": "ae677d8c",
					"getContractBalance()": "6f9fb98a",
					"getDonation(address)": "410a1d32",
					"owner()": "8da5cb5b",
					"withdraw()": "3ccfd60b"
				}
			},
			"storageLayout": {
				"storage": [
					{
						"astId": 8,
						"contract": "contracts/homework/test.sol:DonationContract",
						"label": "donationAmount",
						"offset": 0,
						"slot": "0",
						"type": "t_mapping(t_address,t_uint256)"
					}
				],
				"types": {
					"t_address": {
						"encoding": "inplace",
						"label": "address",
						"numberOfBytes": "20"
					},
					"t_mapping(t_address,t_uint256)": {
						"encoding": "mapping",
						"key": "t_address",
						"label": "mapping(address => uint256)",
						"numberOfBytes": "32",
						"value": "t_uint256"
					},
					"t_uint256": {
						"encoding": "inplace",
						"label": "uint256",
						"numberOfBytes": "32"
					}
				}
			},
			"userdoc": {
				"kind": "user",
				"methods": {
					"donate()": {
						"notice": "调用时需附带以太币（msg.value），金额需大于0"
					},
					"withdraw()": {
						"notice": "提取前需确保合约有余额，避免无意义操作"
					}
				},
				"version": 1
			}
		}
	}
}