{
	"contracts/task01/test.sol": {
		"TokenWithMintBurn": {
			"abi": [
				{
					"inputs": [
						{
							"internalType": "uint256",
							"name": "_initialSupply",
							"type": "uint256"
						}
					],
					"stateMutability": "nonpayable",
					"type": "constructor"
				},
				{
					"anonymous": false,
					"inputs": [
						{
							"indexed": true,
							"internalType": "address",
							"name": "owner",
							"type": "address"
						},
						{
							"indexed": true,
							"internalType": "address",
							"name": "spender",
							"type": "address"
						},
						{
							"indexed": false,
							"internalType": "uint256",
							"name": "value",
							"type": "uint256"
						}
					],
					"name": "Approval",
					"type": "event"
				},
				{
					"anonymous": false,
					"inputs": [
						{
							"indexed": true,
							"internalType": "address",
							"name": "from",
							"type": "address"
						},
						{
							"indexed": true,
							"internalType": "address",
							"name": "to",
							"type": "address"
						},
						{
							"indexed": false,
							"internalType": "uint256",
							"name": "value",
							"type": "uint256"
						}
					],
					"name": "Transfer",
					"type": "event"
				},
				{
					"inputs": [
						{
							"internalType": "address",
							"name": "",
							"type": "address"
						},
						{
							"internalType": "address",
							"name": "",
							"type": "address"
						}
					],
					"name": "allowance",
					"outputs": [
						{
							"internalType": "uint256",
							"name": "",
							"type": "uint256"
						}
					],
					"stateMutability": "view",
					"type": "function"
				},
				{
					"inputs": [
						{
							"internalType": "address",
							"name": "spender",
							"type": "address"
						},
						{
							"internalType": "uint256",
							"name": "amount",
							"type": "uint256"
						}
					],
					"name": "approve",
					"outputs": [
						{
							"internalType": "bool",
							"name": "",
							"type": "bool"
						}
					],
					"stateMutability": "nonpayable",
					"type": "function"
				},
				{
					"inputs": [
						{
							"internalType": "address",
							"name": "",
							"type": "address"
						}
					],
					"name": "balanceOf",
					"outputs": [
						{
							"internalType": "uint256",
							"name": "",
							"type": "uint256"
						}
					],
					"stateMutability": "view",
					"type": "function"
				},
				{
					"inputs": [
						{
							"internalType": "uint256",
							"name": "amount",
							"type": "uint256"
						}
					],
					"name": "burn",
					"outputs": [],
					"stateMutability": "nonpayable",
					"type": "function"
				},
				{
					"inputs": [],
					"name": "decimals",
					"outputs": [
						{
							"internalType": "uint8",
							"name": "",
							"type": "uint8"
						}
					],
					"stateMutability": "view",
					"type": "function"
				},
				{
					"inputs": [
						{
							"internalType": "address",
							"name": "to",
							"type": "address"
						},
						{
							"internalType": "uint256",
							"name": "amount",
							"type": "uint256"
						}
					],
					"name": "mint",
					"outputs": [],
					"stateMutability": "nonpayable",
					"type": "function"
				},
				{
					"inputs": [],
					"name": "name",
					"outputs": [
						{
							"internalType": "string",
							"name": "",
							"type": "string"
						}
					],
					"stateMutability": "view",
					"type": "function"
				},
				{
					"inputs": [],
					"name": "owner",
					"outputs": [
						{
							"internalType": "address",
							"name": "",
							"type": "address"
						}
					],
					"stateMutability": "view",
					"type": "function"
				},
				{
					"inputs": [],
					"name": "symbol",
					"outputs": [
						{
							"internalType": "string",
							"name": "",
							"type": "string"
						}
					],
					"stateMutability": "view",
					"type": "function"
				},
				{
					"inputs": [],
					"name": "totalSupply",
					"outputs": [
						{
							"internalType": "uint256",
							"name": "",
							"type": "uint256"
						}
					],
					"stateMutability": "view",
					"type": "function"
				},
				{
					"inputs": [
						{
							"internalType": "address",
							"name": "to",
							"type": "address"
						},
						{
							"internalType": "uint256",
							"name": "amount",
							"type": "uint256"
						}
					],
					"name": "transfer",
					"outputs": [
						{
							"internalType": "bool",
							"name": "",
							"type": "bool"
						}
					],
					"stateMutability": "nonpayable",
					"type": "function"
				},
				{
					"inputs": [
						{
							"internalType": "address",
							"name": "from",
							"type": "address"
						},
						{
							"internalType": "address",
							"name": "to",
							"type": "address"
						},
						{
							"internalType": "uint256",
							"name": "amount",
							"type": "uint256"
						}
					],
					"name": "transferFrom",
					"outputs": [
						{
							"internalType": "bool",
							"name": "",
							"type": "bool"
						}
					],
					"stateMutability": "nonpayable",
					"type": "function"
				}
			],
			"devdoc": {
				"kind": "dev",
				"methods": {},
				"version": 1
			},
			"evm": {
				"assembly": "    /* \"contracts/task01/test.sol\":92:123  string public name = \"My Token\" */\n  0xc0\n    /* \"contracts/task01/test.sol\":59:2698  contract TokenWithMintBurn {... */\n  0x40\n    /* \"contracts/task01/test.sol\":92:123  string public name = \"My Token\" */\n  mstore\n  0x08\n    /* \"contracts/task01/test.sol\":59:2698  contract TokenWithMintBurn {... */\n  0x80\n    /* \"contracts/task01/test.sol\":92:123  string public name = \"My Token\" */\n  swap1\n  dup2\n  mstore\n  mstore(0xa0, shl(0xc1, 0x26bc902a37b5b2b7))\n  0x00\n  swap1\n  tag_1\n  swap1\n  dup3\n  tag_2\n  jump\t// in\ntag_1:\n  pop\n    /* \"contracts/task01/test.sol\":129:157  string public symbol = \"MTK\" */\n  0x40\n  dup1\n  mload\n  dup1\n  dup3\n  add\n  swap1\n  swap2\n  mstore\n  0x03\n  dup2\n  mstore\n  shl(0xe8, 0x4d544b)\n  0x20\n  dup3\n  add\n  mstore\n  0x01\n  swap1\n  tag_3\n  swap1\n  dup3\n  tag_2\n  jump\t// in\ntag_3:\n  pop\n    /* \"contracts/task01/test.sol\":163:189  uint8 public decimals = 18 */\n  0x02\n  dup1\n  sload\n  not(0xff)\n  and\n    /* \"contracts/task01/test.sol\":187:189  18 */\n  0x12\n    /* \"contracts/task01/test.sol\":163:189  uint8 public decimals = 18 */\n  or\n  swap1\n  sstore\n    /* \"contracts/task01/test.sol\":553:782  constructor(uint256 _initialSupply) {... */\n  callvalue\n  dup1\n  iszero\n  tag_4\n  jumpi\n  revert(0x00, 0x00)\ntag_4:\n  pop\n  mload(0x40)\n  sub(codesize, bytecodeSize)\n  dup1\n  bytecodeSize\n  dup4\n  codecopy\n  dup2\n  add\n  0x40\n  dup2\n  swap1\n  mstore\n  tag_5\n  swap2\n  tag_6\n  jump\t// in\ntag_5:\n    /* \"contracts/task01/test.sol\":599:604  owner */\n  0x06\n    /* \"contracts/task01/test.sol\":599:617  owner = msg.sender */\n  dup1\n  sload\n  not(sub(shl(0xa0, 0x01), 0x01))\n  and\n    /* \"contracts/task01/test.sol\":607:617  msg.sender */\n  caller\n    /* \"contracts/task01/test.sol\":599:617  owner = msg.sender */\n  or\n  swap1\n  sstore\n    /* \"contracts/task01/test.sol\":662:670  decimals */\n  sload(0x02)\n    /* \"contracts/task01/test.sol\":658:670  10**decimals */\n  tag_9\n  swap1\n    /* \"contracts/task01/test.sol\":662:670  decimals */\n  0xff\n  and\n    /* \"contracts/task01/test.sol\":658:660  10 */\n  0x0a\n    /* \"contracts/task01/test.sol\":658:670  10**decimals */\n  tag_10\n  jump\t// in\ntag_9:\n    /* \"contracts/task01/test.sol\":641:670  _initialSupply * 10**decimals */\n  tag_11\n  swap1\n    /* \"contracts/task01/test.sol\":641:655  _initialSupply */\n  dup3\n    /* \"contracts/task01/test.sol\":641:670  _initialSupply * 10**decimals */\n  tag_12\n  jump\t// in\ntag_11:\n    /* \"contracts/task01/test.sol\":627:638  totalSupply */\n  0x03\n    /* \"contracts/task01/test.sol\":627:670  totalSupply = _initialSupply * 10**decimals */\n  dup2\n  swap1\n  sstore\n    /* \"contracts/task01/test.sol\":690:700  msg.sender */\n  caller\n    /* \"contracts/task01/test.sol\":680:701  balanceOf[msg.sender] */\n  0x00\n  dup2\n  dup2\n  mstore\n    /* \"contracts/task01/test.sol\":680:689  balanceOf */\n  0x04\n    /* \"contracts/task01/test.sol\":680:701  balanceOf[msg.sender] */\n  0x20\n  swap1\n  dup2\n  mstore\n  0x40\n  dup1\n  dup4\n  keccak256\n    /* \"contracts/task01/test.sol\":680:715  balanceOf[msg.sender] = totalSupply */\n  dup6\n  swap1\n  sstore\n    /* \"contracts/task01/test.sol\":730:775  Transfer(address(0), msg.sender, totalSupply) */\n  mload\n    /* \"#utility.yul\":4727:4752   */\n  swap4\n  dup5\n  mstore\n    /* \"contracts/task01/test.sol\":690:700  msg.sender */\n  swap2\n  swap3\n    /* \"contracts/task01/test.sol\":680:701  balanceOf[msg.sender] */\n  swap1\n  swap2\n    /* \"contracts/task01/test.sol\":730:775  Transfer(address(0), msg.sender, totalSupply) */\n  0xddf252ad1be2c89b69c2b068fc378daa952ba7f163c4a11628f55a4df523b3ef\n  swap2\n    /* \"#utility.yul\":4700:4718   */\n  add\n    /* \"contracts/task01/test.sol\":730:775  Transfer(address(0), msg.sender, totalSupply) */\n  mload(0x40)\n  dup1\n  swap2\n  sub\n  swap1\n  log3\n    /* \"contracts/task01/test.sol\":553:782  constructor(uint256 _initialSupply) {... */\n  pop\n    /* \"contracts/task01/test.sol\":59:2698  contract TokenWithMintBurn {... */\n  jump(tag_24)\n    /* \"#utility.yul\":14:141   */\ntag_16:\n    /* \"#utility.yul\":75:85   */\n  0x4e487b71\n    /* \"#utility.yul\":70:73   */\n  0xe0\n    /* \"#utility.yul\":66:86   */\n  shl\n    /* \"#utility.yul\":63:64   */\n  0x00\n    /* \"#utility.yul\":56:87   */\n  mstore\n    /* \"#utility.yul\":106:110   */\n  0x41\n    /* \"#utility.yul\":103:104   */\n  0x04\n    /* \"#utility.yul\":96:111   */\n  mstore\n    /* \"#utility.yul\":130:134   */\n  0x24\n    /* \"#utility.yul\":127:128   */\n  0x00\n    /* \"#utility.yul\":120:135   */\n  revert\n    /* \"#utility.yul\":146:526   */\ntag_17:\n    /* \"#utility.yul\":225:226   */\n  0x01\n    /* \"#utility.yul\":221:233   */\n  dup2\n  dup2\n  shr\n  swap1\n    /* \"#utility.yul\":268:280   */\n  dup3\n  and\n  dup1\n    /* \"#utility.yul\":289:350   */\n  tag_27\n  jumpi\n    /* \"#utility.yul\":343:347   */\n  0x7f\n    /* \"#utility.yul\":335:341   */\n  dup3\n    /* \"#utility.yul\":331:348   */\n  and\n    /* \"#utility.yul\":321:348   */\n  swap2\n  pop\n    /* \"#utility.yul\":289:350   */\ntag_27:\n    /* \"#utility.yul\":396:398   */\n  0x20\n    /* \"#utility.yul\":388:394   */\n  dup3\n    /* \"#utility.yul\":385:399   */\n  lt\n    /* \"#utility.yul\":365:383   */\n  dup2\n    /* \"#utility.yul\":362:400   */\n  sub\n    /* \"#utility.yul\":359:520   */\n  tag_28\n  jumpi\n    /* \"#utility.yul\":442:452   */\n  0x4e487b71\n    /* \"#utility.yul\":437:440   */\n  0xe0\n    /* \"#utility.yul\":433:453   */\n  shl\n    /* \"#utility.yul\":430:431   */\n  0x00\n    /* \"#utility.yul\":423:454   */\n  mstore\n    /* \"#utility.yul\":477:481   */\n  0x22\n    /* \"#utility.yul\":474:475   */\n  0x04\n    /* \"#utility.yul\":467:482   */\n  mstore\n    /* \"#utility.yul\":505:509   */\n  0x24\n    /* \"#utility.yul\":502:503   */\n  0x00\n    /* \"#utility.yul\":495:510   */\n  revert\n    /* \"#utility.yul\":359:520   */\ntag_28:\n  pop\n    /* \"#utility.yul\":146:526   */\n  swap2\n  swap1\n  pop\n  jump\t// out\n    /* \"#utility.yul\":657:1175   */\ntag_19:\n    /* \"#utility.yul\":759:761   */\n  0x1f\n    /* \"#utility.yul\":754:757   */\n  dup3\n    /* \"#utility.yul\":751:762   */\n  gt\n    /* \"#utility.yul\":748:1169   */\n  iszero\n  tag_31\n  jumpi\n    /* \"#utility.yul\":795:800   */\n  dup1\n    /* \"#utility.yul\":792:793   */\n  0x00\n    /* \"#utility.yul\":785:801   */\n  mstore\n    /* \"#utility.yul\":839:843   */\n  0x20\n    /* \"#utility.yul\":836:837   */\n  0x00\n    /* \"#utility.yul\":826:844   */\n  keccak256\n    /* \"#utility.yul\":909:911   */\n  0x1f\n    /* \"#utility.yul\":897:907   */\n  dup5\n    /* \"#utility.yul\":893:912   */\n  add\n    /* \"#utility.yul\":890:891   */\n  0x05\n    /* \"#utility.yul\":886:913   */\n  shr\n    /* \"#utility.yul\":880:884   */\n  dup2\n    /* \"#utility.yul\":876:914   */\n  add\n    /* \"#utility.yul\":945:949   */\n  0x20\n    /* \"#utility.yul\":933:943   */\n  dup6\n    /* \"#utility.yul\":930:950   */\n  lt\n    /* \"#utility.yul\":927:974   */\n  iszero\n  tag_32\n  jumpi\n  pop\n    /* \"#utility.yul\":968:972   */\n  dup1\n    /* \"#utility.yul\":927:974   */\ntag_32:\n    /* \"#utility.yul\":1023:1025   */\n  0x1f\n    /* \"#utility.yul\":1018:1021   */\n  dup5\n    /* \"#utility.yul\":1014:1026   */\n  add\n    /* \"#utility.yul\":1011:1012   */\n  0x05\n    /* \"#utility.yul\":1007:1027   */\n  shr\n    /* \"#utility.yul\":1001:1005   */\n  dup3\n    /* \"#utility.yul\":997:1028   */\n  add\n    /* \"#utility.yul\":987:1028   */\n  swap2\n  pop\n    /* \"#utility.yul\":1078:1159   */\ntag_33:\n    /* \"#utility.yul\":1096:1098   */\n  dup2\n    /* \"#utility.yul\":1089:1094   */\n  dup2\n    /* \"#utility.yul\":1086:1099   */\n  lt\n    /* \"#utility.yul\":1078:1159   */\n  iszero\n  tag_35\n  jumpi\n    /* \"#utility.yul\":1155:1156   */\n  0x00\n    /* \"#utility.yul\":1141:1157   */\n  dup2\n  sstore\n    /* \"#utility.yul\":1122:1123   */\n  0x01\n    /* \"#utility.yul\":1111:1124   */\n  add\n    /* \"#utility.yul\":1078:1159   */\n  jump(tag_33)\ntag_35:\n    /* \"#utility.yul\":1082:1085   */\n  pop\n  pop\n    /* \"#utility.yul\":748:1169   */\ntag_31:\n    /* \"#utility.yul\":657:1175   */\n  pop\n  pop\n  pop\n  jump\t// out\n    /* \"#utility.yul\":1351:2650   */\ntag_2:\n    /* \"#utility.yul\":1471:1481   */\n  dup2\n  mload\n  sub(shl(0x40, 0x01), 0x01)\n    /* \"#utility.yul\":1493:1523   */\n  dup2\n  gt\n    /* \"#utility.yul\":1490:1546   */\n  iszero\n  tag_39\n  jumpi\n    /* \"#utility.yul\":1526:1544   */\n  tag_39\n  tag_16\n  jump\t// in\ntag_39:\n    /* \"#utility.yul\":1555:1652   */\n  tag_40\n    /* \"#utility.yul\":1645:1651   */\n  dup2\n    /* \"#utility.yul\":1605:1643   */\n  tag_41\n    /* \"#utility.yul\":1637:1641   */\n  dup5\n    /* \"#utility.yul\":1631:1642   */\n  sload\n    /* \"#utility.yul\":1605:1643   */\n  tag_17\n  jump\t// in\ntag_41:\n    /* \"#utility.yul\":1599:1603   */\n  dup5\n    /* \"#utility.yul\":1555:1652   */\n  tag_19\n  jump\t// in\ntag_40:\n    /* \"#utility.yul\":1701:1705   */\n  0x20\n    /* \"#utility.yul\":1732:1734   */\n  0x1f\n    /* \"#utility.yul\":1721:1735   */\n  dup3\n  gt\n    /* \"#utility.yul\":1749:1750   */\n  0x01\n    /* \"#utility.yul\":1744:2393   */\n  dup2\n  eq\n  tag_43\n  jumpi\n    /* \"#utility.yul\":2437:2438   */\n  0x00\n    /* \"#utility.yul\":2454:2460   */\n  dup4\n    /* \"#utility.yul\":2451:2540   */\n  iszero\n  tag_44\n  jumpi\n  pop\n    /* \"#utility.yul\":2506:2525   */\n  dup5\n  dup3\n  add\n    /* \"#utility.yul\":2500:2526   */\n  mload\n    /* \"#utility.yul\":2451:2540   */\ntag_44:\n  not(0x00)\n    /* \"#utility.yul\":1308:1309   */\n  0x03\n    /* \"#utility.yul\":1304:1315   */\n  dup6\n  swap1\n  shl\n    /* \"#utility.yul\":1300:1324   */\n  shr\n    /* \"#utility.yul\":1296:1325   */\n  not\n    /* \"#utility.yul\":1286:1326   */\n  and\n    /* \"#utility.yul\":1332:1333   */\n  0x01\n    /* \"#utility.yul\":1328:1339   */\n  dup5\n  swap1\n  shl\n    /* \"#utility.yul\":1283:1340   */\n  or\n    /* \"#utility.yul\":2553:2634   */\n  dup5\n  sstore\n    /* \"#utility.yul\":1714:2644   */\n  jump(tag_35)\n    /* \"#utility.yul\":1744:2393   */\ntag_43:\n    /* \"#utility.yul\":604:605   */\n  0x00\n    /* \"#utility.yul\":597:611   */\n  dup5\n  dup2\n  mstore\n    /* \"#utility.yul\":641:645   */\n  0x20\n    /* \"#utility.yul\":628:646   */\n  dup2\n  keccak256\n  not(0x1f)\n    /* \"#utility.yul\":1780:1800   */\n  dup6\n  and\n  swap2\n    /* \"#utility.yul\":1898:2120   */\ntag_47:\n    /* \"#utility.yul\":1912:1919   */\n  dup3\n    /* \"#utility.yul\":1909:1910   */\n  dup2\n    /* \"#utility.yul\":1906:1920   */\n  lt\n    /* \"#utility.yul\":1898:2120   */\n  iszero\n  tag_49\n  jumpi\n    /* \"#utility.yul\":1994:2013   */\n  dup8\n  dup6\n  add\n    /* \"#utility.yul\":1988:2014   */\n  mload\n    /* \"#utility.yul\":1973:2015   */\n  dup3\n  sstore\n    /* \"#utility.yul\":2101:2105   */\n  0x20\n    /* \"#utility.yul\":2086:2106   */\n  swap5\n  dup6\n  add\n  swap5\n    /* \"#utility.yul\":2054:2055   */\n  0x01\n    /* \"#utility.yul\":2042:2056   */\n  swap1\n  swap3\n  add\n  swap2\n    /* \"#utility.yul\":1928:1940   */\n  add\n    /* \"#utility.yul\":1898:2120   */\n  jump(tag_47)\ntag_49:\n    /* \"#utility.yul\":1902:1905   */\n  pop\n    /* \"#utility.yul\":2148:2154   */\n  dup5\n    /* \"#utility.yul\":2139:2146   */\n  dup3\n    /* \"#utility.yul\":2136:2155   */\n  lt\n    /* \"#utility.yul\":2133:2334   */\n  iszero\n  tag_50\n  jumpi\n    /* \"#utility.yul\":2209:2228   */\n  dup7\n  dup5\n  add\n    /* \"#utility.yul\":2203:2229   */\n  mload\n  not(0x00)\n    /* \"#utility.yul\":2292:2293   */\n  0x03\n    /* \"#utility.yul\":2288:2302   */\n  dup8\n  swap1\n  shl\n    /* \"#utility.yul\":2304:2307   */\n  0xf8\n    /* \"#utility.yul\":2284:2308   */\n  and\n    /* \"#utility.yul\":2280:2317   */\n  shr\n    /* \"#utility.yul\":2276:2318   */\n  not\n    /* \"#utility.yul\":2261:2319   */\n  and\n    /* \"#utility.yul\":2246:2320   */\n  dup2\n  sstore\n    /* \"#utility.yul\":2133:2334   */\ntag_50:\n  pop\n  pop\n  pop\n  pop\n    /* \"#utility.yul\":2380:2381   */\n  0x01\n    /* \"#utility.yul\":2364:2378   */\n  swap1\n  dup2\n  shl\n    /* \"#utility.yul\":2360:2382   */\n  add\n    /* \"#utility.yul\":2347:2383   */\n  swap1\n  sstore\n  pop\n    /* \"#utility.yul\":1351:2650   */\n  jump\t// out\n    /* \"#utility.yul\":2655:2839   */\ntag_6:\n    /* \"#utility.yul\":2725:2731   */\n  0x00\n    /* \"#utility.yul\":2778:2780   */\n  0x20\n    /* \"#utility.yul\":2766:2775   */\n  dup3\n    /* \"#utility.yul\":2757:2764   */\n  dup5\n    /* \"#utility.yul\":2753:2776   */\n  sub\n    /* \"#utility.yul\":2749:2781   */\n  slt\n    /* \"#utility.yul\":2746:2798   */\n  iszero\n  tag_52\n  jumpi\n    /* \"#utility.yul\":2794:2795   */\n  0x00\n    /* \"#utility.yul\":2791:2792   */\n  0x00\n    /* \"#utility.yul\":2784:2796   */\n  revert\n    /* \"#utility.yul\":2746:2798   */\ntag_52:\n  pop\n    /* \"#utility.yul\":2817:2833   */\n  mload\n  swap2\n    /* \"#utility.yul\":2655:2839   */\n  swap1\n  pop\n  jump\t// out\n    /* \"#utility.yul\":2844:2971   */\ntag_21:\n    /* \"#utility.yul\":2905:2915   */\n  0x4e487b71\n    /* \"#utility.yul\":2900:2903   */\n  0xe0\n    /* \"#utility.yul\":2896:2916   */\n  shl\n    /* \"#utility.yul\":2893:2894   */\n  0x00\n    /* \"#utility.yul\":2886:2917   */\n  mstore\n    /* \"#utility.yul\":2936:2940   */\n  0x11\n    /* \"#utility.yul\":2933:2934   */\n  0x04\n    /* \"#utility.yul\":2926:2941   */\n  mstore\n    /* \"#utility.yul\":2960:2964   */\n  0x24\n    /* \"#utility.yul\":2957:2958   */\n  0x00\n    /* \"#utility.yul\":2950:2965   */\n  revert\n    /* \"#utility.yul\":2976:3351   */\ntag_22:\n    /* \"#utility.yul\":3064:3065   */\n  0x01\n    /* \"#utility.yul\":3082:3087   */\n  dup2\n    /* \"#utility.yul\":3096:3345   */\ntag_55:\n    /* \"#utility.yul\":3117:3118   */\n  0x01\n    /* \"#utility.yul\":3107:3115   */\n  dup5\n    /* \"#utility.yul\":3104:3119   */\n  gt\n    /* \"#utility.yul\":3096:3345   */\n  iszero\n  tag_57\n  jumpi\n    /* \"#utility.yul\":3167:3171   */\n  dup1\n    /* \"#utility.yul\":3162:3165   */\n  dup6\n    /* \"#utility.yul\":3158:3172   */\n  div\n    /* \"#utility.yul\":3152:3156   */\n  dup2\n    /* \"#utility.yul\":3149:3173   */\n  gt\n    /* \"#utility.yul\":3146:3196   */\n  iszero\n  tag_59\n  jumpi\n    /* \"#utility.yul\":3176:3194   */\n  tag_59\n  tag_21\n  jump\t// in\ntag_59:\n    /* \"#utility.yul\":3226:3227   */\n  0x01\n    /* \"#utility.yul\":3216:3224   */\n  dup5\n    /* \"#utility.yul\":3212:3228   */\n  and\n    /* \"#utility.yul\":3209:3258   */\n  iszero\n  tag_60\n  jumpi\n    /* \"#utility.yul\":3240:3256   */\n  swap1\n  dup2\n  mul\n  swap1\n    /* \"#utility.yul\":3209:3258   */\ntag_60:\n    /* \"#utility.yul\":3323:3324   */\n  0x01\n    /* \"#utility.yul\":3319:3335   */\n  swap4\n  swap1\n  swap4\n  shr\n  swap3\n    /* \"#utility.yul\":3279:3294   */\n  dup1\n  mul\n    /* \"#utility.yul\":3096:3345   */\n  jump(tag_55)\ntag_57:\n    /* \"#utility.yul\":2976:3351   */\n  swap4\n  pop\n  swap4\n  swap2\n  pop\n  pop\n  jump\t// out\n    /* \"#utility.yul\":3356:4258   */\ntag_23:\n    /* \"#utility.yul\":3405:3410   */\n  0x00\n    /* \"#utility.yul\":3435:3443   */\n  dup3\n    /* \"#utility.yul\":3425:3505   */\n  tag_62\n  jumpi\n  pop\n    /* \"#utility.yul\":3476:3477   */\n  0x01\n    /* \"#utility.yul\":3490:3495   */\n  jump(tag_61)\n    /* \"#utility.yul\":3425:3505   */\ntag_62:\n    /* \"#utility.yul\":3524:3528   */\n  dup2\n    /* \"#utility.yul\":3514:3590   */\n  tag_63\n  jumpi\n  pop\n    /* \"#utility.yul\":3561:3562   */\n  0x00\n    /* \"#utility.yul\":3575:3580   */\n  jump(tag_61)\n    /* \"#utility.yul\":3514:3590   */\ntag_63:\n    /* \"#utility.yul\":3606:3610   */\n  dup2\n    /* \"#utility.yul\":3624:3625   */\n  0x01\n    /* \"#utility.yul\":3619:3678   */\n  dup2\n  eq\n  tag_65\n  jumpi\n    /* \"#utility.yul\":3692:3693   */\n  0x02\n    /* \"#utility.yul\":3687:3861   */\n  dup2\n  eq\n  tag_66\n  jumpi\n    /* \"#utility.yul\":3599:3861   */\n  jump(tag_64)\n    /* \"#utility.yul\":3619:3678   */\ntag_65:\n    /* \"#utility.yul\":3649:3650   */\n  0x01\n    /* \"#utility.yul\":3640:3650   */\n  swap2\n  pop\n    /* \"#utility.yul\":3663:3668   */\n  pop\n  jump(tag_61)\n    /* \"#utility.yul\":3687:3861   */\ntag_66:\n    /* \"#utility.yul\":3724:3727   */\n  0xff\n    /* \"#utility.yul\":3714:3722   */\n  dup5\n    /* \"#utility.yul\":3711:3728   */\n  gt\n    /* \"#utility.yul\":3708:3751   */\n  iszero\n  tag_68\n  jumpi\n    /* \"#utility.yul\":3731:3749   */\n  tag_68\n  tag_21\n  jump\t// in\ntag_68:\n  pop\n  pop\n    /* \"#utility.yul\":3787:3788   */\n  0x01\n    /* \"#utility.yul\":3773:3789   */\n  dup3\n  shl\n    /* \"#utility.yul\":3846:3851   */\n  jump(tag_61)\n    /* \"#utility.yul\":3599:3861   */\ntag_64:\n  pop\n    /* \"#utility.yul\":3945:3947   */\n  0x20\n    /* \"#utility.yul\":3935:3943   */\n  dup4\n    /* \"#utility.yul\":3932:3948   */\n  lt\n    /* \"#utility.yul\":3926:3929   */\n  0x0133\n    /* \"#utility.yul\":3920:3924   */\n  dup4\n    /* \"#utility.yul\":3917:3930   */\n  lt\n    /* \"#utility.yul\":3913:3949   */\n  and\n    /* \"#utility.yul\":3907:3909   */\n  0x4e\n    /* \"#utility.yul\":3897:3905   */\n  dup5\n    /* \"#utility.yul\":3894:3910   */\n  lt\n    /* \"#utility.yul\":3889:3891   */\n  0x0b\n    /* \"#utility.yul\":3883:3887   */\n  dup5\n    /* \"#utility.yul\":3880:3892   */\n  lt\n    /* \"#utility.yul\":3876:3911   */\n  and\n    /* \"#utility.yul\":3873:3950   */\n  or\n    /* \"#utility.yul\":3870:4073   */\n  iszero\n  tag_69\n  jumpi\n  pop\n    /* \"#utility.yul\":3982:4001   */\n  dup2\n  dup2\n  exp\n    /* \"#utility.yul\":4058:4063   */\n  jump(tag_61)\n    /* \"#utility.yul\":3870:4073   */\ntag_69:\n    /* \"#utility.yul\":4105:4147   */\n  tag_70\n  not(0x00)\n    /* \"#utility.yul\":4130:4138   */\n  dup5\n    /* \"#utility.yul\":4124:4128   */\n  dup5\n    /* \"#utility.yul\":4105:4147   */\n  tag_22\n  jump\t// in\ntag_70:\n    /* \"#utility.yul\":4183:4189   */\n  dup1\n    /* \"#utility.yul\":4179:4180   */\n  0x00\n    /* \"#utility.yul\":4175:4181   */\n  not\n    /* \"#utility.yul\":4171:4190   */\n  div\n    /* \"#utility.yul\":4162:4169   */\n  dup3\n    /* \"#utility.yul\":4159:4191   */\n  gt\n    /* \"#utility.yul\":4156:4214   */\n  iszero\n  tag_72\n  jumpi\n    /* \"#utility.yul\":4194:4212   */\n  tag_72\n  tag_21\n  jump\t// in\ntag_72:\n    /* \"#utility.yul\":4232:4252   */\n  mul\n  swap1\n  pop\n    /* \"#utility.yul\":3356:4258   */\ntag_61:\n  swap3\n  swap2\n  pop\n  pop\n  jump\t// out\n    /* \"#utility.yul\":4263:4403   */\ntag_10:\n    /* \"#utility.yul\":4321:4326   */\n  0x00\n    /* \"#utility.yul\":4350:4397   */\n  tag_74\n    /* \"#utility.yul\":4391:4395   */\n  0xff\n    /* \"#utility.yul\":4381:4389   */\n  dup5\n    /* \"#utility.yul\":4377:4396   */\n  and\n    /* \"#utility.yul\":4371:4375   */\n  dup4\n    /* \"#utility.yul\":4350:4397   */\n  tag_23\n  jump\t// in\ntag_74:\n    /* \"#utility.yul\":4341:4397   */\n  swap4\n    /* \"#utility.yul\":4263:4403   */\n  swap3\n  pop\n  pop\n  pop\n  jump\t// out\n    /* \"#utility.yul\":4408:4576   */\ntag_12:\n    /* \"#utility.yul\":4481:4490   */\n  dup1\n  dup3\n  mul\n    /* \"#utility.yul\":4512:4521   */\n  dup2\n  iszero\n    /* \"#utility.yul\":4529:4544   */\n  dup3\n  dup3\n  div\n    /* \"#utility.yul\":4523:4545   */\n  dup5\n  eq\n    /* \"#utility.yul\":4509:4546   */\n  or\n    /* \"#utility.yul\":4499:4570   */\n  tag_61\n  jumpi\n    /* \"#utility.yul\":4550:4568   */\n  tag_61\n  tag_21\n  jump\t// in\n    /* \"#utility.yul\":4581:4758   */\ntag_24:\n    /* \"contracts/task01/test.sol\":59:2698  contract TokenWithMintBurn {... */\n  dataSize(sub_0)\n  dup1\n  dataOffset(sub_0)\n  0x00\n  codecopy\n  0x00\n  return\nstop\n\nsub_0: assembly {\n        /* \"contracts/task01/test.sol\":59:2698  contract TokenWithMintBurn {... */\n      mstore(0x40, 0x80)\n      callvalue\n      dup1\n      iszero\n      tag_1\n      jumpi\n      revert(0x00, 0x00)\n    tag_1:\n      pop\n      jumpi(tag_2, lt(calldatasize, 0x04))\n      shr(0xe0, calldataload(0x00))\n      dup1\n      0x42966c68\n      gt\n      tag_15\n      jumpi\n      dup1\n      0x42966c68\n      eq\n      tag_9\n      jumpi\n      dup1\n      0x70a08231\n      eq\n      tag_10\n      jumpi\n      dup1\n      0x8da5cb5b\n      eq\n      tag_11\n      jumpi\n      dup1\n      0x95d89b41\n      eq\n      tag_12\n      jumpi\n      dup1\n      0xa9059cbb\n      eq\n      tag_13\n      jumpi\n      dup1\n      0xdd62ed3e\n      eq\n      tag_14\n      jumpi\n      revert(0x00, 0x00)\n    tag_15:\n      dup1\n      0x06fdde03\n      eq\n      tag_3\n      jumpi\n      dup1\n      0x095ea7b3\n      eq\n      tag_4\n      jumpi\n      dup1\n      0x18160ddd\n      eq\n      tag_5\n      jumpi\n      dup1\n      0x23b872dd\n      eq\n      tag_6\n      jumpi\n      dup1\n      0x313ce567\n      eq\n      tag_7\n      jumpi\n      dup1\n      0x40c10f19\n      eq\n      tag_8\n      jumpi\n    tag_2:\n      revert(0x00, 0x00)\n        /* \"contracts/task01/test.sol\":92:123  string public name = \"My Token\" */\n    tag_3:\n      tag_16\n      tag_17\n      jump\t// in\n    tag_16:\n      mload(0x40)\n      tag_18\n      swap2\n      swap1\n      tag_19\n      jump\t// in\n    tag_18:\n      mload(0x40)\n      dup1\n      swap2\n      sub\n      swap1\n      return\n        /* \"contracts/task01/test.sol\":1263:1538  function approve(address spender, uint256 amount) public returns (bool) {... */\n    tag_4:\n      tag_20\n      tag_21\n      calldatasize\n      0x04\n      tag_22\n      jump\t// in\n    tag_21:\n      tag_23\n      jump\t// in\n    tag_20:\n      mload(0x40)\n        /* \"#utility.yul\":1085:1099   */\n      swap1\n      iszero\n        /* \"#utility.yul\":1078:1100   */\n      iszero\n        /* \"#utility.yul\":1060:1101   */\n      dup2\n      mstore\n        /* \"#utility.yul\":1048:1050   */\n      0x20\n        /* \"#utility.yul\":1033:1051   */\n      add\n        /* \"contracts/task01/test.sol\":1263:1538  function approve(address spender, uint256 amount) public returns (bool) {... */\n      tag_18\n        /* \"#utility.yul\":920:1107   */\n      jump\n        /* \"contracts/task01/test.sol\":195:221  uint256 public totalSupply */\n    tag_5:\n      tag_26\n      sload(0x03)\n      dup2\n      jump\n    tag_26:\n      mload(0x40)\n        /* \"#utility.yul\":1258:1283   */\n      swap1\n      dup2\n      mstore\n        /* \"#utility.yul\":1246:1248   */\n      0x20\n        /* \"#utility.yul\":1231:1249   */\n      add\n        /* \"contracts/task01/test.sol\":195:221  uint256 public totalSupply */\n      tag_18\n        /* \"#utility.yul\":1112:1289   */\n      jump\n        /* \"contracts/task01/test.sol\":1548:2112  function transferFrom(... */\n    tag_6:\n      tag_20\n      tag_31\n      calldatasize\n      0x04\n      tag_32\n      jump\t// in\n    tag_31:\n      tag_33\n      jump\t// in\n        /* \"contracts/task01/test.sol\":163:189  uint8 public decimals = 18 */\n    tag_7:\n      sload(0x02)\n      tag_35\n      swap1\n      0xff\n      and\n      dup2\n      jump\n    tag_35:\n      mload(0x40)\n        /* \"#utility.yul\":1845:1849   */\n      0xff\n        /* \"#utility.yul\":1833:1850   */\n      swap1\n      swap2\n      and\n        /* \"#utility.yul\":1815:1851   */\n      dup2\n      mstore\n        /* \"#utility.yul\":1803:1805   */\n      0x20\n        /* \"#utility.yul\":1788:1806   */\n      add\n        /* \"contracts/task01/test.sol\":163:189  uint8 public decimals = 18 */\n      tag_18\n        /* \"#utility.yul\":1673:1857   */\n      jump\n        /* \"contracts/task01/test.sol\":2142:2403  function mint(address to, uint256 amount) public onlyOwner {... */\n    tag_8:\n      tag_39\n      tag_40\n      calldatasize\n      0x04\n      tag_22\n      jump\t// in\n    tag_40:\n      tag_41\n      jump\t// in\n    tag_39:\n      stop\n        /* \"contracts/task01/test.sol\":2433:2696  function burn(uint256 amount) public {... */\n    tag_9:\n      tag_39\n      tag_43\n      calldatasize\n      0x04\n      tag_44\n      jump\t// in\n    tag_43:\n      tag_45\n      jump\t// in\n        /* \"contracts/task01/test.sol\":232:276  mapping(address => uint256) public balanceOf */\n    tag_10:\n      tag_26\n      tag_47\n      calldatasize\n      0x04\n      tag_48\n      jump\t// in\n    tag_47:\n      mstore(0x20, 0x04)\n      0x00\n      swap1\n      dup2\n      mstore\n      0x40\n      swap1\n      keccak256\n      sload\n      dup2\n      jump\n        /* \"contracts/task01/test.sol\":357:377  address public owner */\n    tag_11:\n      sload(0x06)\n      tag_51\n      swap1\n      sub(shl(0xa0, 0x01), 0x01)\n      and\n      dup2\n      jump\n    tag_51:\n      mload(0x40)\n      sub(shl(0xa0, 0x01), 0x01)\n        /* \"#utility.yul\":2448:2480   */\n      swap1\n      swap2\n      and\n        /* \"#utility.yul\":2430:2481   */\n      dup2\n      mstore\n        /* \"#utility.yul\":2418:2420   */\n      0x20\n        /* \"#utility.yul\":2403:2421   */\n      add\n        /* \"contracts/task01/test.sol\":357:377  address public owner */\n      tag_18\n        /* \"#utility.yul\":2284:2487   */\n      jump\n        /* \"contracts/task01/test.sol\":129:157  string public symbol = \"MTK\" */\n    tag_12:\n      tag_16\n      tag_56\n      jump\t// in\n        /* \"contracts/task01/test.sol\":893:1253  function transfer(address to, uint256 amount) public returns (bool) {... */\n    tag_13:\n      tag_20\n      tag_59\n      calldatasize\n      0x04\n      tag_22\n      jump\t// in\n    tag_59:\n      tag_60\n      jump\t// in\n        /* \"contracts/task01/test.sol\":282:346  mapping(address => mapping(address => uint256)) public allowance */\n    tag_14:\n      tag_26\n      tag_63\n      calldatasize\n      0x04\n      tag_64\n      jump\t// in\n    tag_63:\n      0x05\n      0x20\n      swap1\n      dup2\n      mstore\n      0x00\n      swap3\n      dup4\n      mstore\n      0x40\n      dup1\n      dup5\n      keccak256\n      swap1\n      swap2\n      mstore\n      swap1\n      dup3\n      mstore\n      swap1\n      keccak256\n      sload\n      dup2\n      jump\n        /* \"contracts/task01/test.sol\":92:123  string public name = \"My Token\" */\n    tag_17:\n      0x00\n      dup1\n      sload\n      tag_67\n      swap1\n      tag_68\n      jump\t// in\n    tag_67:\n      dup1\n      0x1f\n      add\n      0x20\n      dup1\n      swap2\n      div\n      mul\n      0x20\n      add\n      mload(0x40)\n      swap1\n      dup2\n      add\n      0x40\n      mstore\n      dup1\n      swap3\n      swap2\n      swap1\n      dup2\n      dup2\n      mstore\n      0x20\n      add\n      dup3\n      dup1\n      sload\n      tag_69\n      swap1\n      tag_68\n      jump\t// in\n    tag_69:\n      dup1\n      iszero\n      tag_70\n      jumpi\n      dup1\n      0x1f\n      lt\n      tag_71\n      jumpi\n      0x0100\n      dup1\n      dup4\n      sload\n      div\n      mul\n      dup4\n      mstore\n      swap2\n      0x20\n      add\n      swap2\n      jump(tag_70)\n    tag_71:\n      dup3\n      add\n      swap2\n      swap1\n      0x00\n      mstore\n      keccak256(0x00, 0x20)\n      swap1\n    tag_72:\n      dup2\n      sload\n      dup2\n      mstore\n      swap1\n      0x01\n      add\n      swap1\n      0x20\n      add\n      dup1\n      dup4\n      gt\n      tag_72\n      jumpi\n      dup3\n      swap1\n      sub\n      0x1f\n      and\n      dup3\n      add\n      swap2\n    tag_70:\n      pop\n      pop\n      pop\n      pop\n      pop\n      dup2\n      jump\t// out\n        /* \"contracts/task01/test.sol\":1263:1538  function approve(address spender, uint256 amount) public returns (bool) {... */\n    tag_23:\n        /* \"contracts/task01/test.sol\":1329:1333  bool */\n      0x00\n      sub(shl(0xa0, 0x01), 0x01)\n        /* \"contracts/task01/test.sol\":1353:1374  spender != address(0) */\n      dup4\n      and\n        /* \"contracts/task01/test.sol\":1345:1391  require(spender != address(0), \"Zero address\") */\n      tag_74\n      jumpi\n      mload(0x40)\n      shl(0xe5, 0x461bcd)\n      dup2\n      mstore\n        /* \"#utility.yul\":3344:3346   */\n      0x20\n        /* \"contracts/task01/test.sol\":1345:1391  require(spender != address(0), \"Zero address\") */\n      0x04\n      dup3\n      add\n        /* \"#utility.yul\":3326:3347   */\n      mstore\n        /* \"#utility.yul\":3383:3385   */\n      0x0c\n        /* \"#utility.yul\":3363:3381   */\n      0x24\n      dup3\n      add\n        /* \"#utility.yul\":3356:3386   */\n      mstore\n      shl(0xa0, 0x5a65726f2061646472657373)\n        /* \"#utility.yul\":3402:3420   */\n      0x44\n      dup3\n      add\n        /* \"#utility.yul\":3395:3437   */\n      mstore\n        /* \"#utility.yul\":3454:3472   */\n      0x64\n      add\n        /* \"contracts/task01/test.sol\":1345:1391  require(spender != address(0), \"Zero address\") */\n    tag_75:\n      mload(0x40)\n      dup1\n      swap2\n      sub\n      swap1\n      revert\n    tag_74:\n        /* \"contracts/task01/test.sol\":1420:1430  msg.sender */\n      caller\n        /* \"contracts/task01/test.sol\":1410:1431  allowance[msg.sender] */\n      0x00\n      dup2\n      dup2\n      mstore\n        /* \"contracts/task01/test.sol\":1410:1419  allowance */\n      0x05\n        /* \"contracts/task01/test.sol\":1410:1431  allowance[msg.sender] */\n      0x20\n      swap1\n      dup2\n      mstore\n      0x40\n      dup1\n      dup4\n      keccak256\n      sub(shl(0xa0, 0x01), 0x01)\n        /* \"contracts/task01/test.sol\":1410:1440  allowance[msg.sender][spender] */\n      dup9\n      and\n      dup1\n      dup6\n      mstore\n      swap1\n      dup4\n      mstore\n      swap3\n      dup2\n      swap1\n      keccak256\n        /* \"contracts/task01/test.sol\":1410:1449  allowance[msg.sender][spender] = amount */\n      dup7\n      swap1\n      sstore\n        /* \"contracts/task01/test.sol\":1473:1510  Approval(msg.sender, spender, amount) */\n      mload\n        /* \"#utility.yul\":1258:1283   */\n      dup6\n      dup2\n      mstore\n        /* \"contracts/task01/test.sol\":1410:1440  allowance[msg.sender][spender] */\n      swap2\n      swap3\n        /* \"contracts/task01/test.sol\":1420:1430  msg.sender */\n      swap2\n        /* \"contracts/task01/test.sol\":1473:1510  Approval(msg.sender, spender, amount) */\n      0x8c5be1e5ebec7d5bd14f71427d1e84f3dd0314c0f7b2291e5b200ac8c7c3b925\n      swap2\n        /* \"#utility.yul\":1231:1249   */\n      add\n        /* \"contracts/task01/test.sol\":1473:1510  Approval(msg.sender, spender, amount) */\n    tag_77:\n      mload(0x40)\n      dup1\n      swap2\n      sub\n      swap1\n      log3\n      pop\n        /* \"contracts/task01/test.sol\":1527:1531  true */\n      0x01\n        /* \"contracts/task01/test.sol\":1263:1538  function approve(address spender, uint256 amount) public returns (bool) {... */\n    tag_73:\n      swap3\n      swap2\n      pop\n      pop\n      jump\t// out\n        /* \"contracts/task01/test.sol\":1548:2112  function transferFrom(... */\n    tag_33:\n        /* \"contracts/task01/test.sol\":1658:1662  bool */\n      0x00\n      sub(shl(0xa0, 0x01), 0x01)\n        /* \"contracts/task01/test.sol\":1682:1700  from != address(0) */\n      dup5\n      and\n        /* \"contracts/task01/test.sol\":1674:1714  require(from != address(0), \"From zero\") */\n      tag_79\n      jumpi\n      mload(0x40)\n      shl(0xe5, 0x461bcd)\n      dup2\n      mstore\n        /* \"#utility.yul\":3685:3687   */\n      0x20\n        /* \"contracts/task01/test.sol\":1674:1714  require(from != address(0), \"From zero\") */\n      0x04\n      dup3\n      add\n        /* \"#utility.yul\":3667:3688   */\n      mstore\n        /* \"#utility.yul\":3724:3725   */\n      0x09\n        /* \"#utility.yul\":3704:3722   */\n      0x24\n      dup3\n      add\n        /* \"#utility.yul\":3697:3726   */\n      mstore\n      shl(0xb8, 0x46726f6d207a65726f)\n        /* \"#utility.yul\":3742:3760   */\n      0x44\n      dup3\n      add\n        /* \"#utility.yul\":3735:3774   */\n      mstore\n        /* \"#utility.yul\":3791:3809   */\n      0x64\n      add\n        /* \"contracts/task01/test.sol\":1674:1714  require(from != address(0), \"From zero\") */\n      tag_75\n        /* \"#utility.yul\":3483:3815   */\n      jump\n        /* \"contracts/task01/test.sol\":1674:1714  require(from != address(0), \"From zero\") */\n    tag_79:\n      sub(shl(0xa0, 0x01), 0x01)\n        /* \"contracts/task01/test.sol\":1732:1748  to != address(0) */\n      dup4\n      and\n        /* \"contracts/task01/test.sol\":1724:1760  require(to != address(0), \"To zero\") */\n      tag_82\n      jumpi\n      mload(0x40)\n      shl(0xe5, 0x461bcd)\n      dup2\n      mstore\n        /* \"#utility.yul\":4022:4024   */\n      0x20\n        /* \"contracts/task01/test.sol\":1724:1760  require(to != address(0), \"To zero\") */\n      0x04\n      dup3\n      add\n        /* \"#utility.yul\":4004:4025   */\n      mstore\n        /* \"#utility.yul\":4061:4062   */\n      0x07\n        /* \"#utility.yul\":4041:4059   */\n      0x24\n      dup3\n      add\n        /* \"#utility.yul\":4034:4063   */\n      mstore\n      shl(0xc8, 0x546f207a65726f)\n        /* \"#utility.yul\":4079:4097   */\n      0x44\n      dup3\n      add\n        /* \"#utility.yul\":4072:4109   */\n      mstore\n        /* \"#utility.yul\":4126:4144   */\n      0x64\n      add\n        /* \"contracts/task01/test.sol\":1724:1760  require(to != address(0), \"To zero\") */\n      tag_75\n        /* \"#utility.yul\":3820:4150   */\n      jump\n        /* \"contracts/task01/test.sol\":1724:1760  require(to != address(0), \"To zero\") */\n    tag_82:\n      sub(shl(0xa0, 0x01), 0x01)\n        /* \"contracts/task01/test.sol\":1778:1793  balanceOf[from] */\n      dup5\n      and\n      0x00\n      swap1\n      dup2\n      mstore\n        /* \"contracts/task01/test.sol\":1778:1787  balanceOf */\n      0x04\n        /* \"contracts/task01/test.sol\":1778:1793  balanceOf[from] */\n      0x20\n      mstore\n      0x40\n      swap1\n      keccak256\n      sload\n        /* \"contracts/task01/test.sol\":1778:1803  balanceOf[from] >= amount */\n      dup3\n      gt\n      iszero\n        /* \"contracts/task01/test.sol\":1770:1828  require(balanceOf[from] >= amount, \"Insufficient balance\") */\n      tag_85\n      jumpi\n      mload(0x40)\n      shl(0xe5, 0x461bcd)\n      dup2\n      mstore\n      0x04\n      add\n      tag_75\n      swap1\n      tag_87\n      jump\t// in\n    tag_85:\n      sub(shl(0xa0, 0x01), 0x01)\n        /* \"contracts/task01/test.sol\":1846:1861  allowance[from] */\n      dup5\n      and\n      0x00\n      swap1\n      dup2\n      mstore\n        /* \"contracts/task01/test.sol\":1846:1855  allowance */\n      0x05\n        /* \"contracts/task01/test.sol\":1846:1861  allowance[from] */\n      0x20\n      swap1\n      dup2\n      mstore\n      0x40\n      dup1\n      dup4\n      keccak256\n        /* \"contracts/task01/test.sol\":1862:1872  msg.sender */\n      caller\n        /* \"contracts/task01/test.sol\":1846:1873  allowance[from][msg.sender] */\n      dup5\n      mstore\n      swap1\n      swap2\n      mstore\n      swap1\n      keccak256\n      sload\n        /* \"contracts/task01/test.sol\":1846:1883  allowance[from][msg.sender] >= amount */\n      dup3\n      gt\n      iszero\n        /* \"contracts/task01/test.sol\":1838:1910  require(allowance[from][msg.sender] >= amount, \"Insufficient allowance\") */\n      tag_88\n      jumpi\n      mload(0x40)\n      shl(0xe5, 0x461bcd)\n      dup2\n      mstore\n        /* \"#utility.yul\":4706:4708   */\n      0x20\n        /* \"contracts/task01/test.sol\":1838:1910  require(allowance[from][msg.sender] >= amount, \"Insufficient allowance\") */\n      0x04\n      dup3\n      add\n        /* \"#utility.yul\":4688:4709   */\n      mstore\n        /* \"#utility.yul\":4745:4747   */\n      0x16\n        /* \"#utility.yul\":4725:4743   */\n      0x24\n      dup3\n      add\n        /* \"#utility.yul\":4718:4748   */\n      mstore\n      shl(0x50, 0x496e73756666696369656e7420616c6c6f77616e6365)\n        /* \"#utility.yul\":4764:4782   */\n      0x44\n      dup3\n      add\n        /* \"#utility.yul\":4757:4809   */\n      mstore\n        /* \"#utility.yul\":4826:4844   */\n      0x64\n      add\n        /* \"contracts/task01/test.sol\":1838:1910  require(allowance[from][msg.sender] >= amount, \"Insufficient allowance\") */\n      tag_75\n        /* \"#utility.yul\":4504:4850   */\n      jump\n        /* \"contracts/task01/test.sol\":1838:1910  require(allowance[from][msg.sender] >= amount, \"Insufficient allowance\") */\n    tag_88:\n      sub(shl(0xa0, 0x01), 0x01)\n        /* \"contracts/task01/test.sol\":1929:1944  balanceOf[from] */\n      dup5\n      and\n      0x00\n      swap1\n      dup2\n      mstore\n        /* \"contracts/task01/test.sol\":1929:1938  balanceOf */\n      0x04\n        /* \"contracts/task01/test.sol\":1929:1944  balanceOf[from] */\n      0x20\n      mstore\n      0x40\n      dup2\n      keccak256\n        /* \"contracts/task01/test.sol\":1929:1954  balanceOf[from] -= amount */\n      dup1\n      sload\n        /* \"contracts/task01/test.sol\":1948:1954  amount */\n      dup5\n      swap3\n        /* \"contracts/task01/test.sol\":1929:1944  balanceOf[from] */\n      swap1\n        /* \"contracts/task01/test.sol\":1929:1954  balanceOf[from] -= amount */\n      tag_91\n      swap1\n        /* \"contracts/task01/test.sol\":1948:1954  amount */\n      dup5\n      swap1\n        /* \"contracts/task01/test.sol\":1929:1954  balanceOf[from] -= amount */\n      tag_92\n      jump\t// in\n    tag_91:\n      swap1\n      swap2\n      sstore\n      pop\n      pop\n      sub(shl(0xa0, 0x01), 0x01)\n        /* \"contracts/task01/test.sol\":1964:1977  balanceOf[to] */\n      dup4\n      and\n      0x00\n      swap1\n      dup2\n      mstore\n        /* \"contracts/task01/test.sol\":1964:1973  balanceOf */\n      0x04\n        /* \"contracts/task01/test.sol\":1964:1977  balanceOf[to] */\n      0x20\n      mstore\n      0x40\n      dup2\n      keccak256\n        /* \"contracts/task01/test.sol\":1964:1987  balanceOf[to] += amount */\n      dup1\n      sload\n        /* \"contracts/task01/test.sol\":1981:1987  amount */\n      dup5\n      swap3\n        /* \"contracts/task01/test.sol\":1964:1977  balanceOf[to] */\n      swap1\n        /* \"contracts/task01/test.sol\":1964:1987  balanceOf[to] += amount */\n      tag_93\n      swap1\n        /* \"contracts/task01/test.sol\":1981:1987  amount */\n      dup5\n      swap1\n        /* \"contracts/task01/test.sol\":1964:1987  balanceOf[to] += amount */\n      tag_94\n      jump\t// in\n    tag_93:\n      swap1\n      swap2\n      sstore\n      pop\n      pop\n      sub(shl(0xa0, 0x01), 0x01)\n        /* \"contracts/task01/test.sol\":1997:2012  allowance[from] */\n      dup5\n      and\n      0x00\n      swap1\n      dup2\n      mstore\n        /* \"contracts/task01/test.sol\":1997:2006  allowance */\n      0x05\n        /* \"contracts/task01/test.sol\":1997:2012  allowance[from] */\n      0x20\n      swap1\n      dup2\n      mstore\n      0x40\n      dup1\n      dup4\n      keccak256\n        /* \"contracts/task01/test.sol\":2013:2023  msg.sender */\n      caller\n        /* \"contracts/task01/test.sol\":1997:2024  allowance[from][msg.sender] */\n      dup5\n      mstore\n      swap1\n      swap2\n      mstore\n      dup2\n      keccak256\n        /* \"contracts/task01/test.sol\":1997:2034  allowance[from][msg.sender] -= amount */\n      dup1\n      sload\n        /* \"contracts/task01/test.sol\":2028:2034  amount */\n      dup5\n      swap3\n        /* \"contracts/task01/test.sol\":1997:2012  allowance[from] */\n      swap1\n        /* \"contracts/task01/test.sol\":1997:2034  allowance[from][msg.sender] -= amount */\n      tag_95\n      swap1\n        /* \"contracts/task01/test.sol\":2028:2034  amount */\n      dup5\n      swap1\n        /* \"contracts/task01/test.sol\":1997:2034  allowance[from][msg.sender] -= amount */\n      tag_92\n      jump\t// in\n    tag_95:\n      swap3\n      pop\n      pop\n      dup2\n      swap1\n      sstore\n      pop\n        /* \"contracts/task01/test.sol\":2073:2075  to */\n      dup3\n      sub(shl(0xa0, 0x01), 0x01)\n        /* \"contracts/task01/test.sol\":2058:2084  Transfer(from, to, amount) */\n      and\n        /* \"contracts/task01/test.sol\":2067:2071  from */\n      dup5\n      sub(shl(0xa0, 0x01), 0x01)\n        /* \"contracts/task01/test.sol\":2058:2084  Transfer(from, to, amount) */\n      and\n      mload(0x00)\n      codecopy(0x00, data_ada389e1fc24a8587c776340efb91b36e675792ab631816100d55df0b5cf3cbc, 0x20)\n      mload(0x00)\n      swap1\n      0x00\n      mstore\n        /* \"contracts/task01/test.sol\":2077:2083  amount */\n      dup5\n        /* \"contracts/task01/test.sol\":2058:2084  Transfer(from, to, amount) */\n      mload(0x40)\n      tag_96\n      swap2\n        /* \"#utility.yul\":1258:1283   */\n      dup2\n      mstore\n        /* \"#utility.yul\":1246:1248   */\n      0x20\n        /* \"#utility.yul\":1231:1249   */\n      add\n      swap1\n        /* \"#utility.yul\":1112:1289   */\n      jump\n        /* \"contracts/task01/test.sol\":2058:2084  Transfer(from, to, amount) */\n    tag_96:\n      mload(0x40)\n      dup1\n      swap2\n      sub\n      swap1\n      log3\n      pop\n        /* \"contracts/task01/test.sol\":2101:2105  true */\n      0x01\n        /* \"contracts/task01/test.sol\":1548:2112  function transferFrom(... */\n      swap4\n      swap3\n      pop\n      pop\n      pop\n      jump\t// out\n        /* \"contracts/task01/test.sol\":2142:2403  function mint(address to, uint256 amount) public onlyOwner {... */\n    tag_41:\n        /* \"contracts/task01/test.sol\":845:850  owner */\n      and(sub(shl(0xa0, 0x01), 0x01), sload(0x06))\n        /* \"contracts/task01/test.sol\":831:841  msg.sender */\n      caller\n        /* \"contracts/task01/test.sol\":831:850  msg.sender == owner */\n      eq\n        /* \"contracts/task01/test.sol\":823:865  require(msg.sender == owner, \"Only owner\") */\n      tag_98\n      jumpi\n      mload(0x40)\n      shl(0xe5, 0x461bcd)\n      dup2\n      mstore\n        /* \"#utility.yul\":5452:5454   */\n      0x20\n        /* \"contracts/task01/test.sol\":823:865  require(msg.sender == owner, \"Only owner\") */\n      0x04\n      dup3\n      add\n        /* \"#utility.yul\":5434:5455   */\n      mstore\n        /* \"#utility.yul\":5491:5493   */\n      0x0a\n        /* \"#utility.yul\":5471:5489   */\n      0x24\n      dup3\n      add\n        /* \"#utility.yul\":5464:5494   */\n      mstore\n      shl(0xb1, 0x27b7363c9037bbb732b9)\n        /* \"#utility.yul\":5510:5528   */\n      0x44\n      dup3\n      add\n        /* \"#utility.yul\":5503:5543   */\n      mstore\n        /* \"#utility.yul\":5560:5578   */\n      0x64\n      add\n        /* \"contracts/task01/test.sol\":823:865  require(msg.sender == owner, \"Only owner\") */\n      tag_75\n        /* \"#utility.yul\":5250:5584   */\n      jump\n        /* \"contracts/task01/test.sol\":823:865  require(msg.sender == owner, \"Only owner\") */\n    tag_98:\n      sub(shl(0xa0, 0x01), 0x01)\n        /* \"contracts/task01/test.sol\":2219:2235  to != address(0) */\n      dup3\n      and\n        /* \"contracts/task01/test.sol\":2211:2267  require(to != address(0), \"Cannot mint to zero address\") */\n      tag_102\n      jumpi\n      mload(0x40)\n      shl(0xe5, 0x461bcd)\n      dup2\n      mstore\n        /* \"#utility.yul\":5791:5793   */\n      0x20\n        /* \"contracts/task01/test.sol\":2211:2267  require(to != address(0), \"Cannot mint to zero address\") */\n      0x04\n      dup3\n      add\n        /* \"#utility.yul\":5773:5794   */\n      mstore\n        /* \"#utility.yul\":5830:5832   */\n      0x1b\n        /* \"#utility.yul\":5810:5828   */\n      0x24\n      dup3\n      add\n        /* \"#utility.yul\":5803:5833   */\n      mstore\n        /* \"#utility.yul\":5869:5898   */\n      0x43616e6e6f74206d696e7420746f207a65726f20616464726573730000000000\n        /* \"#utility.yul\":5849:5867   */\n      0x44\n      dup3\n      add\n        /* \"#utility.yul\":5842:5899   */\n      mstore\n        /* \"#utility.yul\":5916:5934   */\n      0x64\n      add\n        /* \"contracts/task01/test.sol\":2211:2267  require(to != address(0), \"Cannot mint to zero address\") */\n      tag_75\n        /* \"#utility.yul\":5589:5940   */\n      jump\n        /* \"contracts/task01/test.sol\":2211:2267  require(to != address(0), \"Cannot mint to zero address\") */\n    tag_102:\n        /* \"contracts/task01/test.sol\":2301:2307  amount */\n      dup1\n        /* \"contracts/task01/test.sol\":2286:2297  totalSupply */\n      0x03\n      0x00\n        /* \"contracts/task01/test.sol\":2286:2307  totalSupply += amount */\n      dup3\n      dup3\n      sload\n      tag_105\n      swap2\n      swap1\n      tag_94\n      jump\t// in\n    tag_105:\n      swap1\n      swap2\n      sstore\n      pop\n      pop\n      sub(shl(0xa0, 0x01), 0x01)\n        /* \"contracts/task01/test.sol\":2317:2330  balanceOf[to] */\n      dup3\n      and\n      0x00\n      swap1\n      dup2\n      mstore\n        /* \"contracts/task01/test.sol\":2317:2326  balanceOf */\n      0x04\n        /* \"contracts/task01/test.sol\":2317:2330  balanceOf[to] */\n      0x20\n      mstore\n      0x40\n      dup2\n      keccak256\n        /* \"contracts/task01/test.sol\":2317:2340  balanceOf[to] += amount */\n      dup1\n      sload\n        /* \"contracts/task01/test.sol\":2334:2340  amount */\n      dup4\n      swap3\n        /* \"contracts/task01/test.sol\":2317:2330  balanceOf[to] */\n      swap1\n        /* \"contracts/task01/test.sol\":2317:2340  balanceOf[to] += amount */\n      tag_106\n      swap1\n        /* \"contracts/task01/test.sol\":2334:2340  amount */\n      dup5\n      swap1\n        /* \"contracts/task01/test.sol\":2317:2340  balanceOf[to] += amount */\n      tag_94\n      jump\t// in\n    tag_106:\n      swap1\n      swap2\n      sstore\n      pop\n      pop\n        /* \"contracts/task01/test.sol\":2364:2396  Transfer(address(0), to, amount) */\n      mload(0x40)\n        /* \"#utility.yul\":1258:1283   */\n      dup2\n      dup2\n      mstore\n      sub(shl(0xa0, 0x01), 0x01)\n        /* \"contracts/task01/test.sol\":2364:2396  Transfer(address(0), to, amount) */\n      dup4\n      and\n      swap1\n        /* \"contracts/task01/test.sol\":2381:2382  0 */\n      0x00\n      swap1\n      mload(0x00)\n      codecopy(0x00, data_ada389e1fc24a8587c776340efb91b36e675792ab631816100d55df0b5cf3cbc, 0x20)\n      mload(0x00)\n      swap1\n      0x00\n      mstore\n        /* \"contracts/task01/test.sol\":2364:2396  Transfer(address(0), to, amount) */\n      swap1\n        /* \"#utility.yul\":1246:1248   */\n      0x20\n        /* \"#utility.yul\":1231:1249   */\n      add\n        /* \"contracts/task01/test.sol\":2364:2396  Transfer(address(0), to, amount) */\n      mload(0x40)\n      dup1\n      swap2\n      sub\n      swap1\n      log3\n        /* \"contracts/task01/test.sol\":2142:2403  function mint(address to, uint256 amount) public onlyOwner {... */\n      pop\n      pop\n      jump\t// out\n        /* \"contracts/task01/test.sol\":2433:2696  function burn(uint256 amount) public {... */\n    tag_45:\n        /* \"contracts/task01/test.sol\":2498:2508  msg.sender */\n      caller\n        /* \"contracts/task01/test.sol\":2488:2509  balanceOf[msg.sender] */\n      0x00\n      swap1\n      dup2\n      mstore\n        /* \"contracts/task01/test.sol\":2488:2497  balanceOf */\n      0x04\n        /* \"contracts/task01/test.sol\":2488:2509  balanceOf[msg.sender] */\n      0x20\n      mstore\n      0x40\n      swap1\n      keccak256\n      sload\n        /* \"contracts/task01/test.sol\":2488:2519  balanceOf[msg.sender] >= amount */\n      dup2\n      gt\n      iszero\n        /* \"contracts/task01/test.sol\":2480:2544  require(balanceOf[msg.sender] >= amount, \"Insufficient balance\") */\n      tag_109\n      jumpi\n      mload(0x40)\n      shl(0xe5, 0x461bcd)\n      dup2\n      mstore\n      0x04\n      add\n      tag_75\n      swap1\n      tag_87\n      jump\t// in\n    tag_109:\n        /* \"contracts/task01/test.sol\":2578:2584  amount */\n      dup1\n        /* \"contracts/task01/test.sol\":2563:2574  totalSupply */\n      0x03\n      0x00\n        /* \"contracts/task01/test.sol\":2563:2584  totalSupply -= amount */\n      dup3\n      dup3\n      sload\n      tag_111\n      swap2\n      swap1\n      tag_92\n      jump\t// in\n    tag_111:\n      swap1\n      swap2\n      sstore\n      pop\n      pop\n        /* \"contracts/task01/test.sol\":2604:2614  msg.sender */\n      caller\n        /* \"contracts/task01/test.sol\":2594:2615  balanceOf[msg.sender] */\n      0x00\n      swap1\n      dup2\n      mstore\n        /* \"contracts/task01/test.sol\":2594:2603  balanceOf */\n      0x04\n        /* \"contracts/task01/test.sol\":2594:2615  balanceOf[msg.sender] */\n      0x20\n      mstore\n      0x40\n      dup2\n      keccak256\n        /* \"contracts/task01/test.sol\":2594:2625  balanceOf[msg.sender] -= amount */\n      dup1\n      sload\n        /* \"contracts/task01/test.sol\":2619:2625  amount */\n      dup4\n      swap3\n        /* \"contracts/task01/test.sol\":2594:2615  balanceOf[msg.sender] */\n      swap1\n        /* \"contracts/task01/test.sol\":2594:2625  balanceOf[msg.sender] -= amount */\n      tag_112\n      swap1\n        /* \"contracts/task01/test.sol\":2619:2625  amount */\n      dup5\n      swap1\n        /* \"contracts/task01/test.sol\":2594:2625  balanceOf[msg.sender] -= amount */\n      tag_92\n      jump\t// in\n    tag_112:\n      swap1\n      swap2\n      sstore\n      pop\n      pop\n        /* \"contracts/task01/test.sol\":2649:2689  Transfer(msg.sender, address(0), amount) */\n      mload(0x40)\n        /* \"#utility.yul\":1258:1283   */\n      dup2\n      dup2\n      mstore\n        /* \"contracts/task01/test.sol\":2678:2679  0 */\n      0x00\n      swap1\n        /* \"contracts/task01/test.sol\":2658:2668  msg.sender */\n      caller\n      swap1\n      mload(0x00)\n      codecopy(0x00, data_ada389e1fc24a8587c776340efb91b36e675792ab631816100d55df0b5cf3cbc, 0x20)\n      mload(0x00)\n      swap1\n      0x00\n      mstore\n        /* \"contracts/task01/test.sol\":2649:2689  Transfer(msg.sender, address(0), amount) */\n      swap1\n        /* \"#utility.yul\":1246:1248   */\n      0x20\n        /* \"#utility.yul\":1231:1249   */\n      add\n        /* \"contracts/task01/test.sol\":2649:2689  Transfer(msg.sender, address(0), amount) */\n      mload(0x40)\n      dup1\n      swap2\n      sub\n      swap1\n      log3\n        /* \"contracts/task01/test.sol\":2433:2696  function burn(uint256 amount) public {... */\n      pop\n      jump\t// out\n        /* \"contracts/task01/test.sol\":129:157  string public symbol = \"MTK\" */\n    tag_56:\n      0x01\n      dup1\n      sload\n      tag_67\n      swap1\n      tag_68\n      jump\t// in\n        /* \"contracts/task01/test.sol\":893:1253  function transfer(address to, uint256 amount) public returns (bool) {... */\n    tag_60:\n        /* \"contracts/task01/test.sol\":955:959  bool */\n      0x00\n      sub(shl(0xa0, 0x01), 0x01)\n        /* \"contracts/task01/test.sol\":979:995  to != address(0) */\n      dup4\n      and\n        /* \"contracts/task01/test.sol\":971:1012  require(to != address(0), \"Zero address\") */\n      tag_120\n      jumpi\n      mload(0x40)\n      shl(0xe5, 0x461bcd)\n      dup2\n      mstore\n        /* \"#utility.yul\":3344:3346   */\n      0x20\n        /* \"contracts/task01/test.sol\":971:1012  require(to != address(0), \"Zero address\") */\n      0x04\n      dup3\n      add\n        /* \"#utility.yul\":3326:3347   */\n      mstore\n        /* \"#utility.yul\":3383:3385   */\n      0x0c\n        /* \"#utility.yul\":3363:3381   */\n      0x24\n      dup3\n      add\n        /* \"#utility.yul\":3356:3386   */\n      mstore\n      shl(0xa0, 0x5a65726f2061646472657373)\n        /* \"#utility.yul\":3402:3420   */\n      0x44\n      dup3\n      add\n        /* \"#utility.yul\":3395:3437   */\n      mstore\n        /* \"#utility.yul\":3454:3472   */\n      0x64\n      add\n        /* \"contracts/task01/test.sol\":971:1012  require(to != address(0), \"Zero address\") */\n      tag_75\n        /* \"#utility.yul\":3142:3478   */\n      jump\n        /* \"contracts/task01/test.sol\":971:1012  require(to != address(0), \"Zero address\") */\n    tag_120:\n        /* \"contracts/task01/test.sol\":1040:1050  msg.sender */\n      caller\n        /* \"contracts/task01/test.sol\":1030:1051  balanceOf[msg.sender] */\n      0x00\n      swap1\n      dup2\n      mstore\n        /* \"contracts/task01/test.sol\":1030:1039  balanceOf */\n      0x04\n        /* \"contracts/task01/test.sol\":1030:1051  balanceOf[msg.sender] */\n      0x20\n      mstore\n      0x40\n      swap1\n      keccak256\n      sload\n        /* \"contracts/task01/test.sol\":1030:1061  balanceOf[msg.sender] >= amount */\n      dup3\n      gt\n      iszero\n        /* \"contracts/task01/test.sol\":1022:1086  require(balanceOf[msg.sender] >= amount, \"Insufficient balance\") */\n      tag_122\n      jumpi\n      mload(0x40)\n      shl(0xe5, 0x461bcd)\n      dup2\n      mstore\n      0x04\n      add\n      tag_75\n      swap1\n      tag_87\n      jump\t// in\n    tag_122:\n        /* \"contracts/task01/test.sol\":1115:1125  msg.sender */\n      caller\n        /* \"contracts/task01/test.sol\":1105:1126  balanceOf[msg.sender] */\n      0x00\n      swap1\n      dup2\n      mstore\n        /* \"contracts/task01/test.sol\":1105:1114  balanceOf */\n      0x04\n        /* \"contracts/task01/test.sol\":1105:1126  balanceOf[msg.sender] */\n      0x20\n      mstore\n      0x40\n      dup2\n      keccak256\n        /* \"contracts/task01/test.sol\":1105:1136  balanceOf[msg.sender] -= amount */\n      dup1\n      sload\n        /* \"contracts/task01/test.sol\":1130:1136  amount */\n      dup5\n      swap3\n        /* \"contracts/task01/test.sol\":1105:1126  balanceOf[msg.sender] */\n      swap1\n        /* \"contracts/task01/test.sol\":1105:1136  balanceOf[msg.sender] -= amount */\n      tag_124\n      swap1\n        /* \"contracts/task01/test.sol\":1130:1136  amount */\n      dup5\n      swap1\n        /* \"contracts/task01/test.sol\":1105:1136  balanceOf[msg.sender] -= amount */\n      tag_92\n      jump\t// in\n    tag_124:\n      swap1\n      swap2\n      sstore\n      pop\n      pop\n      sub(shl(0xa0, 0x01), 0x01)\n        /* \"contracts/task01/test.sol\":1146:1159  balanceOf[to] */\n      dup4\n      and\n      0x00\n      swap1\n      dup2\n      mstore\n        /* \"contracts/task01/test.sol\":1146:1155  balanceOf */\n      0x04\n        /* \"contracts/task01/test.sol\":1146:1159  balanceOf[to] */\n      0x20\n      mstore\n      0x40\n      dup2\n      keccak256\n        /* \"contracts/task01/test.sol\":1146:1169  balanceOf[to] += amount */\n      dup1\n      sload\n        /* \"contracts/task01/test.sol\":1163:1169  amount */\n      dup5\n      swap3\n        /* \"contracts/task01/test.sol\":1146:1159  balanceOf[to] */\n      swap1\n        /* \"contracts/task01/test.sol\":1146:1169  balanceOf[to] += amount */\n      tag_125\n      swap1\n        /* \"contracts/task01/test.sol\":1163:1169  amount */\n      dup5\n      swap1\n        /* \"contracts/task01/test.sol\":1146:1169  balanceOf[to] += amount */\n      tag_94\n      jump\t// in\n    tag_125:\n      swap1\n      swap2\n      sstore\n      pop\n      pop\n        /* \"contracts/task01/test.sol\":1193:1225  Transfer(msg.sender, to, amount) */\n      mload(0x40)\n        /* \"#utility.yul\":1258:1283   */\n      dup3\n      dup2\n      mstore\n      sub(shl(0xa0, 0x01), 0x01)\n        /* \"contracts/task01/test.sol\":1193:1225  Transfer(msg.sender, to, amount) */\n      dup5\n      and\n      swap1\n        /* \"contracts/task01/test.sol\":1202:1212  msg.sender */\n      caller\n      swap1\n      mload(0x00)\n      codecopy(0x00, data_ada389e1fc24a8587c776340efb91b36e675792ab631816100d55df0b5cf3cbc, 0x20)\n      mload(0x00)\n      swap1\n      0x00\n      mstore\n        /* \"contracts/task01/test.sol\":1193:1225  Transfer(msg.sender, to, amount) */\n      swap1\n        /* \"#utility.yul\":1246:1248   */\n      0x20\n        /* \"#utility.yul\":1231:1249   */\n      add\n        /* \"contracts/task01/test.sol\":1193:1225  Transfer(msg.sender, to, amount) */\n      tag_77\n        /* \"#utility.yul\":1112:1289   */\n      jump\n        /* \"#utility.yul\":14:432   */\n    tag_19:\n        /* \"#utility.yul\":163:165   */\n      0x20\n        /* \"#utility.yul\":152:161   */\n      dup2\n        /* \"#utility.yul\":145:166   */\n      mstore\n        /* \"#utility.yul\":126:130   */\n      0x00\n        /* \"#utility.yul\":195:201   */\n      dup3\n        /* \"#utility.yul\":189:202   */\n      mload\n        /* \"#utility.yul\":238:244   */\n      dup1\n        /* \"#utility.yul\":233:235   */\n      0x20\n        /* \"#utility.yul\":222:231   */\n      dup5\n        /* \"#utility.yul\":218:236   */\n      add\n        /* \"#utility.yul\":211:245   */\n      mstore\n        /* \"#utility.yul\":297:303   */\n      dup1\n        /* \"#utility.yul\":292:294   */\n      0x20\n        /* \"#utility.yul\":284:290   */\n      dup6\n        /* \"#utility.yul\":280:295   */\n      add\n        /* \"#utility.yul\":275:277   */\n      0x40\n        /* \"#utility.yul\":264:273   */\n      dup6\n        /* \"#utility.yul\":260:278   */\n      add\n        /* \"#utility.yul\":254:304   */\n      mcopy\n        /* \"#utility.yul\":353:354   */\n      0x00\n        /* \"#utility.yul\":348:350   */\n      0x40\n        /* \"#utility.yul\":339:345   */\n      dup3\n        /* \"#utility.yul\":328:337   */\n      dup6\n        /* \"#utility.yul\":324:346   */\n      add\n        /* \"#utility.yul\":320:351   */\n      add\n        /* \"#utility.yul\":313:355   */\n      mstore\n        /* \"#utility.yul\":423:425   */\n      0x40\n        /* \"#utility.yul\":416:418   */\n      0x1f\n        /* \"#utility.yul\":412:419   */\n      not\n        /* \"#utility.yul\":407:409   */\n      0x1f\n        /* \"#utility.yul\":399:405   */\n      dup4\n        /* \"#utility.yul\":395:410   */\n      add\n        /* \"#utility.yul\":391:420   */\n      and\n        /* \"#utility.yul\":380:389   */\n      dup5\n        /* \"#utility.yul\":376:421   */\n      add\n        /* \"#utility.yul\":372:426   */\n      add\n        /* \"#utility.yul\":364:426   */\n      swap2\n      pop\n      pop\n        /* \"#utility.yul\":14:432   */\n      swap3\n      swap2\n      pop\n      pop\n      jump\t// out\n        /* \"#utility.yul\":437:610   */\n    tag_127:\n        /* \"#utility.yul\":505:525   */\n      dup1\n      calldataload\n      sub(shl(0xa0, 0x01), 0x01)\n        /* \"#utility.yul\":554:585   */\n      dup2\n      and\n        /* \"#utility.yul\":544:586   */\n      dup2\n      eq\n        /* \"#utility.yul\":534:604   */\n      tag_132\n      jumpi\n        /* \"#utility.yul\":600:601   */\n      0x00\n        /* \"#utility.yul\":597:598   */\n      0x00\n        /* \"#utility.yul\":590:602   */\n      revert\n        /* \"#utility.yul\":534:604   */\n    tag_132:\n        /* \"#utility.yul\":437:610   */\n      swap2\n      swap1\n      pop\n      jump\t// out\n        /* \"#utility.yul\":615:915   */\n    tag_22:\n        /* \"#utility.yul\":683:689   */\n      0x00\n        /* \"#utility.yul\":691:697   */\n      0x00\n        /* \"#utility.yul\":744:746   */\n      0x40\n        /* \"#utility.yul\":732:741   */\n      dup4\n        /* \"#utility.yul\":723:730   */\n      dup6\n        /* \"#utility.yul\":719:742   */\n      sub\n        /* \"#utility.yul\":715:747   */\n      slt\n        /* \"#utility.yul\":712:764   */\n      iszero\n      tag_134\n      jumpi\n        /* \"#utility.yul\":760:761   */\n      0x00\n        /* \"#utility.yul\":757:758   */\n      0x00\n        /* \"#utility.yul\":750:762   */\n      revert\n        /* \"#utility.yul\":712:764   */\n    tag_134:\n        /* \"#utility.yul\":783:812   */\n      tag_135\n        /* \"#utility.yul\":802:811   */\n      dup4\n        /* \"#utility.yul\":783:812   */\n      tag_127\n      jump\t// in\n    tag_135:\n        /* \"#utility.yul\":773:812   */\n      swap5\n        /* \"#utility.yul\":881:883   */\n      0x20\n        /* \"#utility.yul\":866:884   */\n      swap4\n      swap1\n      swap4\n      add\n        /* \"#utility.yul\":853:885   */\n      calldataload\n      swap4\n      pop\n      pop\n      pop\n        /* \"#utility.yul\":615:915   */\n      jump\t// out\n        /* \"#utility.yul\":1294:1668   */\n    tag_32:\n        /* \"#utility.yul\":1371:1377   */\n      0x00\n        /* \"#utility.yul\":1379:1385   */\n      0x00\n        /* \"#utility.yul\":1387:1393   */\n      0x00\n        /* \"#utility.yul\":1440:1442   */\n      0x60\n        /* \"#utility.yul\":1428:1437   */\n      dup5\n        /* \"#utility.yul\":1419:1426   */\n      dup7\n        /* \"#utility.yul\":1415:1438   */\n      sub\n        /* \"#utility.yul\":1411:1443   */\n      slt\n        /* \"#utility.yul\":1408:1460   */\n      iszero\n      tag_139\n      jumpi\n        /* \"#utility.yul\":1456:1457   */\n      0x00\n        /* \"#utility.yul\":1453:1454   */\n      0x00\n        /* \"#utility.yul\":1446:1458   */\n      revert\n        /* \"#utility.yul\":1408:1460   */\n    tag_139:\n        /* \"#utility.yul\":1479:1508   */\n      tag_140\n        /* \"#utility.yul\":1498:1507   */\n      dup5\n        /* \"#utility.yul\":1479:1508   */\n      tag_127\n      jump\t// in\n    tag_140:\n        /* \"#utility.yul\":1469:1508   */\n      swap3\n      pop\n        /* \"#utility.yul\":1527:1565   */\n      tag_141\n        /* \"#utility.yul\":1561:1563   */\n      0x20\n        /* \"#utility.yul\":1550:1559   */\n      dup6\n        /* \"#utility.yul\":1546:1564   */\n      add\n        /* \"#utility.yul\":1527:1565   */\n      tag_127\n      jump\t// in\n    tag_141:\n        /* \"#utility.yul\":1294:1668   */\n      swap3\n      swap6\n        /* \"#utility.yul\":1517:1565   */\n      swap3\n      swap5\n      pop\n      pop\n      pop\n        /* \"#utility.yul\":1634:1636   */\n      0x40\n        /* \"#utility.yul\":1619:1637   */\n      swap2\n      swap1\n      swap2\n      add\n        /* \"#utility.yul\":1606:1638   */\n      calldataload\n      swap1\n        /* \"#utility.yul\":1294:1668   */\n      jump\t// out\n        /* \"#utility.yul\":1862:2088   */\n    tag_44:\n        /* \"#utility.yul\":1921:1927   */\n      0x00\n        /* \"#utility.yul\":1974:1976   */\n      0x20\n        /* \"#utility.yul\":1962:1971   */\n      dup3\n        /* \"#utility.yul\":1953:1960   */\n      dup5\n        /* \"#utility.yul\":1949:1972   */\n      sub\n        /* \"#utility.yul\":1945:1977   */\n      slt\n        /* \"#utility.yul\":1942:1994   */\n      iszero\n      tag_144\n      jumpi\n        /* \"#utility.yul\":1990:1991   */\n      0x00\n        /* \"#utility.yul\":1987:1988   */\n      0x00\n        /* \"#utility.yul\":1980:1992   */\n      revert\n        /* \"#utility.yul\":1942:1994   */\n    tag_144:\n      pop\n        /* \"#utility.yul\":2035:2058   */\n      calldataload\n      swap2\n        /* \"#utility.yul\":1862:2088   */\n      swap1\n      pop\n      jump\t// out\n        /* \"#utility.yul\":2093:2279   */\n    tag_48:\n        /* \"#utility.yul\":2152:2158   */\n      0x00\n        /* \"#utility.yul\":2205:2207   */\n      0x20\n        /* \"#utility.yul\":2193:2202   */\n      dup3\n        /* \"#utility.yul\":2184:2191   */\n      dup5\n        /* \"#utility.yul\":2180:2203   */\n      sub\n        /* \"#utility.yul\":2176:2208   */\n      slt\n        /* \"#utility.yul\":2173:2225   */\n      iszero\n      tag_146\n      jumpi\n        /* \"#utility.yul\":2221:2222   */\n      0x00\n        /* \"#utility.yul\":2218:2219   */\n      0x00\n        /* \"#utility.yul\":2211:2223   */\n      revert\n        /* \"#utility.yul\":2173:2225   */\n    tag_146:\n        /* \"#utility.yul\":2244:2273   */\n      tag_147\n        /* \"#utility.yul\":2263:2272   */\n      dup3\n        /* \"#utility.yul\":2244:2273   */\n      tag_127\n      jump\t// in\n    tag_147:\n        /* \"#utility.yul\":2234:2273   */\n      swap4\n        /* \"#utility.yul\":2093:2279   */\n      swap3\n      pop\n      pop\n      pop\n      jump\t// out\n        /* \"#utility.yul\":2492:2752   */\n    tag_64:\n        /* \"#utility.yul\":2560:2566   */\n      0x00\n        /* \"#utility.yul\":2568:2574   */\n      0x00\n        /* \"#utility.yul\":2621:2623   */\n      0x40\n        /* \"#utility.yul\":2609:2618   */\n      dup4\n        /* \"#utility.yul\":2600:2607   */\n      dup6\n        /* \"#utility.yul\":2596:2619   */\n      sub\n        /* \"#utility.yul\":2592:2624   */\n      slt\n        /* \"#utility.yul\":2589:2641   */\n      iszero\n      tag_150\n      jumpi\n        /* \"#utility.yul\":2637:2638   */\n      0x00\n        /* \"#utility.yul\":2634:2635   */\n      0x00\n        /* \"#utility.yul\":2627:2639   */\n      revert\n        /* \"#utility.yul\":2589:2641   */\n    tag_150:\n        /* \"#utility.yul\":2660:2689   */\n      tag_151\n        /* \"#utility.yul\":2679:2688   */\n      dup4\n        /* \"#utility.yul\":2660:2689   */\n      tag_127\n      jump\t// in\n    tag_151:\n        /* \"#utility.yul\":2650:2689   */\n      swap2\n      pop\n        /* \"#utility.yul\":2708:2746   */\n      tag_152\n        /* \"#utility.yul\":2742:2744   */\n      0x20\n        /* \"#utility.yul\":2731:2740   */\n      dup5\n        /* \"#utility.yul\":2727:2745   */\n      add\n        /* \"#utility.yul\":2708:2746   */\n      tag_127\n      jump\t// in\n    tag_152:\n        /* \"#utility.yul\":2698:2746   */\n      swap1\n      pop\n        /* \"#utility.yul\":2492:2752   */\n      swap3\n      pop\n      swap3\n      swap1\n      pop\n      jump\t// out\n        /* \"#utility.yul\":2757:3137   */\n    tag_68:\n        /* \"#utility.yul\":2836:2837   */\n      0x01\n        /* \"#utility.yul\":2832:2844   */\n      dup2\n      dup2\n      shr\n      swap1\n        /* \"#utility.yul\":2879:2891   */\n      dup3\n      and\n      dup1\n        /* \"#utility.yul\":2900:2961   */\n      tag_154\n      jumpi\n        /* \"#utility.yul\":2954:2958   */\n      0x7f\n        /* \"#utility.yul\":2946:2952   */\n      dup3\n        /* \"#utility.yul\":2942:2959   */\n      and\n        /* \"#utility.yul\":2932:2959   */\n      swap2\n      pop\n        /* \"#utility.yul\":2900:2961   */\n    tag_154:\n        /* \"#utility.yul\":3007:3009   */\n      0x20\n        /* \"#utility.yul\":2999:3005   */\n      dup3\n        /* \"#utility.yul\":2996:3010   */\n      lt\n        /* \"#utility.yul\":2976:2994   */\n      dup2\n        /* \"#utility.yul\":2973:3011   */\n      sub\n        /* \"#utility.yul\":2970:3131   */\n      tag_155\n      jumpi\n        /* \"#utility.yul\":3053:3063   */\n      0x4e487b71\n        /* \"#utility.yul\":3048:3051   */\n      0xe0\n        /* \"#utility.yul\":3044:3064   */\n      shl\n        /* \"#utility.yul\":3041:3042   */\n      0x00\n        /* \"#utility.yul\":3034:3065   */\n      mstore\n        /* \"#utility.yul\":3088:3092   */\n      0x22\n        /* \"#utility.yul\":3085:3086   */\n      0x04\n        /* \"#utility.yul\":3078:3093   */\n      mstore\n        /* \"#utility.yul\":3116:3120   */\n      0x24\n        /* \"#utility.yul\":3113:3114   */\n      0x00\n        /* \"#utility.yul\":3106:3121   */\n      revert\n        /* \"#utility.yul\":2970:3131   */\n    tag_155:\n      pop\n        /* \"#utility.yul\":2757:3137   */\n      swap2\n      swap1\n      pop\n      jump\t// out\n        /* \"#utility.yul\":4155:4499   */\n    tag_87:\n        /* \"#utility.yul\":4357:4359   */\n      0x20\n        /* \"#utility.yul\":4339:4360   */\n      dup1\n      dup3\n      mstore\n        /* \"#utility.yul\":4396:4398   */\n      0x14\n        /* \"#utility.yul\":4376:4394   */\n      swap1\n      dup3\n      add\n        /* \"#utility.yul\":4369:4399   */\n      mstore\n      shl(0x60, 0x496e73756666696369656e742062616c616e6365)\n        /* \"#utility.yul\":4430:4432   */\n      0x40\n        /* \"#utility.yul\":4415:4433   */\n      dup3\n      add\n        /* \"#utility.yul\":4408:4458   */\n      mstore\n        /* \"#utility.yul\":4490:4492   */\n      0x60\n        /* \"#utility.yul\":4475:4493   */\n      add\n      swap1\n        /* \"#utility.yul\":4155:4499   */\n      jump\t// out\n        /* \"#utility.yul\":4855:4982   */\n    tag_128:\n        /* \"#utility.yul\":4916:4926   */\n      0x4e487b71\n        /* \"#utility.yul\":4911:4914   */\n      0xe0\n        /* \"#utility.yul\":4907:4927   */\n      shl\n        /* \"#utility.yul\":4904:4905   */\n      0x00\n        /* \"#utility.yul\":4897:4928   */\n      mstore\n        /* \"#utility.yul\":4947:4951   */\n      0x11\n        /* \"#utility.yul\":4944:4945   */\n      0x04\n        /* \"#utility.yul\":4937:4952   */\n      mstore\n        /* \"#utility.yul\":4971:4975   */\n      0x24\n        /* \"#utility.yul\":4968:4969   */\n      0x00\n        /* \"#utility.yul\":4961:4976   */\n      revert\n        /* \"#utility.yul\":4987:5115   */\n    tag_92:\n        /* \"#utility.yul\":5054:5063   */\n      dup2\n      dup2\n      sub\n        /* \"#utility.yul\":5075:5086   */\n      dup2\n      dup2\n      gt\n        /* \"#utility.yul\":5072:5109   */\n      iszero\n      tag_73\n      jumpi\n        /* \"#utility.yul\":5089:5107   */\n      tag_73\n      tag_128\n      jump\t// in\n        /* \"#utility.yul\":5120:5245   */\n    tag_94:\n        /* \"#utility.yul\":5185:5194   */\n      dup1\n      dup3\n      add\n        /* \"#utility.yul\":5206:5216   */\n      dup1\n      dup3\n      gt\n        /* \"#utility.yul\":5203:5239   */\n      iszero\n      tag_73\n      jumpi\n        /* \"#utility.yul\":5219:5237   */\n      tag_73\n      tag_128\n      jump\t// in\n    stop\n    data_ada389e1fc24a8587c776340efb91b36e675792ab631816100d55df0b5cf3cbc ddf252ad1be2c89b69c2b068fc378daa952ba7f163c4a11628f55a4df523b3ef\n\n    auxdata: 0xa2646970667358221220cafc629c6374f8bfda84bc3583a48951104b47bec4a8e0090ac4ca5ecb566fd564736f6c634300081f0033\n}\n",
				"bytecode": {
					"linkReferences": {},
					"object": "60c0604052600860809081526726bc902a37b5b2b760c11b60a0525f90610026908261019d565b506040805180820190915260038152624d544b60e81b602082015260019061004e908261019d565b506002805460ff19166012179055348015610067575f5ffd5b50604051610d73380380610d7383398101604081905261008691610257565b600680546001600160a01b031916331790556002546100a99060ff16600a610367565b6100b3908261037c565b6003819055335f81815260046020908152604080832085905551938452919290917fddf252ad1be2c89b69c2b068fc378daa952ba7f163c4a11628f55a4df523b3ef910160405180910390a350610393565b634e487b7160e01b5f52604160045260245ffd5b600181811c9082168061012d57607f821691505b60208210810361014b57634e487b7160e01b5f52602260045260245ffd5b50919050565b601f82111561019857805f5260205f20601f840160051c810160208510156101765750805b601f840160051c820191505b81811015610195575f8155600101610182565b50505b505050565b81516001600160401b038111156101b6576101b6610105565b6101ca816101c48454610119565b84610151565b6020601f8211600181146101fc575f83156101e55750848201515b5f19600385901b1c1916600184901b178455610195565b5f84815260208120601f198516915b8281101561022b578785015182556020948501946001909201910161020b565b508482101561024857868401515f19600387901b60f8161c191681555b50505050600190811b01905550565b5f60208284031215610267575f5ffd5b5051919050565b634e487b7160e01b5f52601160045260245ffd5b6001815b60018411156102bd578085048111156102a1576102a161026e565b60018416156102af57908102905b60019390931c928002610286565b935093915050565b5f826102d357506001610361565b816102df57505f610361565b81600181146102f557600281146102ff5761031b565b6001915050610361565b60ff8411156103105761031061026e565b50506001821b610361565b5060208310610133831016604e8410600b841016171561033e575081810a610361565b61034a5f198484610282565b805f190482111561035d5761035d61026e565b0290505b92915050565b5f61037560ff8416836102c5565b9392505050565b80820281158282048414176103615761036161026e565b6109d3806103a05f395ff3fe608060405234801561000f575f5ffd5b50600436106100b1575f3560e01c806342966c681161006e57806342966c681461015457806370a08231146101675780638da5cb5b1461018657806395d89b41146101b1578063a9059cbb146101b9578063dd62ed3e146101cc575f5ffd5b806306fdde03146100b5578063095ea7b3146100d357806318160ddd146100f657806323b872dd1461010d578063313ce5671461012057806340c10f191461013f575b5f5ffd5b6100bd6101f6565b6040516100ca91906107c3565b60405180910390f35b6100e66100e1366004610813565b610281565b60405190151581526020016100ca565b6100ff60035481565b6040519081526020016100ca565b6100e661011b36600461083b565b610331565b60025461012d9060ff1681565b60405160ff90911681526020016100ca565b61015261014d366004610813565b61052b565b005b610152610162366004610875565b61063b565b6100ff61017536600461088c565b60046020525f908152604090205481565b600654610199906001600160a01b031681565b6040516001600160a01b0390911681526020016100ca565b6100bd6106c9565b6100e66101c7366004610813565b6106d6565b6100ff6101da3660046108ac565b600560209081525f928352604080842090915290825290205481565b5f8054610202906108dd565b80601f016020809104026020016040519081016040528092919081815260200182805461022e906108dd565b80156102795780601f1061025057610100808354040283529160200191610279565b820191905f5260205f20905b81548152906001019060200180831161025c57829003601f168201915b505050505081565b5f6001600160a01b0383166102cc5760405162461bcd60e51b815260206004820152600c60248201526b5a65726f206164647265737360a01b60448201526064015b60405180910390fd5b335f8181526005602090815260408083206001600160a01b03881680855290835292819020869055518581529192917f8c5be1e5ebec7d5bd14f71427d1e84f3dd0314c0f7b2291e5b200ac8c7c3b92591015b60405180910390a35060015b92915050565b5f6001600160a01b0384166103745760405162461bcd60e51b815260206004820152600960248201526846726f6d207a65726f60b81b60448201526064016102c3565b6001600160a01b0383166103b45760405162461bcd60e51b8152602060048201526007602482015266546f207a65726f60c81b60448201526064016102c3565b6001600160a01b0384165f908152600460205260409020548211156103eb5760405162461bcd60e51b81526004016102c390610915565b6001600160a01b0384165f9081526005602090815260408083203384529091529020548211156104565760405162461bcd60e51b8152602060048201526016602482015275496e73756666696369656e7420616c6c6f77616e636560501b60448201526064016102c3565b6001600160a01b0384165f908152600460205260408120805484929061047d908490610957565b90915550506001600160a01b0383165f90815260046020526040812080548492906104a990849061096a565b90915550506001600160a01b0384165f908152600560209081526040808320338452909152812080548492906104e0908490610957565b92505081905550826001600160a01b0316846001600160a01b03165f51602061097e5f395f51905f528460405161051991815260200190565b60405180910390a35060019392505050565b6006546001600160a01b031633146105725760405162461bcd60e51b815260206004820152600a60248201526927b7363c9037bbb732b960b11b60448201526064016102c3565b6001600160a01b0382166105c85760405162461bcd60e51b815260206004820152601b60248201527f43616e6e6f74206d696e7420746f207a65726f2061646472657373000000000060448201526064016102c3565b8060035f8282546105d9919061096a565b90915550506001600160a01b0382165f908152600460205260408120805483929061060590849061096a565b90915550506040518181526001600160a01b038316905f905f51602061097e5f395f51905f529060200160405180910390a35050565b335f908152600460205260409020548111156106695760405162461bcd60e51b81526004016102c390610915565b8060035f82825461067a9190610957565b9091555050335f908152600460205260408120805483929061069d908490610957565b90915550506040518181525f9033905f51602061097e5f395f51905f529060200160405180910390a350565b60018054610202906108dd565b5f6001600160a01b03831661071c5760405162461bcd60e51b815260206004820152600c60248201526b5a65726f206164647265737360a01b60448201526064016102c3565b335f9081526004602052604090205482111561074a5760405162461bcd60e51b81526004016102c390610915565b335f9081526004602052604081208054849290610768908490610957565b90915550506001600160a01b0383165f908152600460205260408120805484929061079490849061096a565b90915550506040518281526001600160a01b0384169033905f51602061097e5f395f51905f529060200161031f565b602081525f82518060208401528060208501604085015e5f604082850101526040601f19601f83011684010191505092915050565b80356001600160a01b038116811461080e575f5ffd5b919050565b5f5f60408385031215610824575f5ffd5b61082d836107f8565b946020939093013593505050565b5f5f5f6060848603121561084d575f5ffd5b610856846107f8565b9250610864602085016107f8565b929592945050506040919091013590565b5f60208284031215610885575f5ffd5b5035919050565b5f6020828403121561089c575f5ffd5b6108a5826107f8565b9392505050565b5f5f604083850312156108bd575f5ffd5b6108c6836107f8565b91506108d4602084016107f8565b90509250929050565b600181811c908216806108f157607f821691505b60208210810361090f57634e487b7160e01b5f52602260045260245ffd5b50919050565b602080825260149082015273496e73756666696369656e742062616c616e636560601b604082015260600190565b634e487b7160e01b5f52601160045260245ffd5b8181038181111561032b5761032b610943565b8082018082111561032b5761032b61094356feddf252ad1be2c89b69c2b068fc378daa952ba7f163c4a11628f55a4df523b3efa2646970667358221220cafc629c6374f8bfda84bc3583a48951104b47bec4a8e0090ac4ca5ecb566fd564736f6c634300081f0033",
					"opcodes": "PUSH1 0xC0 PUSH1 0x40 MSTORE PUSH1 0x8 PUSH1 0x80 SWAP1 DUP2 MSTORE PUSH8 0x26BC902A37B5B2B7 PUSH1 0xC1 SHL PUSH1 0xA0 MSTORE PUSH0 SWAP1 PUSH2 0x26 SWAP1 DUP3 PUSH2 0x19D JUMP JUMPDEST POP PUSH1 0x40 DUP1 MLOAD DUP1 DUP3 ADD SWAP1 SWAP2 MSTORE PUSH1 0x3 DUP2 MSTORE PUSH3 0x4D544B PUSH1 0xE8 SHL PUSH1 0x20 DUP3 ADD MSTORE PUSH1 0x1 SWAP1 PUSH2 0x4E SWAP1 DUP3 PUSH2 0x19D JUMP JUMPDEST POP PUSH1 0x2 DUP1 SLOAD PUSH1 0xFF NOT AND PUSH1 0x12 OR SWAP1 SSTORE CALLVALUE DUP1 ISZERO PUSH2 0x67 JUMPI PUSH0 PUSH0 REVERT JUMPDEST POP PUSH1 0x40 MLOAD PUSH2 0xD73 CODESIZE SUB DUP1 PUSH2 0xD73 DUP4 CODECOPY DUP2 ADD PUSH1 0x40 DUP2 SWAP1 MSTORE PUSH2 0x86 SWAP2 PUSH2 0x257 JUMP JUMPDEST PUSH1 0x6 DUP1 SLOAD PUSH1 0x1 PUSH1 0x1 PUSH1 0xA0 SHL SUB NOT AND CALLER OR SWAP1 SSTORE PUSH1 0x2 SLOAD PUSH2 0xA9 SWAP1 PUSH1 0xFF AND PUSH1 0xA PUSH2 0x367 JUMP JUMPDEST PUSH2 0xB3 SWAP1 DUP3 PUSH2 0x37C JUMP JUMPDEST PUSH1 0x3 DUP2 SWAP1 SSTORE CALLER PUSH0 DUP2 DUP2 MSTORE PUSH1 0x4 PUSH1 0x20 SWAP1 DUP2 MSTORE PUSH1 0x40 DUP1 DUP4 KECCAK256 DUP6 SWAP1 SSTORE MLOAD SWAP4 DUP5 MSTORE SWAP2 SWAP3 SWAP1 SWAP2 PUSH32 0xDDF252AD1BE2C89B69C2B068FC378DAA952BA7F163C4A11628F55A4DF523B3EF SWAP2 ADD PUSH1 0x40 MLOAD DUP1 SWAP2 SUB SWAP1 LOG3 POP PUSH2 0x393 JUMP JUMPDEST PUSH4 0x4E487B71 PUSH1 0xE0 SHL PUSH0 MSTORE PUSH1 0x41 PUSH1 0x4 MSTORE PUSH1 0x24 PUSH0 REVERT JUMPDEST PUSH1 0x1 DUP2 DUP2 SHR SWAP1 DUP3 AND DUP1 PUSH2 0x12D JUMPI PUSH1 0x7F DUP3 AND SWAP2 POP JUMPDEST PUSH1 0x20 DUP3 LT DUP2 SUB PUSH2 0x14B JUMPI PUSH4 0x4E487B71 PUSH1 0xE0 SHL PUSH0 MSTORE PUSH1 0x22 PUSH1 0x4 MSTORE PUSH1 0x24 PUSH0 REVERT JUMPDEST POP SWAP2 SWAP1 POP JUMP JUMPDEST PUSH1 0x1F DUP3 GT ISZERO PUSH2 0x198 JUMPI DUP1 PUSH0 MSTORE PUSH1 0x20 PUSH0 KECCAK256 PUSH1 0x1F DUP5 ADD PUSH1 0x5 SHR DUP2 ADD PUSH1 0x20 DUP6 LT ISZERO PUSH2 0x176 JUMPI POP DUP1 JUMPDEST PUSH1 0x1F DUP5 ADD PUSH1 0x5 SHR DUP3 ADD SWAP2 POP JUMPDEST DUP2 DUP2 LT ISZERO PUSH2 0x195 JUMPI PUSH0 DUP2 SSTORE PUSH1 0x1 ADD PUSH2 0x182 JUMP JUMPDEST POP POP JUMPDEST POP POP POP JUMP JUMPDEST DUP2 MLOAD PUSH1 0x1 PUSH1 0x1 PUSH1 0x40 SHL SUB DUP2 GT ISZERO PUSH2 0x1B6 JUMPI PUSH2 0x1B6 PUSH2 0x105 JUMP JUMPDEST PUSH2 0x1CA DUP2 PUSH2 0x1C4 DUP5 SLOAD PUSH2 0x119 JUMP JUMPDEST DUP5 PUSH2 0x151 JUMP JUMPDEST PUSH1 0x20 PUSH1 0x1F DUP3 GT PUSH1 0x1 DUP2 EQ PUSH2 0x1FC JUMPI PUSH0 DUP4 ISZERO PUSH2 0x1E5 JUMPI POP DUP5 DUP3 ADD MLOAD JUMPDEST PUSH0 NOT PUSH1 0x3 DUP6 SWAP1 SHL SHR NOT AND PUSH1 0x1 DUP5 SWAP1 SHL OR DUP5 SSTORE PUSH2 0x195 JUMP JUMPDEST PUSH0 DUP5 DUP2 MSTORE PUSH1 0x20 DUP2 KECCAK256 PUSH1 0x1F NOT DUP6 AND SWAP2 JUMPDEST DUP3 DUP2 LT ISZERO PUSH2 0x22B JUMPI DUP8 DUP6 ADD MLOAD DUP3 SSTORE PUSH1 0x20 SWAP5 DUP6 ADD SWAP5 PUSH1 0x1 SWAP1 SWAP3 ADD SWAP2 ADD PUSH2 0x20B JUMP JUMPDEST POP DUP5 DUP3 LT ISZERO PUSH2 0x248 JUMPI DUP7 DUP5 ADD MLOAD PUSH0 NOT PUSH1 0x3 DUP8 SWAP1 SHL PUSH1 0xF8 AND SHR NOT AND DUP2 SSTORE JUMPDEST POP POP POP POP PUSH1 0x1 SWAP1 DUP2 SHL ADD SWAP1 SSTORE POP JUMP JUMPDEST PUSH0 PUSH1 0x20 DUP3 DUP5 SUB SLT ISZERO PUSH2 0x267 JUMPI PUSH0 PUSH0 REVERT JUMPDEST POP MLOAD SWAP2 SWAP1 POP JUMP JUMPDEST PUSH4 0x4E487B71 PUSH1 0xE0 SHL PUSH0 MSTORE PUSH1 0x11 PUSH1 0x4 MSTORE PUSH1 0x24 PUSH0 REVERT JUMPDEST PUSH1 0x1 DUP2 JUMPDEST PUSH1 0x1 DUP5 GT ISZERO PUSH2 0x2BD JUMPI DUP1 DUP6 DIV DUP2 GT ISZERO PUSH2 0x2A1 JUMPI PUSH2 0x2A1 PUSH2 0x26E JUMP JUMPDEST PUSH1 0x1 DUP5 AND ISZERO PUSH2 0x2AF JUMPI SWAP1 DUP2 MUL SWAP1 JUMPDEST PUSH1 0x1 SWAP4 SWAP1 SWAP4 SHR SWAP3 DUP1 MUL PUSH2 0x286 JUMP JUMPDEST SWAP4 POP SWAP4 SWAP2 POP POP JUMP JUMPDEST PUSH0 DUP3 PUSH2 0x2D3 JUMPI POP PUSH1 0x1 PUSH2 0x361 JUMP JUMPDEST DUP2 PUSH2 0x2DF JUMPI POP PUSH0 PUSH2 0x361 JUMP JUMPDEST DUP2 PUSH1 0x1 DUP2 EQ PUSH2 0x2F5 JUMPI PUSH1 0x2 DUP2 EQ PUSH2 0x2FF JUMPI PUSH2 0x31B JUMP JUMPDEST PUSH1 0x1 SWAP2 POP POP PUSH2 0x361 JUMP JUMPDEST PUSH1 0xFF DUP5 GT ISZERO PUSH2 0x310 JUMPI PUSH2 0x310 PUSH2 0x26E JUMP JUMPDEST POP POP PUSH1 0x1 DUP3 SHL PUSH2 0x361 JUMP JUMPDEST POP PUSH1 0x20 DUP4 LT PUSH2 0x133 DUP4 LT AND PUSH1 0x4E DUP5 LT PUSH1 0xB DUP5 LT AND OR ISZERO PUSH2 0x33E JUMPI POP DUP2 DUP2 EXP PUSH2 0x361 JUMP JUMPDEST PUSH2 0x34A PUSH0 NOT DUP5 DUP5 PUSH2 0x282 JUMP JUMPDEST DUP1 PUSH0 NOT DIV DUP3 GT ISZERO PUSH2 0x35D JUMPI PUSH2 0x35D PUSH2 0x26E JUMP JUMPDEST MUL SWAP1 POP JUMPDEST SWAP3 SWAP2 POP POP JUMP JUMPDEST PUSH0 PUSH2 0x375 PUSH1 0xFF DUP5 AND DUP4 PUSH2 0x2C5 JUMP JUMPDEST SWAP4 SWAP3 POP POP POP JUMP JUMPDEST DUP1 DUP3 MUL DUP2 ISZERO DUP3 DUP3 DIV DUP5 EQ OR PUSH2 0x361 JUMPI PUSH2 0x361 PUSH2 0x26E JUMP JUMPDEST PUSH2 0x9D3 DUP1 PUSH2 0x3A0 PUSH0 CODECOPY PUSH0 RETURN INVALID PUSH1 0x80 PUSH1 0x40 MSTORE CALLVALUE DUP1 ISZERO PUSH2 0xF JUMPI PUSH0 PUSH0 REVERT JUMPDEST POP PUSH1 0x4 CALLDATASIZE LT PUSH2 0xB1 JUMPI PUSH0 CALLDATALOAD PUSH1 0xE0 SHR DUP1 PUSH4 0x42966C68 GT PUSH2 0x6E JUMPI DUP1 PUSH4 0x42966C68 EQ PUSH2 0x154 JUMPI DUP1 PUSH4 0x70A08231 EQ PUSH2 0x167 JUMPI DUP1 PUSH4 0x8DA5CB5B EQ PUSH2 0x186 JUMPI DUP1 PUSH4 0x95D89B41 EQ PUSH2 0x1B1 JUMPI DUP1 PUSH4 0xA9059CBB EQ PUSH2 0x1B9 JUMPI DUP1 PUSH4 0xDD62ED3E EQ PUSH2 0x1CC JUMPI PUSH0 PUSH0 REVERT JUMPDEST DUP1 PUSH4 0x6FDDE03 EQ PUSH2 0xB5 JUMPI DUP1 PUSH4 0x95EA7B3 EQ PUSH2 0xD3 JUMPI DUP1 PUSH4 0x18160DDD EQ PUSH2 0xF6 JUMPI DUP1 PUSH4 0x23B872DD EQ PUSH2 0x10D JUMPI DUP1 PUSH4 0x313CE567 EQ PUSH2 0x120 JUMPI DUP1 PUSH4 0x40C10F19 EQ PUSH2 0x13F JUMPI JUMPDEST PUSH0 PUSH0 REVERT JUMPDEST PUSH2 0xBD PUSH2 0x1F6 JUMP JUMPDEST PUSH1 0x40 MLOAD PUSH2 0xCA SWAP2 SWAP1 PUSH2 0x7C3 JUMP JUMPDEST PUSH1 0x40 MLOAD DUP1 SWAP2 SUB SWAP1 RETURN JUMPDEST PUSH2 0xE6 PUSH2 0xE1 CALLDATASIZE PUSH1 0x4 PUSH2 0x813 JUMP JUMPDEST PUSH2 0x281 JUMP JUMPDEST PUSH1 0x40 MLOAD SWAP1 ISZERO ISZERO DUP2 MSTORE PUSH1 0x20 ADD PUSH2 0xCA JUMP JUMPDEST PUSH2 0xFF PUSH1 0x3 SLOAD DUP2 JUMP JUMPDEST PUSH1 0x40 MLOAD SWAP1 DUP2 MSTORE PUSH1 0x20 ADD PUSH2 0xCA JUMP JUMPDEST PUSH2 0xE6 PUSH2 0x11B CALLDATASIZE PUSH1 0x4 PUSH2 0x83B JUMP JUMPDEST PUSH2 0x331 JUMP JUMPDEST PUSH1 0x2 SLOAD PUSH2 0x12D SWAP1 PUSH1 0xFF AND DUP2 JUMP JUMPDEST PUSH1 0x40 MLOAD PUSH1 0xFF SWAP1 SWAP2 AND DUP2 MSTORE PUSH1 0x20 ADD PUSH2 0xCA JUMP JUMPDEST PUSH2 0x152 PUSH2 0x14D CALLDATASIZE PUSH1 0x4 PUSH2 0x813 JUMP JUMPDEST PUSH2 0x52B JUMP JUMPDEST STOP JUMPDEST PUSH2 0x152 PUSH2 0x162 CALLDATASIZE PUSH1 0x4 PUSH2 0x875 JUMP JUMPDEST PUSH2 0x63B JUMP JUMPDEST PUSH2 0xFF PUSH2 0x175 CALLDATASIZE PUSH1 0x4 PUSH2 0x88C JUMP JUMPDEST PUSH1 0x4 PUSH1 0x20 MSTORE PUSH0 SWAP1 DUP2 MSTORE PUSH1 0x40 SWAP1 KECCAK256 SLOAD DUP2 JUMP JUMPDEST PUSH1 0x6 SLOAD PUSH2 0x199 SWAP1 PUSH1 0x1 PUSH1 0x1 PUSH1 0xA0 SHL SUB AND DUP2 JUMP JUMPDEST PUSH1 0x40 MLOAD PUSH1 0x1 PUSH1 0x1 PUSH1 0xA0 SHL SUB SWAP1 SWAP2 AND DUP2 MSTORE PUSH1 0x20 ADD PUSH2 0xCA JUMP JUMPDEST PUSH2 0xBD PUSH2 0x6C9 JUMP JUMPDEST PUSH2 0xE6 PUSH2 0x1C7 CALLDATASIZE PUSH1 0x4 PUSH2 0x813 JUMP JUMPDEST PUSH2 0x6D6 JUMP JUMPDEST PUSH2 0xFF PUSH2 0x1DA CALLDATASIZE PUSH1 0x4 PUSH2 0x8AC JUMP JUMPDEST PUSH1 0x5 PUSH1 0x20 SWAP1 DUP2 MSTORE PUSH0 SWAP3 DUP4 MSTORE PUSH1 0x40 DUP1 DUP5 KECCAK256 SWAP1 SWAP2 MSTORE SWAP1 DUP3 MSTORE SWAP1 KECCAK256 SLOAD DUP2 JUMP JUMPDEST PUSH0 DUP1 SLOAD PUSH2 0x202 SWAP1 PUSH2 0x8DD JUMP JUMPDEST DUP1 PUSH1 0x1F ADD PUSH1 0x20 DUP1 SWAP2 DIV MUL PUSH1 0x20 ADD PUSH1 0x40 MLOAD SWAP1 DUP2 ADD PUSH1 0x40 MSTORE DUP1 SWAP3 SWAP2 SWAP1 DUP2 DUP2 MSTORE PUSH1 0x20 ADD DUP3 DUP1 SLOAD PUSH2 0x22E SWAP1 PUSH2 0x8DD JUMP JUMPDEST DUP1 ISZERO PUSH2 0x279 JUMPI DUP1 PUSH1 0x1F LT PUSH2 0x250 JUMPI PUSH2 0x100 DUP1 DUP4 SLOAD DIV MUL DUP4 MSTORE SWAP2 PUSH1 0x20 ADD SWAP2 PUSH2 0x279 JUMP JUMPDEST DUP3 ADD SWAP2 SWAP1 PUSH0 MSTORE PUSH1 0x20 PUSH0 KECCAK256 SWAP1 JUMPDEST DUP2 SLOAD DUP2 MSTORE SWAP1 PUSH1 0x1 ADD SWAP1 PUSH1 0x20 ADD DUP1 DUP4 GT PUSH2 0x25C JUMPI DUP3 SWAP1 SUB PUSH1 0x1F AND DUP3 ADD SWAP2 JUMPDEST POP POP POP POP POP DUP2 JUMP JUMPDEST PUSH0 PUSH1 0x1 PUSH1 0x1 PUSH1 0xA0 SHL SUB DUP4 AND PUSH2 0x2CC JUMPI PUSH1 0x40 MLOAD PUSH3 0x461BCD PUSH1 0xE5 SHL DUP2 MSTORE PUSH1 0x20 PUSH1 0x4 DUP3 ADD MSTORE PUSH1 0xC PUSH1 0x24 DUP3 ADD MSTORE PUSH12 0x5A65726F2061646472657373 PUSH1 0xA0 SHL PUSH1 0x44 DUP3 ADD MSTORE PUSH1 0x64 ADD JUMPDEST PUSH1 0x40 MLOAD DUP1 SWAP2 SUB SWAP1 REVERT JUMPDEST CALLER PUSH0 DUP2 DUP2 MSTORE PUSH1 0x5 PUSH1 0x20 SWAP1 DUP2 MSTORE PUSH1 0x40 DUP1 DUP4 KECCAK256 PUSH1 0x1 PUSH1 0x1 PUSH1 0xA0 SHL SUB DUP9 AND DUP1 DUP6 MSTORE SWAP1 DUP4 MSTORE SWAP3 DUP2 SWAP1 KECCAK256 DUP7 SWAP1 SSTORE MLOAD DUP6 DUP2 MSTORE SWAP2 SWAP3 SWAP2 PUSH32 0x8C5BE1E5EBEC7D5BD14F71427D1E84F3DD0314C0F7B2291E5B200AC8C7C3B925 SWAP2 ADD JUMPDEST PUSH1 0x40 MLOAD DUP1 SWAP2 SUB SWAP1 LOG3 POP PUSH1 0x1 JUMPDEST SWAP3 SWAP2 POP POP JUMP JUMPDEST PUSH0 PUSH1 0x1 PUSH1 0x1 PUSH1 0xA0 SHL SUB DUP5 AND PUSH2 0x374 JUMPI PUSH1 0x40 MLOAD PUSH3 0x461BCD PUSH1 0xE5 SHL DUP2 MSTORE PUSH1 0x20 PUSH1 0x4 DUP3 ADD MSTORE PUSH1 0x9 PUSH1 0x24 DUP3 ADD MSTORE PUSH9 0x46726F6D207A65726F PUSH1 0xB8 SHL PUSH1 0x44 DUP3 ADD MSTORE PUSH1 0x64 ADD PUSH2 0x2C3 JUMP JUMPDEST PUSH1 0x1 PUSH1 0x1 PUSH1 0xA0 SHL SUB DUP4 AND PUSH2 0x3B4 JUMPI PUSH1 0x40 MLOAD PUSH3 0x461BCD PUSH1 0xE5 SHL DUP2 MSTORE PUSH1 0x20 PUSH1 0x4 DUP3 ADD MSTORE PUSH1 0x7 PUSH1 0x24 DUP3 ADD MSTORE PUSH7 0x546F207A65726F PUSH1 0xC8 SHL PUSH1 0x44 DUP3 ADD MSTORE PUSH1 0x64 ADD PUSH2 0x2C3 JUMP JUMPDEST PUSH1 0x1 PUSH1 0x1 PUSH1 0xA0 SHL SUB DUP5 AND PUSH0 SWAP1 DUP2 MSTORE PUSH1 0x4 PUSH1 0x20 MSTORE PUSH1 0x40 SWAP1 KECCAK256 SLOAD DUP3 GT ISZERO PUSH2 0x3EB JUMPI PUSH1 0x40 MLOAD PUSH3 0x461BCD PUSH1 0xE5 SHL DUP2 MSTORE PUSH1 0x4 ADD PUSH2 0x2C3 SWAP1 PUSH2 0x915 JUMP JUMPDEST PUSH1 0x1 PUSH1 0x1 PUSH1 0xA0 SHL SUB DUP5 AND PUSH0 SWAP1 DUP2 MSTORE PUSH1 0x5 PUSH1 0x20 SWAP1 DUP2 MSTORE PUSH1 0x40 DUP1 DUP4 KECCAK256 CALLER DUP5 MSTORE SWAP1 SWAP2 MSTORE SWAP1 KECCAK256 SLOAD DUP3 GT ISZERO PUSH2 0x456 JUMPI PUSH1 0x40 MLOAD PUSH3 0x461BCD PUSH1 0xE5 SHL DUP2 MSTORE PUSH1 0x20 PUSH1 0x4 DUP3 ADD MSTORE PUSH1 0x16 PUSH1 0x24 DUP3 ADD MSTORE PUSH22 0x496E73756666696369656E7420616C6C6F77616E6365 PUSH1 0x50 SHL PUSH1 0x44 DUP3 ADD MSTORE PUSH1 0x64 ADD PUSH2 0x2C3 JUMP JUMPDEST PUSH1 0x1 PUSH1 0x1 PUSH1 0xA0 SHL SUB DUP5 AND PUSH0 SWAP1 DUP2 MSTORE PUSH1 0x4 PUSH1 0x20 MSTORE PUSH1 0x40 DUP2 KECCAK256 DUP1 SLOAD DUP5 SWAP3 SWAP1 PUSH2 0x47D SWAP1 DUP5 SWAP1 PUSH2 0x957 JUMP JUMPDEST SWAP1 SWAP2 SSTORE POP POP PUSH1 0x1 PUSH1 0x1 PUSH1 0xA0 SHL SUB DUP4 AND PUSH0 SWAP1 DUP2 MSTORE PUSH1 0x4 PUSH1 0x20 MSTORE PUSH1 0x40 DUP2 KECCAK256 DUP1 SLOAD DUP5 SWAP3 SWAP1 PUSH2 0x4A9 SWAP1 DUP5 SWAP1 PUSH2 0x96A JUMP JUMPDEST SWAP1 SWAP2 SSTORE POP POP PUSH1 0x1 PUSH1 0x1 PUSH1 0xA0 SHL SUB DUP5 AND PUSH0 SWAP1 DUP2 MSTORE PUSH1 0x5 PUSH1 0x20 SWAP1 DUP2 MSTORE PUSH1 0x40 DUP1 DUP4 KECCAK256 CALLER DUP5 MSTORE SWAP1 SWAP2 MSTORE DUP2 KECCAK256 DUP1 SLOAD DUP5 SWAP3 SWAP1 PUSH2 0x4E0 SWAP1 DUP5 SWAP1 PUSH2 0x957 JUMP JUMPDEST SWAP3 POP POP DUP2 SWAP1 SSTORE POP DUP3 PUSH1 0x1 PUSH1 0x1 PUSH1 0xA0 SHL SUB AND DUP5 PUSH1 0x1 PUSH1 0x1 PUSH1 0xA0 SHL SUB AND PUSH0 MLOAD PUSH1 0x20 PUSH2 0x97E PUSH0 CODECOPY PUSH0 MLOAD SWAP1 PUSH0 MSTORE DUP5 PUSH1 0x40 MLOAD PUSH2 0x519 SWAP2 DUP2 MSTORE PUSH1 0x20 ADD SWAP1 JUMP JUMPDEST PUSH1 0x40 MLOAD DUP1 SWAP2 SUB SWAP1 LOG3 POP PUSH1 0x1 SWAP4 SWAP3 POP POP POP JUMP JUMPDEST PUSH1 0x6 SLOAD PUSH1 0x1 PUSH1 0x1 PUSH1 0xA0 SHL SUB AND CALLER EQ PUSH2 0x572 JUMPI PUSH1 0x40 MLOAD PUSH3 0x461BCD PUSH1 0xE5 SHL DUP2 MSTORE PUSH1 0x20 PUSH1 0x4 DUP3 ADD MSTORE PUSH1 0xA PUSH1 0x24 DUP3 ADD MSTORE PUSH10 0x27B7363C9037BBB732B9 PUSH1 0xB1 SHL PUSH1 0x44 DUP3 ADD MSTORE PUSH1 0x64 ADD PUSH2 0x2C3 JUMP JUMPDEST PUSH1 0x1 PUSH1 0x1 PUSH1 0xA0 SHL SUB DUP3 AND PUSH2 0x5C8 JUMPI PUSH1 0x40 MLOAD PUSH3 0x461BCD PUSH1 0xE5 SHL DUP2 MSTORE PUSH1 0x20 PUSH1 0x4 DUP3 ADD MSTORE PUSH1 0x1B PUSH1 0x24 DUP3 ADD MSTORE PUSH32 0x43616E6E6F74206D696E7420746F207A65726F20616464726573730000000000 PUSH1 0x44 DUP3 ADD MSTORE PUSH1 0x64 ADD PUSH2 0x2C3 JUMP JUMPDEST DUP1 PUSH1 0x3 PUSH0 DUP3 DUP3 SLOAD PUSH2 0x5D9 SWAP2 SWAP1 PUSH2 0x96A JUMP JUMPDEST SWAP1 SWAP2 SSTORE POP POP PUSH1 0x1 PUSH1 0x1 PUSH1 0xA0 SHL SUB DUP3 AND PUSH0 SWAP1 DUP2 MSTORE PUSH1 0x4 PUSH1 0x20 MSTORE PUSH1 0x40 DUP2 KECCAK256 DUP1 SLOAD DUP4 SWAP3 SWAP1 PUSH2 0x605 SWAP1 DUP5 SWAP1 PUSH2 0x96A JUMP JUMPDEST SWAP1 SWAP2 SSTORE POP POP PUSH1 0x40 MLOAD DUP2 DUP2 MSTORE PUSH1 0x1 PUSH1 0x1 PUSH1 0xA0 SHL SUB DUP4 AND SWAP1 PUSH0 SWAP1 PUSH0 MLOAD PUSH1 0x20 PUSH2 0x97E PUSH0 CODECOPY PUSH0 MLOAD SWAP1 PUSH0 MSTORE SWAP1 PUSH1 0x20 ADD PUSH1 0x40 MLOAD DUP1 SWAP2 SUB SWAP1 LOG3 POP POP JUMP JUMPDEST CALLER PUSH0 SWAP1 DUP2 MSTORE PUSH1 0x4 PUSH1 0x20 MSTORE PUSH1 0x40 SWAP1 KECCAK256 SLOAD DUP2 GT ISZERO PUSH2 0x669 JUMPI PUSH1 0x40 MLOAD PUSH3 0x461BCD PUSH1 0xE5 SHL DUP2 MSTORE PUSH1 0x4 ADD PUSH2 0x2C3 SWAP1 PUSH2 0x915 JUMP JUMPDEST DUP1 PUSH1 0x3 PUSH0 DUP3 DUP3 SLOAD PUSH2 0x67A SWAP2 SWAP1 PUSH2 0x957 JUMP JUMPDEST SWAP1 SWAP2 SSTORE POP POP CALLER PUSH0 SWAP1 DUP2 MSTORE PUSH1 0x4 PUSH1 0x20 MSTORE PUSH1 0x40 DUP2 KECCAK256 DUP1 SLOAD DUP4 SWAP3 SWAP1 PUSH2 0x69D SWAP1 DUP5 SWAP1 PUSH2 0x957 JUMP JUMPDEST SWAP1 SWAP2 SSTORE POP POP PUSH1 0x40 MLOAD DUP2 DUP2 MSTORE PUSH0 SWAP1 CALLER SWAP1 PUSH0 MLOAD PUSH1 0x20 PUSH2 0x97E PUSH0 CODECOPY PUSH0 MLOAD SWAP1 PUSH0 MSTORE SWAP1 PUSH1 0x20 ADD PUSH1 0x40 MLOAD DUP1 SWAP2 SUB SWAP1 LOG3 POP JUMP JUMPDEST PUSH1 0x1 DUP1 SLOAD PUSH2 0x202 SWAP1 PUSH2 0x8DD JUMP JUMPDEST PUSH0 PUSH1 0x1 PUSH1 0x1 PUSH1 0xA0 SHL SUB DUP4 AND PUSH2 0x71C JUMPI PUSH1 0x40 MLOAD PUSH3 0x461BCD PUSH1 0xE5 SHL DUP2 MSTORE PUSH1 0x20 PUSH1 0x4 DUP3 ADD MSTORE PUSH1 0xC PUSH1 0x24 DUP3 ADD MSTORE PUSH12 0x5A65726F2061646472657373 PUSH1 0xA0 SHL PUSH1 0x44 DUP3 ADD MSTORE PUSH1 0x64 ADD PUSH2 0x2C3 JUMP JUMPDEST CALLER PUSH0 SWAP1 DUP2 MSTORE PUSH1 0x4 PUSH1 0x20 MSTORE PUSH1 0x40 SWAP1 KECCAK256 SLOAD DUP3 GT ISZERO PUSH2 0x74A JUMPI PUSH1 0x40 MLOAD PUSH3 0x461BCD PUSH1 0xE5 SHL DUP2 MSTORE PUSH1 0x4 ADD PUSH2 0x2C3 SWAP1 PUSH2 0x915 JUMP JUMPDEST CALLER PUSH0 SWAP1 DUP2 MSTORE PUSH1 0x4 PUSH1 0x20 MSTORE PUSH1 0x40 DUP2 KECCAK256 DUP1 SLOAD DUP5 SWAP3 SWAP1 PUSH2 0x768 SWAP1 DUP5 SWAP1 PUSH2 0x957 JUMP JUMPDEST SWAP1 SWAP2 SSTORE POP POP PUSH1 0x1 PUSH1 0x1 PUSH1 0xA0 SHL SUB DUP4 AND PUSH0 SWAP1 DUP2 MSTORE PUSH1 0x4 PUSH1 0x20 MSTORE PUSH1 0x40 DUP2 KECCAK256 DUP1 SLOAD DUP5 SWAP3 SWAP1 PUSH2 0x794 SWAP1 DUP5 SWAP1 PUSH2 0x96A JUMP JUMPDEST SWAP1 SWAP2 SSTORE POP POP PUSH1 0x40 MLOAD DUP3 DUP2 MSTORE PUSH1 0x1 PUSH1 0x1 PUSH1 0xA0 SHL SUB DUP5 AND SWAP1 CALLER SWAP1 PUSH0 MLOAD PUSH1 0x20 PUSH2 0x97E PUSH0 CODECOPY PUSH0 MLOAD SWAP1 PUSH0 MSTORE SWAP1 PUSH1 0x20 ADD PUSH2 0x31F JUMP JUMPDEST PUSH1 0x20 DUP2 MSTORE PUSH0 DUP3 MLOAD DUP1 PUSH1 0x20 DUP5 ADD MSTORE DUP1 PUSH1 0x20 DUP6 ADD PUSH1 0x40 DUP6 ADD MCOPY PUSH0 PUSH1 0x40 DUP3 DUP6 ADD ADD MSTORE PUSH1 0x40 PUSH1 0x1F NOT PUSH1 0x1F DUP4 ADD AND DUP5 ADD ADD SWAP2 POP POP SWAP3 SWAP2 POP POP JUMP JUMPDEST DUP1 CALLDATALOAD PUSH1 0x1 PUSH1 0x1 PUSH1 0xA0 SHL SUB DUP2 AND DUP2 EQ PUSH2 0x80E JUMPI PUSH0 PUSH0 REVERT JUMPDEST SWAP2 SWAP1 POP JUMP JUMPDEST PUSH0 PUSH0 PUSH1 0x40 DUP4 DUP6 SUB SLT ISZERO PUSH2 0x824 JUMPI PUSH0 PUSH0 REVERT JUMPDEST PUSH2 0x82D DUP4 PUSH2 0x7F8 JUMP JUMPDEST SWAP5 PUSH1 0x20 SWAP4 SWAP1 SWAP4 ADD CALLDATALOAD SWAP4 POP POP POP JUMP JUMPDEST PUSH0 PUSH0 PUSH0 PUSH1 0x60 DUP5 DUP7 SUB SLT ISZERO PUSH2 0x84D JUMPI PUSH0 PUSH0 REVERT JUMPDEST PUSH2 0x856 DUP5 PUSH2 0x7F8 JUMP JUMPDEST SWAP3 POP PUSH2 0x864 PUSH1 0x20 DUP6 ADD PUSH2 0x7F8 JUMP JUMPDEST SWAP3 SWAP6 SWAP3 SWAP5 POP POP POP PUSH1 0x40 SWAP2 SWAP1 SWAP2 ADD CALLDATALOAD SWAP1 JUMP JUMPDEST PUSH0 PUSH1 0x20 DUP3 DUP5 SUB SLT ISZERO PUSH2 0x885 JUMPI PUSH0 PUSH0 REVERT JUMPDEST POP CALLDATALOAD SWAP2 SWAP1 POP JUMP JUMPDEST PUSH0 PUSH1 0x20 DUP3 DUP5 SUB SLT ISZERO PUSH2 0x89C JUMPI PUSH0 PUSH0 REVERT JUMPDEST PUSH2 0x8A5 DUP3 PUSH2 0x7F8 JUMP JUMPDEST SWAP4 SWAP3 POP POP POP JUMP JUMPDEST PUSH0 PUSH0 PUSH1 0x40 DUP4 DUP6 SUB SLT ISZERO PUSH2 0x8BD JUMPI PUSH0 PUSH0 REVERT JUMPDEST PUSH2 0x8C6 DUP4 PUSH2 0x7F8 JUMP JUMPDEST SWAP2 POP PUSH2 0x8D4 PUSH1 0x20 DUP5 ADD PUSH2 0x7F8 JUMP JUMPDEST SWAP1 POP SWAP3 POP SWAP3 SWAP1 POP JUMP JUMPDEST PUSH1 0x1 DUP2 DUP2 SHR SWAP1 DUP3 AND DUP1 PUSH2 0x8F1 JUMPI PUSH1 0x7F DUP3 AND SWAP2 POP JUMPDEST PUSH1 0x20 DUP3 LT DUP2 SUB PUSH2 0x90F JUMPI PUSH4 0x4E487B71 PUSH1 0xE0 SHL PUSH0 MSTORE PUSH1 0x22 PUSH1 0x4 MSTORE PUSH1 0x24 PUSH0 REVERT JUMPDEST POP SWAP2 SWAP1 POP JUMP JUMPDEST PUSH1 0x20 DUP1 DUP3 MSTORE PUSH1 0x14 SWAP1 DUP3 ADD MSTORE PUSH20 0x496E73756666696369656E742062616C616E6365 PUSH1 0x60 SHL PUSH1 0x40 DUP3 ADD MSTORE PUSH1 0x60 ADD SWAP1 JUMP JUMPDEST PUSH4 0x4E487B71 PUSH1 0xE0 SHL PUSH0 MSTORE PUSH1 0x11 PUSH1 0x4 MSTORE PUSH1 0x24 PUSH0 REVERT JUMPDEST DUP2 DUP2 SUB DUP2 DUP2 GT ISZERO PUSH2 0x32B JUMPI PUSH2 0x32B PUSH2 0x943 JUMP JUMPDEST DUP1 DUP3 ADD DUP1 DUP3 GT ISZERO PUSH2 0x32B JUMPI PUSH2 0x32B PUSH2 0x943 JUMP INVALID 0xDD CALLCODE MSTORE 0xAD SHL 0xE2 0xC8 SWAP12 PUSH10 0xC2B068FC378DAA952BA7 CALL PUSH4 0xC4A11628 CREATE2 GAS 0x4D CREATE2 0x23 0xB3 0xEF LOG2 PUSH5 0x6970667358 0x22 SLT KECCAK256 0xCA 0xFC PUSH3 0x9C6374 EXTCALL 0xBF 0xDA DUP5 0xBC CALLDATALOAD DUP4 LOG4 DUP10 MLOAD LT 0x4B SELFBALANCE 0xBE 0xC4 0xA8 RJUMP 0x90A 0xC4 0xCA MCOPY 0xCB JUMP PUSH16 0xD564736F6C634300081F003300000000 "
				},
				"gasEstimates": {
					"creation": {
						"codeDepositCost": "503000",
						"executionCost": "infinite",
						"totalCost": "infinite"
					},
					"external": {
						"allowance(address,address)": "infinite",
						"approve(address,uint256)": "24539",
						"balanceOf(address)": "2538",
						"burn(uint256)": "infinite",
						"decimals()": "2401",
						"mint(address,uint256)": "infinite",
						"name()": "infinite",
						"owner()": "2380",
						"symbol()": "infinite",
						"totalSupply()": "2339",
						"transfer(address,uint256)": "infinite",
						"transferFrom(address,address,uint256)": "infinite"
					}
				},
				"methodIdentifiers": {
					"allowance(address,address)": "dd62ed3e",
					"approve(address,uint256)": "095ea7b3",
					"balanceOf(address)": "70a08231",
					"burn(uint256)": "42966c68",
					"decimals()": "313ce567",
					"mint(address,uint256)": "40c10f19",
					"name()": "06fdde03",
					"owner()": "8da5cb5b",
					"symbol()": "95d89b41",
					"totalSupply()": "18160ddd",
					"transfer(address,uint256)": "a9059cbb",
					"transferFrom(address,address,uint256)": "23b872dd"
				}
			},
			"storageLayout": {
				"storage": [
					{
						"astId": 4,
						"contract": "contracts/task01/test.sol:TokenWithMintBurn",
						"label": "name",
						"offset": 0,
						"slot": "0",
						"type": "t_string_storage"
					},
					{
						"astId": 7,
						"contract": "contracts/task01/test.sol:TokenWithMintBurn",
						"label": "symbol",
						"offset": 0,
						"slot": "1",
						"type": "t_string_storage"
					},
					{
						"astId": 10,
						"contract": "contracts/task01/test.sol:TokenWithMintBurn",
						"label": "decimals",
						"offset": 0,
						"slot": "2",
						"type": "t_uint8"
					},
					{
						"astId": 12,
						"contract": "contracts/task01/test.sol:TokenWithMintBurn",
						"label": "totalSupply",
						"offset": 0,
						"slot": "3",
						"type": "t_uint256"
					},
					{
						"astId": 16,
						"contract": "contracts/task01/test.sol:TokenWithMintBurn",
						"label": "balanceOf",
						"offset": 0,
						"slot": "4",
						"type": "t_mapping(t_address,t_uint256)"
					},
					{
						"astId": 22,
						"contract": "contracts/task01/test.sol:TokenWithMintBurn",
						"label": "allowance",
						"offset": 0,
						"slot": "5",
						"type": "t_mapping(t_address,t_mapping(t_address,t_uint256))"
					},
					{
						"astId": 24,
						"contract": "contracts/task01/test.sol:TokenWithMintBurn",
						"label": "owner",
						"offset": 0,
						"slot": "6",
						"type": "t_address"
					}
				],
				"types": {
					"t_address": {
						"encoding": "inplace",
						"label": "address",
						"numberOfBytes": "20"
					},
					"t_mapping(t_address,t_mapping(t_address,t_uint256))": {
						"encoding": "mapping",
						"key": "t_address",
						"label": "mapping(address => mapping(address => uint256))",
						"numberOfBytes": "32",
						"value": "t_mapping(t_address,t_uint256)"
					},
					"t_mapping(t_address,t_uint256)": {
						"encoding": "mapping",
						"key": "t_address",
						"label": "mapping(address => uint256)",
						"numberOfBytes": "32",
						"value": "t_uint256"
					},
					"t_string_storage": {
						"encoding": "bytes",
						"label": "string",
						"numberOfBytes": "32"
					},
					"t_uint256": {
						"encoding": "inplace",
						"label": "uint256",
						"numberOfBytes": "32"
					},
					"t_uint8": {
						"encoding": "inplace",
						"label": "uint8",
						"numberOfBytes": "1"
					}
				}
			},
			"userdoc": {
				"kind": "user",
				"methods": {},
				"version": 1
			}
		}
	}
}