{
	"contracts/homework/BeggingContract.sol": {
		"BeggingContract": {
			"abi": [
				{
					"inputs": [],
					"stateMutability": "nonpayable",
					"type": "constructor"
				},
				{
					"anonymous": false,
					"inputs": [
						{
							"indexed": true,
							"internalType": "address",
							"name": "donator",
							"type": "address"
						},
						{
							"indexed": false,
							"internalType": "uint256",
							"name": "amount",
							"type": "uint256"
						},
						{
							"indexed": false,
							"internalType": "uint256",
							"name": "timestamp",
							"type": "uint256"
						}
					],
					"name": "DonatedEvent",
					"type": "event"
				},
				{
					"anonymous": false,
					"inputs": [
						{
							"indexed": true,
							"internalType": "address",
							"name": "sender",
							"type": "address"
						},
						{
							"indexed": false,
							"internalType": "uint256",
							"name": "amount",
							"type": "uint256"
						},
						{
							"indexed": false,
							"internalType": "uint256",
							"name": "timestamp",
							"type": "uint256"
						}
					],
					"name": "FallbackEthReceived",
					"type": "event"
				},
				{
					"stateMutability": "payable",
					"type": "fallback"
				},
				{
					"inputs": [
						{
							"internalType": "uint256",
							"name": "amountEth",
							"type": "uint256"
						}
					],
					"name": "donate",
					"outputs": [],
					"stateMutability": "payable",
					"type": "function"
				},
				{
					"inputs": [
						{
							"internalType": "address",
							"name": "",
							"type": "address"
						}
					],
					"name": "donationAmount",
					"outputs": [
						{
							"internalType": "uint256",
							"name": "",
							"type": "uint256"
						}
					],
					"stateMutability": "view",
					"type": "function"
				},
				{
					"inputs": [
						{
							"internalType": "uint256",
							"name": "",
							"type": "uint256"
						}
					],
					"name": "donationList",
					"outputs": [
						{
							"internalType": "address",
							"name": "",
							"type": "address"
						}
					],
					"stateMutability": "view",
					"type": "function"
				},
				{
					"inputs": [],
					"name": "getBalanc",
					"outputs": [
						{
							"internalType": "uint256",
							"name": "",
							"type": "uint256"
						}
					],
					"stateMutability": "view",
					"type": "function"
				},
				{
					"inputs": [
						{
							"internalType": "address",
							"name": "addr",
							"type": "address"
						}
					],
					"name": "getDonation",
					"outputs": [
						{
							"internalType": "uint256",
							"name": "donateEth",
							"type": "uint256"
						}
					],
					"stateMutability": "view",
					"type": "function"
				},
				{
					"inputs": [],
					"name": "getTopThreeList",
					"outputs": [
						{
							"internalType": "address[]",
							"name": "",
							"type": "address[]"
						}
					],
					"stateMutability": "view",
					"type": "function"
				},
				{
					"inputs": [],
					"name": "getUser",
					"outputs": [
						{
							"internalType": "address",
							"name": "",
							"type": "address"
						}
					],
					"stateMutability": "view",
					"type": "function"
				},
				{
					"inputs": [],
					"name": "getUserBalanceEth",
					"outputs": [
						{
							"internalType": "uint256",
							"name": "",
							"type": "uint256"
						}
					],
					"stateMutability": "view",
					"type": "function"
				},
				{
					"inputs": [],
					"name": "getcurrentTimer",
					"outputs": [
						{
							"internalType": "uint256",
							"name": "",
							"type": "uint256"
						}
					],
					"stateMutability": "view",
					"type": "function"
				},
				{
					"inputs": [
						{
							"internalType": "address",
							"name": "",
							"type": "address"
						}
					],
					"name": "isDonation",
					"outputs": [
						{
							"internalType": "bool",
							"name": "",
							"type": "bool"
						}
					],
					"stateMutability": "view",
					"type": "function"
				},
				{
					"inputs": [],
					"name": "owner",
					"outputs": [
						{
							"internalType": "address",
							"name": "",
							"type": "address"
						}
					],
					"stateMutability": "view",
					"type": "function"
				},
				{
					"inputs": [],
					"name": "recipient",
					"outputs": [
						{
							"internalType": "address payable",
							"name": "",
							"type": "address"
						}
					],
					"stateMutability": "view",
					"type": "function"
				},
				{
					"inputs": [],
					"name": "totalDonationsEth",
					"outputs": [
						{
							"internalType": "uint256",
							"name": "",
							"type": "uint256"
						}
					],
					"stateMutability": "view",
					"type": "function"
				},
				{
					"inputs": [
						{
							"internalType": "uint256",
							"name": "amountGwei",
							"type": "uint256"
						}
					],
					"name": "withdraw",
					"outputs": [],
					"stateMutability": "nonpayable",
					"type": "function"
				},
				{
					"inputs": [],
					"name": "withdrawAll",
					"outputs": [],
					"stateMutability": "nonpayable",
					"type": "function"
				},
				{
					"stateMutability": "payable",
					"type": "receive"
				}
			],
			"devdoc": {
				"kind": "dev",
				"methods": {},
				"version": 1
			},
			"evm": {
				"assembly": "    /* \"contracts/homework/BeggingContract.sol\":692:7440  contract BeggingContract{... */\n  mstore(0x40, 0xc0)\n    /* \"contracts/homework/BeggingContract.sol\":1197:1277  constructor(){... */\n  callvalue\n  dup1\n  iszero\n  tag_1\n  jumpi\n  revert(0x00, 0x00)\ntag_1:\n  pop\n    /* \"contracts/homework/BeggingContract.sol\":1226:1236  msg.sender */\n  caller\n    /* \"contracts/homework/BeggingContract.sol\":1220:1236  owner=msg.sender */\n  0xffffffffffffffffffffffffffffffffffffffff\n  and\n  0xa0\n  dup2\n  0xffffffffffffffffffffffffffffffffffffffff\n  and\n  dup2\n  mstore\n  pop\n  pop\n    /* \"contracts/homework/BeggingContract.sol\":1264:1269  owner */\n  mload(0xa0)\n    /* \"contracts/homework/BeggingContract.sol\":1246:1270  recipient=payable(owner) */\n  0xffffffffffffffffffffffffffffffffffffffff\n  and\n  0x80\n  dup2\n  0xffffffffffffffffffffffffffffffffffffffff\n  and\n  dup2\n  mstore\n  pop\n  pop\n    /* \"contracts/homework/BeggingContract.sol\":692:7440  contract BeggingContract{... */\n  mload(0x80)\n  mload(0xa0)\n  codecopy(0x00, dataOffset(sub_0), dataSize(sub_0))\n  0x00\n  assignImmutable(\"0x8fef2229291b68be841adf029e58b87f39ba144b2d3b0af1760243d0a9bc6a1c\")\n  0x00\n  assignImmutable(\"0x277ab82e5a4641341820a4a2933a62c1de997e42e92548657ae21b3728d580fe\")\n  return(0x00, dataSize(sub_0))\nstop\n\nsub_0: assembly {\n        /* \"contracts/homework/BeggingContract.sol\":692:7440  contract BeggingContract{... */\n      mstore(0x40, 0x80)\n      jumpi(tag_1, lt(calldatasize, 0x04))\n      shr(0xe0, calldataload(0x00))\n      dup1\n      0x66d003ac\n      gt\n      tag_18\n      jumpi\n      dup1\n      0x8da5cb5b\n      gt\n      tag_19\n      jumpi\n      dup1\n      0x8da5cb5b\n      eq\n      tag_14\n      jumpi\n      dup1\n      0xae677d8c\n      eq\n      tag_15\n      jumpi\n      dup1\n      0xd876cb23\n      eq\n      tag_16\n      jumpi\n      dup1\n      0xf14faf6f\n      eq\n      tag_17\n      jumpi\n      jump(tag_2)\n    tag_19:\n      dup1\n      0x66d003ac\n      eq\n      tag_10\n      jumpi\n      dup1\n      0x6e2cb32a\n      eq\n      tag_11\n      jumpi\n      dup1\n      0x832880e7\n      eq\n      tag_12\n      jumpi\n      dup1\n      0x853828b6\n      eq\n      tag_13\n      jumpi\n      jump(tag_2)\n    tag_18:\n      dup1\n      0x26646c8c\n      gt\n      tag_20\n      jumpi\n      dup1\n      0x26646c8c\n      eq\n      tag_6\n      jumpi\n      dup1\n      0x2e1a7d4d\n      eq\n      tag_7\n      jumpi\n      dup1\n      0x3a32f280\n      eq\n      tag_8\n      jumpi\n      dup1\n      0x410a1d32\n      eq\n      tag_9\n      jumpi\n      jump(tag_2)\n    tag_20:\n      dup1\n      0x0238cbdc\n      eq\n      tag_3\n      jumpi\n      dup1\n      0x12265a0d\n      eq\n      tag_4\n      jumpi\n      dup1\n      0x1e8a5775\n      eq\n      tag_5\n      jumpi\n      jump(tag_2)\n    tag_1:\n      jumpi(tag_2, calldatasize)\n      stop\n    tag_2:\n        /* \"contracts/homework/BeggingContract.sol\":1688:1698  msg.sender */\n      caller\n        /* \"contracts/homework/BeggingContract.sol\":1668:1727  FallbackEthReceived(msg.sender, msg.value, block.timestamp) */\n      0xffffffffffffffffffffffffffffffffffffffff\n      and\n      0x4a41c8a8177da2bb0efb0974e6d937540b67210cd6d044a55031c9a048e5dec0\n        /* \"contracts/homework/BeggingContract.sol\":1700:1709  msg.value */\n      callvalue\n        /* \"contracts/homework/BeggingContract.sol\":1711:1726  block.timestamp */\n      timestamp\n        /* \"contracts/homework/BeggingContract.sol\":1668:1727  FallbackEthReceived(msg.sender, msg.value, block.timestamp) */\n      mload(0x40)\n      tag_25\n      swap3\n      swap2\n      swap1\n      tag_26\n      jump\t// in\n    tag_25:\n      mload(0x40)\n      dup1\n      swap2\n      sub\n      swap1\n      log2\n        /* \"contracts/homework/BeggingContract.sol\":692:7440  contract BeggingContract{... */\n      stop\n        /* \"contracts/homework/BeggingContract.sol\":900:929  address[] public donationList */\n    tag_3:\n      callvalue\n      dup1\n      iszero\n      tag_27\n      jumpi\n      revert(0x00, 0x00)\n    tag_27:\n      pop\n      tag_28\n      0x04\n      dup1\n      calldatasize\n      sub\n      dup2\n      add\n      swap1\n      tag_29\n      swap2\n      swap1\n      tag_30\n      jump\t// in\n    tag_29:\n      tag_31\n      jump\t// in\n    tag_28:\n      mload(0x40)\n      tag_32\n      swap2\n      swap1\n      tag_33\n      jump\t// in\n    tag_32:\n      mload(0x40)\n      dup1\n      swap2\n      sub\n      swap1\n      return\n        /* \"contracts/homework/BeggingContract.sol\":1016:1056  mapping(address=>bool) public isDonation */\n    tag_4:\n      callvalue\n      dup1\n      iszero\n      tag_34\n      jumpi\n      revert(0x00, 0x00)\n    tag_34:\n      pop\n      tag_35\n      0x04\n      dup1\n      calldatasize\n      sub\n      dup2\n      add\n      swap1\n      tag_36\n      swap2\n      swap1\n      tag_37\n      jump\t// in\n    tag_36:\n      tag_38\n      jump\t// in\n    tag_35:\n      mload(0x40)\n      tag_39\n      swap2\n      swap1\n      tag_40\n      jump\t// in\n    tag_39:\n      mload(0x40)\n      dup1\n      swap2\n      sub\n      swap1\n      return\n        /* \"contracts/homework/BeggingContract.sol\":6060:6428  function getTopThreeList()public view returns(address[] memory){... */\n    tag_5:\n      callvalue\n      dup1\n      iszero\n      tag_41\n      jumpi\n      revert(0x00, 0x00)\n    tag_41:\n      pop\n      tag_42\n      tag_43\n      jump\t// in\n    tag_42:\n      mload(0x40)\n      tag_44\n      swap2\n      swap1\n      tag_45\n      jump\t// in\n    tag_44:\n      mload(0x40)\n      dup1\n      swap2\n      sub\n      swap1\n      return\n        /* \"contracts/homework/BeggingContract.sol\":1766:1979  function getcurrentTimer()external  view returns(uint256){... */\n    tag_6:\n      callvalue\n      dup1\n      iszero\n      tag_46\n      jumpi\n      revert(0x00, 0x00)\n    tag_46:\n      pop\n      tag_47\n      tag_48\n      jump\t// in\n    tag_47:\n      mload(0x40)\n      tag_49\n      swap2\n      swap1\n      tag_50\n      jump\t// in\n    tag_49:\n      mload(0x40)\n      dup1\n      swap2\n      sub\n      swap1\n      return\n        /* \"contracts/homework/BeggingContract.sol\":6511:6870  function withdraw(uint256 amountGwei)public isAdmin {... */\n    tag_7:\n      callvalue\n      dup1\n      iszero\n      tag_51\n      jumpi\n      revert(0x00, 0x00)\n    tag_51:\n      pop\n      tag_52\n      0x04\n      dup1\n      calldatasize\n      sub\n      dup2\n      add\n      swap1\n      tag_53\n      swap2\n      swap1\n      tag_30\n      jump\t// in\n    tag_53:\n      tag_54\n      jump\t// in\n    tag_52:\n      stop\n        /* \"contracts/homework/BeggingContract.sol\":2655:2793  function getBalanc()public   view returns(uint256){... */\n    tag_8:\n      callvalue\n      dup1\n      iszero\n      tag_55\n      jumpi\n      revert(0x00, 0x00)\n    tag_55:\n      pop\n      tag_56\n      tag_57\n      jump\t// in\n    tag_56:\n      mload(0x40)\n      tag_58\n      swap2\n      swap1\n      tag_50\n      jump\t// in\n    tag_58:\n      mload(0x40)\n      dup1\n      swap2\n      sub\n      swap1\n      return\n        /* \"contracts/homework/BeggingContract.sol\":7316:7434  function getDonation(address addr)public view  returns (uint256 donateEth){... */\n    tag_9:\n      callvalue\n      dup1\n      iszero\n      tag_59\n      jumpi\n      revert(0x00, 0x00)\n    tag_59:\n      pop\n      tag_60\n      0x04\n      dup1\n      calldatasize\n      sub\n      dup2\n      add\n      swap1\n      tag_61\n      swap2\n      swap1\n      tag_37\n      jump\t// in\n    tag_61:\n      tag_62\n      jump\t// in\n    tag_60:\n      mload(0x40)\n      tag_63\n      swap2\n      swap1\n      tag_50\n      jump\t// in\n    tag_63:\n      mload(0x40)\n      dup1\n      swap2\n      sub\n      swap1\n      return\n        /* \"contracts/homework/BeggingContract.sol\":1089:1131  address payable immutable public recipient */\n    tag_10:\n      callvalue\n      dup1\n      iszero\n      tag_64\n      jumpi\n      revert(0x00, 0x00)\n    tag_64:\n      pop\n      tag_65\n      tag_66\n      jump\t// in\n    tag_65:\n      mload(0x40)\n      tag_67\n      swap2\n      swap1\n      tag_68\n      jump\t// in\n    tag_67:\n      mload(0x40)\n      dup1\n      swap2\n      sub\n      swap1\n      return\n        /* \"contracts/homework/BeggingContract.sol\":2463:2617  function getUserBalanceEth()external  view returns(uint256){... */\n    tag_11:\n      callvalue\n      dup1\n      iszero\n      tag_69\n      jumpi\n      revert(0x00, 0x00)\n    tag_69:\n      pop\n      tag_70\n      tag_71\n      jump\t// in\n    tag_70:\n      mload(0x40)\n      tag_72\n      swap2\n      swap1\n      tag_50\n      jump\t// in\n    tag_72:\n      mload(0x40)\n      dup1\n      swap2\n      sub\n      swap1\n      return\n        /* \"contracts/homework/BeggingContract.sol\":2799:2879  function getUser()public view returns(address){... */\n    tag_12:\n      callvalue\n      dup1\n      iszero\n      tag_73\n      jumpi\n      revert(0x00, 0x00)\n    tag_73:\n      pop\n      tag_74\n      tag_75\n      jump\t// in\n    tag_74:\n      mload(0x40)\n      tag_76\n      swap2\n      swap1\n      tag_33\n      jump\t// in\n    tag_76:\n      mload(0x40)\n      dup1\n      swap2\n      sub\n      swap1\n      return\n        /* \"contracts/homework/BeggingContract.sol\":6955:7232  function withdrawAll()public isAdmin  {... */\n    tag_13:\n      callvalue\n      dup1\n      iszero\n      tag_77\n      jumpi\n      revert(0x00, 0x00)\n    tag_77:\n      pop\n      tag_78\n      tag_79\n      jump\t// in\n    tag_78:\n      stop\n        /* \"contracts/homework/BeggingContract.sol\":1161:1191  address public immutable owner */\n    tag_14:\n      callvalue\n      dup1\n      iszero\n      tag_80\n      jumpi\n      revert(0x00, 0x00)\n    tag_80:\n      pop\n      tag_81\n      tag_82\n      jump\t// in\n    tag_81:\n      mload(0x40)\n      tag_83\n      swap2\n      swap1\n      tag_33\n      jump\t// in\n    tag_83:\n      mload(0x40)\n      dup1\n      swap2\n      sub\n      swap1\n      return\n        /* \"contracts/homework/BeggingContract.sol\":817:864  mapping(address=>uint256) public donationAmount */\n    tag_15:\n      callvalue\n      dup1\n      iszero\n      tag_84\n      jumpi\n      revert(0x00, 0x00)\n    tag_84:\n      pop\n      tag_85\n      0x04\n      dup1\n      calldatasize\n      sub\n      dup2\n      add\n      swap1\n      tag_86\n      swap2\n      swap1\n      tag_37\n      jump\t// in\n    tag_86:\n      tag_87\n      jump\t// in\n    tag_85:\n      mload(0x40)\n      tag_88\n      swap2\n      swap1\n      tag_50\n      jump\t// in\n    tag_88:\n      mload(0x40)\n      dup1\n      swap2\n      sub\n      swap1\n      return\n        /* \"contracts/homework/BeggingContract.sol\":751:783  uint256 public totalDonationsEth */\n    tag_16:\n      callvalue\n      dup1\n      iszero\n      tag_89\n      jumpi\n      revert(0x00, 0x00)\n    tag_89:\n      pop\n      tag_90\n      tag_91\n      jump\t// in\n    tag_90:\n      mload(0x40)\n      tag_92\n      swap2\n      swap1\n      tag_50\n      jump\t// in\n    tag_92:\n      mload(0x40)\n      dup1\n      swap2\n      sub\n      swap1\n      return\n        /* \"contracts/homework/BeggingContract.sol\":2971:6025  function donate(uint256 amountEth)external payable timeLimit  {... */\n    tag_17:\n      tag_93\n      0x04\n      dup1\n      calldatasize\n      sub\n      dup2\n      add\n      swap1\n      tag_94\n      swap2\n      swap1\n      tag_30\n      jump\t// in\n    tag_94:\n      tag_95\n      jump\t// in\n    tag_93:\n      stop\n        /* \"contracts/homework/BeggingContract.sol\":900:929  address[] public donationList */\n    tag_31:\n      0x02\n      dup2\n      dup2\n      sload\n      dup2\n      lt\n      tag_96\n      jumpi\n      0x00\n      dup1\n      revert\n    tag_96:\n      swap1\n      0x00\n      mstore\n      keccak256(0x00, 0x20)\n      add\n      0x00\n      swap2\n      pop\n      sload\n      swap1\n      0x0100\n      exp\n      swap1\n      div\n      0xffffffffffffffffffffffffffffffffffffffff\n      and\n      dup2\n      jump\t// out\n        /* \"contracts/homework/BeggingContract.sol\":1016:1056  mapping(address=>bool) public isDonation */\n    tag_38:\n      mstore(0x20, 0x03)\n      dup1\n      0x00\n      mstore\n      keccak256(0x00, 0x40)\n      0x00\n      swap2\n      pop\n      sload\n      swap1\n      0x0100\n      exp\n      swap1\n      div\n      0xff\n      and\n      dup2\n      jump\t// out\n        /* \"contracts/homework/BeggingContract.sol\":6060:6428  function getTopThreeList()public view returns(address[] memory){... */\n    tag_43:\n        /* \"contracts/homework/BeggingContract.sol\":6106:6122  address[] memory */\n      0x60\n        /* \"contracts/homework/BeggingContract.sol\":6166:6185  uint256 donationLen */\n      0x00\n        /* \"contracts/homework/BeggingContract.sol\":6187:6199  donationList */\n      0x02\n        /* \"contracts/homework/BeggingContract.sol\":6187:6206  donationList.length */\n      dup1\n      sload\n      swap1\n      pop\n        /* \"contracts/homework/BeggingContract.sol\":6166:6206  uint256 donationLen =donationList.length */\n      swap1\n      pop\n        /* \"contracts/homework/BeggingContract.sol\":6216:6245  address[] memory topThreeList */\n      0x00\n        /* \"contracts/homework/BeggingContract.sol\":6262:6263  3 */\n      0x03\n        /* \"contracts/homework/BeggingContract.sol\":6248:6264  new address[](3) */\n      0xffffffffffffffff\n      dup2\n      gt\n      iszero\n      tag_99\n      jumpi\n      tag_100\n      tag_101\n      jump\t// in\n    tag_100:\n    tag_99:\n      mload(0x40)\n      swap1\n      dup1\n      dup3\n      mstore\n      dup1\n      0x20\n      mul\n      0x20\n      add\n      dup3\n      add\n      0x40\n      mstore\n      dup1\n      iszero\n      tag_102\n      jumpi\n      dup2\n      0x20\n      add\n      0x20\n      dup3\n      mul\n      dup1\n      calldatasize\n      dup4\n      calldatacopy\n      dup1\n      dup3\n      add\n      swap2\n      pop\n      pop\n      swap1\n      pop\n    tag_102:\n      pop\n        /* \"contracts/homework/BeggingContract.sol\":6216:6264  address[] memory topThreeList = new address[](3) */\n      swap1\n      pop\n        /* \"contracts/homework/BeggingContract.sol\":6278:6287  uint256 i */\n      0x00\n        /* \"contracts/homework/BeggingContract.sol\":6288:6289  0 */\n      0x00\n        /* \"contracts/homework/BeggingContract.sol\":6278:6289  uint256 i=0 */\n      swap1\n      pop\n        /* \"contracts/homework/BeggingContract.sol\":6274:6392  for(uint256 i=0;i<3;i++){... */\n    tag_103:\n        /* \"contracts/homework/BeggingContract.sol\":6292:6293  3 */\n      0x03\n        /* \"contracts/homework/BeggingContract.sol\":6290:6291  i */\n      dup2\n        /* \"contracts/homework/BeggingContract.sol\":6290:6293  i<3 */\n      lt\n        /* \"contracts/homework/BeggingContract.sol\":6274:6392  for(uint256 i=0;i<3;i++){... */\n      iszero\n      tag_104\n      jumpi\n        /* \"contracts/homework/BeggingContract.sol\":6318:6329  donationLen */\n      dup3\n        /* \"contracts/homework/BeggingContract.sol\":6315:6316  i */\n      dup2\n        /* \"contracts/homework/BeggingContract.sol\":6315:6329  i==donationLen */\n      sub\n        /* \"contracts/homework/BeggingContract.sol\":6312:6335  if(i==donationLen)break */\n      iszero\n        /* \"contracts/homework/BeggingContract.sol\":6330:6335  break */\n      tag_104\n        /* \"contracts/homework/BeggingContract.sol\":6312:6335  if(i==donationLen)break */\n      jumpi\n        /* \"contracts/homework/BeggingContract.sol\":6366:6378  donationList */\n      0x02\n        /* \"contracts/homework/BeggingContract.sol\":6379:6380  i */\n      dup2\n        /* \"contracts/homework/BeggingContract.sol\":6366:6381  donationList[i] */\n      dup2\n      sload\n      dup2\n      lt\n      tag_107\n      jumpi\n      tag_108\n      tag_109\n      jump\t// in\n    tag_108:\n    tag_107:\n      swap1\n      0x00\n      mstore\n      keccak256(0x00, 0x20)\n      add\n      0x00\n      swap1\n      sload\n      swap1\n      0x0100\n      exp\n      swap1\n      div\n      0xffffffffffffffffffffffffffffffffffffffff\n      and\n        /* \"contracts/homework/BeggingContract.sol\":6350:6362  topThreeList */\n      dup3\n        /* \"contracts/homework/BeggingContract.sol\":6363:6364  i */\n      dup3\n        /* \"contracts/homework/BeggingContract.sol\":6350:6365  topThreeList[i] */\n      dup2\n      mload\n      dup2\n      lt\n      tag_111\n      jumpi\n      tag_112\n      tag_109\n      jump\t// in\n    tag_112:\n    tag_111:\n      0x20\n      mul\n      0x20\n      add\n      add\n        /* \"contracts/homework/BeggingContract.sol\":6350:6381  topThreeList[i]=donationList[i] */\n      swap1\n      0xffffffffffffffffffffffffffffffffffffffff\n      and\n      swap1\n      dup2\n      0xffffffffffffffffffffffffffffffffffffffff\n      and\n      dup2\n      mstore\n      pop\n      pop\n        /* \"contracts/homework/BeggingContract.sol\":6294:6297  i++ */\n      dup1\n      dup1\n      0x01\n      add\n      swap2\n      pop\n      pop\n        /* \"contracts/homework/BeggingContract.sol\":6274:6392  for(uint256 i=0;i<3;i++){... */\n      jump(tag_103)\n    tag_104:\n      pop\n        /* \"contracts/homework/BeggingContract.sol\":6409:6421  topThreeList */\n      dup1\n        /* \"contracts/homework/BeggingContract.sol\":6402:6421  return topThreeList */\n      swap3\n      pop\n      pop\n      pop\n        /* \"contracts/homework/BeggingContract.sol\":6060:6428  function getTopThreeList()public view returns(address[] memory){... */\n      swap1\n      jump\t// out\n        /* \"contracts/homework/BeggingContract.sol\":1766:1979  function getcurrentTimer()external  view returns(uint256){... */\n    tag_48:\n        /* \"contracts/homework/BeggingContract.sol\":1815:1822  uint256 */\n      0x00\n        /* \"contracts/homework/BeggingContract.sol\":1833:1859  uint256 currentSecondOfDay */\n      0x00\n        /* \"contracts/homework/BeggingContract.sol\":1880:1886  1 days */\n      0x015180\n        /* \"contracts/homework/BeggingContract.sol\":1862:1877  block.timestamp */\n      timestamp\n        /* \"contracts/homework/BeggingContract.sol\":1862:1886  block.timestamp % 1 days */\n      tag_114\n      swap2\n      swap1\n      tag_115\n      jump\t// in\n    tag_114:\n        /* \"contracts/homework/BeggingContract.sol\":1833:1886  uint256 currentSecondOfDay = block.timestamp % 1 days */\n      swap1\n      pop\n        /* \"contracts/homework/BeggingContract.sol\":1896:1915  uint256 currentHour */\n      0x00\n        /* \"contracts/homework/BeggingContract.sol\":1937:1944  1 hours */\n      0x0e10\n        /* \"contracts/homework/BeggingContract.sol\":1917:1935  currentSecondOfDay */\n      dup3\n        /* \"contracts/homework/BeggingContract.sol\":1917:1944  currentSecondOfDay /1 hours */\n      tag_116\n      swap2\n      swap1\n      tag_117\n      jump\t// in\n    tag_116:\n        /* \"contracts/homework/BeggingContract.sol\":1896:1944  uint256 currentHour= currentSecondOfDay /1 hours */\n      swap1\n      pop\n        /* \"contracts/homework/BeggingContract.sol\":1961:1972  currentHour */\n      dup1\n        /* \"contracts/homework/BeggingContract.sol\":1954:1972  return currentHour */\n      swap3\n      pop\n      pop\n      pop\n        /* \"contracts/homework/BeggingContract.sol\":1766:1979  function getcurrentTimer()external  view returns(uint256){... */\n      swap1\n      jump\t// out\n        /* \"contracts/homework/BeggingContract.sol\":6511:6870  function withdraw(uint256 amountGwei)public isAdmin {... */\n    tag_54:\n        /* \"contracts/homework/BeggingContract.sol\":2390:2395  owner */\n      immutable(\"0x8fef2229291b68be841adf029e58b87f39ba144b2d3b0af1760243d0a9bc6a1c\")\n        /* \"contracts/homework/BeggingContract.sol\":2378:2395  msg.sender==owner */\n      0xffffffffffffffffffffffffffffffffffffffff\n      and\n        /* \"contracts/homework/BeggingContract.sol\":2378:2388  msg.sender */\n      caller\n        /* \"contracts/homework/BeggingContract.sol\":2378:2395  msg.sender==owner */\n      0xffffffffffffffffffffffffffffffffffffffff\n      and\n      eq\n        /* \"contracts/homework/BeggingContract.sol\":2370:2407  require(msg.sender==owner,\"No Admin\") */\n      tag_119\n      jumpi\n      mload(0x40)\n      0x08c379a000000000000000000000000000000000000000000000000000000000\n      dup2\n      mstore\n      0x04\n      add\n      tag_120\n      swap1\n      tag_121\n      jump\t// in\n    tag_120:\n      mload(0x40)\n      dup1\n      swap2\n      sub\n      swap1\n      revert\n    tag_119:\n        /* \"contracts/homework/BeggingContract.sol\":6577:6600  uint256 contractBalance */\n      0x00\n        /* \"contracts/homework/BeggingContract.sol\":6603:6624  address(this).balance */\n      selfbalance\n        /* \"contracts/homework/BeggingContract.sol\":6577:6624  uint256 contractBalance = address(this).balance */\n      swap1\n      pop\n        /* \"contracts/homework/BeggingContract.sol\":6660:6661  0 */\n      0x00\n        /* \"contracts/homework/BeggingContract.sol\":6647:6657  amountGwei */\n      dup3\n        /* \"contracts/homework/BeggingContract.sol\":6647:6661  amountGwei > 0 */\n      gt\n        /* \"contracts/homework/BeggingContract.sol\":6647:6684  amountGwei > 0 && contractBalance > 0 */\n      dup1\n      iszero\n      tag_123\n      jumpi\n      pop\n        /* \"contracts/homework/BeggingContract.sol\":6683:6684  0 */\n      0x00\n        /* \"contracts/homework/BeggingContract.sol\":6665:6680  contractBalance */\n      dup2\n        /* \"contracts/homework/BeggingContract.sol\":6665:6684  contractBalance > 0 */\n      gt\n        /* \"contracts/homework/BeggingContract.sol\":6647:6684  amountGwei > 0 && contractBalance > 0 */\n    tag_123:\n        /* \"contracts/homework/BeggingContract.sol\":6647:6717  amountGwei > 0 && contractBalance > 0 && amountGwei <= contractBalance */\n      dup1\n      iszero\n      tag_124\n      jumpi\n      pop\n        /* \"contracts/homework/BeggingContract.sol\":6702:6717  contractBalance */\n      dup1\n        /* \"contracts/homework/BeggingContract.sol\":6688:6698  amountGwei */\n      dup3\n        /* \"contracts/homework/BeggingContract.sol\":6688:6717  amountGwei <= contractBalance */\n      gt\n      iszero\n        /* \"contracts/homework/BeggingContract.sol\":6647:6717  amountGwei > 0 && contractBalance > 0 && amountGwei <= contractBalance */\n    tag_124:\n        /* \"contracts/homework/BeggingContract.sol\":6630:6794  require(... */\n      tag_125\n      jumpi\n      mload(0x40)\n      0x08c379a000000000000000000000000000000000000000000000000000000000\n      dup2\n      mstore\n      0x04\n      add\n      tag_126\n      swap1\n      tag_127\n      jump\t// in\n    tag_126:\n      mload(0x40)\n      dup1\n      swap2\n      sub\n      swap1\n      revert\n    tag_125:\n        /* \"contracts/homework/BeggingContract.sol\":6836:6841  owner */\n      immutable(\"0x8fef2229291b68be841adf029e58b87f39ba144b2d3b0af1760243d0a9bc6a1c\")\n        /* \"contracts/homework/BeggingContract.sol\":6828:6851  payable(owner).transfer */\n      0xffffffffffffffffffffffffffffffffffffffff\n      and\n        /* \"contracts/homework/BeggingContract.sol\":6828:6863  payable(owner).transfer(amountGwei) */\n      0x08fc\n        /* \"contracts/homework/BeggingContract.sol\":6852:6862  amountGwei */\n      dup4\n        /* \"contracts/homework/BeggingContract.sol\":6828:6863  payable(owner).transfer(amountGwei) */\n      swap1\n      dup2\n      iszero\n      mul\n      swap1\n      mload(0x40)\n      0x00\n      mload(0x40)\n      dup1\n      dup4\n      sub\n      dup2\n      dup6\n      dup9\n      dup9\n      call\n      swap4\n      pop\n      pop\n      pop\n      pop\n      iszero\n      dup1\n      iszero\n      tag_129\n      jumpi\n      returndatacopy(0x00, 0x00, returndatasize)\n      revert(0x00, returndatasize)\n    tag_129:\n      pop\n        /* \"contracts/homework/BeggingContract.sol\":6563:6870  {... */\n      pop\n        /* \"contracts/homework/BeggingContract.sol\":6511:6870  function withdraw(uint256 amountGwei)public isAdmin {... */\n      pop\n      jump\t// out\n        /* \"contracts/homework/BeggingContract.sol\":2655:2793  function getBalanc()public   view returns(uint256){... */\n    tag_57:\n        /* \"contracts/homework/BeggingContract.sol\":2697:2704  uint256 */\n      0x00\n        /* \"contracts/homework/BeggingContract.sol\":2715:2734  uint256 userbalance */\n      0x00\n        /* \"contracts/homework/BeggingContract.sol\":2737:2758  address(this).balance */\n      selfbalance\n        /* \"contracts/homework/BeggingContract.sol\":2715:2758  uint256 userbalance = address(this).balance */\n      swap1\n      pop\n        /* \"contracts/homework/BeggingContract.sol\":2775:2786  userbalance */\n      dup1\n        /* \"contracts/homework/BeggingContract.sol\":2768:2786  return userbalance */\n      swap2\n      pop\n      pop\n        /* \"contracts/homework/BeggingContract.sol\":2655:2793  function getBalanc()public   view returns(uint256){... */\n      swap1\n      jump\t// out\n        /* \"contracts/homework/BeggingContract.sol\":7316:7434  function getDonation(address addr)public view  returns (uint256 donateEth){... */\n    tag_62:\n        /* \"contracts/homework/BeggingContract.sol\":7372:7389  uint256 donateEth */\n      0x00\n        /* \"contracts/homework/BeggingContract.sol\":7407:7421  donationAmount */\n      0x01\n        /* \"contracts/homework/BeggingContract.sol\":7407:7427  donationAmount[addr] */\n      0x00\n        /* \"contracts/homework/BeggingContract.sol\":7422:7426  addr */\n      dup4\n        /* \"contracts/homework/BeggingContract.sol\":7407:7427  donationAmount[addr] */\n      0xffffffffffffffffffffffffffffffffffffffff\n      and\n      0xffffffffffffffffffffffffffffffffffffffff\n      and\n      dup2\n      mstore\n      0x20\n      add\n      swap1\n      dup2\n      mstore\n      0x20\n      add\n      0x00\n      keccak256\n      sload\n        /* \"contracts/homework/BeggingContract.sol\":7400:7427  return donationAmount[addr] */\n      swap1\n      pop\n        /* \"contracts/homework/BeggingContract.sol\":7316:7434  function getDonation(address addr)public view  returns (uint256 donateEth){... */\n      swap2\n      swap1\n      pop\n      jump\t// out\n        /* \"contracts/homework/BeggingContract.sol\":1089:1131  address payable immutable public recipient */\n    tag_66:\n      immutable(\"0x277ab82e5a4641341820a4a2933a62c1de997e42e92548657ae21b3728d580fe\")\n      dup2\n      jump\t// out\n        /* \"contracts/homework/BeggingContract.sol\":2463:2617  function getUserBalanceEth()external  view returns(uint256){... */\n    tag_71:\n        /* \"contracts/homework/BeggingContract.sol\":2514:2521  uint256 */\n      0x00\n        /* \"contracts/homework/BeggingContract.sol\":2532:2551  uint256 userbalance */\n      0x00\n        /* \"contracts/homework/BeggingContract.sol\":2575:2582  1 ether */\n      0x0de0b6b3a7640000\n        /* \"contracts/homework/BeggingContract.sol\":2554:2564  msg.sender */\n      caller\n        /* \"contracts/homework/BeggingContract.sol\":2554:2572  msg.sender.balance */\n      0xffffffffffffffffffffffffffffffffffffffff\n      and\n      balance\n        /* \"contracts/homework/BeggingContract.sol\":2554:2582  msg.sender.balance / 1 ether */\n      tag_133\n      swap2\n      swap1\n      tag_117\n      jump\t// in\n    tag_133:\n        /* \"contracts/homework/BeggingContract.sol\":2532:2582  uint256 userbalance = msg.sender.balance / 1 ether */\n      swap1\n      pop\n        /* \"contracts/homework/BeggingContract.sol\":2599:2610  userbalance */\n      dup1\n        /* \"contracts/homework/BeggingContract.sol\":2592:2610  return userbalance */\n      swap2\n      pop\n      pop\n        /* \"contracts/homework/BeggingContract.sol\":2463:2617  function getUserBalanceEth()external  view returns(uint256){... */\n      swap1\n      jump\t// out\n        /* \"contracts/homework/BeggingContract.sol\":2799:2879  function getUser()public view returns(address){... */\n    tag_75:\n        /* \"contracts/homework/BeggingContract.sol\":2837:2844  address */\n      0x00\n        /* \"contracts/homework/BeggingContract.sol\":2862:2872  msg.sender */\n      caller\n        /* \"contracts/homework/BeggingContract.sol\":2855:2872  return msg.sender */\n      swap1\n      pop\n        /* \"contracts/homework/BeggingContract.sol\":2799:2879  function getUser()public view returns(address){... */\n      swap1\n      jump\t// out\n        /* \"contracts/homework/BeggingContract.sol\":6955:7232  function withdrawAll()public isAdmin  {... */\n    tag_79:\n        /* \"contracts/homework/BeggingContract.sol\":2390:2395  owner */\n      immutable(\"0x8fef2229291b68be841adf029e58b87f39ba144b2d3b0af1760243d0a9bc6a1c\")\n        /* \"contracts/homework/BeggingContract.sol\":2378:2395  msg.sender==owner */\n      0xffffffffffffffffffffffffffffffffffffffff\n      and\n        /* \"contracts/homework/BeggingContract.sol\":2378:2388  msg.sender */\n      caller\n        /* \"contracts/homework/BeggingContract.sol\":2378:2395  msg.sender==owner */\n      0xffffffffffffffffffffffffffffffffffffffff\n      and\n      eq\n        /* \"contracts/homework/BeggingContract.sol\":2370:2407  require(msg.sender==owner,\"No Admin\") */\n      tag_136\n      jumpi\n      mload(0x40)\n      0x08c379a000000000000000000000000000000000000000000000000000000000\n      dup2\n      mstore\n      0x04\n      add\n      tag_137\n      swap1\n      tag_121\n      jump\t// in\n    tag_137:\n      mload(0x40)\n      dup1\n      swap2\n      sub\n      swap1\n      revert\n    tag_136:\n        /* \"contracts/homework/BeggingContract.sol\":7067:7083  uint256 _balance */\n      0x00\n        /* \"contracts/homework/BeggingContract.sol\":7084:7105  address(this).balance */\n      selfbalance\n        /* \"contracts/homework/BeggingContract.sol\":7067:7105  uint256 _balance=address(this).balance */\n      swap1\n      pop\n        /* \"contracts/homework/BeggingContract.sol\":7132:7133  0 */\n      0x00\n        /* \"contracts/homework/BeggingContract.sol\":7123:7131  _balance */\n      dup2\n        /* \"contracts/homework/BeggingContract.sol\":7123:7133  _balance>0 */\n      gt\n        /* \"contracts/homework/BeggingContract.sol\":7115:7157  require(_balance>0,\"Balance Insufficient\") */\n      tag_139\n      jumpi\n      mload(0x40)\n      0x08c379a000000000000000000000000000000000000000000000000000000000\n      dup2\n      mstore\n      0x04\n      add\n      tag_140\n      swap1\n      tag_141\n      jump\t// in\n    tag_140:\n      mload(0x40)\n      dup1\n      swap2\n      sub\n      swap1\n      revert\n    tag_139:\n        /* \"contracts/homework/BeggingContract.sol\":7200:7205  owner */\n      immutable(\"0x8fef2229291b68be841adf029e58b87f39ba144b2d3b0af1760243d0a9bc6a1c\")\n        /* \"contracts/homework/BeggingContract.sol\":7192:7215  payable(owner).transfer */\n      0xffffffffffffffffffffffffffffffffffffffff\n      and\n        /* \"contracts/homework/BeggingContract.sol\":7192:7225  payable(owner).transfer(_balance) */\n      0x08fc\n        /* \"contracts/homework/BeggingContract.sol\":7216:7224  _balance */\n      dup3\n        /* \"contracts/homework/BeggingContract.sol\":7192:7225  payable(owner).transfer(_balance) */\n      swap1\n      dup2\n      iszero\n      mul\n      swap1\n      mload(0x40)\n      0x00\n      mload(0x40)\n      dup1\n      dup4\n      sub\n      dup2\n      dup6\n      dup9\n      dup9\n      call\n      swap4\n      pop\n      pop\n      pop\n      pop\n      iszero\n      dup1\n      iszero\n      tag_143\n      jumpi\n      returndatacopy(0x00, 0x00, returndatasize)\n      revert(0x00, returndatasize)\n    tag_143:\n      pop\n        /* \"contracts/homework/BeggingContract.sol\":6993:7232  {... */\n      pop\n        /* \"contracts/homework/BeggingContract.sol\":6955:7232  function withdrawAll()public isAdmin  {... */\n      jump\t// out\n        /* \"contracts/homework/BeggingContract.sol\":1161:1191  address public immutable owner */\n    tag_82:\n      immutable(\"0x8fef2229291b68be841adf029e58b87f39ba144b2d3b0af1760243d0a9bc6a1c\")\n      dup2\n      jump\t// out\n        /* \"contracts/homework/BeggingContract.sol\":817:864  mapping(address=>uint256) public donationAmount */\n    tag_87:\n      mstore(0x20, 0x01)\n      dup1\n      0x00\n      mstore\n      keccak256(0x00, 0x40)\n      0x00\n      swap2\n      pop\n      swap1\n      pop\n      sload\n      dup2\n      jump\t// out\n        /* \"contracts/homework/BeggingContract.sol\":751:783  uint256 public totalDonationsEth */\n    tag_91:\n      sload(0x00)\n      dup2\n      jump\t// out\n        /* \"contracts/homework/BeggingContract.sol\":2971:6025  function donate(uint256 amountEth)external payable timeLimit  {... */\n    tag_95:\n        /* \"contracts/homework/BeggingContract.sol\":2043:2069  uint256 currentSecondOfDay */\n      0x00\n        /* \"contracts/homework/BeggingContract.sol\":2090:2096  1 days */\n      0x015180\n        /* \"contracts/homework/BeggingContract.sol\":2072:2087  block.timestamp */\n      timestamp\n        /* \"contracts/homework/BeggingContract.sol\":2072:2096  block.timestamp % 1 days */\n      tag_145\n      swap2\n      swap1\n      tag_115\n      jump\t// in\n    tag_145:\n        /* \"contracts/homework/BeggingContract.sol\":2043:2096  uint256 currentSecondOfDay = block.timestamp % 1 days */\n      swap1\n      pop\n        /* \"contracts/homework/BeggingContract.sol\":2106:2125  uint256 currentHour */\n      0x00\n        /* \"contracts/homework/BeggingContract.sol\":2147:2154  1 hours */\n      0x0e10\n        /* \"contracts/homework/BeggingContract.sol\":2127:2145  currentSecondOfDay */\n      dup3\n        /* \"contracts/homework/BeggingContract.sol\":2127:2154  currentSecondOfDay /1 hours */\n      tag_146\n      swap2\n      swap1\n      tag_117\n      jump\t// in\n    tag_146:\n        /* \"contracts/homework/BeggingContract.sol\":2106:2154  uint256 currentHour= currentSecondOfDay /1 hours */\n      swap1\n      pop\n        /* \"contracts/homework/BeggingContract.sol\":2187:2189  12 */\n      0x0c\n        /* \"contracts/homework/BeggingContract.sol\":2172:2183  currentHour */\n      dup2\n        /* \"contracts/homework/BeggingContract.sol\":2172:2189  currentHour >= 12 */\n      lt\n      iszero\n        /* \"contracts/homework/BeggingContract.sol\":2172:2209  currentHour >= 12 && currentHour < 13 */\n      dup1\n      iszero\n      tag_147\n      jumpi\n      pop\n        /* \"contracts/homework/BeggingContract.sol\":2207:2209  13 */\n      0x0d\n        /* \"contracts/homework/BeggingContract.sol\":2193:2204  currentHour */\n      dup2\n        /* \"contracts/homework/BeggingContract.sol\":2193:2209  currentHour < 13 */\n      lt\n        /* \"contracts/homework/BeggingContract.sol\":2172:2209  currentHour >= 12 && currentHour < 13 */\n    tag_147:\n        /* \"contracts/homework/BeggingContract.sol\":2164:2264  require(currentHour >= 12 && currentHour < 13 ,\"Voting is only allowed between 12:00 and 13:00 UTC\") */\n      tag_148\n      jumpi\n      mload(0x40)\n      0x08c379a000000000000000000000000000000000000000000000000000000000\n      dup2\n      mstore\n      0x04\n      add\n      tag_149\n      swap1\n      tag_150\n      jump\t// in\n    tag_149:\n      mload(0x40)\n      dup1\n      swap2\n      sub\n      swap1\n      revert\n    tag_148:\n        /* \"contracts/homework/BeggingContract.sol\":3067:3084  uint256 amountWei */\n      0x00\n        /* \"contracts/homework/BeggingContract.sol\":3099:3106  1 ether */\n      0x0de0b6b3a7640000\n        /* \"contracts/homework/BeggingContract.sol\":3087:3096  amountEth */\n      dup5\n        /* \"contracts/homework/BeggingContract.sol\":3087:3106  amountEth * 1 ether */\n      tag_152\n      swap2\n      swap1\n      tag_153\n      jump\t// in\n    tag_152:\n        /* \"contracts/homework/BeggingContract.sol\":3067:3106  uint256 amountWei = amountEth * 1 ether */\n      swap1\n      pop\n        /* \"contracts/homework/BeggingContract.sol\":3177:3192  address _sender */\n      0x00\n        /* \"contracts/homework/BeggingContract.sol\":3193:3203  msg.sender */\n      caller\n        /* \"contracts/homework/BeggingContract.sol\":3177:3203  address _sender=msg.sender */\n      swap1\n      pop\n        /* \"contracts/homework/BeggingContract.sol\":3295:3296  0 */\n      0x00\n        /* \"contracts/homework/BeggingContract.sol\":3285:3294  amountWei */\n      dup3\n        /* \"contracts/homework/BeggingContract.sol\":3285:3296  amountWei>0 */\n      gt\n        /* \"contracts/homework/BeggingContract.sol\":3277:3322  require(amountWei>0  ,\"Balance Insufficient\") */\n      tag_154\n      jumpi\n      mload(0x40)\n      0x08c379a000000000000000000000000000000000000000000000000000000000\n      dup2\n      mstore\n      0x04\n      add\n      tag_155\n      swap1\n      tag_141\n      jump\t// in\n    tag_155:\n      mload(0x40)\n      dup1\n      swap2\n      sub\n      swap1\n      revert\n    tag_154:\n        /* \"contracts/homework/BeggingContract.sol\":3353:3362  amountWei */\n      dup2\n        /* \"contracts/homework/BeggingContract.sol\":3340:3349  msg.value */\n      callvalue\n        /* \"contracts/homework/BeggingContract.sol\":3340:3362  msg.value >= amountWei */\n      lt\n      iszero\n        /* \"contracts/homework/BeggingContract.sol\":3332:3405  require(msg.value >= amountWei, \"Donation: insufficient transferred ETH\") */\n      tag_156\n      jumpi\n      mload(0x40)\n      0x08c379a000000000000000000000000000000000000000000000000000000000\n      dup2\n      mstore\n      0x04\n      add\n      tag_157\n      swap1\n      tag_158\n      jump\t// in\n    tag_157:\n      mload(0x40)\n      dup1\n      swap2\n      sub\n      swap1\n      revert\n    tag_156:\n        /* \"contracts/homework/BeggingContract.sol\":3442:3443  0 */\n      0x00\n        /* \"contracts/homework/BeggingContract.sol\":3423:3444  _sender != address(0) */\n      0xffffffffffffffffffffffffffffffffffffffff\n      and\n        /* \"contracts/homework/BeggingContract.sol\":3423:3430  _sender */\n      dup2\n        /* \"contracts/homework/BeggingContract.sol\":3423:3444  _sender != address(0) */\n      0xffffffffffffffffffffffffffffffffffffffff\n      and\n      eq\n      iszero\n        /* \"contracts/homework/BeggingContract.sol\":3423:3471  _sender != address(0) && recipient != address(0) */\n      dup1\n      iszero\n      tag_159\n      jumpi\n      pop\n        /* \"contracts/homework/BeggingContract.sol\":3469:3470  0 */\n      0x00\n        /* \"contracts/homework/BeggingContract.sol\":3448:3471  recipient != address(0) */\n      0xffffffffffffffffffffffffffffffffffffffff\n      and\n        /* \"contracts/homework/BeggingContract.sol\":3448:3457  recipient */\n      immutable(\"0x277ab82e5a4641341820a4a2933a62c1de997e42e92548657ae21b3728d580fe\")\n        /* \"contracts/homework/BeggingContract.sol\":3448:3471  recipient != address(0) */\n      0xffffffffffffffffffffffffffffffffffffffff\n      and\n      eq\n      iszero\n        /* \"contracts/homework/BeggingContract.sol\":3423:3471  _sender != address(0) && recipient != address(0) */\n    tag_159:\n        /* \"contracts/homework/BeggingContract.sol\":3415:3528  require(_sender != address(0) && recipient != address(0), \"Donation: _sender and recipient invalid zero address\") */\n      tag_160\n      jumpi\n      mload(0x40)\n      0x08c379a000000000000000000000000000000000000000000000000000000000\n      dup2\n      mstore\n      0x04\n      add\n      tag_161\n      swap1\n      tag_162\n      jump\t// in\n    tag_161:\n      mload(0x40)\n      dup1\n      swap2\n      sub\n      swap1\n      revert\n    tag_160:\n        /* \"contracts/homework/BeggingContract.sol\":3622:3632  isDonation */\n      0x03\n        /* \"contracts/homework/BeggingContract.sol\":3622:3641  isDonation[_sender] */\n      0x00\n        /* \"contracts/homework/BeggingContract.sol\":3633:3640  _sender */\n      dup3\n        /* \"contracts/homework/BeggingContract.sol\":3622:3641  isDonation[_sender] */\n      0xffffffffffffffffffffffffffffffffffffffff\n      and\n      0xffffffffffffffffffffffffffffffffffffffff\n      and\n      dup2\n      mstore\n      0x20\n      add\n      swap1\n      dup2\n      mstore\n      0x20\n      add\n      0x00\n      keccak256\n      0x00\n      swap1\n      sload\n      swap1\n      0x0100\n      exp\n      swap1\n      div\n      0xff\n      and\n        /* \"contracts/homework/BeggingContract.sol\":3618:3823  if(!isDonation[_sender]){... */\n      tag_163\n      jumpi\n        /* \"contracts/homework/BeggingContract.sol\":3708:3720  donationList */\n      0x02\n        /* \"contracts/homework/BeggingContract.sol\":3726:3733  _sender */\n      dup2\n        /* \"contracts/homework/BeggingContract.sol\":3708:3734  donationList.push(_sender) */\n      swap1\n      dup1\n      0x01\n      dup2\n      sload\n      add\n      dup1\n      dup3\n      sstore\n      dup1\n      swap2\n      pop\n      pop\n      0x01\n      swap1\n      sub\n      swap1\n      0x00\n      mstore\n      keccak256(0x00, 0x20)\n      add\n      0x00\n      swap1\n      swap2\n      swap1\n      swap2\n      swap1\n      swap2\n      0x0100\n      exp\n      dup2\n      sload\n      dup2\n      0xffffffffffffffffffffffffffffffffffffffff\n      mul\n      not\n      and\n      swap1\n      dup4\n      0xffffffffffffffffffffffffffffffffffffffff\n      and\n      mul\n      or\n      swap1\n      sstore\n      pop\n        /* \"contracts/homework/BeggingContract.sol\":3808:3812  true */\n      0x01\n        /* \"contracts/homework/BeggingContract.sol\":3788:3798  isDonation */\n      0x03\n        /* \"contracts/homework/BeggingContract.sol\":3788:3807  isDonation[_sender] */\n      0x00\n        /* \"contracts/homework/BeggingContract.sol\":3799:3806  _sender */\n      dup4\n        /* \"contracts/homework/BeggingContract.sol\":3788:3807  isDonation[_sender] */\n      0xffffffffffffffffffffffffffffffffffffffff\n      and\n      0xffffffffffffffffffffffffffffffffffffffff\n      and\n      dup2\n      mstore\n      0x20\n      add\n      swap1\n      dup2\n      mstore\n      0x20\n      add\n      0x00\n      keccak256\n      0x00\n        /* \"contracts/homework/BeggingContract.sol\":3788:3812  isDonation[_sender]=true */\n      0x0100\n      exp\n      dup2\n      sload\n      dup2\n      0xff\n      mul\n      not\n      and\n      swap1\n      dup4\n      iszero\n      iszero\n      mul\n      or\n      swap1\n      sstore\n      pop\n        /* \"contracts/homework/BeggingContract.sol\":3618:3823  if(!isDonation[_sender]){... */\n    tag_163:\n        /* \"contracts/homework/BeggingContract.sol\":3903:3912  amountWei */\n      dup2\n        /* \"contracts/homework/BeggingContract.sol\":3878:3892  donationAmount */\n      0x01\n        /* \"contracts/homework/BeggingContract.sol\":3878:3901  donationAmount[_sender] */\n      0x00\n        /* \"contracts/homework/BeggingContract.sol\":3893:3900  _sender */\n      dup4\n        /* \"contracts/homework/BeggingContract.sol\":3878:3901  donationAmount[_sender] */\n      0xffffffffffffffffffffffffffffffffffffffff\n      and\n      0xffffffffffffffffffffffffffffffffffffffff\n      and\n      dup2\n      mstore\n      0x20\n      add\n      swap1\n      dup2\n      mstore\n      0x20\n      add\n      0x00\n      keccak256\n      0x00\n        /* \"contracts/homework/BeggingContract.sol\":3878:3912  donationAmount[_sender]+=amountWei */\n      dup3\n      dup3\n      sload\n      tag_165\n      swap2\n      swap1\n      tag_166\n      jump\t// in\n    tag_165:\n      swap3\n      pop\n      pop\n      dup2\n      swap1\n      sstore\n      pop\n        /* \"contracts/homework/BeggingContract.sol\":3942:3951  amountEth */\n      dup5\n        /* \"contracts/homework/BeggingContract.sol\":3923:3940  totalDonationsEth */\n      0x00\n      0x00\n        /* \"contracts/homework/BeggingContract.sol\":3923:3951  totalDonationsEth+=amountEth */\n      dup3\n      dup3\n      sload\n      tag_167\n      swap2\n      swap1\n      tag_166\n      jump\t// in\n    tag_167:\n      swap3\n      pop\n      pop\n      dup2\n      swap1\n      sstore\n      pop\n        /* \"contracts/homework/BeggingContract.sol\":3995:4014  uint256 donationLen */\n      0x00\n        /* \"contracts/homework/BeggingContract.sol\":4016:4028  donationList */\n      0x02\n        /* \"contracts/homework/BeggingContract.sol\":4016:4035  donationList.length */\n      dup1\n      sload\n      swap1\n      pop\n        /* \"contracts/homework/BeggingContract.sol\":3995:4035  uint256 donationLen =donationList.length */\n      swap1\n      pop\n        /* \"contracts/homework/BeggingContract.sol\":4086:4095  uint256 i */\n      0x00\n        /* \"contracts/homework/BeggingContract.sol\":4096:4097  0 */\n      0x00\n        /* \"contracts/homework/BeggingContract.sol\":4086:4097  uint256 i=0 */\n      swap1\n      pop\n        /* \"contracts/homework/BeggingContract.sol\":4082:5879  for(uint256 i=0;i<3;i++){... */\n    tag_168:\n        /* \"contracts/homework/BeggingContract.sol\":4100:4101  3 */\n      0x03\n        /* \"contracts/homework/BeggingContract.sol\":4098:4099  i */\n      dup2\n        /* \"contracts/homework/BeggingContract.sol\":4098:4101  i<3 */\n      lt\n        /* \"contracts/homework/BeggingContract.sol\":4082:5879  for(uint256 i=0;i<3;i++){... */\n      iszero\n      tag_169\n      jumpi\n        /* \"contracts/homework/BeggingContract.sol\":4136:4137  1 */\n      0x01\n        /* \"contracts/homework/BeggingContract.sol\":4123:4134  donationLen */\n      dup3\n        /* \"contracts/homework/BeggingContract.sol\":4123:4137  donationLen==1 */\n      sub\n        /* \"contracts/homework/BeggingContract.sol\":4120:4143  if(donationLen==1)break */\n      iszero\n        /* \"contracts/homework/BeggingContract.sol\":4138:4143  break */\n      tag_169\n        /* \"contracts/homework/BeggingContract.sol\":4120:4143  if(donationLen==1)break */\n      jumpi\n        /* \"contracts/homework/BeggingContract.sol\":4236:4237  2 */\n      0x02\n        /* \"contracts/homework/BeggingContract.sol\":4223:4234  donationLen */\n      dup3\n        /* \"contracts/homework/BeggingContract.sol\":4223:4237  donationLen==2 */\n      eq\n        /* \"contracts/homework/BeggingContract.sol\":4223:4304  donationLen==2 && donationAmount[donationList[1]]>donationAmount[donationList[0]] */\n      dup1\n      iszero\n      tag_172\n      jumpi\n      pop\n        /* \"contracts/homework/BeggingContract.sol\":4273:4287  donationAmount */\n      0x01\n        /* \"contracts/homework/BeggingContract.sol\":4273:4304  donationAmount[donationList[0]] */\n      0x00\n        /* \"contracts/homework/BeggingContract.sol\":4288:4300  donationList */\n      0x02\n        /* \"contracts/homework/BeggingContract.sol\":4301:4302  0 */\n      0x00\n        /* \"contracts/homework/BeggingContract.sol\":4288:4303  donationList[0] */\n      dup2\n      sload\n      dup2\n      lt\n      tag_173\n      jumpi\n      tag_174\n      tag_109\n      jump\t// in\n    tag_174:\n    tag_173:\n      swap1\n      0x00\n      mstore\n      keccak256(0x00, 0x20)\n      add\n      0x00\n      swap1\n      sload\n      swap1\n      0x0100\n      exp\n      swap1\n      div\n      0xffffffffffffffffffffffffffffffffffffffff\n      and\n        /* \"contracts/homework/BeggingContract.sol\":4273:4304  donationAmount[donationList[0]] */\n      0xffffffffffffffffffffffffffffffffffffffff\n      and\n      0xffffffffffffffffffffffffffffffffffffffff\n      and\n      dup2\n      mstore\n      0x20\n      add\n      swap1\n      dup2\n      mstore\n      0x20\n      add\n      0x00\n      keccak256\n      sload\n        /* \"contracts/homework/BeggingContract.sol\":4241:4255  donationAmount */\n      0x01\n        /* \"contracts/homework/BeggingContract.sol\":4241:4272  donationAmount[donationList[1]] */\n      0x00\n        /* \"contracts/homework/BeggingContract.sol\":4256:4268  donationList */\n      0x02\n        /* \"contracts/homework/BeggingContract.sol\":4269:4270  1 */\n      0x01\n        /* \"contracts/homework/BeggingContract.sol\":4256:4271  donationList[1] */\n      dup2\n      sload\n      dup2\n      lt\n      tag_176\n      jumpi\n      tag_177\n      tag_109\n      jump\t// in\n    tag_177:\n    tag_176:\n      swap1\n      0x00\n      mstore\n      keccak256(0x00, 0x20)\n      add\n      0x00\n      swap1\n      sload\n      swap1\n      0x0100\n      exp\n      swap1\n      div\n      0xffffffffffffffffffffffffffffffffffffffff\n      and\n        /* \"contracts/homework/BeggingContract.sol\":4241:4272  donationAmount[donationList[1]] */\n      0xffffffffffffffffffffffffffffffffffffffff\n      and\n      0xffffffffffffffffffffffffffffffffffffffff\n      and\n      dup2\n      mstore\n      0x20\n      add\n      swap1\n      dup2\n      mstore\n      0x20\n      add\n      0x00\n      keccak256\n      sload\n        /* \"contracts/homework/BeggingContract.sol\":4241:4304  donationAmount[donationList[1]]>donationAmount[donationList[0]] */\n      gt\n        /* \"contracts/homework/BeggingContract.sol\":4223:4304  donationLen==2 && donationAmount[donationList[1]]>donationAmount[donationList[0]] */\n    tag_172:\n        /* \"contracts/homework/BeggingContract.sol\":4220:4495  if(donationLen==2 && donationAmount[donationList[1]]>donationAmount[donationList[0]]){... */\n      iszero\n      tag_179\n      jumpi\n        /* \"contracts/homework/BeggingContract.sol\":4323:4344  address newFirstPlace */\n      0x00\n        /* \"contracts/homework/BeggingContract.sol\":4345:4357  donationList */\n      0x02\n        /* \"contracts/homework/BeggingContract.sol\":4358:4359  1 */\n      0x01\n        /* \"contracts/homework/BeggingContract.sol\":4345:4360  donationList[1] */\n      dup2\n      sload\n      dup2\n      lt\n      tag_180\n      jumpi\n      tag_181\n      tag_109\n      jump\t// in\n    tag_181:\n    tag_180:\n      swap1\n      0x00\n      mstore\n      keccak256(0x00, 0x20)\n      add\n      0x00\n      swap1\n      sload\n      swap1\n      0x0100\n      exp\n      swap1\n      div\n      0xffffffffffffffffffffffffffffffffffffffff\n      and\n        /* \"contracts/homework/BeggingContract.sol\":4323:4360  address newFirstPlace=donationList[1] */\n      swap1\n      pop\n        /* \"contracts/homework/BeggingContract.sol\":4394:4406  donationList */\n      0x02\n        /* \"contracts/homework/BeggingContract.sol\":4407:4408  0 */\n      0x00\n        /* \"contracts/homework/BeggingContract.sol\":4394:4409  donationList[0] */\n      dup2\n      sload\n      dup2\n      lt\n      tag_183\n      jumpi\n      tag_184\n      tag_109\n      jump\t// in\n    tag_184:\n    tag_183:\n      swap1\n      0x00\n      mstore\n      keccak256(0x00, 0x20)\n      add\n      0x00\n      swap1\n      sload\n      swap1\n      0x0100\n      exp\n      swap1\n      div\n      0xffffffffffffffffffffffffffffffffffffffff\n      and\n        /* \"contracts/homework/BeggingContract.sol\":4378:4390  donationList */\n      0x02\n        /* \"contracts/homework/BeggingContract.sol\":4391:4392  1 */\n      0x01\n        /* \"contracts/homework/BeggingContract.sol\":4378:4393  donationList[1] */\n      dup2\n      sload\n      dup2\n      lt\n      tag_186\n      jumpi\n      tag_187\n      tag_109\n      jump\t// in\n    tag_187:\n    tag_186:\n      swap1\n      0x00\n      mstore\n      keccak256(0x00, 0x20)\n      add\n      0x00\n        /* \"contracts/homework/BeggingContract.sol\":4378:4409  donationList[1]=donationList[0] */\n      0x0100\n      exp\n      dup2\n      sload\n      dup2\n      0xffffffffffffffffffffffffffffffffffffffff\n      mul\n      not\n      and\n      swap1\n      dup4\n      0xffffffffffffffffffffffffffffffffffffffff\n      and\n      mul\n      or\n      swap1\n      sstore\n      pop\n        /* \"contracts/homework/BeggingContract.sol\":4443:4456  newFirstPlace */\n      dup1\n        /* \"contracts/homework/BeggingContract.sol\":4427:4439  donationList */\n      0x02\n        /* \"contracts/homework/BeggingContract.sol\":4440:4441  0 */\n      0x00\n        /* \"contracts/homework/BeggingContract.sol\":4427:4442  donationList[0] */\n      dup2\n      sload\n      dup2\n      lt\n      tag_189\n      jumpi\n      tag_190\n      tag_109\n      jump\t// in\n    tag_190:\n    tag_189:\n      swap1\n      0x00\n      mstore\n      keccak256(0x00, 0x20)\n      add\n      0x00\n        /* \"contracts/homework/BeggingContract.sol\":4427:4456  donationList[0]=newFirstPlace */\n      0x0100\n      exp\n      dup2\n      sload\n      dup2\n      0xffffffffffffffffffffffffffffffffffffffff\n      mul\n      not\n      and\n      swap1\n      dup4\n      0xffffffffffffffffffffffffffffffffffffffff\n      and\n      mul\n      or\n      swap1\n      sstore\n      pop\n        /* \"contracts/homework/BeggingContract.sol\":4474:4479  break */\n      pop\n      jump(tag_169)\n        /* \"contracts/homework/BeggingContract.sol\":4220:4495  if(donationLen==2 && donationAmount[donationList[1]]>donationAmount[donationList[0]]){... */\n    tag_179:\n        /* \"contracts/homework/BeggingContract.sol\":4649:4650  3 */\n      0x03\n        /* \"contracts/homework/BeggingContract.sol\":4636:4647  donationLen */\n      dup3\n        /* \"contracts/homework/BeggingContract.sol\":4636:4650  donationLen>=3 */\n      lt\n        /* \"contracts/homework/BeggingContract.sol\":4633:5868  if(donationLen>=3){... */\n      tag_192\n      jumpi\n        /* \"contracts/homework/BeggingContract.sol\":4716:4730  donationAmount */\n      0x01\n        /* \"contracts/homework/BeggingContract.sol\":4716:4747  donationAmount[donationList[0]] */\n      0x00\n        /* \"contracts/homework/BeggingContract.sol\":4731:4743  donationList */\n      0x02\n        /* \"contracts/homework/BeggingContract.sol\":4744:4745  0 */\n      0x00\n        /* \"contracts/homework/BeggingContract.sol\":4731:4746  donationList[0] */\n      dup2\n      sload\n      dup2\n      lt\n      tag_193\n      jumpi\n      tag_194\n      tag_109\n      jump\t// in\n    tag_194:\n    tag_193:\n      swap1\n      0x00\n      mstore\n      keccak256(0x00, 0x20)\n      add\n      0x00\n      swap1\n      sload\n      swap1\n      0x0100\n      exp\n      swap1\n      div\n      0xffffffffffffffffffffffffffffffffffffffff\n      and\n        /* \"contracts/homework/BeggingContract.sol\":4716:4747  donationAmount[donationList[0]] */\n      0xffffffffffffffffffffffffffffffffffffffff\n      and\n      0xffffffffffffffffffffffffffffffffffffffff\n      and\n      dup2\n      mstore\n      0x20\n      add\n      swap1\n      dup2\n      mstore\n      0x20\n      add\n      0x00\n      keccak256\n      sload\n        /* \"contracts/homework/BeggingContract.sol\":4672:4686  donationAmount */\n      0x01\n        /* \"contracts/homework/BeggingContract.sol\":4672:4715  donationAmount[donationList[donationLen-1]] */\n      0x00\n        /* \"contracts/homework/BeggingContract.sol\":4687:4699  donationList */\n      0x02\n        /* \"contracts/homework/BeggingContract.sol\":4712:4713  1 */\n      0x01\n        /* \"contracts/homework/BeggingContract.sol\":4700:4711  donationLen */\n      dup7\n        /* \"contracts/homework/BeggingContract.sol\":4700:4713  donationLen-1 */\n      tag_196\n      swap2\n      swap1\n      tag_197\n      jump\t// in\n    tag_196:\n        /* \"contracts/homework/BeggingContract.sol\":4687:4714  donationList[donationLen-1] */\n      dup2\n      sload\n      dup2\n      lt\n      tag_198\n      jumpi\n      tag_199\n      tag_109\n      jump\t// in\n    tag_199:\n    tag_198:\n      swap1\n      0x00\n      mstore\n      keccak256(0x00, 0x20)\n      add\n      0x00\n      swap1\n      sload\n      swap1\n      0x0100\n      exp\n      swap1\n      div\n      0xffffffffffffffffffffffffffffffffffffffff\n      and\n        /* \"contracts/homework/BeggingContract.sol\":4672:4715  donationAmount[donationList[donationLen-1]] */\n      0xffffffffffffffffffffffffffffffffffffffff\n      and\n      0xffffffffffffffffffffffffffffffffffffffff\n      and\n      dup2\n      mstore\n      0x20\n      add\n      swap1\n      dup2\n      mstore\n      0x20\n      add\n      0x00\n      keccak256\n      sload\n        /* \"contracts/homework/BeggingContract.sol\":4672:4747  donationAmount[donationList[donationLen-1]]>donationAmount[donationList[0]] */\n      gt\n        /* \"contracts/homework/BeggingContract.sol\":4669:5106  if(donationAmount[donationList[donationLen-1]]>donationAmount[donationList[0]]){... */\n      iszero\n      tag_201\n      jumpi\n        /* \"contracts/homework/BeggingContract.sol\":4770:4791  address newFirstPlace */\n      0x00\n        /* \"contracts/homework/BeggingContract.sol\":4792:4804  donationList */\n      0x02\n        /* \"contracts/homework/BeggingContract.sol\":4817:4818  1 */\n      0x01\n        /* \"contracts/homework/BeggingContract.sol\":4805:4816  donationLen */\n      dup5\n        /* \"contracts/homework/BeggingContract.sol\":4805:4818  donationLen-1 */\n      tag_202\n      swap2\n      swap1\n      tag_197\n      jump\t// in\n    tag_202:\n        /* \"contracts/homework/BeggingContract.sol\":4792:4819  donationList[donationLen-1] */\n      dup2\n      sload\n      dup2\n      lt\n      tag_203\n      jumpi\n      tag_204\n      tag_109\n      jump\t// in\n    tag_204:\n    tag_203:\n      swap1\n      0x00\n      mstore\n      keccak256(0x00, 0x20)\n      add\n      0x00\n      swap1\n      sload\n      swap1\n      0x0100\n      exp\n      swap1\n      div\n      0xffffffffffffffffffffffffffffffffffffffff\n      and\n        /* \"contracts/homework/BeggingContract.sol\":4770:4819  address newFirstPlace=donationList[donationLen-1] */\n      swap1\n      pop\n        /* \"contracts/homework/BeggingContract.sol\":4857:4858  3 */\n      0x03\n        /* \"contracts/homework/BeggingContract.sol\":4845:4856  donationLen */\n      dup4\n        /* \"contracts/homework/BeggingContract.sol\":4845:4858  donationLen>3 */\n      gt\n        /* \"contracts/homework/BeggingContract.sol\":4841:4902  if (donationLen>3)donationList[donationLen-1]=donationList[2] */\n      iszero\n      tag_206\n      jumpi\n        /* \"contracts/homework/BeggingContract.sol\":4887:4899  donationList */\n      0x02\n        /* \"contracts/homework/BeggingContract.sol\":4900:4901  2 */\n      dup1\n        /* \"contracts/homework/BeggingContract.sol\":4887:4902  donationList[2] */\n      dup2\n      sload\n      dup2\n      lt\n      tag_207\n      jumpi\n      tag_208\n      tag_109\n      jump\t// in\n    tag_208:\n    tag_207:\n      swap1\n      0x00\n      mstore\n      keccak256(0x00, 0x20)\n      add\n      0x00\n      swap1\n      sload\n      swap1\n      0x0100\n      exp\n      swap1\n      div\n      0xffffffffffffffffffffffffffffffffffffffff\n      and\n        /* \"contracts/homework/BeggingContract.sol\":4859:4871  donationList */\n      0x02\n        /* \"contracts/homework/BeggingContract.sol\":4884:4885  1 */\n      0x01\n        /* \"contracts/homework/BeggingContract.sol\":4872:4883  donationLen */\n      dup6\n        /* \"contracts/homework/BeggingContract.sol\":4872:4885  donationLen-1 */\n      tag_210\n      swap2\n      swap1\n      tag_197\n      jump\t// in\n    tag_210:\n        /* \"contracts/homework/BeggingContract.sol\":4859:4886  donationList[donationLen-1] */\n      dup2\n      sload\n      dup2\n      lt\n      tag_211\n      jumpi\n      tag_212\n      tag_109\n      jump\t// in\n    tag_212:\n    tag_211:\n      swap1\n      0x00\n      mstore\n      keccak256(0x00, 0x20)\n      add\n      0x00\n        /* \"contracts/homework/BeggingContract.sol\":4859:4902  donationList[donationLen-1]=donationList[2] */\n      0x0100\n      exp\n      dup2\n      sload\n      dup2\n      0xffffffffffffffffffffffffffffffffffffffff\n      mul\n      not\n      and\n      swap1\n      dup4\n      0xffffffffffffffffffffffffffffffffffffffff\n      and\n      mul\n      or\n      swap1\n      sstore\n      pop\n        /* \"contracts/homework/BeggingContract.sol\":4841:4902  if (donationLen>3)donationList[donationLen-1]=donationList[2] */\n    tag_206:\n        /* \"contracts/homework/BeggingContract.sol\":4940:4952  donationList */\n      0x02\n        /* \"contracts/homework/BeggingContract.sol\":4953:4954  1 */\n      0x01\n        /* \"contracts/homework/BeggingContract.sol\":4940:4955  donationList[1] */\n      dup2\n      sload\n      dup2\n      lt\n      tag_214\n      jumpi\n      tag_215\n      tag_109\n      jump\t// in\n    tag_215:\n    tag_214:\n      swap1\n      0x00\n      mstore\n      keccak256(0x00, 0x20)\n      add\n      0x00\n      swap1\n      sload\n      swap1\n      0x0100\n      exp\n      swap1\n      div\n      0xffffffffffffffffffffffffffffffffffffffff\n      and\n        /* \"contracts/homework/BeggingContract.sol\":4924:4936  donationList */\n      0x02\n        /* \"contracts/homework/BeggingContract.sol\":4937:4938  2 */\n      dup1\n        /* \"contracts/homework/BeggingContract.sol\":4924:4939  donationList[2] */\n      dup2\n      sload\n      dup2\n      lt\n      tag_217\n      jumpi\n      tag_218\n      tag_109\n      jump\t// in\n    tag_218:\n    tag_217:\n      swap1\n      0x00\n      mstore\n      keccak256(0x00, 0x20)\n      add\n      0x00\n        /* \"contracts/homework/BeggingContract.sol\":4924:4955  donationList[2]=donationList[1] */\n      0x0100\n      exp\n      dup2\n      sload\n      dup2\n      0xffffffffffffffffffffffffffffffffffffffff\n      mul\n      not\n      and\n      swap1\n      dup4\n      0xffffffffffffffffffffffffffffffffffffffff\n      and\n      mul\n      or\n      swap1\n      sstore\n      pop\n        /* \"contracts/homework/BeggingContract.sol\":4993:5005  donationList */\n      0x02\n        /* \"contracts/homework/BeggingContract.sol\":5006:5007  0 */\n      0x00\n        /* \"contracts/homework/BeggingContract.sol\":4993:5008  donationList[0] */\n      dup2\n      sload\n      dup2\n      lt\n      tag_220\n      jumpi\n      tag_221\n      tag_109\n      jump\t// in\n    tag_221:\n    tag_220:\n      swap1\n      0x00\n      mstore\n      keccak256(0x00, 0x20)\n      add\n      0x00\n      swap1\n      sload\n      swap1\n      0x0100\n      exp\n      swap1\n      div\n      0xffffffffffffffffffffffffffffffffffffffff\n      and\n        /* \"contracts/homework/BeggingContract.sol\":4977:4989  donationList */\n      0x02\n        /* \"contracts/homework/BeggingContract.sol\":4990:4991  1 */\n      0x01\n        /* \"contracts/homework/BeggingContract.sol\":4977:4992  donationList[1] */\n      dup2\n      sload\n      dup2\n      lt\n      tag_223\n      jumpi\n      tag_224\n      tag_109\n      jump\t// in\n    tag_224:\n    tag_223:\n      swap1\n      0x00\n      mstore\n      keccak256(0x00, 0x20)\n      add\n      0x00\n        /* \"contracts/homework/BeggingContract.sol\":4977:5008  donationList[1]=donationList[0] */\n      0x0100\n      exp\n      dup2\n      sload\n      dup2\n      0xffffffffffffffffffffffffffffffffffffffff\n      mul\n      not\n      and\n      swap1\n      dup4\n      0xffffffffffffffffffffffffffffffffffffffff\n      and\n      mul\n      or\n      swap1\n      sstore\n      pop\n        /* \"contracts/homework/BeggingContract.sol\":5046:5059  newFirstPlace */\n      dup1\n        /* \"contracts/homework/BeggingContract.sol\":5030:5042  donationList */\n      0x02\n        /* \"contracts/homework/BeggingContract.sol\":5043:5044  0 */\n      0x00\n        /* \"contracts/homework/BeggingContract.sol\":5030:5045  donationList[0] */\n      dup2\n      sload\n      dup2\n      lt\n      tag_226\n      jumpi\n      tag_227\n      tag_109\n      jump\t// in\n    tag_227:\n    tag_226:\n      swap1\n      0x00\n      mstore\n      keccak256(0x00, 0x20)\n      add\n      0x00\n        /* \"contracts/homework/BeggingContract.sol\":5030:5059  donationList[0]=newFirstPlace */\n      0x0100\n      exp\n      dup2\n      sload\n      dup2\n      0xffffffffffffffffffffffffffffffffffffffff\n      mul\n      not\n      and\n      swap1\n      dup4\n      0xffffffffffffffffffffffffffffffffffffffff\n      and\n      mul\n      or\n      swap1\n      sstore\n      pop\n        /* \"contracts/homework/BeggingContract.sol\":5081:5086  break */\n      pop\n      jump(tag_169)\n        /* \"contracts/homework/BeggingContract.sol\":4669:5106  if(donationAmount[donationList[donationLen-1]]>donationAmount[donationList[0]]){... */\n    tag_201:\n        /* \"contracts/homework/BeggingContract.sol\":5170:5184  donationAmount */\n      0x01\n        /* \"contracts/homework/BeggingContract.sol\":5170:5201  donationAmount[donationList[1]] */\n      0x00\n        /* \"contracts/homework/BeggingContract.sol\":5185:5197  donationList */\n      0x02\n        /* \"contracts/homework/BeggingContract.sol\":5198:5199  1 */\n      0x01\n        /* \"contracts/homework/BeggingContract.sol\":5185:5200  donationList[1] */\n      dup2\n      sload\n      dup2\n      lt\n      tag_229\n      jumpi\n      tag_230\n      tag_109\n      jump\t// in\n    tag_230:\n    tag_229:\n      swap1\n      0x00\n      mstore\n      keccak256(0x00, 0x20)\n      add\n      0x00\n      swap1\n      sload\n      swap1\n      0x0100\n      exp\n      swap1\n      div\n      0xffffffffffffffffffffffffffffffffffffffff\n      and\n        /* \"contracts/homework/BeggingContract.sol\":5170:5201  donationAmount[donationList[1]] */\n      0xffffffffffffffffffffffffffffffffffffffff\n      and\n      0xffffffffffffffffffffffffffffffffffffffff\n      and\n      dup2\n      mstore\n      0x20\n      add\n      swap1\n      dup2\n      mstore\n      0x20\n      add\n      0x00\n      keccak256\n      sload\n        /* \"contracts/homework/BeggingContract.sol\":5126:5140  donationAmount */\n      0x01\n        /* \"contracts/homework/BeggingContract.sol\":5126:5169  donationAmount[donationList[donationLen-1]] */\n      0x00\n        /* \"contracts/homework/BeggingContract.sol\":5141:5153  donationList */\n      0x02\n        /* \"contracts/homework/BeggingContract.sol\":5166:5167  1 */\n      0x01\n        /* \"contracts/homework/BeggingContract.sol\":5154:5165  donationLen */\n      dup7\n        /* \"contracts/homework/BeggingContract.sol\":5154:5167  donationLen-1 */\n      tag_232\n      swap2\n      swap1\n      tag_197\n      jump\t// in\n    tag_232:\n        /* \"contracts/homework/BeggingContract.sol\":5141:5168  donationList[donationLen-1] */\n      dup2\n      sload\n      dup2\n      lt\n      tag_233\n      jumpi\n      tag_234\n      tag_109\n      jump\t// in\n    tag_234:\n    tag_233:\n      swap1\n      0x00\n      mstore\n      keccak256(0x00, 0x20)\n      add\n      0x00\n      swap1\n      sload\n      swap1\n      0x0100\n      exp\n      swap1\n      div\n      0xffffffffffffffffffffffffffffffffffffffff\n      and\n        /* \"contracts/homework/BeggingContract.sol\":5126:5169  donationAmount[donationList[donationLen-1]] */\n      0xffffffffffffffffffffffffffffffffffffffff\n      and\n      0xffffffffffffffffffffffffffffffffffffffff\n      and\n      dup2\n      mstore\n      0x20\n      add\n      swap1\n      dup2\n      mstore\n      0x20\n      add\n      0x00\n      keccak256\n      sload\n        /* \"contracts/homework/BeggingContract.sol\":5126:5201  donationAmount[donationList[donationLen-1]]>donationAmount[donationList[1]] */\n      gt\n        /* \"contracts/homework/BeggingContract.sol\":5123:5509  if(donationAmount[donationList[donationLen-1]]>donationAmount[donationList[1]]){... */\n      iszero\n      tag_236\n      jumpi\n        /* \"contracts/homework/BeggingContract.sol\":5224:5246  address newSecondPlace */\n      0x00\n        /* \"contracts/homework/BeggingContract.sol\":5247:5259  donationList */\n      0x02\n        /* \"contracts/homework/BeggingContract.sol\":5272:5273  1 */\n      0x01\n        /* \"contracts/homework/BeggingContract.sol\":5260:5271  donationLen */\n      dup5\n        /* \"contracts/homework/BeggingContract.sol\":5260:5273  donationLen-1 */\n      tag_237\n      swap2\n      swap1\n      tag_197\n      jump\t// in\n    tag_237:\n        /* \"contracts/homework/BeggingContract.sol\":5247:5274  donationList[donationLen-1] */\n      dup2\n      sload\n      dup2\n      lt\n      tag_238\n      jumpi\n      tag_239\n      tag_109\n      jump\t// in\n    tag_239:\n    tag_238:\n      swap1\n      0x00\n      mstore\n      keccak256(0x00, 0x20)\n      add\n      0x00\n      swap1\n      sload\n      swap1\n      0x0100\n      exp\n      swap1\n      div\n      0xffffffffffffffffffffffffffffffffffffffff\n      and\n        /* \"contracts/homework/BeggingContract.sol\":5224:5274  address newSecondPlace=donationList[donationLen-1] */\n      swap1\n      pop\n        /* \"contracts/homework/BeggingContract.sol\":5312:5313  3 */\n      0x03\n        /* \"contracts/homework/BeggingContract.sol\":5300:5311  donationLen */\n      dup4\n        /* \"contracts/homework/BeggingContract.sol\":5300:5313  donationLen>3 */\n      gt\n        /* \"contracts/homework/BeggingContract.sol\":5296:5357  if (donationLen>3)donationList[donationLen-1]=donationList[2] */\n      iszero\n      tag_241\n      jumpi\n        /* \"contracts/homework/BeggingContract.sol\":5342:5354  donationList */\n      0x02\n        /* \"contracts/homework/BeggingContract.sol\":5355:5356  2 */\n      dup1\n        /* \"contracts/homework/BeggingContract.sol\":5342:5357  donationList[2] */\n      dup2\n      sload\n      dup2\n      lt\n      tag_242\n      jumpi\n      tag_243\n      tag_109\n      jump\t// in\n    tag_243:\n    tag_242:\n      swap1\n      0x00\n      mstore\n      keccak256(0x00, 0x20)\n      add\n      0x00\n      swap1\n      sload\n      swap1\n      0x0100\n      exp\n      swap1\n      div\n      0xffffffffffffffffffffffffffffffffffffffff\n      and\n        /* \"contracts/homework/BeggingContract.sol\":5314:5326  donationList */\n      0x02\n        /* \"contracts/homework/BeggingContract.sol\":5339:5340  1 */\n      0x01\n        /* \"contracts/homework/BeggingContract.sol\":5327:5338  donationLen */\n      dup6\n        /* \"contracts/homework/BeggingContract.sol\":5327:5340  donationLen-1 */\n      tag_245\n      swap2\n      swap1\n      tag_197\n      jump\t// in\n    tag_245:\n        /* \"contracts/homework/BeggingContract.sol\":5314:5341  donationList[donationLen-1] */\n      dup2\n      sload\n      dup2\n      lt\n      tag_246\n      jumpi\n      tag_247\n      tag_109\n      jump\t// in\n    tag_247:\n    tag_246:\n      swap1\n      0x00\n      mstore\n      keccak256(0x00, 0x20)\n      add\n      0x00\n        /* \"contracts/homework/BeggingContract.sol\":5314:5357  donationList[donationLen-1]=donationList[2] */\n      0x0100\n      exp\n      dup2\n      sload\n      dup2\n      0xffffffffffffffffffffffffffffffffffffffff\n      mul\n      not\n      and\n      swap1\n      dup4\n      0xffffffffffffffffffffffffffffffffffffffff\n      and\n      mul\n      or\n      swap1\n      sstore\n      pop\n        /* \"contracts/homework/BeggingContract.sol\":5296:5357  if (donationLen>3)donationList[donationLen-1]=donationList[2] */\n    tag_241:\n        /* \"contracts/homework/BeggingContract.sol\":5395:5407  donationList */\n      0x02\n        /* \"contracts/homework/BeggingContract.sol\":5408:5409  1 */\n      0x01\n        /* \"contracts/homework/BeggingContract.sol\":5395:5410  donationList[1] */\n      dup2\n      sload\n      dup2\n      lt\n      tag_249\n      jumpi\n      tag_250\n      tag_109\n      jump\t// in\n    tag_250:\n    tag_249:\n      swap1\n      0x00\n      mstore\n      keccak256(0x00, 0x20)\n      add\n      0x00\n      swap1\n      sload\n      swap1\n      0x0100\n      exp\n      swap1\n      div\n      0xffffffffffffffffffffffffffffffffffffffff\n      and\n        /* \"contracts/homework/BeggingContract.sol\":5379:5391  donationList */\n      0x02\n        /* \"contracts/homework/BeggingContract.sol\":5392:5393  2 */\n      dup1\n        /* \"contracts/homework/BeggingContract.sol\":5379:5394  donationList[2] */\n      dup2\n      sload\n      dup2\n      lt\n      tag_252\n      jumpi\n      tag_253\n      tag_109\n      jump\t// in\n    tag_253:\n    tag_252:\n      swap1\n      0x00\n      mstore\n      keccak256(0x00, 0x20)\n      add\n      0x00\n        /* \"contracts/homework/BeggingContract.sol\":5379:5410  donationList[2]=donationList[1] */\n      0x0100\n      exp\n      dup2\n      sload\n      dup2\n      0xffffffffffffffffffffffffffffffffffffffff\n      mul\n      not\n      and\n      swap1\n      dup4\n      0xffffffffffffffffffffffffffffffffffffffff\n      and\n      mul\n      or\n      swap1\n      sstore\n      pop\n        /* \"contracts/homework/BeggingContract.sol\":5448:5462  newSecondPlace */\n      dup1\n        /* \"contracts/homework/BeggingContract.sol\":5432:5444  donationList */\n      0x02\n        /* \"contracts/homework/BeggingContract.sol\":5445:5446  1 */\n      0x01\n        /* \"contracts/homework/BeggingContract.sol\":5432:5447  donationList[1] */\n      dup2\n      sload\n      dup2\n      lt\n      tag_255\n      jumpi\n      tag_256\n      tag_109\n      jump\t// in\n    tag_256:\n    tag_255:\n      swap1\n      0x00\n      mstore\n      keccak256(0x00, 0x20)\n      add\n      0x00\n        /* \"contracts/homework/BeggingContract.sol\":5432:5462  donationList[1]=newSecondPlace */\n      0x0100\n      exp\n      dup2\n      sload\n      dup2\n      0xffffffffffffffffffffffffffffffffffffffff\n      mul\n      not\n      and\n      swap1\n      dup4\n      0xffffffffffffffffffffffffffffffffffffffff\n      and\n      mul\n      or\n      swap1\n      sstore\n      pop\n        /* \"contracts/homework/BeggingContract.sol\":5484:5489  break */\n      pop\n      jump(tag_169)\n        /* \"contracts/homework/BeggingContract.sol\":5123:5509  if(donationAmount[donationList[donationLen-1]]>donationAmount[donationList[1]]){... */\n    tag_236:\n        /* \"contracts/homework/BeggingContract.sol\":5542:5543  3 */\n      0x03\n        /* \"contracts/homework/BeggingContract.sol\":5529:5540  donationLen */\n      dup3\n        /* \"contracts/homework/BeggingContract.sol\":5529:5543  donationLen==3 */\n      sub\n        /* \"contracts/homework/BeggingContract.sol\":5526:5549  if(donationLen==3)break */\n      iszero\n        /* \"contracts/homework/BeggingContract.sol\":5544:5549  break */\n      tag_169\n        /* \"contracts/homework/BeggingContract.sol\":5526:5549  if(donationLen==3)break */\n      jumpi\n        /* \"contracts/homework/BeggingContract.sol\":5615:5629  donationAmount */\n      0x01\n        /* \"contracts/homework/BeggingContract.sol\":5615:5646  donationAmount[donationList[2]] */\n      0x00\n        /* \"contracts/homework/BeggingContract.sol\":5630:5642  donationList */\n      0x02\n        /* \"contracts/homework/BeggingContract.sol\":5643:5644  2 */\n      dup1\n        /* \"contracts/homework/BeggingContract.sol\":5630:5645  donationList[2] */\n      dup2\n      sload\n      dup2\n      lt\n      tag_259\n      jumpi\n      tag_260\n      tag_109\n      jump\t// in\n    tag_260:\n    tag_259:\n      swap1\n      0x00\n      mstore\n      keccak256(0x00, 0x20)\n      add\n      0x00\n      swap1\n      sload\n      swap1\n      0x0100\n      exp\n      swap1\n      div\n      0xffffffffffffffffffffffffffffffffffffffff\n      and\n        /* \"contracts/homework/BeggingContract.sol\":5615:5646  donationAmount[donationList[2]] */\n      0xffffffffffffffffffffffffffffffffffffffff\n      and\n      0xffffffffffffffffffffffffffffffffffffffff\n      and\n      dup2\n      mstore\n      0x20\n      add\n      swap1\n      dup2\n      mstore\n      0x20\n      add\n      0x00\n      keccak256\n      sload\n        /* \"contracts/homework/BeggingContract.sol\":5571:5585  donationAmount */\n      0x01\n        /* \"contracts/homework/BeggingContract.sol\":5571:5614  donationAmount[donationList[donationLen-1]] */\n      0x00\n        /* \"contracts/homework/BeggingContract.sol\":5586:5598  donationList */\n      0x02\n        /* \"contracts/homework/BeggingContract.sol\":5611:5612  1 */\n      0x01\n        /* \"contracts/homework/BeggingContract.sol\":5599:5610  donationLen */\n      dup7\n        /* \"contracts/homework/BeggingContract.sol\":5599:5612  donationLen-1 */\n      tag_262\n      swap2\n      swap1\n      tag_197\n      jump\t// in\n    tag_262:\n        /* \"contracts/homework/BeggingContract.sol\":5586:5613  donationList[donationLen-1] */\n      dup2\n      sload\n      dup2\n      lt\n      tag_263\n      jumpi\n      tag_264\n      tag_109\n      jump\t// in\n    tag_264:\n    tag_263:\n      swap1\n      0x00\n      mstore\n      keccak256(0x00, 0x20)\n      add\n      0x00\n      swap1\n      sload\n      swap1\n      0x0100\n      exp\n      swap1\n      div\n      0xffffffffffffffffffffffffffffffffffffffff\n      and\n        /* \"contracts/homework/BeggingContract.sol\":5571:5614  donationAmount[donationList[donationLen-1]] */\n      0xffffffffffffffffffffffffffffffffffffffff\n      and\n      0xffffffffffffffffffffffffffffffffffffffff\n      and\n      dup2\n      mstore\n      0x20\n      add\n      swap1\n      dup2\n      mstore\n      0x20\n      add\n      0x00\n      keccak256\n      sload\n        /* \"contracts/homework/BeggingContract.sol\":5571:5646  donationAmount[donationList[donationLen-1]]>donationAmount[donationList[2]] */\n      gt\n        /* \"contracts/homework/BeggingContract.sol\":5568:5853  if(donationAmount[donationList[donationLen-1]]>donationAmount[donationList[2]]){... */\n      iszero\n      tag_266\n      jumpi\n        /* \"contracts/homework/BeggingContract.sol\":5669:5690  address newThirdPlace */\n      0x00\n        /* \"contracts/homework/BeggingContract.sol\":5691:5703  donationList */\n      0x02\n        /* \"contracts/homework/BeggingContract.sol\":5716:5717  1 */\n      0x01\n        /* \"contracts/homework/BeggingContract.sol\":5704:5715  donationLen */\n      dup5\n        /* \"contracts/homework/BeggingContract.sol\":5704:5717  donationLen-1 */\n      tag_267\n      swap2\n      swap1\n      tag_197\n      jump\t// in\n    tag_267:\n        /* \"contracts/homework/BeggingContract.sol\":5691:5718  donationList[donationLen-1] */\n      dup2\n      sload\n      dup2\n      lt\n      tag_268\n      jumpi\n      tag_269\n      tag_109\n      jump\t// in\n    tag_269:\n    tag_268:\n      swap1\n      0x00\n      mstore\n      keccak256(0x00, 0x20)\n      add\n      0x00\n      swap1\n      sload\n      swap1\n      0x0100\n      exp\n      swap1\n      div\n      0xffffffffffffffffffffffffffffffffffffffff\n      and\n        /* \"contracts/homework/BeggingContract.sol\":5669:5718  address newThirdPlace=donationList[donationLen-1] */\n      swap1\n      pop\n        /* \"contracts/homework/BeggingContract.sol\":5768:5780  donationList */\n      0x02\n        /* \"contracts/homework/BeggingContract.sol\":5781:5782  2 */\n      dup1\n        /* \"contracts/homework/BeggingContract.sol\":5768:5783  donationList[2] */\n      dup2\n      sload\n      dup2\n      lt\n      tag_271\n      jumpi\n      tag_272\n      tag_109\n      jump\t// in\n    tag_272:\n    tag_271:\n      swap1\n      0x00\n      mstore\n      keccak256(0x00, 0x20)\n      add\n      0x00\n      swap1\n      sload\n      swap1\n      0x0100\n      exp\n      swap1\n      div\n      0xffffffffffffffffffffffffffffffffffffffff\n      and\n        /* \"contracts/homework/BeggingContract.sol\":5740:5752  donationList */\n      0x02\n        /* \"contracts/homework/BeggingContract.sol\":5765:5766  1 */\n      0x01\n        /* \"contracts/homework/BeggingContract.sol\":5753:5764  donationLen */\n      dup6\n        /* \"contracts/homework/BeggingContract.sol\":5753:5766  donationLen-1 */\n      tag_274\n      swap2\n      swap1\n      tag_197\n      jump\t// in\n    tag_274:\n        /* \"contracts/homework/BeggingContract.sol\":5740:5767  donationList[donationLen-1] */\n      dup2\n      sload\n      dup2\n      lt\n      tag_275\n      jumpi\n      tag_276\n      tag_109\n      jump\t// in\n    tag_276:\n    tag_275:\n      swap1\n      0x00\n      mstore\n      keccak256(0x00, 0x20)\n      add\n      0x00\n        /* \"contracts/homework/BeggingContract.sol\":5740:5783  donationList[donationLen-1]=donationList[2] */\n      0x0100\n      exp\n      dup2\n      sload\n      dup2\n      0xffffffffffffffffffffffffffffffffffffffff\n      mul\n      not\n      and\n      swap1\n      dup4\n      0xffffffffffffffffffffffffffffffffffffffff\n      and\n      mul\n      or\n      swap1\n      sstore\n      pop\n        /* \"contracts/homework/BeggingContract.sol\":5821:5834  newThirdPlace */\n      dup1\n        /* \"contracts/homework/BeggingContract.sol\":5805:5817  donationList */\n      0x02\n        /* \"contracts/homework/BeggingContract.sol\":5818:5819  2 */\n      dup1\n        /* \"contracts/homework/BeggingContract.sol\":5805:5820  donationList[2] */\n      dup2\n      sload\n      dup2\n      lt\n      tag_278\n      jumpi\n      tag_279\n      tag_109\n      jump\t// in\n    tag_279:\n    tag_278:\n      swap1\n      0x00\n      mstore\n      keccak256(0x00, 0x20)\n      add\n      0x00\n        /* \"contracts/homework/BeggingContract.sol\":5805:5834  donationList[2]=newThirdPlace */\n      0x0100\n      exp\n      dup2\n      sload\n      dup2\n      0xffffffffffffffffffffffffffffffffffffffff\n      mul\n      not\n      and\n      swap1\n      dup4\n      0xffffffffffffffffffffffffffffffffffffffff\n      and\n      mul\n      or\n      swap1\n      sstore\n      pop\n        /* \"contracts/homework/BeggingContract.sol\":5647:5853  {... */\n      pop\n        /* \"contracts/homework/BeggingContract.sol\":5568:5853  if(donationAmount[donationList[donationLen-1]]>donationAmount[donationList[2]]){... */\n    tag_266:\n        /* \"contracts/homework/BeggingContract.sol\":4633:5868  if(donationLen>=3){... */\n    tag_192:\n        /* \"contracts/homework/BeggingContract.sol\":4102:4105  i++ */\n      dup1\n      dup1\n      0x01\n      add\n      swap2\n      pop\n      pop\n        /* \"contracts/homework/BeggingContract.sol\":4082:5879  for(uint256 i=0;i<3;i++){... */\n      jump(tag_168)\n    tag_169:\n      pop\n        /* \"contracts/homework/BeggingContract.sol\":5916:5926  msg.sender */\n      caller\n        /* \"contracts/homework/BeggingContract.sol\":5903:5953  DonatedEvent(msg.sender,amountWei,block.timestamp) */\n      0xffffffffffffffffffffffffffffffffffffffff\n      and\n      0x06c79dc283e8c368b886a089fd4ce20b114cd1668104aee3be6d548c37ab6178\n        /* \"contracts/homework/BeggingContract.sol\":5927:5936  amountWei */\n      dup5\n        /* \"contracts/homework/BeggingContract.sol\":5937:5952  block.timestamp */\n      timestamp\n        /* \"contracts/homework/BeggingContract.sol\":5903:5953  DonatedEvent(msg.sender,amountWei,block.timestamp) */\n      mload(0x40)\n      tag_281\n      swap3\n      swap2\n      swap1\n      tag_26\n      jump\t// in\n    tag_281:\n      mload(0x40)\n      dup1\n      swap2\n      sub\n      swap1\n      log2\n        /* \"contracts/homework/BeggingContract.sol\":5987:5996  recipient */\n      immutable(\"0x277ab82e5a4641341820a4a2933a62c1de997e42e92548657ae21b3728d580fe\")\n        /* \"contracts/homework/BeggingContract.sol\":5987:6005  recipient.transfer */\n      0xffffffffffffffffffffffffffffffffffffffff\n      and\n        /* \"contracts/homework/BeggingContract.sol\":5987:6016  recipient.transfer(amountWei) */\n      0x08fc\n        /* \"contracts/homework/BeggingContract.sol\":6006:6015  amountWei */\n      dup5\n        /* \"contracts/homework/BeggingContract.sol\":5987:6016  recipient.transfer(amountWei) */\n      swap1\n      dup2\n      iszero\n      mul\n      swap1\n      mload(0x40)\n      0x00\n      mload(0x40)\n      dup1\n      dup4\n      sub\n      dup2\n      dup6\n      dup9\n      dup9\n      call\n      swap4\n      pop\n      pop\n      pop\n      pop\n      iszero\n      dup1\n      iszero\n      tag_283\n      jumpi\n      returndatacopy(0x00, 0x00, returndatasize)\n      revert(0x00, returndatasize)\n    tag_283:\n      pop\n        /* \"contracts/homework/BeggingContract.sol\":3033:6025  {... */\n      pop\n      pop\n      pop\n        /* \"contracts/homework/BeggingContract.sol\":2033:2282  {... */\n      pop\n      pop\n        /* \"contracts/homework/BeggingContract.sol\":2971:6025  function donate(uint256 amountEth)external payable timeLimit  {... */\n      pop\n      jump\t// out\n        /* \"#utility.yul\":7:84   */\n    tag_284:\n        /* \"#utility.yul\":44:51   */\n      0x00\n        /* \"#utility.yul\":73:78   */\n      dup2\n        /* \"#utility.yul\":62:78   */\n      swap1\n      pop\n        /* \"#utility.yul\":7:84   */\n      swap2\n      swap1\n      pop\n      jump\t// out\n        /* \"#utility.yul\":90:208   */\n    tag_285:\n        /* \"#utility.yul\":177:201   */\n      tag_325\n        /* \"#utility.yul\":195:200   */\n      dup2\n        /* \"#utility.yul\":177:201   */\n      tag_284\n      jump\t// in\n    tag_325:\n        /* \"#utility.yul\":172:175   */\n      dup3\n        /* \"#utility.yul\":165:202   */\n      mstore\n        /* \"#utility.yul\":90:208   */\n      pop\n      pop\n      jump\t// out\n        /* \"#utility.yul\":214:546   */\n    tag_26:\n        /* \"#utility.yul\":335:339   */\n      0x00\n        /* \"#utility.yul\":373:375   */\n      0x40\n        /* \"#utility.yul\":362:371   */\n      dup3\n        /* \"#utility.yul\":358:376   */\n      add\n        /* \"#utility.yul\":350:376   */\n      swap1\n      pop\n        /* \"#utility.yul\":386:457   */\n      tag_327\n        /* \"#utility.yul\":454:455   */\n      0x00\n        /* \"#utility.yul\":443:452   */\n      dup4\n        /* \"#utility.yul\":439:456   */\n      add\n        /* \"#utility.yul\":430:436   */\n      dup6\n        /* \"#utility.yul\":386:457   */\n      tag_285\n      jump\t// in\n    tag_327:\n        /* \"#utility.yul\":467:539   */\n      tag_328\n        /* \"#utility.yul\":535:537   */\n      0x20\n        /* \"#utility.yul\":524:533   */\n      dup4\n        /* \"#utility.yul\":520:538   */\n      add\n        /* \"#utility.yul\":511:517   */\n      dup5\n        /* \"#utility.yul\":467:539   */\n      tag_285\n      jump\t// in\n    tag_328:\n        /* \"#utility.yul\":214:546   */\n      swap4\n      swap3\n      pop\n      pop\n      pop\n      jump\t// out\n        /* \"#utility.yul\":633:750   */\n    tag_287:\n        /* \"#utility.yul\":742:743   */\n      0x00\n        /* \"#utility.yul\":739:740   */\n      0x00\n        /* \"#utility.yul\":732:744   */\n      revert\n        /* \"#utility.yul\":879:1001   */\n    tag_289:\n        /* \"#utility.yul\":952:976   */\n      tag_333\n        /* \"#utility.yul\":970:975   */\n      dup2\n        /* \"#utility.yul\":952:976   */\n      tag_284\n      jump\t// in\n    tag_333:\n        /* \"#utility.yul\":945:950   */\n      dup2\n        /* \"#utility.yul\":942:977   */\n      eq\n        /* \"#utility.yul\":932:995   */\n      tag_334\n      jumpi\n        /* \"#utility.yul\":991:992   */\n      0x00\n        /* \"#utility.yul\":988:989   */\n      0x00\n        /* \"#utility.yul\":981:993   */\n      revert\n        /* \"#utility.yul\":932:995   */\n    tag_334:\n        /* \"#utility.yul\":879:1001   */\n      pop\n      jump\t// out\n        /* \"#utility.yul\":1007:1146   */\n    tag_290:\n        /* \"#utility.yul\":1053:1058   */\n      0x00\n        /* \"#utility.yul\":1091:1097   */\n      dup2\n        /* \"#utility.yul\":1078:1098   */\n      calldataload\n        /* \"#utility.yul\":1069:1098   */\n      swap1\n      pop\n        /* \"#utility.yul\":1107:1140   */\n      tag_336\n        /* \"#utility.yul\":1134:1139   */\n      dup2\n        /* \"#utility.yul\":1107:1140   */\n      tag_289\n      jump\t// in\n    tag_336:\n        /* \"#utility.yul\":1007:1146   */\n      swap3\n      swap2\n      pop\n      pop\n      jump\t// out\n        /* \"#utility.yul\":1152:1481   */\n    tag_30:\n        /* \"#utility.yul\":1211:1217   */\n      0x00\n        /* \"#utility.yul\":1260:1262   */\n      0x20\n        /* \"#utility.yul\":1248:1257   */\n      dup3\n        /* \"#utility.yul\":1239:1246   */\n      dup5\n        /* \"#utility.yul\":1235:1258   */\n      sub\n        /* \"#utility.yul\":1231:1263   */\n      slt\n        /* \"#utility.yul\":1228:1347   */\n      iszero\n      tag_338\n      jumpi\n        /* \"#utility.yul\":1266:1345   */\n      tag_339\n      tag_287\n      jump\t// in\n    tag_339:\n        /* \"#utility.yul\":1228:1347   */\n    tag_338:\n        /* \"#utility.yul\":1386:1387   */\n      0x00\n        /* \"#utility.yul\":1411:1464   */\n      tag_340\n        /* \"#utility.yul\":1456:1463   */\n      dup5\n        /* \"#utility.yul\":1447:1453   */\n      dup3\n        /* \"#utility.yul\":1436:1445   */\n      dup6\n        /* \"#utility.yul\":1432:1454   */\n      add\n        /* \"#utility.yul\":1411:1464   */\n      tag_290\n      jump\t// in\n    tag_340:\n        /* \"#utility.yul\":1401:1464   */\n      swap2\n      pop\n        /* \"#utility.yul\":1357:1474   */\n      pop\n        /* \"#utility.yul\":1152:1481   */\n      swap3\n      swap2\n      pop\n      pop\n      jump\t// out\n        /* \"#utility.yul\":1487:1613   */\n    tag_291:\n        /* \"#utility.yul\":1524:1531   */\n      0x00\n        /* \"#utility.yul\":1564:1606   */\n      0xffffffffffffffffffffffffffffffffffffffff\n        /* \"#utility.yul\":1557:1562   */\n      dup3\n        /* \"#utility.yul\":1553:1607   */\n      and\n        /* \"#utility.yul\":1542:1607   */\n      swap1\n      pop\n        /* \"#utility.yul\":1487:1613   */\n      swap2\n      swap1\n      pop\n      jump\t// out\n        /* \"#utility.yul\":1619:1715   */\n    tag_292:\n        /* \"#utility.yul\":1656:1663   */\n      0x00\n        /* \"#utility.yul\":1685:1709   */\n      tag_343\n        /* \"#utility.yul\":1703:1708   */\n      dup3\n        /* \"#utility.yul\":1685:1709   */\n      tag_291\n      jump\t// in\n    tag_343:\n        /* \"#utility.yul\":1674:1709   */\n      swap1\n      pop\n        /* \"#utility.yul\":1619:1715   */\n      swap2\n      swap1\n      pop\n      jump\t// out\n        /* \"#utility.yul\":1721:1839   */\n    tag_293:\n        /* \"#utility.yul\":1808:1832   */\n      tag_345\n        /* \"#utility.yul\":1826:1831   */\n      dup2\n        /* \"#utility.yul\":1808:1832   */\n      tag_292\n      jump\t// in\n    tag_345:\n        /* \"#utility.yul\":1803:1806   */\n      dup3\n        /* \"#utility.yul\":1796:1833   */\n      mstore\n        /* \"#utility.yul\":1721:1839   */\n      pop\n      pop\n      jump\t// out\n        /* \"#utility.yul\":1845:2067   */\n    tag_33:\n        /* \"#utility.yul\":1938:1942   */\n      0x00\n        /* \"#utility.yul\":1976:1978   */\n      0x20\n        /* \"#utility.yul\":1965:1974   */\n      dup3\n        /* \"#utility.yul\":1961:1979   */\n      add\n        /* \"#utility.yul\":1953:1979   */\n      swap1\n      pop\n        /* \"#utility.yul\":1989:2060   */\n      tag_347\n        /* \"#utility.yul\":2057:2058   */\n      0x00\n        /* \"#utility.yul\":2046:2055   */\n      dup4\n        /* \"#utility.yul\":2042:2059   */\n      add\n        /* \"#utility.yul\":2033:2039   */\n      dup5\n        /* \"#utility.yul\":1989:2060   */\n      tag_293\n      jump\t// in\n    tag_347:\n        /* \"#utility.yul\":1845:2067   */\n      swap3\n      swap2\n      pop\n      pop\n      jump\t// out\n        /* \"#utility.yul\":2073:2195   */\n    tag_294:\n        /* \"#utility.yul\":2146:2170   */\n      tag_349\n        /* \"#utility.yul\":2164:2169   */\n      dup2\n        /* \"#utility.yul\":2146:2170   */\n      tag_292\n      jump\t// in\n    tag_349:\n        /* \"#utility.yul\":2139:2144   */\n      dup2\n        /* \"#utility.yul\":2136:2171   */\n      eq\n        /* \"#utility.yul\":2126:2189   */\n      tag_350\n      jumpi\n        /* \"#utility.yul\":2185:2186   */\n      0x00\n        /* \"#utility.yul\":2182:2183   */\n      0x00\n        /* \"#utility.yul\":2175:2187   */\n      revert\n        /* \"#utility.yul\":2126:2189   */\n    tag_350:\n        /* \"#utility.yul\":2073:2195   */\n      pop\n      jump\t// out\n        /* \"#utility.yul\":2201:2340   */\n    tag_295:\n        /* \"#utility.yul\":2247:2252   */\n      0x00\n        /* \"#utility.yul\":2285:2291   */\n      dup2\n        /* \"#utility.yul\":2272:2292   */\n      calldataload\n        /* \"#utility.yul\":2263:2292   */\n      swap1\n      pop\n        /* \"#utility.yul\":2301:2334   */\n      tag_352\n        /* \"#utility.yul\":2328:2333   */\n      dup2\n        /* \"#utility.yul\":2301:2334   */\n      tag_294\n      jump\t// in\n    tag_352:\n        /* \"#utility.yul\":2201:2340   */\n      swap3\n      swap2\n      pop\n      pop\n      jump\t// out\n        /* \"#utility.yul\":2346:2675   */\n    tag_37:\n        /* \"#utility.yul\":2405:2411   */\n      0x00\n        /* \"#utility.yul\":2454:2456   */\n      0x20\n        /* \"#utility.yul\":2442:2451   */\n      dup3\n        /* \"#utility.yul\":2433:2440   */\n      dup5\n        /* \"#utility.yul\":2429:2452   */\n      sub\n        /* \"#utility.yul\":2425:2457   */\n      slt\n        /* \"#utility.yul\":2422:2541   */\n      iszero\n      tag_354\n      jumpi\n        /* \"#utility.yul\":2460:2539   */\n      tag_355\n      tag_287\n      jump\t// in\n    tag_355:\n        /* \"#utility.yul\":2422:2541   */\n    tag_354:\n        /* \"#utility.yul\":2580:2581   */\n      0x00\n        /* \"#utility.yul\":2605:2658   */\n      tag_356\n        /* \"#utility.yul\":2650:2657   */\n      dup5\n        /* \"#utility.yul\":2641:2647   */\n      dup3\n        /* \"#utility.yul\":2630:2639   */\n      dup6\n        /* \"#utility.yul\":2626:2648   */\n      add\n        /* \"#utility.yul\":2605:2658   */\n      tag_295\n      jump\t// in\n    tag_356:\n        /* \"#utility.yul\":2595:2658   */\n      swap2\n      pop\n        /* \"#utility.yul\":2551:2668   */\n      pop\n        /* \"#utility.yul\":2346:2675   */\n      swap3\n      swap2\n      pop\n      pop\n      jump\t// out\n        /* \"#utility.yul\":2681:2771   */\n    tag_296:\n        /* \"#utility.yul\":2715:2722   */\n      0x00\n        /* \"#utility.yul\":2758:2763   */\n      dup2\n        /* \"#utility.yul\":2751:2764   */\n      iszero\n        /* \"#utility.yul\":2744:2765   */\n      iszero\n        /* \"#utility.yul\":2733:2765   */\n      swap1\n      pop\n        /* \"#utility.yul\":2681:2771   */\n      swap2\n      swap1\n      pop\n      jump\t// out\n        /* \"#utility.yul\":2777:2886   */\n    tag_297:\n        /* \"#utility.yul\":2858:2879   */\n      tag_359\n        /* \"#utility.yul\":2873:2878   */\n      dup2\n        /* \"#utility.yul\":2858:2879   */\n      tag_296\n      jump\t// in\n    tag_359:\n        /* \"#utility.yul\":2853:2856   */\n      dup3\n        /* \"#utility.yul\":2846:2880   */\n      mstore\n        /* \"#utility.yul\":2777:2886   */\n      pop\n      pop\n      jump\t// out\n        /* \"#utility.yul\":2892:3102   */\n    tag_40:\n        /* \"#utility.yul\":2979:2983   */\n      0x00\n        /* \"#utility.yul\":3017:3019   */\n      0x20\n        /* \"#utility.yul\":3006:3015   */\n      dup3\n        /* \"#utility.yul\":3002:3020   */\n      add\n        /* \"#utility.yul\":2994:3020   */\n      swap1\n      pop\n        /* \"#utility.yul\":3030:3095   */\n      tag_361\n        /* \"#utility.yul\":3092:3093   */\n      0x00\n        /* \"#utility.yul\":3081:3090   */\n      dup4\n        /* \"#utility.yul\":3077:3094   */\n      add\n        /* \"#utility.yul\":3068:3074   */\n      dup5\n        /* \"#utility.yul\":3030:3095   */\n      tag_297\n      jump\t// in\n    tag_361:\n        /* \"#utility.yul\":2892:3102   */\n      swap3\n      swap2\n      pop\n      pop\n      jump\t// out\n        /* \"#utility.yul\":3108:3222   */\n    tag_298:\n        /* \"#utility.yul\":3175:3181   */\n      0x00\n        /* \"#utility.yul\":3209:3214   */\n      dup2\n        /* \"#utility.yul\":3203:3215   */\n      mload\n        /* \"#utility.yul\":3193:3215   */\n      swap1\n      pop\n        /* \"#utility.yul\":3108:3222   */\n      swap2\n      swap1\n      pop\n      jump\t// out\n        /* \"#utility.yul\":3228:3412   */\n    tag_299:\n        /* \"#utility.yul\":3327:3338   */\n      0x00\n        /* \"#utility.yul\":3361:3367   */\n      dup3\n        /* \"#utility.yul\":3356:3359   */\n      dup3\n        /* \"#utility.yul\":3349:3368   */\n      mstore\n        /* \"#utility.yul\":3401:3405   */\n      0x20\n        /* \"#utility.yul\":3396:3399   */\n      dup3\n        /* \"#utility.yul\":3392:3406   */\n      add\n        /* \"#utility.yul\":3377:3406   */\n      swap1\n      pop\n        /* \"#utility.yul\":3228:3412   */\n      swap3\n      swap2\n      pop\n      pop\n      jump\t// out\n        /* \"#utility.yul\":3418:3550   */\n    tag_300:\n        /* \"#utility.yul\":3485:3489   */\n      0x00\n        /* \"#utility.yul\":3508:3511   */\n      dup2\n        /* \"#utility.yul\":3500:3511   */\n      swap1\n      pop\n        /* \"#utility.yul\":3538:3542   */\n      0x20\n        /* \"#utility.yul\":3533:3536   */\n      dup3\n        /* \"#utility.yul\":3529:3543   */\n      add\n        /* \"#utility.yul\":3521:3543   */\n      swap1\n      pop\n        /* \"#utility.yul\":3418:3550   */\n      swap2\n      swap1\n      pop\n      jump\t// out\n        /* \"#utility.yul\":3556:3664   */\n    tag_301:\n        /* \"#utility.yul\":3633:3657   */\n      tag_366\n        /* \"#utility.yul\":3651:3656   */\n      dup2\n        /* \"#utility.yul\":3633:3657   */\n      tag_292\n      jump\t// in\n    tag_366:\n        /* \"#utility.yul\":3628:3631   */\n      dup3\n        /* \"#utility.yul\":3621:3658   */\n      mstore\n        /* \"#utility.yul\":3556:3664   */\n      pop\n      pop\n      jump\t// out\n        /* \"#utility.yul\":3670:3849   */\n    tag_302:\n        /* \"#utility.yul\":3739:3749   */\n      0x00\n        /* \"#utility.yul\":3760:3806   */\n      tag_368\n        /* \"#utility.yul\":3802:3805   */\n      dup4\n        /* \"#utility.yul\":3794:3800   */\n      dup4\n        /* \"#utility.yul\":3760:3806   */\n      tag_301\n      jump\t// in\n    tag_368:\n        /* \"#utility.yul\":3838:3842   */\n      0x20\n        /* \"#utility.yul\":3833:3836   */\n      dup4\n        /* \"#utility.yul\":3829:3843   */\n      add\n        /* \"#utility.yul\":3815:3843   */\n      swap1\n      pop\n        /* \"#utility.yul\":3670:3849   */\n      swap3\n      swap2\n      pop\n      pop\n      jump\t// out\n        /* \"#utility.yul\":3855:3968   */\n    tag_303:\n        /* \"#utility.yul\":3925:3929   */\n      0x00\n        /* \"#utility.yul\":3957:3961   */\n      0x20\n        /* \"#utility.yul\":3952:3955   */\n      dup3\n        /* \"#utility.yul\":3948:3962   */\n      add\n        /* \"#utility.yul\":3940:3962   */\n      swap1\n      pop\n        /* \"#utility.yul\":3855:3968   */\n      swap2\n      swap1\n      pop\n      jump\t// out\n        /* \"#utility.yul\":4004:4736   */\n    tag_304:\n        /* \"#utility.yul\":4123:4126   */\n      0x00\n        /* \"#utility.yul\":4152:4206   */\n      tag_371\n        /* \"#utility.yul\":4200:4205   */\n      dup3\n        /* \"#utility.yul\":4152:4206   */\n      tag_298\n      jump\t// in\n    tag_371:\n        /* \"#utility.yul\":4222:4308   */\n      tag_372\n        /* \"#utility.yul\":4301:4307   */\n      dup2\n        /* \"#utility.yul\":4296:4299   */\n      dup6\n        /* \"#utility.yul\":4222:4308   */\n      tag_299\n      jump\t// in\n    tag_372:\n        /* \"#utility.yul\":4215:4308   */\n      swap4\n      pop\n        /* \"#utility.yul\":4332:4388   */\n      tag_373\n        /* \"#utility.yul\":4382:4387   */\n      dup4\n        /* \"#utility.yul\":4332:4388   */\n      tag_300\n      jump\t// in\n    tag_373:\n        /* \"#utility.yul\":4411:4418   */\n      dup1\n        /* \"#utility.yul\":4442:4443   */\n      0x00\n        /* \"#utility.yul\":4427:4711   */\n    tag_374:\n        /* \"#utility.yul\":4452:4458   */\n      dup4\n        /* \"#utility.yul\":4449:4450   */\n      dup2\n        /* \"#utility.yul\":4446:4459   */\n      lt\n        /* \"#utility.yul\":4427:4711   */\n      iszero\n      tag_376\n      jumpi\n        /* \"#utility.yul\":4528:4534   */\n      dup2\n        /* \"#utility.yul\":4522:4535   */\n      mload\n        /* \"#utility.yul\":4555:4618   */\n      tag_377\n        /* \"#utility.yul\":4614:4617   */\n      dup9\n        /* \"#utility.yul\":4599:4612   */\n      dup3\n        /* \"#utility.yul\":4555:4618   */\n      tag_302\n      jump\t// in\n    tag_377:\n        /* \"#utility.yul\":4548:4618   */\n      swap8\n      pop\n        /* \"#utility.yul\":4641:4701   */\n      tag_378\n        /* \"#utility.yul\":4694:4700   */\n      dup4\n        /* \"#utility.yul\":4641:4701   */\n      tag_303\n      jump\t// in\n    tag_378:\n        /* \"#utility.yul\":4631:4701   */\n      swap3\n      pop\n        /* \"#utility.yul\":4487:4711   */\n      pop\n        /* \"#utility.yul\":4474:4475   */\n      0x01\n        /* \"#utility.yul\":4471:4472   */\n      dup2\n        /* \"#utility.yul\":4467:4476   */\n      add\n        /* \"#utility.yul\":4462:4476   */\n      swap1\n      pop\n        /* \"#utility.yul\":4427:4711   */\n      jump(tag_374)\n    tag_376:\n        /* \"#utility.yul\":4431:4445   */\n      pop\n        /* \"#utility.yul\":4727:4730   */\n      dup6\n        /* \"#utility.yul\":4720:4730   */\n      swap4\n      pop\n        /* \"#utility.yul\":4128:4736   */\n      pop\n      pop\n      pop\n        /* \"#utility.yul\":4004:4736   */\n      swap3\n      swap2\n      pop\n      pop\n      jump\t// out\n        /* \"#utility.yul\":4742:5115   */\n    tag_45:\n        /* \"#utility.yul\":4885:4889   */\n      0x00\n        /* \"#utility.yul\":4923:4925   */\n      0x20\n        /* \"#utility.yul\":4912:4921   */\n      dup3\n        /* \"#utility.yul\":4908:4926   */\n      add\n        /* \"#utility.yul\":4900:4926   */\n      swap1\n      pop\n        /* \"#utility.yul\":4972:4981   */\n      dup2\n        /* \"#utility.yul\":4966:4970   */\n      dup2\n        /* \"#utility.yul\":4962:4982   */\n      sub\n        /* \"#utility.yul\":4958:4959   */\n      0x00\n        /* \"#utility.yul\":4947:4956   */\n      dup4\n        /* \"#utility.yul\":4943:4960   */\n      add\n        /* \"#utility.yul\":4936:4983   */\n      mstore\n        /* \"#utility.yul\":5000:5108   */\n      tag_380\n        /* \"#utility.yul\":5103:5107   */\n      dup2\n        /* \"#utility.yul\":5094:5100   */\n      dup5\n        /* \"#utility.yul\":5000:5108   */\n      tag_304\n      jump\t// in\n    tag_380:\n        /* \"#utility.yul\":4992:5108   */\n      swap1\n      pop\n        /* \"#utility.yul\":4742:5115   */\n      swap3\n      swap2\n      pop\n      pop\n      jump\t// out\n        /* \"#utility.yul\":5121:5343   */\n    tag_50:\n        /* \"#utility.yul\":5214:5218   */\n      0x00\n        /* \"#utility.yul\":5252:5254   */\n      0x20\n        /* \"#utility.yul\":5241:5250   */\n      dup3\n        /* \"#utility.yul\":5237:5255   */\n      add\n        /* \"#utility.yul\":5229:5255   */\n      swap1\n      pop\n        /* \"#utility.yul\":5265:5336   */\n      tag_382\n        /* \"#utility.yul\":5333:5334   */\n      0x00\n        /* \"#utility.yul\":5322:5331   */\n      dup4\n        /* \"#utility.yul\":5318:5335   */\n      add\n        /* \"#utility.yul\":5309:5315   */\n      dup5\n        /* \"#utility.yul\":5265:5336   */\n      tag_285\n      jump\t// in\n    tag_382:\n        /* \"#utility.yul\":5121:5343   */\n      swap3\n      swap2\n      pop\n      pop\n      jump\t// out\n        /* \"#utility.yul\":5349:5453   */\n    tag_305:\n        /* \"#utility.yul\":5394:5401   */\n      0x00\n        /* \"#utility.yul\":5423:5447   */\n      tag_384\n        /* \"#utility.yul\":5441:5446   */\n      dup3\n        /* \"#utility.yul\":5423:5447   */\n      tag_291\n      jump\t// in\n    tag_384:\n        /* \"#utility.yul\":5412:5447   */\n      swap1\n      pop\n        /* \"#utility.yul\":5349:5453   */\n      swap2\n      swap1\n      pop\n      jump\t// out\n        /* \"#utility.yul\":5459:5601   */\n    tag_306:\n        /* \"#utility.yul\":5562:5594   */\n      tag_386\n        /* \"#utility.yul\":5588:5593   */\n      dup2\n        /* \"#utility.yul\":5562:5594   */\n      tag_305\n      jump\t// in\n    tag_386:\n        /* \"#utility.yul\":5557:5560   */\n      dup3\n        /* \"#utility.yul\":5550:5595   */\n      mstore\n        /* \"#utility.yul\":5459:5601   */\n      pop\n      pop\n      jump\t// out\n        /* \"#utility.yul\":5607:5861   */\n    tag_68:\n        /* \"#utility.yul\":5716:5720   */\n      0x00\n        /* \"#utility.yul\":5754:5756   */\n      0x20\n        /* \"#utility.yul\":5743:5752   */\n      dup3\n        /* \"#utility.yul\":5739:5757   */\n      add\n        /* \"#utility.yul\":5731:5757   */\n      swap1\n      pop\n        /* \"#utility.yul\":5767:5854   */\n      tag_388\n        /* \"#utility.yul\":5851:5852   */\n      0x00\n        /* \"#utility.yul\":5840:5849   */\n      dup4\n        /* \"#utility.yul\":5836:5853   */\n      add\n        /* \"#utility.yul\":5827:5833   */\n      dup5\n        /* \"#utility.yul\":5767:5854   */\n      tag_306\n      jump\t// in\n    tag_388:\n        /* \"#utility.yul\":5607:5861   */\n      swap3\n      swap2\n      pop\n      pop\n      jump\t// out\n        /* \"#utility.yul\":5867:6047   */\n    tag_101:\n        /* \"#utility.yul\":5915:5992   */\n      0x4e487b7100000000000000000000000000000000000000000000000000000000\n        /* \"#utility.yul\":5912:5913   */\n      0x00\n        /* \"#utility.yul\":5905:5993   */\n      mstore\n        /* \"#utility.yul\":6012:6016   */\n      0x41\n        /* \"#utility.yul\":6009:6010   */\n      0x04\n        /* \"#utility.yul\":6002:6017   */\n      mstore\n        /* \"#utility.yul\":6036:6040   */\n      0x24\n        /* \"#utility.yul\":6033:6034   */\n      0x00\n        /* \"#utility.yul\":6026:6041   */\n      revert\n        /* \"#utility.yul\":6053:6233   */\n    tag_109:\n        /* \"#utility.yul\":6101:6178   */\n      0x4e487b7100000000000000000000000000000000000000000000000000000000\n        /* \"#utility.yul\":6098:6099   */\n      0x00\n        /* \"#utility.yul\":6091:6179   */\n      mstore\n        /* \"#utility.yul\":6198:6202   */\n      0x32\n        /* \"#utility.yul\":6195:6196   */\n      0x04\n        /* \"#utility.yul\":6188:6203   */\n      mstore\n        /* \"#utility.yul\":6222:6226   */\n      0x24\n        /* \"#utility.yul\":6219:6220   */\n      0x00\n        /* \"#utility.yul\":6212:6227   */\n      revert\n        /* \"#utility.yul\":6239:6419   */\n    tag_307:\n        /* \"#utility.yul\":6287:6364   */\n      0x4e487b7100000000000000000000000000000000000000000000000000000000\n        /* \"#utility.yul\":6284:6285   */\n      0x00\n        /* \"#utility.yul\":6277:6365   */\n      mstore\n        /* \"#utility.yul\":6384:6388   */\n      0x12\n        /* \"#utility.yul\":6381:6382   */\n      0x04\n        /* \"#utility.yul\":6374:6389   */\n      mstore\n        /* \"#utility.yul\":6408:6412   */\n      0x24\n        /* \"#utility.yul\":6405:6406   */\n      0x00\n        /* \"#utility.yul\":6398:6413   */\n      revert\n        /* \"#utility.yul\":6425:6601   */\n    tag_115:\n        /* \"#utility.yul\":6457:6458   */\n      0x00\n        /* \"#utility.yul\":6474:6494   */\n      tag_393\n        /* \"#utility.yul\":6492:6493   */\n      dup3\n        /* \"#utility.yul\":6474:6494   */\n      tag_284\n      jump\t// in\n    tag_393:\n        /* \"#utility.yul\":6469:6494   */\n      swap2\n      pop\n        /* \"#utility.yul\":6508:6528   */\n      tag_394\n        /* \"#utility.yul\":6526:6527   */\n      dup4\n        /* \"#utility.yul\":6508:6528   */\n      tag_284\n      jump\t// in\n    tag_394:\n        /* \"#utility.yul\":6503:6528   */\n      swap3\n      pop\n        /* \"#utility.yul\":6547:6548   */\n      dup3\n        /* \"#utility.yul\":6537:6572   */\n      tag_395\n      jumpi\n        /* \"#utility.yul\":6552:6570   */\n      tag_396\n      tag_307\n      jump\t// in\n    tag_396:\n        /* \"#utility.yul\":6537:6572   */\n    tag_395:\n        /* \"#utility.yul\":6593:6594   */\n      dup3\n        /* \"#utility.yul\":6590:6591   */\n      dup3\n        /* \"#utility.yul\":6586:6595   */\n      mod\n        /* \"#utility.yul\":6581:6595   */\n      swap1\n      pop\n        /* \"#utility.yul\":6425:6601   */\n      swap3\n      swap2\n      pop\n      pop\n      jump\t// out\n        /* \"#utility.yul\":6607:6787   */\n    tag_308:\n        /* \"#utility.yul\":6655:6732   */\n      0x4e487b7100000000000000000000000000000000000000000000000000000000\n        /* \"#utility.yul\":6652:6653   */\n      0x00\n        /* \"#utility.yul\":6645:6733   */\n      mstore\n        /* \"#utility.yul\":6752:6756   */\n      0x11\n        /* \"#utility.yul\":6749:6750   */\n      0x04\n        /* \"#utility.yul\":6742:6757   */\n      mstore\n        /* \"#utility.yul\":6776:6780   */\n      0x24\n        /* \"#utility.yul\":6773:6774   */\n      0x00\n        /* \"#utility.yul\":6766:6781   */\n      revert\n        /* \"#utility.yul\":6793:6978   */\n    tag_117:\n        /* \"#utility.yul\":6833:6834   */\n      0x00\n        /* \"#utility.yul\":6850:6870   */\n      tag_399\n        /* \"#utility.yul\":6868:6869   */\n      dup3\n        /* \"#utility.yul\":6850:6870   */\n      tag_284\n      jump\t// in\n    tag_399:\n        /* \"#utility.yul\":6845:6870   */\n      swap2\n      pop\n        /* \"#utility.yul\":6884:6904   */\n      tag_400\n        /* \"#utility.yul\":6902:6903   */\n      dup4\n        /* \"#utility.yul\":6884:6904   */\n      tag_284\n      jump\t// in\n    tag_400:\n        /* \"#utility.yul\":6879:6904   */\n      swap3\n      pop\n        /* \"#utility.yul\":6923:6924   */\n      dup3\n        /* \"#utility.yul\":6913:6948   */\n      tag_401\n      jumpi\n        /* \"#utility.yul\":6928:6946   */\n      tag_402\n      tag_307\n      jump\t// in\n    tag_402:\n        /* \"#utility.yul\":6913:6948   */\n    tag_401:\n        /* \"#utility.yul\":6970:6971   */\n      dup3\n        /* \"#utility.yul\":6967:6968   */\n      dup3\n        /* \"#utility.yul\":6963:6972   */\n      div\n        /* \"#utility.yul\":6958:6972   */\n      swap1\n      pop\n        /* \"#utility.yul\":6793:6978   */\n      swap3\n      swap2\n      pop\n      pop\n      jump\t// out\n        /* \"#utility.yul\":6984:7153   */\n    tag_309:\n        /* \"#utility.yul\":7068:7079   */\n      0x00\n        /* \"#utility.yul\":7102:7108   */\n      dup3\n        /* \"#utility.yul\":7097:7100   */\n      dup3\n        /* \"#utility.yul\":7090:7109   */\n      mstore\n        /* \"#utility.yul\":7142:7146   */\n      0x20\n        /* \"#utility.yul\":7137:7140   */\n      dup3\n        /* \"#utility.yul\":7133:7147   */\n      add\n        /* \"#utility.yul\":7118:7147   */\n      swap1\n      pop\n        /* \"#utility.yul\":6984:7153   */\n      swap3\n      swap2\n      pop\n      pop\n      jump\t// out\n        /* \"#utility.yul\":7159:7317   */\n    tag_310:\n        /* \"#utility.yul\":7299:7309   */\n      0x4e6f2041646d696e000000000000000000000000000000000000000000000000\n        /* \"#utility.yul\":7295:7296   */\n      0x00\n        /* \"#utility.yul\":7287:7293   */\n      dup3\n        /* \"#utility.yul\":7283:7297   */\n      add\n        /* \"#utility.yul\":7276:7310   */\n      mstore\n        /* \"#utility.yul\":7159:7317   */\n      pop\n      jump\t// out\n        /* \"#utility.yul\":7323:7688   */\n    tag_311:\n        /* \"#utility.yul\":7465:7468   */\n      0x00\n        /* \"#utility.yul\":7486:7552   */\n      tag_406\n        /* \"#utility.yul\":7550:7551   */\n      0x08\n        /* \"#utility.yul\":7545:7548   */\n      dup4\n        /* \"#utility.yul\":7486:7552   */\n      tag_309\n      jump\t// in\n    tag_406:\n        /* \"#utility.yul\":7479:7552   */\n      swap2\n      pop\n        /* \"#utility.yul\":7561:7654   */\n      tag_407\n        /* \"#utility.yul\":7650:7653   */\n      dup3\n        /* \"#utility.yul\":7561:7654   */\n      tag_310\n      jump\t// in\n    tag_407:\n        /* \"#utility.yul\":7679:7681   */\n      0x20\n        /* \"#utility.yul\":7674:7677   */\n      dup3\n        /* \"#utility.yul\":7670:7682   */\n      add\n        /* \"#utility.yul\":7663:7682   */\n      swap1\n      pop\n        /* \"#utility.yul\":7323:7688   */\n      swap2\n      swap1\n      pop\n      jump\t// out\n        /* \"#utility.yul\":7694:8113   */\n    tag_121:\n        /* \"#utility.yul\":7860:7864   */\n      0x00\n        /* \"#utility.yul\":7898:7900   */\n      0x20\n        /* \"#utility.yul\":7887:7896   */\n      dup3\n        /* \"#utility.yul\":7883:7901   */\n      add\n        /* \"#utility.yul\":7875:7901   */\n      swap1\n      pop\n        /* \"#utility.yul\":7947:7956   */\n      dup2\n        /* \"#utility.yul\":7941:7945   */\n      dup2\n        /* \"#utility.yul\":7937:7957   */\n      sub\n        /* \"#utility.yul\":7933:7934   */\n      0x00\n        /* \"#utility.yul\":7922:7931   */\n      dup4\n        /* \"#utility.yul\":7918:7935   */\n      add\n        /* \"#utility.yul\":7911:7958   */\n      mstore\n        /* \"#utility.yul\":7975:8106   */\n      tag_409\n        /* \"#utility.yul\":8101:8105   */\n      dup2\n        /* \"#utility.yul\":7975:8106   */\n      tag_311\n      jump\t// in\n    tag_409:\n        /* \"#utility.yul\":7967:8106   */\n      swap1\n      pop\n        /* \"#utility.yul\":7694:8113   */\n      swap2\n      swap1\n      pop\n      jump\t// out\n        /* \"#utility.yul\":8119:8365   */\n    tag_312:\n        /* \"#utility.yul\":8259:8293   */\n      0x57697468647261773a20696e76616c696420616d6f756e7420287a65726f206f\n        /* \"#utility.yul\":8255:8256   */\n      0x00\n        /* \"#utility.yul\":8247:8253   */\n      dup3\n        /* \"#utility.yul\":8243:8257   */\n      add\n        /* \"#utility.yul\":8236:8294   */\n      mstore\n        /* \"#utility.yul\":8328:8357   */\n      0x72206578636565647320636f6e74726163742062616c616e6365290000000000\n        /* \"#utility.yul\":8323:8325   */\n      0x20\n        /* \"#utility.yul\":8315:8321   */\n      dup3\n        /* \"#utility.yul\":8311:8326   */\n      add\n        /* \"#utility.yul\":8304:8358   */\n      mstore\n        /* \"#utility.yul\":8119:8365   */\n      pop\n      jump\t// out\n        /* \"#utility.yul\":8371:8737   */\n    tag_313:\n        /* \"#utility.yul\":8513:8516   */\n      0x00\n        /* \"#utility.yul\":8534:8601   */\n      tag_412\n        /* \"#utility.yul\":8598:8600   */\n      0x3b\n        /* \"#utility.yul\":8593:8596   */\n      dup4\n        /* \"#utility.yul\":8534:8601   */\n      tag_309\n      jump\t// in\n    tag_412:\n        /* \"#utility.yul\":8527:8601   */\n      swap2\n      pop\n        /* \"#utility.yul\":8610:8703   */\n      tag_413\n        /* \"#utility.yul\":8699:8702   */\n      dup3\n        /* \"#utility.yul\":8610:8703   */\n      tag_312\n      jump\t// in\n    tag_413:\n        /* \"#utility.yul\":8728:8730   */\n      0x40\n        /* \"#utility.yul\":8723:8726   */\n      dup3\n        /* \"#utility.yul\":8719:8731   */\n      add\n        /* \"#utility.yul\":8712:8731   */\n      swap1\n      pop\n        /* \"#utility.yul\":8371:8737   */\n      swap2\n      swap1\n      pop\n      jump\t// out\n        /* \"#utility.yul\":8743:9162   */\n    tag_127:\n        /* \"#utility.yul\":8909:8913   */\n      0x00\n        /* \"#utility.yul\":8947:8949   */\n      0x20\n        /* \"#utility.yul\":8936:8945   */\n      dup3\n        /* \"#utility.yul\":8932:8950   */\n      add\n        /* \"#utility.yul\":8924:8950   */\n      swap1\n      pop\n        /* \"#utility.yul\":8996:9005   */\n      dup2\n        /* \"#utility.yul\":8990:8994   */\n      dup2\n        /* \"#utility.yul\":8986:9006   */\n      sub\n        /* \"#utility.yul\":8982:8983   */\n      0x00\n        /* \"#utility.yul\":8971:8980   */\n      dup4\n        /* \"#utility.yul\":8967:8984   */\n      add\n        /* \"#utility.yul\":8960:9007   */\n      mstore\n        /* \"#utility.yul\":9024:9155   */\n      tag_415\n        /* \"#utility.yul\":9150:9154   */\n      dup2\n        /* \"#utility.yul\":9024:9155   */\n      tag_313\n      jump\t// in\n    tag_415:\n        /* \"#utility.yul\":9016:9155   */\n      swap1\n      pop\n        /* \"#utility.yul\":8743:9162   */\n      swap2\n      swap1\n      pop\n      jump\t// out\n        /* \"#utility.yul\":9168:9338   */\n    tag_314:\n        /* \"#utility.yul\":9308:9330   */\n      0x42616c616e636520496e73756666696369656e74000000000000000000000000\n        /* \"#utility.yul\":9304:9305   */\n      0x00\n        /* \"#utility.yul\":9296:9302   */\n      dup3\n        /* \"#utility.yul\":9292:9306   */\n      add\n        /* \"#utility.yul\":9285:9331   */\n      mstore\n        /* \"#utility.yul\":9168:9338   */\n      pop\n      jump\t// out\n        /* \"#utility.yul\":9344:9710   */\n    tag_315:\n        /* \"#utility.yul\":9486:9489   */\n      0x00\n        /* \"#utility.yul\":9507:9574   */\n      tag_418\n        /* \"#utility.yul\":9571:9573   */\n      0x14\n        /* \"#utility.yul\":9566:9569   */\n      dup4\n        /* \"#utility.yul\":9507:9574   */\n      tag_309\n      jump\t// in\n    tag_418:\n        /* \"#utility.yul\":9500:9574   */\n      swap2\n      pop\n        /* \"#utility.yul\":9583:9676   */\n      tag_419\n        /* \"#utility.yul\":9672:9675   */\n      dup3\n        /* \"#utility.yul\":9583:9676   */\n      tag_314\n      jump\t// in\n    tag_419:\n        /* \"#utility.yul\":9701:9703   */\n      0x20\n        /* \"#utility.yul\":9696:9699   */\n      dup3\n        /* \"#utility.yul\":9692:9704   */\n      add\n        /* \"#utility.yul\":9685:9704   */\n      swap1\n      pop\n        /* \"#utility.yul\":9344:9710   */\n      swap2\n      swap1\n      pop\n      jump\t// out\n        /* \"#utility.yul\":9716:10135   */\n    tag_141:\n        /* \"#utility.yul\":9882:9886   */\n      0x00\n        /* \"#utility.yul\":9920:9922   */\n      0x20\n        /* \"#utility.yul\":9909:9918   */\n      dup3\n        /* \"#utility.yul\":9905:9923   */\n      add\n        /* \"#utility.yul\":9897:9923   */\n      swap1\n      pop\n        /* \"#utility.yul\":9969:9978   */\n      dup2\n        /* \"#utility.yul\":9963:9967   */\n      dup2\n        /* \"#utility.yul\":9959:9979   */\n      sub\n        /* \"#utility.yul\":9955:9956   */\n      0x00\n        /* \"#utility.yul\":9944:9953   */\n      dup4\n        /* \"#utility.yul\":9940:9957   */\n      add\n        /* \"#utility.yul\":9933:9980   */\n      mstore\n        /* \"#utility.yul\":9997:10128   */\n      tag_421\n        /* \"#utility.yul\":10123:10127   */\n      dup2\n        /* \"#utility.yul\":9997:10128   */\n      tag_315\n      jump\t// in\n    tag_421:\n        /* \"#utility.yul\":9989:10128   */\n      swap1\n      pop\n        /* \"#utility.yul\":9716:10135   */\n      swap2\n      swap1\n      pop\n      jump\t// out\n        /* \"#utility.yul\":10141:10378   */\n    tag_316:\n        /* \"#utility.yul\":10281:10315   */\n      0x566f74696e67206973206f6e6c7920616c6c6f776564206265747765656e2031\n        /* \"#utility.yul\":10277:10278   */\n      0x00\n        /* \"#utility.yul\":10269:10275   */\n      dup3\n        /* \"#utility.yul\":10265:10279   */\n      add\n        /* \"#utility.yul\":10258:10316   */\n      mstore\n        /* \"#utility.yul\":10350:10370   */\n      0x323a303020616e642031333a3030205554430000000000000000000000000000\n        /* \"#utility.yul\":10345:10347   */\n      0x20\n        /* \"#utility.yul\":10337:10343   */\n      dup3\n        /* \"#utility.yul\":10333:10348   */\n      add\n        /* \"#utility.yul\":10326:10371   */\n      mstore\n        /* \"#utility.yul\":10141:10378   */\n      pop\n      jump\t// out\n        /* \"#utility.yul\":10384:10750   */\n    tag_317:\n        /* \"#utility.yul\":10526:10529   */\n      0x00\n        /* \"#utility.yul\":10547:10614   */\n      tag_424\n        /* \"#utility.yul\":10611:10613   */\n      0x32\n        /* \"#utility.yul\":10606:10609   */\n      dup4\n        /* \"#utility.yul\":10547:10614   */\n      tag_309\n      jump\t// in\n    tag_424:\n        /* \"#utility.yul\":10540:10614   */\n      swap2\n      pop\n        /* \"#utility.yul\":10623:10716   */\n      tag_425\n        /* \"#utility.yul\":10712:10715   */\n      dup3\n        /* \"#utility.yul\":10623:10716   */\n      tag_316\n      jump\t// in\n    tag_425:\n        /* \"#utility.yul\":10741:10743   */\n      0x40\n        /* \"#utility.yul\":10736:10739   */\n      dup3\n        /* \"#utility.yul\":10732:10744   */\n      add\n        /* \"#utility.yul\":10725:10744   */\n      swap1\n      pop\n        /* \"#utility.yul\":10384:10750   */\n      swap2\n      swap1\n      pop\n      jump\t// out\n        /* \"#utility.yul\":10756:11175   */\n    tag_150:\n        /* \"#utility.yul\":10922:10926   */\n      0x00\n        /* \"#utility.yul\":10960:10962   */\n      0x20\n        /* \"#utility.yul\":10949:10958   */\n      dup3\n        /* \"#utility.yul\":10945:10963   */\n      add\n        /* \"#utility.yul\":10937:10963   */\n      swap1\n      pop\n        /* \"#utility.yul\":11009:11018   */\n      dup2\n        /* \"#utility.yul\":11003:11007   */\n      dup2\n        /* \"#utility.yul\":10999:11019   */\n      sub\n        /* \"#utility.yul\":10995:10996   */\n      0x00\n        /* \"#utility.yul\":10984:10993   */\n      dup4\n        /* \"#utility.yul\":10980:10997   */\n      add\n        /* \"#utility.yul\":10973:11020   */\n      mstore\n        /* \"#utility.yul\":11037:11168   */\n      tag_427\n        /* \"#utility.yul\":11163:11167   */\n      dup2\n        /* \"#utility.yul\":11037:11168   */\n      tag_317\n      jump\t// in\n    tag_427:\n        /* \"#utility.yul\":11029:11168   */\n      swap1\n      pop\n        /* \"#utility.yul\":10756:11175   */\n      swap2\n      swap1\n      pop\n      jump\t// out\n        /* \"#utility.yul\":11181:11591   */\n    tag_153:\n        /* \"#utility.yul\":11221:11228   */\n      0x00\n        /* \"#utility.yul\":11244:11264   */\n      tag_429\n        /* \"#utility.yul\":11262:11263   */\n      dup3\n        /* \"#utility.yul\":11244:11264   */\n      tag_284\n      jump\t// in\n    tag_429:\n        /* \"#utility.yul\":11239:11264   */\n      swap2\n      pop\n        /* \"#utility.yul\":11278:11298   */\n      tag_430\n        /* \"#utility.yul\":11296:11297   */\n      dup4\n        /* \"#utility.yul\":11278:11298   */\n      tag_284\n      jump\t// in\n    tag_430:\n        /* \"#utility.yul\":11273:11298   */\n      swap3\n      pop\n        /* \"#utility.yul\":11333:11334   */\n      dup3\n        /* \"#utility.yul\":11330:11331   */\n      dup3\n        /* \"#utility.yul\":11326:11335   */\n      mul\n        /* \"#utility.yul\":11355:11385   */\n      tag_431\n        /* \"#utility.yul\":11373:11384   */\n      dup2\n        /* \"#utility.yul\":11355:11385   */\n      tag_284\n      jump\t// in\n    tag_431:\n        /* \"#utility.yul\":11344:11385   */\n      swap2\n      pop\n        /* \"#utility.yul\":11534:11535   */\n      dup3\n        /* \"#utility.yul\":11525:11532   */\n      dup3\n        /* \"#utility.yul\":11521:11536   */\n      div\n        /* \"#utility.yul\":11518:11519   */\n      dup5\n        /* \"#utility.yul\":11515:11537   */\n      eq\n        /* \"#utility.yul\":11495:11496   */\n      dup4\n        /* \"#utility.yul\":11488:11497   */\n      iszero\n        /* \"#utility.yul\":11468:11551   */\n      or\n        /* \"#utility.yul\":11445:11584   */\n      tag_432\n      jumpi\n        /* \"#utility.yul\":11564:11582   */\n      tag_433\n      tag_308\n      jump\t// in\n    tag_433:\n        /* \"#utility.yul\":11445:11584   */\n    tag_432:\n        /* \"#utility.yul\":11229:11591   */\n      pop\n        /* \"#utility.yul\":11181:11591   */\n      swap3\n      swap2\n      pop\n      pop\n      jump\t// out\n        /* \"#utility.yul\":11597:11822   */\n    tag_318:\n        /* \"#utility.yul\":11737:11771   */\n      0x446f6e6174696f6e3a20696e73756666696369656e74207472616e7366657272\n        /* \"#utility.yul\":11733:11734   */\n      0x00\n        /* \"#utility.yul\":11725:11731   */\n      dup3\n        /* \"#utility.yul\":11721:11735   */\n      add\n        /* \"#utility.yul\":11714:11772   */\n      mstore\n        /* \"#utility.yul\":11806:11814   */\n      0x6564204554480000000000000000000000000000000000000000000000000000\n        /* \"#utility.yul\":11801:11803   */\n      0x20\n        /* \"#utility.yul\":11793:11799   */\n      dup3\n        /* \"#utility.yul\":11789:11804   */\n      add\n        /* \"#utility.yul\":11782:11815   */\n      mstore\n        /* \"#utility.yul\":11597:11822   */\n      pop\n      jump\t// out\n        /* \"#utility.yul\":11828:12194   */\n    tag_319:\n        /* \"#utility.yul\":11970:11973   */\n      0x00\n        /* \"#utility.yul\":11991:12058   */\n      tag_436\n        /* \"#utility.yul\":12055:12057   */\n      0x26\n        /* \"#utility.yul\":12050:12053   */\n      dup4\n        /* \"#utility.yul\":11991:12058   */\n      tag_309\n      jump\t// in\n    tag_436:\n        /* \"#utility.yul\":11984:12058   */\n      swap2\n      pop\n        /* \"#utility.yul\":12067:12160   */\n      tag_437\n        /* \"#utility.yul\":12156:12159   */\n      dup3\n        /* \"#utility.yul\":12067:12160   */\n      tag_318\n      jump\t// in\n    tag_437:\n        /* \"#utility.yul\":12185:12187   */\n      0x40\n        /* \"#utility.yul\":12180:12183   */\n      dup3\n        /* \"#utility.yul\":12176:12188   */\n      add\n        /* \"#utility.yul\":12169:12188   */\n      swap1\n      pop\n        /* \"#utility.yul\":11828:12194   */\n      swap2\n      swap1\n      pop\n      jump\t// out\n        /* \"#utility.yul\":12200:12619   */\n    tag_158:\n        /* \"#utility.yul\":12366:12370   */\n      0x00\n        /* \"#utility.yul\":12404:12406   */\n      0x20\n        /* \"#utility.yul\":12393:12402   */\n      dup3\n        /* \"#utility.yul\":12389:12407   */\n      add\n        /* \"#utility.yul\":12381:12407   */\n      swap1\n      pop\n        /* \"#utility.yul\":12453:12462   */\n      dup2\n        /* \"#utility.yul\":12447:12451   */\n      dup2\n        /* \"#utility.yul\":12443:12463   */\n      sub\n        /* \"#utility.yul\":12439:12440   */\n      0x00\n        /* \"#utility.yul\":12428:12437   */\n      dup4\n        /* \"#utility.yul\":12424:12441   */\n      add\n        /* \"#utility.yul\":12417:12464   */\n      mstore\n        /* \"#utility.yul\":12481:12612   */\n      tag_439\n        /* \"#utility.yul\":12607:12611   */\n      dup2\n        /* \"#utility.yul\":12481:12612   */\n      tag_319\n      jump\t// in\n    tag_439:\n        /* \"#utility.yul\":12473:12612   */\n      swap1\n      pop\n        /* \"#utility.yul\":12200:12619   */\n      swap2\n      swap1\n      pop\n      jump\t// out\n        /* \"#utility.yul\":12625:12864   */\n    tag_320:\n        /* \"#utility.yul\":12765:12799   */\n      0x446f6e6174696f6e3a205f73656e64657220616e6420726563697069656e7420\n        /* \"#utility.yul\":12761:12762   */\n      0x00\n        /* \"#utility.yul\":12753:12759   */\n      dup3\n        /* \"#utility.yul\":12749:12763   */\n      add\n        /* \"#utility.yul\":12742:12800   */\n      mstore\n        /* \"#utility.yul\":12834:12856   */\n      0x696e76616c6964207a65726f2061646472657373000000000000000000000000\n        /* \"#utility.yul\":12829:12831   */\n      0x20\n        /* \"#utility.yul\":12821:12827   */\n      dup3\n        /* \"#utility.yul\":12817:12832   */\n      add\n        /* \"#utility.yul\":12810:12857   */\n      mstore\n        /* \"#utility.yul\":12625:12864   */\n      pop\n      jump\t// out\n        /* \"#utility.yul\":12870:13236   */\n    tag_321:\n        /* \"#utility.yul\":13012:13015   */\n      0x00\n        /* \"#utility.yul\":13033:13100   */\n      tag_442\n        /* \"#utility.yul\":13097:13099   */\n      0x34\n        /* \"#utility.yul\":13092:13095   */\n      dup4\n        /* \"#utility.yul\":13033:13100   */\n      tag_309\n      jump\t// in\n    tag_442:\n        /* \"#utility.yul\":13026:13100   */\n      swap2\n      pop\n        /* \"#utility.yul\":13109:13202   */\n      tag_443\n        /* \"#utility.yul\":13198:13201   */\n      dup3\n        /* \"#utility.yul\":13109:13202   */\n      tag_320\n      jump\t// in\n    tag_443:\n        /* \"#utility.yul\":13227:13229   */\n      0x40\n        /* \"#utility.yul\":13222:13225   */\n      dup3\n        /* \"#utility.yul\":13218:13230   */\n      add\n        /* \"#utility.yul\":13211:13230   */\n      swap1\n      pop\n        /* \"#utility.yul\":12870:13236   */\n      swap2\n      swap1\n      pop\n      jump\t// out\n        /* \"#utility.yul\":13242:13661   */\n    tag_162:\n        /* \"#utility.yul\":13408:13412   */\n      0x00\n        /* \"#utility.yul\":13446:13448   */\n      0x20\n        /* \"#utility.yul\":13435:13444   */\n      dup3\n        /* \"#utility.yul\":13431:13449   */\n      add\n        /* \"#utility.yul\":13423:13449   */\n      swap1\n      pop\n        /* \"#utility.yul\":13495:13504   */\n      dup2\n        /* \"#utility.yul\":13489:13493   */\n      dup2\n        /* \"#utility.yul\":13485:13505   */\n      sub\n        /* \"#utility.yul\":13481:13482   */\n      0x00\n        /* \"#utility.yul\":13470:13479   */\n      dup4\n        /* \"#utility.yul\":13466:13483   */\n      add\n        /* \"#utility.yul\":13459:13506   */\n      mstore\n        /* \"#utility.yul\":13523:13654   */\n      tag_445\n        /* \"#utility.yul\":13649:13653   */\n      dup2\n        /* \"#utility.yul\":13523:13654   */\n      tag_321\n      jump\t// in\n    tag_445:\n        /* \"#utility.yul\":13515:13654   */\n      swap1\n      pop\n        /* \"#utility.yul\":13242:13661   */\n      swap2\n      swap1\n      pop\n      jump\t// out\n        /* \"#utility.yul\":13667:13858   */\n    tag_166:\n        /* \"#utility.yul\":13707:13710   */\n      0x00\n        /* \"#utility.yul\":13726:13746   */\n      tag_447\n        /* \"#utility.yul\":13744:13745   */\n      dup3\n        /* \"#utility.yul\":13726:13746   */\n      tag_284\n      jump\t// in\n    tag_447:\n        /* \"#utility.yul\":13721:13746   */\n      swap2\n      pop\n        /* \"#utility.yul\":13760:13780   */\n      tag_448\n        /* \"#utility.yul\":13778:13779   */\n      dup4\n        /* \"#utility.yul\":13760:13780   */\n      tag_284\n      jump\t// in\n    tag_448:\n        /* \"#utility.yul\":13755:13780   */\n      swap3\n      pop\n        /* \"#utility.yul\":13803:13804   */\n      dup3\n        /* \"#utility.yul\":13800:13801   */\n      dup3\n        /* \"#utility.yul\":13796:13805   */\n      add\n        /* \"#utility.yul\":13789:13805   */\n      swap1\n      pop\n        /* \"#utility.yul\":13824:13827   */\n      dup1\n        /* \"#utility.yul\":13821:13822   */\n      dup3\n        /* \"#utility.yul\":13818:13828   */\n      gt\n        /* \"#utility.yul\":13815:13851   */\n      iszero\n      tag_449\n      jumpi\n        /* \"#utility.yul\":13831:13849   */\n      tag_450\n      tag_308\n      jump\t// in\n    tag_450:\n        /* \"#utility.yul\":13815:13851   */\n    tag_449:\n        /* \"#utility.yul\":13667:13858   */\n      swap3\n      swap2\n      pop\n      pop\n      jump\t// out\n        /* \"#utility.yul\":13864:14058   */\n    tag_197:\n        /* \"#utility.yul\":13904:13908   */\n      0x00\n        /* \"#utility.yul\":13924:13944   */\n      tag_452\n        /* \"#utility.yul\":13942:13943   */\n      dup3\n        /* \"#utility.yul\":13924:13944   */\n      tag_284\n      jump\t// in\n    tag_452:\n        /* \"#utility.yul\":13919:13944   */\n      swap2\n      pop\n        /* \"#utility.yul\":13958:13978   */\n      tag_453\n        /* \"#utility.yul\":13976:13977   */\n      dup4\n        /* \"#utility.yul\":13958:13978   */\n      tag_284\n      jump\t// in\n    tag_453:\n        /* \"#utility.yul\":13953:13978   */\n      swap3\n      pop\n        /* \"#utility.yul\":14002:14003   */\n      dup3\n        /* \"#utility.yul\":13999:14000   */\n      dup3\n        /* \"#utility.yul\":13995:14004   */\n      sub\n        /* \"#utility.yul\":13987:14004   */\n      swap1\n      pop\n        /* \"#utility.yul\":14026:14027   */\n      dup2\n        /* \"#utility.yul\":14020:14024   */\n      dup2\n        /* \"#utility.yul\":14017:14028   */\n      gt\n        /* \"#utility.yul\":14014:14051   */\n      iszero\n      tag_454\n      jumpi\n        /* \"#utility.yul\":14031:14049   */\n      tag_455\n      tag_308\n      jump\t// in\n    tag_455:\n        /* \"#utility.yul\":14014:14051   */\n    tag_454:\n        /* \"#utility.yul\":13864:14058   */\n      swap3\n      swap2\n      pop\n      pop\n      jump\t// out\n\n    auxdata: 0xa2646970667358221220b2fb194096b665e088d112fe430cbd513c62d0992dd94386688d7089bb8d3d2464736f6c634300081f0033\n}\n",
				"bytecode": {
					"linkReferences": {},
					"object": "60c060405234801561000f575f5ffd5b503373ffffffffffffffffffffffffffffffffffffffff1660a08173ffffffffffffffffffffffffffffffffffffffff168152505060a05173ffffffffffffffffffffffffffffffffffffffff1660808173ffffffffffffffffffffffffffffffffffffffff168152505060805160a051611fdb6100c55f395f81816105710152818161065c015281816107770152818161084b01526108b201525f818161071601528181610a5101526117c70152611fdb5ff3fe6080604052600436106100eb575f3560e01c806366d003ac116100895780638da5cb5b116100585780638da5cb5b14610332578063ae677d8c1461035c578063d876cb2314610398578063f14faf6f146103c2576100f2565b806366d003ac1461029e5780636e2cb32a146102c8578063832880e7146102f2578063853828b61461031c576100f2565b806326646c8c116100c557806326646c8c146101e65780632e1a7d4d146102105780633a32f28014610238578063410a1d3214610262576100f2565b80630238cbdc1461014457806312265a0d146101805780631e8a5775146101bc576100f2565b366100f257005b3373ffffffffffffffffffffffffffffffffffffffff167f4a41c8a8177da2bb0efb0974e6d937540b67210cd6d044a55031c9a048e5dec0344260405161013a929190611849565b60405180910390a2005b34801561014f575f5ffd5b5061016a6004803603810190610165919061189e565b6103de565b6040516101779190611908565b60405180910390f35b34801561018b575f5ffd5b506101a660048036038101906101a1919061194b565b610419565b6040516101b39190611990565b60405180910390f35b3480156101c7575f5ffd5b506101d0610436565b6040516101dd9190611a60565b60405180910390f35b3480156101f1575f5ffd5b506101fa610543565b6040516102079190611a80565b60405180910390f35b34801561021b575f5ffd5b506102366004803603810190610231919061189e565b61056f565b005b348015610243575f5ffd5b5061024c6106c2565b6040516102599190611a80565b60405180910390f35b34801561026d575f5ffd5b506102886004803603810190610283919061194b565b6106ce565b6040516102959190611a80565b60405180910390f35b3480156102a9575f5ffd5b506102b2610714565b6040516102bf9190611ab9565b60405180910390f35b3480156102d3575f5ffd5b506102dc610738565b6040516102e99190611a80565b60405180910390f35b3480156102fd575f5ffd5b5061030661076e565b6040516103139190611908565b60405180910390f35b348015610327575f5ffd5b50610330610775565b005b34801561033d575f5ffd5b506103466108b0565b6040516103539190611908565b60405180910390f35b348015610367575f5ffd5b50610382600480360381019061037d919061194b565b6108d4565b60405161038f9190611a80565b60405180910390f35b3480156103a3575f5ffd5b506103ac6108e9565b6040516103b99190611a80565b60405180910390f35b6103dc60048036038101906103d7919061189e565b6108ee565b005b600281815481106103ed575f80fd5b905f5260205f20015f915054906101000a900473ffffffffffffffffffffffffffffffffffffffff1681565b6003602052805f5260405f205f915054906101000a900460ff1681565b60605f60028054905090505f600367ffffffffffffffff81111561045d5761045c611ad2565b5b60405190808252806020026020018201604052801561048b5781602001602082028036833780820191505090505b5090505f5f90505b600381101561053a578281031561053a57600281815481106104b8576104b7611aff565b5b905f5260205f20015f9054906101000a900473ffffffffffffffffffffffffffffffffffffffff168282815181106104f3576104f2611aff565b5b602002602001019073ffffffffffffffffffffffffffffffffffffffff16908173ffffffffffffffffffffffffffffffffffffffff16815250508080600101915050610493565b50809250505090565b5f5f62015180426105549190611b59565b90505f610e10826105659190611bb6565b9050809250505090565b7f000000000000000000000000000000000000000000000000000000000000000073ffffffffffffffffffffffffffffffffffffffff163373ffffffffffffffffffffffffffffffffffffffff16146105fd576040517f08c379a00000000000000000000000000000000000000000000000000000000081526004016105f490611c40565b60405180910390fd5b5f4790505f8211801561060f57505f81115b801561061b5750808211155b61065a576040517f08c379a000000000000000000000000000000000000000000000000000000000815260040161065190611cce565b60405180910390fd5b7f000000000000000000000000000000000000000000000000000000000000000073ffffffffffffffffffffffffffffffffffffffff166108fc8390811502906040515f60405180830381858888f193505050501580156106bd573d5f5f3e3d5ffd5b505050565b5f5f4790508091505090565b5f60015f8373ffffffffffffffffffffffffffffffffffffffff1673ffffffffffffffffffffffffffffffffffffffff1681526020019081526020015f20549050919050565b7f000000000000000000000000000000000000000000000000000000000000000081565b5f5f670de0b6b3a76400003373ffffffffffffffffffffffffffffffffffffffff16316107659190611bb6565b90508091505090565b5f33905090565b7f000000000000000000000000000000000000000000000000000000000000000073ffffffffffffffffffffffffffffffffffffffff163373ffffffffffffffffffffffffffffffffffffffff1614610803576040517f08c379a00000000000000000000000000000000000000000000000000000000081526004016107fa90611c40565b60405180910390fd5b5f4790505f8111610849576040517f08c379a000000000000000000000000000000000000000000000000000000000815260040161084090611d36565b60405180910390fd5b7f000000000000000000000000000000000000000000000000000000000000000073ffffffffffffffffffffffffffffffffffffffff166108fc8290811502906040515f60405180830381858888f193505050501580156108ac573d5f5f3e3d5ffd5b5050565b7f000000000000000000000000000000000000000000000000000000000000000081565b6001602052805f5260405f205f915090505481565b5f5481565b5f62015180426108fe9190611b59565b90505f610e108261090f9190611bb6565b9050600c81101580156109225750600d81105b610961576040517f08c379a000000000000000000000000000000000000000000000000000000000815260040161095890611dc4565b60405180910390fd5b5f670de0b6b3a7640000846109769190611de2565b90505f3390505f82116109be576040517f08c379a00000000000000000000000000000000000000000000000000000000081526004016109b590611d36565b60405180910390fd5b81341015610a01576040517f08c379a00000000000000000000000000000000000000000000000000000000081526004016109f890611e93565b60405180910390fd5b5f73ffffffffffffffffffffffffffffffffffffffff168173ffffffffffffffffffffffffffffffffffffffff1614158015610a8957505f73ffffffffffffffffffffffffffffffffffffffff167f000000000000000000000000000000000000000000000000000000000000000073ffffffffffffffffffffffffffffffffffffffff1614155b610ac8576040517f08c379a0000000000000000000000000000000000000000000000000000000008152600401610abf90611f21565b60405180910390fd5b60035f8273ffffffffffffffffffffffffffffffffffffffff1673ffffffffffffffffffffffffffffffffffffffff1681526020019081526020015f205f9054906101000a900460ff16610bcc57600281908060018154018082558091505060019003905f5260205f20015f9091909190916101000a81548173ffffffffffffffffffffffffffffffffffffffff021916908373ffffffffffffffffffffffffffffffffffffffff160217905550600160035f8373ffffffffffffffffffffffffffffffffffffffff1673ffffffffffffffffffffffffffffffffffffffff1681526020019081526020015f205f6101000a81548160ff0219169083151502179055505b8160015f8373ffffffffffffffffffffffffffffffffffffffff1673ffffffffffffffffffffffffffffffffffffffff1681526020019081526020015f205f828254610c189190611f3f565b92505081905550845f5f828254610c2f9190611f3f565b925050819055505f60028054905090505f5f90505b600381101561177457600182031561177457600282148015610d56575060015f60025f81548110610c7857610c77611aff565b5b905f5260205f20015f9054906101000a900473ffffffffffffffffffffffffffffffffffffffff1673ffffffffffffffffffffffffffffffffffffffff1673ffffffffffffffffffffffffffffffffffffffff1681526020019081526020015f205460015f6002600181548110610cf257610cf1611aff565b5b905f5260205f20015f9054906101000a900473ffffffffffffffffffffffffffffffffffffffff1673ffffffffffffffffffffffffffffffffffffffff1673ffffffffffffffffffffffffffffffffffffffff1681526020019081526020015f2054115b15610e91575f6002600181548110610d7157610d70611aff565b5b905f5260205f20015f9054906101000a900473ffffffffffffffffffffffffffffffffffffffff16905060025f81548110610daf57610dae611aff565b5b905f5260205f20015f9054906101000a900473ffffffffffffffffffffffffffffffffffffffff166002600181548110610dec57610deb611aff565b5b905f5260205f20015f6101000a81548173ffffffffffffffffffffffffffffffffffffffff021916908373ffffffffffffffffffffffffffffffffffffffff1602179055508060025f81548110610e4657610e45611aff565b5b905f5260205f20015f6101000a81548173ffffffffffffffffffffffffffffffffffffffff021916908373ffffffffffffffffffffffffffffffffffffffff16021790555050611774565b600382106117675760015f60025f81548110610eb057610eaf611aff565b5b905f5260205f20015f9054906101000a900473ffffffffffffffffffffffffffffffffffffffff1673ffffffffffffffffffffffffffffffffffffffff1673ffffffffffffffffffffffffffffffffffffffff1681526020019081526020015f205460015f6002600186610f249190611f72565b81548110610f3557610f34611aff565b5b905f5260205f20015f9054906101000a900473ffffffffffffffffffffffffffffffffffffffff1673ffffffffffffffffffffffffffffffffffffffff1673ffffffffffffffffffffffffffffffffffffffff1681526020019081526020015f2054111561121f575f6002600184610fad9190611f72565b81548110610fbe57610fbd611aff565b5b905f5260205f20015f9054906101000a900473ffffffffffffffffffffffffffffffffffffffff1690506003831115611093576002808154811061100557611004611aff565b5b905f5260205f20015f9054906101000a900473ffffffffffffffffffffffffffffffffffffffff16600260018561103c9190611f72565b8154811061104d5761104c611aff565b5b905f5260205f20015f6101000a81548173ffffffffffffffffffffffffffffffffffffffff021916908373ffffffffffffffffffffffffffffffffffffffff1602179055505b60026001815481106110a8576110a7611aff565b5b905f5260205f20015f9054906101000a900473ffffffffffffffffffffffffffffffffffffffff16600280815481106110e4576110e3611aff565b5b905f5260205f20015f6101000a81548173ffffffffffffffffffffffffffffffffffffffff021916908373ffffffffffffffffffffffffffffffffffffffff16021790555060025f8154811061113d5761113c611aff565b5b905f5260205f20015f9054906101000a900473ffffffffffffffffffffffffffffffffffffffff16600260018154811061117a57611179611aff565b5b905f5260205f20015f6101000a81548173ffffffffffffffffffffffffffffffffffffffff021916908373ffffffffffffffffffffffffffffffffffffffff1602179055508060025f815481106111d4576111d3611aff565b5b905f5260205f20015f6101000a81548173ffffffffffffffffffffffffffffffffffffffff021916908373ffffffffffffffffffffffffffffffffffffffff16021790555050611774565b60015f600260018154811061123757611236611aff565b5b905f5260205f20015f9054906101000a900473ffffffffffffffffffffffffffffffffffffffff1673ffffffffffffffffffffffffffffffffffffffff1673ffffffffffffffffffffffffffffffffffffffff1681526020019081526020015f205460015f60026001866112ab9190611f72565b815481106112bc576112bb611aff565b5b905f5260205f20015f9054906101000a900473ffffffffffffffffffffffffffffffffffffffff1673ffffffffffffffffffffffffffffffffffffffff1673ffffffffffffffffffffffffffffffffffffffff1681526020019081526020015f20541115611511575f60026001846113349190611f72565b8154811061134557611344611aff565b5b905f5260205f20015f9054906101000a900473ffffffffffffffffffffffffffffffffffffffff169050600383111561141a576002808154811061138c5761138b611aff565b5b905f5260205f20015f9054906101000a900473ffffffffffffffffffffffffffffffffffffffff1660026001856113c39190611f72565b815481106113d4576113d3611aff565b5b905f5260205f20015f6101000a81548173ffffffffffffffffffffffffffffffffffffffff021916908373ffffffffffffffffffffffffffffffffffffffff1602179055505b600260018154811061142f5761142e611aff565b5b905f5260205f20015f9054906101000a900473ffffffffffffffffffffffffffffffffffffffff166002808154811061146b5761146a611aff565b5b905f5260205f20015f6101000a81548173ffffffffffffffffffffffffffffffffffffffff021916908373ffffffffffffffffffffffffffffffffffffffff1602179055508060026001815481106114c6576114c5611aff565b5b905f5260205f20015f6101000a81548173ffffffffffffffffffffffffffffffffffffffff021916908373ffffffffffffffffffffffffffffffffffffffff16021790555050611774565b60038203156117745760015f6002808154811061153157611530611aff565b5b905f5260205f20015f9054906101000a900473ffffffffffffffffffffffffffffffffffffffff1673ffffffffffffffffffffffffffffffffffffffff1673ffffffffffffffffffffffffffffffffffffffff1681526020019081526020015f205460015f60026001866115a59190611f72565b815481106115b6576115b5611aff565b5b905f5260205f20015f9054906101000a900473ffffffffffffffffffffffffffffffffffffffff1673ffffffffffffffffffffffffffffffffffffffff1673ffffffffffffffffffffffffffffffffffffffff1681526020019081526020015f20541115611766575f600260018461162e9190611f72565b8154811061163f5761163e611aff565b5b905f5260205f20015f9054906101000a900473ffffffffffffffffffffffffffffffffffffffff1690506002808154811061167d5761167c611aff565b5b905f5260205f20015f9054906101000a900473ffffffffffffffffffffffffffffffffffffffff1660026001856116b49190611f72565b815481106116c5576116c4611aff565b5b905f5260205f20015f6101000a81548173ffffffffffffffffffffffffffffffffffffffff021916908373ffffffffffffffffffffffffffffffffffffffff160217905550806002808154811061171f5761171e611aff565b5b905f5260205f20015f6101000a81548173ffffffffffffffffffffffffffffffffffffffff021916908373ffffffffffffffffffffffffffffffffffffffff160217905550505b5b8080600101915050610c44565b503373ffffffffffffffffffffffffffffffffffffffff167f06c79dc283e8c368b886a089fd4ce20b114cd1668104aee3be6d548c37ab617884426040516117bd929190611849565b60405180910390a27f000000000000000000000000000000000000000000000000000000000000000073ffffffffffffffffffffffffffffffffffffffff166108fc8490811502906040515f60405180830381858888f19350505050158015611828573d5f5f3e3d5ffd5b50505050505050565b5f819050919050565b61184381611831565b82525050565b5f60408201905061185c5f83018561183a565b611869602083018461183a565b9392505050565b5f5ffd5b61187d81611831565b8114611887575f5ffd5b50565b5f8135905061189881611874565b92915050565b5f602082840312156118b3576118b2611870565b5b5f6118c08482850161188a565b91505092915050565b5f73ffffffffffffffffffffffffffffffffffffffff82169050919050565b5f6118f2826118c9565b9050919050565b611902816118e8565b82525050565b5f60208201905061191b5f8301846118f9565b92915050565b61192a816118e8565b8114611934575f5ffd5b50565b5f8135905061194581611921565b92915050565b5f602082840312156119605761195f611870565b5b5f61196d84828501611937565b91505092915050565b5f8115159050919050565b61198a81611976565b82525050565b5f6020820190506119a35f830184611981565b92915050565b5f81519050919050565b5f82825260208201905092915050565b5f819050602082019050919050565b6119db816118e8565b82525050565b5f6119ec83836119d2565b60208301905092915050565b5f602082019050919050565b5f611a0e826119a9565b611a1881856119b3565b9350611a23836119c3565b805f5b83811015611a53578151611a3a88826119e1565b9750611a45836119f8565b925050600181019050611a26565b5085935050505092915050565b5f6020820190508181035f830152611a788184611a04565b905092915050565b5f602082019050611a935f83018461183a565b92915050565b5f611aa3826118c9565b9050919050565b611ab381611a99565b82525050565b5f602082019050611acc5f830184611aaa565b92915050565b7f4e487b71000000000000000000000000000000000000000000000000000000005f52604160045260245ffd5b7f4e487b71000000000000000000000000000000000000000000000000000000005f52603260045260245ffd5b7f4e487b71000000000000000000000000000000000000000000000000000000005f52601260045260245ffd5b5f611b6382611831565b9150611b6e83611831565b925082611b7e57611b7d611b2c565b5b828206905092915050565b7f4e487b71000000000000000000000000000000000000000000000000000000005f52601160045260245ffd5b5f611bc082611831565b9150611bcb83611831565b925082611bdb57611bda611b2c565b5b828204905092915050565b5f82825260208201905092915050565b7f4e6f2041646d696e0000000000000000000000000000000000000000000000005f82015250565b5f611c2a600883611be6565b9150611c3582611bf6565b602082019050919050565b5f6020820190508181035f830152611c5781611c1e565b9050919050565b7f57697468647261773a20696e76616c696420616d6f756e7420287a65726f206f5f8201527f72206578636565647320636f6e74726163742062616c616e6365290000000000602082015250565b5f611cb8603b83611be6565b9150611cc382611c5e565b604082019050919050565b5f6020820190508181035f830152611ce581611cac565b9050919050565b7f42616c616e636520496e73756666696369656e740000000000000000000000005f82015250565b5f611d20601483611be6565b9150611d2b82611cec565b602082019050919050565b5f6020820190508181035f830152611d4d81611d14565b9050919050565b7f566f74696e67206973206f6e6c7920616c6c6f776564206265747765656e20315f8201527f323a303020616e642031333a3030205554430000000000000000000000000000602082015250565b5f611dae603283611be6565b9150611db982611d54565b604082019050919050565b5f6020820190508181035f830152611ddb81611da2565b9050919050565b5f611dec82611831565b9150611df783611831565b9250828202611e0581611831565b91508282048414831517611e1c57611e1b611b89565b5b5092915050565b7f446f6e6174696f6e3a20696e73756666696369656e74207472616e73666572725f8201527f6564204554480000000000000000000000000000000000000000000000000000602082015250565b5f611e7d602683611be6565b9150611e8882611e23565b604082019050919050565b5f6020820190508181035f830152611eaa81611e71565b9050919050565b7f446f6e6174696f6e3a205f73656e64657220616e6420726563697069656e74205f8201527f696e76616c6964207a65726f2061646472657373000000000000000000000000602082015250565b5f611f0b603483611be6565b9150611f1682611eb1565b604082019050919050565b5f6020820190508181035f830152611f3881611eff565b9050919050565b5f611f4982611831565b9150611f5483611831565b9250828201905080821115611f6c57611f6b611b89565b5b92915050565b5f611f7c82611831565b9150611f8783611831565b9250828203905081811115611f9f57611f9e611b89565b5b9291505056fea2646970667358221220b2fb194096b665e088d112fe430cbd513c62d0992dd94386688d7089bb8d3d2464736f6c634300081f0033",
					"opcodes": "PUSH1 0xC0 PUSH1 0x40 MSTORE CALLVALUE DUP1 ISZERO PUSH2 0xF JUMPI PUSH0 PUSH0 REVERT JUMPDEST POP CALLER PUSH20 0xFFFFFFFFFFFFFFFFFFFFFFFFFFFFFFFFFFFFFFFF AND PUSH1 0xA0 DUP2 PUSH20 0xFFFFFFFFFFFFFFFFFFFFFFFFFFFFFFFFFFFFFFFF AND DUP2 MSTORE POP POP PUSH1 0xA0 MLOAD PUSH20 0xFFFFFFFFFFFFFFFFFFFFFFFFFFFFFFFFFFFFFFFF AND PUSH1 0x80 DUP2 PUSH20 0xFFFFFFFFFFFFFFFFFFFFFFFFFFFFFFFFFFFFFFFF AND DUP2 MSTORE POP POP PUSH1 0x80 MLOAD PUSH1 0xA0 MLOAD PUSH2 0x1FDB PUSH2 0xC5 PUSH0 CODECOPY PUSH0 DUP2 DUP2 PUSH2 0x571 ADD MSTORE DUP2 DUP2 PUSH2 0x65C ADD MSTORE DUP2 DUP2 PUSH2 0x777 ADD MSTORE DUP2 DUP2 PUSH2 0x84B ADD MSTORE PUSH2 0x8B2 ADD MSTORE PUSH0 DUP2 DUP2 PUSH2 0x716 ADD MSTORE DUP2 DUP2 PUSH2 0xA51 ADD MSTORE PUSH2 0x17C7 ADD MSTORE PUSH2 0x1FDB PUSH0 RETURN INVALID PUSH1 0x80 PUSH1 0x40 MSTORE PUSH1 0x4 CALLDATASIZE LT PUSH2 0xEB JUMPI PUSH0 CALLDATALOAD PUSH1 0xE0 SHR DUP1 PUSH4 0x66D003AC GT PUSH2 0x89 JUMPI DUP1 PUSH4 0x8DA5CB5B GT PUSH2 0x58 JUMPI DUP1 PUSH4 0x8DA5CB5B EQ PUSH2 0x332 JUMPI DUP1 PUSH4 0xAE677D8C EQ PUSH2 0x35C JUMPI DUP1 PUSH4 0xD876CB23 EQ PUSH2 0x398 JUMPI DUP1 PUSH4 0xF14FAF6F EQ PUSH2 0x3C2 JUMPI PUSH2 0xF2 JUMP JUMPDEST DUP1 PUSH4 0x66D003AC EQ PUSH2 0x29E JUMPI DUP1 PUSH4 0x6E2CB32A EQ PUSH2 0x2C8 JUMPI DUP1 PUSH4 0x832880E7 EQ PUSH2 0x2F2 JUMPI DUP1 PUSH4 0x853828B6 EQ PUSH2 0x31C JUMPI PUSH2 0xF2 JUMP JUMPDEST DUP1 PUSH4 0x26646C8C GT PUSH2 0xC5 JUMPI DUP1 PUSH4 0x26646C8C EQ PUSH2 0x1E6 JUMPI DUP1 PUSH4 0x2E1A7D4D EQ PUSH2 0x210 JUMPI DUP1 PUSH4 0x3A32F280 EQ PUSH2 0x238 JUMPI DUP1 PUSH4 0x410A1D32 EQ PUSH2 0x262 JUMPI PUSH2 0xF2 JUMP JUMPDEST DUP1 PUSH4 0x238CBDC EQ PUSH2 0x144 JUMPI DUP1 PUSH4 0x12265A0D EQ PUSH2 0x180 JUMPI DUP1 PUSH4 0x1E8A5775 EQ PUSH2 0x1BC JUMPI PUSH2 0xF2 JUMP JUMPDEST CALLDATASIZE PUSH2 0xF2 JUMPI STOP JUMPDEST CALLER PUSH20 0xFFFFFFFFFFFFFFFFFFFFFFFFFFFFFFFFFFFFFFFF AND PUSH32 0x4A41C8A8177DA2BB0EFB0974E6D937540B67210CD6D044A55031C9A048E5DEC0 CALLVALUE TIMESTAMP PUSH1 0x40 MLOAD PUSH2 0x13A SWAP3 SWAP2 SWAP1 PUSH2 0x1849 JUMP JUMPDEST PUSH1 0x40 MLOAD DUP1 SWAP2 SUB SWAP1 LOG2 STOP JUMPDEST CALLVALUE DUP1 ISZERO PUSH2 0x14F JUMPI PUSH0 PUSH0 REVERT JUMPDEST POP PUSH2 0x16A PUSH1 0x4 DUP1 CALLDATASIZE SUB DUP2 ADD SWAP1 PUSH2 0x165 SWAP2 SWAP1 PUSH2 0x189E JUMP JUMPDEST PUSH2 0x3DE JUMP JUMPDEST PUSH1 0x40 MLOAD PUSH2 0x177 SWAP2 SWAP1 PUSH2 0x1908 JUMP JUMPDEST PUSH1 0x40 MLOAD DUP1 SWAP2 SUB SWAP1 RETURN JUMPDEST CALLVALUE DUP1 ISZERO PUSH2 0x18B JUMPI PUSH0 PUSH0 REVERT JUMPDEST POP PUSH2 0x1A6 PUSH1 0x4 DUP1 CALLDATASIZE SUB DUP2 ADD SWAP1 PUSH2 0x1A1 SWAP2 SWAP1 PUSH2 0x194B JUMP JUMPDEST PUSH2 0x419 JUMP JUMPDEST PUSH1 0x40 MLOAD PUSH2 0x1B3 SWAP2 SWAP1 PUSH2 0x1990 JUMP JUMPDEST PUSH1 0x40 MLOAD DUP1 SWAP2 SUB SWAP1 RETURN JUMPDEST CALLVALUE DUP1 ISZERO PUSH2 0x1C7 JUMPI PUSH0 PUSH0 REVERT JUMPDEST POP PUSH2 0x1D0 PUSH2 0x436 JUMP JUMPDEST PUSH1 0x40 MLOAD PUSH2 0x1DD SWAP2 SWAP1 PUSH2 0x1A60 JUMP JUMPDEST PUSH1 0x40 MLOAD DUP1 SWAP2 SUB SWAP1 RETURN JUMPDEST CALLVALUE DUP1 ISZERO PUSH2 0x1F1 JUMPI PUSH0 PUSH0 REVERT JUMPDEST POP PUSH2 0x1FA PUSH2 0x543 JUMP JUMPDEST PUSH1 0x40 MLOAD PUSH2 0x207 SWAP2 SWAP1 PUSH2 0x1A80 JUMP JUMPDEST PUSH1 0x40 MLOAD DUP1 SWAP2 SUB SWAP1 RETURN JUMPDEST CALLVALUE DUP1 ISZERO PUSH2 0x21B JUMPI PUSH0 PUSH0 REVERT JUMPDEST POP PUSH2 0x236 PUSH1 0x4 DUP1 CALLDATASIZE SUB DUP2 ADD SWAP1 PUSH2 0x231 SWAP2 SWAP1 PUSH2 0x189E JUMP JUMPDEST PUSH2 0x56F JUMP JUMPDEST STOP JUMPDEST CALLVALUE DUP1 ISZERO PUSH2 0x243 JUMPI PUSH0 PUSH0 REVERT JUMPDEST POP PUSH2 0x24C PUSH2 0x6C2 JUMP JUMPDEST PUSH1 0x40 MLOAD PUSH2 0x259 SWAP2 SWAP1 PUSH2 0x1A80 JUMP JUMPDEST PUSH1 0x40 MLOAD DUP1 SWAP2 SUB SWAP1 RETURN JUMPDEST CALLVALUE DUP1 ISZERO PUSH2 0x26D JUMPI PUSH0 PUSH0 REVERT JUMPDEST POP PUSH2 0x288 PUSH1 0x4 DUP1 CALLDATASIZE SUB DUP2 ADD SWAP1 PUSH2 0x283 SWAP2 SWAP1 PUSH2 0x194B JUMP JUMPDEST PUSH2 0x6CE JUMP JUMPDEST PUSH1 0x40 MLOAD PUSH2 0x295 SWAP2 SWAP1 PUSH2 0x1A80 JUMP JUMPDEST PUSH1 0x40 MLOAD DUP1 SWAP2 SUB SWAP1 RETURN JUMPDEST CALLVALUE DUP1 ISZERO PUSH2 0x2A9 JUMPI PUSH0 PUSH0 REVERT JUMPDEST POP PUSH2 0x2B2 PUSH2 0x714 JUMP JUMPDEST PUSH1 0x40 MLOAD PUSH2 0x2BF SWAP2 SWAP1 PUSH2 0x1AB9 JUMP JUMPDEST PUSH1 0x40 MLOAD DUP1 SWAP2 SUB SWAP1 RETURN JUMPDEST CALLVALUE DUP1 ISZERO PUSH2 0x2D3 JUMPI PUSH0 PUSH0 REVERT JUMPDEST POP PUSH2 0x2DC PUSH2 0x738 JUMP JUMPDEST PUSH1 0x40 MLOAD PUSH2 0x2E9 SWAP2 SWAP1 PUSH2 0x1A80 JUMP JUMPDEST PUSH1 0x40 MLOAD DUP1 SWAP2 SUB SWAP1 RETURN JUMPDEST CALLVALUE DUP1 ISZERO PUSH2 0x2FD JUMPI PUSH0 PUSH0 REVERT JUMPDEST POP PUSH2 0x306 PUSH2 0x76E JUMP JUMPDEST PUSH1 0x40 MLOAD PUSH2 0x313 SWAP2 SWAP1 PUSH2 0x1908 JUMP JUMPDEST PUSH1 0x40 MLOAD DUP1 SWAP2 SUB SWAP1 RETURN JUMPDEST CALLVALUE DUP1 ISZERO PUSH2 0x327 JUMPI PUSH0 PUSH0 REVERT JUMPDEST POP PUSH2 0x330 PUSH2 0x775 JUMP JUMPDEST STOP JUMPDEST CALLVALUE DUP1 ISZERO PUSH2 0x33D JUMPI PUSH0 PUSH0 REVERT JUMPDEST POP PUSH2 0x346 PUSH2 0x8B0 JUMP JUMPDEST PUSH1 0x40 MLOAD PUSH2 0x353 SWAP2 SWAP1 PUSH2 0x1908 JUMP JUMPDEST PUSH1 0x40 MLOAD DUP1 SWAP2 SUB SWAP1 RETURN JUMPDEST CALLVALUE DUP1 ISZERO PUSH2 0x367 JUMPI PUSH0 PUSH0 REVERT JUMPDEST POP PUSH2 0x382 PUSH1 0x4 DUP1 CALLDATASIZE SUB DUP2 ADD SWAP1 PUSH2 0x37D SWAP2 SWAP1 PUSH2 0x194B JUMP JUMPDEST PUSH2 0x8D4 JUMP JUMPDEST PUSH1 0x40 MLOAD PUSH2 0x38F SWAP2 SWAP1 PUSH2 0x1A80 JUMP JUMPDEST PUSH1 0x40 MLOAD DUP1 SWAP2 SUB SWAP1 RETURN JUMPDEST CALLVALUE DUP1 ISZERO PUSH2 0x3A3 JUMPI PUSH0 PUSH0 REVERT JUMPDEST POP PUSH2 0x3AC PUSH2 0x8E9 JUMP JUMPDEST PUSH1 0x40 MLOAD PUSH2 0x3B9 SWAP2 SWAP1 PUSH2 0x1A80 JUMP JUMPDEST PUSH1 0x40 MLOAD DUP1 SWAP2 SUB SWAP1 RETURN JUMPDEST PUSH2 0x3DC PUSH1 0x4 DUP1 CALLDATASIZE SUB DUP2 ADD SWAP1 PUSH2 0x3D7 SWAP2 SWAP1 PUSH2 0x189E JUMP JUMPDEST PUSH2 0x8EE JUMP JUMPDEST STOP JUMPDEST PUSH1 0x2 DUP2 DUP2 SLOAD DUP2 LT PUSH2 0x3ED JUMPI PUSH0 DUP1 REVERT JUMPDEST SWAP1 PUSH0 MSTORE PUSH1 0x20 PUSH0 KECCAK256 ADD PUSH0 SWAP2 POP SLOAD SWAP1 PUSH2 0x100 EXP SWAP1 DIV PUSH20 0xFFFFFFFFFFFFFFFFFFFFFFFFFFFFFFFFFFFFFFFF AND DUP2 JUMP JUMPDEST PUSH1 0x3 PUSH1 0x20 MSTORE DUP1 PUSH0 MSTORE PUSH1 0x40 PUSH0 KECCAK256 PUSH0 SWAP2 POP SLOAD SWAP1 PUSH2 0x100 EXP SWAP1 DIV PUSH1 0xFF AND DUP2 JUMP JUMPDEST PUSH1 0x60 PUSH0 PUSH1 0x2 DUP1 SLOAD SWAP1 POP SWAP1 POP PUSH0 PUSH1 0x3 PUSH8 0xFFFFFFFFFFFFFFFF DUP2 GT ISZERO PUSH2 0x45D JUMPI PUSH2 0x45C PUSH2 0x1AD2 JUMP JUMPDEST JUMPDEST PUSH1 0x40 MLOAD SWAP1 DUP1 DUP3 MSTORE DUP1 PUSH1 0x20 MUL PUSH1 0x20 ADD DUP3 ADD PUSH1 0x40 MSTORE DUP1 ISZERO PUSH2 0x48B JUMPI DUP2 PUSH1 0x20 ADD PUSH1 0x20 DUP3 MUL DUP1 CALLDATASIZE DUP4 CALLDATACOPY DUP1 DUP3 ADD SWAP2 POP POP SWAP1 POP JUMPDEST POP SWAP1 POP PUSH0 PUSH0 SWAP1 POP JUMPDEST PUSH1 0x3 DUP2 LT ISZERO PUSH2 0x53A JUMPI DUP3 DUP2 SUB ISZERO PUSH2 0x53A JUMPI PUSH1 0x2 DUP2 DUP2 SLOAD DUP2 LT PUSH2 0x4B8 JUMPI PUSH2 0x4B7 PUSH2 0x1AFF JUMP JUMPDEST JUMPDEST SWAP1 PUSH0 MSTORE PUSH1 0x20 PUSH0 KECCAK256 ADD PUSH0 SWAP1 SLOAD SWAP1 PUSH2 0x100 EXP SWAP1 DIV PUSH20 0xFFFFFFFFFFFFFFFFFFFFFFFFFFFFFFFFFFFFFFFF AND DUP3 DUP3 DUP2 MLOAD DUP2 LT PUSH2 0x4F3 JUMPI PUSH2 0x4F2 PUSH2 0x1AFF JUMP JUMPDEST JUMPDEST PUSH1 0x20 MUL PUSH1 0x20 ADD ADD SWAP1 PUSH20 0xFFFFFFFFFFFFFFFFFFFFFFFFFFFFFFFFFFFFFFFF AND SWAP1 DUP2 PUSH20 0xFFFFFFFFFFFFFFFFFFFFFFFFFFFFFFFFFFFFFFFF AND DUP2 MSTORE POP POP DUP1 DUP1 PUSH1 0x1 ADD SWAP2 POP POP PUSH2 0x493 JUMP JUMPDEST POP DUP1 SWAP3 POP POP POP SWAP1 JUMP JUMPDEST PUSH0 PUSH0 PUSH3 0x15180 TIMESTAMP PUSH2 0x554 SWAP2 SWAP1 PUSH2 0x1B59 JUMP JUMPDEST SWAP1 POP PUSH0 PUSH2 0xE10 DUP3 PUSH2 0x565 SWAP2 SWAP1 PUSH2 0x1BB6 JUMP JUMPDEST SWAP1 POP DUP1 SWAP3 POP POP POP SWAP1 JUMP JUMPDEST PUSH32 0x0 PUSH20 0xFFFFFFFFFFFFFFFFFFFFFFFFFFFFFFFFFFFFFFFF AND CALLER PUSH20 0xFFFFFFFFFFFFFFFFFFFFFFFFFFFFFFFFFFFFFFFF AND EQ PUSH2 0x5FD JUMPI PUSH1 0x40 MLOAD PUSH32 0x8C379A000000000000000000000000000000000000000000000000000000000 DUP2 MSTORE PUSH1 0x4 ADD PUSH2 0x5F4 SWAP1 PUSH2 0x1C40 JUMP JUMPDEST PUSH1 0x40 MLOAD DUP1 SWAP2 SUB SWAP1 REVERT JUMPDEST PUSH0 SELFBALANCE SWAP1 POP PUSH0 DUP3 GT DUP1 ISZERO PUSH2 0x60F JUMPI POP PUSH0 DUP2 GT JUMPDEST DUP1 ISZERO PUSH2 0x61B JUMPI POP DUP1 DUP3 GT ISZERO JUMPDEST PUSH2 0x65A JUMPI PUSH1 0x40 MLOAD PUSH32 0x8C379A000000000000000000000000000000000000000000000000000000000 DUP2 MSTORE PUSH1 0x4 ADD PUSH2 0x651 SWAP1 PUSH2 0x1CCE JUMP JUMPDEST PUSH1 0x40 MLOAD DUP1 SWAP2 SUB SWAP1 REVERT JUMPDEST PUSH32 0x0 PUSH20 0xFFFFFFFFFFFFFFFFFFFFFFFFFFFFFFFFFFFFFFFF AND PUSH2 0x8FC DUP4 SWAP1 DUP2 ISZERO MUL SWAP1 PUSH1 0x40 MLOAD PUSH0 PUSH1 0x40 MLOAD DUP1 DUP4 SUB DUP2 DUP6 DUP9 DUP9 CALL SWAP4 POP POP POP POP ISZERO DUP1 ISZERO PUSH2 0x6BD JUMPI RETURNDATASIZE PUSH0 PUSH0 RETURNDATACOPY RETURNDATASIZE PUSH0 REVERT JUMPDEST POP POP POP JUMP JUMPDEST PUSH0 PUSH0 SELFBALANCE SWAP1 POP DUP1 SWAP2 POP POP SWAP1 JUMP JUMPDEST PUSH0 PUSH1 0x1 PUSH0 DUP4 PUSH20 0xFFFFFFFFFFFFFFFFFFFFFFFFFFFFFFFFFFFFFFFF AND PUSH20 0xFFFFFFFFFFFFFFFFFFFFFFFFFFFFFFFFFFFFFFFF AND DUP2 MSTORE PUSH1 0x20 ADD SWAP1 DUP2 MSTORE PUSH1 0x20 ADD PUSH0 KECCAK256 SLOAD SWAP1 POP SWAP2 SWAP1 POP JUMP JUMPDEST PUSH32 0x0 DUP2 JUMP JUMPDEST PUSH0 PUSH0 PUSH8 0xDE0B6B3A7640000 CALLER PUSH20 0xFFFFFFFFFFFFFFFFFFFFFFFFFFFFFFFFFFFFFFFF AND BALANCE PUSH2 0x765 SWAP2 SWAP1 PUSH2 0x1BB6 JUMP JUMPDEST SWAP1 POP DUP1 SWAP2 POP POP SWAP1 JUMP JUMPDEST PUSH0 CALLER SWAP1 POP SWAP1 JUMP JUMPDEST PUSH32 0x0 PUSH20 0xFFFFFFFFFFFFFFFFFFFFFFFFFFFFFFFFFFFFFFFF AND CALLER PUSH20 0xFFFFFFFFFFFFFFFFFFFFFFFFFFFFFFFFFFFFFFFF AND EQ PUSH2 0x803 JUMPI PUSH1 0x40 MLOAD PUSH32 0x8C379A000000000000000000000000000000000000000000000000000000000 DUP2 MSTORE PUSH1 0x4 ADD PUSH2 0x7FA SWAP1 PUSH2 0x1C40 JUMP JUMPDEST PUSH1 0x40 MLOAD DUP1 SWAP2 SUB SWAP1 REVERT JUMPDEST PUSH0 SELFBALANCE SWAP1 POP PUSH0 DUP2 GT PUSH2 0x849 JUMPI PUSH1 0x40 MLOAD PUSH32 0x8C379A000000000000000000000000000000000000000000000000000000000 DUP2 MSTORE PUSH1 0x4 ADD PUSH2 0x840 SWAP1 PUSH2 0x1D36 JUMP JUMPDEST PUSH1 0x40 MLOAD DUP1 SWAP2 SUB SWAP1 REVERT JUMPDEST PUSH32 0x0 PUSH20 0xFFFFFFFFFFFFFFFFFFFFFFFFFFFFFFFFFFFFFFFF AND PUSH2 0x8FC DUP3 SWAP1 DUP2 ISZERO MUL SWAP1 PUSH1 0x40 MLOAD PUSH0 PUSH1 0x40 MLOAD DUP1 DUP4 SUB DUP2 DUP6 DUP9 DUP9 CALL SWAP4 POP POP POP POP ISZERO DUP1 ISZERO PUSH2 0x8AC JUMPI RETURNDATASIZE PUSH0 PUSH0 RETURNDATACOPY RETURNDATASIZE PUSH0 REVERT JUMPDEST POP POP JUMP JUMPDEST PUSH32 0x0 DUP2 JUMP JUMPDEST PUSH1 0x1 PUSH1 0x20 MSTORE DUP1 PUSH0 MSTORE PUSH1 0x40 PUSH0 KECCAK256 PUSH0 SWAP2 POP SWAP1 POP SLOAD DUP2 JUMP JUMPDEST PUSH0 SLOAD DUP2 JUMP JUMPDEST PUSH0 PUSH3 0x15180 TIMESTAMP PUSH2 0x8FE SWAP2 SWAP1 PUSH2 0x1B59 JUMP JUMPDEST SWAP1 POP PUSH0 PUSH2 0xE10 DUP3 PUSH2 0x90F SWAP2 SWAP1 PUSH2 0x1BB6 JUMP JUMPDEST SWAP1 POP PUSH1 0xC DUP2 LT ISZERO DUP1 ISZERO PUSH2 0x922 JUMPI POP PUSH1 0xD DUP2 LT JUMPDEST PUSH2 0x961 JUMPI PUSH1 0x40 MLOAD PUSH32 0x8C379A000000000000000000000000000000000000000000000000000000000 DUP2 MSTORE PUSH1 0x4 ADD PUSH2 0x958 SWAP1 PUSH2 0x1DC4 JUMP JUMPDEST PUSH1 0x40 MLOAD DUP1 SWAP2 SUB SWAP1 REVERT JUMPDEST PUSH0 PUSH8 0xDE0B6B3A7640000 DUP5 PUSH2 0x976 SWAP2 SWAP1 PUSH2 0x1DE2 JUMP JUMPDEST SWAP1 POP PUSH0 CALLER SWAP1 POP PUSH0 DUP3 GT PUSH2 0x9BE JUMPI PUSH1 0x40 MLOAD PUSH32 0x8C379A000000000000000000000000000000000000000000000000000000000 DUP2 MSTORE PUSH1 0x4 ADD PUSH2 0x9B5 SWAP1 PUSH2 0x1D36 JUMP JUMPDEST PUSH1 0x40 MLOAD DUP1 SWAP2 SUB SWAP1 REVERT JUMPDEST DUP2 CALLVALUE LT ISZERO PUSH2 0xA01 JUMPI PUSH1 0x40 MLOAD PUSH32 0x8C379A000000000000000000000000000000000000000000000000000000000 DUP2 MSTORE PUSH1 0x4 ADD PUSH2 0x9F8 SWAP1 PUSH2 0x1E93 JUMP JUMPDEST PUSH1 0x40 MLOAD DUP1 SWAP2 SUB SWAP1 REVERT JUMPDEST PUSH0 PUSH20 0xFFFFFFFFFFFFFFFFFFFFFFFFFFFFFFFFFFFFFFFF AND DUP2 PUSH20 0xFFFFFFFFFFFFFFFFFFFFFFFFFFFFFFFFFFFFFFFF AND EQ ISZERO DUP1 ISZERO PUSH2 0xA89 JUMPI POP PUSH0 PUSH20 0xFFFFFFFFFFFFFFFFFFFFFFFFFFFFFFFFFFFFFFFF AND PUSH32 0x0 PUSH20 0xFFFFFFFFFFFFFFFFFFFFFFFFFFFFFFFFFFFFFFFF AND EQ ISZERO JUMPDEST PUSH2 0xAC8 JUMPI PUSH1 0x40 MLOAD PUSH32 0x8C379A000000000000000000000000000000000000000000000000000000000 DUP2 MSTORE PUSH1 0x4 ADD PUSH2 0xABF SWAP1 PUSH2 0x1F21 JUMP JUMPDEST PUSH1 0x40 MLOAD DUP1 SWAP2 SUB SWAP1 REVERT JUMPDEST PUSH1 0x3 PUSH0 DUP3 PUSH20 0xFFFFFFFFFFFFFFFFFFFFFFFFFFFFFFFFFFFFFFFF AND PUSH20 0xFFFFFFFFFFFFFFFFFFFFFFFFFFFFFFFFFFFFFFFF AND DUP2 MSTORE PUSH1 0x20 ADD SWAP1 DUP2 MSTORE PUSH1 0x20 ADD PUSH0 KECCAK256 PUSH0 SWAP1 SLOAD SWAP1 PUSH2 0x100 EXP SWAP1 DIV PUSH1 0xFF AND PUSH2 0xBCC JUMPI PUSH1 0x2 DUP2 SWAP1 DUP1 PUSH1 0x1 DUP2 SLOAD ADD DUP1 DUP3 SSTORE DUP1 SWAP2 POP POP PUSH1 0x1 SWAP1 SUB SWAP1 PUSH0 MSTORE PUSH1 0x20 PUSH0 KECCAK256 ADD PUSH0 SWAP1 SWAP2 SWAP1 SWAP2 SWAP1 SWAP2 PUSH2 0x100 EXP DUP2 SLOAD DUP2 PUSH20 0xFFFFFFFFFFFFFFFFFFFFFFFFFFFFFFFFFFFFFFFF MUL NOT AND SWAP1 DUP4 PUSH20 0xFFFFFFFFFFFFFFFFFFFFFFFFFFFFFFFFFFFFFFFF AND MUL OR SWAP1 SSTORE POP PUSH1 0x1 PUSH1 0x3 PUSH0 DUP4 PUSH20 0xFFFFFFFFFFFFFFFFFFFFFFFFFFFFFFFFFFFFFFFF AND PUSH20 0xFFFFFFFFFFFFFFFFFFFFFFFFFFFFFFFFFFFFFFFF AND DUP2 MSTORE PUSH1 0x20 ADD SWAP1 DUP2 MSTORE PUSH1 0x20 ADD PUSH0 KECCAK256 PUSH0 PUSH2 0x100 EXP DUP2 SLOAD DUP2 PUSH1 0xFF MUL NOT AND SWAP1 DUP4 ISZERO ISZERO MUL OR SWAP1 SSTORE POP JUMPDEST DUP2 PUSH1 0x1 PUSH0 DUP4 PUSH20 0xFFFFFFFFFFFFFFFFFFFFFFFFFFFFFFFFFFFFFFFF AND PUSH20 0xFFFFFFFFFFFFFFFFFFFFFFFFFFFFFFFFFFFFFFFF AND DUP2 MSTORE PUSH1 0x20 ADD SWAP1 DUP2 MSTORE PUSH1 0x20 ADD PUSH0 KECCAK256 PUSH0 DUP3 DUP3 SLOAD PUSH2 0xC18 SWAP2 SWAP1 PUSH2 0x1F3F JUMP JUMPDEST SWAP3 POP POP DUP2 SWAP1 SSTORE POP DUP5 PUSH0 PUSH0 DUP3 DUP3 SLOAD PUSH2 0xC2F SWAP2 SWAP1 PUSH2 0x1F3F JUMP JUMPDEST SWAP3 POP POP DUP2 SWAP1 SSTORE POP PUSH0 PUSH1 0x2 DUP1 SLOAD SWAP1 POP SWAP1 POP PUSH0 PUSH0 SWAP1 POP JUMPDEST PUSH1 0x3 DUP2 LT ISZERO PUSH2 0x1774 JUMPI PUSH1 0x1 DUP3 SUB ISZERO PUSH2 0x1774 JUMPI PUSH1 0x2 DUP3 EQ DUP1 ISZERO PUSH2 0xD56 JUMPI POP PUSH1 0x1 PUSH0 PUSH1 0x2 PUSH0 DUP2 SLOAD DUP2 LT PUSH2 0xC78 JUMPI PUSH2 0xC77 PUSH2 0x1AFF JUMP JUMPDEST JUMPDEST SWAP1 PUSH0 MSTORE PUSH1 0x20 PUSH0 KECCAK256 ADD PUSH0 SWAP1 SLOAD SWAP1 PUSH2 0x100 EXP SWAP1 DIV PUSH20 0xFFFFFFFFFFFFFFFFFFFFFFFFFFFFFFFFFFFFFFFF AND PUSH20 0xFFFFFFFFFFFFFFFFFFFFFFFFFFFFFFFFFFFFFFFF AND PUSH20 0xFFFFFFFFFFFFFFFFFFFFFFFFFFFFFFFFFFFFFFFF AND DUP2 MSTORE PUSH1 0x20 ADD SWAP1 DUP2 MSTORE PUSH1 0x20 ADD PUSH0 KECCAK256 SLOAD PUSH1 0x1 PUSH0 PUSH1 0x2 PUSH1 0x1 DUP2 SLOAD DUP2 LT PUSH2 0xCF2 JUMPI PUSH2 0xCF1 PUSH2 0x1AFF JUMP JUMPDEST JUMPDEST SWAP1 PUSH0 MSTORE PUSH1 0x20 PUSH0 KECCAK256 ADD PUSH0 SWAP1 SLOAD SWAP1 PUSH2 0x100 EXP SWAP1 DIV PUSH20 0xFFFFFFFFFFFFFFFFFFFFFFFFFFFFFFFFFFFFFFFF AND PUSH20 0xFFFFFFFFFFFFFFFFFFFFFFFFFFFFFFFFFFFFFFFF AND PUSH20 0xFFFFFFFFFFFFFFFFFFFFFFFFFFFFFFFFFFFFFFFF AND DUP2 MSTORE PUSH1 0x20 ADD SWAP1 DUP2 MSTORE PUSH1 0x20 ADD PUSH0 KECCAK256 SLOAD GT JUMPDEST ISZERO PUSH2 0xE91 JUMPI PUSH0 PUSH1 0x2 PUSH1 0x1 DUP2 SLOAD DUP2 LT PUSH2 0xD71 JUMPI PUSH2 0xD70 PUSH2 0x1AFF JUMP JUMPDEST JUMPDEST SWAP1 PUSH0 MSTORE PUSH1 0x20 PUSH0 KECCAK256 ADD PUSH0 SWAP1 SLOAD SWAP1 PUSH2 0x100 EXP SWAP1 DIV PUSH20 0xFFFFFFFFFFFFFFFFFFFFFFFFFFFFFFFFFFFFFFFF AND SWAP1 POP PUSH1 0x2 PUSH0 DUP2 SLOAD DUP2 LT PUSH2 0xDAF JUMPI PUSH2 0xDAE PUSH2 0x1AFF JUMP JUMPDEST JUMPDEST SWAP1 PUSH0 MSTORE PUSH1 0x20 PUSH0 KECCAK256 ADD PUSH0 SWAP1 SLOAD SWAP1 PUSH2 0x100 EXP SWAP1 DIV PUSH20 0xFFFFFFFFFFFFFFFFFFFFFFFFFFFFFFFFFFFFFFFF AND PUSH1 0x2 PUSH1 0x1 DUP2 SLOAD DUP2 LT PUSH2 0xDEC JUMPI PUSH2 0xDEB PUSH2 0x1AFF JUMP JUMPDEST JUMPDEST SWAP1 PUSH0 MSTORE PUSH1 0x20 PUSH0 KECCAK256 ADD PUSH0 PUSH2 0x100 EXP DUP2 SLOAD DUP2 PUSH20 0xFFFFFFFFFFFFFFFFFFFFFFFFFFFFFFFFFFFFFFFF MUL NOT AND SWAP1 DUP4 PUSH20 0xFFFFFFFFFFFFFFFFFFFFFFFFFFFFFFFFFFFFFFFF AND MUL OR SWAP1 SSTORE POP DUP1 PUSH1 0x2 PUSH0 DUP2 SLOAD DUP2 LT PUSH2 0xE46 JUMPI PUSH2 0xE45 PUSH2 0x1AFF JUMP JUMPDEST JUMPDEST SWAP1 PUSH0 MSTORE PUSH1 0x20 PUSH0 KECCAK256 ADD PUSH0 PUSH2 0x100 EXP DUP2 SLOAD DUP2 PUSH20 0xFFFFFFFFFFFFFFFFFFFFFFFFFFFFFFFFFFFFFFFF MUL NOT AND SWAP1 DUP4 PUSH20 0xFFFFFFFFFFFFFFFFFFFFFFFFFFFFFFFFFFFFFFFF AND MUL OR SWAP1 SSTORE POP POP PUSH2 0x1774 JUMP JUMPDEST PUSH1 0x3 DUP3 LT PUSH2 0x1767 JUMPI PUSH1 0x1 PUSH0 PUSH1 0x2 PUSH0 DUP2 SLOAD DUP2 LT PUSH2 0xEB0 JUMPI PUSH2 0xEAF PUSH2 0x1AFF JUMP JUMPDEST JUMPDEST SWAP1 PUSH0 MSTORE PUSH1 0x20 PUSH0 KECCAK256 ADD PUSH0 SWAP1 SLOAD SWAP1 PUSH2 0x100 EXP SWAP1 DIV PUSH20 0xFFFFFFFFFFFFFFFFFFFFFFFFFFFFFFFFFFFFFFFF AND PUSH20 0xFFFFFFFFFFFFFFFFFFFFFFFFFFFFFFFFFFFFFFFF AND PUSH20 0xFFFFFFFFFFFFFFFFFFFFFFFFFFFFFFFFFFFFFFFF AND DUP2 MSTORE PUSH1 0x20 ADD SWAP1 DUP2 MSTORE PUSH1 0x20 ADD PUSH0 KECCAK256 SLOAD PUSH1 0x1 PUSH0 PUSH1 0x2 PUSH1 0x1 DUP7 PUSH2 0xF24 SWAP2 SWAP1 PUSH2 0x1F72 JUMP JUMPDEST DUP2 SLOAD DUP2 LT PUSH2 0xF35 JUMPI PUSH2 0xF34 PUSH2 0x1AFF JUMP JUMPDEST JUMPDEST SWAP1 PUSH0 MSTORE PUSH1 0x20 PUSH0 KECCAK256 ADD PUSH0 SWAP1 SLOAD SWAP1 PUSH2 0x100 EXP SWAP1 DIV PUSH20 0xFFFFFFFFFFFFFFFFFFFFFFFFFFFFFFFFFFFFFFFF AND PUSH20 0xFFFFFFFFFFFFFFFFFFFFFFFFFFFFFFFFFFFFFFFF AND PUSH20 0xFFFFFFFFFFFFFFFFFFFFFFFFFFFFFFFFFFFFFFFF AND DUP2 MSTORE PUSH1 0x20 ADD SWAP1 DUP2 MSTORE PUSH1 0x20 ADD PUSH0 KECCAK256 SLOAD GT ISZERO PUSH2 0x121F JUMPI PUSH0 PUSH1 0x2 PUSH1 0x1 DUP5 PUSH2 0xFAD SWAP2 SWAP1 PUSH2 0x1F72 JUMP JUMPDEST DUP2 SLOAD DUP2 LT PUSH2 0xFBE JUMPI PUSH2 0xFBD PUSH2 0x1AFF JUMP JUMPDEST JUMPDEST SWAP1 PUSH0 MSTORE PUSH1 0x20 PUSH0 KECCAK256 ADD PUSH0 SWAP1 SLOAD SWAP1 PUSH2 0x100 EXP SWAP1 DIV PUSH20 0xFFFFFFFFFFFFFFFFFFFFFFFFFFFFFFFFFFFFFFFF AND SWAP1 POP PUSH1 0x3 DUP4 GT ISZERO PUSH2 0x1093 JUMPI PUSH1 0x2 DUP1 DUP2 SLOAD DUP2 LT PUSH2 0x1005 JUMPI PUSH2 0x1004 PUSH2 0x1AFF JUMP JUMPDEST JUMPDEST SWAP1 PUSH0 MSTORE PUSH1 0x20 PUSH0 KECCAK256 ADD PUSH0 SWAP1 SLOAD SWAP1 PUSH2 0x100 EXP SWAP1 DIV PUSH20 0xFFFFFFFFFFFFFFFFFFFFFFFFFFFFFFFFFFFFFFFF AND PUSH1 0x2 PUSH1 0x1 DUP6 PUSH2 0x103C SWAP2 SWAP1 PUSH2 0x1F72 JUMP JUMPDEST DUP2 SLOAD DUP2 LT PUSH2 0x104D JUMPI PUSH2 0x104C PUSH2 0x1AFF JUMP JUMPDEST JUMPDEST SWAP1 PUSH0 MSTORE PUSH1 0x20 PUSH0 KECCAK256 ADD PUSH0 PUSH2 0x100 EXP DUP2 SLOAD DUP2 PUSH20 0xFFFFFFFFFFFFFFFFFFFFFFFFFFFFFFFFFFFFFFFF MUL NOT AND SWAP1 DUP4 PUSH20 0xFFFFFFFFFFFFFFFFFFFFFFFFFFFFFFFFFFFFFFFF AND MUL OR SWAP1 SSTORE POP JUMPDEST PUSH1 0x2 PUSH1 0x1 DUP2 SLOAD DUP2 LT PUSH2 0x10A8 JUMPI PUSH2 0x10A7 PUSH2 0x1AFF JUMP JUMPDEST JUMPDEST SWAP1 PUSH0 MSTORE PUSH1 0x20 PUSH0 KECCAK256 ADD PUSH0 SWAP1 SLOAD SWAP1 PUSH2 0x100 EXP SWAP1 DIV PUSH20 0xFFFFFFFFFFFFFFFFFFFFFFFFFFFFFFFFFFFFFFFF AND PUSH1 0x2 DUP1 DUP2 SLOAD DUP2 LT PUSH2 0x10E4 JUMPI PUSH2 0x10E3 PUSH2 0x1AFF JUMP JUMPDEST JUMPDEST SWAP1 PUSH0 MSTORE PUSH1 0x20 PUSH0 KECCAK256 ADD PUSH0 PUSH2 0x100 EXP DUP2 SLOAD DUP2 PUSH20 0xFFFFFFFFFFFFFFFFFFFFFFFFFFFFFFFFFFFFFFFF MUL NOT AND SWAP1 DUP4 PUSH20 0xFFFFFFFFFFFFFFFFFFFFFFFFFFFFFFFFFFFFFFFF AND MUL OR SWAP1 SSTORE POP PUSH1 0x2 PUSH0 DUP2 SLOAD DUP2 LT PUSH2 0x113D JUMPI PUSH2 0x113C PUSH2 0x1AFF JUMP JUMPDEST JUMPDEST SWAP1 PUSH0 MSTORE PUSH1 0x20 PUSH0 KECCAK256 ADD PUSH0 SWAP1 SLOAD SWAP1 PUSH2 0x100 EXP SWAP1 DIV PUSH20 0xFFFFFFFFFFFFFFFFFFFFFFFFFFFFFFFFFFFFFFFF AND PUSH1 0x2 PUSH1 0x1 DUP2 SLOAD DUP2 LT PUSH2 0x117A JUMPI PUSH2 0x1179 PUSH2 0x1AFF JUMP JUMPDEST JUMPDEST SWAP1 PUSH0 MSTORE PUSH1 0x20 PUSH0 KECCAK256 ADD PUSH0 PUSH2 0x100 EXP DUP2 SLOAD DUP2 PUSH20 0xFFFFFFFFFFFFFFFFFFFFFFFFFFFFFFFFFFFFFFFF MUL NOT AND SWAP1 DUP4 PUSH20 0xFFFFFFFFFFFFFFFFFFFFFFFFFFFFFFFFFFFFFFFF AND MUL OR SWAP1 SSTORE POP DUP1 PUSH1 0x2 PUSH0 DUP2 SLOAD DUP2 LT PUSH2 0x11D4 JUMPI PUSH2 0x11D3 PUSH2 0x1AFF JUMP JUMPDEST JUMPDEST SWAP1 PUSH0 MSTORE PUSH1 0x20 PUSH0 KECCAK256 ADD PUSH0 PUSH2 0x100 EXP DUP2 SLOAD DUP2 PUSH20 0xFFFFFFFFFFFFFFFFFFFFFFFFFFFFFFFFFFFFFFFF MUL NOT AND SWAP1 DUP4 PUSH20 0xFFFFFFFFFFFFFFFFFFFFFFFFFFFFFFFFFFFFFFFF AND MUL OR SWAP1 SSTORE POP POP PUSH2 0x1774 JUMP JUMPDEST PUSH1 0x1 PUSH0 PUSH1 0x2 PUSH1 0x1 DUP2 SLOAD DUP2 LT PUSH2 0x1237 JUMPI PUSH2 0x1236 PUSH2 0x1AFF JUMP JUMPDEST JUMPDEST SWAP1 PUSH0 MSTORE PUSH1 0x20 PUSH0 KECCAK256 ADD PUSH0 SWAP1 SLOAD SWAP1 PUSH2 0x100 EXP SWAP1 DIV PUSH20 0xFFFFFFFFFFFFFFFFFFFFFFFFFFFFFFFFFFFFFFFF AND PUSH20 0xFFFFFFFFFFFFFFFFFFFFFFFFFFFFFFFFFFFFFFFF AND PUSH20 0xFFFFFFFFFFFFFFFFFFFFFFFFFFFFFFFFFFFFFFFF AND DUP2 MSTORE PUSH1 0x20 ADD SWAP1 DUP2 MSTORE PUSH1 0x20 ADD PUSH0 KECCAK256 SLOAD PUSH1 0x1 PUSH0 PUSH1 0x2 PUSH1 0x1 DUP7 PUSH2 0x12AB SWAP2 SWAP1 PUSH2 0x1F72 JUMP JUMPDEST DUP2 SLOAD DUP2 LT PUSH2 0x12BC JUMPI PUSH2 0x12BB PUSH2 0x1AFF JUMP JUMPDEST JUMPDEST SWAP1 PUSH0 MSTORE PUSH1 0x20 PUSH0 KECCAK256 ADD PUSH0 SWAP1 SLOAD SWAP1 PUSH2 0x100 EXP SWAP1 DIV PUSH20 0xFFFFFFFFFFFFFFFFFFFFFFFFFFFFFFFFFFFFFFFF AND PUSH20 0xFFFFFFFFFFFFFFFFFFFFFFFFFFFFFFFFFFFFFFFF AND PUSH20 0xFFFFFFFFFFFFFFFFFFFFFFFFFFFFFFFFFFFFFFFF AND DUP2 MSTORE PUSH1 0x20 ADD SWAP1 DUP2 MSTORE PUSH1 0x20 ADD PUSH0 KECCAK256 SLOAD GT ISZERO PUSH2 0x1511 JUMPI PUSH0 PUSH1 0x2 PUSH1 0x1 DUP5 PUSH2 0x1334 SWAP2 SWAP1 PUSH2 0x1F72 JUMP JUMPDEST DUP2 SLOAD DUP2 LT PUSH2 0x1345 JUMPI PUSH2 0x1344 PUSH2 0x1AFF JUMP JUMPDEST JUMPDEST SWAP1 PUSH0 MSTORE PUSH1 0x20 PUSH0 KECCAK256 ADD PUSH0 SWAP1 SLOAD SWAP1 PUSH2 0x100 EXP SWAP1 DIV PUSH20 0xFFFFFFFFFFFFFFFFFFFFFFFFFFFFFFFFFFFFFFFF AND SWAP1 POP PUSH1 0x3 DUP4 GT ISZERO PUSH2 0x141A JUMPI PUSH1 0x2 DUP1 DUP2 SLOAD DUP2 LT PUSH2 0x138C JUMPI PUSH2 0x138B PUSH2 0x1AFF JUMP JUMPDEST JUMPDEST SWAP1 PUSH0 MSTORE PUSH1 0x20 PUSH0 KECCAK256 ADD PUSH0 SWAP1 SLOAD SWAP1 PUSH2 0x100 EXP SWAP1 DIV PUSH20 0xFFFFFFFFFFFFFFFFFFFFFFFFFFFFFFFFFFFFFFFF AND PUSH1 0x2 PUSH1 0x1 DUP6 PUSH2 0x13C3 SWAP2 SWAP1 PUSH2 0x1F72 JUMP JUMPDEST DUP2 SLOAD DUP2 LT PUSH2 0x13D4 JUMPI PUSH2 0x13D3 PUSH2 0x1AFF JUMP JUMPDEST JUMPDEST SWAP1 PUSH0 MSTORE PUSH1 0x20 PUSH0 KECCAK256 ADD PUSH0 PUSH2 0x100 EXP DUP2 SLOAD DUP2 PUSH20 0xFFFFFFFFFFFFFFFFFFFFFFFFFFFFFFFFFFFFFFFF MUL NOT AND SWAP1 DUP4 PUSH20 0xFFFFFFFFFFFFFFFFFFFFFFFFFFFFFFFFFFFFFFFF AND MUL OR SWAP1 SSTORE POP JUMPDEST PUSH1 0x2 PUSH1 0x1 DUP2 SLOAD DUP2 LT PUSH2 0x142F JUMPI PUSH2 0x142E PUSH2 0x1AFF JUMP JUMPDEST JUMPDEST SWAP1 PUSH0 MSTORE PUSH1 0x20 PUSH0 KECCAK256 ADD PUSH0 SWAP1 SLOAD SWAP1 PUSH2 0x100 EXP SWAP1 DIV PUSH20 0xFFFFFFFFFFFFFFFFFFFFFFFFFFFFFFFFFFFFFFFF AND PUSH1 0x2 DUP1 DUP2 SLOAD DUP2 LT PUSH2 0x146B JUMPI PUSH2 0x146A PUSH2 0x1AFF JUMP JUMPDEST JUMPDEST SWAP1 PUSH0 MSTORE PUSH1 0x20 PUSH0 KECCAK256 ADD PUSH0 PUSH2 0x100 EXP DUP2 SLOAD DUP2 PUSH20 0xFFFFFFFFFFFFFFFFFFFFFFFFFFFFFFFFFFFFFFFF MUL NOT AND SWAP1 DUP4 PUSH20 0xFFFFFFFFFFFFFFFFFFFFFFFFFFFFFFFFFFFFFFFF AND MUL OR SWAP1 SSTORE POP DUP1 PUSH1 0x2 PUSH1 0x1 DUP2 SLOAD DUP2 LT PUSH2 0x14C6 JUMPI PUSH2 0x14C5 PUSH2 0x1AFF JUMP JUMPDEST JUMPDEST SWAP1 PUSH0 MSTORE PUSH1 0x20 PUSH0 KECCAK256 ADD PUSH0 PUSH2 0x100 EXP DUP2 SLOAD DUP2 PUSH20 0xFFFFFFFFFFFFFFFFFFFFFFFFFFFFFFFFFFFFFFFF MUL NOT AND SWAP1 DUP4 PUSH20 0xFFFFFFFFFFFFFFFFFFFFFFFFFFFFFFFFFFFFFFFF AND MUL OR SWAP1 SSTORE POP POP PUSH2 0x1774 JUMP JUMPDEST PUSH1 0x3 DUP3 SUB ISZERO PUSH2 0x1774 JUMPI PUSH1 0x1 PUSH0 PUSH1 0x2 DUP1 DUP2 SLOAD DUP2 LT PUSH2 0x1531 JUMPI PUSH2 0x1530 PUSH2 0x1AFF JUMP JUMPDEST JUMPDEST SWAP1 PUSH0 MSTORE PUSH1 0x20 PUSH0 KECCAK256 ADD PUSH0 SWAP1 SLOAD SWAP1 PUSH2 0x100 EXP SWAP1 DIV PUSH20 0xFFFFFFFFFFFFFFFFFFFFFFFFFFFFFFFFFFFFFFFF AND PUSH20 0xFFFFFFFFFFFFFFFFFFFFFFFFFFFFFFFFFFFFFFFF AND PUSH20 0xFFFFFFFFFFFFFFFFFFFFFFFFFFFFFFFFFFFFFFFF AND DUP2 MSTORE PUSH1 0x20 ADD SWAP1 DUP2 MSTORE PUSH1 0x20 ADD PUSH0 KECCAK256 SLOAD PUSH1 0x1 PUSH0 PUSH1 0x2 PUSH1 0x1 DUP7 PUSH2 0x15A5 SWAP2 SWAP1 PUSH2 0x1F72 JUMP JUMPDEST DUP2 SLOAD DUP2 LT PUSH2 0x15B6 JUMPI PUSH2 0x15B5 PUSH2 0x1AFF JUMP JUMPDEST JUMPDEST SWAP1 PUSH0 MSTORE PUSH1 0x20 PUSH0 KECCAK256 ADD PUSH0 SWAP1 SLOAD SWAP1 PUSH2 0x100 EXP SWAP1 DIV PUSH20 0xFFFFFFFFFFFFFFFFFFFFFFFFFFFFFFFFFFFFFFFF AND PUSH20 0xFFFFFFFFFFFFFFFFFFFFFFFFFFFFFFFFFFFFFFFF AND PUSH20 0xFFFFFFFFFFFFFFFFFFFFFFFFFFFFFFFFFFFFFFFF AND DUP2 MSTORE PUSH1 0x20 ADD SWAP1 DUP2 MSTORE PUSH1 0x20 ADD PUSH0 KECCAK256 SLOAD GT ISZERO PUSH2 0x1766 JUMPI PUSH0 PUSH1 0x2 PUSH1 0x1 DUP5 PUSH2 0x162E SWAP2 SWAP1 PUSH2 0x1F72 JUMP JUMPDEST DUP2 SLOAD DUP2 LT PUSH2 0x163F JUMPI PUSH2 0x163E PUSH2 0x1AFF JUMP JUMPDEST JUMPDEST SWAP1 PUSH0 MSTORE PUSH1 0x20 PUSH0 KECCAK256 ADD PUSH0 SWAP1 SLOAD SWAP1 PUSH2 0x100 EXP SWAP1 DIV PUSH20 0xFFFFFFFFFFFFFFFFFFFFFFFFFFFFFFFFFFFFFFFF AND SWAP1 POP PUSH1 0x2 DUP1 DUP2 SLOAD DUP2 LT PUSH2 0x167D JUMPI PUSH2 0x167C PUSH2 0x1AFF JUMP JUMPDEST JUMPDEST SWAP1 PUSH0 MSTORE PUSH1 0x20 PUSH0 KECCAK256 ADD PUSH0 SWAP1 SLOAD SWAP1 PUSH2 0x100 EXP SWAP1 DIV PUSH20 0xFFFFFFFFFFFFFFFFFFFFFFFFFFFFFFFFFFFFFFFF AND PUSH1 0x2 PUSH1 0x1 DUP6 PUSH2 0x16B4 SWAP2 SWAP1 PUSH2 0x1F72 JUMP JUMPDEST DUP2 SLOAD DUP2 LT PUSH2 0x16C5 JUMPI PUSH2 0x16C4 PUSH2 0x1AFF JUMP JUMPDEST JUMPDEST SWAP1 PUSH0 MSTORE PUSH1 0x20 PUSH0 KECCAK256 ADD PUSH0 PUSH2 0x100 EXP DUP2 SLOAD DUP2 PUSH20 0xFFFFFFFFFFFFFFFFFFFFFFFFFFFFFFFFFFFFFFFF MUL NOT AND SWAP1 DUP4 PUSH20 0xFFFFFFFFFFFFFFFFFFFFFFFFFFFFFFFFFFFFFFFF AND MUL OR SWAP1 SSTORE POP DUP1 PUSH1 0x2 DUP1 DUP2 SLOAD DUP2 LT PUSH2 0x171F JUMPI PUSH2 0x171E PUSH2 0x1AFF JUMP JUMPDEST JUMPDEST SWAP1 PUSH0 MSTORE PUSH1 0x20 PUSH0 KECCAK256 ADD PUSH0 PUSH2 0x100 EXP DUP2 SLOAD DUP2 PUSH20 0xFFFFFFFFFFFFFFFFFFFFFFFFFFFFFFFFFFFFFFFF MUL NOT AND SWAP1 DUP4 PUSH20 0xFFFFFFFFFFFFFFFFFFFFFFFFFFFFFFFFFFFFFFFF AND MUL OR SWAP1 SSTORE POP POP JUMPDEST JUMPDEST DUP1 DUP1 PUSH1 0x1 ADD SWAP2 POP POP PUSH2 0xC44 JUMP JUMPDEST POP CALLER PUSH20 0xFFFFFFFFFFFFFFFFFFFFFFFFFFFFFFFFFFFFFFFF AND PUSH32 0x6C79DC283E8C368B886A089FD4CE20B114CD1668104AEE3BE6D548C37AB6178 DUP5 TIMESTAMP PUSH1 0x40 MLOAD PUSH2 0x17BD SWAP3 SWAP2 SWAP1 PUSH2 0x1849 JUMP JUMPDEST PUSH1 0x40 MLOAD DUP1 SWAP2 SUB SWAP1 LOG2 PUSH32 0x0 PUSH20 0xFFFFFFFFFFFFFFFFFFFFFFFFFFFFFFFFFFFFFFFF AND PUSH2 0x8FC DUP5 SWAP1 DUP2 ISZERO MUL SWAP1 PUSH1 0x40 MLOAD PUSH0 PUSH1 0x40 MLOAD DUP1 DUP4 SUB DUP2 DUP6 DUP9 DUP9 CALL SWAP4 POP POP POP POP ISZERO DUP1 ISZERO PUSH2 0x1828 JUMPI RETURNDATASIZE PUSH0 PUSH0 RETURNDATACOPY RETURNDATASIZE PUSH0 REVERT JUMPDEST POP POP POP POP POP POP POP JUMP JUMPDEST PUSH0 DUP2 SWAP1 POP SWAP2 SWAP1 POP JUMP JUMPDEST PUSH2 0x1843 DUP2 PUSH2 0x1831 JUMP JUMPDEST DUP3 MSTORE POP POP JUMP JUMPDEST PUSH0 PUSH1 0x40 DUP3 ADD SWAP1 POP PUSH2 0x185C PUSH0 DUP4 ADD DUP6 PUSH2 0x183A JUMP JUMPDEST PUSH2 0x1869 PUSH1 0x20 DUP4 ADD DUP5 PUSH2 0x183A JUMP JUMPDEST SWAP4 SWAP3 POP POP POP JUMP JUMPDEST PUSH0 PUSH0 REVERT JUMPDEST PUSH2 0x187D DUP2 PUSH2 0x1831 JUMP JUMPDEST DUP2 EQ PUSH2 0x1887 JUMPI PUSH0 PUSH0 REVERT JUMPDEST POP JUMP JUMPDEST PUSH0 DUP2 CALLDATALOAD SWAP1 POP PUSH2 0x1898 DUP2 PUSH2 0x1874 JUMP JUMPDEST SWAP3 SWAP2 POP POP JUMP JUMPDEST PUSH0 PUSH1 0x20 DUP3 DUP5 SUB SLT ISZERO PUSH2 0x18B3 JUMPI PUSH2 0x18B2 PUSH2 0x1870 JUMP JUMPDEST JUMPDEST PUSH0 PUSH2 0x18C0 DUP5 DUP3 DUP6 ADD PUSH2 0x188A JUMP JUMPDEST SWAP2 POP POP SWAP3 SWAP2 POP POP JUMP JUMPDEST PUSH0 PUSH20 0xFFFFFFFFFFFFFFFFFFFFFFFFFFFFFFFFFFFFFFFF DUP3 AND SWAP1 POP SWAP2 SWAP1 POP JUMP JUMPDEST PUSH0 PUSH2 0x18F2 DUP3 PUSH2 0x18C9 JUMP JUMPDEST SWAP1 POP SWAP2 SWAP1 POP JUMP JUMPDEST PUSH2 0x1902 DUP2 PUSH2 0x18E8 JUMP JUMPDEST DUP3 MSTORE POP POP JUMP JUMPDEST PUSH0 PUSH1 0x20 DUP3 ADD SWAP1 POP PUSH2 0x191B PUSH0 DUP4 ADD DUP5 PUSH2 0x18F9 JUMP JUMPDEST SWAP3 SWAP2 POP POP JUMP JUMPDEST PUSH2 0x192A DUP2 PUSH2 0x18E8 JUMP JUMPDEST DUP2 EQ PUSH2 0x1934 JUMPI PUSH0 PUSH0 REVERT JUMPDEST POP JUMP JUMPDEST PUSH0 DUP2 CALLDATALOAD SWAP1 POP PUSH2 0x1945 DUP2 PUSH2 0x1921 JUMP JUMPDEST SWAP3 SWAP2 POP POP JUMP JUMPDEST PUSH0 PUSH1 0x20 DUP3 DUP5 SUB SLT ISZERO PUSH2 0x1960 JUMPI PUSH2 0x195F PUSH2 0x1870 JUMP JUMPDEST JUMPDEST PUSH0 PUSH2 0x196D DUP5 DUP3 DUP6 ADD PUSH2 0x1937 JUMP JUMPDEST SWAP2 POP POP SWAP3 SWAP2 POP POP JUMP JUMPDEST PUSH0 DUP2 ISZERO ISZERO SWAP1 POP SWAP2 SWAP1 POP JUMP JUMPDEST PUSH2 0x198A DUP2 PUSH2 0x1976 JUMP JUMPDEST DUP3 MSTORE POP POP JUMP JUMPDEST PUSH0 PUSH1 0x20 DUP3 ADD SWAP1 POP PUSH2 0x19A3 PUSH0 DUP4 ADD DUP5 PUSH2 0x1981 JUMP JUMPDEST SWAP3 SWAP2 POP POP JUMP JUMPDEST PUSH0 DUP2 MLOAD SWAP1 POP SWAP2 SWAP1 POP JUMP JUMPDEST PUSH0 DUP3 DUP3 MSTORE PUSH1 0x20 DUP3 ADD SWAP1 POP SWAP3 SWAP2 POP POP JUMP JUMPDEST PUSH0 DUP2 SWAP1 POP PUSH1 0x20 DUP3 ADD SWAP1 POP SWAP2 SWAP1 POP JUMP JUMPDEST PUSH2 0x19DB DUP2 PUSH2 0x18E8 JUMP JUMPDEST DUP3 MSTORE POP POP JUMP JUMPDEST PUSH0 PUSH2 0x19EC DUP4 DUP4 PUSH2 0x19D2 JUMP JUMPDEST PUSH1 0x20 DUP4 ADD SWAP1 POP SWAP3 SWAP2 POP POP JUMP JUMPDEST PUSH0 PUSH1 0x20 DUP3 ADD SWAP1 POP SWAP2 SWAP1 POP JUMP JUMPDEST PUSH0 PUSH2 0x1A0E DUP3 PUSH2 0x19A9 JUMP JUMPDEST PUSH2 0x1A18 DUP2 DUP6 PUSH2 0x19B3 JUMP JUMPDEST SWAP4 POP PUSH2 0x1A23 DUP4 PUSH2 0x19C3 JUMP JUMPDEST DUP1 PUSH0 JUMPDEST DUP4 DUP2 LT ISZERO PUSH2 0x1A53 JUMPI DUP2 MLOAD PUSH2 0x1A3A DUP9 DUP3 PUSH2 0x19E1 JUMP JUMPDEST SWAP8 POP PUSH2 0x1A45 DUP4 PUSH2 0x19F8 JUMP JUMPDEST SWAP3 POP POP PUSH1 0x1 DUP2 ADD SWAP1 POP PUSH2 0x1A26 JUMP JUMPDEST POP DUP6 SWAP4 POP POP POP POP SWAP3 SWAP2 POP POP JUMP JUMPDEST PUSH0 PUSH1 0x20 DUP3 ADD SWAP1 POP DUP2 DUP2 SUB PUSH0 DUP4 ADD MSTORE PUSH2 0x1A78 DUP2 DUP5 PUSH2 0x1A04 JUMP JUMPDEST SWAP1 POP SWAP3 SWAP2 POP POP JUMP JUMPDEST PUSH0 PUSH1 0x20 DUP3 ADD SWAP1 POP PUSH2 0x1A93 PUSH0 DUP4 ADD DUP5 PUSH2 0x183A JUMP JUMPDEST SWAP3 SWAP2 POP POP JUMP JUMPDEST PUSH0 PUSH2 0x1AA3 DUP3 PUSH2 0x18C9 JUMP JUMPDEST SWAP1 POP SWAP2 SWAP1 POP JUMP JUMPDEST PUSH2 0x1AB3 DUP2 PUSH2 0x1A99 JUMP JUMPDEST DUP3 MSTORE POP POP JUMP JUMPDEST PUSH0 PUSH1 0x20 DUP3 ADD SWAP1 POP PUSH2 0x1ACC PUSH0 DUP4 ADD DUP5 PUSH2 0x1AAA JUMP JUMPDEST SWAP3 SWAP2 POP POP JUMP JUMPDEST PUSH32 0x4E487B7100000000000000000000000000000000000000000000000000000000 PUSH0 MSTORE PUSH1 0x41 PUSH1 0x4 MSTORE PUSH1 0x24 PUSH0 REVERT JUMPDEST PUSH32 0x4E487B7100000000000000000000000000000000000000000000000000000000 PUSH0 MSTORE PUSH1 0x32 PUSH1 0x4 MSTORE PUSH1 0x24 PUSH0 REVERT JUMPDEST PUSH32 0x4E487B7100000000000000000000000000000000000000000000000000000000 PUSH0 MSTORE PUSH1 0x12 PUSH1 0x4 MSTORE PUSH1 0x24 PUSH0 REVERT JUMPDEST PUSH0 PUSH2 0x1B63 DUP3 PUSH2 0x1831 JUMP JUMPDEST SWAP2 POP PUSH2 0x1B6E DUP4 PUSH2 0x1831 JUMP JUMPDEST SWAP3 POP DUP3 PUSH2 0x1B7E JUMPI PUSH2 0x1B7D PUSH2 0x1B2C JUMP JUMPDEST JUMPDEST DUP3 DUP3 MOD SWAP1 POP SWAP3 SWAP2 POP POP JUMP JUMPDEST PUSH32 0x4E487B7100000000000000000000000000000000000000000000000000000000 PUSH0 MSTORE PUSH1 0x11 PUSH1 0x4 MSTORE PUSH1 0x24 PUSH0 REVERT JUMPDEST PUSH0 PUSH2 0x1BC0 DUP3 PUSH2 0x1831 JUMP JUMPDEST SWAP2 POP PUSH2 0x1BCB DUP4 PUSH2 0x1831 JUMP JUMPDEST SWAP3 POP DUP3 PUSH2 0x1BDB JUMPI PUSH2 0x1BDA PUSH2 0x1B2C JUMP JUMPDEST JUMPDEST DUP3 DUP3 DIV SWAP1 POP SWAP3 SWAP2 POP POP JUMP JUMPDEST PUSH0 DUP3 DUP3 MSTORE PUSH1 0x20 DUP3 ADD SWAP1 POP SWAP3 SWAP2 POP POP JUMP JUMPDEST PUSH32 0x4E6F2041646D696E000000000000000000000000000000000000000000000000 PUSH0 DUP3 ADD MSTORE POP JUMP JUMPDEST PUSH0 PUSH2 0x1C2A PUSH1 0x8 DUP4 PUSH2 0x1BE6 JUMP JUMPDEST SWAP2 POP PUSH2 0x1C35 DUP3 PUSH2 0x1BF6 JUMP JUMPDEST PUSH1 0x20 DUP3 ADD SWAP1 POP SWAP2 SWAP1 POP JUMP JUMPDEST PUSH0 PUSH1 0x20 DUP3 ADD SWAP1 POP DUP2 DUP2 SUB PUSH0 DUP4 ADD MSTORE PUSH2 0x1C57 DUP2 PUSH2 0x1C1E JUMP JUMPDEST SWAP1 POP SWAP2 SWAP1 POP JUMP JUMPDEST PUSH32 0x57697468647261773A20696E76616C696420616D6F756E7420287A65726F206F PUSH0 DUP3 ADD MSTORE PUSH32 0x72206578636565647320636F6E74726163742062616C616E6365290000000000 PUSH1 0x20 DUP3 ADD MSTORE POP JUMP JUMPDEST PUSH0 PUSH2 0x1CB8 PUSH1 0x3B DUP4 PUSH2 0x1BE6 JUMP JUMPDEST SWAP2 POP PUSH2 0x1CC3 DUP3 PUSH2 0x1C5E JUMP JUMPDEST PUSH1 0x40 DUP3 ADD SWAP1 POP SWAP2 SWAP1 POP JUMP JUMPDEST PUSH0 PUSH1 0x20 DUP3 ADD SWAP1 POP DUP2 DUP2 SUB PUSH0 DUP4 ADD MSTORE PUSH2 0x1CE5 DUP2 PUSH2 0x1CAC JUMP JUMPDEST SWAP1 POP SWAP2 SWAP1 POP JUMP JUMPDEST PUSH32 0x42616C616E636520496E73756666696369656E74000000000000000000000000 PUSH0 DUP3 ADD MSTORE POP JUMP JUMPDEST PUSH0 PUSH2 0x1D20 PUSH1 0x14 DUP4 PUSH2 0x1BE6 JUMP JUMPDEST SWAP2 POP PUSH2 0x1D2B DUP3 PUSH2 0x1CEC JUMP JUMPDEST PUSH1 0x20 DUP3 ADD SWAP1 POP SWAP2 SWAP1 POP JUMP JUMPDEST PUSH0 PUSH1 0x20 DUP3 ADD SWAP1 POP DUP2 DUP2 SUB PUSH0 DUP4 ADD MSTORE PUSH2 0x1D4D DUP2 PUSH2 0x1D14 JUMP JUMPDEST SWAP1 POP SWAP2 SWAP1 POP JUMP JUMPDEST PUSH32 0x566F74696E67206973206F6E6C7920616C6C6F776564206265747765656E2031 PUSH0 DUP3 ADD MSTORE PUSH32 0x323A303020616E642031333A3030205554430000000000000000000000000000 PUSH1 0x20 DUP3 ADD MSTORE POP JUMP JUMPDEST PUSH0 PUSH2 0x1DAE PUSH1 0x32 DUP4 PUSH2 0x1BE6 JUMP JUMPDEST SWAP2 POP PUSH2 0x1DB9 DUP3 PUSH2 0x1D54 JUMP JUMPDEST PUSH1 0x40 DUP3 ADD SWAP1 POP SWAP2 SWAP1 POP JUMP JUMPDEST PUSH0 PUSH1 0x20 DUP3 ADD SWAP1 POP DUP2 DUP2 SUB PUSH0 DUP4 ADD MSTORE PUSH2 0x1DDB DUP2 PUSH2 0x1DA2 JUMP JUMPDEST SWAP1 POP SWAP2 SWAP1 POP JUMP JUMPDEST PUSH0 PUSH2 0x1DEC DUP3 PUSH2 0x1831 JUMP JUMPDEST SWAP2 POP PUSH2 0x1DF7 DUP4 PUSH2 0x1831 JUMP JUMPDEST SWAP3 POP DUP3 DUP3 MUL PUSH2 0x1E05 DUP2 PUSH2 0x1831 JUMP JUMPDEST SWAP2 POP DUP3 DUP3 DIV DUP5 EQ DUP4 ISZERO OR PUSH2 0x1E1C JUMPI PUSH2 0x1E1B PUSH2 0x1B89 JUMP JUMPDEST JUMPDEST POP SWAP3 SWAP2 POP POP JUMP JUMPDEST PUSH32 0x446F6E6174696F6E3A20696E73756666696369656E74207472616E7366657272 PUSH0 DUP3 ADD MSTORE PUSH32 0x6564204554480000000000000000000000000000000000000000000000000000 PUSH1 0x20 DUP3 ADD MSTORE POP JUMP JUMPDEST PUSH0 PUSH2 0x1E7D PUSH1 0x26 DUP4 PUSH2 0x1BE6 JUMP JUMPDEST SWAP2 POP PUSH2 0x1E88 DUP3 PUSH2 0x1E23 JUMP JUMPDEST PUSH1 0x40 DUP3 ADD SWAP1 POP SWAP2 SWAP1 POP JUMP JUMPDEST PUSH0 PUSH1 0x20 DUP3 ADD SWAP1 POP DUP2 DUP2 SUB PUSH0 DUP4 ADD MSTORE PUSH2 0x1EAA DUP2 PUSH2 0x1E71 JUMP JUMPDEST SWAP1 POP SWAP2 SWAP1 POP JUMP JUMPDEST PUSH32 0x446F6E6174696F6E3A205F73656E64657220616E6420726563697069656E7420 PUSH0 DUP3 ADD MSTORE PUSH32 0x696E76616C6964207A65726F2061646472657373000000000000000000000000 PUSH1 0x20 DUP3 ADD MSTORE POP JUMP JUMPDEST PUSH0 PUSH2 0x1F0B PUSH1 0x34 DUP4 PUSH2 0x1BE6 JUMP JUMPDEST SWAP2 POP PUSH2 0x1F16 DUP3 PUSH2 0x1EB1 JUMP JUMPDEST PUSH1 0x40 DUP3 ADD SWAP1 POP SWAP2 SWAP1 POP JUMP JUMPDEST PUSH0 PUSH1 0x20 DUP3 ADD SWAP1 POP DUP2 DUP2 SUB PUSH0 DUP4 ADD MSTORE PUSH2 0x1F38 DUP2 PUSH2 0x1EFF JUMP JUMPDEST SWAP1 POP SWAP2 SWAP1 POP JUMP JUMPDEST PUSH0 PUSH2 0x1F49 DUP3 PUSH2 0x1831 JUMP JUMPDEST SWAP2 POP PUSH2 0x1F54 DUP4 PUSH2 0x1831 JUMP JUMPDEST SWAP3 POP DUP3 DUP3 ADD SWAP1 POP DUP1 DUP3 GT ISZERO PUSH2 0x1F6C JUMPI PUSH2 0x1F6B PUSH2 0x1B89 JUMP JUMPDEST JUMPDEST SWAP3 SWAP2 POP POP JUMP JUMPDEST PUSH0 PUSH2 0x1F7C DUP3 PUSH2 0x1831 JUMP JUMPDEST SWAP2 POP PUSH2 0x1F87 DUP4 PUSH2 0x1831 JUMP JUMPDEST SWAP3 POP DUP3 DUP3 SUB SWAP1 POP DUP2 DUP2 GT ISZERO PUSH2 0x1F9F JUMPI PUSH2 0x1F9E PUSH2 0x1B89 JUMP JUMPDEST JUMPDEST SWAP3 SWAP2 POP POP JUMP INVALID LOG2 PUSH5 0x6970667358 0x22 SLT KECCAK256 0xB2 EXTSTATICCALL NOT BLOCKHASH SWAP7 0xB6 PUSH6 0xE088D112FE43 0xC 0xBD MLOAD EXTCODECOPY PUSH3 0xD0992D 0xD9 NUMBER DUP7 PUSH9 0x8D7089BB8D3D246473 PUSH16 0x6C634300081F00330000000000000000 "
				},
				"gasEstimates": {
					"creation": {
						"codeDepositCost": "1631000",
						"executionCost": "infinite",
						"totalCost": "infinite"
					},
					"external": {
						"": "infinite",
						"donate(uint256)": "infinite",
						"donationAmount(address)": "2846",
						"donationList(uint256)": "4968",
						"getBalanc()": "413",
						"getDonation(address)": "2918",
						"getTopThreeList()": "infinite",
						"getUser()": "446",
						"getUserBalanceEth()": "infinite",
						"getcurrentTimer()": "infinite",
						"isDonation(address)": "2879",
						"owner()": "infinite",
						"recipient()": "infinite",
						"totalDonationsEth()": "2490",
						"withdraw(uint256)": "infinite",
						"withdrawAll()": "infinite"
					}
				},
				"methodIdentifiers": {
					"donate(uint256)": "f14faf6f",
					"donationAmount(address)": "ae677d8c",
					"donationList(uint256)": "0238cbdc",
					"getBalanc()": "3a32f280",
					"getDonation(address)": "410a1d32",
					"getTopThreeList()": "1e8a5775",
					"getUser()": "832880e7",
					"getUserBalanceEth()": "6e2cb32a",
					"getcurrentTimer()": "26646c8c",
					"isDonation(address)": "12265a0d",
					"owner()": "8da5cb5b",
					"recipient()": "66d003ac",
					"totalDonationsEth()": "d876cb23",
					"withdraw(uint256)": "2e1a7d4d",
					"withdrawAll()": "853828b6"
				}
			},
			"storageLayout": {
				"storage": [
					{
						"astId": 3,
						"contract": "contracts/homework/BeggingContract.sol:BeggingContract",
						"label": "totalDonationsEth",
						"offset": 0,
						"slot": "0",
						"type": "t_uint256"
					},
					{
						"astId": 7,
						"contract": "contracts/homework/BeggingContract.sol:BeggingContract",
						"label": "donationAmount",
						"offset": 0,
						"slot": "1",
						"type": "t_mapping(t_address,t_uint256)"
					},
					{
						"astId": 10,
						"contract": "contracts/homework/BeggingContract.sol:BeggingContract",
						"label": "donationList",
						"offset": 0,
						"slot": "2",
						"type": "t_array(t_address)dyn_storage"
					},
					{
						"astId": 14,
						"contract": "contracts/homework/BeggingContract.sol:BeggingContract",
						"label": "isDonation",
						"offset": 0,
						"slot": "3",
						"type": "t_mapping(t_address,t_bool)"
					}
				],
				"types": {
					"t_address": {
						"encoding": "inplace",
						"label": "address",
						"numberOfBytes": "20"
					},
					"t_array(t_address)dyn_storage": {
						"base": "t_address",
						"encoding": "dynamic_array",
						"label": "address[]",
						"numberOfBytes": "32"
					},
					"t_bool": {
						"encoding": "inplace",
						"label": "bool",
						"numberOfBytes": "1"
					},
					"t_mapping(t_address,t_bool)": {
						"encoding": "mapping",
						"key": "t_address",
						"label": "mapping(address => bool)",
						"numberOfBytes": "32",
						"value": "t_bool"
					},
					"t_mapping(t_address,t_uint256)": {
						"encoding": "mapping",
						"key": "t_address",
						"label": "mapping(address => uint256)",
						"numberOfBytes": "32",
						"value": "t_uint256"
					},
					"t_uint256": {
						"encoding": "inplace",
						"label": "uint256",
						"numberOfBytes": "32"
					}
				}
			},
			"userdoc": {
				"kind": "user",
				"methods": {},
				"version": 1
			}
		}
	}
}