{
	"contracts/homework/ReverseString.sol": {
		"ReverseString": {
			"abi": [
				{
					"inputs": [
						{
							"internalType": "string",
							"name": "input",
							"type": "string"
						}
					],
					"name": "reverseString",
					"outputs": [
						{
							"internalType": "string",
							"name": "",
							"type": "string"
						}
					],
					"stateMutability": "pure",
					"type": "function"
				}
			],
			"devdoc": {
				"kind": "dev",
				"methods": {},
				"version": 1
			},
			"evm": {
				"assembly": "    /* \"contracts/homework/ReverseString.sol\":176:632  contract ReverseString{... */\n  mstore(0x40, 0x80)\n  callvalue\n  dup1\n  iszero\n  tag_1\n  jumpi\n  revert(0x00, 0x00)\ntag_1:\n  pop\n  dataSize(sub_0)\n  dup1\n  dataOffset(sub_0)\n  0x00\n  codecopy\n  0x00\n  return\nstop\n\nsub_0: assembly {\n        /* \"contracts/homework/ReverseString.sol\":176:632  contract ReverseString{... */\n      mstore(0x40, 0x80)\n      callvalue\n      dup1\n      iszero\n      tag_1\n      jumpi\n      revert(0x00, 0x00)\n    tag_1:\n      pop\n      jumpi(tag_2, lt(calldatasize, 0x04))\n      shr(0xe0, calldataload(0x00))\n      dup1\n      0x5729c211\n      eq\n      tag_3\n      jumpi\n    tag_2:\n      revert(0x00, 0x00)\n        /* \"contracts/homework/ReverseString.sol\":204:630  function reverseString(string calldata input) public pure returns(string memory){... */\n    tag_3:\n      tag_4\n      0x04\n      dup1\n      calldatasize\n      sub\n      dup2\n      add\n      swap1\n      tag_5\n      swap2\n      swap1\n      tag_6\n      jump\t// in\n    tag_5:\n      tag_7\n      jump\t// in\n    tag_4:\n      mload(0x40)\n      tag_8\n      swap2\n      swap1\n      tag_9\n      jump\t// in\n    tag_8:\n      mload(0x40)\n      dup1\n      swap2\n      sub\n      swap1\n      return\n    tag_7:\n        /* \"contracts/homework/ReverseString.sol\":270:283  string memory */\n      0x60\n        /* \"contracts/homework/ReverseString.sol\":320:321  0 */\n      0x00\n        /* \"contracts/homework/ReverseString.sol\":303:308  input */\n      dup4\n      dup4\n        /* \"contracts/homework/ReverseString.sol\":297:316  bytes(input).length */\n      swap1\n      pop\n        /* \"contracts/homework/ReverseString.sol\":297:321  bytes(input).length == 0 */\n      sub\n        /* \"contracts/homework/ReverseString.sol\":294:358  if(bytes(input).length == 0) {... */\n      tag_11\n      jumpi\n        /* \"contracts/homework/ReverseString.sol\":337:346  return \"\" */\n      mload(0x40)\n      dup1\n      0x20\n      add\n      0x40\n      mstore\n      dup1\n      0x00\n      dup2\n      mstore\n      pop\n      swap1\n      pop\n      jump(tag_10)\n        /* \"contracts/homework/ReverseString.sol\":294:358  if(bytes(input).length == 0) {... */\n    tag_11:\n        /* \"contracts/homework/ReverseString.sol\":367:384  bytes memory temp */\n      0x00\n        /* \"contracts/homework/ReverseString.sol\":393:398  input */\n      dup4\n      dup4\n        /* \"contracts/homework/ReverseString.sol\":367:399  bytes memory temp = bytes(input) */\n      dup1\n      dup1\n      0x1f\n      add\n      0x20\n      dup1\n      swap2\n      div\n      mul\n      0x20\n      add\n      mload(0x40)\n      swap1\n      dup2\n      add\n      0x40\n      mstore\n      dup1\n      swap4\n      swap3\n      swap2\n      swap1\n      dup2\n      dup2\n      mstore\n      0x20\n      add\n      dup4\n      dup4\n      dup1\n      dup3\n      dup5\n      calldatacopy\n      0x00\n      dup2\n      dup5\n      add\n      mstore\n      not(0x1f)\n      0x1f\n      dup3\n      add\n      and\n      swap1\n      pop\n      dup1\n      dup4\n      add\n      swap3\n      pop\n      pop\n      pop\n      pop\n      pop\n      pop\n      pop\n      swap1\n      pop\n        /* \"contracts/homework/ReverseString.sol\":409:420  uint256 len */\n      0x00\n        /* \"contracts/homework/ReverseString.sol\":423:427  temp */\n      dup2\n        /* \"contracts/homework/ReverseString.sol\":423:434  temp.length */\n      mload\n        /* \"contracts/homework/ReverseString.sol\":409:434  uint256 len = temp.length */\n      swap1\n      pop\n        /* \"contracts/homework/ReverseString.sol\":454:463  uint256 i */\n      0x00\n        /* \"contracts/homework/ReverseString.sol\":464:465  0 */\n      0x00\n        /* \"contracts/homework/ReverseString.sol\":454:465  uint256 i=0 */\n      swap1\n      pop\n        /* \"contracts/homework/ReverseString.sol\":450:595  for(uint256 i=0;i < len / 2;i++){... */\n    tag_12:\n        /* \"contracts/homework/ReverseString.sol\":476:477  2 */\n      0x02\n        /* \"contracts/homework/ReverseString.sol\":470:473  len */\n      dup3\n        /* \"contracts/homework/ReverseString.sol\":470:477  len / 2 */\n      tag_15\n      swap2\n      swap1\n      tag_16\n      jump\t// in\n    tag_15:\n        /* \"contracts/homework/ReverseString.sol\":466:467  i */\n      dup2\n        /* \"contracts/homework/ReverseString.sol\":466:477  i < len / 2 */\n      lt\n        /* \"contracts/homework/ReverseString.sol\":450:595  for(uint256 i=0;i < len / 2;i++){... */\n      iszero\n      tag_13\n      jumpi\n        /* \"contracts/homework/ReverseString.sol\":496:507  bytes1 swap */\n      0x00\n        /* \"contracts/homework/ReverseString.sol\":510:514  temp */\n      dup4\n        /* \"contracts/homework/ReverseString.sol\":515:516  i */\n      dup3\n        /* \"contracts/homework/ReverseString.sol\":510:517  temp[i] */\n      dup2\n      mload\n      dup2\n      lt\n      tag_17\n      jumpi\n      tag_18\n      tag_19\n      jump\t// in\n    tag_18:\n    tag_17:\n      0x20\n      add\n      add\n      mload\n      0xf8\n      shr\n      0xf8\n      shl\n        /* \"contracts/homework/ReverseString.sol\":496:517  bytes1 swap = temp[i] */\n      swap1\n      pop\n        /* \"contracts/homework/ReverseString.sol\":539:543  temp */\n      dup4\n        /* \"contracts/homework/ReverseString.sol\":550:551  i */\n      dup3\n        /* \"contracts/homework/ReverseString.sol\":548:549  1 */\n      0x01\n        /* \"contracts/homework/ReverseString.sol\":544:547  len */\n      dup6\n        /* \"contracts/homework/ReverseString.sol\":544:549  len-1 */\n      tag_20\n      swap2\n      swap1\n      tag_21\n      jump\t// in\n    tag_20:\n        /* \"contracts/homework/ReverseString.sol\":544:551  len-1-i */\n      tag_22\n      swap2\n      swap1\n      tag_21\n      jump\t// in\n    tag_22:\n        /* \"contracts/homework/ReverseString.sol\":539:552  temp[len-1-i] */\n      dup2\n      mload\n      dup2\n      lt\n      tag_23\n      jumpi\n      tag_24\n      tag_19\n      jump\t// in\n    tag_24:\n    tag_23:\n      0x20\n      add\n      add\n      mload\n      0xf8\n      shr\n      0xf8\n      shl\n        /* \"contracts/homework/ReverseString.sol\":531:535  temp */\n      dup5\n        /* \"contracts/homework/ReverseString.sol\":536:537  i */\n      dup4\n        /* \"contracts/homework/ReverseString.sol\":531:538  temp[i] */\n      dup2\n      mload\n      dup2\n      lt\n      tag_25\n      jumpi\n      tag_26\n      tag_19\n      jump\t// in\n    tag_26:\n    tag_25:\n      0x20\n      add\n      add\n        /* \"contracts/homework/ReverseString.sol\":531:552  temp[i]=temp[len-1-i] */\n      swap1\n      not(0xffffffffffffffffffffffffffffffffffffffffffffffffffffffffffffff)\n      and\n      swap1\n      dup2\n      0x00\n      byte\n      swap1\n      mstore8\n      pop\n        /* \"contracts/homework/ReverseString.sol\":580:584  swap */\n      dup1\n        /* \"contracts/homework/ReverseString.sol\":566:570  temp */\n      dup5\n        /* \"contracts/homework/ReverseString.sol\":577:578  i */\n      dup4\n        /* \"contracts/homework/ReverseString.sol\":575:576  1 */\n      0x01\n        /* \"contracts/homework/ReverseString.sol\":571:574  len */\n      dup7\n        /* \"contracts/homework/ReverseString.sol\":571:576  len-1 */\n      tag_27\n      swap2\n      swap1\n      tag_21\n      jump\t// in\n    tag_27:\n        /* \"contracts/homework/ReverseString.sol\":571:578  len-1-i */\n      tag_28\n      swap2\n      swap1\n      tag_21\n      jump\t// in\n    tag_28:\n        /* \"contracts/homework/ReverseString.sol\":566:579  temp[len-1-i] */\n      dup2\n      mload\n      dup2\n      lt\n      tag_29\n      jumpi\n      tag_30\n      tag_19\n      jump\t// in\n    tag_30:\n    tag_29:\n      0x20\n      add\n      add\n        /* \"contracts/homework/ReverseString.sol\":566:584  temp[len-1-i]=swap */\n      swap1\n      not(0xffffffffffffffffffffffffffffffffffffffffffffffffffffffffffffff)\n      and\n      swap1\n      dup2\n      0x00\n      byte\n      swap1\n      mstore8\n      pop\n        /* \"contracts/homework/ReverseString.sol\":482:595  {... */\n      pop\n        /* \"contracts/homework/ReverseString.sol\":478:481  i++ */\n      dup1\n      dup1\n      0x01\n      add\n      swap2\n      pop\n      pop\n        /* \"contracts/homework/ReverseString.sol\":450:595  for(uint256 i=0;i < len / 2;i++){... */\n      jump(tag_12)\n    tag_13:\n      pop\n        /* \"contracts/homework/ReverseString.sol\":618:622  temp */\n      dup2\n        /* \"contracts/homework/ReverseString.sol\":604:623  return string(temp) */\n      swap3\n      pop\n      pop\n      pop\n        /* \"contracts/homework/ReverseString.sol\":204:630  function reverseString(string calldata input) public pure returns(string memory){... */\n    tag_10:\n      swap3\n      swap2\n      pop\n      pop\n      jump\t// out\n        /* \"#utility.yul\":88:205   */\n    tag_32:\n        /* \"#utility.yul\":197:198   */\n      0x00\n        /* \"#utility.yul\":194:195   */\n      0x00\n        /* \"#utility.yul\":187:199   */\n      revert\n        /* \"#utility.yul\":211:328   */\n    tag_33:\n        /* \"#utility.yul\":320:321   */\n      0x00\n        /* \"#utility.yul\":317:318   */\n      0x00\n        /* \"#utility.yul\":310:322   */\n      revert\n        /* \"#utility.yul\":334:451   */\n    tag_34:\n        /* \"#utility.yul\":443:444   */\n      0x00\n        /* \"#utility.yul\":440:441   */\n      0x00\n        /* \"#utility.yul\":433:445   */\n      revert\n        /* \"#utility.yul\":457:574   */\n    tag_35:\n        /* \"#utility.yul\":566:567   */\n      0x00\n        /* \"#utility.yul\":563:564   */\n      0x00\n        /* \"#utility.yul\":556:568   */\n      revert\n        /* \"#utility.yul\":580:697   */\n    tag_36:\n        /* \"#utility.yul\":689:690   */\n      0x00\n        /* \"#utility.yul\":686:687   */\n      0x00\n        /* \"#utility.yul\":679:691   */\n      revert\n        /* \"#utility.yul\":717:1270   */\n    tag_37:\n        /* \"#utility.yul\":775:783   */\n      0x00\n        /* \"#utility.yul\":785:791   */\n      0x00\n        /* \"#utility.yul\":835:838   */\n      dup4\n        /* \"#utility.yul\":828:832   */\n      0x1f\n        /* \"#utility.yul\":820:826   */\n      dup5\n        /* \"#utility.yul\":816:833   */\n      add\n        /* \"#utility.yul\":812:839   */\n      slt\n        /* \"#utility.yul\":802:924   */\n      tag_54\n      jumpi\n        /* \"#utility.yul\":843:922   */\n      tag_55\n      tag_34\n      jump\t// in\n    tag_55:\n        /* \"#utility.yul\":802:924   */\n    tag_54:\n        /* \"#utility.yul\":956:962   */\n      dup3\n        /* \"#utility.yul\":943:963   */\n      calldataload\n        /* \"#utility.yul\":933:963   */\n      swap1\n      pop\n        /* \"#utility.yul\":986:1004   */\n      0xffffffffffffffff\n        /* \"#utility.yul\":978:984   */\n      dup2\n        /* \"#utility.yul\":975:1005   */\n      gt\n        /* \"#utility.yul\":972:1089   */\n      iszero\n      tag_56\n      jumpi\n        /* \"#utility.yul\":1008:1087   */\n      tag_57\n      tag_35\n      jump\t// in\n    tag_57:\n        /* \"#utility.yul\":972:1089   */\n    tag_56:\n        /* \"#utility.yul\":1122:1126   */\n      0x20\n        /* \"#utility.yul\":1114:1120   */\n      dup4\n        /* \"#utility.yul\":1110:1127   */\n      add\n        /* \"#utility.yul\":1098:1127   */\n      swap2\n      pop\n        /* \"#utility.yul\":1176:1179   */\n      dup4\n        /* \"#utility.yul\":1168:1172   */\n      0x01\n        /* \"#utility.yul\":1160:1166   */\n      dup3\n        /* \"#utility.yul\":1156:1173   */\n      mul\n        /* \"#utility.yul\":1146:1154   */\n      dup4\n        /* \"#utility.yul\":1142:1174   */\n      add\n        /* \"#utility.yul\":1139:1180   */\n      gt\n        /* \"#utility.yul\":1136:1264   */\n      iszero\n      tag_58\n      jumpi\n        /* \"#utility.yul\":1183:1262   */\n      tag_59\n      tag_36\n      jump\t// in\n    tag_59:\n        /* \"#utility.yul\":1136:1264   */\n    tag_58:\n        /* \"#utility.yul\":717:1270   */\n      swap3\n      pop\n      swap3\n      swap1\n      pop\n      jump\t// out\n        /* \"#utility.yul\":1276:1805   */\n    tag_6:\n        /* \"#utility.yul\":1347:1353   */\n      0x00\n        /* \"#utility.yul\":1355:1361   */\n      0x00\n        /* \"#utility.yul\":1404:1406   */\n      0x20\n        /* \"#utility.yul\":1392:1401   */\n      dup4\n        /* \"#utility.yul\":1383:1390   */\n      dup6\n        /* \"#utility.yul\":1379:1402   */\n      sub\n        /* \"#utility.yul\":1375:1407   */\n      slt\n        /* \"#utility.yul\":1372:1491   */\n      iszero\n      tag_61\n      jumpi\n        /* \"#utility.yul\":1410:1489   */\n      tag_62\n      tag_32\n      jump\t// in\n    tag_62:\n        /* \"#utility.yul\":1372:1491   */\n    tag_61:\n        /* \"#utility.yul\":1558:1559   */\n      0x00\n        /* \"#utility.yul\":1547:1556   */\n      dup4\n        /* \"#utility.yul\":1543:1560   */\n      add\n        /* \"#utility.yul\":1530:1561   */\n      calldataload\n        /* \"#utility.yul\":1588:1606   */\n      0xffffffffffffffff\n        /* \"#utility.yul\":1580:1586   */\n      dup2\n        /* \"#utility.yul\":1577:1607   */\n      gt\n        /* \"#utility.yul\":1574:1691   */\n      iszero\n      tag_63\n      jumpi\n        /* \"#utility.yul\":1610:1689   */\n      tag_64\n      tag_33\n      jump\t// in\n    tag_64:\n        /* \"#utility.yul\":1574:1691   */\n    tag_63:\n        /* \"#utility.yul\":1723:1788   */\n      tag_65\n        /* \"#utility.yul\":1780:1787   */\n      dup6\n        /* \"#utility.yul\":1771:1777   */\n      dup3\n        /* \"#utility.yul\":1760:1769   */\n      dup7\n        /* \"#utility.yul\":1756:1778   */\n      add\n        /* \"#utility.yul\":1723:1788   */\n      tag_37\n      jump\t// in\n    tag_65:\n        /* \"#utility.yul\":1705:1788   */\n      swap3\n      pop\n      swap3\n      pop\n        /* \"#utility.yul\":1501:1798   */\n      pop\n        /* \"#utility.yul\":1276:1805   */\n      swap3\n      pop\n      swap3\n      swap1\n      pop\n      jump\t// out\n        /* \"#utility.yul\":1811:1910   */\n    tag_38:\n        /* \"#utility.yul\":1863:1869   */\n      0x00\n        /* \"#utility.yul\":1897:1902   */\n      dup2\n        /* \"#utility.yul\":1891:1903   */\n      mload\n        /* \"#utility.yul\":1881:1903   */\n      swap1\n      pop\n        /* \"#utility.yul\":1811:1910   */\n      swap2\n      swap1\n      pop\n      jump\t// out\n        /* \"#utility.yul\":1916:2085   */\n    tag_39:\n        /* \"#utility.yul\":2000:2011   */\n      0x00\n        /* \"#utility.yul\":2034:2040   */\n      dup3\n        /* \"#utility.yul\":2029:2032   */\n      dup3\n        /* \"#utility.yul\":2022:2041   */\n      mstore\n        /* \"#utility.yul\":2074:2078   */\n      0x20\n        /* \"#utility.yul\":2069:2072   */\n      dup3\n        /* \"#utility.yul\":2065:2079   */\n      add\n        /* \"#utility.yul\":2050:2079   */\n      swap1\n      pop\n        /* \"#utility.yul\":1916:2085   */\n      swap3\n      swap2\n      pop\n      pop\n      jump\t// out\n        /* \"#utility.yul\":2091:2230   */\n    tag_40:\n        /* \"#utility.yul\":2180:2186   */\n      dup3\n        /* \"#utility.yul\":2175:2178   */\n      dup2\n        /* \"#utility.yul\":2170:2173   */\n      dup4\n        /* \"#utility.yul\":2164:2187   */\n      mcopy\n        /* \"#utility.yul\":2221:2222   */\n      0x00\n        /* \"#utility.yul\":2212:2218   */\n      dup4\n        /* \"#utility.yul\":2207:2210   */\n      dup4\n        /* \"#utility.yul\":2203:2219   */\n      add\n        /* \"#utility.yul\":2196:2223   */\n      mstore\n        /* \"#utility.yul\":2091:2230   */\n      pop\n      pop\n      pop\n      jump\t// out\n        /* \"#utility.yul\":2236:2338   */\n    tag_41:\n        /* \"#utility.yul\":2277:2283   */\n      0x00\n        /* \"#utility.yul\":2328:2330   */\n      0x1f\n        /* \"#utility.yul\":2324:2331   */\n      not\n        /* \"#utility.yul\":2319:2321   */\n      0x1f\n        /* \"#utility.yul\":2312:2317   */\n      dup4\n        /* \"#utility.yul\":2308:2322   */\n      add\n        /* \"#utility.yul\":2304:2332   */\n      and\n        /* \"#utility.yul\":2294:2332   */\n      swap1\n      pop\n        /* \"#utility.yul\":2236:2338   */\n      swap2\n      swap1\n      pop\n      jump\t// out\n        /* \"#utility.yul\":2344:2721   */\n    tag_42:\n        /* \"#utility.yul\":2432:2435   */\n      0x00\n        /* \"#utility.yul\":2460:2499   */\n      tag_71\n        /* \"#utility.yul\":2493:2498   */\n      dup3\n        /* \"#utility.yul\":2460:2499   */\n      tag_38\n      jump\t// in\n    tag_71:\n        /* \"#utility.yul\":2515:2586   */\n      tag_72\n        /* \"#utility.yul\":2579:2585   */\n      dup2\n        /* \"#utility.yul\":2574:2577   */\n      dup6\n        /* \"#utility.yul\":2515:2586   */\n      tag_39\n      jump\t// in\n    tag_72:\n        /* \"#utility.yul\":2508:2586   */\n      swap4\n      pop\n        /* \"#utility.yul\":2595:2660   */\n      tag_73\n        /* \"#utility.yul\":2653:2659   */\n      dup2\n        /* \"#utility.yul\":2648:2651   */\n      dup6\n        /* \"#utility.yul\":2641:2645   */\n      0x20\n        /* \"#utility.yul\":2634:2639   */\n      dup7\n        /* \"#utility.yul\":2630:2646   */\n      add\n        /* \"#utility.yul\":2595:2660   */\n      tag_40\n      jump\t// in\n    tag_73:\n        /* \"#utility.yul\":2685:2714   */\n      tag_74\n        /* \"#utility.yul\":2707:2713   */\n      dup2\n        /* \"#utility.yul\":2685:2714   */\n      tag_41\n      jump\t// in\n    tag_74:\n        /* \"#utility.yul\":2680:2683   */\n      dup5\n        /* \"#utility.yul\":2676:2715   */\n      add\n        /* \"#utility.yul\":2669:2715   */\n      swap2\n      pop\n        /* \"#utility.yul\":2436:2721   */\n      pop\n        /* \"#utility.yul\":2344:2721   */\n      swap3\n      swap2\n      pop\n      pop\n      jump\t// out\n        /* \"#utility.yul\":2727:3040   */\n    tag_9:\n        /* \"#utility.yul\":2840:2844   */\n      0x00\n        /* \"#utility.yul\":2878:2880   */\n      0x20\n        /* \"#utility.yul\":2867:2876   */\n      dup3\n        /* \"#utility.yul\":2863:2881   */\n      add\n        /* \"#utility.yul\":2855:2881   */\n      swap1\n      pop\n        /* \"#utility.yul\":2927:2936   */\n      dup2\n        /* \"#utility.yul\":2921:2925   */\n      dup2\n        /* \"#utility.yul\":2917:2937   */\n      sub\n        /* \"#utility.yul\":2913:2914   */\n      0x00\n        /* \"#utility.yul\":2902:2911   */\n      dup4\n        /* \"#utility.yul\":2898:2915   */\n      add\n        /* \"#utility.yul\":2891:2938   */\n      mstore\n        /* \"#utility.yul\":2955:3033   */\n      tag_76\n        /* \"#utility.yul\":3028:3032   */\n      dup2\n        /* \"#utility.yul\":3019:3025   */\n      dup5\n        /* \"#utility.yul\":2955:3033   */\n      tag_42\n      jump\t// in\n    tag_76:\n        /* \"#utility.yul\":2947:3033   */\n      swap1\n      pop\n        /* \"#utility.yul\":2727:3040   */\n      swap3\n      swap2\n      pop\n      pop\n      jump\t// out\n        /* \"#utility.yul\":3046:3123   */\n    tag_43:\n        /* \"#utility.yul\":3083:3090   */\n      0x00\n        /* \"#utility.yul\":3112:3117   */\n      dup2\n        /* \"#utility.yul\":3101:3117   */\n      swap1\n      pop\n        /* \"#utility.yul\":3046:3123   */\n      swap2\n      swap1\n      pop\n      jump\t// out\n        /* \"#utility.yul\":3129:3309   */\n    tag_44:\n        /* \"#utility.yul\":3177:3254   */\n      0x4e487b7100000000000000000000000000000000000000000000000000000000\n        /* \"#utility.yul\":3174:3175   */\n      0x00\n        /* \"#utility.yul\":3167:3255   */\n      mstore\n        /* \"#utility.yul\":3274:3278   */\n      0x12\n        /* \"#utility.yul\":3271:3272   */\n      0x04\n        /* \"#utility.yul\":3264:3279   */\n      mstore\n        /* \"#utility.yul\":3298:3302   */\n      0x24\n        /* \"#utility.yul\":3295:3296   */\n      0x00\n        /* \"#utility.yul\":3288:3303   */\n      revert\n        /* \"#utility.yul\":3315:3495   */\n    tag_45:\n        /* \"#utility.yul\":3363:3440   */\n      0x4e487b7100000000000000000000000000000000000000000000000000000000\n        /* \"#utility.yul\":3360:3361   */\n      0x00\n        /* \"#utility.yul\":3353:3441   */\n      mstore\n        /* \"#utility.yul\":3460:3464   */\n      0x11\n        /* \"#utility.yul\":3457:3458   */\n      0x04\n        /* \"#utility.yul\":3450:3465   */\n      mstore\n        /* \"#utility.yul\":3484:3488   */\n      0x24\n        /* \"#utility.yul\":3481:3482   */\n      0x00\n        /* \"#utility.yul\":3474:3489   */\n      revert\n        /* \"#utility.yul\":3501:3686   */\n    tag_16:\n        /* \"#utility.yul\":3541:3542   */\n      0x00\n        /* \"#utility.yul\":3558:3578   */\n      tag_81\n        /* \"#utility.yul\":3576:3577   */\n      dup3\n        /* \"#utility.yul\":3558:3578   */\n      tag_43\n      jump\t// in\n    tag_81:\n        /* \"#utility.yul\":3553:3578   */\n      swap2\n      pop\n        /* \"#utility.yul\":3592:3612   */\n      tag_82\n        /* \"#utility.yul\":3610:3611   */\n      dup4\n        /* \"#utility.yul\":3592:3612   */\n      tag_43\n      jump\t// in\n    tag_82:\n        /* \"#utility.yul\":3587:3612   */\n      swap3\n      pop\n        /* \"#utility.yul\":3631:3632   */\n      dup3\n        /* \"#utility.yul\":3621:3656   */\n      tag_83\n      jumpi\n        /* \"#utility.yul\":3636:3654   */\n      tag_84\n      tag_44\n      jump\t// in\n    tag_84:\n        /* \"#utility.yul\":3621:3656   */\n    tag_83:\n        /* \"#utility.yul\":3678:3679   */\n      dup3\n        /* \"#utility.yul\":3675:3676   */\n      dup3\n        /* \"#utility.yul\":3671:3680   */\n      div\n        /* \"#utility.yul\":3666:3680   */\n      swap1\n      pop\n        /* \"#utility.yul\":3501:3686   */\n      swap3\n      swap2\n      pop\n      pop\n      jump\t// out\n        /* \"#utility.yul\":3692:3872   */\n    tag_19:\n        /* \"#utility.yul\":3740:3817   */\n      0x4e487b7100000000000000000000000000000000000000000000000000000000\n        /* \"#utility.yul\":3737:3738   */\n      0x00\n        /* \"#utility.yul\":3730:3818   */\n      mstore\n        /* \"#utility.yul\":3837:3841   */\n      0x32\n        /* \"#utility.yul\":3834:3835   */\n      0x04\n        /* \"#utility.yul\":3827:3842   */\n      mstore\n        /* \"#utility.yul\":3861:3865   */\n      0x24\n        /* \"#utility.yul\":3858:3859   */\n      0x00\n        /* \"#utility.yul\":3851:3866   */\n      revert\n        /* \"#utility.yul\":3878:4072   */\n    tag_21:\n        /* \"#utility.yul\":3918:3922   */\n      0x00\n        /* \"#utility.yul\":3938:3958   */\n      tag_87\n        /* \"#utility.yul\":3956:3957   */\n      dup3\n        /* \"#utility.yul\":3938:3958   */\n      tag_43\n      jump\t// in\n    tag_87:\n        /* \"#utility.yul\":3933:3958   */\n      swap2\n      pop\n        /* \"#utility.yul\":3972:3992   */\n      tag_88\n        /* \"#utility.yul\":3990:3991   */\n      dup4\n        /* \"#utility.yul\":3972:3992   */\n      tag_43\n      jump\t// in\n    tag_88:\n        /* \"#utility.yul\":3967:3992   */\n      swap3\n      pop\n        /* \"#utility.yul\":4016:4017   */\n      dup3\n        /* \"#utility.yul\":4013:4014   */\n      dup3\n        /* \"#utility.yul\":4009:4018   */\n      sub\n        /* \"#utility.yul\":4001:4018   */\n      swap1\n      pop\n        /* \"#utility.yul\":4040:4041   */\n      dup2\n        /* \"#utility.yul\":4034:4038   */\n      dup2\n        /* \"#utility.yul\":4031:4042   */\n      gt\n        /* \"#utility.yul\":4028:4065   */\n      iszero\n      tag_89\n      jumpi\n        /* \"#utility.yul\":4045:4063   */\n      tag_90\n      tag_45\n      jump\t// in\n    tag_90:\n        /* \"#utility.yul\":4028:4065   */\n    tag_89:\n        /* \"#utility.yul\":3878:4072   */\n      swap3\n      swap2\n      pop\n      pop\n      jump\t// out\n\n    auxdata: 0xa2646970667358221220c8186754748057e595717625b666ba157d42b77dd92d23bec83fd14cba1a1cb564736f6c634300081f0033\n}\n",
				"bytecode": {
					"linkReferences": {},
					"object": "6080604052348015600e575f5ffd5b5061045c8061001c5f395ff3fe608060405234801561000f575f5ffd5b5060043610610029575f3560e01c80635729c2111461002d575b5f5ffd5b61004760048036038101906100429190610258565b61005d565b6040516100549190610313565b60405180910390f35b60605f838390500361007f5760405180602001604052805f81525090506101e9565b5f83838080601f0160208091040260200160405190810160405280939291908181526020018383808284375f81840152601f19601f8201169050808301925050505050505090505f815190505f5f90505b6002826100dd9190610396565b8110156101e2575f8382815181106100f8576100f76103c6565b5b602001015160f81c60f81b9050838260018561011491906103f3565b61011e91906103f3565b8151811061012f5761012e6103c6565b5b602001015160f81c60f81b84838151811061014d5761014c6103c6565b5b60200101907effffffffffffffffffffffffffffffffffffffffffffffffffffffffffffff191690815f1a90535080848360018661018b91906103f3565b61019591906103f3565b815181106101a6576101a56103c6565b5b60200101907effffffffffffffffffffffffffffffffffffffffffffffffffffffffffffff191690815f1a9053505080806001019150506100d0565b5081925050505b92915050565b5f5ffd5b5f5ffd5b5f5ffd5b5f5ffd5b5f5ffd5b5f5f83601f840112610218576102176101f7565b5b8235905067ffffffffffffffff811115610235576102346101fb565b5b602083019150836001820283011115610251576102506101ff565b5b9250929050565b5f5f6020838503121561026e5761026d6101ef565b5b5f83013567ffffffffffffffff81111561028b5761028a6101f3565b5b61029785828601610203565b92509250509250929050565b5f81519050919050565b5f82825260208201905092915050565b8281835e5f83830152505050565b5f601f19601f8301169050919050565b5f6102e5826102a3565b6102ef81856102ad565b93506102ff8185602086016102bd565b610308816102cb565b840191505092915050565b5f6020820190508181035f83015261032b81846102db565b905092915050565b5f819050919050565b7f4e487b71000000000000000000000000000000000000000000000000000000005f52601260045260245ffd5b7f4e487b71000000000000000000000000000000000000000000000000000000005f52601160045260245ffd5b5f6103a082610333565b91506103ab83610333565b9250826103bb576103ba61033c565b5b828204905092915050565b7f4e487b71000000000000000000000000000000000000000000000000000000005f52603260045260245ffd5b5f6103fd82610333565b915061040883610333565b92508282039050818111156104205761041f610369565b5b9291505056fea2646970667358221220c8186754748057e595717625b666ba157d42b77dd92d23bec83fd14cba1a1cb564736f6c634300081f0033",
					"opcodes": "PUSH1 0x80 PUSH1 0x40 MSTORE CALLVALUE DUP1 ISZERO PUSH1 0xE JUMPI PUSH0 PUSH0 REVERT JUMPDEST POP PUSH2 0x45C DUP1 PUSH2 0x1C PUSH0 CODECOPY PUSH0 RETURN INVALID PUSH1 0x80 PUSH1 0x40 MSTORE CALLVALUE DUP1 ISZERO PUSH2 0xF JUMPI PUSH0 PUSH0 REVERT JUMPDEST POP PUSH1 0x4 CALLDATASIZE LT PUSH2 0x29 JUMPI PUSH0 CALLDATALOAD PUSH1 0xE0 SHR DUP1 PUSH4 0x5729C211 EQ PUSH2 0x2D JUMPI JUMPDEST PUSH0 PUSH0 REVERT JUMPDEST PUSH2 0x47 PUSH1 0x4 DUP1 CALLDATASIZE SUB DUP2 ADD SWAP1 PUSH2 0x42 SWAP2 SWAP1 PUSH2 0x258 JUMP JUMPDEST PUSH2 0x5D JUMP JUMPDEST PUSH1 0x40 MLOAD PUSH2 0x54 SWAP2 SWAP1 PUSH2 0x313 JUMP JUMPDEST PUSH1 0x40 MLOAD DUP1 SWAP2 SUB SWAP1 RETURN JUMPDEST PUSH1 0x60 PUSH0 DUP4 DUP4 SWAP1 POP SUB PUSH2 0x7F JUMPI PUSH1 0x40 MLOAD DUP1 PUSH1 0x20 ADD PUSH1 0x40 MSTORE DUP1 PUSH0 DUP2 MSTORE POP SWAP1 POP PUSH2 0x1E9 JUMP JUMPDEST PUSH0 DUP4 DUP4 DUP1 DUP1 PUSH1 0x1F ADD PUSH1 0x20 DUP1 SWAP2 DIV MUL PUSH1 0x20 ADD PUSH1 0x40 MLOAD SWAP1 DUP2 ADD PUSH1 0x40 MSTORE DUP1 SWAP4 SWAP3 SWAP2 SWAP1 DUP2 DUP2 MSTORE PUSH1 0x20 ADD DUP4 DUP4 DUP1 DUP3 DUP5 CALLDATACOPY PUSH0 DUP2 DUP5 ADD MSTORE PUSH1 0x1F NOT PUSH1 0x1F DUP3 ADD AND SWAP1 POP DUP1 DUP4 ADD SWAP3 POP POP POP POP POP POP POP SWAP1 POP PUSH0 DUP2 MLOAD SWAP1 POP PUSH0 PUSH0 SWAP1 POP JUMPDEST PUSH1 0x2 DUP3 PUSH2 0xDD SWAP2 SWAP1 PUSH2 0x396 JUMP JUMPDEST DUP2 LT ISZERO PUSH2 0x1E2 JUMPI PUSH0 DUP4 DUP3 DUP2 MLOAD DUP2 LT PUSH2 0xF8 JUMPI PUSH2 0xF7 PUSH2 0x3C6 JUMP JUMPDEST JUMPDEST PUSH1 0x20 ADD ADD MLOAD PUSH1 0xF8 SHR PUSH1 0xF8 SHL SWAP1 POP DUP4 DUP3 PUSH1 0x1 DUP6 PUSH2 0x114 SWAP2 SWAP1 PUSH2 0x3F3 JUMP JUMPDEST PUSH2 0x11E SWAP2 SWAP1 PUSH2 0x3F3 JUMP JUMPDEST DUP2 MLOAD DUP2 LT PUSH2 0x12F JUMPI PUSH2 0x12E PUSH2 0x3C6 JUMP JUMPDEST JUMPDEST PUSH1 0x20 ADD ADD MLOAD PUSH1 0xF8 SHR PUSH1 0xF8 SHL DUP5 DUP4 DUP2 MLOAD DUP2 LT PUSH2 0x14D JUMPI PUSH2 0x14C PUSH2 0x3C6 JUMP JUMPDEST JUMPDEST PUSH1 0x20 ADD ADD SWAP1 PUSH31 0xFFFFFFFFFFFFFFFFFFFFFFFFFFFFFFFFFFFFFFFFFFFFFFFFFFFFFFFFFFFFFF NOT AND SWAP1 DUP2 PUSH0 BYTE SWAP1 MSTORE8 POP DUP1 DUP5 DUP4 PUSH1 0x1 DUP7 PUSH2 0x18B SWAP2 SWAP1 PUSH2 0x3F3 JUMP JUMPDEST PUSH2 0x195 SWAP2 SWAP1 PUSH2 0x3F3 JUMP JUMPDEST DUP2 MLOAD DUP2 LT PUSH2 0x1A6 JUMPI PUSH2 0x1A5 PUSH2 0x3C6 JUMP JUMPDEST JUMPDEST PUSH1 0x20 ADD ADD SWAP1 PUSH31 0xFFFFFFFFFFFFFFFFFFFFFFFFFFFFFFFFFFFFFFFFFFFFFFFFFFFFFFFFFFFFFF NOT AND SWAP1 DUP2 PUSH0 BYTE SWAP1 MSTORE8 POP POP DUP1 DUP1 PUSH1 0x1 ADD SWAP2 POP POP PUSH2 0xD0 JUMP JUMPDEST POP DUP2 SWAP3 POP POP POP JUMPDEST SWAP3 SWAP2 POP POP JUMP JUMPDEST PUSH0 PUSH0 REVERT JUMPDEST PUSH0 PUSH0 REVERT JUMPDEST PUSH0 PUSH0 REVERT JUMPDEST PUSH0 PUSH0 REVERT JUMPDEST PUSH0 PUSH0 REVERT JUMPDEST PUSH0 PUSH0 DUP4 PUSH1 0x1F DUP5 ADD SLT PUSH2 0x218 JUMPI PUSH2 0x217 PUSH2 0x1F7 JUMP JUMPDEST JUMPDEST DUP3 CALLDATALOAD SWAP1 POP PUSH8 0xFFFFFFFFFFFFFFFF DUP2 GT ISZERO PUSH2 0x235 JUMPI PUSH2 0x234 PUSH2 0x1FB JUMP JUMPDEST JUMPDEST PUSH1 0x20 DUP4 ADD SWAP2 POP DUP4 PUSH1 0x1 DUP3 MUL DUP4 ADD GT ISZERO PUSH2 0x251 JUMPI PUSH2 0x250 PUSH2 0x1FF JUMP JUMPDEST JUMPDEST SWAP3 POP SWAP3 SWAP1 POP JUMP JUMPDEST PUSH0 PUSH0 PUSH1 0x20 DUP4 DUP6 SUB SLT ISZERO PUSH2 0x26E JUMPI PUSH2 0x26D PUSH2 0x1EF JUMP JUMPDEST JUMPDEST PUSH0 DUP4 ADD CALLDATALOAD PUSH8 0xFFFFFFFFFFFFFFFF DUP2 GT ISZERO PUSH2 0x28B JUMPI PUSH2 0x28A PUSH2 0x1F3 JUMP JUMPDEST JUMPDEST PUSH2 0x297 DUP6 DUP3 DUP7 ADD PUSH2 0x203 JUMP JUMPDEST SWAP3 POP SWAP3 POP POP SWAP3 POP SWAP3 SWAP1 POP JUMP JUMPDEST PUSH0 DUP2 MLOAD SWAP1 POP SWAP2 SWAP1 POP JUMP JUMPDEST PUSH0 DUP3 DUP3 MSTORE PUSH1 0x20 DUP3 ADD SWAP1 POP SWAP3 SWAP2 POP POP JUMP JUMPDEST DUP3 DUP2 DUP4 MCOPY PUSH0 DUP4 DUP4 ADD MSTORE POP POP POP JUMP JUMPDEST PUSH0 PUSH1 0x1F NOT PUSH1 0x1F DUP4 ADD AND SWAP1 POP SWAP2 SWAP1 POP JUMP JUMPDEST PUSH0 PUSH2 0x2E5 DUP3 PUSH2 0x2A3 JUMP JUMPDEST PUSH2 0x2EF DUP2 DUP6 PUSH2 0x2AD JUMP JUMPDEST SWAP4 POP PUSH2 0x2FF DUP2 DUP6 PUSH1 0x20 DUP7 ADD PUSH2 0x2BD JUMP JUMPDEST PUSH2 0x308 DUP2 PUSH2 0x2CB JUMP JUMPDEST DUP5 ADD SWAP2 POP POP SWAP3 SWAP2 POP POP JUMP JUMPDEST PUSH0 PUSH1 0x20 DUP3 ADD SWAP1 POP DUP2 DUP2 SUB PUSH0 DUP4 ADD MSTORE PUSH2 0x32B DUP2 DUP5 PUSH2 0x2DB JUMP JUMPDEST SWAP1 POP SWAP3 SWAP2 POP POP JUMP JUMPDEST PUSH0 DUP2 SWAP1 POP SWAP2 SWAP1 POP JUMP JUMPDEST PUSH32 0x4E487B7100000000000000000000000000000000000000000000000000000000 PUSH0 MSTORE PUSH1 0x12 PUSH1 0x4 MSTORE PUSH1 0x24 PUSH0 REVERT JUMPDEST PUSH32 0x4E487B7100000000000000000000000000000000000000000000000000000000 PUSH0 MSTORE PUSH1 0x11 PUSH1 0x4 MSTORE PUSH1 0x24 PUSH0 REVERT JUMPDEST PUSH0 PUSH2 0x3A0 DUP3 PUSH2 0x333 JUMP JUMPDEST SWAP2 POP PUSH2 0x3AB DUP4 PUSH2 0x333 JUMP JUMPDEST SWAP3 POP DUP3 PUSH2 0x3BB JUMPI PUSH2 0x3BA PUSH2 0x33C JUMP JUMPDEST JUMPDEST DUP3 DUP3 DIV SWAP1 POP SWAP3 SWAP2 POP POP JUMP JUMPDEST PUSH32 0x4E487B7100000000000000000000000000000000000000000000000000000000 PUSH0 MSTORE PUSH1 0x32 PUSH1 0x4 MSTORE PUSH1 0x24 PUSH0 REVERT JUMPDEST PUSH0 PUSH2 0x3FD DUP3 PUSH2 0x333 JUMP JUMPDEST SWAP2 POP PUSH2 0x408 DUP4 PUSH2 0x333 JUMP JUMPDEST SWAP3 POP DUP3 DUP3 SUB SWAP1 POP DUP2 DUP2 GT ISZERO PUSH2 0x420 JUMPI PUSH2 0x41F PUSH2 0x369 JUMP JUMPDEST JUMPDEST SWAP3 SWAP2 POP POP JUMP INVALID LOG2 PUSH5 0x6970667358 0x22 SLT KECCAK256 0xC8 XOR PUSH8 0x54748057E5957176 0x25 0xB6 PUSH7 0xBA157D42B77DD9 0x2D 0x23 0xBE 0xC8 EXTCODEHASH DATALOADN 0x4CBA BYTE SHR 0xB5 PUSH5 0x736F6C6343 STOP ADDMOD 0x1F STOP CALLER "
				},
				"gasEstimates": {
					"creation": {
						"codeDepositCost": "223200",
						"executionCost": "261",
						"totalCost": "223461"
					},
					"external": {
						"reverseString(string)": "infinite"
					}
				},
				"methodIdentifiers": {
					"reverseString(string)": "5729c211"
				}
			},
			"storageLayout": {
				"storage": [],
				"types": null
			},
			"userdoc": {
				"kind": "user",
				"methods": {},
				"version": 1
			}
		}
	}
}