{
	"contracts/task01/intToRoman.sol": {
		"intToRoman": {
			"abi": [
				{
					"inputs": [
						{
							"internalType": "uint256",
							"name": "num",
							"type": "uint256"
						}
					],
					"name": "intToRoman1",
					"outputs": [
						{
							"internalType": "string",
							"name": "",
							"type": "string"
						}
					],
					"stateMutability": "pure",
					"type": "function"
				}
			],
			"devdoc": {
				"kind": "dev",
				"methods": {},
				"version": 1
			},
			"evm": {
				"assembly": "    /* \"contracts/task01/intToRoman.sol\":1635:5258  contract intToRoman{... */\n  mstore(0x40, 0x80)\n  callvalue\n  dup1\n  iszero\n  tag_1\n  jumpi\n  revert(0x00, 0x00)\ntag_1:\n  pop\n  dataSize(sub_0)\n  dup1\n  dataOffset(sub_0)\n  0x00\n  codecopy\n  0x00\n  return\nstop\n\nsub_0: assembly {\n        /* \"contracts/task01/intToRoman.sol\":1635:5258  contract intToRoman{... */\n      mstore(0x40, 0x80)\n      callvalue\n      dup1\n      iszero\n      tag_1\n      jumpi\n      revert(0x00, 0x00)\n    tag_1:\n      pop\n      jumpi(tag_2, lt(calldatasize, 0x04))\n      shr(0xe0, calldataload(0x00))\n      dup1\n      0x3afa5f11\n      eq\n      tag_3\n      jumpi\n    tag_2:\n      revert(0x00, 0x00)\n        /* \"contracts/task01/intToRoman.sol\":3124:5254  function intToRoman1(uint256 num)public pure returns(string memory){... */\n    tag_3:\n      tag_4\n      tag_5\n      calldatasize\n      0x04\n      tag_6\n      jump\t// in\n    tag_5:\n      tag_7\n      jump\t// in\n    tag_4:\n      mload(0x40)\n      tag_8\n      swap2\n      swap1\n      tag_9\n      jump\t// in\n    tag_8:\n      mload(0x40)\n      dup1\n      swap2\n      sub\n      swap1\n      return\n    tag_7:\n        /* \"contracts/task01/intToRoman.sol\":3177:3190  string memory */\n      0x60\n        /* \"contracts/task01/intToRoman.sol\":3204:3207  num */\n      dup2\n        /* \"contracts/task01/intToRoman.sol\":3211:3212  0 */\n      0x00\n        /* \"contracts/task01/intToRoman.sol\":3204:3212  num == 0 */\n      sub\n        /* \"contracts/task01/intToRoman.sol\":3201:3222  if(num == 0)return \"\" */\n      tag_11\n      jumpi\n      pop\n      pop\n        /* \"contracts/task01/intToRoman.sol\":3213:3222  return \"\" */\n      0x40\n      dup1\n      mload\n      0x20\n      dup2\n      add\n      swap1\n      swap2\n      mstore\n      0x00\n      dup2\n      mstore\n      swap1\n        /* \"contracts/task01/intToRoman.sol\":3124:5254  function intToRoman1(uint256 num)public pure returns(string memory){... */\n      jump\t// out\n        /* \"contracts/task01/intToRoman.sol\":3201:3222  if(num == 0)return \"\" */\n    tag_11:\n        /* \"contracts/task01/intToRoman.sol\":3239:3243  3999 */\n      0x0f9f\n        /* \"contracts/task01/intToRoman.sol\":3235:3238  num */\n      dup3\n        /* \"contracts/task01/intToRoman.sol\":3235:3243  num>3999 */\n      gt\n        /* \"contracts/task01/intToRoman.sol\":3232:3265  if(num>3999)return \"Exceeds 3999\" */\n      iszero\n      tag_12\n      jumpi\n      pop\n      pop\n        /* \"contracts/task01/intToRoman.sol\":3244:3265  return \"Exceeds 3999\" */\n      0x40\n      dup1\n      mload\n      dup1\n      dup3\n      add\n      swap1\n      swap2\n      mstore\n      0x0c\n      dup2\n      mstore\n      shl(0xa0, 0x457863656564732033393939)\n      0x20\n      dup3\n      add\n      mstore\n      swap1\n        /* \"contracts/task01/intToRoman.sol\":3124:5254  function intToRoman1(uint256 num)public pure returns(string memory){... */\n      jump\t// out\n        /* \"contracts/task01/intToRoman.sol\":3232:3265  if(num>3999)return \"Exceeds 3999\" */\n    tag_12:\n        /* \"contracts/task01/intToRoman.sol\":3300:3313  new bytes(15) */\n      0x40\n      dup1\n      mload\n        /* \"contracts/task01/intToRoman.sol\":3310:3312  15 */\n      0x0f\n        /* \"contracts/task01/intToRoman.sol\":3300:3313  new bytes(15) */\n      dup1\n      dup3\n      mstore\n      dup2\n      dup4\n      add\n      swap1\n      swap3\n      mstore\n        /* \"contracts/task01/intToRoman.sol\":3275:3299  bytes memory resultBytes */\n      0x00\n      swap2\n        /* \"contracts/task01/intToRoman.sol\":3300:3313  new bytes(15) */\n      0x20\n      dup3\n      add\n      dup2\n      dup1\n      calldatasize\n      dup4\n      calldatacopy\n      add\n      swap1\n      pop\n      pop\n        /* \"contracts/task01/intToRoman.sol\":3275:3313  bytes memory resultBytes=new bytes(15) */\n      swap1\n      pop\n        /* \"contracts/task01/intToRoman.sol\":3323:3342  uint256 resultIndex */\n      0x00\n        /* \"contracts/task01/intToRoman.sol\":3372:3375  num */\n      dup4\n        /* \"contracts/task01/intToRoman.sol\":3323:3342  uint256 resultIndex */\n      dup2\n        /* \"contracts/task01/intToRoman.sol\":3385:5045  for (uint256 i=0;i<13 && remaining>0;i++){... */\n    tag_17:\n        /* \"contracts/task01/intToRoman.sol\":3404:3406  13 */\n      0x0d\n        /* \"contracts/task01/intToRoman.sol\":3402:3403  i */\n      dup2\n        /* \"contracts/task01/intToRoman.sol\":3402:3406  i<13 */\n      lt\n        /* \"contracts/task01/intToRoman.sol\":3402:3421  i<13 && remaining>0 */\n      dup1\n      iszero\n      tag_20\n      jumpi\n      pop\n        /* \"contracts/task01/intToRoman.sol\":3420:3421  0 */\n      0x00\n        /* \"contracts/task01/intToRoman.sol\":3410:3419  remaining */\n      dup3\n        /* \"contracts/task01/intToRoman.sol\":3410:3421  remaining>0 */\n      gt\n        /* \"contracts/task01/intToRoman.sol\":3402:3421  i<13 && remaining>0 */\n    tag_20:\n        /* \"contracts/task01/intToRoman.sol\":3385:5045  for (uint256 i=0;i<13 && remaining>0;i++){... */\n      iszero\n      tag_18\n      jumpi\n        /* \"contracts/task01/intToRoman.sol\":3440:3453  uint256 value */\n      0x00\n        /* \"contracts/task01/intToRoman.sol\":3467:3486  bytes memory symbol */\n      0x60\n        /* \"contracts/task01/intToRoman.sol\":3503:3504  i */\n      dup3\n        /* \"contracts/task01/intToRoman.sol\":3506:3507  0 */\n      0x00\n        /* \"contracts/task01/intToRoman.sol\":3503:3507  i==0 */\n      sub\n        /* \"contracts/task01/intToRoman.sol\":3500:4679  if(i==0){... */\n      tag_21\n      jumpi\n      pop\n      pop\n        /* \"contracts/task01/intToRoman.sol\":3554:3564  symbol=\"M\" */\n      0x40\n      dup1\n      mload\n      dup1\n      dup3\n      add\n      swap1\n      swap2\n      mstore\n      0x01\n      dup2\n      mstore\n      shl(0xf8, 0x4d)\n      0x20\n      dup3\n      add\n      mstore\n        /* \"contracts/task01/intToRoman.sol\":3532:3536  1000 */\n      0x03e8\n      swap1\n        /* \"contracts/task01/intToRoman.sol\":3500:4679  if(i==0){... */\n      jump(tag_45)\n    tag_21:\n        /* \"contracts/task01/intToRoman.sol\":3588:3589  i */\n      dup3\n        /* \"contracts/task01/intToRoman.sol\":3593:3594  1 */\n      0x01\n        /* \"contracts/task01/intToRoman.sol\":3588:3594  i == 1 */\n      sub\n        /* \"contracts/task01/intToRoman.sol\":3584:4679  if (i == 1) {... */\n      tag_23\n      jumpi\n      pop\n      pop\n        /* \"contracts/task01/intToRoman.sol\":3643:3656  symbol = \"CM\" */\n      0x40\n      dup1\n      mload\n      dup1\n      dup3\n      add\n      swap1\n      swap2\n      mstore\n      0x02\n      dup2\n      mstore\n      shl(0xf0, 0x434d)\n      0x20\n      dup3\n      add\n      mstore\n        /* \"contracts/task01/intToRoman.sol\":3622:3625  900 */\n      0x0384\n      swap1\n        /* \"contracts/task01/intToRoman.sol\":3584:4679  if (i == 1) {... */\n      jump(tag_45)\n    tag_23:\n        /* \"contracts/task01/intToRoman.sol\":3681:3682  i */\n      dup3\n        /* \"contracts/task01/intToRoman.sol\":3686:3687  2 */\n      0x02\n        /* \"contracts/task01/intToRoman.sol\":3681:3687  i == 2 */\n      sub\n        /* \"contracts/task01/intToRoman.sol\":3677:4679  if (i == 2) {... */\n      tag_25\n      jumpi\n      pop\n      pop\n        /* \"contracts/task01/intToRoman.sol\":3736:3748  symbol = \"D\" */\n      0x40\n      dup1\n      mload\n      dup1\n      dup3\n      add\n      swap1\n      swap2\n      mstore\n      0x01\n      dup2\n      mstore\n      shl(0xfa, 0x11)\n      0x20\n      dup3\n      add\n      mstore\n        /* \"contracts/task01/intToRoman.sol\":3715:3718  500 */\n      0x01f4\n      swap1\n        /* \"contracts/task01/intToRoman.sol\":3677:4679  if (i == 2) {... */\n      jump(tag_45)\n    tag_25:\n        /* \"contracts/task01/intToRoman.sol\":3773:3774  i */\n      dup3\n        /* \"contracts/task01/intToRoman.sol\":3778:3779  3 */\n      0x03\n        /* \"contracts/task01/intToRoman.sol\":3773:3779  i == 3 */\n      sub\n        /* \"contracts/task01/intToRoman.sol\":3769:4679  if (i == 3) {... */\n      tag_27\n      jumpi\n      pop\n      pop\n        /* \"contracts/task01/intToRoman.sol\":3828:3841  symbol = \"CD\" */\n      0x40\n      dup1\n      mload\n      dup1\n      dup3\n      add\n      swap1\n      swap2\n      mstore\n      0x02\n      dup2\n      mstore\n      shl(0xf2, 0x10d1)\n      0x20\n      dup3\n      add\n      mstore\n        /* \"contracts/task01/intToRoman.sol\":3807:3810  400 */\n      0x0190\n      swap1\n        /* \"contracts/task01/intToRoman.sol\":3769:4679  if (i == 3) {... */\n      jump(tag_45)\n    tag_27:\n        /* \"contracts/task01/intToRoman.sol\":3866:3867  i */\n      dup3\n        /* \"contracts/task01/intToRoman.sol\":3871:3872  4 */\n      0x04\n        /* \"contracts/task01/intToRoman.sol\":3866:3872  i == 4 */\n      sub\n        /* \"contracts/task01/intToRoman.sol\":3862:4679  if (i == 4) {... */\n      tag_29\n      jumpi\n      pop\n      pop\n        /* \"contracts/task01/intToRoman.sol\":3921:3933  symbol = \"C\" */\n      0x40\n      dup1\n      mload\n      dup1\n      dup3\n      add\n      swap1\n      swap2\n      mstore\n      0x01\n      dup2\n      mstore\n      shl(0xf8, 0x43)\n      0x20\n      dup3\n      add\n      mstore\n        /* \"contracts/task01/intToRoman.sol\":3900:3903  100 */\n      0x64\n      swap1\n        /* \"contracts/task01/intToRoman.sol\":3862:4679  if (i == 4) {... */\n      jump(tag_45)\n    tag_29:\n        /* \"contracts/task01/intToRoman.sol\":3958:3959  i */\n      dup3\n        /* \"contracts/task01/intToRoman.sol\":3963:3964  5 */\n      0x05\n        /* \"contracts/task01/intToRoman.sol\":3958:3964  i == 5 */\n      sub\n        /* \"contracts/task01/intToRoman.sol\":3954:4679  if (i == 5) {... */\n      tag_31\n      jumpi\n      pop\n      pop\n        /* \"contracts/task01/intToRoman.sol\":4012:4025  symbol = \"XC\" */\n      0x40\n      dup1\n      mload\n      dup1\n      dup3\n      add\n      swap1\n      swap2\n      mstore\n      0x02\n      dup2\n      mstore\n      shl(0xf0, 0x5843)\n      0x20\n      dup3\n      add\n      mstore\n        /* \"contracts/task01/intToRoman.sol\":3992:3994  90 */\n      0x5a\n      swap1\n        /* \"contracts/task01/intToRoman.sol\":3954:4679  if (i == 5) {... */\n      jump(tag_45)\n    tag_31:\n        /* \"contracts/task01/intToRoman.sol\":4050:4051  i */\n      dup3\n        /* \"contracts/task01/intToRoman.sol\":4055:4056  6 */\n      0x06\n        /* \"contracts/task01/intToRoman.sol\":4050:4056  i == 6 */\n      sub\n        /* \"contracts/task01/intToRoman.sol\":4046:4679  if (i == 6) {... */\n      tag_33\n      jumpi\n      pop\n      pop\n        /* \"contracts/task01/intToRoman.sol\":4104:4116  symbol = \"L\" */\n      0x40\n      dup1\n      mload\n      dup1\n      dup3\n      add\n      swap1\n      swap2\n      mstore\n      0x01\n      dup2\n      mstore\n      shl(0xfa, 0x13)\n      0x20\n      dup3\n      add\n      mstore\n        /* \"contracts/task01/intToRoman.sol\":4084:4086  50 */\n      0x32\n      swap1\n        /* \"contracts/task01/intToRoman.sol\":4046:4679  if (i == 6) {... */\n      jump(tag_45)\n    tag_33:\n        /* \"contracts/task01/intToRoman.sol\":4141:4142  i */\n      dup3\n        /* \"contracts/task01/intToRoman.sol\":4146:4147  7 */\n      0x07\n        /* \"contracts/task01/intToRoman.sol\":4141:4147  i == 7 */\n      sub\n        /* \"contracts/task01/intToRoman.sol\":4137:4679  if (i == 7) {... */\n      tag_35\n      jumpi\n      pop\n      pop\n        /* \"contracts/task01/intToRoman.sol\":4195:4208  symbol = \"XL\" */\n      0x40\n      dup1\n      mload\n      dup1\n      dup3\n      add\n      swap1\n      swap2\n      mstore\n      0x02\n      dup2\n      mstore\n      shl(0xf2, 0x1613)\n      0x20\n      dup3\n      add\n      mstore\n        /* \"contracts/task01/intToRoman.sol\":4175:4177  40 */\n      0x28\n      swap1\n        /* \"contracts/task01/intToRoman.sol\":4137:4679  if (i == 7) {... */\n      jump(tag_45)\n    tag_35:\n        /* \"contracts/task01/intToRoman.sol\":4233:4234  i */\n      dup3\n        /* \"contracts/task01/intToRoman.sol\":4238:4239  8 */\n      0x08\n        /* \"contracts/task01/intToRoman.sol\":4233:4239  i == 8 */\n      sub\n        /* \"contracts/task01/intToRoman.sol\":4229:4679  if (i == 8) {... */\n      tag_37\n      jumpi\n      pop\n      pop\n        /* \"contracts/task01/intToRoman.sol\":4287:4299  symbol = \"X\" */\n      0x40\n      dup1\n      mload\n      dup1\n      dup3\n      add\n      swap1\n      swap2\n      mstore\n      0x01\n      dup2\n      mstore\n      shl(0xfb, 0x0b)\n      0x20\n      dup3\n      add\n      mstore\n        /* \"contracts/task01/intToRoman.sol\":4267:4269  10 */\n      0x0a\n      swap1\n        /* \"contracts/task01/intToRoman.sol\":4229:4679  if (i == 8) {... */\n      jump(tag_45)\n    tag_37:\n        /* \"contracts/task01/intToRoman.sol\":4324:4325  i */\n      dup3\n        /* \"contracts/task01/intToRoman.sol\":4329:4330  9 */\n      0x09\n        /* \"contracts/task01/intToRoman.sol\":4324:4330  i == 9 */\n      sub\n        /* \"contracts/task01/intToRoman.sol\":4320:4679  if (i == 9) {... */\n      tag_39\n      jumpi\n      pop\n      pop\n        /* \"contracts/task01/intToRoman.sol\":4377:4390  symbol = \"IX\" */\n      0x40\n      dup1\n      mload\n      dup1\n      dup3\n      add\n      swap1\n      swap2\n      mstore\n      0x02\n      dup2\n      mstore\n      shl(0xf3, 0x092b)\n      0x20\n      dup3\n      add\n      mstore\n        /* \"contracts/task01/intToRoman.sol\":4358:4359  9 */\n      0x09\n      swap1\n        /* \"contracts/task01/intToRoman.sol\":4320:4679  if (i == 9) {... */\n      jump(tag_45)\n    tag_39:\n        /* \"contracts/task01/intToRoman.sol\":4415:4416  i */\n      dup3\n        /* \"contracts/task01/intToRoman.sol\":4420:4422  10 */\n      0x0a\n        /* \"contracts/task01/intToRoman.sol\":4415:4422  i == 10 */\n      sub\n        /* \"contracts/task01/intToRoman.sol\":4411:4679  if (i == 10) {... */\n      tag_41\n      jumpi\n      pop\n      pop\n        /* \"contracts/task01/intToRoman.sol\":4469:4481  symbol = \"V\" */\n      0x40\n      dup1\n      mload\n      dup1\n      dup3\n      add\n      swap1\n      swap2\n      mstore\n      0x01\n      dup2\n      mstore\n      shl(0xf9, 0x2b)\n      0x20\n      dup3\n      add\n      mstore\n        /* \"contracts/task01/intToRoman.sol\":4450:4451  5 */\n      0x05\n      swap1\n        /* \"contracts/task01/intToRoman.sol\":4411:4679  if (i == 10) {... */\n      jump(tag_45)\n    tag_41:\n        /* \"contracts/task01/intToRoman.sol\":4506:4507  i */\n      dup3\n        /* \"contracts/task01/intToRoman.sol\":4511:4513  11 */\n      0x0b\n        /* \"contracts/task01/intToRoman.sol\":4506:4513  i == 11 */\n      sub\n        /* \"contracts/task01/intToRoman.sol\":4502:4679  if (i == 11) {... */\n      tag_43\n      jumpi\n      pop\n      pop\n        /* \"contracts/task01/intToRoman.sol\":4560:4573  symbol = \"IV\" */\n      0x40\n      dup1\n      mload\n      dup1\n      dup3\n      add\n      swap1\n      swap2\n      mstore\n      0x02\n      dup2\n      mstore\n      shl(0xf1, 0x24ab)\n      0x20\n      dup3\n      add\n      mstore\n        /* \"contracts/task01/intToRoman.sol\":4541:4542  4 */\n      0x04\n      swap1\n        /* \"contracts/task01/intToRoman.sol\":4502:4679  if (i == 11) {... */\n      jump(tag_45)\n    tag_43:\n        /* \"contracts/task01/intToRoman.sol\":4598:4599  i */\n      dup3\n        /* \"contracts/task01/intToRoman.sol\":4603:4605  12 */\n      0x0c\n        /* \"contracts/task01/intToRoman.sol\":4598:4605  i == 12 */\n      sub\n        /* \"contracts/task01/intToRoman.sol\":4594:4679  if (i == 12) {... */\n      tag_45\n      jumpi\n      pop\n      pop\n        /* \"contracts/task01/intToRoman.sol\":4652:4664  symbol = \"I\" */\n      0x40\n      dup1\n      mload\n      dup1\n      dup3\n      add\n      swap1\n      swap2\n      mstore\n        /* \"contracts/task01/intToRoman.sol\":4633:4634  1 */\n      0x01\n        /* \"contracts/task01/intToRoman.sol\":4652:4664  symbol = \"I\" */\n      dup1\n      dup3\n      mstore\n      shl(0xf8, 0x49)\n      0x20\n      dup4\n      add\n      mstore\n        /* \"contracts/task01/intToRoman.sol\":4633:4634  1 */\n      swap1\n        /* \"contracts/task01/intToRoman.sol\":4594:4679  if (i == 12) {... */\n    tag_45:\n        /* \"contracts/task01/intToRoman.sol\":4709:4714  value */\n      dup2\n        /* \"contracts/task01/intToRoman.sol\":4697:4706  remaining */\n      dup5\n        /* \"contracts/task01/intToRoman.sol\":4697:4714  remaining < value */\n      lt\n        /* \"contracts/task01/intToRoman.sol\":4694:4724  if(remaining < value) continue */\n      iszero\n      tag_46\n      jumpi\n        /* \"contracts/task01/intToRoman.sol\":4716:4724  continue */\n      pop\n      pop\n      jump(tag_19)\n        /* \"contracts/task01/intToRoman.sol\":4694:4724  if(remaining < value) continue */\n    tag_46:\n        /* \"contracts/task01/intToRoman.sol\":4741:4760  uint256 repeatCount */\n      0x00\n        /* \"contracts/task01/intToRoman.sol\":4762:4778  remaining /value */\n      tag_47\n        /* \"contracts/task01/intToRoman.sol\":4773:4778  value */\n      dup4\n        /* \"contracts/task01/intToRoman.sol\":4762:4771  remaining */\n      dup7\n        /* \"contracts/task01/intToRoman.sol\":4762:4778  remaining /value */\n      tag_48\n      jump\t// in\n    tag_47:\n        /* \"contracts/task01/intToRoman.sol\":4741:4778  uint256 repeatCount =remaining /value */\n      swap1\n      pop\n        /* \"contracts/task01/intToRoman.sol\":4805:4823  remaining  % value */\n      tag_49\n        /* \"contracts/task01/intToRoman.sol\":4818:4823  value */\n      dup4\n        /* \"contracts/task01/intToRoman.sol\":4805:4814  remaining */\n      dup7\n        /* \"contracts/task01/intToRoman.sol\":4805:4823  remaining  % value */\n      tag_50\n      jump\t// in\n    tag_49:\n        /* \"contracts/task01/intToRoman.sol\":4793:4823  remaining = remaining  % value */\n      swap5\n      pop\n        /* \"contracts/task01/intToRoman.sol\":4843:4852  uint256 k */\n      0x00\n        /* \"contracts/task01/intToRoman.sol\":4838:5035  for (uint256 k = 0; k < repeatCount; k++) {... */\n    tag_51:\n        /* \"contracts/task01/intToRoman.sol\":4862:4873  repeatCount */\n      dup2\n        /* \"contracts/task01/intToRoman.sol\":4858:4859  k */\n      dup2\n        /* \"contracts/task01/intToRoman.sol\":4858:4873  k < repeatCount */\n      lt\n        /* \"contracts/task01/intToRoman.sol\":4838:5035  for (uint256 k = 0; k < repeatCount; k++) {... */\n      iszero\n      tag_52\n      jumpi\n        /* \"contracts/task01/intToRoman.sol\":4903:4912  uint256 j */\n      0x00\n        /* \"contracts/task01/intToRoman.sol\":4898:5021  for (uint256 j = 0; j < symbol.length; j++) {... */\n    tag_54:\n        /* \"contracts/task01/intToRoman.sol\":4922:4928  symbol */\n      dup4\n        /* \"contracts/task01/intToRoman.sol\":4922:4935  symbol.length */\n      mload\n        /* \"contracts/task01/intToRoman.sol\":4918:4919  j */\n      dup2\n        /* \"contracts/task01/intToRoman.sol\":4918:4935  j < symbol.length */\n      lt\n        /* \"contracts/task01/intToRoman.sol\":4898:5021  for (uint256 j = 0; j < symbol.length; j++) {... */\n      iszero\n      tag_55\n      jumpi\n        /* \"contracts/task01/intToRoman.sol\":4993:4999  symbol */\n      dup4\n        /* \"contracts/task01/intToRoman.sol\":5000:5001  j */\n      dup2\n        /* \"contracts/task01/intToRoman.sol\":4993:5002  symbol[j] */\n      dup2\n      mload\n      dup2\n      lt\n      tag_58\n      jumpi\n      tag_58\n      tag_59\n      jump\t// in\n    tag_58:\n      add\n      0x20\n      add\n      mload\n      not(sub(shl(0xf8, 0x01), 0x01))\n      and\n        /* \"contracts/task01/intToRoman.sol\":4964:4975  resultBytes */\n      dup10\n        /* \"contracts/task01/intToRoman.sol\":4976:4989  resultIndex++ */\n      dup10\n      tag_60\n      dup2\n      tag_61\n      jump\t// in\n    tag_60:\n      swap11\n      pop\n        /* \"contracts/task01/intToRoman.sol\":4964:4990  resultBytes[resultIndex++] */\n      dup2\n      mload\n      dup2\n      lt\n      tag_63\n      jumpi\n      tag_63\n      tag_59\n      jump\t// in\n    tag_63:\n      0x20\n      add\n      add\n        /* \"contracts/task01/intToRoman.sol\":4964:5002  resultBytes[resultIndex++] = symbol[j] */\n      swap1\n      not(sub(shl(0xf8, 0x01), 0x01))\n      and\n      swap1\n      dup2\n      0x00\n      byte\n      swap1\n      mstore8\n      pop\n        /* \"contracts/task01/intToRoman.sol\":4937:4940  j++ */\n      0x01\n      add\n        /* \"contracts/task01/intToRoman.sol\":4898:5021  for (uint256 j = 0; j < symbol.length; j++) {... */\n      jump(tag_54)\n    tag_55:\n      pop\n        /* \"contracts/task01/intToRoman.sol\":4875:4878  k++ */\n      0x01\n      add\n        /* \"contracts/task01/intToRoman.sol\":4838:5035  for (uint256 k = 0; k < repeatCount; k++) {... */\n      jump(tag_51)\n    tag_52:\n      pop\n        /* \"contracts/task01/intToRoman.sol\":3426:5045  {... */\n      pop\n      pop\n      pop\n        /* \"contracts/task01/intToRoman.sol\":3385:5045  for (uint256 i=0;i<13 && remaining>0;i++){... */\n    tag_19:\n        /* \"contracts/task01/intToRoman.sol\":3422:3425  i++ */\n      dup1\n      tag_64\n      dup2\n      tag_61\n      jump\t// in\n    tag_64:\n      swap2\n      pop\n      pop\n        /* \"contracts/task01/intToRoman.sol\":3385:5045  for (uint256 i=0;i<13 && remaining>0;i++){... */\n      jump(tag_17)\n    tag_18:\n      pop\n        /* \"contracts/task01/intToRoman.sol\":5055:5078  bytes memory finalBytes */\n      0x00\n        /* \"contracts/task01/intToRoman.sol\":5091:5102  resultIndex */\n      dup3\n        /* \"contracts/task01/intToRoman.sol\":5081:5103  new bytes(resultIndex) */\n      0xffffffffffffffff\n      dup2\n      gt\n      iszero\n      tag_66\n      jumpi\n      tag_66\n      tag_15\n      jump\t// in\n    tag_66:\n      mload(0x40)\n      swap1\n      dup1\n      dup3\n      mstore\n      dup1\n      0x1f\n      add\n      not(0x1f)\n      and\n      0x20\n      add\n      dup3\n      add\n      0x40\n      mstore\n      dup1\n      iszero\n      tag_67\n      jumpi\n      0x20\n      dup3\n      add\n      dup2\n      dup1\n      calldatasize\n      dup4\n      calldatacopy\n      add\n      swap1\n      pop\n    tag_67:\n      pop\n        /* \"contracts/task01/intToRoman.sol\":5055:5103  bytes memory finalBytes = new bytes(resultIndex) */\n      swap1\n      pop\n        /* \"contracts/task01/intToRoman.sol\":5118:5127  uint256 i */\n      0x00\n        /* \"contracts/task01/intToRoman.sol\":5113:5210  for (uint256 i = 0; i < resultIndex; i++) {... */\n    tag_68:\n        /* \"contracts/task01/intToRoman.sol\":5137:5148  resultIndex */\n      dup4\n        /* \"contracts/task01/intToRoman.sol\":5133:5134  i */\n      dup2\n        /* \"contracts/task01/intToRoman.sol\":5133:5148  i < resultIndex */\n      lt\n        /* \"contracts/task01/intToRoman.sol\":5113:5210  for (uint256 i = 0; i < resultIndex; i++) {... */\n      iszero\n      tag_69\n      jumpi\n        /* \"contracts/task01/intToRoman.sol\":5185:5196  resultBytes */\n      dup5\n        /* \"contracts/task01/intToRoman.sol\":5197:5198  i */\n      dup2\n        /* \"contracts/task01/intToRoman.sol\":5185:5199  resultBytes[i] */\n      dup2\n      mload\n      dup2\n      lt\n      tag_72\n      jumpi\n      tag_72\n      tag_59\n      jump\t// in\n    tag_72:\n      0x20\n      add\n      add\n      mload\n      0xf8\n      shr\n      0xf8\n      shl\n        /* \"contracts/task01/intToRoman.sol\":5169:5179  finalBytes */\n      dup3\n        /* \"contracts/task01/intToRoman.sol\":5180:5181  i */\n      dup3\n        /* \"contracts/task01/intToRoman.sol\":5169:5182  finalBytes[i] */\n      dup2\n      mload\n      dup2\n      lt\n      tag_74\n      jumpi\n      tag_74\n      tag_59\n      jump\t// in\n    tag_74:\n      0x20\n      add\n      add\n        /* \"contracts/task01/intToRoman.sol\":5169:5199  finalBytes[i] = resultBytes[i] */\n      swap1\n      not(sub(shl(0xf8, 0x01), 0x01))\n      and\n      swap1\n      dup2\n      0x00\n      byte\n      swap1\n      mstore8\n      pop\n        /* \"contracts/task01/intToRoman.sol\":5150:5153  i++ */\n      0x01\n      add\n        /* \"contracts/task01/intToRoman.sol\":5113:5210  for (uint256 i = 0; i < resultIndex; i++) {... */\n      jump(tag_68)\n    tag_69:\n      pop\n        /* \"contracts/task01/intToRoman.sol\":5234:5244  finalBytes */\n      swap6\n        /* \"contracts/task01/intToRoman.sol\":3124:5254  function intToRoman1(uint256 num)public pure returns(string memory){... */\n      swap5\n      pop\n      pop\n      pop\n      pop\n      pop\n      jump\t// out\n        /* \"#utility.yul\":14:194   */\n    tag_6:\n        /* \"#utility.yul\":73:79   */\n      0x00\n        /* \"#utility.yul\":126:128   */\n      0x20\n        /* \"#utility.yul\":114:123   */\n      dup3\n        /* \"#utility.yul\":105:112   */\n      dup5\n        /* \"#utility.yul\":101:124   */\n      sub\n        /* \"#utility.yul\":97:129   */\n      slt\n        /* \"#utility.yul\":94:146   */\n      iszero\n      tag_78\n      jumpi\n        /* \"#utility.yul\":142:143   */\n      0x00\n        /* \"#utility.yul\":139:140   */\n      0x00\n        /* \"#utility.yul\":132:144   */\n      revert\n        /* \"#utility.yul\":94:146   */\n    tag_78:\n      pop\n        /* \"#utility.yul\":165:188   */\n      calldataload\n      swap2\n        /* \"#utility.yul\":14:194   */\n      swap1\n      pop\n      jump\t// out\n        /* \"#utility.yul\":199:617   */\n    tag_9:\n        /* \"#utility.yul\":348:350   */\n      0x20\n        /* \"#utility.yul\":337:346   */\n      dup2\n        /* \"#utility.yul\":330:351   */\n      mstore\n        /* \"#utility.yul\":311:315   */\n      0x00\n        /* \"#utility.yul\":380:386   */\n      dup3\n        /* \"#utility.yul\":374:387   */\n      mload\n        /* \"#utility.yul\":423:429   */\n      dup1\n        /* \"#utility.yul\":418:420   */\n      0x20\n        /* \"#utility.yul\":407:416   */\n      dup5\n        /* \"#utility.yul\":403:421   */\n      add\n        /* \"#utility.yul\":396:430   */\n      mstore\n        /* \"#utility.yul\":482:488   */\n      dup1\n        /* \"#utility.yul\":477:479   */\n      0x20\n        /* \"#utility.yul\":469:475   */\n      dup6\n        /* \"#utility.yul\":465:480   */\n      add\n        /* \"#utility.yul\":460:462   */\n      0x40\n        /* \"#utility.yul\":449:458   */\n      dup6\n        /* \"#utility.yul\":445:463   */\n      add\n        /* \"#utility.yul\":439:489   */\n      mcopy\n        /* \"#utility.yul\":538:539   */\n      0x00\n        /* \"#utility.yul\":533:535   */\n      0x40\n        /* \"#utility.yul\":524:530   */\n      dup3\n        /* \"#utility.yul\":513:522   */\n      dup6\n        /* \"#utility.yul\":509:531   */\n      add\n        /* \"#utility.yul\":505:536   */\n      add\n        /* \"#utility.yul\":498:540   */\n      mstore\n        /* \"#utility.yul\":608:610   */\n      0x40\n        /* \"#utility.yul\":601:603   */\n      0x1f\n        /* \"#utility.yul\":597:604   */\n      not\n        /* \"#utility.yul\":592:594   */\n      0x1f\n        /* \"#utility.yul\":584:590   */\n      dup4\n        /* \"#utility.yul\":580:595   */\n      add\n        /* \"#utility.yul\":576:605   */\n      and\n        /* \"#utility.yul\":565:574   */\n      dup5\n        /* \"#utility.yul\":561:606   */\n      add\n        /* \"#utility.yul\":557:611   */\n      add\n        /* \"#utility.yul\":549:611   */\n      swap2\n      pop\n      pop\n        /* \"#utility.yul\":199:617   */\n      swap3\n      swap2\n      pop\n      pop\n      jump\t// out\n        /* \"#utility.yul\":622:749   */\n    tag_15:\n        /* \"#utility.yul\":683:693   */\n      0x4e487b71\n        /* \"#utility.yul\":678:681   */\n      0xe0\n        /* \"#utility.yul\":674:694   */\n      shl\n        /* \"#utility.yul\":671:672   */\n      0x00\n        /* \"#utility.yul\":664:695   */\n      mstore\n        /* \"#utility.yul\":714:718   */\n      0x41\n        /* \"#utility.yul\":711:712   */\n      0x04\n        /* \"#utility.yul\":704:719   */\n      mstore\n        /* \"#utility.yul\":738:742   */\n      0x24\n        /* \"#utility.yul\":735:736   */\n      0x00\n        /* \"#utility.yul\":728:743   */\n      revert\n        /* \"#utility.yul\":754:881   */\n    tag_75:\n        /* \"#utility.yul\":815:825   */\n      0x4e487b71\n        /* \"#utility.yul\":810:813   */\n      0xe0\n        /* \"#utility.yul\":806:826   */\n      shl\n        /* \"#utility.yul\":803:804   */\n      0x00\n        /* \"#utility.yul\":796:827   */\n      mstore\n        /* \"#utility.yul\":846:850   */\n      0x12\n        /* \"#utility.yul\":843:844   */\n      0x04\n        /* \"#utility.yul\":836:851   */\n      mstore\n        /* \"#utility.yul\":870:874   */\n      0x24\n        /* \"#utility.yul\":867:868   */\n      0x00\n        /* \"#utility.yul\":860:875   */\n      revert\n        /* \"#utility.yul\":886:1006   */\n    tag_48:\n        /* \"#utility.yul\":926:927   */\n      0x00\n        /* \"#utility.yul\":952:953   */\n      dup3\n        /* \"#utility.yul\":942:977   */\n      tag_84\n      jumpi\n        /* \"#utility.yul\":957:975   */\n      tag_84\n      tag_75\n      jump\t// in\n    tag_84:\n      pop\n        /* \"#utility.yul\":991:1000   */\n      div\n      swap1\n        /* \"#utility.yul\":886:1006   */\n      jump\t// out\n        /* \"#utility.yul\":1011:1123   */\n    tag_50:\n        /* \"#utility.yul\":1043:1044   */\n      0x00\n        /* \"#utility.yul\":1069:1070   */\n      dup3\n        /* \"#utility.yul\":1059:1094   */\n      tag_87\n      jumpi\n        /* \"#utility.yul\":1074:1092   */\n      tag_87\n      tag_75\n      jump\t// in\n    tag_87:\n      pop\n        /* \"#utility.yul\":1108:1117   */\n      mod\n      swap1\n        /* \"#utility.yul\":1011:1123   */\n      jump\t// out\n        /* \"#utility.yul\":1128:1255   */\n    tag_59:\n        /* \"#utility.yul\":1189:1199   */\n      0x4e487b71\n        /* \"#utility.yul\":1184:1187   */\n      0xe0\n        /* \"#utility.yul\":1180:1200   */\n      shl\n        /* \"#utility.yul\":1177:1178   */\n      0x00\n        /* \"#utility.yul\":1170:1201   */\n      mstore\n        /* \"#utility.yul\":1220:1224   */\n      0x32\n        /* \"#utility.yul\":1217:1218   */\n      0x04\n        /* \"#utility.yul\":1210:1225   */\n      mstore\n        /* \"#utility.yul\":1244:1248   */\n      0x24\n        /* \"#utility.yul\":1241:1242   */\n      0x00\n        /* \"#utility.yul\":1234:1249   */\n      revert\n        /* \"#utility.yul\":1260:1492   */\n    tag_61:\n        /* \"#utility.yul\":1299:1302   */\n      0x00\n        /* \"#utility.yul\":1320:1337   */\n      0x01\n      dup3\n      add\n        /* \"#utility.yul\":1317:1457   */\n      tag_90\n      jumpi\n        /* \"#utility.yul\":1379:1389   */\n      0x4e487b71\n        /* \"#utility.yul\":1374:1377   */\n      0xe0\n        /* \"#utility.yul\":1370:1390   */\n      shl\n        /* \"#utility.yul\":1367:1368   */\n      0x00\n        /* \"#utility.yul\":1360:1391   */\n      mstore\n        /* \"#utility.yul\":1414:1418   */\n      0x11\n        /* \"#utility.yul\":1411:1412   */\n      0x04\n        /* \"#utility.yul\":1404:1419   */\n      mstore\n        /* \"#utility.yul\":1442:1446   */\n      0x24\n        /* \"#utility.yul\":1439:1440   */\n      0x00\n        /* \"#utility.yul\":1432:1447   */\n      revert\n        /* \"#utility.yul\":1317:1457   */\n    tag_90:\n      pop\n        /* \"#utility.yul\":1484:1485   */\n      0x01\n        /* \"#utility.yul\":1473:1486   */\n      add\n      swap1\n        /* \"#utility.yul\":1260:1492   */\n      jump\t// out\n\n    auxdata: 0xa2646970667358221220181b32bd230abc90db52e9256c9bd052601483eedb31de50b850e9daf263db7064736f6c634300081f0033\n}\n",
				"bytecode": {
					"linkReferences": {},
					"object": "6080604052348015600e575f5ffd5b5061056f8061001c5f395ff3fe608060405234801561000f575f5ffd5b5060043610610029575f3560e01c80633afa5f111461002d575b5f5ffd5b61004061003b366004610467565b610056565b60405161004d919061047e565b60405180910390f35b6060815f0361007257505060408051602081019091525f815290565b610f9f8211156100a457505060408051808201909152600c81526b45786365656473203339393960a01b602082015290565b60408051600f8082528183019092525f916020820181803683370190505090505f83815b600d811080156100d757505f82115b156103be575f6060825f036101095750506040805180820190915260018152604d60f81b60208201526103e890610305565b82600103610135575050604080518082019091526002815261434d60f01b602082015261038490610305565b826002036101605750506040805180820190915260018152601160fa1b60208201526101f490610305565b8260030361018c57505060408051808201909152600281526110d160f21b602082015261019090610305565b826004036101b65750506040805180820190915260018152604360f81b6020820152606490610305565b826005036101e1575050604080518082019091526002815261584360f01b6020820152605a90610305565b8260060361020b5750506040805180820190915260018152601360fa1b6020820152603290610305565b82600703610236575050604080518082019091526002815261161360f21b6020820152602890610305565b826008036102605750506040805180820190915260018152600b60fb1b6020820152600a90610305565b8260090361028b575050604080518082019091526002815261092b60f31b6020820152600990610305565b82600a036102b55750506040805180820190915260018152602b60f91b6020820152600590610305565b82600b036102e057505060408051808201909152600281526124ab60f11b6020820152600490610305565b82600c03610305575050604080518082019091526001808252604960f81b6020830152905b818410156103145750506103ac565b5f61031f83866104db565b905061032b83866104ee565b94505f5b818110156103a7575f5b835181101561039e5783818151811061035457610354610501565b01602001516001600160f81b031916898961036e81610515565b9a508151811061038057610380610501565b60200101906001600160f81b03191690815f1a905350600101610339565b5060010161032f565b505050505b806103b681610515565b9150506100c8565b505f8267ffffffffffffffff8111156103d9576103d96104b3565b6040519080825280601f01601f191660200182016040528015610403576020820181803683370190505b5090505f5b8381101561045d5784818151811061042257610422610501565b602001015160f81c60f81b82828151811061043f5761043f610501565b60200101906001600160f81b03191690815f1a905350600101610408565b5095945050505050565b5f60208284031215610477575f5ffd5b5035919050565b602081525f82518060208401528060208501604085015e5f604082850101526040601f19601f83011684010191505092915050565b634e487b7160e01b5f52604160045260245ffd5b634e487b7160e01b5f52601260045260245ffd5b5f826104e9576104e96104c7565b500490565b5f826104fc576104fc6104c7565b500690565b634e487b7160e01b5f52603260045260245ffd5b5f6001820161053257634e487b7160e01b5f52601160045260245ffd5b506001019056fea2646970667358221220181b32bd230abc90db52e9256c9bd052601483eedb31de50b850e9daf263db7064736f6c634300081f0033",
					"opcodes": "PUSH1 0x80 PUSH1 0x40 MSTORE CALLVALUE DUP1 ISZERO PUSH1 0xE JUMPI PUSH0 PUSH0 REVERT JUMPDEST POP PUSH2 0x56F DUP1 PUSH2 0x1C PUSH0 CODECOPY PUSH0 RETURN INVALID PUSH1 0x80 PUSH1 0x40 MSTORE CALLVALUE DUP1 ISZERO PUSH2 0xF JUMPI PUSH0 PUSH0 REVERT JUMPDEST POP PUSH1 0x4 CALLDATASIZE LT PUSH2 0x29 JUMPI PUSH0 CALLDATALOAD PUSH1 0xE0 SHR DUP1 PUSH4 0x3AFA5F11 EQ PUSH2 0x2D JUMPI JUMPDEST PUSH0 PUSH0 REVERT JUMPDEST PUSH2 0x40 PUSH2 0x3B CALLDATASIZE PUSH1 0x4 PUSH2 0x467 JUMP JUMPDEST PUSH2 0x56 JUMP JUMPDEST PUSH1 0x40 MLOAD PUSH2 0x4D SWAP2 SWAP1 PUSH2 0x47E JUMP JUMPDEST PUSH1 0x40 MLOAD DUP1 SWAP2 SUB SWAP1 RETURN JUMPDEST PUSH1 0x60 DUP2 PUSH0 SUB PUSH2 0x72 JUMPI POP POP PUSH1 0x40 DUP1 MLOAD PUSH1 0x20 DUP2 ADD SWAP1 SWAP2 MSTORE PUSH0 DUP2 MSTORE SWAP1 JUMP JUMPDEST PUSH2 0xF9F DUP3 GT ISZERO PUSH2 0xA4 JUMPI POP POP PUSH1 0x40 DUP1 MLOAD DUP1 DUP3 ADD SWAP1 SWAP2 MSTORE PUSH1 0xC DUP2 MSTORE PUSH12 0x457863656564732033393939 PUSH1 0xA0 SHL PUSH1 0x20 DUP3 ADD MSTORE SWAP1 JUMP JUMPDEST PUSH1 0x40 DUP1 MLOAD PUSH1 0xF DUP1 DUP3 MSTORE DUP2 DUP4 ADD SWAP1 SWAP3 MSTORE PUSH0 SWAP2 PUSH1 0x20 DUP3 ADD DUP2 DUP1 CALLDATASIZE DUP4 CALLDATACOPY ADD SWAP1 POP POP SWAP1 POP PUSH0 DUP4 DUP2 JUMPDEST PUSH1 0xD DUP2 LT DUP1 ISZERO PUSH2 0xD7 JUMPI POP PUSH0 DUP3 GT JUMPDEST ISZERO PUSH2 0x3BE JUMPI PUSH0 PUSH1 0x60 DUP3 PUSH0 SUB PUSH2 0x109 JUMPI POP POP PUSH1 0x40 DUP1 MLOAD DUP1 DUP3 ADD SWAP1 SWAP2 MSTORE PUSH1 0x1 DUP2 MSTORE PUSH1 0x4D PUSH1 0xF8 SHL PUSH1 0x20 DUP3 ADD MSTORE PUSH2 0x3E8 SWAP1 PUSH2 0x305 JUMP JUMPDEST DUP3 PUSH1 0x1 SUB PUSH2 0x135 JUMPI POP POP PUSH1 0x40 DUP1 MLOAD DUP1 DUP3 ADD SWAP1 SWAP2 MSTORE PUSH1 0x2 DUP2 MSTORE PUSH2 0x434D PUSH1 0xF0 SHL PUSH1 0x20 DUP3 ADD MSTORE PUSH2 0x384 SWAP1 PUSH2 0x305 JUMP JUMPDEST DUP3 PUSH1 0x2 SUB PUSH2 0x160 JUMPI POP POP PUSH1 0x40 DUP1 MLOAD DUP1 DUP3 ADD SWAP1 SWAP2 MSTORE PUSH1 0x1 DUP2 MSTORE PUSH1 0x11 PUSH1 0xFA SHL PUSH1 0x20 DUP3 ADD MSTORE PUSH2 0x1F4 SWAP1 PUSH2 0x305 JUMP JUMPDEST DUP3 PUSH1 0x3 SUB PUSH2 0x18C JUMPI POP POP PUSH1 0x40 DUP1 MLOAD DUP1 DUP3 ADD SWAP1 SWAP2 MSTORE PUSH1 0x2 DUP2 MSTORE PUSH2 0x10D1 PUSH1 0xF2 SHL PUSH1 0x20 DUP3 ADD MSTORE PUSH2 0x190 SWAP1 PUSH2 0x305 JUMP JUMPDEST DUP3 PUSH1 0x4 SUB PUSH2 0x1B6 JUMPI POP POP PUSH1 0x40 DUP1 MLOAD DUP1 DUP3 ADD SWAP1 SWAP2 MSTORE PUSH1 0x1 DUP2 MSTORE PUSH1 0x43 PUSH1 0xF8 SHL PUSH1 0x20 DUP3 ADD MSTORE PUSH1 0x64 SWAP1 PUSH2 0x305 JUMP JUMPDEST DUP3 PUSH1 0x5 SUB PUSH2 0x1E1 JUMPI POP POP PUSH1 0x40 DUP1 MLOAD DUP1 DUP3 ADD SWAP1 SWAP2 MSTORE PUSH1 0x2 DUP2 MSTORE PUSH2 0x5843 PUSH1 0xF0 SHL PUSH1 0x20 DUP3 ADD MSTORE PUSH1 0x5A SWAP1 PUSH2 0x305 JUMP JUMPDEST DUP3 PUSH1 0x6 SUB PUSH2 0x20B JUMPI POP POP PUSH1 0x40 DUP1 MLOAD DUP1 DUP3 ADD SWAP1 SWAP2 MSTORE PUSH1 0x1 DUP2 MSTORE PUSH1 0x13 PUSH1 0xFA SHL PUSH1 0x20 DUP3 ADD MSTORE PUSH1 0x32 SWAP1 PUSH2 0x305 JUMP JUMPDEST DUP3 PUSH1 0x7 SUB PUSH2 0x236 JUMPI POP POP PUSH1 0x40 DUP1 MLOAD DUP1 DUP3 ADD SWAP1 SWAP2 MSTORE PUSH1 0x2 DUP2 MSTORE PUSH2 0x1613 PUSH1 0xF2 SHL PUSH1 0x20 DUP3 ADD MSTORE PUSH1 0x28 SWAP1 PUSH2 0x305 JUMP JUMPDEST DUP3 PUSH1 0x8 SUB PUSH2 0x260 JUMPI POP POP PUSH1 0x40 DUP1 MLOAD DUP1 DUP3 ADD SWAP1 SWAP2 MSTORE PUSH1 0x1 DUP2 MSTORE PUSH1 0xB PUSH1 0xFB SHL PUSH1 0x20 DUP3 ADD MSTORE PUSH1 0xA SWAP1 PUSH2 0x305 JUMP JUMPDEST DUP3 PUSH1 0x9 SUB PUSH2 0x28B JUMPI POP POP PUSH1 0x40 DUP1 MLOAD DUP1 DUP3 ADD SWAP1 SWAP2 MSTORE PUSH1 0x2 DUP2 MSTORE PUSH2 0x92B PUSH1 0xF3 SHL PUSH1 0x20 DUP3 ADD MSTORE PUSH1 0x9 SWAP1 PUSH2 0x305 JUMP JUMPDEST DUP3 PUSH1 0xA SUB PUSH2 0x2B5 JUMPI POP POP PUSH1 0x40 DUP1 MLOAD DUP1 DUP3 ADD SWAP1 SWAP2 MSTORE PUSH1 0x1 DUP2 MSTORE PUSH1 0x2B PUSH1 0xF9 SHL PUSH1 0x20 DUP3 ADD MSTORE PUSH1 0x5 SWAP1 PUSH2 0x305 JUMP JUMPDEST DUP3 PUSH1 0xB SUB PUSH2 0x2E0 JUMPI POP POP PUSH1 0x40 DUP1 MLOAD DUP1 DUP3 ADD SWAP1 SWAP2 MSTORE PUSH1 0x2 DUP2 MSTORE PUSH2 0x24AB PUSH1 0xF1 SHL PUSH1 0x20 DUP3 ADD MSTORE PUSH1 0x4 SWAP1 PUSH2 0x305 JUMP JUMPDEST DUP3 PUSH1 0xC SUB PUSH2 0x305 JUMPI POP POP PUSH1 0x40 DUP1 MLOAD DUP1 DUP3 ADD SWAP1 SWAP2 MSTORE PUSH1 0x1 DUP1 DUP3 MSTORE PUSH1 0x49 PUSH1 0xF8 SHL PUSH1 0x20 DUP4 ADD MSTORE SWAP1 JUMPDEST DUP2 DUP5 LT ISZERO PUSH2 0x314 JUMPI POP POP PUSH2 0x3AC JUMP JUMPDEST PUSH0 PUSH2 0x31F DUP4 DUP7 PUSH2 0x4DB JUMP JUMPDEST SWAP1 POP PUSH2 0x32B DUP4 DUP7 PUSH2 0x4EE JUMP JUMPDEST SWAP5 POP PUSH0 JUMPDEST DUP2 DUP2 LT ISZERO PUSH2 0x3A7 JUMPI PUSH0 JUMPDEST DUP4 MLOAD DUP2 LT ISZERO PUSH2 0x39E JUMPI DUP4 DUP2 DUP2 MLOAD DUP2 LT PUSH2 0x354 JUMPI PUSH2 0x354 PUSH2 0x501 JUMP JUMPDEST ADD PUSH1 0x20 ADD MLOAD PUSH1 0x1 PUSH1 0x1 PUSH1 0xF8 SHL SUB NOT AND DUP10 DUP10 PUSH2 0x36E DUP2 PUSH2 0x515 JUMP JUMPDEST SWAP11 POP DUP2 MLOAD DUP2 LT PUSH2 0x380 JUMPI PUSH2 0x380 PUSH2 0x501 JUMP JUMPDEST PUSH1 0x20 ADD ADD SWAP1 PUSH1 0x1 PUSH1 0x1 PUSH1 0xF8 SHL SUB NOT AND SWAP1 DUP2 PUSH0 BYTE SWAP1 MSTORE8 POP PUSH1 0x1 ADD PUSH2 0x339 JUMP JUMPDEST POP PUSH1 0x1 ADD PUSH2 0x32F JUMP JUMPDEST POP POP POP POP JUMPDEST DUP1 PUSH2 0x3B6 DUP2 PUSH2 0x515 JUMP JUMPDEST SWAP2 POP POP PUSH2 0xC8 JUMP JUMPDEST POP PUSH0 DUP3 PUSH8 0xFFFFFFFFFFFFFFFF DUP2 GT ISZERO PUSH2 0x3D9 JUMPI PUSH2 0x3D9 PUSH2 0x4B3 JUMP JUMPDEST PUSH1 0x40 MLOAD SWAP1 DUP1 DUP3 MSTORE DUP1 PUSH1 0x1F ADD PUSH1 0x1F NOT AND PUSH1 0x20 ADD DUP3 ADD PUSH1 0x40 MSTORE DUP1 ISZERO PUSH2 0x403 JUMPI PUSH1 0x20 DUP3 ADD DUP2 DUP1 CALLDATASIZE DUP4 CALLDATACOPY ADD SWAP1 POP JUMPDEST POP SWAP1 POP PUSH0 JUMPDEST DUP4 DUP2 LT ISZERO PUSH2 0x45D JUMPI DUP5 DUP2 DUP2 MLOAD DUP2 LT PUSH2 0x422 JUMPI PUSH2 0x422 PUSH2 0x501 JUMP JUMPDEST PUSH1 0x20 ADD ADD MLOAD PUSH1 0xF8 SHR PUSH1 0xF8 SHL DUP3 DUP3 DUP2 MLOAD DUP2 LT PUSH2 0x43F JUMPI PUSH2 0x43F PUSH2 0x501 JUMP JUMPDEST PUSH1 0x20 ADD ADD SWAP1 PUSH1 0x1 PUSH1 0x1 PUSH1 0xF8 SHL SUB NOT AND SWAP1 DUP2 PUSH0 BYTE SWAP1 MSTORE8 POP PUSH1 0x1 ADD PUSH2 0x408 JUMP JUMPDEST POP SWAP6 SWAP5 POP POP POP POP POP JUMP JUMPDEST PUSH0 PUSH1 0x20 DUP3 DUP5 SUB SLT ISZERO PUSH2 0x477 JUMPI PUSH0 PUSH0 REVERT JUMPDEST POP CALLDATALOAD SWAP2 SWAP1 POP JUMP JUMPDEST PUSH1 0x20 DUP2 MSTORE PUSH0 DUP3 MLOAD DUP1 PUSH1 0x20 DUP5 ADD MSTORE DUP1 PUSH1 0x20 DUP6 ADD PUSH1 0x40 DUP6 ADD MCOPY PUSH0 PUSH1 0x40 DUP3 DUP6 ADD ADD MSTORE PUSH1 0x40 PUSH1 0x1F NOT PUSH1 0x1F DUP4 ADD AND DUP5 ADD ADD SWAP2 POP POP SWAP3 SWAP2 POP POP JUMP JUMPDEST PUSH4 0x4E487B71 PUSH1 0xE0 SHL PUSH0 MSTORE PUSH1 0x41 PUSH1 0x4 MSTORE PUSH1 0x24 PUSH0 REVERT JUMPDEST PUSH4 0x4E487B71 PUSH1 0xE0 SHL PUSH0 MSTORE PUSH1 0x12 PUSH1 0x4 MSTORE PUSH1 0x24 PUSH0 REVERT JUMPDEST PUSH0 DUP3 PUSH2 0x4E9 JUMPI PUSH2 0x4E9 PUSH2 0x4C7 JUMP JUMPDEST POP DIV SWAP1 JUMP JUMPDEST PUSH0 DUP3 PUSH2 0x4FC JUMPI PUSH2 0x4FC PUSH2 0x4C7 JUMP JUMPDEST POP MOD SWAP1 JUMP JUMPDEST PUSH4 0x4E487B71 PUSH1 0xE0 SHL PUSH0 MSTORE PUSH1 0x32 PUSH1 0x4 MSTORE PUSH1 0x24 PUSH0 REVERT JUMPDEST PUSH0 PUSH1 0x1 DUP3 ADD PUSH2 0x532 JUMPI PUSH4 0x4E487B71 PUSH1 0xE0 SHL PUSH0 MSTORE PUSH1 0x11 PUSH1 0x4 MSTORE PUSH1 0x24 PUSH0 REVERT JUMPDEST POP PUSH1 0x1 ADD SWAP1 JUMP INVALID LOG2 PUSH5 0x6970667358 0x22 SLT KECCAK256 XOR SHL ORIGIN 0xBD 0x23 EXP 0xBC SWAP1 0xDB MSTORE 0xE9 0x25 PUSH13 0x9BD052601483EEDB31DE50B850 0xE9 0xDA CALLCODE PUSH4 0xDB706473 PUSH16 0x6C634300081F00330000000000000000 "
				},
				"gasEstimates": {
					"creation": {
						"codeDepositCost": "278200",
						"executionCost": "316",
						"totalCost": "278516"
					},
					"external": {
						"intToRoman1(uint256)": "infinite"
					}
				},
				"methodIdentifiers": {
					"intToRoman1(uint256)": "3afa5f11"
				}
			},
			"storageLayout": {
				"storage": [],
				"types": null
			},
			"userdoc": {
				"kind": "user",
				"methods": {},
				"version": 1
			}
		}
	}
}