{
	"contracts/homework/intToRoman.sol": {
		"intToRoman": {
			"abi": [
				{
					"inputs": [
						{
							"internalType": "uint256",
							"name": "num",
							"type": "uint256"
						}
					],
					"name": "intToRoman1",
					"outputs": [
						{
							"internalType": "string",
							"name": "",
							"type": "string"
						}
					],
					"stateMutability": "pure",
					"type": "function"
				}
			],
			"devdoc": {
				"kind": "dev",
				"methods": {},
				"version": 1
			},
			"evm": {
				"assembly": "    /* \"contracts/homework/intToRoman.sol\":1635:5258  contract intToRoman{... */\n  mstore(0x40, 0x80)\n  callvalue\n  dup1\n  iszero\n  tag_1\n  jumpi\n  revert(0x00, 0x00)\ntag_1:\n  pop\n  dataSize(sub_0)\n  dup1\n  dataOffset(sub_0)\n  0x00\n  codecopy\n  0x00\n  return\nstop\n\nsub_0: assembly {\n        /* \"contracts/homework/intToRoman.sol\":1635:5258  contract intToRoman{... */\n      mstore(0x40, 0x80)\n      callvalue\n      dup1\n      iszero\n      tag_1\n      jumpi\n      revert(0x00, 0x00)\n    tag_1:\n      pop\n      jumpi(tag_2, lt(calldatasize, 0x04))\n      shr(0xe0, calldataload(0x00))\n      dup1\n      0x3afa5f11\n      eq\n      tag_3\n      jumpi\n    tag_2:\n      revert(0x00, 0x00)\n        /* \"contracts/homework/intToRoman.sol\":3124:5254  function intToRoman1(uint256 num)public pure returns(string memory){... */\n    tag_3:\n      tag_4\n      0x04\n      dup1\n      calldatasize\n      sub\n      dup2\n      add\n      swap1\n      tag_5\n      swap2\n      swap1\n      tag_6\n      jump\t// in\n    tag_5:\n      tag_7\n      jump\t// in\n    tag_4:\n      mload(0x40)\n      tag_8\n      swap2\n      swap1\n      tag_9\n      jump\t// in\n    tag_8:\n      mload(0x40)\n      dup1\n      swap2\n      sub\n      swap1\n      return\n    tag_7:\n        /* \"contracts/homework/intToRoman.sol\":3177:3190  string memory */\n      0x60\n        /* \"contracts/homework/intToRoman.sol\":3211:3212  0 */\n      0x00\n        /* \"contracts/homework/intToRoman.sol\":3204:3207  num */\n      dup3\n        /* \"contracts/homework/intToRoman.sol\":3204:3212  num == 0 */\n      sub\n        /* \"contracts/homework/intToRoman.sol\":3201:3222  if(num == 0)return \"\" */\n      tag_11\n      jumpi\n        /* \"contracts/homework/intToRoman.sol\":3213:3222  return \"\" */\n      mload(0x40)\n      dup1\n      0x20\n      add\n      0x40\n      mstore\n      dup1\n      0x00\n      dup2\n      mstore\n      pop\n      swap1\n      pop\n      jump(tag_10)\n        /* \"contracts/homework/intToRoman.sol\":3201:3222  if(num == 0)return \"\" */\n    tag_11:\n        /* \"contracts/homework/intToRoman.sol\":3239:3243  3999 */\n      0x0f9f\n        /* \"contracts/homework/intToRoman.sol\":3235:3238  num */\n      dup3\n        /* \"contracts/homework/intToRoman.sol\":3235:3243  num>3999 */\n      gt\n        /* \"contracts/homework/intToRoman.sol\":3232:3265  if(num>3999)return \"Exceeds 3999\" */\n      iszero\n      tag_12\n      jumpi\n        /* \"contracts/homework/intToRoman.sol\":3244:3265  return \"Exceeds 3999\" */\n      mload(0x40)\n      dup1\n      0x40\n      add\n      0x40\n      mstore\n      dup1\n      0x0c\n      dup2\n      mstore\n      0x20\n      add\n      0x4578636565647320333939390000000000000000000000000000000000000000\n      dup2\n      mstore\n      pop\n      swap1\n      pop\n      jump(tag_10)\n        /* \"contracts/homework/intToRoman.sol\":3232:3265  if(num>3999)return \"Exceeds 3999\" */\n    tag_12:\n        /* \"contracts/homework/intToRoman.sol\":3275:3299  bytes memory resultBytes */\n      0x00\n        /* \"contracts/homework/intToRoman.sol\":3310:3312  15 */\n      0x0f\n        /* \"contracts/homework/intToRoman.sol\":3300:3313  new bytes(15) */\n      0xffffffffffffffff\n      dup2\n      gt\n      iszero\n      tag_13\n      jumpi\n      tag_14\n      tag_15\n      jump\t// in\n    tag_14:\n    tag_13:\n      mload(0x40)\n      swap1\n      dup1\n      dup3\n      mstore\n      dup1\n      0x1f\n      add\n      not(0x1f)\n      and\n      0x20\n      add\n      dup3\n      add\n      0x40\n      mstore\n      dup1\n      iszero\n      tag_16\n      jumpi\n      dup2\n      0x20\n      add\n      0x01\n      dup3\n      mul\n      dup1\n      calldatasize\n      dup4\n      calldatacopy\n      dup1\n      dup3\n      add\n      swap2\n      pop\n      pop\n      swap1\n      pop\n    tag_16:\n      pop\n        /* \"contracts/homework/intToRoman.sol\":3275:3313  bytes memory resultBytes=new bytes(15) */\n      swap1\n      pop\n        /* \"contracts/homework/intToRoman.sol\":3323:3342  uint256 resultIndex */\n      0x00\n        /* \"contracts/homework/intToRoman.sol\":3343:3344  0 */\n      0x00\n        /* \"contracts/homework/intToRoman.sol\":3323:3344  uint256 resultIndex=0 */\n      swap1\n      pop\n        /* \"contracts/homework/intToRoman.sol\":3354:3371  uint256 remaining */\n      0x00\n        /* \"contracts/homework/intToRoman.sol\":3372:3375  num */\n      dup5\n        /* \"contracts/homework/intToRoman.sol\":3354:3375  uint256 remaining=num */\n      swap1\n      pop\n        /* \"contracts/homework/intToRoman.sol\":3390:3399  uint256 i */\n      0x00\n        /* \"contracts/homework/intToRoman.sol\":3400:3401  0 */\n      0x00\n        /* \"contracts/homework/intToRoman.sol\":3390:3401  uint256 i=0 */\n      swap1\n      pop\n        /* \"contracts/homework/intToRoman.sol\":3385:5045  for (uint256 i=0;i<13 && remaining>0;i++){... */\n    tag_17:\n        /* \"contracts/homework/intToRoman.sol\":3404:3406  13 */\n      0x0d\n        /* \"contracts/homework/intToRoman.sol\":3402:3403  i */\n      dup2\n        /* \"contracts/homework/intToRoman.sol\":3402:3406  i<13 */\n      lt\n        /* \"contracts/homework/intToRoman.sol\":3402:3421  i<13 && remaining>0 */\n      dup1\n      iszero\n      tag_20\n      jumpi\n      pop\n        /* \"contracts/homework/intToRoman.sol\":3420:3421  0 */\n      0x00\n        /* \"contracts/homework/intToRoman.sol\":3410:3419  remaining */\n      dup3\n        /* \"contracts/homework/intToRoman.sol\":3410:3421  remaining>0 */\n      gt\n        /* \"contracts/homework/intToRoman.sol\":3402:3421  i<13 && remaining>0 */\n    tag_20:\n        /* \"contracts/homework/intToRoman.sol\":3385:5045  for (uint256 i=0;i<13 && remaining>0;i++){... */\n      iszero\n      tag_18\n      jumpi\n        /* \"contracts/homework/intToRoman.sol\":3440:3453  uint256 value */\n      0x00\n        /* \"contracts/homework/intToRoman.sol\":3467:3486  bytes memory symbol */\n      0x60\n        /* \"contracts/homework/intToRoman.sol\":3506:3507  0 */\n      0x00\n        /* \"contracts/homework/intToRoman.sol\":3503:3504  i */\n      dup4\n        /* \"contracts/homework/intToRoman.sol\":3503:3507  i==0 */\n      sub\n        /* \"contracts/homework/intToRoman.sol\":3500:4679  if(i==0){... */\n      tag_21\n      jumpi\n        /* \"contracts/homework/intToRoman.sol\":3532:3536  1000 */\n      0x03e8\n        /* \"contracts/homework/intToRoman.sol\":3526:3536  value=1000 */\n      swap2\n      pop\n        /* \"contracts/homework/intToRoman.sol\":3554:3564  symbol=\"M\" */\n      mload(0x40)\n      dup1\n      0x40\n      add\n      0x40\n      mstore\n      dup1\n      0x01\n      dup2\n      mstore\n      0x20\n      add\n      0x4d00000000000000000000000000000000000000000000000000000000000000\n      dup2\n      mstore\n      pop\n      swap1\n      pop\n        /* \"contracts/homework/intToRoman.sol\":3500:4679  if(i==0){... */\n      jump(tag_22)\n    tag_21:\n        /* \"contracts/homework/intToRoman.sol\":3593:3594  1 */\n      0x01\n        /* \"contracts/homework/intToRoman.sol\":3588:3589  i */\n      dup4\n        /* \"contracts/homework/intToRoman.sol\":3588:3594  i == 1 */\n      sub\n        /* \"contracts/homework/intToRoman.sol\":3584:4679  if (i == 1) {... */\n      tag_23\n      jumpi\n        /* \"contracts/homework/intToRoman.sol\":3622:3625  900 */\n      0x0384\n        /* \"contracts/homework/intToRoman.sol\":3614:3625  value = 900 */\n      swap2\n      pop\n        /* \"contracts/homework/intToRoman.sol\":3643:3656  symbol = \"CM\" */\n      mload(0x40)\n      dup1\n      0x40\n      add\n      0x40\n      mstore\n      dup1\n      0x02\n      dup2\n      mstore\n      0x20\n      add\n      0x434d000000000000000000000000000000000000000000000000000000000000\n      dup2\n      mstore\n      pop\n      swap1\n      pop\n        /* \"contracts/homework/intToRoman.sol\":3584:4679  if (i == 1) {... */\n      jump(tag_24)\n    tag_23:\n        /* \"contracts/homework/intToRoman.sol\":3686:3687  2 */\n      0x02\n        /* \"contracts/homework/intToRoman.sol\":3681:3682  i */\n      dup4\n        /* \"contracts/homework/intToRoman.sol\":3681:3687  i == 2 */\n      sub\n        /* \"contracts/homework/intToRoman.sol\":3677:4679  if (i == 2) {... */\n      tag_25\n      jumpi\n        /* \"contracts/homework/intToRoman.sol\":3715:3718  500 */\n      0x01f4\n        /* \"contracts/homework/intToRoman.sol\":3707:3718  value = 500 */\n      swap2\n      pop\n        /* \"contracts/homework/intToRoman.sol\":3736:3748  symbol = \"D\" */\n      mload(0x40)\n      dup1\n      0x40\n      add\n      0x40\n      mstore\n      dup1\n      0x01\n      dup2\n      mstore\n      0x20\n      add\n      0x4400000000000000000000000000000000000000000000000000000000000000\n      dup2\n      mstore\n      pop\n      swap1\n      pop\n        /* \"contracts/homework/intToRoman.sol\":3677:4679  if (i == 2) {... */\n      jump(tag_26)\n    tag_25:\n        /* \"contracts/homework/intToRoman.sol\":3778:3779  3 */\n      0x03\n        /* \"contracts/homework/intToRoman.sol\":3773:3774  i */\n      dup4\n        /* \"contracts/homework/intToRoman.sol\":3773:3779  i == 3 */\n      sub\n        /* \"contracts/homework/intToRoman.sol\":3769:4679  if (i == 3) {... */\n      tag_27\n      jumpi\n        /* \"contracts/homework/intToRoman.sol\":3807:3810  400 */\n      0x0190\n        /* \"contracts/homework/intToRoman.sol\":3799:3810  value = 400 */\n      swap2\n      pop\n        /* \"contracts/homework/intToRoman.sol\":3828:3841  symbol = \"CD\" */\n      mload(0x40)\n      dup1\n      0x40\n      add\n      0x40\n      mstore\n      dup1\n      0x02\n      dup2\n      mstore\n      0x20\n      add\n      0x4344000000000000000000000000000000000000000000000000000000000000\n      dup2\n      mstore\n      pop\n      swap1\n      pop\n        /* \"contracts/homework/intToRoman.sol\":3769:4679  if (i == 3) {... */\n      jump(tag_28)\n    tag_27:\n        /* \"contracts/homework/intToRoman.sol\":3871:3872  4 */\n      0x04\n        /* \"contracts/homework/intToRoman.sol\":3866:3867  i */\n      dup4\n        /* \"contracts/homework/intToRoman.sol\":3866:3872  i == 4 */\n      sub\n        /* \"contracts/homework/intToRoman.sol\":3862:4679  if (i == 4) {... */\n      tag_29\n      jumpi\n        /* \"contracts/homework/intToRoman.sol\":3900:3903  100 */\n      0x64\n        /* \"contracts/homework/intToRoman.sol\":3892:3903  value = 100 */\n      swap2\n      pop\n        /* \"contracts/homework/intToRoman.sol\":3921:3933  symbol = \"C\" */\n      mload(0x40)\n      dup1\n      0x40\n      add\n      0x40\n      mstore\n      dup1\n      0x01\n      dup2\n      mstore\n      0x20\n      add\n      0x4300000000000000000000000000000000000000000000000000000000000000\n      dup2\n      mstore\n      pop\n      swap1\n      pop\n        /* \"contracts/homework/intToRoman.sol\":3862:4679  if (i == 4) {... */\n      jump(tag_30)\n    tag_29:\n        /* \"contracts/homework/intToRoman.sol\":3963:3964  5 */\n      0x05\n        /* \"contracts/homework/intToRoman.sol\":3958:3959  i */\n      dup4\n        /* \"contracts/homework/intToRoman.sol\":3958:3964  i == 5 */\n      sub\n        /* \"contracts/homework/intToRoman.sol\":3954:4679  if (i == 5) {... */\n      tag_31\n      jumpi\n        /* \"contracts/homework/intToRoman.sol\":3992:3994  90 */\n      0x5a\n        /* \"contracts/homework/intToRoman.sol\":3984:3994  value = 90 */\n      swap2\n      pop\n        /* \"contracts/homework/intToRoman.sol\":4012:4025  symbol = \"XC\" */\n      mload(0x40)\n      dup1\n      0x40\n      add\n      0x40\n      mstore\n      dup1\n      0x02\n      dup2\n      mstore\n      0x20\n      add\n      0x5843000000000000000000000000000000000000000000000000000000000000\n      dup2\n      mstore\n      pop\n      swap1\n      pop\n        /* \"contracts/homework/intToRoman.sol\":3954:4679  if (i == 5) {... */\n      jump(tag_32)\n    tag_31:\n        /* \"contracts/homework/intToRoman.sol\":4055:4056  6 */\n      0x06\n        /* \"contracts/homework/intToRoman.sol\":4050:4051  i */\n      dup4\n        /* \"contracts/homework/intToRoman.sol\":4050:4056  i == 6 */\n      sub\n        /* \"contracts/homework/intToRoman.sol\":4046:4679  if (i == 6) {... */\n      tag_33\n      jumpi\n        /* \"contracts/homework/intToRoman.sol\":4084:4086  50 */\n      0x32\n        /* \"contracts/homework/intToRoman.sol\":4076:4086  value = 50 */\n      swap2\n      pop\n        /* \"contracts/homework/intToRoman.sol\":4104:4116  symbol = \"L\" */\n      mload(0x40)\n      dup1\n      0x40\n      add\n      0x40\n      mstore\n      dup1\n      0x01\n      dup2\n      mstore\n      0x20\n      add\n      0x4c00000000000000000000000000000000000000000000000000000000000000\n      dup2\n      mstore\n      pop\n      swap1\n      pop\n        /* \"contracts/homework/intToRoman.sol\":4046:4679  if (i == 6) {... */\n      jump(tag_34)\n    tag_33:\n        /* \"contracts/homework/intToRoman.sol\":4146:4147  7 */\n      0x07\n        /* \"contracts/homework/intToRoman.sol\":4141:4142  i */\n      dup4\n        /* \"contracts/homework/intToRoman.sol\":4141:4147  i == 7 */\n      sub\n        /* \"contracts/homework/intToRoman.sol\":4137:4679  if (i == 7) {... */\n      tag_35\n      jumpi\n        /* \"contracts/homework/intToRoman.sol\":4175:4177  40 */\n      0x28\n        /* \"contracts/homework/intToRoman.sol\":4167:4177  value = 40 */\n      swap2\n      pop\n        /* \"contracts/homework/intToRoman.sol\":4195:4208  symbol = \"XL\" */\n      mload(0x40)\n      dup1\n      0x40\n      add\n      0x40\n      mstore\n      dup1\n      0x02\n      dup2\n      mstore\n      0x20\n      add\n      0x584c000000000000000000000000000000000000000000000000000000000000\n      dup2\n      mstore\n      pop\n      swap1\n      pop\n        /* \"contracts/homework/intToRoman.sol\":4137:4679  if (i == 7) {... */\n      jump(tag_36)\n    tag_35:\n        /* \"contracts/homework/intToRoman.sol\":4238:4239  8 */\n      0x08\n        /* \"contracts/homework/intToRoman.sol\":4233:4234  i */\n      dup4\n        /* \"contracts/homework/intToRoman.sol\":4233:4239  i == 8 */\n      sub\n        /* \"contracts/homework/intToRoman.sol\":4229:4679  if (i == 8) {... */\n      tag_37\n      jumpi\n        /* \"contracts/homework/intToRoman.sol\":4267:4269  10 */\n      0x0a\n        /* \"contracts/homework/intToRoman.sol\":4259:4269  value = 10 */\n      swap2\n      pop\n        /* \"contracts/homework/intToRoman.sol\":4287:4299  symbol = \"X\" */\n      mload(0x40)\n      dup1\n      0x40\n      add\n      0x40\n      mstore\n      dup1\n      0x01\n      dup2\n      mstore\n      0x20\n      add\n      0x5800000000000000000000000000000000000000000000000000000000000000\n      dup2\n      mstore\n      pop\n      swap1\n      pop\n        /* \"contracts/homework/intToRoman.sol\":4229:4679  if (i == 8) {... */\n      jump(tag_38)\n    tag_37:\n        /* \"contracts/homework/intToRoman.sol\":4329:4330  9 */\n      0x09\n        /* \"contracts/homework/intToRoman.sol\":4324:4325  i */\n      dup4\n        /* \"contracts/homework/intToRoman.sol\":4324:4330  i == 9 */\n      sub\n        /* \"contracts/homework/intToRoman.sol\":4320:4679  if (i == 9) {... */\n      tag_39\n      jumpi\n        /* \"contracts/homework/intToRoman.sol\":4358:4359  9 */\n      0x09\n        /* \"contracts/homework/intToRoman.sol\":4350:4359  value = 9 */\n      swap2\n      pop\n        /* \"contracts/homework/intToRoman.sol\":4377:4390  symbol = \"IX\" */\n      mload(0x40)\n      dup1\n      0x40\n      add\n      0x40\n      mstore\n      dup1\n      0x02\n      dup2\n      mstore\n      0x20\n      add\n      0x4958000000000000000000000000000000000000000000000000000000000000\n      dup2\n      mstore\n      pop\n      swap1\n      pop\n        /* \"contracts/homework/intToRoman.sol\":4320:4679  if (i == 9) {... */\n      jump(tag_40)\n    tag_39:\n        /* \"contracts/homework/intToRoman.sol\":4420:4422  10 */\n      0x0a\n        /* \"contracts/homework/intToRoman.sol\":4415:4416  i */\n      dup4\n        /* \"contracts/homework/intToRoman.sol\":4415:4422  i == 10 */\n      sub\n        /* \"contracts/homework/intToRoman.sol\":4411:4679  if (i == 10) {... */\n      tag_41\n      jumpi\n        /* \"contracts/homework/intToRoman.sol\":4450:4451  5 */\n      0x05\n        /* \"contracts/homework/intToRoman.sol\":4442:4451  value = 5 */\n      swap2\n      pop\n        /* \"contracts/homework/intToRoman.sol\":4469:4481  symbol = \"V\" */\n      mload(0x40)\n      dup1\n      0x40\n      add\n      0x40\n      mstore\n      dup1\n      0x01\n      dup2\n      mstore\n      0x20\n      add\n      0x5600000000000000000000000000000000000000000000000000000000000000\n      dup2\n      mstore\n      pop\n      swap1\n      pop\n        /* \"contracts/homework/intToRoman.sol\":4411:4679  if (i == 10) {... */\n      jump(tag_42)\n    tag_41:\n        /* \"contracts/homework/intToRoman.sol\":4511:4513  11 */\n      0x0b\n        /* \"contracts/homework/intToRoman.sol\":4506:4507  i */\n      dup4\n        /* \"contracts/homework/intToRoman.sol\":4506:4513  i == 11 */\n      sub\n        /* \"contracts/homework/intToRoman.sol\":4502:4679  if (i == 11) {... */\n      tag_43\n      jumpi\n        /* \"contracts/homework/intToRoman.sol\":4541:4542  4 */\n      0x04\n        /* \"contracts/homework/intToRoman.sol\":4533:4542  value = 4 */\n      swap2\n      pop\n        /* \"contracts/homework/intToRoman.sol\":4560:4573  symbol = \"IV\" */\n      mload(0x40)\n      dup1\n      0x40\n      add\n      0x40\n      mstore\n      dup1\n      0x02\n      dup2\n      mstore\n      0x20\n      add\n      0x4956000000000000000000000000000000000000000000000000000000000000\n      dup2\n      mstore\n      pop\n      swap1\n      pop\n        /* \"contracts/homework/intToRoman.sol\":4502:4679  if (i == 11) {... */\n      jump(tag_44)\n    tag_43:\n        /* \"contracts/homework/intToRoman.sol\":4603:4605  12 */\n      0x0c\n        /* \"contracts/homework/intToRoman.sol\":4598:4599  i */\n      dup4\n        /* \"contracts/homework/intToRoman.sol\":4598:4605  i == 12 */\n      sub\n        /* \"contracts/homework/intToRoman.sol\":4594:4679  if (i == 12) {... */\n      tag_45\n      jumpi\n        /* \"contracts/homework/intToRoman.sol\":4633:4634  1 */\n      0x01\n        /* \"contracts/homework/intToRoman.sol\":4625:4634  value = 1 */\n      swap2\n      pop\n        /* \"contracts/homework/intToRoman.sol\":4652:4664  symbol = \"I\" */\n      mload(0x40)\n      dup1\n      0x40\n      add\n      0x40\n      mstore\n      dup1\n      0x01\n      dup2\n      mstore\n      0x20\n      add\n      0x4900000000000000000000000000000000000000000000000000000000000000\n      dup2\n      mstore\n      pop\n      swap1\n      pop\n        /* \"contracts/homework/intToRoman.sol\":4594:4679  if (i == 12) {... */\n    tag_45:\n        /* \"contracts/homework/intToRoman.sol\":4502:4679  if (i == 11) {... */\n    tag_44:\n        /* \"contracts/homework/intToRoman.sol\":4411:4679  if (i == 10) {... */\n    tag_42:\n        /* \"contracts/homework/intToRoman.sol\":4320:4679  if (i == 9) {... */\n    tag_40:\n        /* \"contracts/homework/intToRoman.sol\":4229:4679  if (i == 8) {... */\n    tag_38:\n        /* \"contracts/homework/intToRoman.sol\":4137:4679  if (i == 7) {... */\n    tag_36:\n        /* \"contracts/homework/intToRoman.sol\":4046:4679  if (i == 6) {... */\n    tag_34:\n        /* \"contracts/homework/intToRoman.sol\":3954:4679  if (i == 5) {... */\n    tag_32:\n        /* \"contracts/homework/intToRoman.sol\":3862:4679  if (i == 4) {... */\n    tag_30:\n        /* \"contracts/homework/intToRoman.sol\":3769:4679  if (i == 3) {... */\n    tag_28:\n        /* \"contracts/homework/intToRoman.sol\":3677:4679  if (i == 2) {... */\n    tag_26:\n        /* \"contracts/homework/intToRoman.sol\":3584:4679  if (i == 1) {... */\n    tag_24:\n        /* \"contracts/homework/intToRoman.sol\":3500:4679  if(i==0){... */\n    tag_22:\n        /* \"contracts/homework/intToRoman.sol\":4709:4714  value */\n      dup2\n        /* \"contracts/homework/intToRoman.sol\":4697:4706  remaining */\n      dup5\n        /* \"contracts/homework/intToRoman.sol\":4697:4714  remaining < value */\n      lt\n        /* \"contracts/homework/intToRoman.sol\":4694:4724  if(remaining < value) continue */\n      iszero\n      tag_46\n      jumpi\n        /* \"contracts/homework/intToRoman.sol\":4716:4724  continue */\n      pop\n      pop\n      jump(tag_19)\n        /* \"contracts/homework/intToRoman.sol\":4694:4724  if(remaining < value) continue */\n    tag_46:\n        /* \"contracts/homework/intToRoman.sol\":4741:4760  uint256 repeatCount */\n      0x00\n        /* \"contracts/homework/intToRoman.sol\":4773:4778  value */\n      dup3\n        /* \"contracts/homework/intToRoman.sol\":4762:4771  remaining */\n      dup6\n        /* \"contracts/homework/intToRoman.sol\":4762:4778  remaining /value */\n      tag_47\n      swap2\n      swap1\n      tag_48\n      jump\t// in\n    tag_47:\n        /* \"contracts/homework/intToRoman.sol\":4741:4778  uint256 repeatCount =remaining /value */\n      swap1\n      pop\n        /* \"contracts/homework/intToRoman.sol\":4818:4823  value */\n      dup3\n        /* \"contracts/homework/intToRoman.sol\":4805:4814  remaining */\n      dup6\n        /* \"contracts/homework/intToRoman.sol\":4805:4823  remaining  % value */\n      tag_49\n      swap2\n      swap1\n      tag_50\n      jump\t// in\n    tag_49:\n        /* \"contracts/homework/intToRoman.sol\":4793:4823  remaining = remaining  % value */\n      swap5\n      pop\n        /* \"contracts/homework/intToRoman.sol\":4843:4852  uint256 k */\n      0x00\n        /* \"contracts/homework/intToRoman.sol\":4855:4856  0 */\n      0x00\n        /* \"contracts/homework/intToRoman.sol\":4843:4856  uint256 k = 0 */\n      swap1\n      pop\n        /* \"contracts/homework/intToRoman.sol\":4838:5035  for (uint256 k = 0; k < repeatCount; k++) {... */\n    tag_51:\n        /* \"contracts/homework/intToRoman.sol\":4862:4873  repeatCount */\n      dup2\n        /* \"contracts/homework/intToRoman.sol\":4858:4859  k */\n      dup2\n        /* \"contracts/homework/intToRoman.sol\":4858:4873  k < repeatCount */\n      lt\n        /* \"contracts/homework/intToRoman.sol\":4838:5035  for (uint256 k = 0; k < repeatCount; k++) {... */\n      iszero\n      tag_52\n      jumpi\n        /* \"contracts/homework/intToRoman.sol\":4903:4912  uint256 j */\n      0x00\n        /* \"contracts/homework/intToRoman.sol\":4915:4916  0 */\n      0x00\n        /* \"contracts/homework/intToRoman.sol\":4903:4916  uint256 j = 0 */\n      swap1\n      pop\n        /* \"contracts/homework/intToRoman.sol\":4898:5021  for (uint256 j = 0; j < symbol.length; j++) {... */\n    tag_54:\n        /* \"contracts/homework/intToRoman.sol\":4922:4928  symbol */\n      dup4\n        /* \"contracts/homework/intToRoman.sol\":4922:4935  symbol.length */\n      mload\n        /* \"contracts/homework/intToRoman.sol\":4918:4919  j */\n      dup2\n        /* \"contracts/homework/intToRoman.sol\":4918:4935  j < symbol.length */\n      lt\n        /* \"contracts/homework/intToRoman.sol\":4898:5021  for (uint256 j = 0; j < symbol.length; j++) {... */\n      iszero\n      tag_55\n      jumpi\n        /* \"contracts/homework/intToRoman.sol\":4993:4999  symbol */\n      dup4\n        /* \"contracts/homework/intToRoman.sol\":5000:5001  j */\n      dup2\n        /* \"contracts/homework/intToRoman.sol\":4993:5002  symbol[j] */\n      dup2\n      mload\n      dup2\n      lt\n      tag_57\n      jumpi\n      tag_58\n      tag_59\n      jump\t// in\n    tag_58:\n    tag_57:\n      0x20\n      add\n      add\n      mload\n      0xf8\n      shr\n      0xf8\n      shl\n        /* \"contracts/homework/intToRoman.sol\":4964:4975  resultBytes */\n      dup10\n        /* \"contracts/homework/intToRoman.sol\":4976:4989  resultIndex++ */\n      dup10\n      dup1\n      tag_60\n      swap1\n      tag_61\n      jump\t// in\n    tag_60:\n      swap11\n      pop\n        /* \"contracts/homework/intToRoman.sol\":4964:4990  resultBytes[resultIndex++] */\n      dup2\n      mload\n      dup2\n      lt\n      tag_62\n      jumpi\n      tag_63\n      tag_59\n      jump\t// in\n    tag_63:\n    tag_62:\n      0x20\n      add\n      add\n        /* \"contracts/homework/intToRoman.sol\":4964:5002  resultBytes[resultIndex++] = symbol[j] */\n      swap1\n      not(0xffffffffffffffffffffffffffffffffffffffffffffffffffffffffffffff)\n      and\n      swap1\n      dup2\n      0x00\n      byte\n      swap1\n      mstore8\n      pop\n        /* \"contracts/homework/intToRoman.sol\":4937:4940  j++ */\n      dup1\n      dup1\n      0x01\n      add\n      swap2\n      pop\n      pop\n        /* \"contracts/homework/intToRoman.sol\":4898:5021  for (uint256 j = 0; j < symbol.length; j++) {... */\n      jump(tag_54)\n    tag_55:\n      pop\n        /* \"contracts/homework/intToRoman.sol\":4875:4878  k++ */\n      dup1\n      dup1\n      0x01\n      add\n      swap2\n      pop\n      pop\n        /* \"contracts/homework/intToRoman.sol\":4838:5035  for (uint256 k = 0; k < repeatCount; k++) {... */\n      jump(tag_51)\n    tag_52:\n      pop\n        /* \"contracts/homework/intToRoman.sol\":3426:5045  {... */\n      pop\n      pop\n      pop\n        /* \"contracts/homework/intToRoman.sol\":3385:5045  for (uint256 i=0;i<13 && remaining>0;i++){... */\n    tag_19:\n        /* \"contracts/homework/intToRoman.sol\":3422:3425  i++ */\n      dup1\n      dup1\n      tag_64\n      swap1\n      tag_61\n      jump\t// in\n    tag_64:\n      swap2\n      pop\n      pop\n        /* \"contracts/homework/intToRoman.sol\":3385:5045  for (uint256 i=0;i<13 && remaining>0;i++){... */\n      jump(tag_17)\n    tag_18:\n      pop\n        /* \"contracts/homework/intToRoman.sol\":5055:5078  bytes memory finalBytes */\n      0x00\n        /* \"contracts/homework/intToRoman.sol\":5091:5102  resultIndex */\n      dup3\n        /* \"contracts/homework/intToRoman.sol\":5081:5103  new bytes(resultIndex) */\n      0xffffffffffffffff\n      dup2\n      gt\n      iszero\n      tag_65\n      jumpi\n      tag_66\n      tag_15\n      jump\t// in\n    tag_66:\n    tag_65:\n      mload(0x40)\n      swap1\n      dup1\n      dup3\n      mstore\n      dup1\n      0x1f\n      add\n      not(0x1f)\n      and\n      0x20\n      add\n      dup3\n      add\n      0x40\n      mstore\n      dup1\n      iszero\n      tag_67\n      jumpi\n      dup2\n      0x20\n      add\n      0x01\n      dup3\n      mul\n      dup1\n      calldatasize\n      dup4\n      calldatacopy\n      dup1\n      dup3\n      add\n      swap2\n      pop\n      pop\n      swap1\n      pop\n    tag_67:\n      pop\n        /* \"contracts/homework/intToRoman.sol\":5055:5103  bytes memory finalBytes = new bytes(resultIndex) */\n      swap1\n      pop\n        /* \"contracts/homework/intToRoman.sol\":5118:5127  uint256 i */\n      0x00\n        /* \"contracts/homework/intToRoman.sol\":5130:5131  0 */\n      0x00\n        /* \"contracts/homework/intToRoman.sol\":5118:5131  uint256 i = 0 */\n      swap1\n      pop\n        /* \"contracts/homework/intToRoman.sol\":5113:5210  for (uint256 i = 0; i < resultIndex; i++) {... */\n    tag_68:\n        /* \"contracts/homework/intToRoman.sol\":5137:5148  resultIndex */\n      dup4\n        /* \"contracts/homework/intToRoman.sol\":5133:5134  i */\n      dup2\n        /* \"contracts/homework/intToRoman.sol\":5133:5148  i < resultIndex */\n      lt\n        /* \"contracts/homework/intToRoman.sol\":5113:5210  for (uint256 i = 0; i < resultIndex; i++) {... */\n      iszero\n      tag_69\n      jumpi\n        /* \"contracts/homework/intToRoman.sol\":5185:5196  resultBytes */\n      dup5\n        /* \"contracts/homework/intToRoman.sol\":5197:5198  i */\n      dup2\n        /* \"contracts/homework/intToRoman.sol\":5185:5199  resultBytes[i] */\n      dup2\n      mload\n      dup2\n      lt\n      tag_71\n      jumpi\n      tag_72\n      tag_59\n      jump\t// in\n    tag_72:\n    tag_71:\n      0x20\n      add\n      add\n      mload\n      0xf8\n      shr\n      0xf8\n      shl\n        /* \"contracts/homework/intToRoman.sol\":5169:5179  finalBytes */\n      dup3\n        /* \"contracts/homework/intToRoman.sol\":5180:5181  i */\n      dup3\n        /* \"contracts/homework/intToRoman.sol\":5169:5182  finalBytes[i] */\n      dup2\n      mload\n      dup2\n      lt\n      tag_73\n      jumpi\n      tag_74\n      tag_59\n      jump\t// in\n    tag_74:\n    tag_73:\n      0x20\n      add\n      add\n        /* \"contracts/homework/intToRoman.sol\":5169:5199  finalBytes[i] = resultBytes[i] */\n      swap1\n      not(0xffffffffffffffffffffffffffffffffffffffffffffffffffffffffffffff)\n      and\n      swap1\n      dup2\n      0x00\n      byte\n      swap1\n      mstore8\n      pop\n        /* \"contracts/homework/intToRoman.sol\":5150:5153  i++ */\n      dup1\n      dup1\n      0x01\n      add\n      swap2\n      pop\n      pop\n        /* \"contracts/homework/intToRoman.sol\":5113:5210  for (uint256 i = 0; i < resultIndex; i++) {... */\n      jump(tag_68)\n    tag_69:\n      pop\n        /* \"contracts/homework/intToRoman.sol\":5234:5244  finalBytes */\n      dup1\n        /* \"contracts/homework/intToRoman.sol\":5220:5245  return string(finalBytes) */\n      swap5\n      pop\n      pop\n      pop\n      pop\n      pop\n        /* \"contracts/homework/intToRoman.sol\":3124:5254  function intToRoman1(uint256 num)public pure returns(string memory){... */\n    tag_10:\n      swap2\n      swap1\n      pop\n      jump\t// out\n        /* \"#utility.yul\":88:205   */\n    tag_76:\n        /* \"#utility.yul\":197:198   */\n      0x00\n        /* \"#utility.yul\":194:195   */\n      0x00\n        /* \"#utility.yul\":187:199   */\n      revert\n        /* \"#utility.yul\":334:411   */\n    tag_78:\n        /* \"#utility.yul\":371:378   */\n      0x00\n        /* \"#utility.yul\":400:405   */\n      dup2\n        /* \"#utility.yul\":389:405   */\n      swap1\n      pop\n        /* \"#utility.yul\":334:411   */\n      swap2\n      swap1\n      pop\n      jump\t// out\n        /* \"#utility.yul\":417:539   */\n    tag_79:\n        /* \"#utility.yul\":490:514   */\n      tag_94\n        /* \"#utility.yul\":508:513   */\n      dup2\n        /* \"#utility.yul\":490:514   */\n      tag_78\n      jump\t// in\n    tag_94:\n        /* \"#utility.yul\":483:488   */\n      dup2\n        /* \"#utility.yul\":480:515   */\n      eq\n        /* \"#utility.yul\":470:533   */\n      tag_95\n      jumpi\n        /* \"#utility.yul\":529:530   */\n      0x00\n        /* \"#utility.yul\":526:527   */\n      0x00\n        /* \"#utility.yul\":519:531   */\n      revert\n        /* \"#utility.yul\":470:533   */\n    tag_95:\n        /* \"#utility.yul\":417:539   */\n      pop\n      jump\t// out\n        /* \"#utility.yul\":545:684   */\n    tag_80:\n        /* \"#utility.yul\":591:596   */\n      0x00\n        /* \"#utility.yul\":629:635   */\n      dup2\n        /* \"#utility.yul\":616:636   */\n      calldataload\n        /* \"#utility.yul\":607:636   */\n      swap1\n      pop\n        /* \"#utility.yul\":645:678   */\n      tag_97\n        /* \"#utility.yul\":672:677   */\n      dup2\n        /* \"#utility.yul\":645:678   */\n      tag_79\n      jump\t// in\n    tag_97:\n        /* \"#utility.yul\":545:684   */\n      swap3\n      swap2\n      pop\n      pop\n      jump\t// out\n        /* \"#utility.yul\":690:1019   */\n    tag_6:\n        /* \"#utility.yul\":749:755   */\n      0x00\n        /* \"#utility.yul\":798:800   */\n      0x20\n        /* \"#utility.yul\":786:795   */\n      dup3\n        /* \"#utility.yul\":777:784   */\n      dup5\n        /* \"#utility.yul\":773:796   */\n      sub\n        /* \"#utility.yul\":769:801   */\n      slt\n        /* \"#utility.yul\":766:885   */\n      iszero\n      tag_99\n      jumpi\n        /* \"#utility.yul\":804:883   */\n      tag_100\n      tag_76\n      jump\t// in\n    tag_100:\n        /* \"#utility.yul\":766:885   */\n    tag_99:\n        /* \"#utility.yul\":924:925   */\n      0x00\n        /* \"#utility.yul\":949:1002   */\n      tag_101\n        /* \"#utility.yul\":994:1001   */\n      dup5\n        /* \"#utility.yul\":985:991   */\n      dup3\n        /* \"#utility.yul\":974:983   */\n      dup6\n        /* \"#utility.yul\":970:992   */\n      add\n        /* \"#utility.yul\":949:1002   */\n      tag_80\n      jump\t// in\n    tag_101:\n        /* \"#utility.yul\":939:1002   */\n      swap2\n      pop\n        /* \"#utility.yul\":895:1012   */\n      pop\n        /* \"#utility.yul\":690:1019   */\n      swap3\n      swap2\n      pop\n      pop\n      jump\t// out\n        /* \"#utility.yul\":1025:1124   */\n    tag_81:\n        /* \"#utility.yul\":1077:1083   */\n      0x00\n        /* \"#utility.yul\":1111:1116   */\n      dup2\n        /* \"#utility.yul\":1105:1117   */\n      mload\n        /* \"#utility.yul\":1095:1117   */\n      swap1\n      pop\n        /* \"#utility.yul\":1025:1124   */\n      swap2\n      swap1\n      pop\n      jump\t// out\n        /* \"#utility.yul\":1130:1299   */\n    tag_82:\n        /* \"#utility.yul\":1214:1225   */\n      0x00\n        /* \"#utility.yul\":1248:1254   */\n      dup3\n        /* \"#utility.yul\":1243:1246   */\n      dup3\n        /* \"#utility.yul\":1236:1255   */\n      mstore\n        /* \"#utility.yul\":1288:1292   */\n      0x20\n        /* \"#utility.yul\":1283:1286   */\n      dup3\n        /* \"#utility.yul\":1279:1293   */\n      add\n        /* \"#utility.yul\":1264:1293   */\n      swap1\n      pop\n        /* \"#utility.yul\":1130:1299   */\n      swap3\n      swap2\n      pop\n      pop\n      jump\t// out\n        /* \"#utility.yul\":1305:1444   */\n    tag_83:\n        /* \"#utility.yul\":1394:1400   */\n      dup3\n        /* \"#utility.yul\":1389:1392   */\n      dup2\n        /* \"#utility.yul\":1384:1387   */\n      dup4\n        /* \"#utility.yul\":1378:1401   */\n      mcopy\n        /* \"#utility.yul\":1435:1436   */\n      0x00\n        /* \"#utility.yul\":1426:1432   */\n      dup4\n        /* \"#utility.yul\":1421:1424   */\n      dup4\n        /* \"#utility.yul\":1417:1433   */\n      add\n        /* \"#utility.yul\":1410:1437   */\n      mstore\n        /* \"#utility.yul\":1305:1444   */\n      pop\n      pop\n      pop\n      jump\t// out\n        /* \"#utility.yul\":1450:1552   */\n    tag_84:\n        /* \"#utility.yul\":1491:1497   */\n      0x00\n        /* \"#utility.yul\":1542:1544   */\n      0x1f\n        /* \"#utility.yul\":1538:1545   */\n      not\n        /* \"#utility.yul\":1533:1535   */\n      0x1f\n        /* \"#utility.yul\":1526:1531   */\n      dup4\n        /* \"#utility.yul\":1522:1536   */\n      add\n        /* \"#utility.yul\":1518:1546   */\n      and\n        /* \"#utility.yul\":1508:1546   */\n      swap1\n      pop\n        /* \"#utility.yul\":1450:1552   */\n      swap2\n      swap1\n      pop\n      jump\t// out\n        /* \"#utility.yul\":1558:1935   */\n    tag_85:\n        /* \"#utility.yul\":1646:1649   */\n      0x00\n        /* \"#utility.yul\":1674:1713   */\n      tag_107\n        /* \"#utility.yul\":1707:1712   */\n      dup3\n        /* \"#utility.yul\":1674:1713   */\n      tag_81\n      jump\t// in\n    tag_107:\n        /* \"#utility.yul\":1729:1800   */\n      tag_108\n        /* \"#utility.yul\":1793:1799   */\n      dup2\n        /* \"#utility.yul\":1788:1791   */\n      dup6\n        /* \"#utility.yul\":1729:1800   */\n      tag_82\n      jump\t// in\n    tag_108:\n        /* \"#utility.yul\":1722:1800   */\n      swap4\n      pop\n        /* \"#utility.yul\":1809:1874   */\n      tag_109\n        /* \"#utility.yul\":1867:1873   */\n      dup2\n        /* \"#utility.yul\":1862:1865   */\n      dup6\n        /* \"#utility.yul\":1855:1859   */\n      0x20\n        /* \"#utility.yul\":1848:1853   */\n      dup7\n        /* \"#utility.yul\":1844:1860   */\n      add\n        /* \"#utility.yul\":1809:1874   */\n      tag_83\n      jump\t// in\n    tag_109:\n        /* \"#utility.yul\":1899:1928   */\n      tag_110\n        /* \"#utility.yul\":1921:1927   */\n      dup2\n        /* \"#utility.yul\":1899:1928   */\n      tag_84\n      jump\t// in\n    tag_110:\n        /* \"#utility.yul\":1894:1897   */\n      dup5\n        /* \"#utility.yul\":1890:1929   */\n      add\n        /* \"#utility.yul\":1883:1929   */\n      swap2\n      pop\n        /* \"#utility.yul\":1650:1935   */\n      pop\n        /* \"#utility.yul\":1558:1935   */\n      swap3\n      swap2\n      pop\n      pop\n      jump\t// out\n        /* \"#utility.yul\":1941:2254   */\n    tag_9:\n        /* \"#utility.yul\":2054:2058   */\n      0x00\n        /* \"#utility.yul\":2092:2094   */\n      0x20\n        /* \"#utility.yul\":2081:2090   */\n      dup3\n        /* \"#utility.yul\":2077:2095   */\n      add\n        /* \"#utility.yul\":2069:2095   */\n      swap1\n      pop\n        /* \"#utility.yul\":2141:2150   */\n      dup2\n        /* \"#utility.yul\":2135:2139   */\n      dup2\n        /* \"#utility.yul\":2131:2151   */\n      sub\n        /* \"#utility.yul\":2127:2128   */\n      0x00\n        /* \"#utility.yul\":2116:2125   */\n      dup4\n        /* \"#utility.yul\":2112:2129   */\n      add\n        /* \"#utility.yul\":2105:2152   */\n      mstore\n        /* \"#utility.yul\":2169:2247   */\n      tag_112\n        /* \"#utility.yul\":2242:2246   */\n      dup2\n        /* \"#utility.yul\":2233:2239   */\n      dup5\n        /* \"#utility.yul\":2169:2247   */\n      tag_85\n      jump\t// in\n    tag_112:\n        /* \"#utility.yul\":2161:2247   */\n      swap1\n      pop\n        /* \"#utility.yul\":1941:2254   */\n      swap3\n      swap2\n      pop\n      pop\n      jump\t// out\n        /* \"#utility.yul\":2260:2440   */\n    tag_15:\n        /* \"#utility.yul\":2308:2385   */\n      0x4e487b7100000000000000000000000000000000000000000000000000000000\n        /* \"#utility.yul\":2305:2306   */\n      0x00\n        /* \"#utility.yul\":2298:2386   */\n      mstore\n        /* \"#utility.yul\":2405:2409   */\n      0x41\n        /* \"#utility.yul\":2402:2403   */\n      0x04\n        /* \"#utility.yul\":2395:2410   */\n      mstore\n        /* \"#utility.yul\":2429:2433   */\n      0x24\n        /* \"#utility.yul\":2426:2427   */\n      0x00\n        /* \"#utility.yul\":2419:2434   */\n      revert\n        /* \"#utility.yul\":2446:2626   */\n    tag_86:\n        /* \"#utility.yul\":2494:2571   */\n      0x4e487b7100000000000000000000000000000000000000000000000000000000\n        /* \"#utility.yul\":2491:2492   */\n      0x00\n        /* \"#utility.yul\":2484:2572   */\n      mstore\n        /* \"#utility.yul\":2591:2595   */\n      0x12\n        /* \"#utility.yul\":2588:2589   */\n      0x04\n        /* \"#utility.yul\":2581:2596   */\n      mstore\n        /* \"#utility.yul\":2615:2619   */\n      0x24\n        /* \"#utility.yul\":2612:2613   */\n      0x00\n        /* \"#utility.yul\":2605:2620   */\n      revert\n        /* \"#utility.yul\":2632:2812   */\n    tag_87:\n        /* \"#utility.yul\":2680:2757   */\n      0x4e487b7100000000000000000000000000000000000000000000000000000000\n        /* \"#utility.yul\":2677:2678   */\n      0x00\n        /* \"#utility.yul\":2670:2758   */\n      mstore\n        /* \"#utility.yul\":2777:2781   */\n      0x11\n        /* \"#utility.yul\":2774:2775   */\n      0x04\n        /* \"#utility.yul\":2767:2782   */\n      mstore\n        /* \"#utility.yul\":2801:2805   */\n      0x24\n        /* \"#utility.yul\":2798:2799   */\n      0x00\n        /* \"#utility.yul\":2791:2806   */\n      revert\n        /* \"#utility.yul\":2818:3003   */\n    tag_48:\n        /* \"#utility.yul\":2858:2859   */\n      0x00\n        /* \"#utility.yul\":2875:2895   */\n      tag_117\n        /* \"#utility.yul\":2893:2894   */\n      dup3\n        /* \"#utility.yul\":2875:2895   */\n      tag_78\n      jump\t// in\n    tag_117:\n        /* \"#utility.yul\":2870:2895   */\n      swap2\n      pop\n        /* \"#utility.yul\":2909:2929   */\n      tag_118\n        /* \"#utility.yul\":2927:2928   */\n      dup4\n        /* \"#utility.yul\":2909:2929   */\n      tag_78\n      jump\t// in\n    tag_118:\n        /* \"#utility.yul\":2904:2929   */\n      swap3\n      pop\n        /* \"#utility.yul\":2948:2949   */\n      dup3\n        /* \"#utility.yul\":2938:2973   */\n      tag_119\n      jumpi\n        /* \"#utility.yul\":2953:2971   */\n      tag_120\n      tag_86\n      jump\t// in\n    tag_120:\n        /* \"#utility.yul\":2938:2973   */\n    tag_119:\n        /* \"#utility.yul\":2995:2996   */\n      dup3\n        /* \"#utility.yul\":2992:2993   */\n      dup3\n        /* \"#utility.yul\":2988:2997   */\n      div\n        /* \"#utility.yul\":2983:2997   */\n      swap1\n      pop\n        /* \"#utility.yul\":2818:3003   */\n      swap3\n      swap2\n      pop\n      pop\n      jump\t// out\n        /* \"#utility.yul\":3009:3185   */\n    tag_50:\n        /* \"#utility.yul\":3041:3042   */\n      0x00\n        /* \"#utility.yul\":3058:3078   */\n      tag_122\n        /* \"#utility.yul\":3076:3077   */\n      dup3\n        /* \"#utility.yul\":3058:3078   */\n      tag_78\n      jump\t// in\n    tag_122:\n        /* \"#utility.yul\":3053:3078   */\n      swap2\n      pop\n        /* \"#utility.yul\":3092:3112   */\n      tag_123\n        /* \"#utility.yul\":3110:3111   */\n      dup4\n        /* \"#utility.yul\":3092:3112   */\n      tag_78\n      jump\t// in\n    tag_123:\n        /* \"#utility.yul\":3087:3112   */\n      swap3\n      pop\n        /* \"#utility.yul\":3131:3132   */\n      dup3\n        /* \"#utility.yul\":3121:3156   */\n      tag_124\n      jumpi\n        /* \"#utility.yul\":3136:3154   */\n      tag_125\n      tag_86\n      jump\t// in\n    tag_125:\n        /* \"#utility.yul\":3121:3156   */\n    tag_124:\n        /* \"#utility.yul\":3177:3178   */\n      dup3\n        /* \"#utility.yul\":3174:3175   */\n      dup3\n        /* \"#utility.yul\":3170:3179   */\n      mod\n        /* \"#utility.yul\":3165:3179   */\n      swap1\n      pop\n        /* \"#utility.yul\":3009:3185   */\n      swap3\n      swap2\n      pop\n      pop\n      jump\t// out\n        /* \"#utility.yul\":3191:3371   */\n    tag_59:\n        /* \"#utility.yul\":3239:3316   */\n      0x4e487b7100000000000000000000000000000000000000000000000000000000\n        /* \"#utility.yul\":3236:3237   */\n      0x00\n        /* \"#utility.yul\":3229:3317   */\n      mstore\n        /* \"#utility.yul\":3336:3340   */\n      0x32\n        /* \"#utility.yul\":3333:3334   */\n      0x04\n        /* \"#utility.yul\":3326:3341   */\n      mstore\n        /* \"#utility.yul\":3360:3364   */\n      0x24\n        /* \"#utility.yul\":3357:3358   */\n      0x00\n        /* \"#utility.yul\":3350:3365   */\n      revert\n        /* \"#utility.yul\":3377:3610   */\n    tag_61:\n        /* \"#utility.yul\":3416:3419   */\n      0x00\n        /* \"#utility.yul\":3439:3463   */\n      tag_128\n        /* \"#utility.yul\":3457:3462   */\n      dup3\n        /* \"#utility.yul\":3439:3463   */\n      tag_78\n      jump\t// in\n    tag_128:\n        /* \"#utility.yul\":3430:3463   */\n      swap2\n      pop\n        /* \"#utility.yul\":3485:3551   */\n      0xffffffffffffffffffffffffffffffffffffffffffffffffffffffffffffffff\n        /* \"#utility.yul\":3478:3483   */\n      dup3\n        /* \"#utility.yul\":3475:3552   */\n      sub\n        /* \"#utility.yul\":3472:3575   */\n      tag_129\n      jumpi\n        /* \"#utility.yul\":3555:3573   */\n      tag_130\n      tag_87\n      jump\t// in\n    tag_130:\n        /* \"#utility.yul\":3472:3575   */\n    tag_129:\n        /* \"#utility.yul\":3602:3603   */\n      0x01\n        /* \"#utility.yul\":3595:3600   */\n      dup3\n        /* \"#utility.yul\":3591:3604   */\n      add\n        /* \"#utility.yul\":3584:3604   */\n      swap1\n      pop\n        /* \"#utility.yul\":3377:3610   */\n      swap2\n      swap1\n      pop\n      jump\t// out\n\n    auxdata: 0xa26469706673582212206e772fab3b0b53c9f662b07410da5a7d9d76e994bbcd77322f621e86391da48364736f6c634300081f0033\n}\n",
				"bytecode": {
					"linkReferences": {},
					"object": "6080604052348015600e575f5ffd5b506109388061001c5f395ff3fe608060405234801561000f575f5ffd5b5060043610610029575f3560e01c80633afa5f111461002d575b5f5ffd5b610047600480360381019061004291906106ec565b61005d565b6040516100549190610787565b60405180910390f35b60605f820361007c5760405180602001604052805f81525090506106b0565b610f9f8211156100c3576040518060400160405280600c81526020017f457863656564732033393939000000000000000000000000000000000000000081525090506106b0565b5f600f67ffffffffffffffff8111156100df576100de6107a7565b5b6040519080825280601f01601f1916602001820160405280156101115781602001600182028036833780820191505090505b5090505f5f90505f8490505f5f90505b600d8110801561013057505f82115b156105dd575f60605f8303610181576103e891506040518060400160405280600181526020017f4d0000000000000000000000000000000000000000000000000000000000000081525090506104f8565b600183036101cb5761038491506040518060400160405280600281526020017f434d00000000000000000000000000000000000000000000000000000000000081525090506104f7565b60028303610215576101f491506040518060400160405280600181526020017f440000000000000000000000000000000000000000000000000000000000000081525090506104f6565b6003830361025f5761019091506040518060400160405280600281526020017f434400000000000000000000000000000000000000000000000000000000000081525090506104f5565b600483036102a857606491506040518060400160405280600181526020017f430000000000000000000000000000000000000000000000000000000000000081525090506104f4565b600583036102f157605a91506040518060400160405280600281526020017f584300000000000000000000000000000000000000000000000000000000000081525090506104f3565b6006830361033a57603291506040518060400160405280600181526020017f4c0000000000000000000000000000000000000000000000000000000000000081525090506104f2565b6007830361038357602891506040518060400160405280600281526020017f584c00000000000000000000000000000000000000000000000000000000000081525090506104f1565b600883036103cc57600a91506040518060400160405280600181526020017f580000000000000000000000000000000000000000000000000000000000000081525090506104f0565b6009830361041557600991506040518060400160405280600281526020017f495800000000000000000000000000000000000000000000000000000000000081525090506104ef565b600a830361045e57600591506040518060400160405280600181526020017f560000000000000000000000000000000000000000000000000000000000000081525090506104ee565b600b83036104a757600491506040518060400160405280600281526020017f495600000000000000000000000000000000000000000000000000000000000081525090506104ed565b600c83036104ec57600191506040518060400160405280600181526020017f490000000000000000000000000000000000000000000000000000000000000081525090505b5b5b5b5b5b5b5b5b5b5b5b5b818410156105075750506105ca565b5f8285610514919061082e565b90508285610522919061085e565b94505f5f90505b818110156105c5575f5f90505b83518110156105b7578381815181106105525761055161088e565b5b602001015160f81c60f81b898980610569906108bb565b9a508151811061057c5761057b61088e565b5b60200101907effffffffffffffffffffffffffffffffffffffffffffffffffffffffffffff191690815f1a9053508080600101915050610536565b508080600101915050610529565b505050505b80806105d5906108bb565b915050610121565b505f8267ffffffffffffffff8111156105f9576105f86107a7565b5b6040519080825280601f01601f19166020018201604052801561062b5781602001600182028036833780820191505090505b5090505f5f90505b838110156106a75784818151811061064e5761064d61088e565b5b602001015160f81c60f81b82828151811061066c5761066b61088e565b5b60200101907effffffffffffffffffffffffffffffffffffffffffffffffffffffffffffff191690815f1a9053508080600101915050610633565b50809450505050505b919050565b5f5ffd5b5f819050919050565b6106cb816106b9565b81146106d5575f5ffd5b50565b5f813590506106e6816106c2565b92915050565b5f60208284031215610701576107006106b5565b5b5f61070e848285016106d8565b91505092915050565b5f81519050919050565b5f82825260208201905092915050565b8281835e5f83830152505050565b5f601f19601f8301169050919050565b5f61075982610717565b6107638185610721565b9350610773818560208601610731565b61077c8161073f565b840191505092915050565b5f6020820190508181035f83015261079f818461074f565b905092915050565b7f4e487b71000000000000000000000000000000000000000000000000000000005f52604160045260245ffd5b7f4e487b71000000000000000000000000000000000000000000000000000000005f52601260045260245ffd5b7f4e487b71000000000000000000000000000000000000000000000000000000005f52601160045260245ffd5b5f610838826106b9565b9150610843836106b9565b925082610853576108526107d4565b5b828204905092915050565b5f610868826106b9565b9150610873836106b9565b925082610883576108826107d4565b5b828206905092915050565b7f4e487b71000000000000000000000000000000000000000000000000000000005f52603260045260245ffd5b5f6108c5826106b9565b91507fffffffffffffffffffffffffffffffffffffffffffffffffffffffffffffffff82036108f7576108f6610801565b5b60018201905091905056fea26469706673582212206e772fab3b0b53c9f662b07410da5a7d9d76e994bbcd77322f621e86391da48364736f6c634300081f0033",
					"opcodes": "PUSH1 0x80 PUSH1 0x40 MSTORE CALLVALUE DUP1 ISZERO PUSH1 0xE JUMPI PUSH0 PUSH0 REVERT JUMPDEST POP PUSH2 0x938 DUP1 PUSH2 0x1C PUSH0 CODECOPY PUSH0 RETURN INVALID PUSH1 0x80 PUSH1 0x40 MSTORE CALLVALUE DUP1 ISZERO PUSH2 0xF JUMPI PUSH0 PUSH0 REVERT JUMPDEST POP PUSH1 0x4 CALLDATASIZE LT PUSH2 0x29 JUMPI PUSH0 CALLDATALOAD PUSH1 0xE0 SHR DUP1 PUSH4 0x3AFA5F11 EQ PUSH2 0x2D JUMPI JUMPDEST PUSH0 PUSH0 REVERT JUMPDEST PUSH2 0x47 PUSH1 0x4 DUP1 CALLDATASIZE SUB DUP2 ADD SWAP1 PUSH2 0x42 SWAP2 SWAP1 PUSH2 0x6EC JUMP JUMPDEST PUSH2 0x5D JUMP JUMPDEST PUSH1 0x40 MLOAD PUSH2 0x54 SWAP2 SWAP1 PUSH2 0x787 JUMP JUMPDEST PUSH1 0x40 MLOAD DUP1 SWAP2 SUB SWAP1 RETURN JUMPDEST PUSH1 0x60 PUSH0 DUP3 SUB PUSH2 0x7C JUMPI PUSH1 0x40 MLOAD DUP1 PUSH1 0x20 ADD PUSH1 0x40 MSTORE DUP1 PUSH0 DUP2 MSTORE POP SWAP1 POP PUSH2 0x6B0 JUMP JUMPDEST PUSH2 0xF9F DUP3 GT ISZERO PUSH2 0xC3 JUMPI PUSH1 0x40 MLOAD DUP1 PUSH1 0x40 ADD PUSH1 0x40 MSTORE DUP1 PUSH1 0xC DUP2 MSTORE PUSH1 0x20 ADD PUSH32 0x4578636565647320333939390000000000000000000000000000000000000000 DUP2 MSTORE POP SWAP1 POP PUSH2 0x6B0 JUMP JUMPDEST PUSH0 PUSH1 0xF PUSH8 0xFFFFFFFFFFFFFFFF DUP2 GT ISZERO PUSH2 0xDF JUMPI PUSH2 0xDE PUSH2 0x7A7 JUMP JUMPDEST JUMPDEST PUSH1 0x40 MLOAD SWAP1 DUP1 DUP3 MSTORE DUP1 PUSH1 0x1F ADD PUSH1 0x1F NOT AND PUSH1 0x20 ADD DUP3 ADD PUSH1 0x40 MSTORE DUP1 ISZERO PUSH2 0x111 JUMPI DUP2 PUSH1 0x20 ADD PUSH1 0x1 DUP3 MUL DUP1 CALLDATASIZE DUP4 CALLDATACOPY DUP1 DUP3 ADD SWAP2 POP POP SWAP1 POP JUMPDEST POP SWAP1 POP PUSH0 PUSH0 SWAP1 POP PUSH0 DUP5 SWAP1 POP PUSH0 PUSH0 SWAP1 POP JUMPDEST PUSH1 0xD DUP2 LT DUP1 ISZERO PUSH2 0x130 JUMPI POP PUSH0 DUP3 GT JUMPDEST ISZERO PUSH2 0x5DD JUMPI PUSH0 PUSH1 0x60 PUSH0 DUP4 SUB PUSH2 0x181 JUMPI PUSH2 0x3E8 SWAP2 POP PUSH1 0x40 MLOAD DUP1 PUSH1 0x40 ADD PUSH1 0x40 MSTORE DUP1 PUSH1 0x1 DUP2 MSTORE PUSH1 0x20 ADD PUSH32 0x4D00000000000000000000000000000000000000000000000000000000000000 DUP2 MSTORE POP SWAP1 POP PUSH2 0x4F8 JUMP JUMPDEST PUSH1 0x1 DUP4 SUB PUSH2 0x1CB JUMPI PUSH2 0x384 SWAP2 POP PUSH1 0x40 MLOAD DUP1 PUSH1 0x40 ADD PUSH1 0x40 MSTORE DUP1 PUSH1 0x2 DUP2 MSTORE PUSH1 0x20 ADD PUSH32 0x434D000000000000000000000000000000000000000000000000000000000000 DUP2 MSTORE POP SWAP1 POP PUSH2 0x4F7 JUMP JUMPDEST PUSH1 0x2 DUP4 SUB PUSH2 0x215 JUMPI PUSH2 0x1F4 SWAP2 POP PUSH1 0x40 MLOAD DUP1 PUSH1 0x40 ADD PUSH1 0x40 MSTORE DUP1 PUSH1 0x1 DUP2 MSTORE PUSH1 0x20 ADD PUSH32 0x4400000000000000000000000000000000000000000000000000000000000000 DUP2 MSTORE POP SWAP1 POP PUSH2 0x4F6 JUMP JUMPDEST PUSH1 0x3 DUP4 SUB PUSH2 0x25F JUMPI PUSH2 0x190 SWAP2 POP PUSH1 0x40 MLOAD DUP1 PUSH1 0x40 ADD PUSH1 0x40 MSTORE DUP1 PUSH1 0x2 DUP2 MSTORE PUSH1 0x20 ADD PUSH32 0x4344000000000000000000000000000000000000000000000000000000000000 DUP2 MSTORE POP SWAP1 POP PUSH2 0x4F5 JUMP JUMPDEST PUSH1 0x4 DUP4 SUB PUSH2 0x2A8 JUMPI PUSH1 0x64 SWAP2 POP PUSH1 0x40 MLOAD DUP1 PUSH1 0x40 ADD PUSH1 0x40 MSTORE DUP1 PUSH1 0x1 DUP2 MSTORE PUSH1 0x20 ADD PUSH32 0x4300000000000000000000000000000000000000000000000000000000000000 DUP2 MSTORE POP SWAP1 POP PUSH2 0x4F4 JUMP JUMPDEST PUSH1 0x5 DUP4 SUB PUSH2 0x2F1 JUMPI PUSH1 0x5A SWAP2 POP PUSH1 0x40 MLOAD DUP1 PUSH1 0x40 ADD PUSH1 0x40 MSTORE DUP1 PUSH1 0x2 DUP2 MSTORE PUSH1 0x20 ADD PUSH32 0x5843000000000000000000000000000000000000000000000000000000000000 DUP2 MSTORE POP SWAP1 POP PUSH2 0x4F3 JUMP JUMPDEST PUSH1 0x6 DUP4 SUB PUSH2 0x33A JUMPI PUSH1 0x32 SWAP2 POP PUSH1 0x40 MLOAD DUP1 PUSH1 0x40 ADD PUSH1 0x40 MSTORE DUP1 PUSH1 0x1 DUP2 MSTORE PUSH1 0x20 ADD PUSH32 0x4C00000000000000000000000000000000000000000000000000000000000000 DUP2 MSTORE POP SWAP1 POP PUSH2 0x4F2 JUMP JUMPDEST PUSH1 0x7 DUP4 SUB PUSH2 0x383 JUMPI PUSH1 0x28 SWAP2 POP PUSH1 0x40 MLOAD DUP1 PUSH1 0x40 ADD PUSH1 0x40 MSTORE DUP1 PUSH1 0x2 DUP2 MSTORE PUSH1 0x20 ADD PUSH32 0x584C000000000000000000000000000000000000000000000000000000000000 DUP2 MSTORE POP SWAP1 POP PUSH2 0x4F1 JUMP JUMPDEST PUSH1 0x8 DUP4 SUB PUSH2 0x3CC JUMPI PUSH1 0xA SWAP2 POP PUSH1 0x40 MLOAD DUP1 PUSH1 0x40 ADD PUSH1 0x40 MSTORE DUP1 PUSH1 0x1 DUP2 MSTORE PUSH1 0x20 ADD PUSH32 0x5800000000000000000000000000000000000000000000000000000000000000 DUP2 MSTORE POP SWAP1 POP PUSH2 0x4F0 JUMP JUMPDEST PUSH1 0x9 DUP4 SUB PUSH2 0x415 JUMPI PUSH1 0x9 SWAP2 POP PUSH1 0x40 MLOAD DUP1 PUSH1 0x40 ADD PUSH1 0x40 MSTORE DUP1 PUSH1 0x2 DUP2 MSTORE PUSH1 0x20 ADD PUSH32 0x4958000000000000000000000000000000000000000000000000000000000000 DUP2 MSTORE POP SWAP1 POP PUSH2 0x4EF JUMP JUMPDEST PUSH1 0xA DUP4 SUB PUSH2 0x45E JUMPI PUSH1 0x5 SWAP2 POP PUSH1 0x40 MLOAD DUP1 PUSH1 0x40 ADD PUSH1 0x40 MSTORE DUP1 PUSH1 0x1 DUP2 MSTORE PUSH1 0x20 ADD PUSH32 0x5600000000000000000000000000000000000000000000000000000000000000 DUP2 MSTORE POP SWAP1 POP PUSH2 0x4EE JUMP JUMPDEST PUSH1 0xB DUP4 SUB PUSH2 0x4A7 JUMPI PUSH1 0x4 SWAP2 POP PUSH1 0x40 MLOAD DUP1 PUSH1 0x40 ADD PUSH1 0x40 MSTORE DUP1 PUSH1 0x2 DUP2 MSTORE PUSH1 0x20 ADD PUSH32 0x4956000000000000000000000000000000000000000000000000000000000000 DUP2 MSTORE POP SWAP1 POP PUSH2 0x4ED JUMP JUMPDEST PUSH1 0xC DUP4 SUB PUSH2 0x4EC JUMPI PUSH1 0x1 SWAP2 POP PUSH1 0x40 MLOAD DUP1 PUSH1 0x40 ADD PUSH1 0x40 MSTORE DUP1 PUSH1 0x1 DUP2 MSTORE PUSH1 0x20 ADD PUSH32 0x4900000000000000000000000000000000000000000000000000000000000000 DUP2 MSTORE POP SWAP1 POP JUMPDEST JUMPDEST JUMPDEST JUMPDEST JUMPDEST JUMPDEST JUMPDEST JUMPDEST JUMPDEST JUMPDEST JUMPDEST JUMPDEST JUMPDEST DUP2 DUP5 LT ISZERO PUSH2 0x507 JUMPI POP POP PUSH2 0x5CA JUMP JUMPDEST PUSH0 DUP3 DUP6 PUSH2 0x514 SWAP2 SWAP1 PUSH2 0x82E JUMP JUMPDEST SWAP1 POP DUP3 DUP6 PUSH2 0x522 SWAP2 SWAP1 PUSH2 0x85E JUMP JUMPDEST SWAP5 POP PUSH0 PUSH0 SWAP1 POP JUMPDEST DUP2 DUP2 LT ISZERO PUSH2 0x5C5 JUMPI PUSH0 PUSH0 SWAP1 POP JUMPDEST DUP4 MLOAD DUP2 LT ISZERO PUSH2 0x5B7 JUMPI DUP4 DUP2 DUP2 MLOAD DUP2 LT PUSH2 0x552 JUMPI PUSH2 0x551 PUSH2 0x88E JUMP JUMPDEST JUMPDEST PUSH1 0x20 ADD ADD MLOAD PUSH1 0xF8 SHR PUSH1 0xF8 SHL DUP10 DUP10 DUP1 PUSH2 0x569 SWAP1 PUSH2 0x8BB JUMP JUMPDEST SWAP11 POP DUP2 MLOAD DUP2 LT PUSH2 0x57C JUMPI PUSH2 0x57B PUSH2 0x88E JUMP JUMPDEST JUMPDEST PUSH1 0x20 ADD ADD SWAP1 PUSH31 0xFFFFFFFFFFFFFFFFFFFFFFFFFFFFFFFFFFFFFFFFFFFFFFFFFFFFFFFFFFFFFF NOT AND SWAP1 DUP2 PUSH0 BYTE SWAP1 MSTORE8 POP DUP1 DUP1 PUSH1 0x1 ADD SWAP2 POP POP PUSH2 0x536 JUMP JUMPDEST POP DUP1 DUP1 PUSH1 0x1 ADD SWAP2 POP POP PUSH2 0x529 JUMP JUMPDEST POP POP POP POP JUMPDEST DUP1 DUP1 PUSH2 0x5D5 SWAP1 PUSH2 0x8BB JUMP JUMPDEST SWAP2 POP POP PUSH2 0x121 JUMP JUMPDEST POP PUSH0 DUP3 PUSH8 0xFFFFFFFFFFFFFFFF DUP2 GT ISZERO PUSH2 0x5F9 JUMPI PUSH2 0x5F8 PUSH2 0x7A7 JUMP JUMPDEST JUMPDEST PUSH1 0x40 MLOAD SWAP1 DUP1 DUP3 MSTORE DUP1 PUSH1 0x1F ADD PUSH1 0x1F NOT AND PUSH1 0x20 ADD DUP3 ADD PUSH1 0x40 MSTORE DUP1 ISZERO PUSH2 0x62B JUMPI DUP2 PUSH1 0x20 ADD PUSH1 0x1 DUP3 MUL DUP1 CALLDATASIZE DUP4 CALLDATACOPY DUP1 DUP3 ADD SWAP2 POP POP SWAP1 POP JUMPDEST POP SWAP1 POP PUSH0 PUSH0 SWAP1 POP JUMPDEST DUP4 DUP2 LT ISZERO PUSH2 0x6A7 JUMPI DUP5 DUP2 DUP2 MLOAD DUP2 LT PUSH2 0x64E JUMPI PUSH2 0x64D PUSH2 0x88E JUMP JUMPDEST JUMPDEST PUSH1 0x20 ADD ADD MLOAD PUSH1 0xF8 SHR PUSH1 0xF8 SHL DUP3 DUP3 DUP2 MLOAD DUP2 LT PUSH2 0x66C JUMPI PUSH2 0x66B PUSH2 0x88E JUMP JUMPDEST JUMPDEST PUSH1 0x20 ADD ADD SWAP1 PUSH31 0xFFFFFFFFFFFFFFFFFFFFFFFFFFFFFFFFFFFFFFFFFFFFFFFFFFFFFFFFFFFFFF NOT AND SWAP1 DUP2 PUSH0 BYTE SWAP1 MSTORE8 POP DUP1 DUP1 PUSH1 0x1 ADD SWAP2 POP POP PUSH2 0x633 JUMP JUMPDEST POP DUP1 SWAP5 POP POP POP POP POP JUMPDEST SWAP2 SWAP1 POP JUMP JUMPDEST PUSH0 PUSH0 REVERT JUMPDEST PUSH0 DUP2 SWAP1 POP SWAP2 SWAP1 POP JUMP JUMPDEST PUSH2 0x6CB DUP2 PUSH2 0x6B9 JUMP JUMPDEST DUP2 EQ PUSH2 0x6D5 JUMPI PUSH0 PUSH0 REVERT JUMPDEST POP JUMP JUMPDEST PUSH0 DUP2 CALLDATALOAD SWAP1 POP PUSH2 0x6E6 DUP2 PUSH2 0x6C2 JUMP JUMPDEST SWAP3 SWAP2 POP POP JUMP JUMPDEST PUSH0 PUSH1 0x20 DUP3 DUP5 SUB SLT ISZERO PUSH2 0x701 JUMPI PUSH2 0x700 PUSH2 0x6B5 JUMP JUMPDEST JUMPDEST PUSH0 PUSH2 0x70E DUP5 DUP3 DUP6 ADD PUSH2 0x6D8 JUMP JUMPDEST SWAP2 POP POP SWAP3 SWAP2 POP POP JUMP JUMPDEST PUSH0 DUP2 MLOAD SWAP1 POP SWAP2 SWAP1 POP JUMP JUMPDEST PUSH0 DUP3 DUP3 MSTORE PUSH1 0x20 DUP3 ADD SWAP1 POP SWAP3 SWAP2 POP POP JUMP JUMPDEST DUP3 DUP2 DUP4 MCOPY PUSH0 DUP4 DUP4 ADD MSTORE POP POP POP JUMP JUMPDEST PUSH0 PUSH1 0x1F NOT PUSH1 0x1F DUP4 ADD AND SWAP1 POP SWAP2 SWAP1 POP JUMP JUMPDEST PUSH0 PUSH2 0x759 DUP3 PUSH2 0x717 JUMP JUMPDEST PUSH2 0x763 DUP2 DUP6 PUSH2 0x721 JUMP JUMPDEST SWAP4 POP PUSH2 0x773 DUP2 DUP6 PUSH1 0x20 DUP7 ADD PUSH2 0x731 JUMP JUMPDEST PUSH2 0x77C DUP2 PUSH2 0x73F JUMP JUMPDEST DUP5 ADD SWAP2 POP POP SWAP3 SWAP2 POP POP JUMP JUMPDEST PUSH0 PUSH1 0x20 DUP3 ADD SWAP1 POP DUP2 DUP2 SUB PUSH0 DUP4 ADD MSTORE PUSH2 0x79F DUP2 DUP5 PUSH2 0x74F JUMP JUMPDEST SWAP1 POP SWAP3 SWAP2 POP POP JUMP JUMPDEST PUSH32 0x4E487B7100000000000000000000000000000000000000000000000000000000 PUSH0 MSTORE PUSH1 0x41 PUSH1 0x4 MSTORE PUSH1 0x24 PUSH0 REVERT JUMPDEST PUSH32 0x4E487B7100000000000000000000000000000000000000000000000000000000 PUSH0 MSTORE PUSH1 0x12 PUSH1 0x4 MSTORE PUSH1 0x24 PUSH0 REVERT JUMPDEST PUSH32 0x4E487B7100000000000000000000000000000000000000000000000000000000 PUSH0 MSTORE PUSH1 0x11 PUSH1 0x4 MSTORE PUSH1 0x24 PUSH0 REVERT JUMPDEST PUSH0 PUSH2 0x838 DUP3 PUSH2 0x6B9 JUMP JUMPDEST SWAP2 POP PUSH2 0x843 DUP4 PUSH2 0x6B9 JUMP JUMPDEST SWAP3 POP DUP3 PUSH2 0x853 JUMPI PUSH2 0x852 PUSH2 0x7D4 JUMP JUMPDEST JUMPDEST DUP3 DUP3 DIV SWAP1 POP SWAP3 SWAP2 POP POP JUMP JUMPDEST PUSH0 PUSH2 0x868 DUP3 PUSH2 0x6B9 JUMP JUMPDEST SWAP2 POP PUSH2 0x873 DUP4 PUSH2 0x6B9 JUMP JUMPDEST SWAP3 POP DUP3 PUSH2 0x883 JUMPI PUSH2 0x882 PUSH2 0x7D4 JUMP JUMPDEST JUMPDEST DUP3 DUP3 MOD SWAP1 POP SWAP3 SWAP2 POP POP JUMP JUMPDEST PUSH32 0x4E487B7100000000000000000000000000000000000000000000000000000000 PUSH0 MSTORE PUSH1 0x32 PUSH1 0x4 MSTORE PUSH1 0x24 PUSH0 REVERT JUMPDEST PUSH0 PUSH2 0x8C5 DUP3 PUSH2 0x6B9 JUMP JUMPDEST SWAP2 POP PUSH32 0xFFFFFFFFFFFFFFFFFFFFFFFFFFFFFFFFFFFFFFFFFFFFFFFFFFFFFFFFFFFFFFFF DUP3 SUB PUSH2 0x8F7 JUMPI PUSH2 0x8F6 PUSH2 0x801 JUMP JUMPDEST JUMPDEST PUSH1 0x1 DUP3 ADD SWAP1 POP SWAP2 SWAP1 POP JUMP INVALID LOG2 PUSH5 0x6970667358 0x22 SLT KECCAK256 PUSH15 0x772FAB3B0B53C9F662B07410DA5A7D SWAP14 PUSH23 0xE994BBCD77322F621E86391DA48364736F6C634300081F STOP CALLER "
				},
				"gasEstimates": {
					"creation": {
						"codeDepositCost": "472000",
						"executionCost": "503",
						"totalCost": "472503"
					},
					"external": {
						"intToRoman1(uint256)": "infinite"
					}
				},
				"methodIdentifiers": {
					"intToRoman1(uint256)": "3afa5f11"
				}
			},
			"storageLayout": {
				"storage": [],
				"types": null
			},
			"userdoc": {
				"kind": "user",
				"methods": {},
				"version": 1
			}
		}
	}
}