{
	"contracts/homework/mergeArr.sol": {
		"mergeArr": {
			"abi": [
				{
					"inputs": [
						{
							"internalType": "uint256[]",
							"name": "arr1",
							"type": "uint256[]"
						},
						{
							"internalType": "uint256[]",
							"name": "arr2",
							"type": "uint256[]"
						}
					],
					"name": "merge",
					"outputs": [
						{
							"internalType": "uint256[]",
							"name": "",
							"type": "uint256[]"
						}
					],
					"stateMutability": "pure",
					"type": "function"
				}
			],
			"devdoc": {
				"kind": "dev",
				"methods": {},
				"version": 1
			},
			"evm": {
				"assembly": "    /* \"contracts/homework/mergeArr.sol\":136:921  contract mergeArr{... */\n  mstore(0x40, 0x80)\n  callvalue\n  dup1\n  iszero\n  tag_1\n  jumpi\n  revert(0x00, 0x00)\ntag_1:\n  pop\n  dataSize(sub_0)\n  dup1\n  dataOffset(sub_0)\n  0x00\n  codecopy\n  0x00\n  return\nstop\n\nsub_0: assembly {\n        /* \"contracts/homework/mergeArr.sol\":136:921  contract mergeArr{... */\n      mstore(0x40, 0x80)\n      callvalue\n      dup1\n      iszero\n      tag_1\n      jumpi\n      revert(0x00, 0x00)\n    tag_1:\n      pop\n      jumpi(tag_2, lt(calldatasize, 0x04))\n      shr(0xe0, calldataload(0x00))\n      dup1\n      0x088b9bf6\n      eq\n      tag_3\n      jumpi\n    tag_2:\n      revert(0x00, 0x00)\n        /* \"contracts/homework/mergeArr.sol\":160:918  function merge(uint[] calldata arr1,uint[] calldata arr2)public pure returns(uint[] memory){... */\n    tag_3:\n      tag_4\n      0x04\n      dup1\n      calldatasize\n      sub\n      dup2\n      add\n      swap1\n      tag_5\n      swap2\n      swap1\n      tag_6\n      jump\t// in\n    tag_5:\n      tag_7\n      jump\t// in\n    tag_4:\n      mload(0x40)\n      tag_8\n      swap2\n      swap1\n      tag_9\n      jump\t// in\n    tag_8:\n      mload(0x40)\n      dup1\n      swap2\n      sub\n      swap1\n      return\n    tag_7:\n        /* \"contracts/homework/mergeArr.sol\":237:250  uint[] memory */\n      0x60\n        /* \"contracts/homework/mergeArr.sol\":261:270  uint len1 */\n      0x00\n        /* \"contracts/homework/mergeArr.sol\":273:277  arr1 */\n      dup6\n      dup6\n        /* \"contracts/homework/mergeArr.sol\":273:284  arr1.length */\n      swap1\n      pop\n        /* \"contracts/homework/mergeArr.sol\":261:284  uint len1 = arr1.length */\n      swap1\n      pop\n        /* \"contracts/homework/mergeArr.sol\":294:303  uint len2 */\n      0x00\n        /* \"contracts/homework/mergeArr.sol\":306:310  arr2 */\n      dup5\n      dup5\n        /* \"contracts/homework/mergeArr.sol\":306:317  arr2.length */\n      swap1\n      pop\n        /* \"contracts/homework/mergeArr.sol\":294:317  uint len2 = arr2.length */\n      swap1\n      pop\n        /* \"contracts/homework/mergeArr.sol\":327:347  uint[] memory result */\n      0x00\n        /* \"contracts/homework/mergeArr.sol\":368:372  len2 */\n      dup2\n        /* \"contracts/homework/mergeArr.sol\":361:365  len1 */\n      dup4\n        /* \"contracts/homework/mergeArr.sol\":361:372  len1 + len2 */\n      tag_11\n      swap2\n      swap1\n      tag_12\n      jump\t// in\n    tag_11:\n        /* \"contracts/homework/mergeArr.sol\":350:373  new uint[](len1 + len2) */\n      0xffffffffffffffff\n      dup2\n      gt\n      iszero\n      tag_13\n      jumpi\n      tag_14\n      tag_15\n      jump\t// in\n    tag_14:\n    tag_13:\n      mload(0x40)\n      swap1\n      dup1\n      dup3\n      mstore\n      dup1\n      0x20\n      mul\n      0x20\n      add\n      dup3\n      add\n      0x40\n      mstore\n      dup1\n      iszero\n      tag_16\n      jumpi\n      dup2\n      0x20\n      add\n      0x20\n      dup3\n      mul\n      dup1\n      calldatasize\n      dup4\n      calldatacopy\n      dup1\n      dup3\n      add\n      swap2\n      pop\n      pop\n      swap1\n      pop\n    tag_16:\n      pop\n        /* \"contracts/homework/mergeArr.sol\":327:373  uint[] memory result = new uint[](len1 + len2) */\n      swap1\n      pop\n        /* \"contracts/homework/mergeArr.sol\":383:389  uint i */\n      0x00\n        /* \"contracts/homework/mergeArr.sol\":392:393  0 */\n      0x00\n        /* \"contracts/homework/mergeArr.sol\":383:393  uint i = 0 */\n      swap1\n      pop\n        /* \"contracts/homework/mergeArr.sol\":403:409  uint j */\n      0x00\n        /* \"contracts/homework/mergeArr.sol\":412:413  0 */\n      0x00\n        /* \"contracts/homework/mergeArr.sol\":403:413  uint j = 0 */\n      swap1\n      pop\n        /* \"contracts/homework/mergeArr.sol\":423:429  uint k */\n      0x00\n        /* \"contracts/homework/mergeArr.sol\":432:433  0 */\n      0x00\n        /* \"contracts/homework/mergeArr.sol\":423:433  uint k = 0 */\n      swap1\n      pop\n        /* \"contracts/homework/mergeArr.sol\":444:743  while (i<len1 && j<len2){... */\n    tag_17:\n        /* \"contracts/homework/mergeArr.sol\":453:457  len1 */\n      dup6\n        /* \"contracts/homework/mergeArr.sol\":451:452  i */\n      dup4\n        /* \"contracts/homework/mergeArr.sol\":451:457  i<len1 */\n      lt\n        /* \"contracts/homework/mergeArr.sol\":451:467  i<len1 && j<len2 */\n      dup1\n      iszero\n      tag_19\n      jumpi\n      pop\n        /* \"contracts/homework/mergeArr.sol\":463:467  len2 */\n      dup5\n        /* \"contracts/homework/mergeArr.sol\":461:462  j */\n      dup3\n        /* \"contracts/homework/mergeArr.sol\":461:467  j<len2 */\n      lt\n        /* \"contracts/homework/mergeArr.sol\":451:467  i<len1 && j<len2 */\n    tag_19:\n        /* \"contracts/homework/mergeArr.sol\":444:743  while (i<len1 && j<len2){... */\n      iszero\n      tag_18\n      jumpi\n        /* \"contracts/homework/mergeArr.sol\":494:498  arr2 */\n      dup9\n      dup9\n        /* \"contracts/homework/mergeArr.sol\":499:500  j */\n      dup4\n        /* \"contracts/homework/mergeArr.sol\":494:501  arr2[j] */\n      dup2\n      dup2\n      lt\n      tag_20\n      jumpi\n      tag_21\n      tag_22\n      jump\t// in\n    tag_21:\n    tag_20:\n      swap1\n      pop\n      0x20\n      mul\n      add\n      calldataload\n        /* \"contracts/homework/mergeArr.sol\":486:490  arr1 */\n      dup12\n      dup12\n        /* \"contracts/homework/mergeArr.sol\":491:492  i */\n      dup6\n        /* \"contracts/homework/mergeArr.sol\":486:493  arr1[i] */\n      dup2\n      dup2\n      lt\n      tag_23\n      jumpi\n      tag_24\n      tag_22\n      jump\t// in\n    tag_24:\n    tag_23:\n      swap1\n      pop\n      0x20\n      mul\n      add\n      calldataload\n        /* \"contracts/homework/mergeArr.sol\":486:501  arr1[i]<arr2[j] */\n      lt\n        /* \"contracts/homework/mergeArr.sol\":482:732  if (arr1[i]<arr2[j]){... */\n      iszero\n      tag_25\n      jumpi\n        /* \"contracts/homework/mergeArr.sol\":532:536  arr1 */\n      dup11\n      dup11\n        /* \"contracts/homework/mergeArr.sol\":537:540  i++ */\n      dup5\n      dup1\n      tag_26\n      swap1\n      tag_27\n      jump\t// in\n    tag_26:\n      swap6\n      pop\n        /* \"contracts/homework/mergeArr.sol\":532:541  arr1[i++] */\n      dup2\n      dup2\n      lt\n      tag_28\n      jumpi\n      tag_29\n      tag_22\n      jump\t// in\n    tag_29:\n    tag_28:\n      swap1\n      pop\n      0x20\n      mul\n      add\n      calldataload\n        /* \"contracts/homework/mergeArr.sol\":520:526  result */\n      dup5\n        /* \"contracts/homework/mergeArr.sol\":527:530  k++ */\n      dup3\n      dup1\n      tag_30\n      swap1\n      tag_27\n      jump\t// in\n    tag_30:\n      swap4\n      pop\n        /* \"contracts/homework/mergeArr.sol\":520:531  result[k++] */\n      dup2\n      mload\n      dup2\n      lt\n      tag_31\n      jumpi\n      tag_32\n      tag_22\n      jump\t// in\n    tag_32:\n    tag_31:\n      0x20\n      mul\n      0x20\n      add\n      add\n        /* \"contracts/homework/mergeArr.sol\":520:541  result[k++]=arr1[i++] */\n      dup2\n      dup2\n      mstore\n      pop\n      pop\n        /* \"contracts/homework/mergeArr.sol\":482:732  if (arr1[i]<arr2[j]){... */\n      jump(tag_33)\n    tag_25:\n        /* \"contracts/homework/mergeArr.sol\":573:577  arr2 */\n      dup9\n      dup9\n        /* \"contracts/homework/mergeArr.sol\":578:579  j */\n      dup4\n        /* \"contracts/homework/mergeArr.sol\":573:580  arr2[j] */\n      dup2\n      dup2\n      lt\n      tag_34\n      jumpi\n      tag_35\n      tag_22\n      jump\t// in\n    tag_35:\n    tag_34:\n      swap1\n      pop\n      0x20\n      mul\n      add\n      calldataload\n        /* \"contracts/homework/mergeArr.sol\":564:568  arr1 */\n      dup12\n      dup12\n        /* \"contracts/homework/mergeArr.sol\":569:570  i */\n      dup6\n        /* \"contracts/homework/mergeArr.sol\":564:571  arr1[i] */\n      dup2\n      dup2\n      lt\n      tag_36\n      jumpi\n      tag_37\n      tag_22\n      jump\t// in\n    tag_37:\n    tag_36:\n      swap1\n      pop\n      0x20\n      mul\n      add\n      calldataload\n        /* \"contracts/homework/mergeArr.sol\":564:580  arr1[i]==arr2[j] */\n      sub\n        /* \"contracts/homework/mergeArr.sol\":561:732  if(arr1[i]==arr2[j]){... */\n      tag_38\n      jumpi\n        /* \"contracts/homework/mergeArr.sol\":611:615  arr1 */\n      dup11\n      dup11\n        /* \"contracts/homework/mergeArr.sol\":616:619  i++ */\n      dup5\n      dup1\n      tag_39\n      swap1\n      tag_27\n      jump\t// in\n    tag_39:\n      swap6\n      pop\n        /* \"contracts/homework/mergeArr.sol\":611:620  arr1[i++] */\n      dup2\n      dup2\n      lt\n      tag_40\n      jumpi\n      tag_41\n      tag_22\n      jump\t// in\n    tag_41:\n    tag_40:\n      swap1\n      pop\n      0x20\n      mul\n      add\n      calldataload\n        /* \"contracts/homework/mergeArr.sol\":599:605  result */\n      dup5\n        /* \"contracts/homework/mergeArr.sol\":606:609  k++ */\n      dup3\n      dup1\n      tag_42\n      swap1\n      tag_27\n      jump\t// in\n    tag_42:\n      swap4\n      pop\n        /* \"contracts/homework/mergeArr.sol\":599:610  result[k++] */\n      dup2\n      mload\n      dup2\n      lt\n      tag_43\n      jumpi\n      tag_44\n      tag_22\n      jump\t// in\n    tag_44:\n    tag_43:\n      0x20\n      mul\n      0x20\n      add\n      add\n        /* \"contracts/homework/mergeArr.sol\":599:620  result[k++]=arr1[i++] */\n      dup2\n      dup2\n      mstore\n      pop\n      pop\n        /* \"contracts/homework/mergeArr.sol\":650:654  arr2 */\n      dup9\n      dup9\n        /* \"contracts/homework/mergeArr.sol\":655:658  j++ */\n      dup4\n      dup1\n      tag_45\n      swap1\n      tag_27\n      jump\t// in\n    tag_45:\n      swap5\n      pop\n        /* \"contracts/homework/mergeArr.sol\":650:659  arr2[j++] */\n      dup2\n      dup2\n      lt\n      tag_46\n      jumpi\n      tag_47\n      tag_22\n      jump\t// in\n    tag_47:\n    tag_46:\n      swap1\n      pop\n      0x20\n      mul\n      add\n      calldataload\n        /* \"contracts/homework/mergeArr.sol\":638:644  result */\n      dup5\n        /* \"contracts/homework/mergeArr.sol\":645:648  k++ */\n      dup3\n      dup1\n      tag_48\n      swap1\n      tag_27\n      jump\t// in\n    tag_48:\n      swap4\n      pop\n        /* \"contracts/homework/mergeArr.sol\":638:649  result[k++] */\n      dup2\n      mload\n      dup2\n      lt\n      tag_49\n      jumpi\n      tag_50\n      tag_22\n      jump\t// in\n    tag_50:\n    tag_49:\n      0x20\n      mul\n      0x20\n      add\n      add\n        /* \"contracts/homework/mergeArr.sol\":638:659  result[k++]=arr2[j++] */\n      dup2\n      dup2\n      mstore\n      pop\n      pop\n        /* \"contracts/homework/mergeArr.sol\":561:732  if(arr1[i]==arr2[j]){... */\n      jump(tag_51)\n    tag_38:\n        /* \"contracts/homework/mergeArr.sol\":708:712  arr2 */\n      dup9\n      dup9\n        /* \"contracts/homework/mergeArr.sol\":713:716  j++ */\n      dup4\n      dup1\n      tag_52\n      swap1\n      tag_27\n      jump\t// in\n    tag_52:\n      swap5\n      pop\n        /* \"contracts/homework/mergeArr.sol\":708:717  arr2[j++] */\n      dup2\n      dup2\n      lt\n      tag_53\n      jumpi\n      tag_54\n      tag_22\n      jump\t// in\n    tag_54:\n    tag_53:\n      swap1\n      pop\n      0x20\n      mul\n      add\n      calldataload\n        /* \"contracts/homework/mergeArr.sol\":696:702  result */\n      dup5\n        /* \"contracts/homework/mergeArr.sol\":703:706  k++ */\n      dup3\n      dup1\n      tag_55\n      swap1\n      tag_27\n      jump\t// in\n    tag_55:\n      swap4\n      pop\n        /* \"contracts/homework/mergeArr.sol\":696:707  result[k++] */\n      dup2\n      mload\n      dup2\n      lt\n      tag_56\n      jumpi\n      tag_57\n      tag_22\n      jump\t// in\n    tag_57:\n    tag_56:\n      0x20\n      mul\n      0x20\n      add\n      add\n        /* \"contracts/homework/mergeArr.sol\":696:717  result[k++]=arr2[j++] */\n      dup2\n      dup2\n      mstore\n      pop\n      pop\n        /* \"contracts/homework/mergeArr.sol\":561:732  if(arr1[i]==arr2[j]){... */\n    tag_51:\n        /* \"contracts/homework/mergeArr.sol\":482:732  if (arr1[i]<arr2[j]){... */\n    tag_33:\n        /* \"contracts/homework/mergeArr.sol\":444:743  while (i<len1 && j<len2){... */\n      jump(tag_17)\n    tag_18:\n        /* \"contracts/homework/mergeArr.sol\":753:815  while (i < len1){... */\n    tag_58:\n        /* \"contracts/homework/mergeArr.sol\":764:768  len1 */\n      dup6\n        /* \"contracts/homework/mergeArr.sol\":760:761  i */\n      dup4\n        /* \"contracts/homework/mergeArr.sol\":760:768  i < len1 */\n      lt\n        /* \"contracts/homework/mergeArr.sol\":753:815  while (i < len1){... */\n      iszero\n      tag_59\n      jumpi\n        /* \"contracts/homework/mergeArr.sol\":795:799  arr1 */\n      dup11\n      dup11\n        /* \"contracts/homework/mergeArr.sol\":800:803  i++ */\n      dup5\n      dup1\n      tag_60\n      swap1\n      tag_27\n      jump\t// in\n    tag_60:\n      swap6\n      pop\n        /* \"contracts/homework/mergeArr.sol\":795:804  arr1[i++] */\n      dup2\n      dup2\n      lt\n      tag_61\n      jumpi\n      tag_62\n      tag_22\n      jump\t// in\n    tag_62:\n    tag_61:\n      swap1\n      pop\n      0x20\n      mul\n      add\n      calldataload\n        /* \"contracts/homework/mergeArr.sol\":783:789  result */\n      dup5\n        /* \"contracts/homework/mergeArr.sol\":790:793  k++ */\n      dup3\n      dup1\n      tag_63\n      swap1\n      tag_27\n      jump\t// in\n    tag_63:\n      swap4\n      pop\n        /* \"contracts/homework/mergeArr.sol\":783:794  result[k++] */\n      dup2\n      mload\n      dup2\n      lt\n      tag_64\n      jumpi\n      tag_65\n      tag_22\n      jump\t// in\n    tag_65:\n    tag_64:\n      0x20\n      mul\n      0x20\n      add\n      add\n        /* \"contracts/homework/mergeArr.sol\":783:804  result[k++]=arr1[i++] */\n      dup2\n      dup2\n      mstore\n      pop\n      pop\n        /* \"contracts/homework/mergeArr.sol\":753:815  while (i < len1){... */\n      jump(tag_58)\n    tag_59:\n        /* \"contracts/homework/mergeArr.sol\":825:885  while (j<len2){... */\n    tag_66:\n        /* \"contracts/homework/mergeArr.sol\":834:838  len2 */\n      dup5\n        /* \"contracts/homework/mergeArr.sol\":832:833  j */\n      dup3\n        /* \"contracts/homework/mergeArr.sol\":832:838  j<len2 */\n      lt\n        /* \"contracts/homework/mergeArr.sol\":825:885  while (j<len2){... */\n      iszero\n      tag_67\n      jumpi\n        /* \"contracts/homework/mergeArr.sol\":865:869  arr2 */\n      dup9\n      dup9\n        /* \"contracts/homework/mergeArr.sol\":870:873  j++ */\n      dup4\n      dup1\n      tag_68\n      swap1\n      tag_27\n      jump\t// in\n    tag_68:\n      swap5\n      pop\n        /* \"contracts/homework/mergeArr.sol\":865:874  arr2[j++] */\n      dup2\n      dup2\n      lt\n      tag_69\n      jumpi\n      tag_70\n      tag_22\n      jump\t// in\n    tag_70:\n    tag_69:\n      swap1\n      pop\n      0x20\n      mul\n      add\n      calldataload\n        /* \"contracts/homework/mergeArr.sol\":853:859  result */\n      dup5\n        /* \"contracts/homework/mergeArr.sol\":860:863  k++ */\n      dup3\n      dup1\n      tag_71\n      swap1\n      tag_27\n      jump\t// in\n    tag_71:\n      swap4\n      pop\n        /* \"contracts/homework/mergeArr.sol\":853:864  result[k++] */\n      dup2\n      mload\n      dup2\n      lt\n      tag_72\n      jumpi\n      tag_73\n      tag_22\n      jump\t// in\n    tag_73:\n    tag_72:\n      0x20\n      mul\n      0x20\n      add\n      add\n        /* \"contracts/homework/mergeArr.sol\":853:874  result[k++]=arr2[j++] */\n      dup2\n      dup2\n      mstore\n      pop\n      pop\n        /* \"contracts/homework/mergeArr.sol\":825:885  while (j<len2){... */\n      jump(tag_66)\n    tag_67:\n        /* \"contracts/homework/mergeArr.sol\":904:910  result */\n      dup4\n        /* \"contracts/homework/mergeArr.sol\":897:910  return result */\n      swap7\n      pop\n      pop\n      pop\n      pop\n      pop\n      pop\n      pop\n        /* \"contracts/homework/mergeArr.sol\":160:918  function merge(uint[] calldata arr1,uint[] calldata arr2)public pure returns(uint[] memory){... */\n      swap5\n      swap4\n      pop\n      pop\n      pop\n      pop\n      jump\t// out\n        /* \"#utility.yul\":88:205   */\n    tag_75:\n        /* \"#utility.yul\":197:198   */\n      0x00\n        /* \"#utility.yul\":194:195   */\n      0x00\n        /* \"#utility.yul\":187:199   */\n      revert\n        /* \"#utility.yul\":211:328   */\n    tag_76:\n        /* \"#utility.yul\":320:321   */\n      0x00\n        /* \"#utility.yul\":317:318   */\n      0x00\n        /* \"#utility.yul\":310:322   */\n      revert\n        /* \"#utility.yul\":334:451   */\n    tag_77:\n        /* \"#utility.yul\":443:444   */\n      0x00\n        /* \"#utility.yul\":440:441   */\n      0x00\n        /* \"#utility.yul\":433:445   */\n      revert\n        /* \"#utility.yul\":457:574   */\n    tag_78:\n        /* \"#utility.yul\":566:567   */\n      0x00\n        /* \"#utility.yul\":563:564   */\n      0x00\n        /* \"#utility.yul\":556:568   */\n      revert\n        /* \"#utility.yul\":580:697   */\n    tag_79:\n        /* \"#utility.yul\":689:690   */\n      0x00\n        /* \"#utility.yul\":686:687   */\n      0x00\n        /* \"#utility.yul\":679:691   */\n      revert\n        /* \"#utility.yul\":720:1288   */\n    tag_80:\n        /* \"#utility.yul\":793:801   */\n      0x00\n        /* \"#utility.yul\":803:809   */\n      0x00\n        /* \"#utility.yul\":853:856   */\n      dup4\n        /* \"#utility.yul\":846:850   */\n      0x1f\n        /* \"#utility.yul\":838:844   */\n      dup5\n        /* \"#utility.yul\":834:851   */\n      add\n        /* \"#utility.yul\":830:857   */\n      slt\n        /* \"#utility.yul\":820:942   */\n      tag_98\n      jumpi\n        /* \"#utility.yul\":861:940   */\n      tag_99\n      tag_77\n      jump\t// in\n    tag_99:\n        /* \"#utility.yul\":820:942   */\n    tag_98:\n        /* \"#utility.yul\":974:980   */\n      dup3\n        /* \"#utility.yul\":961:981   */\n      calldataload\n        /* \"#utility.yul\":951:981   */\n      swap1\n      pop\n        /* \"#utility.yul\":1004:1022   */\n      0xffffffffffffffff\n        /* \"#utility.yul\":996:1002   */\n      dup2\n        /* \"#utility.yul\":993:1023   */\n      gt\n        /* \"#utility.yul\":990:1107   */\n      iszero\n      tag_100\n      jumpi\n        /* \"#utility.yul\":1026:1105   */\n      tag_101\n      tag_78\n      jump\t// in\n    tag_101:\n        /* \"#utility.yul\":990:1107   */\n    tag_100:\n        /* \"#utility.yul\":1140:1144   */\n      0x20\n        /* \"#utility.yul\":1132:1138   */\n      dup4\n        /* \"#utility.yul\":1128:1145   */\n      add\n        /* \"#utility.yul\":1116:1145   */\n      swap2\n      pop\n        /* \"#utility.yul\":1194:1197   */\n      dup4\n        /* \"#utility.yul\":1186:1190   */\n      0x20\n        /* \"#utility.yul\":1178:1184   */\n      dup3\n        /* \"#utility.yul\":1174:1191   */\n      mul\n        /* \"#utility.yul\":1164:1172   */\n      dup4\n        /* \"#utility.yul\":1160:1192   */\n      add\n        /* \"#utility.yul\":1157:1198   */\n      gt\n        /* \"#utility.yul\":1154:1282   */\n      iszero\n      tag_102\n      jumpi\n        /* \"#utility.yul\":1201:1280   */\n      tag_103\n      tag_79\n      jump\t// in\n    tag_103:\n        /* \"#utility.yul\":1154:1282   */\n    tag_102:\n        /* \"#utility.yul\":720:1288   */\n      swap3\n      pop\n      swap3\n      swap1\n      pop\n      jump\t// out\n        /* \"#utility.yul\":1294:2228   */\n    tag_6:\n        /* \"#utility.yul\":1416:1422   */\n      0x00\n        /* \"#utility.yul\":1424:1430   */\n      0x00\n        /* \"#utility.yul\":1432:1438   */\n      0x00\n        /* \"#utility.yul\":1440:1446   */\n      0x00\n        /* \"#utility.yul\":1489:1491   */\n      0x40\n        /* \"#utility.yul\":1477:1486   */\n      dup6\n        /* \"#utility.yul\":1468:1475   */\n      dup8\n        /* \"#utility.yul\":1464:1487   */\n      sub\n        /* \"#utility.yul\":1460:1492   */\n      slt\n        /* \"#utility.yul\":1457:1576   */\n      iszero\n      tag_105\n      jumpi\n        /* \"#utility.yul\":1495:1574   */\n      tag_106\n      tag_75\n      jump\t// in\n    tag_106:\n        /* \"#utility.yul\":1457:1576   */\n    tag_105:\n        /* \"#utility.yul\":1643:1644   */\n      0x00\n        /* \"#utility.yul\":1632:1641   */\n      dup6\n        /* \"#utility.yul\":1628:1645   */\n      add\n        /* \"#utility.yul\":1615:1646   */\n      calldataload\n        /* \"#utility.yul\":1673:1691   */\n      0xffffffffffffffff\n        /* \"#utility.yul\":1665:1671   */\n      dup2\n        /* \"#utility.yul\":1662:1692   */\n      gt\n        /* \"#utility.yul\":1659:1776   */\n      iszero\n      tag_107\n      jumpi\n        /* \"#utility.yul\":1695:1774   */\n      tag_108\n      tag_76\n      jump\t// in\n    tag_108:\n        /* \"#utility.yul\":1659:1776   */\n    tag_107:\n        /* \"#utility.yul\":1808:1888   */\n      tag_109\n        /* \"#utility.yul\":1880:1887   */\n      dup8\n        /* \"#utility.yul\":1871:1877   */\n      dup3\n        /* \"#utility.yul\":1860:1869   */\n      dup9\n        /* \"#utility.yul\":1856:1878   */\n      add\n        /* \"#utility.yul\":1808:1888   */\n      tag_80\n      jump\t// in\n    tag_109:\n        /* \"#utility.yul\":1790:1888   */\n      swap5\n      pop\n      swap5\n      pop\n        /* \"#utility.yul\":1586:1898   */\n      pop\n        /* \"#utility.yul\":1965:1967   */\n      0x20\n        /* \"#utility.yul\":1954:1963   */\n      dup6\n        /* \"#utility.yul\":1950:1968   */\n      add\n        /* \"#utility.yul\":1937:1969   */\n      calldataload\n        /* \"#utility.yul\":1996:2014   */\n      0xffffffffffffffff\n        /* \"#utility.yul\":1988:1994   */\n      dup2\n        /* \"#utility.yul\":1985:2015   */\n      gt\n        /* \"#utility.yul\":1982:2099   */\n      iszero\n      tag_110\n      jumpi\n        /* \"#utility.yul\":2018:2097   */\n      tag_111\n      tag_76\n      jump\t// in\n    tag_111:\n        /* \"#utility.yul\":1982:2099   */\n    tag_110:\n        /* \"#utility.yul\":2131:2211   */\n      tag_112\n        /* \"#utility.yul\":2203:2210   */\n      dup8\n        /* \"#utility.yul\":2194:2200   */\n      dup3\n        /* \"#utility.yul\":2183:2192   */\n      dup9\n        /* \"#utility.yul\":2179:2201   */\n      add\n        /* \"#utility.yul\":2131:2211   */\n      tag_80\n      jump\t// in\n    tag_112:\n        /* \"#utility.yul\":2113:2211   */\n      swap3\n      pop\n      swap3\n      pop\n        /* \"#utility.yul\":1908:2221   */\n      pop\n        /* \"#utility.yul\":1294:2228   */\n      swap3\n      swap6\n      swap2\n      swap5\n      pop\n      swap3\n      pop\n      jump\t// out\n        /* \"#utility.yul\":2234:2348   */\n    tag_81:\n        /* \"#utility.yul\":2301:2307   */\n      0x00\n        /* \"#utility.yul\":2335:2340   */\n      dup2\n        /* \"#utility.yul\":2329:2341   */\n      mload\n        /* \"#utility.yul\":2319:2341   */\n      swap1\n      pop\n        /* \"#utility.yul\":2234:2348   */\n      swap2\n      swap1\n      pop\n      jump\t// out\n        /* \"#utility.yul\":2354:2538   */\n    tag_82:\n        /* \"#utility.yul\":2453:2464   */\n      0x00\n        /* \"#utility.yul\":2487:2493   */\n      dup3\n        /* \"#utility.yul\":2482:2485   */\n      dup3\n        /* \"#utility.yul\":2475:2494   */\n      mstore\n        /* \"#utility.yul\":2527:2531   */\n      0x20\n        /* \"#utility.yul\":2522:2525   */\n      dup3\n        /* \"#utility.yul\":2518:2532   */\n      add\n        /* \"#utility.yul\":2503:2532   */\n      swap1\n      pop\n        /* \"#utility.yul\":2354:2538   */\n      swap3\n      swap2\n      pop\n      pop\n      jump\t// out\n        /* \"#utility.yul\":2544:2676   */\n    tag_83:\n        /* \"#utility.yul\":2611:2615   */\n      0x00\n        /* \"#utility.yul\":2634:2637   */\n      dup2\n        /* \"#utility.yul\":2626:2637   */\n      swap1\n      pop\n        /* \"#utility.yul\":2664:2668   */\n      0x20\n        /* \"#utility.yul\":2659:2662   */\n      dup3\n        /* \"#utility.yul\":2655:2669   */\n      add\n        /* \"#utility.yul\":2647:2669   */\n      swap1\n      pop\n        /* \"#utility.yul\":2544:2676   */\n      swap2\n      swap1\n      pop\n      jump\t// out\n        /* \"#utility.yul\":2682:2759   */\n    tag_84:\n        /* \"#utility.yul\":2719:2726   */\n      0x00\n        /* \"#utility.yul\":2748:2753   */\n      dup2\n        /* \"#utility.yul\":2737:2753   */\n      swap1\n      pop\n        /* \"#utility.yul\":2682:2759   */\n      swap2\n      swap1\n      pop\n      jump\t// out\n        /* \"#utility.yul\":2765:2873   */\n    tag_85:\n        /* \"#utility.yul\":2842:2866   */\n      tag_118\n        /* \"#utility.yul\":2860:2865   */\n      dup2\n        /* \"#utility.yul\":2842:2866   */\n      tag_84\n      jump\t// in\n    tag_118:\n        /* \"#utility.yul\":2837:2840   */\n      dup3\n        /* \"#utility.yul\":2830:2867   */\n      mstore\n        /* \"#utility.yul\":2765:2873   */\n      pop\n      pop\n      jump\t// out\n        /* \"#utility.yul\":2879:3058   */\n    tag_86:\n        /* \"#utility.yul\":2948:2958   */\n      0x00\n        /* \"#utility.yul\":2969:3015   */\n      tag_120\n        /* \"#utility.yul\":3011:3014   */\n      dup4\n        /* \"#utility.yul\":3003:3009   */\n      dup4\n        /* \"#utility.yul\":2969:3015   */\n      tag_85\n      jump\t// in\n    tag_120:\n        /* \"#utility.yul\":3047:3051   */\n      0x20\n        /* \"#utility.yul\":3042:3045   */\n      dup4\n        /* \"#utility.yul\":3038:3052   */\n      add\n        /* \"#utility.yul\":3024:3052   */\n      swap1\n      pop\n        /* \"#utility.yul\":2879:3058   */\n      swap3\n      swap2\n      pop\n      pop\n      jump\t// out\n        /* \"#utility.yul\":3064:3177   */\n    tag_87:\n        /* \"#utility.yul\":3134:3138   */\n      0x00\n        /* \"#utility.yul\":3166:3170   */\n      0x20\n        /* \"#utility.yul\":3161:3164   */\n      dup3\n        /* \"#utility.yul\":3157:3171   */\n      add\n        /* \"#utility.yul\":3149:3171   */\n      swap1\n      pop\n        /* \"#utility.yul\":3064:3177   */\n      swap2\n      swap1\n      pop\n      jump\t// out\n        /* \"#utility.yul\":3213:3945   */\n    tag_88:\n        /* \"#utility.yul\":3332:3335   */\n      0x00\n        /* \"#utility.yul\":3361:3415   */\n      tag_123\n        /* \"#utility.yul\":3409:3414   */\n      dup3\n        /* \"#utility.yul\":3361:3415   */\n      tag_81\n      jump\t// in\n    tag_123:\n        /* \"#utility.yul\":3431:3517   */\n      tag_124\n        /* \"#utility.yul\":3510:3516   */\n      dup2\n        /* \"#utility.yul\":3505:3508   */\n      dup6\n        /* \"#utility.yul\":3431:3517   */\n      tag_82\n      jump\t// in\n    tag_124:\n        /* \"#utility.yul\":3424:3517   */\n      swap4\n      pop\n        /* \"#utility.yul\":3541:3597   */\n      tag_125\n        /* \"#utility.yul\":3591:3596   */\n      dup4\n        /* \"#utility.yul\":3541:3597   */\n      tag_83\n      jump\t// in\n    tag_125:\n        /* \"#utility.yul\":3620:3627   */\n      dup1\n        /* \"#utility.yul\":3651:3652   */\n      0x00\n        /* \"#utility.yul\":3636:3920   */\n    tag_126:\n        /* \"#utility.yul\":3661:3667   */\n      dup4\n        /* \"#utility.yul\":3658:3659   */\n      dup2\n        /* \"#utility.yul\":3655:3668   */\n      lt\n        /* \"#utility.yul\":3636:3920   */\n      iszero\n      tag_128\n      jumpi\n        /* \"#utility.yul\":3737:3743   */\n      dup2\n        /* \"#utility.yul\":3731:3744   */\n      mload\n        /* \"#utility.yul\":3764:3827   */\n      tag_129\n        /* \"#utility.yul\":3823:3826   */\n      dup9\n        /* \"#utility.yul\":3808:3821   */\n      dup3\n        /* \"#utility.yul\":3764:3827   */\n      tag_86\n      jump\t// in\n    tag_129:\n        /* \"#utility.yul\":3757:3827   */\n      swap8\n      pop\n        /* \"#utility.yul\":3850:3910   */\n      tag_130\n        /* \"#utility.yul\":3903:3909   */\n      dup4\n        /* \"#utility.yul\":3850:3910   */\n      tag_87\n      jump\t// in\n    tag_130:\n        /* \"#utility.yul\":3840:3910   */\n      swap3\n      pop\n        /* \"#utility.yul\":3696:3920   */\n      pop\n        /* \"#utility.yul\":3683:3684   */\n      0x01\n        /* \"#utility.yul\":3680:3681   */\n      dup2\n        /* \"#utility.yul\":3676:3685   */\n      add\n        /* \"#utility.yul\":3671:3685   */\n      swap1\n      pop\n        /* \"#utility.yul\":3636:3920   */\n      jump(tag_126)\n    tag_128:\n        /* \"#utility.yul\":3640:3654   */\n      pop\n        /* \"#utility.yul\":3936:3939   */\n      dup6\n        /* \"#utility.yul\":3929:3939   */\n      swap4\n      pop\n        /* \"#utility.yul\":3337:3945   */\n      pop\n      pop\n      pop\n        /* \"#utility.yul\":3213:3945   */\n      swap3\n      swap2\n      pop\n      pop\n      jump\t// out\n        /* \"#utility.yul\":3951:4324   */\n    tag_9:\n        /* \"#utility.yul\":4094:4098   */\n      0x00\n        /* \"#utility.yul\":4132:4134   */\n      0x20\n        /* \"#utility.yul\":4121:4130   */\n      dup3\n        /* \"#utility.yul\":4117:4135   */\n      add\n        /* \"#utility.yul\":4109:4135   */\n      swap1\n      pop\n        /* \"#utility.yul\":4181:4190   */\n      dup2\n        /* \"#utility.yul\":4175:4179   */\n      dup2\n        /* \"#utility.yul\":4171:4191   */\n      sub\n        /* \"#utility.yul\":4167:4168   */\n      0x00\n        /* \"#utility.yul\":4156:4165   */\n      dup4\n        /* \"#utility.yul\":4152:4169   */\n      add\n        /* \"#utility.yul\":4145:4192   */\n      mstore\n        /* \"#utility.yul\":4209:4317   */\n      tag_132\n        /* \"#utility.yul\":4312:4316   */\n      dup2\n        /* \"#utility.yul\":4303:4309   */\n      dup5\n        /* \"#utility.yul\":4209:4317   */\n      tag_88\n      jump\t// in\n    tag_132:\n        /* \"#utility.yul\":4201:4317   */\n      swap1\n      pop\n        /* \"#utility.yul\":3951:4324   */\n      swap3\n      swap2\n      pop\n      pop\n      jump\t// out\n        /* \"#utility.yul\":4330:4510   */\n    tag_89:\n        /* \"#utility.yul\":4378:4455   */\n      0x4e487b7100000000000000000000000000000000000000000000000000000000\n        /* \"#utility.yul\":4375:4376   */\n      0x00\n        /* \"#utility.yul\":4368:4456   */\n      mstore\n        /* \"#utility.yul\":4475:4479   */\n      0x11\n        /* \"#utility.yul\":4472:4473   */\n      0x04\n        /* \"#utility.yul\":4465:4480   */\n      mstore\n        /* \"#utility.yul\":4499:4503   */\n      0x24\n        /* \"#utility.yul\":4496:4497   */\n      0x00\n        /* \"#utility.yul\":4489:4504   */\n      revert\n        /* \"#utility.yul\":4516:4707   */\n    tag_12:\n        /* \"#utility.yul\":4556:4559   */\n      0x00\n        /* \"#utility.yul\":4575:4595   */\n      tag_135\n        /* \"#utility.yul\":4593:4594   */\n      dup3\n        /* \"#utility.yul\":4575:4595   */\n      tag_84\n      jump\t// in\n    tag_135:\n        /* \"#utility.yul\":4570:4595   */\n      swap2\n      pop\n        /* \"#utility.yul\":4609:4629   */\n      tag_136\n        /* \"#utility.yul\":4627:4628   */\n      dup4\n        /* \"#utility.yul\":4609:4629   */\n      tag_84\n      jump\t// in\n    tag_136:\n        /* \"#utility.yul\":4604:4629   */\n      swap3\n      pop\n        /* \"#utility.yul\":4652:4653   */\n      dup3\n        /* \"#utility.yul\":4649:4650   */\n      dup3\n        /* \"#utility.yul\":4645:4654   */\n      add\n        /* \"#utility.yul\":4638:4654   */\n      swap1\n      pop\n        /* \"#utility.yul\":4673:4676   */\n      dup1\n        /* \"#utility.yul\":4670:4671   */\n      dup3\n        /* \"#utility.yul\":4667:4677   */\n      gt\n        /* \"#utility.yul\":4664:4700   */\n      iszero\n      tag_137\n      jumpi\n        /* \"#utility.yul\":4680:4698   */\n      tag_138\n      tag_89\n      jump\t// in\n    tag_138:\n        /* \"#utility.yul\":4664:4700   */\n    tag_137:\n        /* \"#utility.yul\":4516:4707   */\n      swap3\n      swap2\n      pop\n      pop\n      jump\t// out\n        /* \"#utility.yul\":4713:4893   */\n    tag_15:\n        /* \"#utility.yul\":4761:4838   */\n      0x4e487b7100000000000000000000000000000000000000000000000000000000\n        /* \"#utility.yul\":4758:4759   */\n      0x00\n        /* \"#utility.yul\":4751:4839   */\n      mstore\n        /* \"#utility.yul\":4858:4862   */\n      0x41\n        /* \"#utility.yul\":4855:4856   */\n      0x04\n        /* \"#utility.yul\":4848:4863   */\n      mstore\n        /* \"#utility.yul\":4882:4886   */\n      0x24\n        /* \"#utility.yul\":4879:4880   */\n      0x00\n        /* \"#utility.yul\":4872:4887   */\n      revert\n        /* \"#utility.yul\":4899:5079   */\n    tag_22:\n        /* \"#utility.yul\":4947:5024   */\n      0x4e487b7100000000000000000000000000000000000000000000000000000000\n        /* \"#utility.yul\":4944:4945   */\n      0x00\n        /* \"#utility.yul\":4937:5025   */\n      mstore\n        /* \"#utility.yul\":5044:5048   */\n      0x32\n        /* \"#utility.yul\":5041:5042   */\n      0x04\n        /* \"#utility.yul\":5034:5049   */\n      mstore\n        /* \"#utility.yul\":5068:5072   */\n      0x24\n        /* \"#utility.yul\":5065:5066   */\n      0x00\n        /* \"#utility.yul\":5058:5073   */\n      revert\n        /* \"#utility.yul\":5085:5318   */\n    tag_27:\n        /* \"#utility.yul\":5124:5127   */\n      0x00\n        /* \"#utility.yul\":5147:5171   */\n      tag_142\n        /* \"#utility.yul\":5165:5170   */\n      dup3\n        /* \"#utility.yul\":5147:5171   */\n      tag_84\n      jump\t// in\n    tag_142:\n        /* \"#utility.yul\":5138:5171   */\n      swap2\n      pop\n        /* \"#utility.yul\":5193:5259   */\n      0xffffffffffffffffffffffffffffffffffffffffffffffffffffffffffffffff\n        /* \"#utility.yul\":5186:5191   */\n      dup3\n        /* \"#utility.yul\":5183:5260   */\n      sub\n        /* \"#utility.yul\":5180:5283   */\n      tag_143\n      jumpi\n        /* \"#utility.yul\":5263:5281   */\n      tag_144\n      tag_89\n      jump\t// in\n    tag_144:\n        /* \"#utility.yul\":5180:5283   */\n    tag_143:\n        /* \"#utility.yul\":5310:5311   */\n      0x01\n        /* \"#utility.yul\":5303:5308   */\n      dup3\n        /* \"#utility.yul\":5299:5312   */\n      add\n        /* \"#utility.yul\":5292:5312   */\n      swap1\n      pop\n        /* \"#utility.yul\":5085:5318   */\n      swap2\n      swap1\n      pop\n      jump\t// out\n\n    auxdata: 0xa2646970667358221220ec3d189f0b61a326e19081654c7b47036c3349ccc8e1e5958e96dddaeb5d13f364736f6c634300081f0033\n}\n",
				"bytecode": {
					"linkReferences": {},
					"object": "6080604052348015600e575f5ffd5b506106798061001c5f395ff3fe608060405234801561000f575f5ffd5b5060043610610029575f3560e01c8063088b9bf61461002d575b5f5ffd5b610047600480360381019061004291906103e4565b61005d565b6040516100549190610522565b60405180910390f35b60605f8585905090505f8484905090505f818361007a919061056f565b67ffffffffffffffff811115610093576100926105a2565b5b6040519080825280602002602001820160405280156100c15781602001602082028036833780820191505090505b5090505f5f90505f5f90505f5f90505b85831080156100df57508482105b156102ac578888838181106100f7576100f66105cf565b5b905060200201358b8b85818110610111576101106105cf565b5b905060200201351015610174578a8a848061012b906105fc565b955081811061013d5761013c6105cf565b5b90506020020135848280610150906105fc565b935081518110610163576101626105cf565b5b6020026020010181815250506102a7565b888883818110610187576101866105cf565b5b905060200201358b8b858181106101a1576101a06105cf565b5b9050602002013503610254578a8a84806101ba906105fc565b95508181106101cc576101cb6105cf565b5b905060200201358482806101df906105fc565b9350815181106101f2576101f16105cf565b5b6020026020010181815250508888838061020b906105fc565b945081811061021d5761021c6105cf565b5b90506020020135848280610230906105fc565b935081518110610243576102426105cf565b5b6020026020010181815250506102a6565b88888380610261906105fc565b9450818110610273576102726105cf565b5b90506020020135848280610286906105fc565b935081518110610299576102986105cf565b5b6020026020010181815250505b5b6100d1565b5b8583101561030b578a8a84806102c2906105fc565b95508181106102d4576102d36105cf565b5b905060200201358482806102e7906105fc565b9350815181106102fa576102f96105cf565b5b6020026020010181815250506102ad565b5b8482101561036a5788888380610321906105fc565b9450818110610333576103326105cf565b5b90506020020135848280610346906105fc565b935081518110610359576103586105cf565b5b60200260200101818152505061030c565b839650505050505050949350505050565b5f5ffd5b5f5ffd5b5f5ffd5b5f5ffd5b5f5ffd5b5f5f83601f8401126103a4576103a3610383565b5b8235905067ffffffffffffffff8111156103c1576103c0610387565b5b6020830191508360208202830111156103dd576103dc61038b565b5b9250929050565b5f5f5f5f604085870312156103fc576103fb61037b565b5b5f85013567ffffffffffffffff8111156104195761041861037f565b5b6104258782880161038f565b9450945050602085013567ffffffffffffffff8111156104485761044761037f565b5b6104548782880161038f565b925092505092959194509250565b5f81519050919050565b5f82825260208201905092915050565b5f819050602082019050919050565b5f819050919050565b61049d8161048b565b82525050565b5f6104ae8383610494565b60208301905092915050565b5f602082019050919050565b5f6104d082610462565b6104da818561046c565b93506104e58361047c565b805f5b838110156105155781516104fc88826104a3565b9750610507836104ba565b9250506001810190506104e8565b5085935050505092915050565b5f6020820190508181035f83015261053a81846104c6565b905092915050565b7f4e487b71000000000000000000000000000000000000000000000000000000005f52601160045260245ffd5b5f6105798261048b565b91506105848361048b565b925082820190508082111561059c5761059b610542565b5b92915050565b7f4e487b71000000000000000000000000000000000000000000000000000000005f52604160045260245ffd5b7f4e487b71000000000000000000000000000000000000000000000000000000005f52603260045260245ffd5b5f6106068261048b565b91507fffffffffffffffffffffffffffffffffffffffffffffffffffffffffffffffff820361063857610637610542565b5b60018201905091905056fea2646970667358221220ec3d189f0b61a326e19081654c7b47036c3349ccc8e1e5958e96dddaeb5d13f364736f6c634300081f0033",
					"opcodes": "PUSH1 0x80 PUSH1 0x40 MSTORE CALLVALUE DUP1 ISZERO PUSH1 0xE JUMPI PUSH0 PUSH0 REVERT JUMPDEST POP PUSH2 0x679 DUP1 PUSH2 0x1C PUSH0 CODECOPY PUSH0 RETURN INVALID PUSH1 0x80 PUSH1 0x40 MSTORE CALLVALUE DUP1 ISZERO PUSH2 0xF JUMPI PUSH0 PUSH0 REVERT JUMPDEST POP PUSH1 0x4 CALLDATASIZE LT PUSH2 0x29 JUMPI PUSH0 CALLDATALOAD PUSH1 0xE0 SHR DUP1 PUSH4 0x88B9BF6 EQ PUSH2 0x2D JUMPI JUMPDEST PUSH0 PUSH0 REVERT JUMPDEST PUSH2 0x47 PUSH1 0x4 DUP1 CALLDATASIZE SUB DUP2 ADD SWAP1 PUSH2 0x42 SWAP2 SWAP1 PUSH2 0x3E4 JUMP JUMPDEST PUSH2 0x5D JUMP JUMPDEST PUSH1 0x40 MLOAD PUSH2 0x54 SWAP2 SWAP1 PUSH2 0x522 JUMP JUMPDEST PUSH1 0x40 MLOAD DUP1 SWAP2 SUB SWAP1 RETURN JUMPDEST PUSH1 0x60 PUSH0 DUP6 DUP6 SWAP1 POP SWAP1 POP PUSH0 DUP5 DUP5 SWAP1 POP SWAP1 POP PUSH0 DUP2 DUP4 PUSH2 0x7A SWAP2 SWAP1 PUSH2 0x56F JUMP JUMPDEST PUSH8 0xFFFFFFFFFFFFFFFF DUP2 GT ISZERO PUSH2 0x93 JUMPI PUSH2 0x92 PUSH2 0x5A2 JUMP JUMPDEST JUMPDEST PUSH1 0x40 MLOAD SWAP1 DUP1 DUP3 MSTORE DUP1 PUSH1 0x20 MUL PUSH1 0x20 ADD DUP3 ADD PUSH1 0x40 MSTORE DUP1 ISZERO PUSH2 0xC1 JUMPI DUP2 PUSH1 0x20 ADD PUSH1 0x20 DUP3 MUL DUP1 CALLDATASIZE DUP4 CALLDATACOPY DUP1 DUP3 ADD SWAP2 POP POP SWAP1 POP JUMPDEST POP SWAP1 POP PUSH0 PUSH0 SWAP1 POP PUSH0 PUSH0 SWAP1 POP PUSH0 PUSH0 SWAP1 POP JUMPDEST DUP6 DUP4 LT DUP1 ISZERO PUSH2 0xDF JUMPI POP DUP5 DUP3 LT JUMPDEST ISZERO PUSH2 0x2AC JUMPI DUP9 DUP9 DUP4 DUP2 DUP2 LT PUSH2 0xF7 JUMPI PUSH2 0xF6 PUSH2 0x5CF JUMP JUMPDEST JUMPDEST SWAP1 POP PUSH1 0x20 MUL ADD CALLDATALOAD DUP12 DUP12 DUP6 DUP2 DUP2 LT PUSH2 0x111 JUMPI PUSH2 0x110 PUSH2 0x5CF JUMP JUMPDEST JUMPDEST SWAP1 POP PUSH1 0x20 MUL ADD CALLDATALOAD LT ISZERO PUSH2 0x174 JUMPI DUP11 DUP11 DUP5 DUP1 PUSH2 0x12B SWAP1 PUSH2 0x5FC JUMP JUMPDEST SWAP6 POP DUP2 DUP2 LT PUSH2 0x13D JUMPI PUSH2 0x13C PUSH2 0x5CF JUMP JUMPDEST JUMPDEST SWAP1 POP PUSH1 0x20 MUL ADD CALLDATALOAD DUP5 DUP3 DUP1 PUSH2 0x150 SWAP1 PUSH2 0x5FC JUMP JUMPDEST SWAP4 POP DUP2 MLOAD DUP2 LT PUSH2 0x163 JUMPI PUSH2 0x162 PUSH2 0x5CF JUMP JUMPDEST JUMPDEST PUSH1 0x20 MUL PUSH1 0x20 ADD ADD DUP2 DUP2 MSTORE POP POP PUSH2 0x2A7 JUMP JUMPDEST DUP9 DUP9 DUP4 DUP2 DUP2 LT PUSH2 0x187 JUMPI PUSH2 0x186 PUSH2 0x5CF JUMP JUMPDEST JUMPDEST SWAP1 POP PUSH1 0x20 MUL ADD CALLDATALOAD DUP12 DUP12 DUP6 DUP2 DUP2 LT PUSH2 0x1A1 JUMPI PUSH2 0x1A0 PUSH2 0x5CF JUMP JUMPDEST JUMPDEST SWAP1 POP PUSH1 0x20 MUL ADD CALLDATALOAD SUB PUSH2 0x254 JUMPI DUP11 DUP11 DUP5 DUP1 PUSH2 0x1BA SWAP1 PUSH2 0x5FC JUMP JUMPDEST SWAP6 POP DUP2 DUP2 LT PUSH2 0x1CC JUMPI PUSH2 0x1CB PUSH2 0x5CF JUMP JUMPDEST JUMPDEST SWAP1 POP PUSH1 0x20 MUL ADD CALLDATALOAD DUP5 DUP3 DUP1 PUSH2 0x1DF SWAP1 PUSH2 0x5FC JUMP JUMPDEST SWAP4 POP DUP2 MLOAD DUP2 LT PUSH2 0x1F2 JUMPI PUSH2 0x1F1 PUSH2 0x5CF JUMP JUMPDEST JUMPDEST PUSH1 0x20 MUL PUSH1 0x20 ADD ADD DUP2 DUP2 MSTORE POP POP DUP9 DUP9 DUP4 DUP1 PUSH2 0x20B SWAP1 PUSH2 0x5FC JUMP JUMPDEST SWAP5 POP DUP2 DUP2 LT PUSH2 0x21D JUMPI PUSH2 0x21C PUSH2 0x5CF JUMP JUMPDEST JUMPDEST SWAP1 POP PUSH1 0x20 MUL ADD CALLDATALOAD DUP5 DUP3 DUP1 PUSH2 0x230 SWAP1 PUSH2 0x5FC JUMP JUMPDEST SWAP4 POP DUP2 MLOAD DUP2 LT PUSH2 0x243 JUMPI PUSH2 0x242 PUSH2 0x5CF JUMP JUMPDEST JUMPDEST PUSH1 0x20 MUL PUSH1 0x20 ADD ADD DUP2 DUP2 MSTORE POP POP PUSH2 0x2A6 JUMP JUMPDEST DUP9 DUP9 DUP4 DUP1 PUSH2 0x261 SWAP1 PUSH2 0x5FC JUMP JUMPDEST SWAP5 POP DUP2 DUP2 LT PUSH2 0x273 JUMPI PUSH2 0x272 PUSH2 0x5CF JUMP JUMPDEST JUMPDEST SWAP1 POP PUSH1 0x20 MUL ADD CALLDATALOAD DUP5 DUP3 DUP1 PUSH2 0x286 SWAP1 PUSH2 0x5FC JUMP JUMPDEST SWAP4 POP DUP2 MLOAD DUP2 LT PUSH2 0x299 JUMPI PUSH2 0x298 PUSH2 0x5CF JUMP JUMPDEST JUMPDEST PUSH1 0x20 MUL PUSH1 0x20 ADD ADD DUP2 DUP2 MSTORE POP POP JUMPDEST JUMPDEST PUSH2 0xD1 JUMP JUMPDEST JUMPDEST DUP6 DUP4 LT ISZERO PUSH2 0x30B JUMPI DUP11 DUP11 DUP5 DUP1 PUSH2 0x2C2 SWAP1 PUSH2 0x5FC JUMP JUMPDEST SWAP6 POP DUP2 DUP2 LT PUSH2 0x2D4 JUMPI PUSH2 0x2D3 PUSH2 0x5CF JUMP JUMPDEST JUMPDEST SWAP1 POP PUSH1 0x20 MUL ADD CALLDATALOAD DUP5 DUP3 DUP1 PUSH2 0x2E7 SWAP1 PUSH2 0x5FC JUMP JUMPDEST SWAP4 POP DUP2 MLOAD DUP2 LT PUSH2 0x2FA JUMPI PUSH2 0x2F9 PUSH2 0x5CF JUMP JUMPDEST JUMPDEST PUSH1 0x20 MUL PUSH1 0x20 ADD ADD DUP2 DUP2 MSTORE POP POP PUSH2 0x2AD JUMP JUMPDEST JUMPDEST DUP5 DUP3 LT ISZERO PUSH2 0x36A JUMPI DUP9 DUP9 DUP4 DUP1 PUSH2 0x321 SWAP1 PUSH2 0x5FC JUMP JUMPDEST SWAP5 POP DUP2 DUP2 LT PUSH2 0x333 JUMPI PUSH2 0x332 PUSH2 0x5CF JUMP JUMPDEST JUMPDEST SWAP1 POP PUSH1 0x20 MUL ADD CALLDATALOAD DUP5 DUP3 DUP1 PUSH2 0x346 SWAP1 PUSH2 0x5FC JUMP JUMPDEST SWAP4 POP DUP2 MLOAD DUP2 LT PUSH2 0x359 JUMPI PUSH2 0x358 PUSH2 0x5CF JUMP JUMPDEST JUMPDEST PUSH1 0x20 MUL PUSH1 0x20 ADD ADD DUP2 DUP2 MSTORE POP POP PUSH2 0x30C JUMP JUMPDEST DUP4 SWAP7 POP POP POP POP POP POP POP SWAP5 SWAP4 POP POP POP POP JUMP JUMPDEST PUSH0 PUSH0 REVERT JUMPDEST PUSH0 PUSH0 REVERT JUMPDEST PUSH0 PUSH0 REVERT JUMPDEST PUSH0 PUSH0 REVERT JUMPDEST PUSH0 PUSH0 REVERT JUMPDEST PUSH0 PUSH0 DUP4 PUSH1 0x1F DUP5 ADD SLT PUSH2 0x3A4 JUMPI PUSH2 0x3A3 PUSH2 0x383 JUMP JUMPDEST JUMPDEST DUP3 CALLDATALOAD SWAP1 POP PUSH8 0xFFFFFFFFFFFFFFFF DUP2 GT ISZERO PUSH2 0x3C1 JUMPI PUSH2 0x3C0 PUSH2 0x387 JUMP JUMPDEST JUMPDEST PUSH1 0x20 DUP4 ADD SWAP2 POP DUP4 PUSH1 0x20 DUP3 MUL DUP4 ADD GT ISZERO PUSH2 0x3DD JUMPI PUSH2 0x3DC PUSH2 0x38B JUMP JUMPDEST JUMPDEST SWAP3 POP SWAP3 SWAP1 POP JUMP JUMPDEST PUSH0 PUSH0 PUSH0 PUSH0 PUSH1 0x40 DUP6 DUP8 SUB SLT ISZERO PUSH2 0x3FC JUMPI PUSH2 0x3FB PUSH2 0x37B JUMP JUMPDEST JUMPDEST PUSH0 DUP6 ADD CALLDATALOAD PUSH8 0xFFFFFFFFFFFFFFFF DUP2 GT ISZERO PUSH2 0x419 JUMPI PUSH2 0x418 PUSH2 0x37F JUMP JUMPDEST JUMPDEST PUSH2 0x425 DUP8 DUP3 DUP9 ADD PUSH2 0x38F JUMP JUMPDEST SWAP5 POP SWAP5 POP POP PUSH1 0x20 DUP6 ADD CALLDATALOAD PUSH8 0xFFFFFFFFFFFFFFFF DUP2 GT ISZERO PUSH2 0x448 JUMPI PUSH2 0x447 PUSH2 0x37F JUMP JUMPDEST JUMPDEST PUSH2 0x454 DUP8 DUP3 DUP9 ADD PUSH2 0x38F JUMP JUMPDEST SWAP3 POP SWAP3 POP POP SWAP3 SWAP6 SWAP2 SWAP5 POP SWAP3 POP JUMP JUMPDEST PUSH0 DUP2 MLOAD SWAP1 POP SWAP2 SWAP1 POP JUMP JUMPDEST PUSH0 DUP3 DUP3 MSTORE PUSH1 0x20 DUP3 ADD SWAP1 POP SWAP3 SWAP2 POP POP JUMP JUMPDEST PUSH0 DUP2 SWAP1 POP PUSH1 0x20 DUP3 ADD SWAP1 POP SWAP2 SWAP1 POP JUMP JUMPDEST PUSH0 DUP2 SWAP1 POP SWAP2 SWAP1 POP JUMP JUMPDEST PUSH2 0x49D DUP2 PUSH2 0x48B JUMP JUMPDEST DUP3 MSTORE POP POP JUMP JUMPDEST PUSH0 PUSH2 0x4AE DUP4 DUP4 PUSH2 0x494 JUMP JUMPDEST PUSH1 0x20 DUP4 ADD SWAP1 POP SWAP3 SWAP2 POP POP JUMP JUMPDEST PUSH0 PUSH1 0x20 DUP3 ADD SWAP1 POP SWAP2 SWAP1 POP JUMP JUMPDEST PUSH0 PUSH2 0x4D0 DUP3 PUSH2 0x462 JUMP JUMPDEST PUSH2 0x4DA DUP2 DUP6 PUSH2 0x46C JUMP JUMPDEST SWAP4 POP PUSH2 0x4E5 DUP4 PUSH2 0x47C JUMP JUMPDEST DUP1 PUSH0 JUMPDEST DUP4 DUP2 LT ISZERO PUSH2 0x515 JUMPI DUP2 MLOAD PUSH2 0x4FC DUP9 DUP3 PUSH2 0x4A3 JUMP JUMPDEST SWAP8 POP PUSH2 0x507 DUP4 PUSH2 0x4BA JUMP JUMPDEST SWAP3 POP POP PUSH1 0x1 DUP2 ADD SWAP1 POP PUSH2 0x4E8 JUMP JUMPDEST POP DUP6 SWAP4 POP POP POP POP SWAP3 SWAP2 POP POP JUMP JUMPDEST PUSH0 PUSH1 0x20 DUP3 ADD SWAP1 POP DUP2 DUP2 SUB PUSH0 DUP4 ADD MSTORE PUSH2 0x53A DUP2 DUP5 PUSH2 0x4C6 JUMP JUMPDEST SWAP1 POP SWAP3 SWAP2 POP POP JUMP JUMPDEST PUSH32 0x4E487B7100000000000000000000000000000000000000000000000000000000 PUSH0 MSTORE PUSH1 0x11 PUSH1 0x4 MSTORE PUSH1 0x24 PUSH0 REVERT JUMPDEST PUSH0 PUSH2 0x579 DUP3 PUSH2 0x48B JUMP JUMPDEST SWAP2 POP PUSH2 0x584 DUP4 PUSH2 0x48B JUMP JUMPDEST SWAP3 POP DUP3 DUP3 ADD SWAP1 POP DUP1 DUP3 GT ISZERO PUSH2 0x59C JUMPI PUSH2 0x59B PUSH2 0x542 JUMP JUMPDEST JUMPDEST SWAP3 SWAP2 POP POP JUMP JUMPDEST PUSH32 0x4E487B7100000000000000000000000000000000000000000000000000000000 PUSH0 MSTORE PUSH1 0x41 PUSH1 0x4 MSTORE PUSH1 0x24 PUSH0 REVERT JUMPDEST PUSH32 0x4E487B7100000000000000000000000000000000000000000000000000000000 PUSH0 MSTORE PUSH1 0x32 PUSH1 0x4 MSTORE PUSH1 0x24 PUSH0 REVERT JUMPDEST PUSH0 PUSH2 0x606 DUP3 PUSH2 0x48B JUMP JUMPDEST SWAP2 POP PUSH32 0xFFFFFFFFFFFFFFFFFFFFFFFFFFFFFFFFFFFFFFFFFFFFFFFFFFFFFFFFFFFFFFFF DUP3 SUB PUSH2 0x638 JUMPI PUSH2 0x637 PUSH2 0x542 JUMP JUMPDEST JUMPDEST PUSH1 0x1 DUP3 ADD SWAP1 POP SWAP2 SWAP1 POP JUMP INVALID LOG2 PUSH5 0x6970667358 0x22 SLT KECCAK256 EOFCREATE 0x3D XOR SWAP16 SIGNEXTEND PUSH2 0xA326 RJUMPI 0x9081 PUSH6 0x4C7B47036C33 BLOBHASH 0xCC 0xC8 RJUMPI 0xE595 DUP15 SWAP7 0xDD 0xDA 0xEB TSTORE SGT RETURN PUSH5 0x736F6C6343 STOP ADDMOD 0x1F STOP CALLER "
				},
				"gasEstimates": {
					"creation": {
						"codeDepositCost": "331400",
						"executionCost": "366",
						"totalCost": "331766"
					},
					"external": {
						"merge(uint256[],uint256[])": "infinite"
					}
				},
				"methodIdentifiers": {
					"merge(uint256[],uint256[])": "088b9bf6"
				}
			},
			"storageLayout": {
				"storage": [],
				"types": null
			},
			"userdoc": {
				"kind": "user",
				"methods": {},
				"version": 1
			}
		}
	}
}