{
	"contracts/task01/Voting.sol": {
		"Voting": {
			"abi": [
				{
					"inputs": [
						{
							"internalType": "string",
							"name": "username",
							"type": "string"
						}
					],
					"name": "getVotes",
					"outputs": [
						{
							"internalType": "uint256",
							"name": "getVote",
							"type": "uint256"
						}
					],
					"stateMutability": "view",
					"type": "function"
				},
				{
					"inputs": [
						{
							"internalType": "string",
							"name": "username",
							"type": "string"
						}
					],
					"name": "resetVotes",
					"outputs": [],
					"stateMutability": "nonpayable",
					"type": "function"
				},
				{
					"inputs": [
						{
							"internalType": "string",
							"name": "username",
							"type": "string"
						},
						{
							"internalType": "uint256",
							"name": "giveVote",
							"type": "uint256"
						}
					],
					"name": "vote",
					"outputs": [],
					"stateMutability": "nonpayable",
					"type": "function"
				},
				{
					"inputs": [
						{
							"internalType": "string",
							"name": "",
							"type": "string"
						}
					],
					"name": "votes",
					"outputs": [
						{
							"internalType": "uint256",
							"name": "",
							"type": "uint256"
						}
					],
					"stateMutability": "view",
					"type": "function"
				}
			],
			"devdoc": {
				"kind": "dev",
				"methods": {},
				"version": 1
			},
			"evm": {
				"assembly": "    /* \"contracts/task01/Voting.sol\":356:752  contract Voting{... */\n  mstore(0x40, 0x80)\n  callvalue\n  dup1\n  iszero\n  tag_1\n  jumpi\n  revert(0x00, 0x00)\ntag_1:\n  pop\n  dataSize(sub_0)\n  dup1\n  dataOffset(sub_0)\n  0x00\n  codecopy\n  0x00\n  return\nstop\n\nsub_0: assembly {\n        /* \"contracts/task01/Voting.sol\":356:752  contract Voting{... */\n      mstore(0x40, 0x80)\n      callvalue\n      dup1\n      iszero\n      tag_1\n      jumpi\n      revert(0x00, 0x00)\n    tag_1:\n      pop\n      jumpi(tag_2, lt(calldatasize, 0x04))\n      shr(0xe0, calldataload(0x00))\n      dup1\n      0x805265e5\n      eq\n      tag_3\n      jumpi\n      dup1\n      0xa6385803\n      eq\n      tag_4\n      jumpi\n      dup1\n      0xb99ef1fa\n      eq\n      tag_5\n      jumpi\n      dup1\n      0xf3fa4226\n      eq\n      tag_6\n      jumpi\n    tag_2:\n      revert(0x00, 0x00)\n        /* \"contracts/task01/Voting.sol\":425:547  function getVotes(string memory username)public view  returns  (uint256 getVote){... */\n    tag_3:\n      tag_7\n      tag_8\n      calldatasize\n      0x04\n      tag_9\n      jump\t// in\n    tag_8:\n      tag_10\n      jump\t// in\n    tag_7:\n      mload(0x40)\n        /* \"#utility.yul\":1350:1375   */\n      swap1\n      dup2\n      mstore\n        /* \"#utility.yul\":1338:1340   */\n      0x20\n        /* \"#utility.yul\":1323:1341   */\n      add\n        /* \"contracts/task01/Voting.sol\":425:547  function getVotes(string memory username)public view  returns  (uint256 getVote){... */\n      mload(0x40)\n      dup1\n      swap2\n      sub\n      swap1\n      return\n        /* \"contracts/task01/Voting.sol\":645:750  function vote(string memory username,uint256 giveVote)public  {... */\n    tag_4:\n      tag_13\n      tag_14\n      calldatasize\n      0x04\n      tag_15\n      jump\t// in\n    tag_14:\n      tag_16\n      jump\t// in\n    tag_13:\n      stop\n        /* \"contracts/task01/Voting.sol\":377:418  mapping(string  => uint256 ) public votes */\n    tag_5:\n      tag_7\n      tag_18\n      calldatasize\n      0x04\n      tag_9\n      jump\t// in\n    tag_18:\n      dup1\n      mload\n      0x20\n      dup2\n      dup4\n      add\n      dup2\n      add\n      dup1\n      mload\n      0x00\n      dup3\n      mstore\n      swap3\n      dup3\n      add\n      swap2\n      swap1\n      swap4\n      add\n      keccak256\n      swap2\n      mstore\n      sload\n      dup2\n      jump\n        /* \"contracts/task01/Voting.sol\":553:639  function resetVotes(string memory username)public {... */\n    tag_6:\n      tag_13\n      tag_22\n      calldatasize\n      0x04\n      tag_9\n      jump\t// in\n    tag_22:\n      tag_23\n      jump\t// in\n        /* \"contracts/task01/Voting.sol\":425:547  function getVotes(string memory username)public view  returns  (uint256 getVote){... */\n    tag_10:\n        /* \"contracts/task01/Voting.sol\":489:504  uint256 getVote */\n      0x00\n        /* \"contracts/task01/Voting.sol\":525:530  votes */\n      0x00\n        /* \"contracts/task01/Voting.sol\":531:539  username */\n      dup3\n        /* \"contracts/task01/Voting.sol\":525:540  votes[username] */\n      mload(0x40)\n      tag_25\n      swap2\n      swap1\n      tag_26\n      jump\t// in\n    tag_25:\n      swap1\n      dup2\n      mstore\n      0x20\n      add\n      mload(0x40)\n      dup1\n      swap2\n      sub\n      swap1\n      keccak256\n      sload\n        /* \"contracts/task01/Voting.sol\":515:540  getVote = votes[username] */\n      swap1\n      pop\n        /* \"contracts/task01/Voting.sol\":425:547  function getVotes(string memory username)public view  returns  (uint256 getVote){... */\n      swap2\n      swap1\n      pop\n      jump\t// out\n        /* \"contracts/task01/Voting.sol\":645:750  function vote(string memory username,uint256 giveVote)public  {... */\n    tag_16:\n        /* \"contracts/task01/Voting.sol\":735:743  giveVote */\n      dup1\n        /* \"contracts/task01/Voting.sol\":717:722  votes */\n      0x00\n        /* \"contracts/task01/Voting.sol\":723:731  username */\n      dup4\n        /* \"contracts/task01/Voting.sol\":717:732  votes[username] */\n      mload(0x40)\n      tag_28\n      swap2\n      swap1\n      tag_26\n      jump\t// in\n    tag_28:\n      swap1\n      dup2\n      mstore\n      mload(0x40)\n      swap1\n      dup2\n      swap1\n      sub\n      0x20\n      add\n      swap1\n      keccak256\n        /* \"contracts/task01/Voting.sol\":717:743  votes[username] = giveVote */\n      sstore\n      pop\n      pop\n        /* \"contracts/task01/Voting.sol\":645:750  function vote(string memory username,uint256 giveVote)public  {... */\n      jump\t// out\n        /* \"contracts/task01/Voting.sol\":553:639  function resetVotes(string memory username)public {... */\n    tag_23:\n        /* \"contracts/task01/Voting.sol\":631:632  0 */\n      0x00\n        /* \"contracts/task01/Voting.sol\":613:618  votes */\n      0x00\n        /* \"contracts/task01/Voting.sol\":619:627  username */\n      dup3\n        /* \"contracts/task01/Voting.sol\":613:628  votes[username] */\n      mload(0x40)\n      tag_30\n      swap2\n      swap1\n      tag_26\n      jump\t// in\n    tag_30:\n      swap1\n      dup2\n      mstore\n      mload(0x40)\n      swap1\n      dup2\n      swap1\n      sub\n      0x20\n      add\n      swap1\n      keccak256\n        /* \"contracts/task01/Voting.sol\":613:632  votes[username] = 0 */\n      sstore\n      pop\n        /* \"contracts/task01/Voting.sol\":553:639  function resetVotes(string memory username)public {... */\n      jump\t// out\n        /* \"#utility.yul\":14:141   */\n    tag_31:\n        /* \"#utility.yul\":75:85   */\n      0x4e487b71\n        /* \"#utility.yul\":70:73   */\n      0xe0\n        /* \"#utility.yul\":66:86   */\n      shl\n        /* \"#utility.yul\":63:64   */\n      0x00\n        /* \"#utility.yul\":56:87   */\n      mstore\n        /* \"#utility.yul\":106:110   */\n      0x41\n        /* \"#utility.yul\":103:104   */\n      0x04\n        /* \"#utility.yul\":96:111   */\n      mstore\n        /* \"#utility.yul\":130:134   */\n      0x24\n        /* \"#utility.yul\":127:128   */\n      0x00\n        /* \"#utility.yul\":120:135   */\n      revert\n        /* \"#utility.yul\":146:872   */\n    tag_32:\n        /* \"#utility.yul\":189:194   */\n      0x00\n        /* \"#utility.yul\":242:245   */\n      dup3\n        /* \"#utility.yul\":235:239   */\n      0x1f\n        /* \"#utility.yul\":227:233   */\n      dup4\n        /* \"#utility.yul\":223:240   */\n      add\n        /* \"#utility.yul\":219:246   */\n      slt\n        /* \"#utility.yul\":209:264   */\n      tag_36\n      jumpi\n        /* \"#utility.yul\":260:261   */\n      0x00\n        /* \"#utility.yul\":257:258   */\n      0x00\n        /* \"#utility.yul\":250:262   */\n      revert\n        /* \"#utility.yul\":209:264   */\n    tag_36:\n        /* \"#utility.yul\":300:306   */\n      dup2\n        /* \"#utility.yul\":287:307   */\n      calldataload\n        /* \"#utility.yul\":330:348   */\n      0xffffffffffffffff\n        /* \"#utility.yul\":322:328   */\n      dup2\n        /* \"#utility.yul\":319:349   */\n      gt\n        /* \"#utility.yul\":316:372   */\n      iszero\n      tag_38\n      jumpi\n        /* \"#utility.yul\":352:370   */\n      tag_38\n      tag_31\n      jump\t// in\n    tag_38:\n        /* \"#utility.yul\":401:403   */\n      0x40\n        /* \"#utility.yul\":395:404   */\n      mload\n        /* \"#utility.yul\":493:495   */\n      0x1f\n        /* \"#utility.yul\":455:472   */\n      dup3\n      add\n      not(0x1f)\n        /* \"#utility.yul\":451:482   */\n      swap1\n      dup2\n      and\n        /* \"#utility.yul\":484:486   */\n      0x3f\n        /* \"#utility.yul\":447:487   */\n      add\n        /* \"#utility.yul\":443:497   */\n      and\n        /* \"#utility.yul\":431:498   */\n      dup2\n      add\n        /* \"#utility.yul\":528:546   */\n      0xffffffffffffffff\n        /* \"#utility.yul\":513:547   */\n      dup2\n      gt\n        /* \"#utility.yul\":549:571   */\n      dup3\n      dup3\n      lt\n        /* \"#utility.yul\":510:572   */\n      or\n        /* \"#utility.yul\":507:595   */\n      iszero\n      tag_40\n      jumpi\n        /* \"#utility.yul\":575:593   */\n      tag_40\n      tag_31\n      jump\t// in\n    tag_40:\n        /* \"#utility.yul\":611:613   */\n      0x40\n        /* \"#utility.yul\":604:626   */\n      mstore\n        /* \"#utility.yul\":635:657   */\n      dup2\n      dup2\n      mstore\n        /* \"#utility.yul\":676:695   */\n      dup4\n      dup3\n      add\n        /* \"#utility.yul\":697:701   */\n      0x20\n        /* \"#utility.yul\":672:702   */\n      add\n        /* \"#utility.yul\":669:708   */\n      dup6\n      lt\n        /* \"#utility.yul\":666:725   */\n      iszero\n      tag_41\n      jumpi\n        /* \"#utility.yul\":721:722   */\n      0x00\n        /* \"#utility.yul\":718:719   */\n      0x00\n        /* \"#utility.yul\":711:723   */\n      revert\n        /* \"#utility.yul\":666:725   */\n    tag_41:\n        /* \"#utility.yul\":785:791   */\n      dup2\n        /* \"#utility.yul\":778:782   */\n      0x20\n        /* \"#utility.yul\":770:776   */\n      dup6\n        /* \"#utility.yul\":766:783   */\n      add\n        /* \"#utility.yul\":759:763   */\n      0x20\n        /* \"#utility.yul\":751:757   */\n      dup4\n        /* \"#utility.yul\":747:764   */\n      add\n        /* \"#utility.yul\":734:792   */\n      calldatacopy\n        /* \"#utility.yul\":840:841   */\n      0x00\n        /* \"#utility.yul\":812:831   */\n      swap2\n      dup2\n      add\n        /* \"#utility.yul\":833:837   */\n      0x20\n        /* \"#utility.yul\":808:838   */\n      add\n        /* \"#utility.yul\":801:842   */\n      swap2\n      swap1\n      swap2\n      mstore\n        /* \"#utility.yul\":816:822   */\n      swap4\n        /* \"#utility.yul\":146:872   */\n      swap3\n      pop\n      pop\n      pop\n      jump\t// out\n        /* \"#utility.yul\":877:1199   */\n    tag_9:\n        /* \"#utility.yul\":946:952   */\n      0x00\n        /* \"#utility.yul\":999:1001   */\n      0x20\n        /* \"#utility.yul\":987:996   */\n      dup3\n        /* \"#utility.yul\":978:985   */\n      dup5\n        /* \"#utility.yul\":974:997   */\n      sub\n        /* \"#utility.yul\":970:1002   */\n      slt\n        /* \"#utility.yul\":967:1019   */\n      iszero\n      tag_43\n      jumpi\n        /* \"#utility.yul\":1015:1016   */\n      0x00\n        /* \"#utility.yul\":1012:1013   */\n      0x00\n        /* \"#utility.yul\":1005:1017   */\n      revert\n        /* \"#utility.yul\":967:1019   */\n    tag_43:\n        /* \"#utility.yul\":1055:1064   */\n      dup2\n        /* \"#utility.yul\":1042:1065   */\n      calldataload\n        /* \"#utility.yul\":1088:1106   */\n      0xffffffffffffffff\n        /* \"#utility.yul\":1080:1086   */\n      dup2\n        /* \"#utility.yul\":1077:1107   */\n      gt\n        /* \"#utility.yul\":1074:1124   */\n      iszero\n      tag_44\n      jumpi\n        /* \"#utility.yul\":1120:1121   */\n      0x00\n        /* \"#utility.yul\":1117:1118   */\n      0x00\n        /* \"#utility.yul\":1110:1122   */\n      revert\n        /* \"#utility.yul\":1074:1124   */\n    tag_44:\n        /* \"#utility.yul\":1143:1193   */\n      tag_45\n        /* \"#utility.yul\":1185:1192   */\n      dup5\n        /* \"#utility.yul\":1176:1182   */\n      dup3\n        /* \"#utility.yul\":1165:1174   */\n      dup6\n        /* \"#utility.yul\":1161:1183   */\n      add\n        /* \"#utility.yul\":1143:1193   */\n      tag_32\n      jump\t// in\n    tag_45:\n        /* \"#utility.yul\":1133:1193   */\n      swap5\n        /* \"#utility.yul\":877:1199   */\n      swap4\n      pop\n      pop\n      pop\n      pop\n      jump\t// out\n        /* \"#utility.yul\":1386:1776   */\n    tag_15:\n        /* \"#utility.yul\":1464:1470   */\n      0x00\n        /* \"#utility.yul\":1472:1478   */\n      0x00\n        /* \"#utility.yul\":1525:1527   */\n      0x40\n        /* \"#utility.yul\":1513:1522   */\n      dup4\n        /* \"#utility.yul\":1504:1511   */\n      dup6\n        /* \"#utility.yul\":1500:1523   */\n      sub\n        /* \"#utility.yul\":1496:1528   */\n      slt\n        /* \"#utility.yul\":1493:1545   */\n      iszero\n      tag_48\n      jumpi\n        /* \"#utility.yul\":1541:1542   */\n      0x00\n        /* \"#utility.yul\":1538:1539   */\n      0x00\n        /* \"#utility.yul\":1531:1543   */\n      revert\n        /* \"#utility.yul\":1493:1545   */\n    tag_48:\n        /* \"#utility.yul\":1581:1590   */\n      dup3\n        /* \"#utility.yul\":1568:1591   */\n      calldataload\n        /* \"#utility.yul\":1614:1632   */\n      0xffffffffffffffff\n        /* \"#utility.yul\":1606:1612   */\n      dup2\n        /* \"#utility.yul\":1603:1633   */\n      gt\n        /* \"#utility.yul\":1600:1650   */\n      iszero\n      tag_49\n      jumpi\n        /* \"#utility.yul\":1646:1647   */\n      0x00\n        /* \"#utility.yul\":1643:1644   */\n      0x00\n        /* \"#utility.yul\":1636:1648   */\n      revert\n        /* \"#utility.yul\":1600:1650   */\n    tag_49:\n        /* \"#utility.yul\":1669:1719   */\n      tag_50\n        /* \"#utility.yul\":1711:1718   */\n      dup6\n        /* \"#utility.yul\":1702:1708   */\n      dup3\n        /* \"#utility.yul\":1691:1700   */\n      dup7\n        /* \"#utility.yul\":1687:1709   */\n      add\n        /* \"#utility.yul\":1669:1719   */\n      tag_32\n      jump\t// in\n    tag_50:\n        /* \"#utility.yul\":1659:1719   */\n      swap6\n        /* \"#utility.yul\":1766:1768   */\n      0x20\n        /* \"#utility.yul\":1751:1769   */\n      swap5\n      swap1\n      swap5\n      add\n        /* \"#utility.yul\":1738:1770   */\n      calldataload\n      swap5\n      pop\n      pop\n      pop\n      pop\n        /* \"#utility.yul\":1386:1776   */\n      jump\t// out\n        /* \"#utility.yul\":1781:2084   */\n    tag_26:\n        /* \"#utility.yul\":1912:1915   */\n      0x00\n        /* \"#utility.yul\":1950:1956   */\n      dup3\n        /* \"#utility.yul\":1944:1957   */\n      mload\n        /* \"#utility.yul\":1996:2002   */\n      dup1\n        /* \"#utility.yul\":1989:1993   */\n      0x20\n        /* \"#utility.yul\":1981:1987   */\n      dup6\n        /* \"#utility.yul\":1977:1994   */\n      add\n        /* \"#utility.yul\":1972:1975   */\n      dup5\n        /* \"#utility.yul\":1966:2003   */\n      mcopy\n        /* \"#utility.yul\":2058:2059   */\n      0x00\n        /* \"#utility.yul\":2022:2038   */\n      swap3\n      add\n        /* \"#utility.yul\":2047:2060   */\n      swap2\n      dup3\n      mstore\n      pop\n        /* \"#utility.yul\":2022:2038   */\n      swap2\n        /* \"#utility.yul\":1781:2084   */\n      swap1\n      pop\n      jump\t// out\n\n    auxdata: 0xa2646970667358221220c2784a95ea47fb18139f4ebc79d1403e64fe64a40841b784f059bb5dc304bfcc64736f6c634300081f0033\n}\n",
				"bytecode": {
					"linkReferences": {},
					"object": "6080604052348015600e575f5ffd5b506102998061001c5f395ff3fe608060405234801561000f575f5ffd5b506004361061004a575f3560e01c8063805265e51461004e578063a638580314610073578063b99ef1fa14610088578063f3fa4226146100b2575b5f5ffd5b61006161005c3660046101d1565b6100c5565b60405190815260200160405180910390f35b61008661008136600461020b565b6100eb565b005b6100616100963660046101d1565b80516020818301810180515f8252928201919093012091525481565b6100866100c03660046101d1565b61010f565b5f5f826040516100d5919061024d565b9081526020016040518091039020549050919050565b805f836040516100fb919061024d565b908152604051908190036020019020555050565b5f5f8260405161011f919061024d565b9081526040519081900360200190205550565b634e487b7160e01b5f52604160045260245ffd5b5f82601f830112610155575f5ffd5b813567ffffffffffffffff81111561016f5761016f610132565b604051601f8201601f19908116603f0116810167ffffffffffffffff8111828210171561019e5761019e610132565b6040528181528382016020018510156101b5575f5ffd5b816020850160208301375f918101602001919091529392505050565b5f602082840312156101e1575f5ffd5b813567ffffffffffffffff8111156101f7575f5ffd5b61020384828501610146565b949350505050565b5f5f6040838503121561021c575f5ffd5b823567ffffffffffffffff811115610232575f5ffd5b61023e85828601610146565b95602094909401359450505050565b5f82518060208501845e5f92019182525091905056fea2646970667358221220c2784a95ea47fb18139f4ebc79d1403e64fe64a40841b784f059bb5dc304bfcc64736f6c634300081f0033",
					"opcodes": "PUSH1 0x80 PUSH1 0x40 MSTORE CALLVALUE DUP1 ISZERO PUSH1 0xE JUMPI PUSH0 PUSH0 REVERT JUMPDEST POP PUSH2 0x299 DUP1 PUSH2 0x1C PUSH0 CODECOPY PUSH0 RETURN INVALID PUSH1 0x80 PUSH1 0x40 MSTORE CALLVALUE DUP1 ISZERO PUSH2 0xF JUMPI PUSH0 PUSH0 REVERT JUMPDEST POP PUSH1 0x4 CALLDATASIZE LT PUSH2 0x4A JUMPI PUSH0 CALLDATALOAD PUSH1 0xE0 SHR DUP1 PUSH4 0x805265E5 EQ PUSH2 0x4E JUMPI DUP1 PUSH4 0xA6385803 EQ PUSH2 0x73 JUMPI DUP1 PUSH4 0xB99EF1FA EQ PUSH2 0x88 JUMPI DUP1 PUSH4 0xF3FA4226 EQ PUSH2 0xB2 JUMPI JUMPDEST PUSH0 PUSH0 REVERT JUMPDEST PUSH2 0x61 PUSH2 0x5C CALLDATASIZE PUSH1 0x4 PUSH2 0x1D1 JUMP JUMPDEST PUSH2 0xC5 JUMP JUMPDEST PUSH1 0x40 MLOAD SWAP1 DUP2 MSTORE PUSH1 0x20 ADD PUSH1 0x40 MLOAD DUP1 SWAP2 SUB SWAP1 RETURN JUMPDEST PUSH2 0x86 PUSH2 0x81 CALLDATASIZE PUSH1 0x4 PUSH2 0x20B JUMP JUMPDEST PUSH2 0xEB JUMP JUMPDEST STOP JUMPDEST PUSH2 0x61 PUSH2 0x96 CALLDATASIZE PUSH1 0x4 PUSH2 0x1D1 JUMP JUMPDEST DUP1 MLOAD PUSH1 0x20 DUP2 DUP4 ADD DUP2 ADD DUP1 MLOAD PUSH0 DUP3 MSTORE SWAP3 DUP3 ADD SWAP2 SWAP1 SWAP4 ADD KECCAK256 SWAP2 MSTORE SLOAD DUP2 JUMP JUMPDEST PUSH2 0x86 PUSH2 0xC0 CALLDATASIZE PUSH1 0x4 PUSH2 0x1D1 JUMP JUMPDEST PUSH2 0x10F JUMP JUMPDEST PUSH0 PUSH0 DUP3 PUSH1 0x40 MLOAD PUSH2 0xD5 SWAP2 SWAP1 PUSH2 0x24D JUMP JUMPDEST SWAP1 DUP2 MSTORE PUSH1 0x20 ADD PUSH1 0x40 MLOAD DUP1 SWAP2 SUB SWAP1 KECCAK256 SLOAD SWAP1 POP SWAP2 SWAP1 POP JUMP JUMPDEST DUP1 PUSH0 DUP4 PUSH1 0x40 MLOAD PUSH2 0xFB SWAP2 SWAP1 PUSH2 0x24D JUMP JUMPDEST SWAP1 DUP2 MSTORE PUSH1 0x40 MLOAD SWAP1 DUP2 SWAP1 SUB PUSH1 0x20 ADD SWAP1 KECCAK256 SSTORE POP POP JUMP JUMPDEST PUSH0 PUSH0 DUP3 PUSH1 0x40 MLOAD PUSH2 0x11F SWAP2 SWAP1 PUSH2 0x24D JUMP JUMPDEST SWAP1 DUP2 MSTORE PUSH1 0x40 MLOAD SWAP1 DUP2 SWAP1 SUB PUSH1 0x20 ADD SWAP1 KECCAK256 SSTORE POP JUMP JUMPDEST PUSH4 0x4E487B71 PUSH1 0xE0 SHL PUSH0 MSTORE PUSH1 0x41 PUSH1 0x4 MSTORE PUSH1 0x24 PUSH0 REVERT JUMPDEST PUSH0 DUP3 PUSH1 0x1F DUP4 ADD SLT PUSH2 0x155 JUMPI PUSH0 PUSH0 REVERT JUMPDEST DUP2 CALLDATALOAD PUSH8 0xFFFFFFFFFFFFFFFF DUP2 GT ISZERO PUSH2 0x16F JUMPI PUSH2 0x16F PUSH2 0x132 JUMP JUMPDEST PUSH1 0x40 MLOAD PUSH1 0x1F DUP3 ADD PUSH1 0x1F NOT SWAP1 DUP2 AND PUSH1 0x3F ADD AND DUP2 ADD PUSH8 0xFFFFFFFFFFFFFFFF DUP2 GT DUP3 DUP3 LT OR ISZERO PUSH2 0x19E JUMPI PUSH2 0x19E PUSH2 0x132 JUMP JUMPDEST PUSH1 0x40 MSTORE DUP2 DUP2 MSTORE DUP4 DUP3 ADD PUSH1 0x20 ADD DUP6 LT ISZERO PUSH2 0x1B5 JUMPI PUSH0 PUSH0 REVERT JUMPDEST DUP2 PUSH1 0x20 DUP6 ADD PUSH1 0x20 DUP4 ADD CALLDATACOPY PUSH0 SWAP2 DUP2 ADD PUSH1 0x20 ADD SWAP2 SWAP1 SWAP2 MSTORE SWAP4 SWAP3 POP POP POP JUMP JUMPDEST PUSH0 PUSH1 0x20 DUP3 DUP5 SUB SLT ISZERO PUSH2 0x1E1 JUMPI PUSH0 PUSH0 REVERT JUMPDEST DUP2 CALLDATALOAD PUSH8 0xFFFFFFFFFFFFFFFF DUP2 GT ISZERO PUSH2 0x1F7 JUMPI PUSH0 PUSH0 REVERT JUMPDEST PUSH2 0x203 DUP5 DUP3 DUP6 ADD PUSH2 0x146 JUMP JUMPDEST SWAP5 SWAP4 POP POP POP POP JUMP JUMPDEST PUSH0 PUSH0 PUSH1 0x40 DUP4 DUP6 SUB SLT ISZERO PUSH2 0x21C JUMPI PUSH0 PUSH0 REVERT JUMPDEST DUP3 CALLDATALOAD PUSH8 0xFFFFFFFFFFFFFFFF DUP2 GT ISZERO PUSH2 0x232 JUMPI PUSH0 PUSH0 REVERT JUMPDEST PUSH2 0x23E DUP6 DUP3 DUP7 ADD PUSH2 0x146 JUMP JUMPDEST SWAP6 PUSH1 0x20 SWAP5 SWAP1 SWAP5 ADD CALLDATALOAD SWAP5 POP POP POP POP JUMP JUMPDEST PUSH0 DUP3 MLOAD DUP1 PUSH1 0x20 DUP6 ADD DUP5 MCOPY PUSH0 SWAP3 ADD SWAP2 DUP3 MSTORE POP SWAP2 SWAP1 POP JUMP INVALID LOG2 PUSH5 0x6970667358 0x22 SLT KECCAK256 0xC2 PUSH25 0x4A95EA47FB18139F4EBC79D1403E64FE64A40841B784F059BB TSTORE 0xC3 DIV 0xBF 0xCC PUSH5 0x736F6C6343 STOP ADDMOD 0x1F STOP CALLER "
				},
				"gasEstimates": {
					"creation": {
						"codeDepositCost": "133000",
						"executionCost": "175",
						"totalCost": "133175"
					},
					"external": {
						"getVotes(string)": "infinite",
						"resetVotes(string)": "infinite",
						"vote(string,uint256)": "infinite",
						"votes(string)": "infinite"
					}
				},
				"methodIdentifiers": {
					"getVotes(string)": "805265e5",
					"resetVotes(string)": "f3fa4226",
					"vote(string,uint256)": "a6385803",
					"votes(string)": "b99ef1fa"
				}
			},
			"storageLayout": {
				"storage": [
					{
						"astId": 5,
						"contract": "contracts/task01/Voting.sol:Voting",
						"label": "votes",
						"offset": 0,
						"slot": "0",
						"type": "t_mapping(t_string_memory_ptr,t_uint256)"
					}
				],
				"types": {
					"t_mapping(t_string_memory_ptr,t_uint256)": {
						"encoding": "mapping",
						"key": "t_string_memory_ptr",
						"label": "mapping(string => uint256)",
						"numberOfBytes": "32",
						"value": "t_uint256"
					},
					"t_string_memory_ptr": {
						"encoding": "bytes",
						"label": "string",
						"numberOfBytes": "32"
					},
					"t_uint256": {
						"encoding": "inplace",
						"label": "uint256",
						"numberOfBytes": "32"
					}
				}
			},
			"userdoc": {
				"kind": "user",
				"methods": {},
				"version": 1
			}
		}
	}
}