{
	"contracts/homework/romanToInt.sol": {
		"romanToInt": {
			"abi": [
				{
					"inputs": [
						{
							"internalType": "string",
							"name": "s",
							"type": "string"
						}
					],
					"name": "rToInt",
					"outputs": [
						{
							"internalType": "uint256",
							"name": "",
							"type": "uint256"
						}
					],
					"stateMutability": "pure",
					"type": "function"
				}
			],
			"devdoc": {
				"kind": "dev",
				"methods": {},
				"version": 1
			},
			"evm": {
				"assembly": "    /* \"contracts/homework/romanToInt.sol\":1414:2288  contract romanToInt{... */\n  mstore(0x40, 0x80)\n  callvalue\n  dup1\n  iszero\n  tag_1\n  jumpi\n  revert(0x00, 0x00)\ntag_1:\n  pop\n  dataSize(sub_0)\n  dup1\n  dataOffset(sub_0)\n  0x00\n  codecopy\n  0x00\n  return\nstop\n\nsub_0: assembly {\n        /* \"contracts/homework/romanToInt.sol\":1414:2288  contract romanToInt{... */\n      mstore(0x40, 0x80)\n      callvalue\n      dup1\n      iszero\n      tag_1\n      jumpi\n      revert(0x00, 0x00)\n    tag_1:\n      pop\n      jumpi(tag_2, lt(calldatasize, 0x04))\n      shr(0xe0, calldataload(0x00))\n      dup1\n      0x844ec49b\n      eq\n      tag_3\n      jumpi\n    tag_2:\n      revert(0x00, 0x00)\n        /* \"contracts/homework/romanToInt.sol\":1820:2286  function rToInt(string calldata s) public pure  returns (uint256){... */\n    tag_3:\n      tag_4\n      0x04\n      dup1\n      calldatasize\n      sub\n      dup2\n      add\n      swap1\n      tag_5\n      swap2\n      swap1\n      tag_6\n      jump\t// in\n    tag_5:\n      tag_7\n      jump\t// in\n    tag_4:\n      mload(0x40)\n      tag_8\n      swap2\n      swap1\n      tag_9\n      jump\t// in\n    tag_8:\n      mload(0x40)\n      dup1\n      swap2\n      sub\n      swap1\n      return\n    tag_7:\n        /* \"contracts/homework/romanToInt.sol\":1877:1884  uint256 */\n      0x00\n        /* \"contracts/homework/romanToInt.sol\":1895:1912  bytes memory temp */\n      0x00\n        /* \"contracts/homework/romanToInt.sol\":1921:1922  s */\n      dup4\n      dup4\n        /* \"contracts/homework/romanToInt.sol\":1895:1923  bytes memory temp = bytes(s) */\n      dup1\n      dup1\n      0x1f\n      add\n      0x20\n      dup1\n      swap2\n      div\n      mul\n      0x20\n      add\n      mload(0x40)\n      swap1\n      dup2\n      add\n      0x40\n      mstore\n      dup1\n      swap4\n      swap3\n      swap2\n      swap1\n      dup2\n      dup2\n      mstore\n      0x20\n      add\n      dup4\n      dup4\n      dup1\n      dup3\n      dup5\n      calldatacopy\n      0x00\n      dup2\n      dup5\n      add\n      mstore\n      not(0x1f)\n      0x1f\n      dup3\n      add\n      and\n      swap1\n      pop\n      dup1\n      dup4\n      add\n      swap3\n      pop\n      pop\n      pop\n      pop\n      pop\n      pop\n      pop\n      swap1\n      pop\n        /* \"contracts/homework/romanToInt.sol\":1933:1944  uint256 len */\n      0x00\n        /* \"contracts/homework/romanToInt.sol\":1947:1951  temp */\n      dup2\n        /* \"contracts/homework/romanToInt.sol\":1947:1958  temp.length */\n      mload\n        /* \"contracts/homework/romanToInt.sol\":1933:1958  uint256 len = temp.length */\n      swap1\n      pop\n        /* \"contracts/homework/romanToInt.sol\":1968:1982  uint256 mumber */\n      0x00\n        /* \"contracts/homework/romanToInt.sol\":1985:1986  0 */\n      0x00\n        /* \"contracts/homework/romanToInt.sol\":1968:1986  uint256 mumber = 0 */\n      swap1\n      pop\n        /* \"contracts/homework/romanToInt.sol\":1996:2010  uint256 iValue */\n      0x00\n        /* \"contracts/homework/romanToInt.sol\":2024:2033  uint256 i */\n      0x00\n        /* \"contracts/homework/romanToInt.sol\":2034:2035  0 */\n      0x00\n        /* \"contracts/homework/romanToInt.sol\":2024:2035  uint256 i=0 */\n      swap1\n      pop\n        /* \"contracts/homework/romanToInt.sol\":2020:2257  for(uint256 i=0;i<len;i++){... */\n    tag_11:\n        /* \"contracts/homework/romanToInt.sol\":2038:2041  len */\n      dup4\n        /* \"contracts/homework/romanToInt.sol\":2036:2037  i */\n      dup2\n        /* \"contracts/homework/romanToInt.sol\":2036:2041  i<len */\n      lt\n        /* \"contracts/homework/romanToInt.sol\":2020:2257  for(uint256 i=0;i<len;i++){... */\n      iszero\n      tag_12\n      jumpi\n        /* \"contracts/homework/romanToInt.sol\":2068:2082  toInt(temp[i]) */\n      tag_14\n        /* \"contracts/homework/romanToInt.sol\":2074:2078  temp */\n      dup6\n        /* \"contracts/homework/romanToInt.sol\":2079:2080  i */\n      dup3\n        /* \"contracts/homework/romanToInt.sol\":2074:2081  temp[i] */\n      dup2\n      mload\n      dup2\n      lt\n      tag_15\n      jumpi\n      tag_16\n      tag_17\n      jump\t// in\n    tag_16:\n    tag_15:\n      0x20\n      add\n      add\n      mload\n      0xf8\n      shr\n      0xf8\n      shl\n        /* \"contracts/homework/romanToInt.sol\":2068:2073  toInt */\n      tag_18\n        /* \"contracts/homework/romanToInt.sol\":2068:2082  toInt(temp[i]) */\n      jump\t// in\n    tag_14:\n        /* \"contracts/homework/romanToInt.sol\":2060:2082  iValue =toInt(temp[i]) */\n      swap2\n      pop\n        /* \"contracts/homework/romanToInt.sol\":2106:2107  1 */\n      0x01\n        /* \"contracts/homework/romanToInt.sol\":2102:2105  len */\n      dup5\n        /* \"contracts/homework/romanToInt.sol\":2102:2107  len-1 */\n      tag_19\n      swap2\n      swap1\n      tag_20\n      jump\t// in\n    tag_19:\n        /* \"contracts/homework/romanToInt.sol\":2100:2101  i */\n      dup2\n        /* \"contracts/homework/romanToInt.sol\":2100:2107  i<len-1 */\n      lt\n        /* \"contracts/homework/romanToInt.sol\":2100:2134  i<len-1 && iValue<toInt(temp[i+1]) */\n      dup1\n      iszero\n      tag_21\n      jumpi\n      pop\n        /* \"contracts/homework/romanToInt.sol\":2118:2134  toInt(temp[i+1]) */\n      tag_22\n        /* \"contracts/homework/romanToInt.sol\":2124:2128  temp */\n      dup6\n        /* \"contracts/homework/romanToInt.sol\":2131:2132  1 */\n      0x01\n        /* \"contracts/homework/romanToInt.sol\":2129:2130  i */\n      dup4\n        /* \"contracts/homework/romanToInt.sol\":2129:2132  i+1 */\n      tag_23\n      swap2\n      swap1\n      tag_24\n      jump\t// in\n    tag_23:\n        /* \"contracts/homework/romanToInt.sol\":2124:2133  temp[i+1] */\n      dup2\n      mload\n      dup2\n      lt\n      tag_25\n      jumpi\n      tag_26\n      tag_17\n      jump\t// in\n    tag_26:\n    tag_25:\n      0x20\n      add\n      add\n      mload\n      0xf8\n      shr\n      0xf8\n      shl\n        /* \"contracts/homework/romanToInt.sol\":2118:2123  toInt */\n      tag_18\n        /* \"contracts/homework/romanToInt.sol\":2118:2134  toInt(temp[i+1]) */\n      jump\t// in\n    tag_22:\n        /* \"contracts/homework/romanToInt.sol\":2111:2117  iValue */\n      dup3\n        /* \"contracts/homework/romanToInt.sol\":2111:2134  iValue<toInt(temp[i+1]) */\n      lt\n        /* \"contracts/homework/romanToInt.sol\":2100:2134  i<len-1 && iValue<toInt(temp[i+1]) */\n    tag_21:\n        /* \"contracts/homework/romanToInt.sol\":2096:2234  if (i<len-1 && iValue<toInt(temp[i+1])){... */\n      iszero\n      tag_27\n      jumpi\n        /* \"contracts/homework/romanToInt.sol\":2161:2167  iValue */\n      dup2\n        /* \"contracts/homework/romanToInt.sol\":2153:2167  mumber-=iValue */\n      dup4\n      tag_28\n      swap2\n      swap1\n      tag_20\n      jump\t// in\n    tag_28:\n      swap3\n      pop\n        /* \"contracts/homework/romanToInt.sol\":2096:2234  if (i<len-1 && iValue<toInt(temp[i+1])){... */\n      jump(tag_29)\n    tag_27:\n        /* \"contracts/homework/romanToInt.sol\":2213:2219  iValue */\n      dup2\n        /* \"contracts/homework/romanToInt.sol\":2205:2219  mumber+=iValue */\n      dup4\n      tag_30\n      swap2\n      swap1\n      tag_24\n      jump\t// in\n    tag_30:\n      swap3\n      pop\n        /* \"contracts/homework/romanToInt.sol\":2096:2234  if (i<len-1 && iValue<toInt(temp[i+1])){... */\n    tag_29:\n        /* \"contracts/homework/romanToInt.sol\":2042:2045  i++ */\n      dup1\n      dup1\n      0x01\n      add\n      swap2\n      pop\n      pop\n        /* \"contracts/homework/romanToInt.sol\":2020:2257  for(uint256 i=0;i<len;i++){... */\n      jump(tag_11)\n    tag_12:\n      pop\n        /* \"contracts/homework/romanToInt.sol\":2273:2279  mumber */\n      dup2\n        /* \"contracts/homework/romanToInt.sol\":2266:2279  return mumber */\n      swap5\n      pop\n      pop\n      pop\n      pop\n      pop\n        /* \"contracts/homework/romanToInt.sol\":1820:2286  function rToInt(string calldata s) public pure  returns (uint256){... */\n      swap3\n      swap2\n      pop\n      pop\n      jump\t// out\n        /* \"contracts/homework/romanToInt.sol\":1439:1814  function toInt(bytes1 b) internal pure  returns  (uint256 ){... */\n    tag_18:\n        /* \"contracts/homework/romanToInt.sol\":1489:1496  uint256 */\n      0x00\n        /* \"contracts/homework/romanToInt.sol\":1517:1528  bytes1('M') */\n      0x4d00000000000000000000000000000000000000000000000000000000000000\n        /* \"contracts/homework/romanToInt.sol\":1512:1528  b == bytes1('M') */\n      not(0xffffffffffffffffffffffffffffffffffffffffffffffffffffffffffffff)\n      and\n        /* \"contracts/homework/romanToInt.sol\":1512:1513  b */\n      dup3\n        /* \"contracts/homework/romanToInt.sol\":1512:1528  b == bytes1('M') */\n      not(0xffffffffffffffffffffffffffffffffffffffffffffffffffffffffffffff)\n      and\n      sub\n        /* \"contracts/homework/romanToInt.sol\":1508:1540  if (b == bytes1('M'))return 1000 */\n      tag_32\n      jumpi\n        /* \"contracts/homework/romanToInt.sol\":1536:1540  1000 */\n      0x03e8\n        /* \"contracts/homework/romanToInt.sol\":1529:1540  return 1000 */\n      swap1\n      pop\n      jump(tag_31)\n        /* \"contracts/homework/romanToInt.sol\":1508:1540  if (b == bytes1('M'))return 1000 */\n    tag_32:\n        /* \"contracts/homework/romanToInt.sol\":1559:1570  bytes1('D') */\n      0x4400000000000000000000000000000000000000000000000000000000000000\n        /* \"contracts/homework/romanToInt.sol\":1554:1570  b == bytes1('D') */\n      not(0xffffffffffffffffffffffffffffffffffffffffffffffffffffffffffffff)\n      and\n        /* \"contracts/homework/romanToInt.sol\":1554:1555  b */\n      dup3\n        /* \"contracts/homework/romanToInt.sol\":1554:1570  b == bytes1('D') */\n      not(0xffffffffffffffffffffffffffffffffffffffffffffffffffffffffffffff)\n      and\n      sub\n        /* \"contracts/homework/romanToInt.sol\":1550:1581  if (b == bytes1('D'))return 500 */\n      tag_33\n      jumpi\n        /* \"contracts/homework/romanToInt.sol\":1578:1581  500 */\n      0x01f4\n        /* \"contracts/homework/romanToInt.sol\":1571:1581  return 500 */\n      swap1\n      pop\n      jump(tag_31)\n        /* \"contracts/homework/romanToInt.sol\":1550:1581  if (b == bytes1('D'))return 500 */\n    tag_33:\n        /* \"contracts/homework/romanToInt.sol\":1600:1611  bytes1('C') */\n      0x4300000000000000000000000000000000000000000000000000000000000000\n        /* \"contracts/homework/romanToInt.sol\":1595:1611  b == bytes1('C') */\n      not(0xffffffffffffffffffffffffffffffffffffffffffffffffffffffffffffff)\n      and\n        /* \"contracts/homework/romanToInt.sol\":1595:1596  b */\n      dup3\n        /* \"contracts/homework/romanToInt.sol\":1595:1611  b == bytes1('C') */\n      not(0xffffffffffffffffffffffffffffffffffffffffffffffffffffffffffffff)\n      and\n      sub\n        /* \"contracts/homework/romanToInt.sol\":1591:1622  if (b == bytes1('C'))return 100 */\n      tag_34\n      jumpi\n        /* \"contracts/homework/romanToInt.sol\":1619:1622  100 */\n      0x64\n        /* \"contracts/homework/romanToInt.sol\":1612:1622  return 100 */\n      swap1\n      pop\n      jump(tag_31)\n        /* \"contracts/homework/romanToInt.sol\":1591:1622  if (b == bytes1('C'))return 100 */\n    tag_34:\n        /* \"contracts/homework/romanToInt.sol\":1641:1652  bytes1('L') */\n      0x4c00000000000000000000000000000000000000000000000000000000000000\n        /* \"contracts/homework/romanToInt.sol\":1636:1652  b == bytes1('L') */\n      not(0xffffffffffffffffffffffffffffffffffffffffffffffffffffffffffffff)\n      and\n        /* \"contracts/homework/romanToInt.sol\":1636:1637  b */\n      dup3\n        /* \"contracts/homework/romanToInt.sol\":1636:1652  b == bytes1('L') */\n      not(0xffffffffffffffffffffffffffffffffffffffffffffffffffffffffffffff)\n      and\n      sub\n        /* \"contracts/homework/romanToInt.sol\":1632:1662  if (b == bytes1('L'))return 50 */\n      tag_35\n      jumpi\n        /* \"contracts/homework/romanToInt.sol\":1660:1662  50 */\n      0x32\n        /* \"contracts/homework/romanToInt.sol\":1653:1662  return 50 */\n      swap1\n      pop\n      jump(tag_31)\n        /* \"contracts/homework/romanToInt.sol\":1632:1662  if (b == bytes1('L'))return 50 */\n    tag_35:\n        /* \"contracts/homework/romanToInt.sol\":1681:1692  bytes1('X') */\n      0x5800000000000000000000000000000000000000000000000000000000000000\n        /* \"contracts/homework/romanToInt.sol\":1676:1692  b == bytes1('X') */\n      not(0xffffffffffffffffffffffffffffffffffffffffffffffffffffffffffffff)\n      and\n        /* \"contracts/homework/romanToInt.sol\":1676:1677  b */\n      dup3\n        /* \"contracts/homework/romanToInt.sol\":1676:1692  b == bytes1('X') */\n      not(0xffffffffffffffffffffffffffffffffffffffffffffffffffffffffffffff)\n      and\n      sub\n        /* \"contracts/homework/romanToInt.sol\":1672:1702  if (b == bytes1('X'))return 10 */\n      tag_36\n      jumpi\n        /* \"contracts/homework/romanToInt.sol\":1700:1702  10 */\n      0x0a\n        /* \"contracts/homework/romanToInt.sol\":1693:1702  return 10 */\n      swap1\n      pop\n      jump(tag_31)\n        /* \"contracts/homework/romanToInt.sol\":1672:1702  if (b == bytes1('X'))return 10 */\n    tag_36:\n        /* \"contracts/homework/romanToInt.sol\":1721:1732  bytes1('V') */\n      0x5600000000000000000000000000000000000000000000000000000000000000\n        /* \"contracts/homework/romanToInt.sol\":1716:1732  b == bytes1('V') */\n      not(0xffffffffffffffffffffffffffffffffffffffffffffffffffffffffffffff)\n      and\n        /* \"contracts/homework/romanToInt.sol\":1716:1717  b */\n      dup3\n        /* \"contracts/homework/romanToInt.sol\":1716:1732  b == bytes1('V') */\n      not(0xffffffffffffffffffffffffffffffffffffffffffffffffffffffffffffff)\n      and\n      sub\n        /* \"contracts/homework/romanToInt.sol\":1712:1741  if (b == bytes1('V'))return 5 */\n      tag_37\n      jumpi\n        /* \"contracts/homework/romanToInt.sol\":1740:1741  5 */\n      0x05\n        /* \"contracts/homework/romanToInt.sol\":1733:1741  return 5 */\n      swap1\n      pop\n      jump(tag_31)\n        /* \"contracts/homework/romanToInt.sol\":1712:1741  if (b == bytes1('V'))return 5 */\n    tag_37:\n        /* \"contracts/homework/romanToInt.sol\":1760:1771  bytes1('I') */\n      0x4900000000000000000000000000000000000000000000000000000000000000\n        /* \"contracts/homework/romanToInt.sol\":1755:1771  b == bytes1('I') */\n      not(0xffffffffffffffffffffffffffffffffffffffffffffffffffffffffffffff)\n      and\n        /* \"contracts/homework/romanToInt.sol\":1755:1756  b */\n      dup3\n        /* \"contracts/homework/romanToInt.sol\":1755:1771  b == bytes1('I') */\n      not(0xffffffffffffffffffffffffffffffffffffffffffffffffffffffffffffff)\n      and\n      sub\n        /* \"contracts/homework/romanToInt.sol\":1751:1780  if (b == bytes1('I'))return 1 */\n      tag_38\n      jumpi\n        /* \"contracts/homework/romanToInt.sol\":1779:1780  1 */\n      0x01\n        /* \"contracts/homework/romanToInt.sol\":1772:1780  return 1 */\n      swap1\n      pop\n      jump(tag_31)\n        /* \"contracts/homework/romanToInt.sol\":1751:1780  if (b == bytes1('I'))return 1 */\n    tag_38:\n        /* \"contracts/homework/romanToInt.sol\":1797:1798  0 */\n      0x00\n        /* \"contracts/homework/romanToInt.sol\":1790:1798  return 0 */\n      swap1\n      pop\n        /* \"contracts/homework/romanToInt.sol\":1439:1814  function toInt(bytes1 b) internal pure  returns  (uint256 ){... */\n    tag_31:\n      swap2\n      swap1\n      pop\n      jump\t// out\n        /* \"#utility.yul\":88:205   */\n    tag_40:\n        /* \"#utility.yul\":197:198   */\n      0x00\n        /* \"#utility.yul\":194:195   */\n      0x00\n        /* \"#utility.yul\":187:199   */\n      revert\n        /* \"#utility.yul\":211:328   */\n    tag_41:\n        /* \"#utility.yul\":320:321   */\n      0x00\n        /* \"#utility.yul\":317:318   */\n      0x00\n        /* \"#utility.yul\":310:322   */\n      revert\n        /* \"#utility.yul\":334:451   */\n    tag_42:\n        /* \"#utility.yul\":443:444   */\n      0x00\n        /* \"#utility.yul\":440:441   */\n      0x00\n        /* \"#utility.yul\":433:445   */\n      revert\n        /* \"#utility.yul\":457:574   */\n    tag_43:\n        /* \"#utility.yul\":566:567   */\n      0x00\n        /* \"#utility.yul\":563:564   */\n      0x00\n        /* \"#utility.yul\":556:568   */\n      revert\n        /* \"#utility.yul\":580:697   */\n    tag_44:\n        /* \"#utility.yul\":689:690   */\n      0x00\n        /* \"#utility.yul\":686:687   */\n      0x00\n        /* \"#utility.yul\":679:691   */\n      revert\n        /* \"#utility.yul\":717:1270   */\n    tag_45:\n        /* \"#utility.yul\":775:783   */\n      0x00\n        /* \"#utility.yul\":785:791   */\n      0x00\n        /* \"#utility.yul\":835:838   */\n      dup4\n        /* \"#utility.yul\":828:832   */\n      0x1f\n        /* \"#utility.yul\":820:826   */\n      dup5\n        /* \"#utility.yul\":816:833   */\n      add\n        /* \"#utility.yul\":812:839   */\n      slt\n        /* \"#utility.yul\":802:924   */\n      tag_57\n      jumpi\n        /* \"#utility.yul\":843:922   */\n      tag_58\n      tag_42\n      jump\t// in\n    tag_58:\n        /* \"#utility.yul\":802:924   */\n    tag_57:\n        /* \"#utility.yul\":956:962   */\n      dup3\n        /* \"#utility.yul\":943:963   */\n      calldataload\n        /* \"#utility.yul\":933:963   */\n      swap1\n      pop\n        /* \"#utility.yul\":986:1004   */\n      0xffffffffffffffff\n        /* \"#utility.yul\":978:984   */\n      dup2\n        /* \"#utility.yul\":975:1005   */\n      gt\n        /* \"#utility.yul\":972:1089   */\n      iszero\n      tag_59\n      jumpi\n        /* \"#utility.yul\":1008:1087   */\n      tag_60\n      tag_43\n      jump\t// in\n    tag_60:\n        /* \"#utility.yul\":972:1089   */\n    tag_59:\n        /* \"#utility.yul\":1122:1126   */\n      0x20\n        /* \"#utility.yul\":1114:1120   */\n      dup4\n        /* \"#utility.yul\":1110:1127   */\n      add\n        /* \"#utility.yul\":1098:1127   */\n      swap2\n      pop\n        /* \"#utility.yul\":1176:1179   */\n      dup4\n        /* \"#utility.yul\":1168:1172   */\n      0x01\n        /* \"#utility.yul\":1160:1166   */\n      dup3\n        /* \"#utility.yul\":1156:1173   */\n      mul\n        /* \"#utility.yul\":1146:1154   */\n      dup4\n        /* \"#utility.yul\":1142:1174   */\n      add\n        /* \"#utility.yul\":1139:1180   */\n      gt\n        /* \"#utility.yul\":1136:1264   */\n      iszero\n      tag_61\n      jumpi\n        /* \"#utility.yul\":1183:1262   */\n      tag_62\n      tag_44\n      jump\t// in\n    tag_62:\n        /* \"#utility.yul\":1136:1264   */\n    tag_61:\n        /* \"#utility.yul\":717:1270   */\n      swap3\n      pop\n      swap3\n      swap1\n      pop\n      jump\t// out\n        /* \"#utility.yul\":1276:1805   */\n    tag_6:\n        /* \"#utility.yul\":1347:1353   */\n      0x00\n        /* \"#utility.yul\":1355:1361   */\n      0x00\n        /* \"#utility.yul\":1404:1406   */\n      0x20\n        /* \"#utility.yul\":1392:1401   */\n      dup4\n        /* \"#utility.yul\":1383:1390   */\n      dup6\n        /* \"#utility.yul\":1379:1402   */\n      sub\n        /* \"#utility.yul\":1375:1407   */\n      slt\n        /* \"#utility.yul\":1372:1491   */\n      iszero\n      tag_64\n      jumpi\n        /* \"#utility.yul\":1410:1489   */\n      tag_65\n      tag_40\n      jump\t// in\n    tag_65:\n        /* \"#utility.yul\":1372:1491   */\n    tag_64:\n        /* \"#utility.yul\":1558:1559   */\n      0x00\n        /* \"#utility.yul\":1547:1556   */\n      dup4\n        /* \"#utility.yul\":1543:1560   */\n      add\n        /* \"#utility.yul\":1530:1561   */\n      calldataload\n        /* \"#utility.yul\":1588:1606   */\n      0xffffffffffffffff\n        /* \"#utility.yul\":1580:1586   */\n      dup2\n        /* \"#utility.yul\":1577:1607   */\n      gt\n        /* \"#utility.yul\":1574:1691   */\n      iszero\n      tag_66\n      jumpi\n        /* \"#utility.yul\":1610:1689   */\n      tag_67\n      tag_41\n      jump\t// in\n    tag_67:\n        /* \"#utility.yul\":1574:1691   */\n    tag_66:\n        /* \"#utility.yul\":1723:1788   */\n      tag_68\n        /* \"#utility.yul\":1780:1787   */\n      dup6\n        /* \"#utility.yul\":1771:1777   */\n      dup3\n        /* \"#utility.yul\":1760:1769   */\n      dup7\n        /* \"#utility.yul\":1756:1778   */\n      add\n        /* \"#utility.yul\":1723:1788   */\n      tag_45\n      jump\t// in\n    tag_68:\n        /* \"#utility.yul\":1705:1788   */\n      swap3\n      pop\n      swap3\n      pop\n        /* \"#utility.yul\":1501:1798   */\n      pop\n        /* \"#utility.yul\":1276:1805   */\n      swap3\n      pop\n      swap3\n      swap1\n      pop\n      jump\t// out\n        /* \"#utility.yul\":1811:1888   */\n    tag_46:\n        /* \"#utility.yul\":1848:1855   */\n      0x00\n        /* \"#utility.yul\":1877:1882   */\n      dup2\n        /* \"#utility.yul\":1866:1882   */\n      swap1\n      pop\n        /* \"#utility.yul\":1811:1888   */\n      swap2\n      swap1\n      pop\n      jump\t// out\n        /* \"#utility.yul\":1894:2012   */\n    tag_47:\n        /* \"#utility.yul\":1981:2005   */\n      tag_71\n        /* \"#utility.yul\":1999:2004   */\n      dup2\n        /* \"#utility.yul\":1981:2005   */\n      tag_46\n      jump\t// in\n    tag_71:\n        /* \"#utility.yul\":1976:1979   */\n      dup3\n        /* \"#utility.yul\":1969:2006   */\n      mstore\n        /* \"#utility.yul\":1894:2012   */\n      pop\n      pop\n      jump\t// out\n        /* \"#utility.yul\":2018:2240   */\n    tag_9:\n        /* \"#utility.yul\":2111:2115   */\n      0x00\n        /* \"#utility.yul\":2149:2151   */\n      0x20\n        /* \"#utility.yul\":2138:2147   */\n      dup3\n        /* \"#utility.yul\":2134:2152   */\n      add\n        /* \"#utility.yul\":2126:2152   */\n      swap1\n      pop\n        /* \"#utility.yul\":2162:2233   */\n      tag_73\n        /* \"#utility.yul\":2230:2231   */\n      0x00\n        /* \"#utility.yul\":2219:2228   */\n      dup4\n        /* \"#utility.yul\":2215:2232   */\n      add\n        /* \"#utility.yul\":2206:2212   */\n      dup5\n        /* \"#utility.yul\":2162:2233   */\n      tag_47\n      jump\t// in\n    tag_73:\n        /* \"#utility.yul\":2018:2240   */\n      swap3\n      swap2\n      pop\n      pop\n      jump\t// out\n        /* \"#utility.yul\":2246:2426   */\n    tag_17:\n        /* \"#utility.yul\":2294:2371   */\n      0x4e487b7100000000000000000000000000000000000000000000000000000000\n        /* \"#utility.yul\":2291:2292   */\n      0x00\n        /* \"#utility.yul\":2284:2372   */\n      mstore\n        /* \"#utility.yul\":2391:2395   */\n      0x32\n        /* \"#utility.yul\":2388:2389   */\n      0x04\n        /* \"#utility.yul\":2381:2396   */\n      mstore\n        /* \"#utility.yul\":2415:2419   */\n      0x24\n        /* \"#utility.yul\":2412:2413   */\n      0x00\n        /* \"#utility.yul\":2405:2420   */\n      revert\n        /* \"#utility.yul\":2432:2612   */\n    tag_48:\n        /* \"#utility.yul\":2480:2557   */\n      0x4e487b7100000000000000000000000000000000000000000000000000000000\n        /* \"#utility.yul\":2477:2478   */\n      0x00\n        /* \"#utility.yul\":2470:2558   */\n      mstore\n        /* \"#utility.yul\":2577:2581   */\n      0x11\n        /* \"#utility.yul\":2574:2575   */\n      0x04\n        /* \"#utility.yul\":2567:2582   */\n      mstore\n        /* \"#utility.yul\":2601:2605   */\n      0x24\n        /* \"#utility.yul\":2598:2599   */\n      0x00\n        /* \"#utility.yul\":2591:2606   */\n      revert\n        /* \"#utility.yul\":2618:2812   */\n    tag_20:\n        /* \"#utility.yul\":2658:2662   */\n      0x00\n        /* \"#utility.yul\":2678:2698   */\n      tag_77\n        /* \"#utility.yul\":2696:2697   */\n      dup3\n        /* \"#utility.yul\":2678:2698   */\n      tag_46\n      jump\t// in\n    tag_77:\n        /* \"#utility.yul\":2673:2698   */\n      swap2\n      pop\n        /* \"#utility.yul\":2712:2732   */\n      tag_78\n        /* \"#utility.yul\":2730:2731   */\n      dup4\n        /* \"#utility.yul\":2712:2732   */\n      tag_46\n      jump\t// in\n    tag_78:\n        /* \"#utility.yul\":2707:2732   */\n      swap3\n      pop\n        /* \"#utility.yul\":2756:2757   */\n      dup3\n        /* \"#utility.yul\":2753:2754   */\n      dup3\n        /* \"#utility.yul\":2749:2758   */\n      sub\n        /* \"#utility.yul\":2741:2758   */\n      swap1\n      pop\n        /* \"#utility.yul\":2780:2781   */\n      dup2\n        /* \"#utility.yul\":2774:2778   */\n      dup2\n        /* \"#utility.yul\":2771:2782   */\n      gt\n        /* \"#utility.yul\":2768:2805   */\n      iszero\n      tag_79\n      jumpi\n        /* \"#utility.yul\":2785:2803   */\n      tag_80\n      tag_48\n      jump\t// in\n    tag_80:\n        /* \"#utility.yul\":2768:2805   */\n    tag_79:\n        /* \"#utility.yul\":2618:2812   */\n      swap3\n      swap2\n      pop\n      pop\n      jump\t// out\n        /* \"#utility.yul\":2818:3009   */\n    tag_24:\n        /* \"#utility.yul\":2858:2861   */\n      0x00\n        /* \"#utility.yul\":2877:2897   */\n      tag_82\n        /* \"#utility.yul\":2895:2896   */\n      dup3\n        /* \"#utility.yul\":2877:2897   */\n      tag_46\n      jump\t// in\n    tag_82:\n        /* \"#utility.yul\":2872:2897   */\n      swap2\n      pop\n        /* \"#utility.yul\":2911:2931   */\n      tag_83\n        /* \"#utility.yul\":2929:2930   */\n      dup4\n        /* \"#utility.yul\":2911:2931   */\n      tag_46\n      jump\t// in\n    tag_83:\n        /* \"#utility.yul\":2906:2931   */\n      swap3\n      pop\n        /* \"#utility.yul\":2954:2955   */\n      dup3\n        /* \"#utility.yul\":2951:2952   */\n      dup3\n        /* \"#utility.yul\":2947:2956   */\n      add\n        /* \"#utility.yul\":2940:2956   */\n      swap1\n      pop\n        /* \"#utility.yul\":2975:2978   */\n      dup1\n        /* \"#utility.yul\":2972:2973   */\n      dup3\n        /* \"#utility.yul\":2969:2979   */\n      gt\n        /* \"#utility.yul\":2966:3002   */\n      iszero\n      tag_84\n      jumpi\n        /* \"#utility.yul\":2982:3000   */\n      tag_85\n      tag_48\n      jump\t// in\n    tag_85:\n        /* \"#utility.yul\":2966:3002   */\n    tag_84:\n        /* \"#utility.yul\":2818:3009   */\n      swap3\n      swap2\n      pop\n      pop\n      jump\t// out\n\n    auxdata: 0xa26469706673582212204faed0bb669f9106ad932ec2f3bd2ca02abf843788c63e9e19f123de8c5da05d64736f6c634300081f0033\n}\n",
				"bytecode": {
					"linkReferences": {},
					"object": "6080604052348015600e575f5ffd5b506106848061001c5f395ff3fe608060405234801561000f575f5ffd5b5060043610610029575f3560e01c8063844ec49b1461002d575b5f5ffd5b61004760048036038101906100429190610512565b61005d565b6040516100549190610575565b60405180910390f35b5f5f83838080601f0160208091040260200160405190810160405280939291908181526020018383808284375f81840152601f19601f8201169050808301925050505050505090505f815190505f5f90505f5f5f90505b83811015610163576100e28582815181106100d2576100d161058e565b5b602001015160f81c60f81b610171565b91506001846100f191906105e8565b8110801561012f575061012c8560018361010b919061061b565b8151811061011c5761011b61058e565b5b602001015160f81c60f81b610171565b82105b1561014757818361014091906105e8565b9250610156565b8183610153919061061b565b92505b80806001019150506100b4565b508194505050505092915050565b5f7f4d000000000000000000000000000000000000000000000000000000000000007effffffffffffffffffffffffffffffffffffffffffffffffffffffffffffff1916827effffffffffffffffffffffffffffffffffffffffffffffffffffffffffffff1916036101e7576103e890506104a4565b7f44000000000000000000000000000000000000000000000000000000000000007effffffffffffffffffffffffffffffffffffffffffffffffffffffffffffff1916827effffffffffffffffffffffffffffffffffffffffffffffffffffffffffffff19160361025c576101f490506104a4565b7f43000000000000000000000000000000000000000000000000000000000000007effffffffffffffffffffffffffffffffffffffffffffffffffffffffffffff1916827effffffffffffffffffffffffffffffffffffffffffffffffffffffffffffff1916036102d057606490506104a4565b7f4c000000000000000000000000000000000000000000000000000000000000007effffffffffffffffffffffffffffffffffffffffffffffffffffffffffffff1916827effffffffffffffffffffffffffffffffffffffffffffffffffffffffffffff19160361034457603290506104a4565b7f58000000000000000000000000000000000000000000000000000000000000007effffffffffffffffffffffffffffffffffffffffffffffffffffffffffffff1916827effffffffffffffffffffffffffffffffffffffffffffffffffffffffffffff1916036103b857600a90506104a4565b7f56000000000000000000000000000000000000000000000000000000000000007effffffffffffffffffffffffffffffffffffffffffffffffffffffffffffff1916827effffffffffffffffffffffffffffffffffffffffffffffffffffffffffffff19160361042c57600590506104a4565b7f49000000000000000000000000000000000000000000000000000000000000007effffffffffffffffffffffffffffffffffffffffffffffffffffffffffffff1916827effffffffffffffffffffffffffffffffffffffffffffffffffffffffffffff1916036104a057600190506104a4565b5f90505b919050565b5f5ffd5b5f5ffd5b5f5ffd5b5f5ffd5b5f5ffd5b5f5f83601f8401126104d2576104d16104b1565b5b8235905067ffffffffffffffff8111156104ef576104ee6104b5565b5b60208301915083600182028301111561050b5761050a6104b9565b5b9250929050565b5f5f60208385031215610528576105276104a9565b5b5f83013567ffffffffffffffff811115610545576105446104ad565b5b610551858286016104bd565b92509250509250929050565b5f819050919050565b61056f8161055d565b82525050565b5f6020820190506105885f830184610566565b92915050565b7f4e487b71000000000000000000000000000000000000000000000000000000005f52603260045260245ffd5b7f4e487b71000000000000000000000000000000000000000000000000000000005f52601160045260245ffd5b5f6105f28261055d565b91506105fd8361055d565b9250828203905081811115610615576106146105bb565b5b92915050565b5f6106258261055d565b91506106308361055d565b9250828201905080821115610648576106476105bb565b5b9291505056fea26469706673582212204faed0bb669f9106ad932ec2f3bd2ca02abf843788c63e9e19f123de8c5da05d64736f6c634300081f0033",
					"opcodes": "PUSH1 0x80 PUSH1 0x40 MSTORE CALLVALUE DUP1 ISZERO PUSH1 0xE JUMPI PUSH0 PUSH0 REVERT JUMPDEST POP PUSH2 0x684 DUP1 PUSH2 0x1C PUSH0 CODECOPY PUSH0 RETURN INVALID PUSH1 0x80 PUSH1 0x40 MSTORE CALLVALUE DUP1 ISZERO PUSH2 0xF JUMPI PUSH0 PUSH0 REVERT JUMPDEST POP PUSH1 0x4 CALLDATASIZE LT PUSH2 0x29 JUMPI PUSH0 CALLDATALOAD PUSH1 0xE0 SHR DUP1 PUSH4 0x844EC49B EQ PUSH2 0x2D JUMPI JUMPDEST PUSH0 PUSH0 REVERT JUMPDEST PUSH2 0x47 PUSH1 0x4 DUP1 CALLDATASIZE SUB DUP2 ADD SWAP1 PUSH2 0x42 SWAP2 SWAP1 PUSH2 0x512 JUMP JUMPDEST PUSH2 0x5D JUMP JUMPDEST PUSH1 0x40 MLOAD PUSH2 0x54 SWAP2 SWAP1 PUSH2 0x575 JUMP JUMPDEST PUSH1 0x40 MLOAD DUP1 SWAP2 SUB SWAP1 RETURN JUMPDEST PUSH0 PUSH0 DUP4 DUP4 DUP1 DUP1 PUSH1 0x1F ADD PUSH1 0x20 DUP1 SWAP2 DIV MUL PUSH1 0x20 ADD PUSH1 0x40 MLOAD SWAP1 DUP2 ADD PUSH1 0x40 MSTORE DUP1 SWAP4 SWAP3 SWAP2 SWAP1 DUP2 DUP2 MSTORE PUSH1 0x20 ADD DUP4 DUP4 DUP1 DUP3 DUP5 CALLDATACOPY PUSH0 DUP2 DUP5 ADD MSTORE PUSH1 0x1F NOT PUSH1 0x1F DUP3 ADD AND SWAP1 POP DUP1 DUP4 ADD SWAP3 POP POP POP POP POP POP POP SWAP1 POP PUSH0 DUP2 MLOAD SWAP1 POP PUSH0 PUSH0 SWAP1 POP PUSH0 PUSH0 PUSH0 SWAP1 POP JUMPDEST DUP4 DUP2 LT ISZERO PUSH2 0x163 JUMPI PUSH2 0xE2 DUP6 DUP3 DUP2 MLOAD DUP2 LT PUSH2 0xD2 JUMPI PUSH2 0xD1 PUSH2 0x58E JUMP JUMPDEST JUMPDEST PUSH1 0x20 ADD ADD MLOAD PUSH1 0xF8 SHR PUSH1 0xF8 SHL PUSH2 0x171 JUMP JUMPDEST SWAP2 POP PUSH1 0x1 DUP5 PUSH2 0xF1 SWAP2 SWAP1 PUSH2 0x5E8 JUMP JUMPDEST DUP2 LT DUP1 ISZERO PUSH2 0x12F JUMPI POP PUSH2 0x12C DUP6 PUSH1 0x1 DUP4 PUSH2 0x10B SWAP2 SWAP1 PUSH2 0x61B JUMP JUMPDEST DUP2 MLOAD DUP2 LT PUSH2 0x11C JUMPI PUSH2 0x11B PUSH2 0x58E JUMP JUMPDEST JUMPDEST PUSH1 0x20 ADD ADD MLOAD PUSH1 0xF8 SHR PUSH1 0xF8 SHL PUSH2 0x171 JUMP JUMPDEST DUP3 LT JUMPDEST ISZERO PUSH2 0x147 JUMPI DUP2 DUP4 PUSH2 0x140 SWAP2 SWAP1 PUSH2 0x5E8 JUMP JUMPDEST SWAP3 POP PUSH2 0x156 JUMP JUMPDEST DUP2 DUP4 PUSH2 0x153 SWAP2 SWAP1 PUSH2 0x61B JUMP JUMPDEST SWAP3 POP JUMPDEST DUP1 DUP1 PUSH1 0x1 ADD SWAP2 POP POP PUSH2 0xB4 JUMP JUMPDEST POP DUP2 SWAP5 POP POP POP POP POP SWAP3 SWAP2 POP POP JUMP JUMPDEST PUSH0 PUSH32 0x4D00000000000000000000000000000000000000000000000000000000000000 PUSH31 0xFFFFFFFFFFFFFFFFFFFFFFFFFFFFFFFFFFFFFFFFFFFFFFFFFFFFFFFFFFFFFF NOT AND DUP3 PUSH31 0xFFFFFFFFFFFFFFFFFFFFFFFFFFFFFFFFFFFFFFFFFFFFFFFFFFFFFFFFFFFFFF NOT AND SUB PUSH2 0x1E7 JUMPI PUSH2 0x3E8 SWAP1 POP PUSH2 0x4A4 JUMP JUMPDEST PUSH32 0x4400000000000000000000000000000000000000000000000000000000000000 PUSH31 0xFFFFFFFFFFFFFFFFFFFFFFFFFFFFFFFFFFFFFFFFFFFFFFFFFFFFFFFFFFFFFF NOT AND DUP3 PUSH31 0xFFFFFFFFFFFFFFFFFFFFFFFFFFFFFFFFFFFFFFFFFFFFFFFFFFFFFFFFFFFFFF NOT AND SUB PUSH2 0x25C JUMPI PUSH2 0x1F4 SWAP1 POP PUSH2 0x4A4 JUMP JUMPDEST PUSH32 0x4300000000000000000000000000000000000000000000000000000000000000 PUSH31 0xFFFFFFFFFFFFFFFFFFFFFFFFFFFFFFFFFFFFFFFFFFFFFFFFFFFFFFFFFFFFFF NOT AND DUP3 PUSH31 0xFFFFFFFFFFFFFFFFFFFFFFFFFFFFFFFFFFFFFFFFFFFFFFFFFFFFFFFFFFFFFF NOT AND SUB PUSH2 0x2D0 JUMPI PUSH1 0x64 SWAP1 POP PUSH2 0x4A4 JUMP JUMPDEST PUSH32 0x4C00000000000000000000000000000000000000000000000000000000000000 PUSH31 0xFFFFFFFFFFFFFFFFFFFFFFFFFFFFFFFFFFFFFFFFFFFFFFFFFFFFFFFFFFFFFF NOT AND DUP3 PUSH31 0xFFFFFFFFFFFFFFFFFFFFFFFFFFFFFFFFFFFFFFFFFFFFFFFFFFFFFFFFFFFFFF NOT AND SUB PUSH2 0x344 JUMPI PUSH1 0x32 SWAP1 POP PUSH2 0x4A4 JUMP JUMPDEST PUSH32 0x5800000000000000000000000000000000000000000000000000000000000000 PUSH31 0xFFFFFFFFFFFFFFFFFFFFFFFFFFFFFFFFFFFFFFFFFFFFFFFFFFFFFFFFFFFFFF NOT AND DUP3 PUSH31 0xFFFFFFFFFFFFFFFFFFFFFFFFFFFFFFFFFFFFFFFFFFFFFFFFFFFFFFFFFFFFFF NOT AND SUB PUSH2 0x3B8 JUMPI PUSH1 0xA SWAP1 POP PUSH2 0x4A4 JUMP JUMPDEST PUSH32 0x5600000000000000000000000000000000000000000000000000000000000000 PUSH31 0xFFFFFFFFFFFFFFFFFFFFFFFFFFFFFFFFFFFFFFFFFFFFFFFFFFFFFFFFFFFFFF NOT AND DUP3 PUSH31 0xFFFFFFFFFFFFFFFFFFFFFFFFFFFFFFFFFFFFFFFFFFFFFFFFFFFFFFFFFFFFFF NOT AND SUB PUSH2 0x42C JUMPI PUSH1 0x5 SWAP1 POP PUSH2 0x4A4 JUMP JUMPDEST PUSH32 0x4900000000000000000000000000000000000000000000000000000000000000 PUSH31 0xFFFFFFFFFFFFFFFFFFFFFFFFFFFFFFFFFFFFFFFFFFFFFFFFFFFFFFFFFFFFFF NOT AND DUP3 PUSH31 0xFFFFFFFFFFFFFFFFFFFFFFFFFFFFFFFFFFFFFFFFFFFFFFFFFFFFFFFFFFFFFF NOT AND SUB PUSH2 0x4A0 JUMPI PUSH1 0x1 SWAP1 POP PUSH2 0x4A4 JUMP JUMPDEST PUSH0 SWAP1 POP JUMPDEST SWAP2 SWAP1 POP JUMP JUMPDEST PUSH0 PUSH0 REVERT JUMPDEST PUSH0 PUSH0 REVERT JUMPDEST PUSH0 PUSH0 REVERT JUMPDEST PUSH0 PUSH0 REVERT JUMPDEST PUSH0 PUSH0 REVERT JUMPDEST PUSH0 PUSH0 DUP4 PUSH1 0x1F DUP5 ADD SLT PUSH2 0x4D2 JUMPI PUSH2 0x4D1 PUSH2 0x4B1 JUMP JUMPDEST JUMPDEST DUP3 CALLDATALOAD SWAP1 POP PUSH8 0xFFFFFFFFFFFFFFFF DUP2 GT ISZERO PUSH2 0x4EF JUMPI PUSH2 0x4EE PUSH2 0x4B5 JUMP JUMPDEST JUMPDEST PUSH1 0x20 DUP4 ADD SWAP2 POP DUP4 PUSH1 0x1 DUP3 MUL DUP4 ADD GT ISZERO PUSH2 0x50B JUMPI PUSH2 0x50A PUSH2 0x4B9 JUMP JUMPDEST JUMPDEST SWAP3 POP SWAP3 SWAP1 POP JUMP JUMPDEST PUSH0 PUSH0 PUSH1 0x20 DUP4 DUP6 SUB SLT ISZERO PUSH2 0x528 JUMPI PUSH2 0x527 PUSH2 0x4A9 JUMP JUMPDEST JUMPDEST PUSH0 DUP4 ADD CALLDATALOAD PUSH8 0xFFFFFFFFFFFFFFFF DUP2 GT ISZERO PUSH2 0x545 JUMPI PUSH2 0x544 PUSH2 0x4AD JUMP JUMPDEST JUMPDEST PUSH2 0x551 DUP6 DUP3 DUP7 ADD PUSH2 0x4BD JUMP JUMPDEST SWAP3 POP SWAP3 POP POP SWAP3 POP SWAP3 SWAP1 POP JUMP JUMPDEST PUSH0 DUP2 SWAP1 POP SWAP2 SWAP1 POP JUMP JUMPDEST PUSH2 0x56F DUP2 PUSH2 0x55D JUMP JUMPDEST DUP3 MSTORE POP POP JUMP JUMPDEST PUSH0 PUSH1 0x20 DUP3 ADD SWAP1 POP PUSH2 0x588 PUSH0 DUP4 ADD DUP5 PUSH2 0x566 JUMP JUMPDEST SWAP3 SWAP2 POP POP JUMP JUMPDEST PUSH32 0x4E487B7100000000000000000000000000000000000000000000000000000000 PUSH0 MSTORE PUSH1 0x32 PUSH1 0x4 MSTORE PUSH1 0x24 PUSH0 REVERT JUMPDEST PUSH32 0x4E487B7100000000000000000000000000000000000000000000000000000000 PUSH0 MSTORE PUSH1 0x11 PUSH1 0x4 MSTORE PUSH1 0x24 PUSH0 REVERT JUMPDEST PUSH0 PUSH2 0x5F2 DUP3 PUSH2 0x55D JUMP JUMPDEST SWAP2 POP PUSH2 0x5FD DUP4 PUSH2 0x55D JUMP JUMPDEST SWAP3 POP DUP3 DUP3 SUB SWAP1 POP DUP2 DUP2 GT ISZERO PUSH2 0x615 JUMPI PUSH2 0x614 PUSH2 0x5BB JUMP JUMPDEST JUMPDEST SWAP3 SWAP2 POP POP JUMP JUMPDEST PUSH0 PUSH2 0x625 DUP3 PUSH2 0x55D JUMP JUMPDEST SWAP2 POP PUSH2 0x630 DUP4 PUSH2 0x55D JUMP JUMPDEST SWAP3 POP DUP3 DUP3 ADD SWAP1 POP DUP1 DUP3 GT ISZERO PUSH2 0x648 JUMPI PUSH2 0x647 PUSH2 0x5BB JUMP JUMPDEST JUMPDEST SWAP3 SWAP2 POP POP JUMP INVALID LOG2 PUSH5 0x6970667358 0x22 SLT KECCAK256 0x4F 0xAE 0xD0 0xBB PUSH7 0x9F9106AD932EC2 RETURN 0xBD 0x2C LOG0 0x2A 0xBF DUP5 CALLDATACOPY DUP9 0xC6 RETURNDATACOPY SWAP15 NOT CALL 0x23 0xDE DUP13 TSTORE LOG0 TSTORE PUSH5 0x736F6C6343 STOP ADDMOD 0x1F STOP CALLER "
				},
				"gasEstimates": {
					"creation": {
						"codeDepositCost": "333600",
						"executionCost": "372",
						"totalCost": "333972"
					},
					"external": {
						"rToInt(string)": "infinite"
					},
					"internal": {
						"toInt(bytes1)": "325"
					}
				},
				"methodIdentifiers": {
					"rToInt(string)": "844ec49b"
				}
			},
			"storageLayout": {
				"storage": [],
				"types": null
			},
			"userdoc": {
				"kind": "user",
				"methods": {},
				"version": 1
			}
		}
	}
}