{
	"contracts/task01/mergeArr.sol": {
		"mergeArr": {
			"abi": [
				{
					"inputs": [
						{
							"internalType": "uint256[]",
							"name": "arr1",
							"type": "uint256[]"
						},
						{
							"internalType": "uint256[]",
							"name": "arr2",
							"type": "uint256[]"
						}
					],
					"name": "merge",
					"outputs": [
						{
							"internalType": "uint256[]",
							"name": "",
							"type": "uint256[]"
						}
					],
					"stateMutability": "pure",
					"type": "function"
				}
			],
			"devdoc": {
				"kind": "dev",
				"methods": {},
				"version": 1
			},
			"evm": {
				"assembly": "    /* \"contracts/task01/mergeArr.sol\":136:917  contract mergeArr{... */\n  mstore(0x40, 0x80)\n  callvalue\n  dup1\n  iszero\n  tag_1\n  jumpi\n  revert(0x00, 0x00)\ntag_1:\n  pop\n  dataSize(sub_0)\n  dup1\n  dataOffset(sub_0)\n  0x00\n  codecopy\n  0x00\n  return\nstop\n\nsub_0: assembly {\n        /* \"contracts/task01/mergeArr.sol\":136:917  contract mergeArr{... */\n      mstore(0x40, 0x80)\n      callvalue\n      dup1\n      iszero\n      tag_1\n      jumpi\n      revert(0x00, 0x00)\n    tag_1:\n      pop\n      jumpi(tag_2, lt(calldatasize, 0x04))\n      shr(0xe0, calldataload(0x00))\n      dup1\n      0x088b9bf6\n      eq\n      tag_3\n      jumpi\n    tag_2:\n      revert(0x00, 0x00)\n        /* \"contracts/task01/mergeArr.sol\":160:914  function merge(uint[] memory arr1,uint[] memory arr2)public pure returns(uint[] memory){... */\n    tag_3:\n      tag_4\n      tag_5\n      calldatasize\n      0x04\n      tag_6\n      jump\t// in\n    tag_5:\n      tag_7\n      jump\t// in\n    tag_4:\n      mload(0x40)\n      tag_8\n      swap2\n      swap1\n      tag_9\n      jump\t// in\n    tag_8:\n      mload(0x40)\n      dup1\n      swap2\n      sub\n      swap1\n      return\n    tag_7:\n        /* \"contracts/task01/mergeArr.sol\":269:280  arr1.length */\n      dup2\n      mload\n        /* \"contracts/task01/mergeArr.sol\":302:313  arr2.length */\n      dup2\n      mload\n        /* \"contracts/task01/mergeArr.sol\":233:246  uint[] memory */\n      0x60\n      swap2\n        /* \"contracts/task01/mergeArr.sol\":269:280  arr1.length */\n      swap1\n        /* \"contracts/task01/mergeArr.sol\":257:266  uint len1 */\n      0x00\n        /* \"contracts/task01/mergeArr.sol\":357:368  len1 + len2 */\n      tag_11\n        /* \"contracts/task01/mergeArr.sol\":302:313  arr2.length */\n      dup3\n        /* \"contracts/task01/mergeArr.sol\":269:280  arr1.length */\n      dup5\n        /* \"contracts/task01/mergeArr.sol\":357:368  len1 + len2 */\n      tag_12\n      jump\t// in\n    tag_11:\n        /* \"contracts/task01/mergeArr.sol\":346:369  new uint[](len1 + len2) */\n      0xffffffffffffffff\n      dup2\n      gt\n      iszero\n      tag_14\n      jumpi\n      tag_14\n      tag_15\n      jump\t// in\n    tag_14:\n      mload(0x40)\n      swap1\n      dup1\n      dup3\n      mstore\n      dup1\n      0x20\n      mul\n      0x20\n      add\n      dup3\n      add\n      0x40\n      mstore\n      dup1\n      iszero\n      tag_16\n      jumpi\n      dup2\n      0x20\n      add\n      0x20\n      dup3\n      mul\n      dup1\n      calldatasize\n      dup4\n      calldatacopy\n      add\n      swap1\n      pop\n    tag_16:\n      pop\n        /* \"contracts/task01/mergeArr.sol\":323:369  uint[] memory result = new uint[](len1 + len2) */\n      swap1\n      pop\n        /* \"contracts/task01/mergeArr.sol\":379:385  uint i */\n      0x00\n      dup1\n      dup1\n        /* \"contracts/task01/mergeArr.sol\":440:739  while (i<len1 && j<len2){... */\n    tag_17:\n        /* \"contracts/task01/mergeArr.sol\":449:453  len1 */\n      dup6\n        /* \"contracts/task01/mergeArr.sol\":447:448  i */\n      dup4\n        /* \"contracts/task01/mergeArr.sol\":447:453  i<len1 */\n      lt\n        /* \"contracts/task01/mergeArr.sol\":447:463  i<len1 && j<len2 */\n      dup1\n      iszero\n      tag_19\n      jumpi\n      pop\n        /* \"contracts/task01/mergeArr.sol\":459:463  len2 */\n      dup5\n        /* \"contracts/task01/mergeArr.sol\":457:458  j */\n      dup3\n        /* \"contracts/task01/mergeArr.sol\":457:463  j<len2 */\n      lt\n        /* \"contracts/task01/mergeArr.sol\":447:463  i<len1 && j<len2 */\n    tag_19:\n        /* \"contracts/task01/mergeArr.sol\":440:739  while (i<len1 && j<len2){... */\n      iszero\n      tag_18\n      jumpi\n        /* \"contracts/task01/mergeArr.sol\":490:494  arr2 */\n      dup8\n        /* \"contracts/task01/mergeArr.sol\":495:496  j */\n      dup3\n        /* \"contracts/task01/mergeArr.sol\":490:497  arr2[j] */\n      dup2\n      mload\n      dup2\n      lt\n      tag_21\n      jumpi\n      tag_21\n      tag_22\n      jump\t// in\n    tag_21:\n      0x20\n      mul\n      0x20\n      add\n      add\n      mload\n        /* \"contracts/task01/mergeArr.sol\":482:486  arr1 */\n      dup10\n        /* \"contracts/task01/mergeArr.sol\":487:488  i */\n      dup5\n        /* \"contracts/task01/mergeArr.sol\":482:489  arr1[i] */\n      dup2\n      mload\n      dup2\n      lt\n      tag_24\n      jumpi\n      tag_24\n      tag_22\n      jump\t// in\n    tag_24:\n      0x20\n      mul\n      0x20\n      add\n      add\n      mload\n        /* \"contracts/task01/mergeArr.sol\":482:497  arr1[i]<arr2[j] */\n      lt\n        /* \"contracts/task01/mergeArr.sol\":478:728  if (arr1[i]<arr2[j]){... */\n      iszero\n      tag_25\n      jumpi\n        /* \"contracts/task01/mergeArr.sol\":528:532  arr1 */\n      dup9\n        /* \"contracts/task01/mergeArr.sol\":533:536  i++ */\n      dup4\n      tag_26\n      dup2\n      tag_27\n      jump\t// in\n    tag_26:\n      swap5\n      pop\n        /* \"contracts/task01/mergeArr.sol\":528:537  arr1[i++] */\n      dup2\n      mload\n      dup2\n      lt\n      tag_29\n      jumpi\n      tag_29\n      tag_22\n      jump\t// in\n    tag_29:\n      0x20\n      mul\n      0x20\n      add\n      add\n      mload\n        /* \"contracts/task01/mergeArr.sol\":516:522  result */\n      dup5\n        /* \"contracts/task01/mergeArr.sol\":523:526  k++ */\n      dup3\n      dup1\n      tag_30\n      swap1\n      tag_27\n      jump\t// in\n    tag_30:\n      swap4\n      pop\n        /* \"contracts/task01/mergeArr.sol\":516:527  result[k++] */\n      dup2\n      mload\n      dup2\n      lt\n      tag_32\n      jumpi\n      tag_32\n      tag_22\n      jump\t// in\n    tag_32:\n      0x20\n      mul\n      0x20\n      add\n      add\n        /* \"contracts/task01/mergeArr.sol\":516:537  result[k++]=arr1[i++] */\n      dup2\n      dup2\n      mstore\n      pop\n      pop\n        /* \"contracts/task01/mergeArr.sol\":440:739  while (i<len1 && j<len2){... */\n      jump(tag_17)\n        /* \"contracts/task01/mergeArr.sol\":478:728  if (arr1[i]<arr2[j]){... */\n    tag_25:\n        /* \"contracts/task01/mergeArr.sol\":569:573  arr2 */\n      dup8\n        /* \"contracts/task01/mergeArr.sol\":574:575  j */\n      dup3\n        /* \"contracts/task01/mergeArr.sol\":569:576  arr2[j] */\n      dup2\n      mload\n      dup2\n      lt\n      tag_35\n      jumpi\n      tag_35\n      tag_22\n      jump\t// in\n    tag_35:\n      0x20\n      mul\n      0x20\n      add\n      add\n      mload\n        /* \"contracts/task01/mergeArr.sol\":560:564  arr1 */\n      dup10\n        /* \"contracts/task01/mergeArr.sol\":565:566  i */\n      dup5\n        /* \"contracts/task01/mergeArr.sol\":560:567  arr1[i] */\n      dup2\n      mload\n      dup2\n      lt\n      tag_37\n      jumpi\n      tag_37\n      tag_22\n      jump\t// in\n    tag_37:\n      0x20\n      mul\n      0x20\n      add\n      add\n      mload\n        /* \"contracts/task01/mergeArr.sol\":560:576  arr1[i]==arr2[j] */\n      sub\n        /* \"contracts/task01/mergeArr.sol\":557:728  if(arr1[i]==arr2[j]){... */\n      tag_38\n      jumpi\n        /* \"contracts/task01/mergeArr.sol\":607:611  arr1 */\n      dup9\n        /* \"contracts/task01/mergeArr.sol\":612:615  i++ */\n      dup4\n      tag_39\n      dup2\n      tag_27\n      jump\t// in\n    tag_39:\n      swap5\n      pop\n        /* \"contracts/task01/mergeArr.sol\":607:616  arr1[i++] */\n      dup2\n      mload\n      dup2\n      lt\n      tag_41\n      jumpi\n      tag_41\n      tag_22\n      jump\t// in\n    tag_41:\n      0x20\n      mul\n      0x20\n      add\n      add\n      mload\n        /* \"contracts/task01/mergeArr.sol\":595:601  result */\n      dup5\n        /* \"contracts/task01/mergeArr.sol\":602:605  k++ */\n      dup3\n      dup1\n      tag_42\n      swap1\n      tag_27\n      jump\t// in\n    tag_42:\n      swap4\n      pop\n        /* \"contracts/task01/mergeArr.sol\":595:606  result[k++] */\n      dup2\n      mload\n      dup2\n      lt\n      tag_44\n      jumpi\n      tag_44\n      tag_22\n      jump\t// in\n    tag_44:\n      0x20\n      swap1\n      dup2\n      mul\n      swap2\n      swap1\n      swap2\n      add\n      add\n        /* \"contracts/task01/mergeArr.sol\":595:616  result[k++]=arr1[i++] */\n      mstore\n        /* \"contracts/task01/mergeArr.sol\":646:650  arr2 */\n      dup8\n        /* \"contracts/task01/mergeArr.sol\":651:654  j++ */\n      dup3\n      tag_45\n      dup2\n      tag_27\n      jump\t// in\n    tag_45:\n      swap4\n      pop\n        /* \"contracts/task01/mergeArr.sol\":646:655  arr2[j++] */\n      dup2\n      mload\n      dup2\n      lt\n      tag_29\n      jumpi\n      tag_29\n      tag_22\n      jump\t// in\n        /* \"contracts/task01/mergeArr.sol\":557:728  if(arr1[i]==arr2[j]){... */\n    tag_38:\n        /* \"contracts/task01/mergeArr.sol\":704:708  arr2 */\n      dup8\n        /* \"contracts/task01/mergeArr.sol\":709:712  j++ */\n      dup3\n      tag_45\n      dup2\n      tag_27\n      jump\t// in\n        /* \"contracts/task01/mergeArr.sol\":440:739  while (i<len1 && j<len2){... */\n    tag_18:\n        /* \"contracts/task01/mergeArr.sol\":760:764  len1 */\n      dup6\n        /* \"contracts/task01/mergeArr.sol\":756:757  i */\n      dup4\n        /* \"contracts/task01/mergeArr.sol\":756:764  i < len1 */\n      lt\n        /* \"contracts/task01/mergeArr.sol\":749:811  while (i < len1){... */\n      iszero\n      tag_59\n      jumpi\n        /* \"contracts/task01/mergeArr.sol\":791:795  arr1 */\n      dup9\n        /* \"contracts/task01/mergeArr.sol\":796:799  i++ */\n      dup4\n      tag_60\n      dup2\n      tag_27\n      jump\t// in\n    tag_60:\n      swap5\n      pop\n        /* \"contracts/task01/mergeArr.sol\":791:800  arr1[i++] */\n      dup2\n      mload\n      dup2\n      lt\n      tag_62\n      jumpi\n      tag_62\n      tag_22\n      jump\t// in\n    tag_62:\n      0x20\n      mul\n      0x20\n      add\n      add\n      mload\n        /* \"contracts/task01/mergeArr.sol\":779:785  result */\n      dup5\n        /* \"contracts/task01/mergeArr.sol\":786:789  k++ */\n      dup3\n      dup1\n      tag_63\n      swap1\n      tag_27\n      jump\t// in\n    tag_63:\n      swap4\n      pop\n        /* \"contracts/task01/mergeArr.sol\":779:790  result[k++] */\n      dup2\n      mload\n      dup2\n      lt\n      tag_65\n      jumpi\n      tag_65\n      tag_22\n      jump\t// in\n    tag_65:\n      0x20\n      mul\n      0x20\n      add\n      add\n        /* \"contracts/task01/mergeArr.sol\":779:800  result[k++]=arr1[i++] */\n      dup2\n      dup2\n      mstore\n      pop\n      pop\n        /* \"contracts/task01/mergeArr.sol\":749:811  while (i < len1){... */\n      jump(tag_18)\n    tag_59:\n        /* \"contracts/task01/mergeArr.sol\":830:834  len2 */\n      dup5\n        /* \"contracts/task01/mergeArr.sol\":828:829  j */\n      dup3\n        /* \"contracts/task01/mergeArr.sol\":828:834  j<len2 */\n      lt\n        /* \"contracts/task01/mergeArr.sol\":821:881  while (j<len2){... */\n      iszero\n      tag_67\n      jumpi\n        /* \"contracts/task01/mergeArr.sol\":861:865  arr2 */\n      dup8\n        /* \"contracts/task01/mergeArr.sol\":866:869  j++ */\n      dup3\n      tag_68\n      dup2\n      tag_27\n      jump\t// in\n    tag_68:\n      swap4\n      pop\n        /* \"contracts/task01/mergeArr.sol\":861:870  arr2[j++] */\n      dup2\n      mload\n      dup2\n      lt\n      tag_70\n      jumpi\n      tag_70\n      tag_22\n      jump\t// in\n    tag_70:\n      0x20\n      mul\n      0x20\n      add\n      add\n      mload\n        /* \"contracts/task01/mergeArr.sol\":849:855  result */\n      dup5\n        /* \"contracts/task01/mergeArr.sol\":856:859  k++ */\n      dup3\n      dup1\n      tag_71\n      swap1\n      tag_27\n      jump\t// in\n    tag_71:\n      swap4\n      pop\n        /* \"contracts/task01/mergeArr.sol\":849:860  result[k++] */\n      dup2\n      mload\n      dup2\n      lt\n      tag_73\n      jumpi\n      tag_73\n      tag_22\n      jump\t// in\n    tag_73:\n      0x20\n      mul\n      0x20\n      add\n      add\n        /* \"contracts/task01/mergeArr.sol\":849:870  result[k++]=arr2[j++] */\n      dup2\n      dup2\n      mstore\n      pop\n      pop\n        /* \"contracts/task01/mergeArr.sol\":821:881  while (j<len2){... */\n      jump(tag_59)\n    tag_67:\n      pop\n        /* \"contracts/task01/mergeArr.sol\":900:906  result */\n      swap2\n      swap5\n      pop\n      pop\n      pop\n      pop\n      pop\n        /* \"contracts/task01/mergeArr.sol\":160:914  function merge(uint[] memory arr1,uint[] memory arr2)public pure returns(uint[] memory){... */\n    tag_10:\n      swap3\n      swap2\n      pop\n      pop\n      jump\t// out\n        /* \"#utility.yul\":14:141   */\n    tag_15:\n        /* \"#utility.yul\":75:85   */\n      0x4e487b71\n        /* \"#utility.yul\":70:73   */\n      0xe0\n        /* \"#utility.yul\":66:86   */\n      shl\n        /* \"#utility.yul\":63:64   */\n      0x00\n        /* \"#utility.yul\":56:87   */\n      mstore\n        /* \"#utility.yul\":106:110   */\n      0x41\n        /* \"#utility.yul\":103:104   */\n      0x04\n        /* \"#utility.yul\":96:111   */\n      mstore\n        /* \"#utility.yul\":130:134   */\n      0x24\n        /* \"#utility.yul\":127:128   */\n      0x00\n        /* \"#utility.yul\":120:135   */\n      revert\n        /* \"#utility.yul\":146:1100   */\n    tag_74:\n        /* \"#utility.yul\":200:205   */\n      0x00\n        /* \"#utility.yul\":253:256   */\n      dup3\n        /* \"#utility.yul\":246:250   */\n      0x1f\n        /* \"#utility.yul\":238:244   */\n      dup4\n        /* \"#utility.yul\":234:251   */\n      add\n        /* \"#utility.yul\":230:257   */\n      slt\n        /* \"#utility.yul\":220:275   */\n      tag_79\n      jumpi\n        /* \"#utility.yul\":271:272   */\n      0x00\n        /* \"#utility.yul\":268:269   */\n      0x00\n        /* \"#utility.yul\":261:273   */\n      revert\n        /* \"#utility.yul\":220:275   */\n    tag_79:\n        /* \"#utility.yul\":311:317   */\n      dup2\n        /* \"#utility.yul\":298:318   */\n      calldataload\n        /* \"#utility.yul\":341:359   */\n      0xffffffffffffffff\n        /* \"#utility.yul\":333:339   */\n      dup2\n        /* \"#utility.yul\":330:360   */\n      gt\n        /* \"#utility.yul\":327:383   */\n      iszero\n      tag_81\n      jumpi\n        /* \"#utility.yul\":363:381   */\n      tag_81\n      tag_15\n      jump\t// in\n    tag_81:\n        /* \"#utility.yul\":409:415   */\n      dup1\n        /* \"#utility.yul\":406:407   */\n      0x05\n        /* \"#utility.yul\":402:416   */\n      shl\n        /* \"#utility.yul\":445:447   */\n      0x40\n        /* \"#utility.yul\":439:448   */\n      mload\n        /* \"#utility.yul\":508:510   */\n      0x1f\n        /* \"#utility.yul\":504:511   */\n      not\n        /* \"#utility.yul\":499:501   */\n      0x3f\n        /* \"#utility.yul\":495:497   */\n      dup4\n        /* \"#utility.yul\":491:502   */\n      add\n        /* \"#utility.yul\":487:512   */\n      and\n        /* \"#utility.yul\":479:485   */\n      dup2\n        /* \"#utility.yul\":475:513   */\n      add\n        /* \"#utility.yul\":579:585   */\n      dup2\n        /* \"#utility.yul\":567:577   */\n      dup2\n        /* \"#utility.yul\":564:586   */\n      lt\n        /* \"#utility.yul\":543:561   */\n      0xffffffffffffffff\n        /* \"#utility.yul\":531:541   */\n      dup3\n        /* \"#utility.yul\":528:562   */\n      gt\n        /* \"#utility.yul\":525:587   */\n      or\n        /* \"#utility.yul\":522:610   */\n      iszero\n      tag_83\n      jumpi\n        /* \"#utility.yul\":590:608   */\n      tag_83\n      tag_15\n      jump\t// in\n    tag_83:\n        /* \"#utility.yul\":626:628   */\n      0x40\n        /* \"#utility.yul\":619:641   */\n      mstore\n        /* \"#utility.yul\":676:698   */\n      swap2\n      dup3\n      mstore\n        /* \"#utility.yul\":726:730   */\n      0x20\n        /* \"#utility.yul\":758:773   */\n      dup2\n      dup6\n      add\n        /* \"#utility.yul\":754:780   */\n      dup2\n      add\n      swap3\n        /* \"#utility.yul\":676:698   */\n      swap1\n        /* \"#utility.yul\":714:731   */\n      dup2\n      add\n        /* \"#utility.yul\":792:807   */\n      dup7\n      dup5\n      gt\n        /* \"#utility.yul\":789:824   */\n      iszero\n      tag_84\n      jumpi\n        /* \"#utility.yul\":820:821   */\n      0x00\n        /* \"#utility.yul\":817:818   */\n      0x00\n        /* \"#utility.yul\":810:822   */\n      revert\n        /* \"#utility.yul\":789:824   */\n    tag_84:\n        /* \"#utility.yul\":856:860   */\n      0x20\n        /* \"#utility.yul\":848:854   */\n      dup7\n        /* \"#utility.yul\":844:861   */\n      add\n        /* \"#utility.yul\":833:861   */\n      swap3\n      pop\n        /* \"#utility.yul\":870:1070   */\n    tag_85:\n        /* \"#utility.yul\":886:892   */\n      dup4\n        /* \"#utility.yul\":881:884   */\n      dup4\n        /* \"#utility.yul\":878:893   */\n      lt\n        /* \"#utility.yul\":870:1070   */\n      iszero\n      tag_87\n      jumpi\n        /* \"#utility.yul\":978:995   */\n      dup3\n      calldataload\n        /* \"#utility.yul\":1008:1026   */\n      dup2\n      mstore\n        /* \"#utility.yul\":1055:1059   */\n      0x20\n        /* \"#utility.yul\":903:917   */\n      swap3\n      dup4\n      add\n      swap3\n        /* \"#utility.yul\":1046:1060   */\n      add\n        /* \"#utility.yul\":870:1070   */\n      jump(tag_85)\n    tag_87:\n      pop\n        /* \"#utility.yul\":1088:1094   */\n      swap6\n        /* \"#utility.yul\":146:1100   */\n      swap5\n      pop\n      pop\n      pop\n      pop\n      pop\n      jump\t// out\n        /* \"#utility.yul\":1105:1695   */\n    tag_6:\n        /* \"#utility.yul\":1223:1229   */\n      0x00\n        /* \"#utility.yul\":1231:1237   */\n      0x00\n        /* \"#utility.yul\":1284:1286   */\n      0x40\n        /* \"#utility.yul\":1272:1281   */\n      dup4\n        /* \"#utility.yul\":1263:1270   */\n      dup6\n        /* \"#utility.yul\":1259:1282   */\n      sub\n        /* \"#utility.yul\":1255:1287   */\n      slt\n        /* \"#utility.yul\":1252:1304   */\n      iszero\n      tag_89\n      jumpi\n        /* \"#utility.yul\":1300:1301   */\n      0x00\n        /* \"#utility.yul\":1297:1298   */\n      0x00\n        /* \"#utility.yul\":1290:1302   */\n      revert\n        /* \"#utility.yul\":1252:1304   */\n    tag_89:\n        /* \"#utility.yul\":1340:1349   */\n      dup3\n        /* \"#utility.yul\":1327:1350   */\n      calldataload\n        /* \"#utility.yul\":1373:1391   */\n      0xffffffffffffffff\n        /* \"#utility.yul\":1365:1371   */\n      dup2\n        /* \"#utility.yul\":1362:1392   */\n      gt\n        /* \"#utility.yul\":1359:1409   */\n      iszero\n      tag_90\n      jumpi\n        /* \"#utility.yul\":1405:1406   */\n      0x00\n        /* \"#utility.yul\":1402:1403   */\n      0x00\n        /* \"#utility.yul\":1395:1407   */\n      revert\n        /* \"#utility.yul\":1359:1409   */\n    tag_90:\n        /* \"#utility.yul\":1428:1489   */\n      tag_91\n        /* \"#utility.yul\":1481:1488   */\n      dup6\n        /* \"#utility.yul\":1472:1478   */\n      dup3\n        /* \"#utility.yul\":1461:1470   */\n      dup7\n        /* \"#utility.yul\":1457:1479   */\n      add\n        /* \"#utility.yul\":1428:1489   */\n      tag_74\n      jump\t// in\n    tag_91:\n        /* \"#utility.yul\":1418:1489   */\n      swap3\n      pop\n      pop\n        /* \"#utility.yul\":1542:1544   */\n      0x20\n        /* \"#utility.yul\":1531:1540   */\n      dup4\n        /* \"#utility.yul\":1527:1545   */\n      add\n        /* \"#utility.yul\":1514:1546   */\n      calldataload\n        /* \"#utility.yul\":1571:1589   */\n      0xffffffffffffffff\n        /* \"#utility.yul\":1561:1569   */\n      dup2\n        /* \"#utility.yul\":1558:1590   */\n      gt\n        /* \"#utility.yul\":1555:1607   */\n      iszero\n      tag_92\n      jumpi\n        /* \"#utility.yul\":1603:1604   */\n      0x00\n        /* \"#utility.yul\":1600:1601   */\n      0x00\n        /* \"#utility.yul\":1593:1605   */\n      revert\n        /* \"#utility.yul\":1555:1607   */\n    tag_92:\n        /* \"#utility.yul\":1626:1689   */\n      tag_93\n        /* \"#utility.yul\":1681:1688   */\n      dup6\n        /* \"#utility.yul\":1670:1678   */\n      dup3\n        /* \"#utility.yul\":1659:1668   */\n      dup7\n        /* \"#utility.yul\":1655:1679   */\n      add\n        /* \"#utility.yul\":1626:1689   */\n      tag_74\n      jump\t// in\n    tag_93:\n        /* \"#utility.yul\":1616:1689   */\n      swap2\n      pop\n      pop\n        /* \"#utility.yul\":1105:1695   */\n      swap3\n      pop\n      swap3\n      swap1\n      pop\n      jump\t// out\n        /* \"#utility.yul\":1700:2311   */\n    tag_9:\n        /* \"#utility.yul\":1890:1892   */\n      0x20\n        /* \"#utility.yul\":1902:1923   */\n      dup1\n      dup3\n      mstore\n        /* \"#utility.yul\":1972:1985   */\n      dup3\n      mload\n        /* \"#utility.yul\":1875:1893   */\n      dup3\n      dup3\n      add\n        /* \"#utility.yul\":1994:2016   */\n      dup2\n      swap1\n      mstore\n        /* \"#utility.yul\":1842:1846   */\n      0x00\n      swap2\n        /* \"#utility.yul\":2073:2088   */\n      dup5\n      add\n      swap1\n        /* \"#utility.yul\":2047:2049   */\n      0x40\n        /* \"#utility.yul\":2032:2050   */\n      dup5\n      add\n      swap1\n        /* \"#utility.yul\":1842:1846   */\n      dup4\n        /* \"#utility.yul\":2116:2285   */\n    tag_95:\n        /* \"#utility.yul\":2130:2136   */\n      dup2\n        /* \"#utility.yul\":2127:2128   */\n      dup2\n        /* \"#utility.yul\":2124:2137   */\n      lt\n        /* \"#utility.yul\":2116:2285   */\n      iszero\n      tag_97\n      jumpi\n        /* \"#utility.yul\":2191:2204   */\n      dup4\n      mload\n        /* \"#utility.yul\":2179:2205   */\n      dup4\n      mstore\n        /* \"#utility.yul\":2234:2236   */\n      0x20\n        /* \"#utility.yul\":2260:2275   */\n      swap4\n      dup5\n      add\n      swap4\n        /* \"#utility.yul\":2225:2237   */\n      swap1\n      swap3\n      add\n      swap2\n        /* \"#utility.yul\":2152:2153   */\n      0x01\n        /* \"#utility.yul\":2145:2154   */\n      add\n        /* \"#utility.yul\":2116:2285   */\n      jump(tag_95)\n    tag_97:\n      pop\n        /* \"#utility.yul\":2302:2305   */\n      swap1\n      swap6\n        /* \"#utility.yul\":1700:2311   */\n      swap5\n      pop\n      pop\n      pop\n      pop\n      pop\n      jump\t// out\n        /* \"#utility.yul\":2316:2443   */\n    tag_75:\n        /* \"#utility.yul\":2377:2387   */\n      0x4e487b71\n        /* \"#utility.yul\":2372:2375   */\n      0xe0\n        /* \"#utility.yul\":2368:2388   */\n      shl\n        /* \"#utility.yul\":2365:2366   */\n      0x00\n        /* \"#utility.yul\":2358:2389   */\n      mstore\n        /* \"#utility.yul\":2408:2412   */\n      0x11\n        /* \"#utility.yul\":2405:2406   */\n      0x04\n        /* \"#utility.yul\":2398:2413   */\n      mstore\n        /* \"#utility.yul\":2432:2436   */\n      0x24\n        /* \"#utility.yul\":2429:2430   */\n      0x00\n        /* \"#utility.yul\":2422:2437   */\n      revert\n        /* \"#utility.yul\":2448:2573   */\n    tag_12:\n        /* \"#utility.yul\":2513:2522   */\n      dup1\n      dup3\n      add\n        /* \"#utility.yul\":2534:2544   */\n      dup1\n      dup3\n      gt\n        /* \"#utility.yul\":2531:2567   */\n      iszero\n      tag_10\n      jumpi\n        /* \"#utility.yul\":2547:2565   */\n      tag_10\n      tag_75\n      jump\t// in\n        /* \"#utility.yul\":2578:2705   */\n    tag_22:\n        /* \"#utility.yul\":2639:2649   */\n      0x4e487b71\n        /* \"#utility.yul\":2634:2637   */\n      0xe0\n        /* \"#utility.yul\":2630:2650   */\n      shl\n        /* \"#utility.yul\":2627:2628   */\n      0x00\n        /* \"#utility.yul\":2620:2651   */\n      mstore\n        /* \"#utility.yul\":2670:2674   */\n      0x32\n        /* \"#utility.yul\":2667:2668   */\n      0x04\n        /* \"#utility.yul\":2660:2675   */\n      mstore\n        /* \"#utility.yul\":2694:2698   */\n      0x24\n        /* \"#utility.yul\":2691:2692   */\n      0x00\n        /* \"#utility.yul\":2684:2699   */\n      revert\n        /* \"#utility.yul\":2710:2845   */\n    tag_27:\n        /* \"#utility.yul\":2749:2752   */\n      0x00\n        /* \"#utility.yul\":2770:2787   */\n      0x01\n      dup3\n      add\n        /* \"#utility.yul\":2767:2810   */\n      tag_105\n      jumpi\n        /* \"#utility.yul\":2790:2808   */\n      tag_105\n      tag_75\n      jump\t// in\n    tag_105:\n      pop\n        /* \"#utility.yul\":2837:2838   */\n      0x01\n        /* \"#utility.yul\":2826:2839   */\n      add\n      swap1\n        /* \"#utility.yul\":2710:2845   */\n      jump\t// out\n\n    auxdata: 0xa2646970667358221220079e9a28eb9deb18dfb0a7ff63a1029cf7a420c6586d33d0e0c849f8738ab1d264736f6c634300081f0033\n}\n",
				"bytecode": {
					"linkReferences": {},
					"object": "6080604052348015600e575f5ffd5b506104a88061001c5f395ff3fe608060405234801561000f575f5ffd5b5060043610610029575f3560e01c8063088b9bf61461002d575b5f5ffd5b61004061003b366004610378565b610056565b60405161004d91906103dd565b60405180910390f35b81518151606091905f6100698284610433565b67ffffffffffffffff811115610081576100816102c8565b6040519080825280602002602001820160405280156100aa578160200160208202803683370190505b5090505f80805b85831080156100bf57508482105b15610201578782815181106100d6576100d6610446565b60200260200101518984815181106100f0576100f0610446565b602002602001015110156101525788836101098161045a565b94508151811061011b5761011b610446565b602002602001015184828061012f9061045a565b93508151811061014157610141610446565b6020026020010181815250506100b1565b87828151811061016457610164610446565b602002602001015189848151811061017e5761017e610446565b6020026020010151036101f65788836101968161045a565b9450815181106101a8576101a8610446565b60200260200101518482806101bc9061045a565b9350815181106101ce576101ce610446565b602090810291909101015287826101e48161045a565b93508151811061011b5761011b610446565b87826101e48161045a565b8583101561025d5788836102148161045a565b94508151811061022657610226610446565b602002602001015184828061023a9061045a565b93508151811061024c5761024c610446565b602002602001018181525050610201565b848210156102b95787826102708161045a565b93508151811061028257610282610446565b60200260200101518482806102969061045a565b9350815181106102a8576102a8610446565b60200260200101818152505061025d565b50919450505050505b92915050565b634e487b7160e01b5f52604160045260245ffd5b5f82601f8301126102eb575f5ffd5b813567ffffffffffffffff811115610305576103056102c8565b8060051b604051601f19603f830116810181811067ffffffffffffffff82111715610332576103326102c8565b60405291825260208185018101929081018684111561034f575f5ffd5b6020860192505b8383101561036e578235815260209283019201610356565b5095945050505050565b5f5f60408385031215610389575f5ffd5b823567ffffffffffffffff81111561039f575f5ffd5b6103ab858286016102dc565b925050602083013567ffffffffffffffff8111156103c7575f5ffd5b6103d3858286016102dc565b9150509250929050565b602080825282518282018190525f918401906040840190835b818110156104145783518352602093840193909201916001016103f6565b509095945050505050565b634e487b7160e01b5f52601160045260245ffd5b808201808211156102c2576102c261041f565b634e487b7160e01b5f52603260045260245ffd5b5f6001820161046b5761046b61041f565b506001019056fea2646970667358221220079e9a28eb9deb18dfb0a7ff63a1029cf7a420c6586d33d0e0c849f8738ab1d264736f6c634300081f0033",
					"opcodes": "PUSH1 0x80 PUSH1 0x40 MSTORE CALLVALUE DUP1 ISZERO PUSH1 0xE JUMPI PUSH0 PUSH0 REVERT JUMPDEST POP PUSH2 0x4A8 DUP1 PUSH2 0x1C PUSH0 CODECOPY PUSH0 RETURN INVALID PUSH1 0x80 PUSH1 0x40 MSTORE CALLVALUE DUP1 ISZERO PUSH2 0xF JUMPI PUSH0 PUSH0 REVERT JUMPDEST POP PUSH1 0x4 CALLDATASIZE LT PUSH2 0x29 JUMPI PUSH0 CALLDATALOAD PUSH1 0xE0 SHR DUP1 PUSH4 0x88B9BF6 EQ PUSH2 0x2D JUMPI JUMPDEST PUSH0 PUSH0 REVERT JUMPDEST PUSH2 0x40 PUSH2 0x3B CALLDATASIZE PUSH1 0x4 PUSH2 0x378 JUMP JUMPDEST PUSH2 0x56 JUMP JUMPDEST PUSH1 0x40 MLOAD PUSH2 0x4D SWAP2 SWAP1 PUSH2 0x3DD JUMP JUMPDEST PUSH1 0x40 MLOAD DUP1 SWAP2 SUB SWAP1 RETURN JUMPDEST DUP2 MLOAD DUP2 MLOAD PUSH1 0x60 SWAP2 SWAP1 PUSH0 PUSH2 0x69 DUP3 DUP5 PUSH2 0x433 JUMP JUMPDEST PUSH8 0xFFFFFFFFFFFFFFFF DUP2 GT ISZERO PUSH2 0x81 JUMPI PUSH2 0x81 PUSH2 0x2C8 JUMP JUMPDEST PUSH1 0x40 MLOAD SWAP1 DUP1 DUP3 MSTORE DUP1 PUSH1 0x20 MUL PUSH1 0x20 ADD DUP3 ADD PUSH1 0x40 MSTORE DUP1 ISZERO PUSH2 0xAA JUMPI DUP2 PUSH1 0x20 ADD PUSH1 0x20 DUP3 MUL DUP1 CALLDATASIZE DUP4 CALLDATACOPY ADD SWAP1 POP JUMPDEST POP SWAP1 POP PUSH0 DUP1 DUP1 JUMPDEST DUP6 DUP4 LT DUP1 ISZERO PUSH2 0xBF JUMPI POP DUP5 DUP3 LT JUMPDEST ISZERO PUSH2 0x201 JUMPI DUP8 DUP3 DUP2 MLOAD DUP2 LT PUSH2 0xD6 JUMPI PUSH2 0xD6 PUSH2 0x446 JUMP JUMPDEST PUSH1 0x20 MUL PUSH1 0x20 ADD ADD MLOAD DUP10 DUP5 DUP2 MLOAD DUP2 LT PUSH2 0xF0 JUMPI PUSH2 0xF0 PUSH2 0x446 JUMP JUMPDEST PUSH1 0x20 MUL PUSH1 0x20 ADD ADD MLOAD LT ISZERO PUSH2 0x152 JUMPI DUP9 DUP4 PUSH2 0x109 DUP2 PUSH2 0x45A JUMP JUMPDEST SWAP5 POP DUP2 MLOAD DUP2 LT PUSH2 0x11B JUMPI PUSH2 0x11B PUSH2 0x446 JUMP JUMPDEST PUSH1 0x20 MUL PUSH1 0x20 ADD ADD MLOAD DUP5 DUP3 DUP1 PUSH2 0x12F SWAP1 PUSH2 0x45A JUMP JUMPDEST SWAP4 POP DUP2 MLOAD DUP2 LT PUSH2 0x141 JUMPI PUSH2 0x141 PUSH2 0x446 JUMP JUMPDEST PUSH1 0x20 MUL PUSH1 0x20 ADD ADD DUP2 DUP2 MSTORE POP POP PUSH2 0xB1 JUMP JUMPDEST DUP8 DUP3 DUP2 MLOAD DUP2 LT PUSH2 0x164 JUMPI PUSH2 0x164 PUSH2 0x446 JUMP JUMPDEST PUSH1 0x20 MUL PUSH1 0x20 ADD ADD MLOAD DUP10 DUP5 DUP2 MLOAD DUP2 LT PUSH2 0x17E JUMPI PUSH2 0x17E PUSH2 0x446 JUMP JUMPDEST PUSH1 0x20 MUL PUSH1 0x20 ADD ADD MLOAD SUB PUSH2 0x1F6 JUMPI DUP9 DUP4 PUSH2 0x196 DUP2 PUSH2 0x45A JUMP JUMPDEST SWAP5 POP DUP2 MLOAD DUP2 LT PUSH2 0x1A8 JUMPI PUSH2 0x1A8 PUSH2 0x446 JUMP JUMPDEST PUSH1 0x20 MUL PUSH1 0x20 ADD ADD MLOAD DUP5 DUP3 DUP1 PUSH2 0x1BC SWAP1 PUSH2 0x45A JUMP JUMPDEST SWAP4 POP DUP2 MLOAD DUP2 LT PUSH2 0x1CE JUMPI PUSH2 0x1CE PUSH2 0x446 JUMP JUMPDEST PUSH1 0x20 SWAP1 DUP2 MUL SWAP2 SWAP1 SWAP2 ADD ADD MSTORE DUP8 DUP3 PUSH2 0x1E4 DUP2 PUSH2 0x45A JUMP JUMPDEST SWAP4 POP DUP2 MLOAD DUP2 LT PUSH2 0x11B JUMPI PUSH2 0x11B PUSH2 0x446 JUMP JUMPDEST DUP8 DUP3 PUSH2 0x1E4 DUP2 PUSH2 0x45A JUMP JUMPDEST DUP6 DUP4 LT ISZERO PUSH2 0x25D JUMPI DUP9 DUP4 PUSH2 0x214 DUP2 PUSH2 0x45A JUMP JUMPDEST SWAP5 POP DUP2 MLOAD DUP2 LT PUSH2 0x226 JUMPI PUSH2 0x226 PUSH2 0x446 JUMP JUMPDEST PUSH1 0x20 MUL PUSH1 0x20 ADD ADD MLOAD DUP5 DUP3 DUP1 PUSH2 0x23A SWAP1 PUSH2 0x45A JUMP JUMPDEST SWAP4 POP DUP2 MLOAD DUP2 LT PUSH2 0x24C JUMPI PUSH2 0x24C PUSH2 0x446 JUMP JUMPDEST PUSH1 0x20 MUL PUSH1 0x20 ADD ADD DUP2 DUP2 MSTORE POP POP PUSH2 0x201 JUMP JUMPDEST DUP5 DUP3 LT ISZERO PUSH2 0x2B9 JUMPI DUP8 DUP3 PUSH2 0x270 DUP2 PUSH2 0x45A JUMP JUMPDEST SWAP4 POP DUP2 MLOAD DUP2 LT PUSH2 0x282 JUMPI PUSH2 0x282 PUSH2 0x446 JUMP JUMPDEST PUSH1 0x20 MUL PUSH1 0x20 ADD ADD MLOAD DUP5 DUP3 DUP1 PUSH2 0x296 SWAP1 PUSH2 0x45A JUMP JUMPDEST SWAP4 POP DUP2 MLOAD DUP2 LT PUSH2 0x2A8 JUMPI PUSH2 0x2A8 PUSH2 0x446 JUMP JUMPDEST PUSH1 0x20 MUL PUSH1 0x20 ADD ADD DUP2 DUP2 MSTORE POP POP PUSH2 0x25D JUMP JUMPDEST POP SWAP2 SWAP5 POP POP POP POP POP JUMPDEST SWAP3 SWAP2 POP POP JUMP JUMPDEST PUSH4 0x4E487B71 PUSH1 0xE0 SHL PUSH0 MSTORE PUSH1 0x41 PUSH1 0x4 MSTORE PUSH1 0x24 PUSH0 REVERT JUMPDEST PUSH0 DUP3 PUSH1 0x1F DUP4 ADD SLT PUSH2 0x2EB JUMPI PUSH0 PUSH0 REVERT JUMPDEST DUP2 CALLDATALOAD PUSH8 0xFFFFFFFFFFFFFFFF DUP2 GT ISZERO PUSH2 0x305 JUMPI PUSH2 0x305 PUSH2 0x2C8 JUMP JUMPDEST DUP1 PUSH1 0x5 SHL PUSH1 0x40 MLOAD PUSH1 0x1F NOT PUSH1 0x3F DUP4 ADD AND DUP2 ADD DUP2 DUP2 LT PUSH8 0xFFFFFFFFFFFFFFFF DUP3 GT OR ISZERO PUSH2 0x332 JUMPI PUSH2 0x332 PUSH2 0x2C8 JUMP JUMPDEST PUSH1 0x40 MSTORE SWAP2 DUP3 MSTORE PUSH1 0x20 DUP2 DUP6 ADD DUP2 ADD SWAP3 SWAP1 DUP2 ADD DUP7 DUP5 GT ISZERO PUSH2 0x34F JUMPI PUSH0 PUSH0 REVERT JUMPDEST PUSH1 0x20 DUP7 ADD SWAP3 POP JUMPDEST DUP4 DUP4 LT ISZERO PUSH2 0x36E JUMPI DUP3 CALLDATALOAD DUP2 MSTORE PUSH1 0x20 SWAP3 DUP4 ADD SWAP3 ADD PUSH2 0x356 JUMP JUMPDEST POP SWAP6 SWAP5 POP POP POP POP POP JUMP JUMPDEST PUSH0 PUSH0 PUSH1 0x40 DUP4 DUP6 SUB SLT ISZERO PUSH2 0x389 JUMPI PUSH0 PUSH0 REVERT JUMPDEST DUP3 CALLDATALOAD PUSH8 0xFFFFFFFFFFFFFFFF DUP2 GT ISZERO PUSH2 0x39F JUMPI PUSH0 PUSH0 REVERT JUMPDEST PUSH2 0x3AB DUP6 DUP3 DUP7 ADD PUSH2 0x2DC JUMP JUMPDEST SWAP3 POP POP PUSH1 0x20 DUP4 ADD CALLDATALOAD PUSH8 0xFFFFFFFFFFFFFFFF DUP2 GT ISZERO PUSH2 0x3C7 JUMPI PUSH0 PUSH0 REVERT JUMPDEST PUSH2 0x3D3 DUP6 DUP3 DUP7 ADD PUSH2 0x2DC JUMP JUMPDEST SWAP2 POP POP SWAP3 POP SWAP3 SWAP1 POP JUMP JUMPDEST PUSH1 0x20 DUP1 DUP3 MSTORE DUP3 MLOAD DUP3 DUP3 ADD DUP2 SWAP1 MSTORE PUSH0 SWAP2 DUP5 ADD SWAP1 PUSH1 0x40 DUP5 ADD SWAP1 DUP4 JUMPDEST DUP2 DUP2 LT ISZERO PUSH2 0x414 JUMPI DUP4 MLOAD DUP4 MSTORE PUSH1 0x20 SWAP4 DUP5 ADD SWAP4 SWAP1 SWAP3 ADD SWAP2 PUSH1 0x1 ADD PUSH2 0x3F6 JUMP JUMPDEST POP SWAP1 SWAP6 SWAP5 POP POP POP POP POP JUMP JUMPDEST PUSH4 0x4E487B71 PUSH1 0xE0 SHL PUSH0 MSTORE PUSH1 0x11 PUSH1 0x4 MSTORE PUSH1 0x24 PUSH0 REVERT JUMPDEST DUP1 DUP3 ADD DUP1 DUP3 GT ISZERO PUSH2 0x2C2 JUMPI PUSH2 0x2C2 PUSH2 0x41F JUMP JUMPDEST PUSH4 0x4E487B71 PUSH1 0xE0 SHL PUSH0 MSTORE PUSH1 0x32 PUSH1 0x4 MSTORE PUSH1 0x24 PUSH0 REVERT JUMPDEST PUSH0 PUSH1 0x1 DUP3 ADD PUSH2 0x46B JUMPI PUSH2 0x46B PUSH2 0x41F JUMP JUMPDEST POP PUSH1 0x1 ADD SWAP1 JUMP INVALID LOG2 PUSH5 0x6970667358 0x22 SLT KECCAK256 SMOD SWAP15 SWAP11 0x28 0xEB SWAP14 0xEB XOR 0xDF 0xB0 0xA7 SELFDESTRUCT PUSH4 0xA1029CF7 LOG4 KECCAK256 0xC6 PC PUSH14 0x33D0E0C849F8738AB1D264736F6C PUSH4 0x4300081F STOP CALLER "
				},
				"gasEstimates": {
					"creation": {
						"codeDepositCost": "238400",
						"executionCost": "279",
						"totalCost": "238679"
					},
					"external": {
						"merge(uint256[],uint256[])": "infinite"
					}
				},
				"methodIdentifiers": {
					"merge(uint256[],uint256[])": "088b9bf6"
				}
			},
			"storageLayout": {
				"storage": [],
				"types": null
			},
			"userdoc": {
				"kind": "user",
				"methods": {},
				"version": 1
			}
		}
	}
}