{
	"contracts/task01/romanToInt.sol": {
		"romanToInt": {
			"abi": [
				{
					"inputs": [
						{
							"internalType": "string",
							"name": "s",
							"type": "string"
						}
					],
					"name": "rToInt",
					"outputs": [
						{
							"internalType": "uint256",
							"name": "",
							"type": "uint256"
						}
					],
					"stateMutability": "pure",
					"type": "function"
				}
			],
			"devdoc": {
				"kind": "dev",
				"methods": {},
				"version": 1
			},
			"evm": {
				"assembly": "    /* \"contracts/task01/romanToInt.sol\":1414:2288  contract romanToInt{... */\n  mstore(0x40, 0x80)\n  callvalue\n  dup1\n  iszero\n  tag_1\n  jumpi\n  revert(0x00, 0x00)\ntag_1:\n  pop\n  dataSize(sub_0)\n  dup1\n  dataOffset(sub_0)\n  0x00\n  codecopy\n  0x00\n  return\nstop\n\nsub_0: assembly {\n        /* \"contracts/task01/romanToInt.sol\":1414:2288  contract romanToInt{... */\n      mstore(0x40, 0x80)\n      callvalue\n      dup1\n      iszero\n      tag_1\n      jumpi\n      revert(0x00, 0x00)\n    tag_1:\n      pop\n      jumpi(tag_2, lt(calldatasize, 0x04))\n      shr(0xe0, calldataload(0x00))\n      dup1\n      0x844ec49b\n      eq\n      tag_3\n      jumpi\n    tag_2:\n      revert(0x00, 0x00)\n        /* \"contracts/task01/romanToInt.sol\":1820:2286  function rToInt(string calldata s) public pure  returns (uint256){... */\n    tag_3:\n      tag_4\n      tag_5\n      calldatasize\n      0x04\n      tag_6\n      jump\t// in\n    tag_5:\n      tag_7\n      jump\t// in\n    tag_4:\n      mload(0x40)\n        /* \"#utility.yul\":752:777   */\n      swap1\n      dup2\n      mstore\n        /* \"#utility.yul\":740:742   */\n      0x20\n        /* \"#utility.yul\":725:743   */\n      add\n        /* \"contracts/task01/romanToInt.sol\":1820:2286  function rToInt(string calldata s) public pure  returns (uint256){... */\n      mload(0x40)\n      dup1\n      swap2\n      sub\n      swap1\n      return\n    tag_7:\n        /* \"contracts/task01/romanToInt.sol\":1877:1884  uint256 */\n      0x00\n        /* \"contracts/task01/romanToInt.sol\":1895:1912  bytes memory temp */\n      0x00\n        /* \"contracts/task01/romanToInt.sol\":1921:1922  s */\n      dup4\n      dup4\n        /* \"contracts/task01/romanToInt.sol\":1895:1923  bytes memory temp = bytes(s) */\n      dup1\n      dup1\n      0x1f\n      add\n      0x20\n      dup1\n      swap2\n      div\n      mul\n      0x20\n      add\n      mload(0x40)\n      swap1\n      dup2\n      add\n      0x40\n      mstore\n      dup1\n      swap4\n      swap3\n      swap2\n      swap1\n      dup2\n      dup2\n      mstore\n      0x20\n      add\n      dup4\n      dup4\n      dup1\n      dup3\n      dup5\n      calldatacopy\n      0x00\n      swap3\n      add\n      dup3\n      swap1\n      mstore\n      pop\n        /* \"contracts/task01/romanToInt.sol\":1947:1958  temp.length */\n      dup5\n      mload\n        /* \"contracts/task01/romanToInt.sol\":1895:1923  bytes memory temp = bytes(s) */\n      swap5\n      swap6\n      pop\n      swap3\n      pop\n      dup3\n      swap2\n      pop\n      dup2\n      swap1\n      pop\n        /* \"contracts/task01/romanToInt.sol\":2020:2257  for(uint256 i=0;i<len;i++){... */\n    tag_11:\n        /* \"contracts/task01/romanToInt.sol\":2038:2041  len */\n      dup4\n        /* \"contracts/task01/romanToInt.sol\":2036:2037  i */\n      dup2\n        /* \"contracts/task01/romanToInt.sol\":2036:2041  i<len */\n      lt\n        /* \"contracts/task01/romanToInt.sol\":2020:2257  for(uint256 i=0;i<len;i++){... */\n      iszero\n      tag_12\n      jumpi\n        /* \"contracts/task01/romanToInt.sol\":2068:2082  toInt(temp[i]) */\n      tag_14\n        /* \"contracts/task01/romanToInt.sol\":2074:2078  temp */\n      dup6\n        /* \"contracts/task01/romanToInt.sol\":2079:2080  i */\n      dup3\n        /* \"contracts/task01/romanToInt.sol\":2074:2081  temp[i] */\n      dup2\n      mload\n      dup2\n      lt\n      tag_16\n      jumpi\n      tag_16\n      tag_17\n      jump\t// in\n    tag_16:\n      add\n      0x20\n      add\n      mload\n      not(sub(shl(0xf8, 0x01), 0x01))\n      and\n        /* \"contracts/task01/romanToInt.sol\":2068:2073  toInt */\n      tag_18\n        /* \"contracts/task01/romanToInt.sol\":2068:2082  toInt(temp[i]) */\n      jump\t// in\n    tag_14:\n        /* \"contracts/task01/romanToInt.sol\":2060:2082  iValue =toInt(temp[i]) */\n      swap2\n      pop\n        /* \"contracts/task01/romanToInt.sol\":2102:2107  len-1 */\n      tag_19\n        /* \"contracts/task01/romanToInt.sol\":2106:2107  1 */\n      0x01\n        /* \"contracts/task01/romanToInt.sol\":2102:2105  len */\n      dup6\n        /* \"contracts/task01/romanToInt.sol\":2102:2107  len-1 */\n      tag_20\n      jump\t// in\n    tag_19:\n        /* \"contracts/task01/romanToInt.sol\":2100:2101  i */\n      dup2\n        /* \"contracts/task01/romanToInt.sol\":2100:2107  i<len-1 */\n      lt\n        /* \"contracts/task01/romanToInt.sol\":2100:2134  i<len-1 && iValue<toInt(temp[i+1]) */\n      dup1\n      iszero\n      tag_21\n      jumpi\n      pop\n        /* \"contracts/task01/romanToInt.sol\":2118:2134  toInt(temp[i+1]) */\n      tag_22\n        /* \"contracts/task01/romanToInt.sol\":2124:2128  temp */\n      dup6\n        /* \"contracts/task01/romanToInt.sol\":2129:2132  i+1 */\n      tag_23\n        /* \"contracts/task01/romanToInt.sol\":2129:2130  i */\n      dup4\n        /* \"contracts/task01/romanToInt.sol\":2131:2132  1 */\n      0x01\n        /* \"contracts/task01/romanToInt.sol\":2129:2132  i+1 */\n      tag_24\n      jump\t// in\n    tag_23:\n        /* \"contracts/task01/romanToInt.sol\":2124:2133  temp[i+1] */\n      dup2\n      mload\n      dup2\n      lt\n      tag_16\n      jumpi\n      tag_16\n      tag_17\n      jump\t// in\n        /* \"contracts/task01/romanToInt.sol\":2118:2134  toInt(temp[i+1]) */\n    tag_22:\n        /* \"contracts/task01/romanToInt.sol\":2111:2117  iValue */\n      dup3\n        /* \"contracts/task01/romanToInt.sol\":2111:2134  iValue<toInt(temp[i+1]) */\n      lt\n        /* \"contracts/task01/romanToInt.sol\":2100:2134  i<len-1 && iValue<toInt(temp[i+1]) */\n    tag_21:\n        /* \"contracts/task01/romanToInt.sol\":2096:2234  if (i<len-1 && iValue<toInt(temp[i+1])){... */\n      iszero\n      tag_27\n      jumpi\n        /* \"contracts/task01/romanToInt.sol\":2153:2167  mumber-=iValue */\n      tag_28\n        /* \"contracts/task01/romanToInt.sol\":2161:2167  iValue */\n      dup3\n        /* \"contracts/task01/romanToInt.sol\":2153:2167  mumber-=iValue */\n      dup5\n      tag_20\n      jump\t// in\n    tag_28:\n      swap3\n      pop\n        /* \"contracts/task01/romanToInt.sol\":2096:2234  if (i<len-1 && iValue<toInt(temp[i+1])){... */\n      jump(tag_29)\n    tag_27:\n        /* \"contracts/task01/romanToInt.sol\":2205:2219  mumber+=iValue */\n      tag_30\n        /* \"contracts/task01/romanToInt.sol\":2213:2219  iValue */\n      dup3\n        /* \"contracts/task01/romanToInt.sol\":2205:2219  mumber+=iValue */\n      dup5\n      tag_24\n      jump\t// in\n    tag_30:\n      swap3\n      pop\n        /* \"contracts/task01/romanToInt.sol\":2096:2234  if (i<len-1 && iValue<toInt(temp[i+1])){... */\n    tag_29:\n        /* \"contracts/task01/romanToInt.sol\":2042:2045  i++ */\n      0x01\n      add\n        /* \"contracts/task01/romanToInt.sol\":2020:2257  for(uint256 i=0;i<len;i++){... */\n      jump(tag_11)\n    tag_12:\n      pop\n        /* \"contracts/task01/romanToInt.sol\":2273:2279  mumber */\n      swap1\n      swap4\n      pop\n      pop\n      pop\n      pop\n        /* \"contracts/task01/romanToInt.sol\":1820:2286  function rToInt(string calldata s) public pure  returns (uint256){... */\n    tag_10:\n      swap3\n      swap2\n      pop\n      pop\n      jump\t// out\n        /* \"contracts/task01/romanToInt.sol\":1439:1814  function toInt(bytes1 b) internal pure  returns  (uint256 ){... */\n    tag_18:\n        /* \"contracts/task01/romanToInt.sol\":1489:1496  uint256 */\n      0x00\n      shl(0xf8, 0xb3)\n      not(sub(shl(0xf8, 0x01), 0x01))\n        /* \"contracts/task01/romanToInt.sol\":1512:1528  b == bytes1('M') */\n      dup4\n      and\n      add\n        /* \"contracts/task01/romanToInt.sol\":1508:1540  if (b == bytes1('M'))return 1000 */\n      tag_32\n      jumpi\n      pop\n        /* \"contracts/task01/romanToInt.sol\":1536:1540  1000 */\n      0x03e8\n      swap2\n        /* \"contracts/task01/romanToInt.sol\":1439:1814  function toInt(bytes1 b) internal pure  returns  (uint256 ){... */\n      swap1\n      pop\n      jump\t// out\n        /* \"contracts/task01/romanToInt.sol\":1508:1540  if (b == bytes1('M'))return 1000 */\n    tag_32:\n      shl(0xfa, 0x2f)\n      not(sub(shl(0xf8, 0x01), 0x01))\n        /* \"contracts/task01/romanToInt.sol\":1554:1570  b == bytes1('D') */\n      dup4\n      and\n      add\n        /* \"contracts/task01/romanToInt.sol\":1550:1581  if (b == bytes1('D'))return 500 */\n      tag_33\n      jumpi\n      pop\n        /* \"contracts/task01/romanToInt.sol\":1578:1581  500 */\n      0x01f4\n      swap2\n        /* \"contracts/task01/romanToInt.sol\":1439:1814  function toInt(bytes1 b) internal pure  returns  (uint256 ){... */\n      swap1\n      pop\n      jump\t// out\n        /* \"contracts/task01/romanToInt.sol\":1550:1581  if (b == bytes1('D'))return 500 */\n    tag_33:\n      shl(0xf8, 0xbd)\n      not(sub(shl(0xf8, 0x01), 0x01))\n        /* \"contracts/task01/romanToInt.sol\":1595:1611  b == bytes1('C') */\n      dup4\n      and\n      add\n        /* \"contracts/task01/romanToInt.sol\":1591:1622  if (b == bytes1('C'))return 100 */\n      tag_34\n      jumpi\n      pop\n        /* \"contracts/task01/romanToInt.sol\":1619:1622  100 */\n      0x64\n      swap2\n        /* \"contracts/task01/romanToInt.sol\":1439:1814  function toInt(bytes1 b) internal pure  returns  (uint256 ){... */\n      swap1\n      pop\n      jump\t// out\n        /* \"contracts/task01/romanToInt.sol\":1591:1622  if (b == bytes1('C'))return 100 */\n    tag_34:\n      shl(0xfa, 0x2d)\n      not(sub(shl(0xf8, 0x01), 0x01))\n        /* \"contracts/task01/romanToInt.sol\":1636:1652  b == bytes1('L') */\n      dup4\n      and\n      add\n        /* \"contracts/task01/romanToInt.sol\":1632:1662  if (b == bytes1('L'))return 50 */\n      tag_35\n      jumpi\n      pop\n        /* \"contracts/task01/romanToInt.sol\":1660:1662  50 */\n      0x32\n      swap2\n        /* \"contracts/task01/romanToInt.sol\":1439:1814  function toInt(bytes1 b) internal pure  returns  (uint256 ){... */\n      swap1\n      pop\n      jump\t// out\n        /* \"contracts/task01/romanToInt.sol\":1632:1662  if (b == bytes1('L'))return 50 */\n    tag_35:\n      shl(0xfb, 0x15)\n      not(sub(shl(0xf8, 0x01), 0x01))\n        /* \"contracts/task01/romanToInt.sol\":1676:1692  b == bytes1('X') */\n      dup4\n      and\n      add\n        /* \"contracts/task01/romanToInt.sol\":1672:1702  if (b == bytes1('X'))return 10 */\n      tag_36\n      jumpi\n      pop\n        /* \"contracts/task01/romanToInt.sol\":1700:1702  10 */\n      0x0a\n      swap2\n        /* \"contracts/task01/romanToInt.sol\":1439:1814  function toInt(bytes1 b) internal pure  returns  (uint256 ){... */\n      swap1\n      pop\n      jump\t// out\n        /* \"contracts/task01/romanToInt.sol\":1672:1702  if (b == bytes1('X'))return 10 */\n    tag_36:\n      shl(0xf9, 0x55)\n      not(sub(shl(0xf8, 0x01), 0x01))\n        /* \"contracts/task01/romanToInt.sol\":1716:1732  b == bytes1('V') */\n      dup4\n      and\n      add\n        /* \"contracts/task01/romanToInt.sol\":1712:1741  if (b == bytes1('V'))return 5 */\n      tag_37\n      jumpi\n      pop\n        /* \"contracts/task01/romanToInt.sol\":1740:1741  5 */\n      0x05\n      swap2\n        /* \"contracts/task01/romanToInt.sol\":1439:1814  function toInt(bytes1 b) internal pure  returns  (uint256 ){... */\n      swap1\n      pop\n      jump\t// out\n        /* \"contracts/task01/romanToInt.sol\":1712:1741  if (b == bytes1('V'))return 5 */\n    tag_37:\n      shl(0xf8, 0xb7)\n      not(sub(shl(0xf8, 0x01), 0x01))\n        /* \"contracts/task01/romanToInt.sol\":1755:1771  b == bytes1('I') */\n      dup4\n      and\n      add\n        /* \"contracts/task01/romanToInt.sol\":1751:1780  if (b == bytes1('I'))return 1 */\n      tag_38\n      jumpi\n      pop\n        /* \"contracts/task01/romanToInt.sol\":1779:1780  1 */\n      0x01\n      swap2\n        /* \"contracts/task01/romanToInt.sol\":1439:1814  function toInt(bytes1 b) internal pure  returns  (uint256 ){... */\n      swap1\n      pop\n      jump\t// out\n        /* \"contracts/task01/romanToInt.sol\":1751:1780  if (b == bytes1('I'))return 1 */\n    tag_38:\n      pop\n        /* \"contracts/task01/romanToInt.sol\":1797:1798  0 */\n      0x00\n      swap2\n        /* \"contracts/task01/romanToInt.sol\":1439:1814  function toInt(bytes1 b) internal pure  returns  (uint256 ){... */\n      swap1\n      pop\n      jump\t// out\n        /* \"#utility.yul\":14:601   */\n    tag_6:\n        /* \"#utility.yul\":85:91   */\n      0x00\n        /* \"#utility.yul\":93:99   */\n      0x00\n        /* \"#utility.yul\":146:148   */\n      0x20\n        /* \"#utility.yul\":134:143   */\n      dup4\n        /* \"#utility.yul\":125:132   */\n      dup6\n        /* \"#utility.yul\":121:144   */\n      sub\n        /* \"#utility.yul\":117:149   */\n      slt\n        /* \"#utility.yul\":114:166   */\n      iszero\n      tag_42\n      jumpi\n        /* \"#utility.yul\":162:163   */\n      0x00\n        /* \"#utility.yul\":159:160   */\n      0x00\n        /* \"#utility.yul\":152:164   */\n      revert\n        /* \"#utility.yul\":114:166   */\n    tag_42:\n        /* \"#utility.yul\":202:211   */\n      dup3\n        /* \"#utility.yul\":189:212   */\n      calldataload\n        /* \"#utility.yul\":235:253   */\n      0xffffffffffffffff\n        /* \"#utility.yul\":227:233   */\n      dup2\n        /* \"#utility.yul\":224:254   */\n      gt\n        /* \"#utility.yul\":221:271   */\n      iszero\n      tag_43\n      jumpi\n        /* \"#utility.yul\":267:268   */\n      0x00\n        /* \"#utility.yul\":264:265   */\n      0x00\n        /* \"#utility.yul\":257:269   */\n      revert\n        /* \"#utility.yul\":221:271   */\n    tag_43:\n        /* \"#utility.yul\":290:312   */\n      dup4\n      add\n        /* \"#utility.yul\":343:347   */\n      0x1f\n        /* \"#utility.yul\":335:348   */\n      dup2\n      add\n        /* \"#utility.yul\":331:358   */\n      dup6\n      sgt\n        /* \"#utility.yul\":321:376   */\n      tag_44\n      jumpi\n        /* \"#utility.yul\":372:373   */\n      0x00\n        /* \"#utility.yul\":369:370   */\n      0x00\n        /* \"#utility.yul\":362:374   */\n      revert\n        /* \"#utility.yul\":321:376   */\n    tag_44:\n        /* \"#utility.yul\":412:414   */\n      dup1\n        /* \"#utility.yul\":399:415   */\n      calldataload\n        /* \"#utility.yul\":438:456   */\n      0xffffffffffffffff\n        /* \"#utility.yul\":430:436   */\n      dup2\n        /* \"#utility.yul\":427:457   */\n      gt\n        /* \"#utility.yul\":424:474   */\n      iszero\n      tag_45\n      jumpi\n        /* \"#utility.yul\":470:471   */\n      0x00\n        /* \"#utility.yul\":467:468   */\n      0x00\n        /* \"#utility.yul\":460:472   */\n      revert\n        /* \"#utility.yul\":424:474   */\n    tag_45:\n        /* \"#utility.yul\":515:522   */\n      dup6\n        /* \"#utility.yul\":510:512   */\n      0x20\n        /* \"#utility.yul\":501:507   */\n      dup3\n        /* \"#utility.yul\":497:499   */\n      dup5\n        /* \"#utility.yul\":493:508   */\n      add\n        /* \"#utility.yul\":489:513   */\n      add\n        /* \"#utility.yul\":486:523   */\n      gt\n        /* \"#utility.yul\":483:540   */\n      iszero\n      tag_46\n      jumpi\n        /* \"#utility.yul\":536:537   */\n      0x00\n        /* \"#utility.yul\":533:534   */\n      0x00\n        /* \"#utility.yul\":526:538   */\n      revert\n        /* \"#utility.yul\":483:540   */\n    tag_46:\n        /* \"#utility.yul\":567:569   */\n      0x20\n        /* \"#utility.yul\":559:570   */\n      swap2\n      swap1\n      swap2\n      add\n      swap6\n        /* \"#utility.yul\":589:595   */\n      swap1\n      swap5\n      pop\n        /* \"#utility.yul\":14:601   */\n      swap3\n      pop\n      pop\n      pop\n      jump\t// out\n        /* \"#utility.yul\":788:915   */\n    tag_17:\n        /* \"#utility.yul\":849:859   */\n      0x4e487b71\n        /* \"#utility.yul\":844:847   */\n      0xe0\n        /* \"#utility.yul\":840:860   */\n      shl\n        /* \"#utility.yul\":837:838   */\n      0x00\n        /* \"#utility.yul\":830:861   */\n      mstore\n        /* \"#utility.yul\":880:884   */\n      0x32\n        /* \"#utility.yul\":877:878   */\n      0x04\n        /* \"#utility.yul\":870:885   */\n      mstore\n        /* \"#utility.yul\":904:908   */\n      0x24\n        /* \"#utility.yul\":901:902   */\n      0x00\n        /* \"#utility.yul\":894:909   */\n      revert\n        /* \"#utility.yul\":920:1047   */\n    tag_39:\n        /* \"#utility.yul\":981:991   */\n      0x4e487b71\n        /* \"#utility.yul\":976:979   */\n      0xe0\n        /* \"#utility.yul\":972:992   */\n      shl\n        /* \"#utility.yul\":969:970   */\n      0x00\n        /* \"#utility.yul\":962:993   */\n      mstore\n        /* \"#utility.yul\":1012:1016   */\n      0x11\n        /* \"#utility.yul\":1009:1010   */\n      0x04\n        /* \"#utility.yul\":1002:1017   */\n      mstore\n        /* \"#utility.yul\":1036:1040   */\n      0x24\n        /* \"#utility.yul\":1033:1034   */\n      0x00\n        /* \"#utility.yul\":1026:1041   */\n      revert\n        /* \"#utility.yul\":1052:1180   */\n    tag_20:\n        /* \"#utility.yul\":1119:1128   */\n      dup2\n      dup2\n      sub\n        /* \"#utility.yul\":1140:1151   */\n      dup2\n      dup2\n      gt\n        /* \"#utility.yul\":1137:1174   */\n      iszero\n      tag_10\n      jumpi\n        /* \"#utility.yul\":1154:1172   */\n      tag_10\n      tag_39\n      jump\t// in\n        /* \"#utility.yul\":1185:1310   */\n    tag_24:\n        /* \"#utility.yul\":1250:1259   */\n      dup1\n      dup3\n      add\n        /* \"#utility.yul\":1271:1281   */\n      dup1\n      dup3\n      gt\n        /* \"#utility.yul\":1268:1304   */\n      iszero\n      tag_10\n      jumpi\n        /* \"#utility.yul\":1284:1302   */\n      tag_10\n      tag_39\n      jump\t// in\n\n    auxdata: 0xa2646970667358221220e426d0257fd96d89d8ee28a9a05a7730430ee5d07b094d3227b7976f47a5434f64736f6c634300081f0033\n}\n",
				"bytecode": {
					"linkReferences": {},
					"object": "6080604052348015600e575f5ffd5b506102fc8061001c5f395ff3fe608060405234801561000f575f5ffd5b5060043610610029575f3560e01c8063844ec49b1461002d575b5f5ffd5b61004061003b36600461020a565b610052565b60405190815260200160405180910390f35b5f5f83838080601f0160208091040260200160405190810160405280939291908181526020018383808284375f920182905250845194955092508291508190505b83811015610127576100c48582815181106100b0576100b0610278565b01602001516001600160f81b031916610135565b91506100d16001856102a0565b811080156100fc57506100f9856100e98360016102b3565b815181106100b0576100b0610278565b82105b156101125761010b82846102a0565b925061011f565b61011c82846102b3565b92505b600101610093565b509093505050505b92915050565b5f60b360f81b6001600160f81b031983160161015457506103e8919050565b602f60fa1b6001600160f81b031983160161017257506101f4919050565b60bd60f81b6001600160f81b031983160161018f57506064919050565b602d60fa1b6001600160f81b03198316016101ac57506032919050565b601560fb1b6001600160f81b03198316016101c95750600a919050565b605560f91b6001600160f81b03198316016101e657506005919050565b60b760f81b6001600160f81b031983160161020357506001919050565b505f919050565b5f5f6020838503121561021b575f5ffd5b823567ffffffffffffffff811115610231575f5ffd5b8301601f81018513610241575f5ffd5b803567ffffffffffffffff811115610257575f5ffd5b856020828401011115610268575f5ffd5b6020919091019590945092505050565b634e487b7160e01b5f52603260045260245ffd5b634e487b7160e01b5f52601160045260245ffd5b8181038181111561012f5761012f61028c565b8082018082111561012f5761012f61028c56fea2646970667358221220e426d0257fd96d89d8ee28a9a05a7730430ee5d07b094d3227b7976f47a5434f64736f6c634300081f0033",
					"opcodes": "PUSH1 0x80 PUSH1 0x40 MSTORE CALLVALUE DUP1 ISZERO PUSH1 0xE JUMPI PUSH0 PUSH0 REVERT JUMPDEST POP PUSH2 0x2FC DUP1 PUSH2 0x1C PUSH0 CODECOPY PUSH0 RETURN INVALID PUSH1 0x80 PUSH1 0x40 MSTORE CALLVALUE DUP1 ISZERO PUSH2 0xF JUMPI PUSH0 PUSH0 REVERT JUMPDEST POP PUSH1 0x4 CALLDATASIZE LT PUSH2 0x29 JUMPI PUSH0 CALLDATALOAD PUSH1 0xE0 SHR DUP1 PUSH4 0x844EC49B EQ PUSH2 0x2D JUMPI JUMPDEST PUSH0 PUSH0 REVERT JUMPDEST PUSH2 0x40 PUSH2 0x3B CALLDATASIZE PUSH1 0x4 PUSH2 0x20A JUMP JUMPDEST PUSH2 0x52 JUMP JUMPDEST PUSH1 0x40 MLOAD SWAP1 DUP2 MSTORE PUSH1 0x20 ADD PUSH1 0x40 MLOAD DUP1 SWAP2 SUB SWAP1 RETURN JUMPDEST PUSH0 PUSH0 DUP4 DUP4 DUP1 DUP1 PUSH1 0x1F ADD PUSH1 0x20 DUP1 SWAP2 DIV MUL PUSH1 0x20 ADD PUSH1 0x40 MLOAD SWAP1 DUP2 ADD PUSH1 0x40 MSTORE DUP1 SWAP4 SWAP3 SWAP2 SWAP1 DUP2 DUP2 MSTORE PUSH1 0x20 ADD DUP4 DUP4 DUP1 DUP3 DUP5 CALLDATACOPY PUSH0 SWAP3 ADD DUP3 SWAP1 MSTORE POP DUP5 MLOAD SWAP5 SWAP6 POP SWAP3 POP DUP3 SWAP2 POP DUP2 SWAP1 POP JUMPDEST DUP4 DUP2 LT ISZERO PUSH2 0x127 JUMPI PUSH2 0xC4 DUP6 DUP3 DUP2 MLOAD DUP2 LT PUSH2 0xB0 JUMPI PUSH2 0xB0 PUSH2 0x278 JUMP JUMPDEST ADD PUSH1 0x20 ADD MLOAD PUSH1 0x1 PUSH1 0x1 PUSH1 0xF8 SHL SUB NOT AND PUSH2 0x135 JUMP JUMPDEST SWAP2 POP PUSH2 0xD1 PUSH1 0x1 DUP6 PUSH2 0x2A0 JUMP JUMPDEST DUP2 LT DUP1 ISZERO PUSH2 0xFC JUMPI POP PUSH2 0xF9 DUP6 PUSH2 0xE9 DUP4 PUSH1 0x1 PUSH2 0x2B3 JUMP JUMPDEST DUP2 MLOAD DUP2 LT PUSH2 0xB0 JUMPI PUSH2 0xB0 PUSH2 0x278 JUMP JUMPDEST DUP3 LT JUMPDEST ISZERO PUSH2 0x112 JUMPI PUSH2 0x10B DUP3 DUP5 PUSH2 0x2A0 JUMP JUMPDEST SWAP3 POP PUSH2 0x11F JUMP JUMPDEST PUSH2 0x11C DUP3 DUP5 PUSH2 0x2B3 JUMP JUMPDEST SWAP3 POP JUMPDEST PUSH1 0x1 ADD PUSH2 0x93 JUMP JUMPDEST POP SWAP1 SWAP4 POP POP POP POP JUMPDEST SWAP3 SWAP2 POP POP JUMP JUMPDEST PUSH0 PUSH1 0xB3 PUSH1 0xF8 SHL PUSH1 0x1 PUSH1 0x1 PUSH1 0xF8 SHL SUB NOT DUP4 AND ADD PUSH2 0x154 JUMPI POP PUSH2 0x3E8 SWAP2 SWAP1 POP JUMP JUMPDEST PUSH1 0x2F PUSH1 0xFA SHL PUSH1 0x1 PUSH1 0x1 PUSH1 0xF8 SHL SUB NOT DUP4 AND ADD PUSH2 0x172 JUMPI POP PUSH2 0x1F4 SWAP2 SWAP1 POP JUMP JUMPDEST PUSH1 0xBD PUSH1 0xF8 SHL PUSH1 0x1 PUSH1 0x1 PUSH1 0xF8 SHL SUB NOT DUP4 AND ADD PUSH2 0x18F JUMPI POP PUSH1 0x64 SWAP2 SWAP1 POP JUMP JUMPDEST PUSH1 0x2D PUSH1 0xFA SHL PUSH1 0x1 PUSH1 0x1 PUSH1 0xF8 SHL SUB NOT DUP4 AND ADD PUSH2 0x1AC JUMPI POP PUSH1 0x32 SWAP2 SWAP1 POP JUMP JUMPDEST PUSH1 0x15 PUSH1 0xFB SHL PUSH1 0x1 PUSH1 0x1 PUSH1 0xF8 SHL SUB NOT DUP4 AND ADD PUSH2 0x1C9 JUMPI POP PUSH1 0xA SWAP2 SWAP1 POP JUMP JUMPDEST PUSH1 0x55 PUSH1 0xF9 SHL PUSH1 0x1 PUSH1 0x1 PUSH1 0xF8 SHL SUB NOT DUP4 AND ADD PUSH2 0x1E6 JUMPI POP PUSH1 0x5 SWAP2 SWAP1 POP JUMP JUMPDEST PUSH1 0xB7 PUSH1 0xF8 SHL PUSH1 0x1 PUSH1 0x1 PUSH1 0xF8 SHL SUB NOT DUP4 AND ADD PUSH2 0x203 JUMPI POP PUSH1 0x1 SWAP2 SWAP1 POP JUMP JUMPDEST POP PUSH0 SWAP2 SWAP1 POP JUMP JUMPDEST PUSH0 PUSH0 PUSH1 0x20 DUP4 DUP6 SUB SLT ISZERO PUSH2 0x21B JUMPI PUSH0 PUSH0 REVERT JUMPDEST DUP3 CALLDATALOAD PUSH8 0xFFFFFFFFFFFFFFFF DUP2 GT ISZERO PUSH2 0x231 JUMPI PUSH0 PUSH0 REVERT JUMPDEST DUP4 ADD PUSH1 0x1F DUP2 ADD DUP6 SGT PUSH2 0x241 JUMPI PUSH0 PUSH0 REVERT JUMPDEST DUP1 CALLDATALOAD PUSH8 0xFFFFFFFFFFFFFFFF DUP2 GT ISZERO PUSH2 0x257 JUMPI PUSH0 PUSH0 REVERT JUMPDEST DUP6 PUSH1 0x20 DUP3 DUP5 ADD ADD GT ISZERO PUSH2 0x268 JUMPI PUSH0 PUSH0 REVERT JUMPDEST PUSH1 0x20 SWAP2 SWAP1 SWAP2 ADD SWAP6 SWAP1 SWAP5 POP SWAP3 POP POP POP JUMP JUMPDEST PUSH4 0x4E487B71 PUSH1 0xE0 SHL PUSH0 MSTORE PUSH1 0x32 PUSH1 0x4 MSTORE PUSH1 0x24 PUSH0 REVERT JUMPDEST PUSH4 0x4E487B71 PUSH1 0xE0 SHL PUSH0 MSTORE PUSH1 0x11 PUSH1 0x4 MSTORE PUSH1 0x24 PUSH0 REVERT JUMPDEST DUP2 DUP2 SUB DUP2 DUP2 GT ISZERO PUSH2 0x12F JUMPI PUSH2 0x12F PUSH2 0x28C JUMP JUMPDEST DUP1 DUP3 ADD DUP1 DUP3 GT ISZERO PUSH2 0x12F JUMPI PUSH2 0x12F PUSH2 0x28C JUMP INVALID LOG2 PUSH5 0x6970667358 0x22 SLT KECCAK256 RETF 0x26 0xD0 0x25 PUSH32 0xD96D89D8EE28A9A05A7730430EE5D07B094D3227B7976F47A5434F64736F6C63 NUMBER STOP ADDMOD 0x1F STOP CALLER "
				},
				"gasEstimates": {
					"creation": {
						"codeDepositCost": "152800",
						"executionCost": "194",
						"totalCost": "152994"
					},
					"external": {
						"rToInt(string)": "infinite"
					},
					"internal": {
						"toInt(bytes1)": "373"
					}
				},
				"methodIdentifiers": {
					"rToInt(string)": "844ec49b"
				}
			},
			"storageLayout": {
				"storage": [],
				"types": null
			},
			"userdoc": {
				"kind": "user",
				"methods": {},
				"version": 1
			}
		}
	}
}