{
	"contracts/task01/search.sol": {
		"search": {
			"abi": [
				{
					"inputs": [
						{
							"internalType": "int256[]",
							"name": "arr",
							"type": "int256[]"
						},
						{
							"internalType": "int256",
							"name": "num",
							"type": "int256"
						}
					],
					"name": "binarySearch",
					"outputs": [
						{
							"internalType": "int256",
							"name": "",
							"type": "int256"
						}
					],
					"stateMutability": "pure",
					"type": "function"
				}
			],
			"devdoc": {
				"kind": "dev",
				"methods": {},
				"version": 1
			},
			"evm": {
				"assembly": "    /* \"contracts/task01/search.sol\":96:1091  contract search{... */\n  mstore(0x40, 0x80)\n  callvalue\n  dup1\n  iszero\n  tag_1\n  jumpi\n  revert(0x00, 0x00)\ntag_1:\n  pop\n  dataSize(sub_0)\n  dup1\n  dataOffset(sub_0)\n  0x00\n  codecopy\n  0x00\n  return\nstop\n\nsub_0: assembly {\n        /* \"contracts/task01/search.sol\":96:1091  contract search{... */\n      mstore(0x40, 0x80)\n      callvalue\n      dup1\n      iszero\n      tag_1\n      jumpi\n      revert(0x00, 0x00)\n    tag_1:\n      pop\n      jumpi(tag_2, lt(calldatasize, 0x04))\n      shr(0xe0, calldataload(0x00))\n      dup1\n      0xf4353706\n      eq\n      tag_3\n      jumpi\n    tag_2:\n      revert(0x00, 0x00)\n        /* \"contracts/task01/search.sol\":117:1089  function  binarySearch(int[] memory  arr,int256  num)public pure returns (int256){... */\n    tag_3:\n      tag_4\n      tag_5\n      calldatasize\n      0x04\n      tag_6\n      jump\t// in\n    tag_5:\n      tag_7\n      jump\t// in\n    tag_4:\n      mload(0x40)\n        /* \"#utility.yul\":1600:1625   */\n      swap1\n      dup2\n      mstore\n        /* \"#utility.yul\":1588:1590   */\n      0x20\n        /* \"#utility.yul\":1573:1591   */\n      add\n        /* \"contracts/task01/search.sol\":117:1089  function  binarySearch(int[] memory  arr,int256  num)public pure returns (int256){... */\n      mload(0x40)\n      dup1\n      swap2\n      sub\n      swap1\n      return\n    tag_7:\n        /* \"contracts/task01/search.sol\":285:296  arr1.length */\n      dup2\n      mload\n        /* \"contracts/task01/search.sol\":191:197  int256 */\n      0x00\n      swap1\n      dup2\n      swap1\n        /* \"contracts/task01/search.sol\":258:261  arr */\n      dup5\n      swap1\n        /* \"contracts/task01/search.sol\":310:317  len1==0 */\n      dup1\n      dup4\n      sub\n        /* \"contracts/task01/search.sol\":306:327  if (len1==0)return -1 */\n      tag_11\n      jumpi\n      not(0x00)\n        /* \"contracts/task01/search.sol\":318:327  return -1 */\n      swap4\n      pop\n      pop\n      pop\n      pop\n      jump(tag_10)\n        /* \"contracts/task01/search.sol\":306:327  if (len1==0)return -1 */\n    tag_11:\n        /* \"contracts/task01/search.sol\":337:358  uint256 rightInterval */\n      0x00\n        /* \"contracts/task01/search.sol\":361:367  len1-1 */\n      tag_12\n        /* \"contracts/task01/search.sol\":366:367  1 */\n      0x01\n        /* \"contracts/task01/search.sol\":361:365  len1 */\n      dup4\n        /* \"contracts/task01/search.sol\":361:367  len1-1 */\n      tag_13\n      jump\t// in\n    tag_12:\n        /* \"contracts/task01/search.sol\":337:367  uint256 rightInterval = len1-1 */\n      swap1\n      pop\n        /* \"contracts/task01/search.sol\":395:398  num */\n      dup6\n        /* \"contracts/task01/search.sol\":377:393  int256 targetNum */\n      0x00\n        /* \"contracts/task01/search.sol\":420:426  len1/2 */\n      tag_14\n        /* \"contracts/task01/search.sol\":425:426  2 */\n      0x02\n        /* \"contracts/task01/search.sol\":420:424  len1 */\n      dup6\n        /* \"contracts/task01/search.sol\":420:426  len1/2 */\n      tag_15\n      jump\t// in\n    tag_14:\n        /* \"contracts/task01/search.sol\":408:426  uint count =len1/2 */\n      swap1\n      pop\n        /* \"contracts/task01/search.sol\":440:444  len1 */\n      dup4\n        /* \"contracts/task01/search.sol\":446:447  1 */\n      0x01\n        /* \"contracts/task01/search.sol\":440:447  len1==1 */\n      eq\n        /* \"contracts/task01/search.sol\":440:469  len1==1 && targetNum==arr1[0] */\n      dup1\n      iszero\n      tag_16\n      jumpi\n      pop\n        /* \"contracts/task01/search.sol\":462:466  arr1 */\n      dup5\n        /* \"contracts/task01/search.sol\":467:468  0 */\n      0x00\n        /* \"contracts/task01/search.sol\":462:469  arr1[0] */\n      dup2\n      mload\n      dup2\n      lt\n      tag_18\n      jumpi\n      tag_18\n      tag_19\n      jump\t// in\n    tag_18:\n      0x20\n      mul\n      0x20\n      add\n      add\n      mload\n        /* \"contracts/task01/search.sol\":451:460  targetNum */\n      dup3\n        /* \"contracts/task01/search.sol\":451:469  targetNum==arr1[0] */\n      eq\n        /* \"contracts/task01/search.sol\":440:469  len1==1 && targetNum==arr1[0] */\n    tag_16:\n        /* \"contracts/task01/search.sol\":436:478  if (len1==1 && targetNum==arr1[0])return 0 */\n      iszero\n      tag_20\n      jumpi\n        /* \"contracts/task01/search.sol\":477:478  0 */\n      0x00\n        /* \"contracts/task01/search.sol\":470:478  return 0 */\n      swap7\n      pop\n      pop\n      pop\n      pop\n      pop\n      pop\n      pop\n      jump(tag_10)\n        /* \"contracts/task01/search.sol\":436:478  if (len1==1 && targetNum==arr1[0])return 0 */\n    tag_20:\n        /* \"contracts/task01/search.sol\":492:498  uint i */\n      0x00\n        /* \"contracts/task01/search.sol\":488:1062  for(uint i;i<count;i++){... */\n    tag_21:\n        /* \"contracts/task01/search.sol\":501:506  count */\n      dup2\n        /* \"contracts/task01/search.sol\":499:500  i */\n      dup2\n        /* \"contracts/task01/search.sol\":499:506  i<count */\n      lt\n        /* \"contracts/task01/search.sol\":488:1062  for(uint i;i<count;i++){... */\n      iszero\n      tag_22\n      jumpi\n        /* \"contracts/task01/search.sol\":544:548  arr1 */\n      dup6\n        /* \"contracts/task01/search.sol\":549:561  leftInterval */\n      dup8\n        /* \"contracts/task01/search.sol\":544:562  arr1[leftInterval] */\n      dup2\n      mload\n      dup2\n      lt\n      tag_25\n      jumpi\n      tag_25\n      tag_19\n      jump\t// in\n    tag_25:\n      0x20\n      mul\n      0x20\n      add\n      add\n      mload\n        /* \"contracts/task01/search.sol\":533:542  targetNum */\n      dup4\n        /* \"contracts/task01/search.sol\":533:562  targetNum==arr1[leftInterval] */\n      sub\n        /* \"contracts/task01/search.sol\":529:587  if (targetNum==arr1[leftInterval])return int(leftInterval) */\n      tag_26\n      jumpi\n        /* \"contracts/task01/search.sol\":574:586  leftInterval */\n      dup7\n        /* \"contracts/task01/search.sol\":563:587  return int(leftInterval) */\n      swap8\n      pop\n      pop\n      pop\n      pop\n      pop\n      pop\n      pop\n      pop\n      jump(tag_10)\n        /* \"contracts/task01/search.sol\":529:587  if (targetNum==arr1[leftInterval])return int(leftInterval) */\n    tag_26:\n        /* \"contracts/task01/search.sol\":620:624  arr1 */\n      dup6\n        /* \"contracts/task01/search.sol\":625:638  rightInterval */\n      dup5\n        /* \"contracts/task01/search.sol\":620:639  arr1[rightInterval] */\n      dup2\n      mload\n      dup2\n      lt\n      tag_28\n      jumpi\n      tag_28\n      tag_19\n      jump\t// in\n    tag_28:\n      0x20\n      mul\n      0x20\n      add\n      add\n      mload\n        /* \"contracts/task01/search.sol\":609:618  targetNum */\n      dup4\n        /* \"contracts/task01/search.sol\":609:639  targetNum==arr1[rightInterval] */\n      sub\n        /* \"contracts/task01/search.sol\":605:665  if (targetNum==arr1[rightInterval])return int(rightInterval) */\n      tag_29\n      jumpi\n        /* \"contracts/task01/search.sol\":651:664  rightInterval */\n      dup4\n        /* \"contracts/task01/search.sol\":640:665  return int(rightInterval) */\n      swap8\n      pop\n      pop\n      pop\n      pop\n      pop\n      pop\n      pop\n      pop\n      jump(tag_10)\n        /* \"contracts/task01/search.sol\":605:665  if (targetNum==arr1[rightInterval])return int(rightInterval) */\n    tag_29:\n        /* \"contracts/task01/search.sol\":683:703  uint256  medianIndex */\n      0x00\n        /* \"contracts/task01/search.sol\":733:734  2 */\n      0x02\n        /* \"contracts/task01/search.sol\":705:731  leftInterval+rightInterval */\n      tag_30\n        /* \"contracts/task01/search.sol\":718:731  rightInterval */\n      dup7\n        /* \"contracts/task01/search.sol\":705:717  leftInterval */\n      dup11\n        /* \"contracts/task01/search.sol\":705:731  leftInterval+rightInterval */\n      tag_31\n      jump\t// in\n    tag_30:\n        /* \"contracts/task01/search.sol\":704:734  (leftInterval+rightInterval)/2 */\n      tag_32\n      swap2\n      swap1\n      tag_15\n      jump\t// in\n    tag_32:\n        /* \"contracts/task01/search.sol\":683:734  uint256  medianIndex=(leftInterval+rightInterval)/2 */\n      swap1\n      pop\n        /* \"contracts/task01/search.sol\":752:766  int256  median */\n      0x00\n        /* \"contracts/task01/search.sol\":767:771  arr1 */\n      dup8\n        /* \"contracts/task01/search.sol\":772:783  medianIndex */\n      dup3\n        /* \"contracts/task01/search.sol\":767:784  arr1[medianIndex] */\n      dup2\n      mload\n      dup2\n      lt\n      tag_34\n      jumpi\n      tag_34\n      tag_19\n      jump\t// in\n    tag_34:\n      0x20\n      mul\n      0x20\n      add\n      add\n      mload\n        /* \"contracts/task01/search.sol\":752:784  int256  median=arr1[medianIndex] */\n      swap1\n      pop\n        /* \"contracts/task01/search.sol\":816:822  median */\n      dup1\n        /* \"contracts/task01/search.sol\":806:815  targetNum */\n      dup6\n        /* \"contracts/task01/search.sol\":806:822  targetNum>median */\n      sgt\n        /* \"contracts/task01/search.sol\":802:1048  if (targetNum>median){... */\n      iszero\n      tag_35\n      jumpi\n        /* \"contracts/task01/search.sol\":858:869  medianIndex */\n      dup2\n        /* \"contracts/task01/search.sol\":845:869  leftInterval=medianIndex */\n      swap9\n      pop\n        /* \"contracts/task01/search.sol\":802:1048  if (targetNum>median){... */\n      jump(tag_38)\n    tag_35:\n        /* \"contracts/task01/search.sol\":907:913  median */\n      dup1\n        /* \"contracts/task01/search.sol\":897:906  targetNum */\n      dup6\n        /* \"contracts/task01/search.sol\":897:913  targetNum<median */\n      slt\n        /* \"contracts/task01/search.sol\":893:1048  if (targetNum<median){... */\n      iszero\n      tag_37\n      jumpi\n        /* \"contracts/task01/search.sol\":950:961  medianIndex */\n      dup2\n        /* \"contracts/task01/search.sol\":936:961  rightInterval=medianIndex */\n      swap6\n      pop\n        /* \"contracts/task01/search.sol\":893:1048  if (targetNum<median){... */\n      jump(tag_38)\n    tag_37:\n      pop\n        /* \"contracts/task01/search.sol\":1017:1028  medianIndex */\n      swap8\n      pop\n        /* \"contracts/task01/search.sol\":1006:1029  return int(medianIndex) */\n      tag_10\n      swap7\n      pop\n      pop\n      pop\n      pop\n      pop\n      pop\n      pop\n      jump\n        /* \"contracts/task01/search.sol\":893:1048  if (targetNum<median){... */\n    tag_38:\n      pop\n      pop\n        /* \"contracts/task01/search.sol\":507:510  i++ */\n      0x01\n      add\n        /* \"contracts/task01/search.sol\":488:1062  for(uint i;i<count;i++){... */\n      jump(tag_21)\n    tag_22:\n      pop\n      not(0x00)\n        /* \"contracts/task01/search.sol\":1073:1082  return -1 */\n      swap7\n      pop\n      pop\n      pop\n      pop\n      pop\n      pop\n      pop\n        /* \"contracts/task01/search.sol\":117:1089  function  binarySearch(int[] memory  arr,int256  num)public pure returns (int256){... */\n    tag_10:\n      swap3\n      swap2\n      pop\n      pop\n      jump\t// out\n        /* \"#utility.yul\":14:141   */\n    tag_39:\n        /* \"#utility.yul\":75:85   */\n      0x4e487b71\n        /* \"#utility.yul\":70:73   */\n      0xe0\n        /* \"#utility.yul\":66:86   */\n      shl\n        /* \"#utility.yul\":63:64   */\n      0x00\n        /* \"#utility.yul\":56:87   */\n      mstore\n        /* \"#utility.yul\":106:110   */\n      0x41\n        /* \"#utility.yul\":103:104   */\n      0x04\n        /* \"#utility.yul\":96:111   */\n      mstore\n        /* \"#utility.yul\":130:134   */\n      0x24\n        /* \"#utility.yul\":127:128   */\n      0x00\n        /* \"#utility.yul\":120:135   */\n      revert\n        /* \"#utility.yul\":146:1451   */\n    tag_6:\n        /* \"#utility.yul\":237:243   */\n      0x00\n        /* \"#utility.yul\":245:251   */\n      0x00\n        /* \"#utility.yul\":298:300   */\n      0x40\n        /* \"#utility.yul\":286:295   */\n      dup4\n        /* \"#utility.yul\":277:284   */\n      dup6\n        /* \"#utility.yul\":273:296   */\n      sub\n        /* \"#utility.yul\":269:301   */\n      slt\n        /* \"#utility.yul\":266:318   */\n      iszero\n      tag_44\n      jumpi\n        /* \"#utility.yul\":314:315   */\n      0x00\n        /* \"#utility.yul\":311:312   */\n      0x00\n        /* \"#utility.yul\":304:316   */\n      revert\n        /* \"#utility.yul\":266:318   */\n    tag_44:\n        /* \"#utility.yul\":354:363   */\n      dup3\n        /* \"#utility.yul\":341:364   */\n      calldataload\n        /* \"#utility.yul\":387:405   */\n      0xffffffffffffffff\n        /* \"#utility.yul\":379:385   */\n      dup2\n        /* \"#utility.yul\":376:406   */\n      gt\n        /* \"#utility.yul\":373:423   */\n      iszero\n      tag_45\n      jumpi\n        /* \"#utility.yul\":419:420   */\n      0x00\n        /* \"#utility.yul\":416:417   */\n      0x00\n        /* \"#utility.yul\":409:421   */\n      revert\n        /* \"#utility.yul\":373:423   */\n    tag_45:\n        /* \"#utility.yul\":442:464   */\n      dup4\n      add\n        /* \"#utility.yul\":495:499   */\n      0x1f\n        /* \"#utility.yul\":487:500   */\n      dup2\n      add\n        /* \"#utility.yul\":483:510   */\n      dup6\n      sgt\n        /* \"#utility.yul\":473:528   */\n      tag_46\n      jumpi\n        /* \"#utility.yul\":524:525   */\n      0x00\n        /* \"#utility.yul\":521:522   */\n      0x00\n        /* \"#utility.yul\":514:526   */\n      revert\n        /* \"#utility.yul\":473:528   */\n    tag_46:\n        /* \"#utility.yul\":564:566   */\n      dup1\n        /* \"#utility.yul\":551:567   */\n      calldataload\n        /* \"#utility.yul\":590:608   */\n      0xffffffffffffffff\n        /* \"#utility.yul\":582:588   */\n      dup2\n        /* \"#utility.yul\":579:609   */\n      gt\n        /* \"#utility.yul\":576:632   */\n      iszero\n      tag_48\n      jumpi\n        /* \"#utility.yul\":612:630   */\n      tag_48\n      tag_39\n      jump\t// in\n    tag_48:\n        /* \"#utility.yul\":658:664   */\n      dup1\n        /* \"#utility.yul\":655:656   */\n      0x05\n        /* \"#utility.yul\":651:665   */\n      shl\n        /* \"#utility.yul\":694:696   */\n      0x40\n        /* \"#utility.yul\":688:697   */\n      mload\n        /* \"#utility.yul\":757:759   */\n      0x1f\n        /* \"#utility.yul\":753:760   */\n      not\n        /* \"#utility.yul\":748:750   */\n      0x3f\n        /* \"#utility.yul\":744:746   */\n      dup4\n        /* \"#utility.yul\":740:751   */\n      add\n        /* \"#utility.yul\":736:761   */\n      and\n        /* \"#utility.yul\":728:734   */\n      dup2\n        /* \"#utility.yul\":724:762   */\n      add\n        /* \"#utility.yul\":828:834   */\n      dup2\n        /* \"#utility.yul\":816:826   */\n      dup2\n        /* \"#utility.yul\":813:835   */\n      lt\n        /* \"#utility.yul\":792:810   */\n      0xffffffffffffffff\n        /* \"#utility.yul\":780:790   */\n      dup3\n        /* \"#utility.yul\":777:811   */\n      gt\n        /* \"#utility.yul\":774:836   */\n      or\n        /* \"#utility.yul\":771:859   */\n      iszero\n      tag_50\n      jumpi\n        /* \"#utility.yul\":839:857   */\n      tag_50\n      tag_39\n      jump\t// in\n    tag_50:\n        /* \"#utility.yul\":875:877   */\n      0x40\n        /* \"#utility.yul\":868:890   */\n      mstore\n        /* \"#utility.yul\":925:947   */\n      swap2\n      dup3\n      mstore\n        /* \"#utility.yul\":975:979   */\n      0x20\n        /* \"#utility.yul\":1007:1018   */\n      dup2\n      dup5\n      add\n        /* \"#utility.yul\":1003:1025   */\n      dup2\n      add\n      swap3\n        /* \"#utility.yul\":925:947   */\n      swap1\n        /* \"#utility.yul\":963:980   */\n      dup2\n      add\n        /* \"#utility.yul\":1037:1056   */\n      dup9\n      dup5\n      gt\n        /* \"#utility.yul\":1034:1073   */\n      iszero\n      tag_51\n      jumpi\n        /* \"#utility.yul\":1069:1070   */\n      0x00\n        /* \"#utility.yul\":1066:1067   */\n      0x00\n        /* \"#utility.yul\":1059:1071   */\n      revert\n        /* \"#utility.yul\":1034:1073   */\n    tag_51:\n        /* \"#utility.yul\":1101:1105   */\n      0x20\n        /* \"#utility.yul\":1097:1099   */\n      dup6\n        /* \"#utility.yul\":1093:1106   */\n      add\n        /* \"#utility.yul\":1082:1106   */\n      swap5\n      pop\n        /* \"#utility.yul\":1115:1315   */\n    tag_52:\n        /* \"#utility.yul\":1131:1137   */\n      dup4\n        /* \"#utility.yul\":1126:1129   */\n      dup6\n        /* \"#utility.yul\":1123:1138   */\n      lt\n        /* \"#utility.yul\":1115:1315   */\n      iszero\n      tag_54\n      jumpi\n        /* \"#utility.yul\":1223:1240   */\n      dup5\n      calldataload\n        /* \"#utility.yul\":1253:1271   */\n      dup1\n      dup3\n      mstore\n        /* \"#utility.yul\":1300:1304   */\n      0x20\n        /* \"#utility.yul\":1148:1162   */\n      swap6\n      dup7\n      add\n      swap6\n        /* \"#utility.yul\":1223:1240   */\n      swap1\n      swap4\n      pop\n        /* \"#utility.yul\":1291:1305   */\n      add\n        /* \"#utility.yul\":1115:1315   */\n      jump(tag_52)\n    tag_54:\n      pop\n        /* \"#utility.yul\":1334:1340   */\n      swap8\n        /* \"#utility.yul\":1413:1417   */\n      0x20\n        /* \"#utility.yul\":1398:1418   */\n      swap7\n      swap1\n      swap7\n      add\n        /* \"#utility.yul\":1385:1419   */\n      calldataload\n      swap7\n      pop\n      pop\n      pop\n      pop\n      pop\n      pop\n        /* \"#utility.yul\":146:1451   */\n      jump\t// out\n        /* \"#utility.yul\":1636:1763   */\n    tag_40:\n        /* \"#utility.yul\":1697:1707   */\n      0x4e487b71\n        /* \"#utility.yul\":1692:1695   */\n      0xe0\n        /* \"#utility.yul\":1688:1708   */\n      shl\n        /* \"#utility.yul\":1685:1686   */\n      0x00\n        /* \"#utility.yul\":1678:1709   */\n      mstore\n        /* \"#utility.yul\":1728:1732   */\n      0x11\n        /* \"#utility.yul\":1725:1726   */\n      0x04\n        /* \"#utility.yul\":1718:1733   */\n      mstore\n        /* \"#utility.yul\":1752:1756   */\n      0x24\n        /* \"#utility.yul\":1749:1750   */\n      0x00\n        /* \"#utility.yul\":1742:1757   */\n      revert\n        /* \"#utility.yul\":1768:1896   */\n    tag_13:\n        /* \"#utility.yul\":1835:1844   */\n      dup2\n      dup2\n      sub\n        /* \"#utility.yul\":1856:1867   */\n      dup2\n      dup2\n      gt\n        /* \"#utility.yul\":1853:1890   */\n      iszero\n      tag_10\n      jumpi\n        /* \"#utility.yul\":1870:1888   */\n      tag_10\n      tag_40\n      jump\t// in\n        /* \"#utility.yul\":1901:2118   */\n    tag_15:\n        /* \"#utility.yul\":1941:1942   */\n      0x00\n        /* \"#utility.yul\":1967:1968   */\n      dup3\n        /* \"#utility.yul\":1957:2089   */\n      tag_61\n      jumpi\n        /* \"#utility.yul\":2011:2021   */\n      0x4e487b71\n        /* \"#utility.yul\":2006:2009   */\n      0xe0\n        /* \"#utility.yul\":2002:2022   */\n      shl\n        /* \"#utility.yul\":1999:2000   */\n      0x00\n        /* \"#utility.yul\":1992:2023   */\n      mstore\n        /* \"#utility.yul\":2046:2050   */\n      0x12\n        /* \"#utility.yul\":2043:2044   */\n      0x04\n        /* \"#utility.yul\":2036:2051   */\n      mstore\n        /* \"#utility.yul\":2074:2078   */\n      0x24\n        /* \"#utility.yul\":2071:2072   */\n      0x00\n        /* \"#utility.yul\":2064:2079   */\n      revert\n        /* \"#utility.yul\":1957:2089   */\n    tag_61:\n      pop\n        /* \"#utility.yul\":2103:2112   */\n      div\n      swap1\n        /* \"#utility.yul\":1901:2118   */\n      jump\t// out\n        /* \"#utility.yul\":2123:2250   */\n    tag_19:\n        /* \"#utility.yul\":2184:2194   */\n      0x4e487b71\n        /* \"#utility.yul\":2179:2182   */\n      0xe0\n        /* \"#utility.yul\":2175:2195   */\n      shl\n        /* \"#utility.yul\":2172:2173   */\n      0x00\n        /* \"#utility.yul\":2165:2196   */\n      mstore\n        /* \"#utility.yul\":2215:2219   */\n      0x32\n        /* \"#utility.yul\":2212:2213   */\n      0x04\n        /* \"#utility.yul\":2205:2220   */\n      mstore\n        /* \"#utility.yul\":2239:2243   */\n      0x24\n        /* \"#utility.yul\":2236:2237   */\n      0x00\n        /* \"#utility.yul\":2229:2244   */\n      revert\n        /* \"#utility.yul\":2255:2380   */\n    tag_31:\n        /* \"#utility.yul\":2320:2329   */\n      dup1\n      dup3\n      add\n        /* \"#utility.yul\":2341:2351   */\n      dup1\n      dup3\n      gt\n        /* \"#utility.yul\":2338:2374   */\n      iszero\n      tag_10\n      jumpi\n        /* \"#utility.yul\":2354:2372   */\n      tag_10\n      tag_40\n      jump\t// in\n\n    auxdata: 0xa2646970667358221220edb7a5d60bcaaf67004da25415f2dbbb48594f0f6811802f43cea55aa630f14664736f6c634300081f0033\n}\n",
				"bytecode": {
					"linkReferences": {},
					"object": "6080604052348015600e575f5ffd5b506103368061001c5f395ff3fe608060405234801561000f575f5ffd5b5060043610610029575f3560e01c8063f43537061461002d575b5f5ffd5b61004061003b3660046101c3565b610052565b60405190815260200160405180910390f35b81515f908190849080830361006d575f1993505050506101a9565b5f6100796001836102a7565b9050855f6100886002856102ba565b90508360011480156100b25750845f815181106100a7576100a76102d9565b602002602001015182145b156100c5575f96505050505050506101a9565b5f5b8181101561019d578587815181106100e1576100e16102d9565b602002602001015183036100fe57869750505050505050506101a9565b858481518110610110576101106102d9565b6020026020010151830361012d57839750505050505050506101a9565b5f600261013a868a6102ed565b61014491906102ba565b90505f878281518110610159576101596102d9565b602002602001015190508085131561017357819850610193565b8085121561018357819550610193565b5097506101a99650505050505050565b50506001016100c7565b505f1996505050505050505b92915050565b634e487b7160e01b5f52604160045260245ffd5b5f5f604083850312156101d4575f5ffd5b823567ffffffffffffffff8111156101ea575f5ffd5b8301601f810185136101fa575f5ffd5b803567ffffffffffffffff811115610214576102146101af565b8060051b604051601f19603f830116810181811067ffffffffffffffff82111715610241576102416101af565b60405291825260208184018101929081018884111561025e575f5ffd5b6020850194505b8385101561028157843580825260209586019590935001610265565b50976020969096013596505050505050565b634e487b7160e01b5f52601160045260245ffd5b818103818111156101a9576101a9610293565b5f826102d457634e487b7160e01b5f52601260045260245ffd5b500490565b634e487b7160e01b5f52603260045260245ffd5b808201808211156101a9576101a961029356fea2646970667358221220edb7a5d60bcaaf67004da25415f2dbbb48594f0f6811802f43cea55aa630f14664736f6c634300081f0033",
					"opcodes": "PUSH1 0x80 PUSH1 0x40 MSTORE CALLVALUE DUP1 ISZERO PUSH1 0xE JUMPI PUSH0 PUSH0 REVERT JUMPDEST POP PUSH2 0x336 DUP1 PUSH2 0x1C PUSH0 CODECOPY PUSH0 RETURN INVALID PUSH1 0x80 PUSH1 0x40 MSTORE CALLVALUE DUP1 ISZERO PUSH2 0xF JUMPI PUSH0 PUSH0 REVERT JUMPDEST POP PUSH1 0x4 CALLDATASIZE LT PUSH2 0x29 JUMPI PUSH0 CALLDATALOAD PUSH1 0xE0 SHR DUP1 PUSH4 0xF4353706 EQ PUSH2 0x2D JUMPI JUMPDEST PUSH0 PUSH0 REVERT JUMPDEST PUSH2 0x40 PUSH2 0x3B CALLDATASIZE PUSH1 0x4 PUSH2 0x1C3 JUMP JUMPDEST PUSH2 0x52 JUMP JUMPDEST PUSH1 0x40 MLOAD SWAP1 DUP2 MSTORE PUSH1 0x20 ADD PUSH1 0x40 MLOAD DUP1 SWAP2 SUB SWAP1 RETURN JUMPDEST DUP2 MLOAD PUSH0 SWAP1 DUP2 SWAP1 DUP5 SWAP1 DUP1 DUP4 SUB PUSH2 0x6D JUMPI PUSH0 NOT SWAP4 POP POP POP POP PUSH2 0x1A9 JUMP JUMPDEST PUSH0 PUSH2 0x79 PUSH1 0x1 DUP4 PUSH2 0x2A7 JUMP JUMPDEST SWAP1 POP DUP6 PUSH0 PUSH2 0x88 PUSH1 0x2 DUP6 PUSH2 0x2BA JUMP JUMPDEST SWAP1 POP DUP4 PUSH1 0x1 EQ DUP1 ISZERO PUSH2 0xB2 JUMPI POP DUP5 PUSH0 DUP2 MLOAD DUP2 LT PUSH2 0xA7 JUMPI PUSH2 0xA7 PUSH2 0x2D9 JUMP JUMPDEST PUSH1 0x20 MUL PUSH1 0x20 ADD ADD MLOAD DUP3 EQ JUMPDEST ISZERO PUSH2 0xC5 JUMPI PUSH0 SWAP7 POP POP POP POP POP POP POP PUSH2 0x1A9 JUMP JUMPDEST PUSH0 JUMPDEST DUP2 DUP2 LT ISZERO PUSH2 0x19D JUMPI DUP6 DUP8 DUP2 MLOAD DUP2 LT PUSH2 0xE1 JUMPI PUSH2 0xE1 PUSH2 0x2D9 JUMP JUMPDEST PUSH1 0x20 MUL PUSH1 0x20 ADD ADD MLOAD DUP4 SUB PUSH2 0xFE JUMPI DUP7 SWAP8 POP POP POP POP POP POP POP POP PUSH2 0x1A9 JUMP JUMPDEST DUP6 DUP5 DUP2 MLOAD DUP2 LT PUSH2 0x110 JUMPI PUSH2 0x110 PUSH2 0x2D9 JUMP JUMPDEST PUSH1 0x20 MUL PUSH1 0x20 ADD ADD MLOAD DUP4 SUB PUSH2 0x12D JUMPI DUP4 SWAP8 POP POP POP POP POP POP POP POP PUSH2 0x1A9 JUMP JUMPDEST PUSH0 PUSH1 0x2 PUSH2 0x13A DUP7 DUP11 PUSH2 0x2ED JUMP JUMPDEST PUSH2 0x144 SWAP2 SWAP1 PUSH2 0x2BA JUMP JUMPDEST SWAP1 POP PUSH0 DUP8 DUP3 DUP2 MLOAD DUP2 LT PUSH2 0x159 JUMPI PUSH2 0x159 PUSH2 0x2D9 JUMP JUMPDEST PUSH1 0x20 MUL PUSH1 0x20 ADD ADD MLOAD SWAP1 POP DUP1 DUP6 SGT ISZERO PUSH2 0x173 JUMPI DUP2 SWAP9 POP PUSH2 0x193 JUMP JUMPDEST DUP1 DUP6 SLT ISZERO PUSH2 0x183 JUMPI DUP2 SWAP6 POP PUSH2 0x193 JUMP JUMPDEST POP SWAP8 POP PUSH2 0x1A9 SWAP7 POP POP POP POP POP POP POP JUMP JUMPDEST POP POP PUSH1 0x1 ADD PUSH2 0xC7 JUMP JUMPDEST POP PUSH0 NOT SWAP7 POP POP POP POP POP POP POP JUMPDEST SWAP3 SWAP2 POP POP JUMP JUMPDEST PUSH4 0x4E487B71 PUSH1 0xE0 SHL PUSH0 MSTORE PUSH1 0x41 PUSH1 0x4 MSTORE PUSH1 0x24 PUSH0 REVERT JUMPDEST PUSH0 PUSH0 PUSH1 0x40 DUP4 DUP6 SUB SLT ISZERO PUSH2 0x1D4 JUMPI PUSH0 PUSH0 REVERT JUMPDEST DUP3 CALLDATALOAD PUSH8 0xFFFFFFFFFFFFFFFF DUP2 GT ISZERO PUSH2 0x1EA JUMPI PUSH0 PUSH0 REVERT JUMPDEST DUP4 ADD PUSH1 0x1F DUP2 ADD DUP6 SGT PUSH2 0x1FA JUMPI PUSH0 PUSH0 REVERT JUMPDEST DUP1 CALLDATALOAD PUSH8 0xFFFFFFFFFFFFFFFF DUP2 GT ISZERO PUSH2 0x214 JUMPI PUSH2 0x214 PUSH2 0x1AF JUMP JUMPDEST DUP1 PUSH1 0x5 SHL PUSH1 0x40 MLOAD PUSH1 0x1F NOT PUSH1 0x3F DUP4 ADD AND DUP2 ADD DUP2 DUP2 LT PUSH8 0xFFFFFFFFFFFFFFFF DUP3 GT OR ISZERO PUSH2 0x241 JUMPI PUSH2 0x241 PUSH2 0x1AF JUMP JUMPDEST PUSH1 0x40 MSTORE SWAP2 DUP3 MSTORE PUSH1 0x20 DUP2 DUP5 ADD DUP2 ADD SWAP3 SWAP1 DUP2 ADD DUP9 DUP5 GT ISZERO PUSH2 0x25E JUMPI PUSH0 PUSH0 REVERT JUMPDEST PUSH1 0x20 DUP6 ADD SWAP5 POP JUMPDEST DUP4 DUP6 LT ISZERO PUSH2 0x281 JUMPI DUP5 CALLDATALOAD DUP1 DUP3 MSTORE PUSH1 0x20 SWAP6 DUP7 ADD SWAP6 SWAP1 SWAP4 POP ADD PUSH2 0x265 JUMP JUMPDEST POP SWAP8 PUSH1 0x20 SWAP7 SWAP1 SWAP7 ADD CALLDATALOAD SWAP7 POP POP POP POP POP POP JUMP JUMPDEST PUSH4 0x4E487B71 PUSH1 0xE0 SHL PUSH0 MSTORE PUSH1 0x11 PUSH1 0x4 MSTORE PUSH1 0x24 PUSH0 REVERT JUMPDEST DUP2 DUP2 SUB DUP2 DUP2 GT ISZERO PUSH2 0x1A9 JUMPI PUSH2 0x1A9 PUSH2 0x293 JUMP JUMPDEST PUSH0 DUP3 PUSH2 0x2D4 JUMPI PUSH4 0x4E487B71 PUSH1 0xE0 SHL PUSH0 MSTORE PUSH1 0x12 PUSH1 0x4 MSTORE PUSH1 0x24 PUSH0 REVERT JUMPDEST POP DIV SWAP1 JUMP JUMPDEST PUSH4 0x4E487B71 PUSH1 0xE0 SHL PUSH0 MSTORE PUSH1 0x32 PUSH1 0x4 MSTORE PUSH1 0x24 PUSH0 REVERT JUMPDEST DUP1 DUP3 ADD DUP1 DUP3 GT ISZERO PUSH2 0x1A9 JUMPI PUSH2 0x1A9 PUSH2 0x293 JUMP INVALID LOG2 PUSH5 0x6970667358 0x22 SLT KECCAK256 0xED 0xB7 0xA5 0xD6 SIGNEXTEND 0xCA 0xAF PUSH8 0x4DA25415F2DBBB BASEFEE MSIZE 0x4F 0xF PUSH9 0x11802F43CEA55AA630 CALL CHAINID PUSH5 0x736F6C6343 STOP ADDMOD 0x1F STOP CALLER "
				},
				"gasEstimates": {
					"creation": {
						"codeDepositCost": "164400",
						"executionCost": "206",
						"totalCost": "164606"
					},
					"external": {
						"binarySearch(int256[],int256)": "infinite"
					}
				},
				"methodIdentifiers": {
					"binarySearch(int256[],int256)": "f4353706"
				}
			},
			"storageLayout": {
				"storage": [],
				"types": null
			},
			"userdoc": {
				"kind": "user",
				"methods": {},
				"version": 1
			}
		}
	}
}