{
  "_format": "hh3-artifact-1",
  "contractName": "MetaNFTAuction",
  "sourceName": "contracts/MetaNFTAuction.sol",
  "abi": [
    {
      "anonymous": false,
      "inputs": [
        {
          "indexed": true,
          "internalType": "uint256",
          "name": "auctionId",
          "type": "uint256"
        },
        {
          "indexed": true,
          "internalType": "address",
          "name": "bidder",
          "type": "address"
        },
        {
          "indexed": false,
          "internalType": "uint256",
          "name": "amount",
          "type": "uint256"
        }
      ],
      "name": "Bid",
      "type": "event"
    },
    {
      "anonymous": false,
      "inputs": [
        {
          "indexed": true,
          "internalType": "uint256",
          "name": "auctionId",
          "type": "uint256"
        }
      ],
      "name": "EndBid",
      "type": "event"
    },
    {
      "anonymous": false,
      "inputs": [
        {
          "indexed": false,
          "internalType": "uint8",
          "name": "version",
          "type": "uint8"
        }
      ],
      "name": "Initialized",
      "type": "event"
    },
    {
      "anonymous": false,
      "inputs": [
        {
          "indexed": false,
          "internalType": "uint256",
          "name": "startBidId",
          "type": "uint256"
        }
      ],
      "name": "StartBid",
      "type": "event"
    },
    {
      "anonymous": false,
      "inputs": [
        {
          "indexed": true,
          "internalType": "uint256",
          "name": "auctionId",
          "type": "uint256"
        },
        {
          "indexed": true,
          "internalType": "address",
          "name": "bidder",
          "type": "address"
        },
        {
          "indexed": false,
          "internalType": "uint256",
          "name": "paymentMode",
          "type": "uint256"
        },
        {
          "indexed": false,
          "internalType": "uint256",
          "name": "amount",
          "type": "uint256"
        }
      ],
      "name": "Withdraw",
      "type": "event"
    },
    {
      "inputs": [],
      "name": "NATIVE_TOKEN",
      "outputs": [
        {
          "internalType": "address",
          "name": "",
          "type": "address"
        }
      ],
      "stateMutability": "view",
      "type": "function"
    },
    {
      "inputs": [],
      "name": "SNIPING_PROTECTION",
      "outputs": [
        {
          "internalType": "uint256",
          "name": "",
          "type": "uint256"
        }
      ],
      "stateMutability": "view",
      "type": "function"
    },
    {
      "inputs": [
        {
          "internalType": "uint256",
          "name": "amount",
          "type": "uint256"
        },
        {
          "internalType": "uint8",
          "name": "decimals",
          "type": "uint8"
        },
        {
          "internalType": "uint256",
          "name": "price",
          "type": "uint256"
        }
      ],
      "name": "_toUsd",
      "outputs": [
        {
          "internalType": "uint256",
          "name": "",
          "type": "uint256"
        }
      ],
      "stateMutability": "pure",
      "type": "function"
    },
    {
      "inputs": [
        {
          "internalType": "address",
          "name": "token",
          "type": "address"
        }
      ],
      "name": "addAllowedPaymentToken",
      "outputs": [],
      "stateMutability": "nonpayable",
      "type": "function"
    },
    {
      "inputs": [
        {
          "internalType": "address",
          "name": "",
          "type": "address"
        }
      ],
      "name": "allowedPaymentTokens",
      "outputs": [
        {
          "internalType": "bool",
          "name": "",
          "type": "bool"
        }
      ],
      "stateMutability": "view",
      "type": "function"
    },
    {
      "inputs": [],
      "name": "auctionId",
      "outputs": [
        {
          "internalType": "uint256",
          "name": "",
          "type": "uint256"
        }
      ],
      "stateMutability": "view",
      "type": "function"
    },
    {
      "inputs": [
        {
          "internalType": "uint256",
          "name": "",
          "type": "uint256"
        }
      ],
      "name": "auctions",
      "outputs": [
        {
          "internalType": "bool",
          "name": "isEnded",
          "type": "bool"
        },
        {
          "internalType": "contract IERC721",
          "name": "nft",
          "type": "address"
        },
        {
          "internalType": "uint256",
          "name": "nftId",
          "type": "uint256"
        },
        {
          "internalType": "address payable",
          "name": "seller",
          "type": "address"
        },
        {
          "internalType": "uint256",
          "name": "startTime",
          "type": "uint256"
        },
        {
          "internalType": "address",
          "name": "highestBidder",
          "type": "address"
        },
        {
          "internalType": "uint256",
          "name": "startPriceInDollar",
          "type": "uint256"
        },
        {
          "internalType": "uint256",
          "name": "duration",
          "type": "uint256"
        },
        {
          "internalType": "uint256",
          "name": "highestBid",
          "type": "uint256"
        },
        {
          "internalType": "uint256",
          "name": "highestBidUSD",
          "type": "uint256"
        }
      ],
      "stateMutability": "view",
      "type": "function"
    },
    {
      "inputs": [
        {
          "internalType": "uint256",
          "name": "auctionId_",
          "type": "uint256"
        }
      ],
      "name": "bid",
      "outputs": [],
      "stateMutability": "payable",
      "type": "function"
    },
    {
      "inputs": [
        {
          "internalType": "uint256",
          "name": "",
          "type": "uint256"
        },
        {
          "internalType": "address",
          "name": "",
          "type": "address"
        }
      ],
      "name": "bidMethods",
      "outputs": [
        {
          "internalType": "uint256",
          "name": "",
          "type": "uint256"
        }
      ],
      "stateMutability": "view",
      "type": "function"
    },
    {
      "inputs": [
        {
          "internalType": "uint256",
          "name": "auctionId_",
          "type": "uint256"
        }
      ],
      "name": "end",
      "outputs": [],
      "stateMutability": "nonpayable",
      "type": "function"
    },
    {
      "inputs": [],
      "name": "ethUsdFeed",
      "outputs": [
        {
          "internalType": "address",
          "name": "",
          "type": "address"
        }
      ],
      "stateMutability": "view",
      "type": "function"
    },
    {
      "inputs": [],
      "name": "getAdmin",
      "outputs": [
        {
          "internalType": "address",
          "name": "",
          "type": "address"
        }
      ],
      "stateMutability": "view",
      "type": "function"
    },
    {
      "inputs": [
        {
          "internalType": "uint256",
          "name": "bidMethod",
          "type": "uint256"
        }
      ],
      "name": "getPriceInDollar",
      "outputs": [
        {
          "internalType": "uint256",
          "name": "",
          "type": "uint256"
        }
      ],
      "stateMutability": "view",
      "type": "function"
    },
    {
      "inputs": [],
      "name": "getVersion",
      "outputs": [
        {
          "internalType": "string",
          "name": "",
          "type": "string"
        }
      ],
      "stateMutability": "pure",
      "type": "function"
    },
    {
      "inputs": [
        {
          "internalType": "address",
          "name": "admin_",
          "type": "address"
        },
        {
          "internalType": "address",
          "name": "ethUsdFeed_",
          "type": "address"
        },
        {
          "internalType": "address",
          "name": "usdcUsdFeed_",
          "type": "address"
        },
        {
          "internalType": "address",
          "name": "usdcaddr_",
          "type": "address"
        }
      ],
      "name": "initialize",
      "outputs": [],
      "stateMutability": "nonpayable",
      "type": "function"
    },
    {
      "inputs": [
        {
          "internalType": "address",
          "name": "seller",
          "type": "address"
        },
        {
          "internalType": "uint256",
          "name": "nftId",
          "type": "uint256"
        },
        {
          "internalType": "address",
          "name": "nft",
          "type": "address"
        },
        {
          "internalType": "uint256",
          "name": "startPriceInDollar",
          "type": "uint256"
        },
        {
          "internalType": "uint256",
          "name": "duration",
          "type": "uint256"
        },
        {
          "internalType": "address[]",
          "name": "paymentTokens",
          "type": "address[]"
        }
      ],
      "name": "start",
      "outputs": [
        {
          "internalType": "uint256",
          "name": "",
          "type": "uint256"
        }
      ],
      "stateMutability": "nonpayable",
      "type": "function"
    },
    {
      "inputs": [],
      "name": "usdcUsdFeed",
      "outputs": [
        {
          "internalType": "address",
          "name": "",
          "type": "address"
        }
      ],
      "stateMutability": "view",
      "type": "function"
    },
    {
      "inputs": [
        {
          "internalType": "uint256",
          "name": "",
          "type": "uint256"
        },
        {
          "internalType": "address",
          "name": "",
          "type": "address"
        },
        {
          "internalType": "address",
          "name": "",
          "type": "address"
        }
      ],
      "name": "userTokenAmount",
      "outputs": [
        {
          "internalType": "uint256",
          "name": "",
          "type": "uint256"
        }
      ],
      "stateMutability": "view",
      "type": "function"
    },
    {
      "inputs": [
        {
          "internalType": "uint256",
          "name": "",
          "type": "uint256"
        },
        {
          "internalType": "address",
          "name": "",
          "type": "address"
        }
      ],
      "name": "userUsdAmount",
      "outputs": [
        {
          "internalType": "uint256",
          "name": "",
          "type": "uint256"
        }
      ],
      "stateMutability": "view",
      "type": "function"
    },
    {
      "inputs": [
        {
          "internalType": "uint256",
          "name": "auctionId_",
          "type": "uint256"
        }
      ],
      "name": "withdraw",
      "outputs": [],
      "stateMutability": "nonpayable",
      "type": "function"
    }
  ],
  "bytecode": "0x6080604052600180553480156012575f5ffd5b5061231d806100205f395ff3fe60806040526004361061011b575f3560e01c80634d9a75e51161009d5780637a1cedee116100625780637a1cedee146104435780638009b7bd146104625780638ac12ee014610481578063f3e47e49146104a0578063f8c8765e146104bf575f5ffd5b80634d9a75e5146102de5780634e1a4152146102fd578063571a26a014610311578063697d312a146103e35780636e9960c314610421575f5ffd5b80632c9b0a5c116100e35780632c9b0a5c146102185780632e1a7d4d1461023757806331f7d96414610256578063454a2ab3146102955780634d10e8a2146102a8575f5ffd5b8063049440971461011f5780630a74a2a6146101685780630ad24528146101a45780630d8e6e2c146101c557806310782f8f14610203575b5f5ffd5b34801561012a575f5ffd5b50610155610139366004611e1d565b600560209081525f928352604080842090915290825290205481565b6040519081526020015b60405180910390f35b348015610173575f5ffd5b50610155610182366004611e4b565b600760209081525f938452604080852082529284528284209052825290205481565b3480156101af575f5ffd5b506101c36101be366004611e8a565b6104de565b005b3480156101d0575f5ffd5b50604080518082018252601081526f4d6574614e465441756374696f6e563160801b6020820152905161015f9190611ea1565b34801561020e575f5ffd5b5061015560015481565b348015610223575f5ffd5b506101c3610232366004611ed6565b610a86565b348015610242575f5ffd5b506101c3610251366004611e8a565b610ad8565b348015610261575f5ffd5b5061027d73eeeeeeeeeeeeeeeeeeeeeeeeeeeeeeeeeeeeeeee81565b6040516001600160a01b03909116815260200161015f565b6101c36102a3366004611e8a565b610ec8565b3480156102b3575f5ffd5b506101556102c2366004611e1d565b600660209081525f928352604080842090915290825290205481565b3480156102e9575f5ffd5b5060035461027d906001600160a01b031681565b348015610308575f5ffd5b50610155606481565b34801561031c575f5ffd5b5061038561032b366004611e8a565b60096020525f908152604090208054600182015460028301546003840154600485015460058601546006870154600788015460089098015460ff8816986101009098046001600160a01b039081169896811696941693908a565b604080519a15158b526001600160a01b03998a1660208c01528a019790975294871660608901526080880193909352941660a086015260c085019390935260e08401929092526101008301919091526101208201526101400161015f565b3480156103ee575f5ffd5b506104116103fd366004611ed6565b60086020525f908152604090205460ff1681565b604051901515815260200161015f565b34801561042c575f5ffd5b505f546201000090046001600160a01b031661027d565b34801561044e575f5ffd5b5061015561045d366004611ef1565b6113ef565b34801561046d575f5ffd5b5060025461027d906001600160a01b031681565b34801561048c575f5ffd5b5061015561049b366004611f2b565b611426565b3480156104ab575f5ffd5b506101556104ba366004611e8a565b6119a5565b3480156104ca575f5ffd5b506101c36104d9366004611fdd565b611ac5565b5f546201000090046001600160a01b031633146105165760405162461bcd60e51b815260040161050d90612036565b60405180910390fd5b5f818152600960205260409020805460ff16156105655760405162461bcd60e51b815260206004820152600d60248201526c105d58dd1a5bdb88195b991959609a1b604482015260640161050d565b80600601548160030154610579919061206d565b4210156105be5760405162461bcd60e51b8152602060048201526013602482015272105d58dd1a5bdb881b9bdd08195e1c1a5c9959606a1b604482015260640161050d565b805460ff1916600190811780835560028301546004840154928401546001600160a01b0391821693821692909161010090910416826106945784546040516323b872dd60e01b81526101009091046001600160a01b0316906323b872dd9061062e90309088908790600401612080565b5f604051808303815f87803b158015610645575f5ffd5b505af1158015610657573d5f5f3e3d5ffd5b50506040805160018152602081018690526001600160a01b03881693508992505f5160206122c85f395f51905f52910160405180910390a3610a54565b6040516323b872dd60e01b81526001600160a01b038216906323b872dd906106c490309087908790600401612080565b5f604051808303815f87803b1580156106db575f5ffd5b505af11580156106ed573d5f5f3e3d5ffd5b5050604080515f8152602081018690526001600160a01b03871693508992505f5160206122c85f395f51905f52910160405180910390a35f8681526007602090815260408083206001600160a01b03878116855290835281842073eeeeeeeeeeeeeeeeeeeeeeeeeeeeeeeeeeeeeeee8552909252808320805460048054851686528386205492869055549093168452908320929092559081156108a557814710156107da5760405162461bcd60e51b815260206004820152601c60248201527f496e73756666696369656e742045544820696e20636f6e747261637400000000604482015260640161050d565b5f866001600160a01b0316836040515f6040518083038185875af1925050503d805f8114610823576040519150601f19603f3d011682016040523d82523d5f602084013e610828565b606091505b505090508061086f5760405162461bcd60e51b8152602060048201526013602482015272115512081d1c985b9cd9995c8819985a5b1959606a1b604482015260640161050d565b6040805160018152602081018590526001600160a01b038916918b915f5160206122c85f395f51905f52910160405180910390a3505b8015610a5157600480546040516370a0823160e01b8152309281019290925282916001600160a01b03909116906370a0823190602401602060405180830381865afa1580156108f6573d5f5f3e3d5ffd5b505050506040513d601f19601f8201168201806040525081019061091a91906120a4565b101561095c5760405162461bcd60e51b8152602060048201526011602482015270496e73756666696369656e74205553444360781b604482015260640161050d565b6004805460405163a9059cbb60e01b81526001600160a01b0389811693820193909352602481018490525f929091169063a9059cbb906044016020604051808303815f875af11580156109b1573d5f5f3e3d5ffd5b505050506040513d601f19601f820116820180604052508101906109d591906120bb565b905080610a1b5760405162461bcd60e51b81526020600482015260146024820152731554d110c81d1c985b9cd9995c8819985a5b195960621b604482015260640161050d565b6040805160028152602081018490526001600160a01b038916918b915f5160206122c85f395f51905f52910160405180910390a3505b50505b60405186907f49f8c3bdcd0eb514e0cc6e15c20ea38221feede47b929c3ea387bf7ec5ed09cf905f90a2505050505050565b5f546201000090046001600160a01b03163314610ab55760405162461bcd60e51b815260040161050d90612036565b6001600160a01b03165f908152600860205260409020805460ff19166001179055565b5f818152600960205260409020805460ff16610b2a5760405162461bcd60e51b8152602060048201526011602482015270105d58dd1a5bdb881b9bdd08195b991959607a1b604482015260640161050d565b5f828152600760209081526040808320338452825280832073eeeeeeeeeeeeeeeeeeeeeeeeeeeeeeeeeeeeeeee8452909152808220546004546001600160a01b0316835291205481158015610b7d575080155b15610bca5760405162461bcd60e51b815260206004820152601860248201527f45544820262620555344432062616c616e6365207a65726f0000000000000000604482015260640161050d565b5f848152600760209081526040808320338452825280832073eeeeeeeeeeeeeeeeeeeeeeeeeeeeeeeeeeeeeeee84529091528082208290556004546001600160a01b031682528120558115610d215781471015610c695760405162461bcd60e51b815260206004820152601c60248201527f496e73756666696369656e742045544820696e20636f6e747261637400000000604482015260640161050d565b6040515f90339084908381818185875af1925050503d805f8114610ca8576040519150601f19603f3d011682016040523d82523d5f602084013e610cad565b606091505b5050905080610cf45760405162461bcd60e51b8152602060048201526013602482015272115512081d1c985b9cd9995c8819985a5b1959606a1b604482015260640161050d565b604080516001815260208101859052339187915f5160206122c85f395f51905f52910160405180910390a3505b8015610ec257600480546040516370a0823160e01b8152309281019290925282916001600160a01b03909116906370a0823190602401602060405180830381865afa158015610d72573d5f5f3e3d5ffd5b505050506040513d601f19601f82011682018060405250810190610d9691906120a4565b1015610dd85760405162461bcd60e51b8152602060048201526011602482015270496e73756666696369656e74205553444360781b604482015260640161050d565b6004805460405163a9059cbb60e01b81523392810192909252602482018390525f916001600160a01b039091169063a9059cbb906044016020604051808303815f875af1158015610e2b573d5f5f3e3d5ffd5b505050506040513d601f19601f82011682018060405250810190610e4f91906120bb565b905080610e955760405162461bcd60e51b81526020600482015260146024820152731554d110c81d1c985b9cd9995c8819985a5b195960621b604482015260640161050d565b604080516002815260208101849052339187915f5160206122c85f395f51905f52910160405180910390a3505b50505050565b5f81815260096020526040902060028101546001600160a01b03163303610f255760405162461bcd60e51b815260206004820152601160248201527014d95b1b195c8818d85b9b9bdd08189a59607a1b604482015260640161050d565b805460ff1615610f675760405162461bcd60e51b815260206004820152600d60248201526c105d58dd1a5bdb88195b991959609a1b604482015260640161050d565b5f81600601548260030154610f7c919061206d565b9050804210610fbf5760405162461bcd60e51b815260206004820152600f60248201526e105d58dd1a5bdb88195e1c1a5c9959608a1b604482015260640161050d565b5f5f3411610fd8576004546001600160a01b0316610fee565b73eeeeeeeeeeeeeeeeeeeeeeeeeeeeeeeeeeeeeeee5b9050610ffa8482611c75565b6110465760405162461bcd60e51b815260206004820152601b60248201527f5061796d656e7420746f6b656e206e6f7420737570706f727465640000000000604482015260640161050d565b8161105260644261206d565b1115611072576064836006015f82825461106c919061206d565b90915550505b60088301545f61108382600161206d565b5f87815260056020908152604080832033845290915290205490915073eeeeeeeeeeeeeeeeeeeeeeeeeeeeeeeeeeeeeeed196001600160a01b038516016111d9575f34116111065760405162461bcd60e51b815260206004820152601060248201526f115512081b5d5cdd081899481cd95b9d60821b604482015260640161050d565b5f61111160016119a5565b90505f611120346012846113ef565b90505f61112d828561206d565b905084811161116c5760405162461bcd60e51b815260206004820152600b60248201526a42696420746f6f206c6f7760a81b604482015260640161050d565b5f8a8152600560209081526040808320338085529083528184208590558d845260078352818420908452825280832073eeeeeeeeeeeeeeeeeeeeeeeeeeeeeeeeeeeeeeee8452909152812080543492906111c790849061206d565b909155505060088901555061138f9050565b5f6111e482846120da565b90505f6111f886836305f5e1006006611d39565b90505f61120882620f42406120ed565b604051636eb1769f60e11b8152336004820152306024820152909150879083906001600160a01b0383169063dd62ed3e90604401602060405180830381865afa158015611257573d5f5f3e3d5ffd5b505050506040513d601f19601f8201168201806040525081019061127b91906120a4565b10156112bd5760405162461bcd60e51b8152602060048201526011602482015270416c6c6f77616e636520746f6f206c6f7760781b604482015260640161050d565b6040516323b872dd60e01b81526001600160a01b038216906323b872dd906112ed90339030908790600401612080565b6020604051808303815f875af1158015611309573d5f5f3e3d5ffd5b505050506040513d601f19601f8201168201806040525081019061132d91906120bb565b505f8b8152600560209081526040808320338085529083528184208a90558e84526007835281842090845282528083206001600160a01b038c1684529091528120805484929061137e90849061206d565b909155505050506008880184905550505b6004860180546001600160a01b03191633908117909155600887015460405189917fdcd726e11f8b5e160f00290f0fe3a1abb547474e53a8e7a8f49a85e7b1ca3199916113de91815260200190565b60405180910390a350505050505050565b5f6305f5e10061140084600a6121e7565b61140a84876120ed565b61141491906121f5565b61141e91906121f5565b949350505050565b5f80546201000090046001600160a01b031633146114565760405162461bcd60e51b815260040161050d90612036565b6001600160a01b03881661149d5760405162461bcd60e51b815260206004820152600e60248201526d34b73b30b634b21039b2b63632b960911b604482015260640161050d565b6001600160a01b0386166114e15760405162461bcd60e51b815260206004820152600b60248201526a1a5b9d985b1a59081b999d60aa1b604482015260640161050d565b601e8410156115225760405162461bcd60e51b815260206004820152600d60248201526c06475726174696f6e203e3d333609c1b604482015260640161050d565b5f85116115615760405162461bcd60e51b815260206004820152600d60248201526c696e76616c696420707269636560981b604482015260640161050d565b816115a25760405162461bcd60e51b81526020600482015260116024820152706e6f207061796d656e7420746f6b656e7360781b604482015260640161050d565b6040516331a9108f60e11b81526004810188905286906001600160a01b038a81169190831690636352211e90602401602060405180830381865afa1580156115ec573d5f5f3e3d5ffd5b505050506040513d601f19601f820116820180604052508101906116109190612214565b6001600160a01b0316146116525760405162461bcd60e51b81526020600482015260096024820152683737ba1037bbb732b960b91b604482015260640161050d565b60405163e985e9c560e01b81526001600160a01b038a8116600483015230602483015282169063e985e9c590604401602060405180830381865afa15801561169c573d5f5f3e3d5ffd5b505050506040513d601f19601f820116820180604052508101906116c091906120bb565b8061173a575060405163020604bf60e21b81526004810189905230906001600160a01b0383169063081812fc90602401602060405180830381865afa15801561170b573d5f5f3e3d5ffd5b505050506040513d601f19601f8201168201806040525081019061172f9190612214565b6001600160a01b0316145b6117755760405162461bcd60e51b815260206004820152600c60248201526b1b9bdd08185c1c1c9bdd995960a21b604482015260640161050d565b6040516323b872dd60e01b81526001600160a01b038216906323b872dd906117a5908c9030908d90600401612080565b5f604051808303815f87803b1580156117bc575f5ffd5b505af11580156117ce573d5f5f3e3d5ffd5b505050506040518061016001604052805f15158152602001826001600160a01b031681526020018981526020018a6001600160a01b031681526020014281526020015f6001600160a01b031681526020018781526020018681526020015f81526020018781526020018585808060200260200160405190810160405280939291908181526020018383602002808284375f9201829052509390945250506001805482526009602081815260409384902086518154888401516001600160a01b03908116610100908102610100600160a81b0319941515949094166001600160a81b031990931692909217929092178355958801519482019490945560608701516002820180549186166001600160a01b03199283161790556080880151600383015560a08801516004830180549190961691161790935560c0860151600584015560e08601516006840155928501516007830155610120850151600883015561014085015180519294506119489391850192910190611d8f565b50506001546040519081527fb5949404365a99702891e7d343a17849cef9b8b7bdb7773922e333f46de188a7915060200160405180910390a1600180549081905f6119928361222f565b90915550909a9950505050505050505050565b5f5f826001036119c157506002546001600160a01b0316611a18565b826002036119db57506003546001600160a01b0316611a18565b60405162461bcd60e51b8152602060048201526012602482015271125b9d985b1a5908189a59081b595d1a1bd960721b604482015260640161050d565b5f816001600160a01b031663feaf968c6040518163ffffffff1660e01b815260040160a060405180830381865afa158015611a55573d5f5f3e3d5ffd5b505050506040513d601f19601f82011682018060405250810190611a799190612265565b5050509150505f8113611abe5760405162461bcd60e51b815260206004820152600d60248201526c496e76616c696420707269636560981b604482015260640161050d565b9392505050565b5f54610100900460ff1615808015611ae357505f54600160ff909116105b80611afc5750303b158015611afc57505f5460ff166001145b611b5f5760405162461bcd60e51b815260206004820152602e60248201527f496e697469616c697a61626c653a20636f6e747261637420697320616c72656160448201526d191e481a5b9a5d1a585b1a5e995960921b606482015260840161050d565b5f805460ff191660011790558015611b80575f805461ff0019166101001790555b6001600160a01b038516611bcd5760405162461bcd60e51b815260206004820152601460248201527341646d696e2063616e6e6f74206265207a65726f60601b604482015260640161050d565b5f805462010000600160b01b031916620100006001600160a01b038881169190910291909117909155600280546001600160a01b031990811687841617909155600380548216868416179055600480549091169184169190911790558015611c6e575f805461ff0019169055604051600181527f7f26b83ff96e1f2b6a682f133852f6798a09c465da95921460cefb38474024989060200160405180910390a15b5050505050565b5f82815260096020818152604080842092830180548251818502810185019093528083528593830182828015611cd257602002820191905f5260205f20905b81546001600160a01b03168152600190910190602001808311611cb4575b509394505f93505050505b8151811015611d2c57846001600160a01b0316828281518110611d0257611d026122b3565b60200260200101516001600160a01b031603611d245760019350505050611d33565b600101611cdd565b505f925050505b92915050565b5f73eeeeeeeeeeeeeeeeeeeeeeeeeeeeeeeeeeeeeeed196001600160a01b03861601611d865782611d6b83600a6121e7565b611d7590866120ed565b611d7f91906121f5565b905061141e565b50919392505050565b828054828255905f5260205f20908101928215611de2579160200282015b82811115611de257825182546001600160a01b0319166001600160a01b03909116178255602090920191600190910190611dad565b50611dee929150611df2565b5090565b5b80821115611dee575f8155600101611df3565b6001600160a01b0381168114611e1a575f5ffd5b50565b5f5f60408385031215611e2e575f5ffd5b823591506020830135611e4081611e06565b809150509250929050565b5f5f5f60608486031215611e5d575f5ffd5b833592506020840135611e6f81611e06565b91506040840135611e7f81611e06565b809150509250925092565b5f60208284031215611e9a575f5ffd5b5035919050565b602081525f82518060208401528060208501604085015e5f604082850101526040601f19601f83011684010191505092915050565b5f60208284031215611ee6575f5ffd5b8135611abe81611e06565b5f5f5f60608486031215611f03575f5ffd5b83359250602084013560ff81168114611f1a575f5ffd5b929592945050506040919091013590565b5f5f5f5f5f5f5f60c0888a031215611f41575f5ffd5b8735611f4c81611e06565b9650602088013595506040880135611f6381611e06565b9450606088013593506080880135925060a088013567ffffffffffffffff811115611f8c575f5ffd5b8801601f81018a13611f9c575f5ffd5b803567ffffffffffffffff811115611fb2575f5ffd5b8a60208260051b8401011115611fc6575f5ffd5b602082019350809250505092959891949750929550565b5f5f5f5f60808587031215611ff0575f5ffd5b8435611ffb81611e06565b9350602085013561200b81611e06565b9250604085013561201b81611e06565b9150606085013561202b81611e06565b939692955090935050565b6020808252600990820152683737ba1030b236b4b760b91b604082015260600190565b634e487b7160e01b5f52601160045260245ffd5b80820180821115611d3357611d33612059565b6001600160a01b039384168152919092166020820152604081019190915260600190565b5f602082840312156120b4575f5ffd5b5051919050565b5f602082840312156120cb575f5ffd5b81518015158114611abe575f5ffd5b81810381811115611d3357611d33612059565b8082028115828204841417611d3357611d33612059565b6001815b600184111561213f5780850481111561212357612123612059565b600184161561213157908102905b60019390931c928002612108565b935093915050565b5f8261215557506001611d33565b8161216157505f611d33565b816001811461217757600281146121815761219d565b6001915050611d33565b60ff84111561219257612192612059565b50506001821b611d33565b5060208310610133831016604e8410600b84101617156121c0575081810a611d33565b6121cc5f198484612104565b805f19048211156121df576121df612059565b029392505050565b5f611abe60ff841683612147565b5f8261220f57634e487b7160e01b5f52601260045260245ffd5b500490565b5f60208284031215612224575f5ffd5b8151611abe81611e06565b5f6001820161224057612240612059565b5060010190565b805169ffffffffffffffffffff81168114612260575f5ffd5b919050565b5f5f5f5f5f60a08688031215612279575f5ffd5b61228286612247565b602087015160408801516060890151929750909550935091506122a760808701612247565b90509295509295909350565b634e487b7160e01b5f52603260045260245ffdfeb0ecf14e184effded5473bba77dcfab32b094b77ac1fbb36beec2aef55587970a2646970667358221220831197b3b45dbfac630ee7d285dd309b294a58759b8fb642a55d2a5c941b59ca64736f6c634300081c0033",
  "linkReferences": {},
  "deployedLinkReferences": {},
  "immutableReferences": {},
  "inputSourceName": "project/contracts/MetaNFTAuction.sol",
  "buildInfoId": "solc-0_8_28-8e924c839264d03480abd7cdfa24d101bc345091"
}