{
  "_format": "hh3-artifact-1",
  "contractName": "MetaNFT",
  "sourceName": "contracts/MetaNFT.sol",
  "abi": [
    {
      "inputs": [],
      "stateMutability": "nonpayable",
      "type": "constructor"
    },
    {
      "inputs": [
        {
          "internalType": "address",
          "name": "sender",
          "type": "address"
        },
        {
          "internalType": "uint256",
          "name": "tokenId",
          "type": "uint256"
        },
        {
          "internalType": "address",
          "name": "owner",
          "type": "address"
        }
      ],
      "name": "ERC721IncorrectOwner",
      "type": "error"
    },
    {
      "inputs": [
        {
          "internalType": "address",
          "name": "operator",
          "type": "address"
        },
        {
          "internalType": "uint256",
          "name": "tokenId",
          "type": "uint256"
        }
      ],
      "name": "ERC721InsufficientApproval",
      "type": "error"
    },
    {
      "inputs": [
        {
          "internalType": "address",
          "name": "approver",
          "type": "address"
        }
      ],
      "name": "ERC721InvalidApprover",
      "type": "error"
    },
    {
      "inputs": [
        {
          "internalType": "address",
          "name": "operator",
          "type": "address"
        }
      ],
      "name": "ERC721InvalidOperator",
      "type": "error"
    },
    {
      "inputs": [
        {
          "internalType": "address",
          "name": "owner",
          "type": "address"
        }
      ],
      "name": "ERC721InvalidOwner",
      "type": "error"
    },
    {
      "inputs": [
        {
          "internalType": "address",
          "name": "receiver",
          "type": "address"
        }
      ],
      "name": "ERC721InvalidReceiver",
      "type": "error"
    },
    {
      "inputs": [
        {
          "internalType": "address",
          "name": "sender",
          "type": "address"
        }
      ],
      "name": "ERC721InvalidSender",
      "type": "error"
    },
    {
      "inputs": [
        {
          "internalType": "uint256",
          "name": "tokenId",
          "type": "uint256"
        }
      ],
      "name": "ERC721NonexistentToken",
      "type": "error"
    },
    {
      "inputs": [
        {
          "internalType": "address",
          "name": "owner",
          "type": "address"
        }
      ],
      "name": "OwnableInvalidOwner",
      "type": "error"
    },
    {
      "inputs": [
        {
          "internalType": "address",
          "name": "account",
          "type": "address"
        }
      ],
      "name": "OwnableUnauthorizedAccount",
      "type": "error"
    },
    {
      "anonymous": false,
      "inputs": [
        {
          "indexed": true,
          "internalType": "address",
          "name": "owner",
          "type": "address"
        },
        {
          "indexed": true,
          "internalType": "address",
          "name": "approved",
          "type": "address"
        },
        {
          "indexed": true,
          "internalType": "uint256",
          "name": "tokenId",
          "type": "uint256"
        }
      ],
      "name": "Approval",
      "type": "event"
    },
    {
      "anonymous": false,
      "inputs": [
        {
          "indexed": true,
          "internalType": "address",
          "name": "owner",
          "type": "address"
        },
        {
          "indexed": true,
          "internalType": "address",
          "name": "operator",
          "type": "address"
        },
        {
          "indexed": false,
          "internalType": "bool",
          "name": "approved",
          "type": "bool"
        }
      ],
      "name": "ApprovalForAll",
      "type": "event"
    },
    {
      "anonymous": false,
      "inputs": [
        {
          "indexed": true,
          "internalType": "address",
          "name": "previousOwner",
          "type": "address"
        },
        {
          "indexed": true,
          "internalType": "address",
          "name": "newOwner",
          "type": "address"
        }
      ],
      "name": "OwnershipTransferred",
      "type": "event"
    },
    {
      "anonymous": false,
      "inputs": [
        {
          "indexed": true,
          "internalType": "address",
          "name": "from",
          "type": "address"
        },
        {
          "indexed": true,
          "internalType": "address",
          "name": "to",
          "type": "address"
        },
        {
          "indexed": true,
          "internalType": "uint256",
          "name": "tokenId",
          "type": "uint256"
        }
      ],
      "name": "Transfer",
      "type": "event"
    },
    {
      "inputs": [
        {
          "internalType": "address",
          "name": "to",
          "type": "address"
        },
        {
          "internalType": "uint256",
          "name": "tokenId",
          "type": "uint256"
        }
      ],
      "name": "approve",
      "outputs": [],
      "stateMutability": "nonpayable",
      "type": "function"
    },
    {
      "inputs": [
        {
          "internalType": "address",
          "name": "owner",
          "type": "address"
        }
      ],
      "name": "balanceOf",
      "outputs": [
        {
          "internalType": "uint256",
          "name": "",
          "type": "uint256"
        }
      ],
      "stateMutability": "view",
      "type": "function"
    },
    {
      "inputs": [
        {
          "internalType": "uint256",
          "name": "id",
          "type": "uint256"
        }
      ],
      "name": "burn",
      "outputs": [],
      "stateMutability": "nonpayable",
      "type": "function"
    },
    {
      "inputs": [
        {
          "internalType": "uint256",
          "name": "tokenId",
          "type": "uint256"
        }
      ],
      "name": "getApproved",
      "outputs": [
        {
          "internalType": "address",
          "name": "",
          "type": "address"
        }
      ],
      "stateMutability": "view",
      "type": "function"
    },
    {
      "inputs": [
        {
          "internalType": "address",
          "name": "owner",
          "type": "address"
        },
        {
          "internalType": "address",
          "name": "operator",
          "type": "address"
        }
      ],
      "name": "isApprovedForAll",
      "outputs": [
        {
          "internalType": "bool",
          "name": "",
          "type": "bool"
        }
      ],
      "stateMutability": "view",
      "type": "function"
    },
    {
      "inputs": [
        {
          "internalType": "address",
          "name": "to",
          "type": "address"
        }
      ],
      "name": "mint",
      "outputs": [
        {
          "internalType": "uint256",
          "name": "",
          "type": "uint256"
        }
      ],
      "stateMutability": "nonpayable",
      "type": "function"
    },
    {
      "inputs": [],
      "name": "name",
      "outputs": [
        {
          "internalType": "string",
          "name": "",
          "type": "string"
        }
      ],
      "stateMutability": "view",
      "type": "function"
    },
    {
      "inputs": [],
      "name": "nftId",
      "outputs": [
        {
          "internalType": "uint256",
          "name": "",
          "type": "uint256"
        }
      ],
      "stateMutability": "view",
      "type": "function"
    },
    {
      "inputs": [],
      "name": "owner",
      "outputs": [
        {
          "internalType": "address",
          "name": "",
          "type": "address"
        }
      ],
      "stateMutability": "view",
      "type": "function"
    },
    {
      "inputs": [
        {
          "internalType": "uint256",
          "name": "tokenId",
          "type": "uint256"
        }
      ],
      "name": "ownerOf",
      "outputs": [
        {
          "internalType": "address",
          "name": "",
          "type": "address"
        }
      ],
      "stateMutability": "view",
      "type": "function"
    },
    {
      "inputs": [],
      "name": "renounceOwnership",
      "outputs": [],
      "stateMutability": "nonpayable",
      "type": "function"
    },
    {
      "inputs": [
        {
          "internalType": "address",
          "name": "from",
          "type": "address"
        },
        {
          "internalType": "address",
          "name": "to",
          "type": "address"
        },
        {
          "internalType": "uint256",
          "name": "tokenId",
          "type": "uint256"
        }
      ],
      "name": "safeTransferFrom",
      "outputs": [],
      "stateMutability": "nonpayable",
      "type": "function"
    },
    {
      "inputs": [
        {
          "internalType": "address",
          "name": "from",
          "type": "address"
        },
        {
          "internalType": "address",
          "name": "to",
          "type": "address"
        },
        {
          "internalType": "uint256",
          "name": "tokenId",
          "type": "uint256"
        },
        {
          "internalType": "bytes",
          "name": "data",
          "type": "bytes"
        }
      ],
      "name": "safeTransferFrom",
      "outputs": [],
      "stateMutability": "nonpayable",
      "type": "function"
    },
    {
      "inputs": [
        {
          "internalType": "address",
          "name": "operator",
          "type": "address"
        },
        {
          "internalType": "bool",
          "name": "approved",
          "type": "bool"
        }
      ],
      "name": "setApprovalForAll",
      "outputs": [],
      "stateMutability": "nonpayable",
      "type": "function"
    },
    {
      "inputs": [
        {
          "internalType": "bytes4",
          "name": "interfaceId",
          "type": "bytes4"
        }
      ],
      "name": "supportsInterface",
      "outputs": [
        {
          "internalType": "bool",
          "name": "",
          "type": "bool"
        }
      ],
      "stateMutability": "view",
      "type": "function"
    },
    {
      "inputs": [],
      "name": "symbol",
      "outputs": [
        {
          "internalType": "string",
          "name": "",
          "type": "string"
        }
      ],
      "stateMutability": "view",
      "type": "function"
    },
    {
      "inputs": [
        {
          "internalType": "uint256",
          "name": "tokenId",
          "type": "uint256"
        }
      ],
      "name": "tokenURI",
      "outputs": [
        {
          "internalType": "string",
          "name": "",
          "type": "string"
        }
      ],
      "stateMutability": "view",
      "type": "function"
    },
    {
      "inputs": [
        {
          "internalType": "address",
          "name": "from",
          "type": "address"
        },
        {
          "internalType": "address",
          "name": "to",
          "type": "address"
        },
        {
          "internalType": "uint256",
          "name": "tokenId",
          "type": "uint256"
        }
      ],
      "name": "transferFrom",
      "outputs": [],
      "stateMutability": "nonpayable",
      "type": "function"
    },
    {
      "inputs": [
        {
          "internalType": "address",
          "name": "newOwner",
          "type": "address"
        }
      ],
      "name": "transferOwnership",
      "outputs": [],
      "stateMutability": "nonpayable",
      "type": "function"
    }
  ],
  "bytecode": "0x608060405234801561000f575f5ffd5b50336040518060400160405280600781526020016613595d1853919560ca1b8152506040518060400160405280600381526020016213519560ea1b815250815f908161005b9190610195565b5060016100688282610195565b5050506001600160a01b03811661009857604051631e4fbdf760e01b81525f600482015260240160405180910390fd5b6100a1816100ac565b50600160075561024f565b600680546001600160a01b038381166001600160a01b0319831681179093556040519116919082907f8be0079c531659141344cd1fd0a4f28419497f9722a3daafe3b4186f6b6457e0905f90a35050565b634e487b7160e01b5f52604160045260245ffd5b600181811c9082168061012557607f821691505b60208210810361014357634e487b7160e01b5f52602260045260245ffd5b50919050565b601f82111561019057805f5260205f20601f840160051c8101602085101561016e5750805b601f840160051c820191505b8181101561018d575f815560010161017a565b50505b505050565b81516001600160401b038111156101ae576101ae6100fd565b6101c2816101bc8454610111565b84610149565b6020601f8211600181146101f4575f83156101dd5750848201515b5f19600385901b1c1916600184901b17845561018d565b5f84815260208120601f198516915b828110156102235787850151825560209485019460019092019101610203565b508482101561024057868401515f19600387901b60f8161c191681555b50505050600190811b01905550565b6111908061025c5f395ff3fe608060405234801561000f575f5ffd5b506004361061011c575f3560e01c806370a08231116100a9578063b88d4fde1161006e578063b88d4fde14610251578063c6bc518214610264578063c87b56dd1461026d578063e985e9c514610280578063f2fde38b14610293575f5ffd5b806370a082311461020a578063715018a61461021d5780638da5cb5b1461022557806395d89b4114610236578063a22cb4651461023e575f5ffd5b806323b872dd116100ef57806323b872dd1461019d57806342842e0e146101b057806342966c68146101c35780636352211e146101d65780636a627842146101e9575f5ffd5b806301ffc9a71461012057806306fdde0314610148578063081812fc1461015d578063095ea7b314610188575b5f5ffd5b61013361012e366004610e1e565b6102a6565b60405190151581526020015b60405180910390f35b6101506102f7565b60405161013f9190610e67565b61017061016b366004610e79565b610386565b6040516001600160a01b03909116815260200161013f565b61019b610196366004610ea6565b6103ad565b005b61019b6101ab366004610ece565b6103bc565b61019b6101be366004610ece565b61044a565b61019b6101d1366004610e79565b610469565b6101706101e4366004610e79565b6104ca565b6101fc6101f7366004610f08565b6104d4565b60405190815260200161013f565b6101fc610218366004610f08565b610507565b61019b61054c565b6006546001600160a01b0316610170565b61015061055f565b61019b61024c366004610f21565b61056e565b61019b61025f366004610f6e565b610579565b6101fc60075481565b61015061027b366004610e79565b610591565b61013361028e36600461104b565b610602565b61019b6102a1366004610f08565b61062f565b5f6001600160e01b031982166380ac58cd60e01b14806102d657506001600160e01b03198216635b5e139f60e01b145b806102f157506301ffc9a760e01b6001600160e01b03198316145b92915050565b60605f80546103059061107c565b80601f01602080910402602001604051908101604052809291908181526020018280546103319061107c565b801561037c5780601f106103535761010080835404028352916020019161037c565b820191905f5260205f20905b81548152906001019060200180831161035f57829003601f168201915b5050505050905090565b5f61039082610669565b505f828152600460205260409020546001600160a01b03166102f1565b6103b88282336106a1565b5050565b6001600160a01b0382166103ea57604051633250574960e11b81525f60048201526024015b60405180910390fd5b5f6103f68383336106ae565b9050836001600160a01b0316816001600160a01b031614610444576040516364283d7b60e01b81526001600160a01b03808616600483015260248201849052821660448201526064016103e1565b50505050565b61046483838360405180602001604052805f815250610579565b505050565b610472816104ca565b6001600160a01b0316336001600160a01b0316146104be5760405162461bcd60e51b81526020600482015260096024820152683737ba1037bbb732b960b91b60448201526064016103e1565b6104c7816107a0565b50565b5f6102f182610669565b5f6104dd6107d8565b6007546104ea8382610805565b60078054905f6104f9836110b4565b90915550909150505b919050565b5f6001600160a01b038216610531576040516322718ad960e21b81525f60048201526024016103e1565b506001600160a01b03165f9081526003602052604090205490565b6105546107d8565b61055d5f61081e565b565b6060600180546103059061107c565b6103b833838361086f565b6105848484846103bc565b6104443385858585610936565b606061059c82610669565b505f6105b260408051602081019091525f815290565b90505f8151116105d05760405180602001604052805f8152506105fb565b806105da84610a5e565b6040516020016105eb9291906110ef565b6040516020818303038152906040525b9392505050565b6001600160a01b039182165f90815260056020908152604080832093909416825291909152205460ff1690565b6106376107d8565b6001600160a01b03811661066057604051631e4fbdf760e01b81525f60048201526024016103e1565b6104c78161081e565b5f818152600260205260408120546001600160a01b0316806102f157604051637e27328960e01b8152600481018490526024016103e1565b6104648383836001610aee565b5f828152600260205260408120546001600160a01b03908116908316156106da576106da818486610bf2565b6001600160a01b03811615610714576106f55f855f5f610aee565b6001600160a01b0381165f90815260036020526040902080545f190190555b6001600160a01b03851615610742576001600160a01b0385165f908152600360205260409020805460010190555b5f8481526002602052604080822080546001600160a01b0319166001600160a01b0389811691821790925591518793918516917fddf252ad1be2c89b69c2b068fc378daa952ba7f163c4a11628f55a4df523b3ef91a4949350505050565b5f6107ac5f835f6106ae565b90506001600160a01b0381166103b857604051637e27328960e01b8152600481018390526024016103e1565b6006546001600160a01b0316331461055d5760405163118cdaa760e01b81523360048201526024016103e1565b6103b8828260405180602001604052805f815250610c56565b600680546001600160a01b038381166001600160a01b0319831681179093556040519116919082907f8be0079c531659141344cd1fd0a4f28419497f9722a3daafe3b4186f6b6457e0905f90a35050565b6001600160a01b0383166108985760405163a9fbf51f60e01b81525f60048201526024016103e1565b6001600160a01b0382166108ca57604051630b61174360e31b81526001600160a01b03831660048201526024016103e1565b6001600160a01b038381165f81815260056020908152604080832094871680845294825291829020805460ff191686151590811790915591519182527f17307eab39ab6107e8899845ad3d59bd9653f200f220920489ca2b5937696c31910160405180910390a3505050565b6001600160a01b0383163b15610a5757604051630a85bd0160e11b81526001600160a01b0384169063150b7a0290610978908890889087908790600401611103565b6020604051808303815f875af19250505080156109b2575060408051601f3d908101601f191682019092526109af9181019061113f565b60015b610a19573d8080156109df576040519150601f19603f3d011682016040523d82523d5f602084013e6109e4565b606091505b5080515f03610a1157604051633250574960e11b81526001600160a01b03851660048201526024016103e1565b805160208201fd5b6001600160e01b03198116630a85bd0160e11b14610a5557604051633250574960e11b81526001600160a01b03851660048201526024016103e1565b505b5050505050565b60605f610a6a83610c6d565b60010190505f8167ffffffffffffffff811115610a8957610a89610f5a565b6040519080825280601f01601f191660200182016040528015610ab3576020820181803683370190505b5090508181016020015b5f19016f181899199a1a9b1b9c1cb0b131b232b360811b600a86061a8153600a8504945084610abd57509392505050565b8080610b0257506001600160a01b03821615155b15610bc3575f610b1184610669565b90506001600160a01b03831615801590610b3d5750826001600160a01b0316816001600160a01b031614155b8015610b505750610b4e8184610602565b155b15610b795760405163a9fbf51f60e01b81526001600160a01b03841660048201526024016103e1565b8115610bc15783856001600160a01b0316826001600160a01b03167f8c5be1e5ebec7d5bd14f71427d1e84f3dd0314c0f7b2291e5b200ac8c7c3b92560405160405180910390a45b505b50505f90815260046020526040902080546001600160a01b0319166001600160a01b0392909216919091179055565b610bfd838383610d44565b610464576001600160a01b038316610c2b57604051637e27328960e01b8152600481018290526024016103e1565b60405163177e802f60e01b81526001600160a01b0383166004820152602481018290526044016103e1565b610c608383610da8565b610464335f858585610936565b5f8072184f03e93ff9f4daa797ed6e38ed64bf6a1f0160401b8310610cab5772184f03e93ff9f4daa797ed6e38ed64bf6a1f0160401b830492506040015b6d04ee2d6d415b85acef81000000008310610cd7576d04ee2d6d415b85acef8100000000830492506020015b662386f26fc100008310610cf557662386f26fc10000830492506010015b6305f5e1008310610d0d576305f5e100830492506008015b6127108310610d2157612710830492506004015b60648310610d33576064830492506002015b600a83106102f15760010192915050565b5f6001600160a01b03831615801590610da05750826001600160a01b0316846001600160a01b03161480610d7d5750610d7d8484610602565b80610da057505f828152600460205260409020546001600160a01b038481169116145b949350505050565b6001600160a01b038216610dd157604051633250574960e11b81525f60048201526024016103e1565b5f610ddd83835f6106ae565b90506001600160a01b03811615610464576040516339e3563760e11b81525f60048201526024016103e1565b6001600160e01b0319811681146104c7575f5ffd5b5f60208284031215610e2e575f5ffd5b81356105fb81610e09565b5f81518084528060208401602086015e5f602082860101526020601f19601f83011685010191505092915050565b602081525f6105fb6020830184610e39565b5f60208284031215610e89575f5ffd5b5035919050565b80356001600160a01b0381168114610502575f5ffd5b5f5f60408385031215610eb7575f5ffd5b610ec083610e90565b946020939093013593505050565b5f5f5f60608486031215610ee0575f5ffd5b610ee984610e90565b9250610ef760208501610e90565b929592945050506040919091013590565b5f60208284031215610f18575f5ffd5b6105fb82610e90565b5f5f60408385031215610f32575f5ffd5b610f3b83610e90565b915060208301358015158114610f4f575f5ffd5b809150509250929050565b634e487b7160e01b5f52604160045260245ffd5b5f5f5f5f60808587031215610f81575f5ffd5b610f8a85610e90565b9350610f9860208601610e90565b925060408501359150606085013567ffffffffffffffff811115610fba575f5ffd5b8501601f81018713610fca575f5ffd5b803567ffffffffffffffff811115610fe457610fe4610f5a565b604051601f8201601f19908116603f0116810167ffffffffffffffff8111828210171561101357611013610f5a565b60405281815282820160200189101561102a575f5ffd5b816020840160208301375f6020838301015280935050505092959194509250565b5f5f6040838503121561105c575f5ffd5b61106583610e90565b915061107360208401610e90565b90509250929050565b600181811c9082168061109057607f821691505b6020821081036110ae57634e487b7160e01b5f52602260045260245ffd5b50919050565b5f600182016110d157634e487b7160e01b5f52601160045260245ffd5b5060010190565b5f81518060208401855e5f93019283525090919050565b5f610da06110fd83866110d8565b846110d8565b6001600160a01b03858116825284166020820152604081018390526080606082018190525f9061113590830184610e39565b9695505050505050565b5f6020828403121561114f575f5ffd5b81516105fb81610e0956fea2646970667358221220fff052b5f0494321f90bea8c88e5e4153a213e285ebf02865e03e246473074c964736f6c634300081c0033",
  "linkReferences": {},
  "deployedLinkReferences": {},
  "immutableReferences": {},
  "inputSourceName": "project/contracts/MetaNFT.sol",
  "buildInfoId": "solc-0_8_28-ca7fd1e48a7537b32c36a0fb2ce5f70ebc46d2d4"
}