{
  "_format": "hh3-artifact-1",
  "contractName": "MockV3Aggregator",
  "sourceName": "contracts/mock/MockV3Aggregator.sol",
  "abi": [
    {
      "inputs": [
        {
          "internalType": "uint8",
          "name": "decimals_",
          "type": "uint8"
        },
        {
          "internalType": "int256",
          "name": "answer_",
          "type": "int256"
        }
      ],
      "stateMutability": "nonpayable",
      "type": "constructor"
    },
    {
      "inputs": [],
      "name": "decimals",
      "outputs": [
        {
          "internalType": "uint8",
          "name": "",
          "type": "uint8"
        }
      ],
      "stateMutability": "view",
      "type": "function"
    },
    {
      "inputs": [],
      "name": "description",
      "outputs": [
        {
          "internalType": "string",
          "name": "",
          "type": "string"
        }
      ],
      "stateMutability": "pure",
      "type": "function"
    },
    {
      "inputs": [
        {
          "internalType": "uint80",
          "name": "",
          "type": "uint80"
        }
      ],
      "name": "getRoundData",
      "outputs": [
        {
          "internalType": "uint80",
          "name": "",
          "type": "uint80"
        },
        {
          "internalType": "int256",
          "name": "",
          "type": "int256"
        },
        {
          "internalType": "uint256",
          "name": "",
          "type": "uint256"
        },
        {
          "internalType": "uint256",
          "name": "",
          "type": "uint256"
        },
        {
          "internalType": "uint80",
          "name": "",
          "type": "uint80"
        }
      ],
      "stateMutability": "pure",
      "type": "function"
    },
    {
      "inputs": [],
      "name": "latestRoundData",
      "outputs": [
        {
          "internalType": "uint80",
          "name": "",
          "type": "uint80"
        },
        {
          "internalType": "int256",
          "name": "",
          "type": "int256"
        },
        {
          "internalType": "uint256",
          "name": "",
          "type": "uint256"
        },
        {
          "internalType": "uint256",
          "name": "",
          "type": "uint256"
        },
        {
          "internalType": "uint80",
          "name": "",
          "type": "uint80"
        }
      ],
      "stateMutability": "view",
      "type": "function"
    },
    {
      "inputs": [],
      "name": "version",
      "outputs": [
        {
          "internalType": "uint256",
          "name": "",
          "type": "uint256"
        }
      ],
      "stateMutability": "pure",
      "type": "function"
    }
  ],
  "bytecode": "0x6080604052348015600e575f5ffd5b50604051610232380380610232833981016040819052602b916046565b5f805460ff191660ff93909316929092179091556001556075565b5f5f604083850312156056575f5ffd5b825160ff811681146065575f5ffd5b6020939093015192949293505050565b6101b0806100825f395ff3fe608060405234801561000f575f5ffd5b5060043610610055575f3560e01c8063313ce5671461005957806354fd4d501461007c5780637284e4161461008b5780639a6fc8f5146100b6578063feaf968c14610108575b5f5ffd5b5f546100659060ff1681565b60405160ff90911681526020015b60405180910390f35b60405160018152602001610073565b6040805180820182526009815268135bd8dac81199595960ba1b602082015290516100739190610115565b6100d16100c436600461014a565b505f908190819081908190565b6040805169ffffffffffffffffffff968716815260208101959095528401929092526060830152909116608082015260a001610073565b6001545f908180806100d1565b602081525f82518060208401528060208501604085015e5f604082850101526040601f19601f83011684010191505092915050565b5f6020828403121561015a575f5ffd5b813569ffffffffffffffffffff81168114610173575f5ffd5b939250505056fea2646970667358221220a94e0dad93787e2394f9da48ef42c7817f4ac8cdddd57cf6be97344dc669059964736f6c634300081c0033",
  "linkReferences": {},
  "deployedLinkReferences": {},
  "immutableReferences": {},
  "inputSourceName": "project/contracts/mock/MockV3Aggregator.sol",
  "buildInfoId": "solc-0_8_28-d246b2eac9aa3db7a3bd4ea77137d41069a23e8d"
}